:100000000C9411030C9455030C9470030C94550339
:100010000C9455030C9455030C9455030C94550300
:100020000C9455030C9455030C9444210C945503E3
:100030000C9455030C9455030C9455030C945503E0
:100040000C9455030C9455030C9455030C945503D0
:100050000C945503E000E300E20000000000000003
:1000600000000000E4006500E60000000000000061
:100070000000E1001D001B00060019000500000043
:1000800000001C0018000C00120013002F003000AC
:10009000390004001600070009000A0000000000F3
:1000A0000B000D000E000F003300340031002B0058
:1000B00014001A00080015001700000000001100CD
:1000C00010003600370038002800E50035001E001B
:1000D0001F00200021002200230000002400250032
:1000E000260027002D002E002A0029003A003B00A0
:1000F0003C003D003E003F00000040004100420047
:1001000043004400450000000000250023002100BA
:100110001F0027002C000000520051004A0046003A
:100120004E004C002C00000026002400220020007D
:100130001E0000002C0050004F004B0049004D00F5
:1001400000000000010001000100000000000000AC
:10015000000000000100010001000000000000009C
:100160000000010001000100010001000100000089
:100170000000010001000100010001000100010078
:100180000100010001000100010001000000000069
:100190000100010001000100010001000100010057
:1001A0000100010001000100010000000000010049
:1001B0000100010001000100010001000100010037
:1001C0000100010001000100010000000100010028
:1001D0000100010001000100010001000100010017
:1001E0000100010001000100000001000100010008
:1001F00001000100010000000000010001000100F9
:1002000001000100010000000100010001000100E7
:1002100001000100010000000100010001000100D7
:1002200001000000010001000100010001000100C7
:1002300000000000010001000100000000000000BB
:1002400000000000010001000100000000000000AB
:100250000000010001000100010001000100000098
:100260000000010001000100010001000100010087
:100270000100010001000100010001000000000078
:100280000100010001000100010001000100010066
:100290000100010001000100010000000000010058
:1002A0000100010001000100010001000100010046
:1002B0000100010001000100010000000100010037
:1002C0000100010001000100010001000100010026
:1002D0000100010001000100000001000100010017
:1002E0000100010001000000000001000100010008
:1002F00001000100010000000100010001000100F7
:1003000001000100010000000100010001000100E6
:1003100001000000010001000100010001000100D6
:100320000000000032190A00047F3F1F6432146489
:100330003214783C1E1E140A052223252628292A59
:100340002C2D2F3032333536383A3B3D3E40424338
:100350004547494A4C4E5051535557595A5C5E6077
:1003600062646668696B6D6F71737577797B7D7F89
:1003700081838587898A8C8E90929496989A9C9E88
:100380009FA1A3A5A7A8AAACAEAFB1B3B4B6B8B9A4
:10039000BBBCBEBFC1C2C3C5C6C7C9CACBCCCDCE0C
:1003A000D0D1D2D2D3D4D5D6D7D7D8D9D9DADADBEF
:1003B000DBDBDCDCDCDCDCDDDDDDDDDCDCDCDCDC7B
:1003C000DBDBDBDADAD9D9D8D7D7D6D5D4D3D2D2BA
:1003D000D1D0CECDCCCBCAC9C7C6C5C3C2C1BFBEA2
:1003E000BCBBB9B8B6B4B3B1AFAEACAAA8A7A5A30D
:1003F000A19F9E9C9A98969492908E8C8A898785CC
:1004000083817F7D7B79777573716F6D6B696866AA
:100410006462605E5C5A5957555351504E4C4A497C
:1004200047454342403E3D3B3A3836353332302F24
:100430002D2C2A292826252322FFAA7F554000019A
:100440000101010101010101020202020202020294
:100450000203030303030303030404040404040466
:10046000050505050506060606060707070707082A
:10047000080808090909090A0A0A0B0B0B0C0C0CDD
:100480000D0D0D0E0E0E0F0F0F1010111111121277
:1004900013131414151516161717181819191A1AF4
:1004A0001B1B1C1D1D1E1E1F202021222223242455
:1004B000252626272829292A2B2C2D2D2E2F303191
:1004C0003232333435363738393A3B3C3D3E3F40A3
:1004D0004142434445464748494A4C4D4E4F50518E
:1004E0005354555658595A5B5D5E5F616264656648
:1004F00068696B6C6D6F7072737577787A7B7D7ECF
:100500008082838587888A8C8E8F91939596989A1E
:100510009C9EA0A2A3A5A7A9ABADAFB1B3B5B7BA36
:10052000BCBEC0C2C4C6C9CBCDCFD1D4D6D8DBDD0A
:10053000DFE2E4E7E9EBEEF0F3F5F8FAFDFF09029C
:100540003B00020100A0FA090400000103010100C0
:100550000921010100012240000705810308000173
:10056000090401000103000000092101010001222A
:10057000320007058303080001120110010000008A
:1005800008FEFF55410001010200010A0356004523
:10059000002E004100000012034F0064006400467A
:1005A000006F007200670065000000040309040585
:1005B000010980A101850319012AB700150126B799
:1005C00000950175108100C0050C0901A101850489
:1005D00019012AA002150126A002950175108100BB
:1005E000C005010906A101050719E029E715002545
:1005F00001950875018102950175088103050719A8
:100600000029FF150026FF009506750881000508E2
:10061000190129059505750191029501750391034D
:10062000C00011241FBECFE5D8E0DEBFCDBF04B6A9
:1006300003FE24C08091750390917603A091770307
:10064000B09178038730904BA740B04BB9F410922B
:10065000750310927603109277031092780314BEFC
:1006600084B7877F84BF0FB6F894A89581B5886159
:1006700081BD11BC0FBEE0E0F8E3099511E0A0E6F2
:10068000B0E0ECE8FCE402C005900D92A231B107A5
:10069000D9F723E0A2E1B1E001C01D92A537B2076E
:1006A000E1F70E94A3210C9412260C940000A82FBD
:1006B000B92F80E090E041E050EA609530E009C059
:1006C0002D9182279795879510F084279527305E86
:1006D000C8F36F5FA8F30895EADF8D939D930895A3
:1006E000CF93CFB7CF93C395839BE9F7839B0EC07E
:1006F000839B0CC0839B0AC0839B08C0839B06C05E
:10070000C0914C03C395C0934C03A6C0DF93C09126
:100710004B03DD27CD5ADC4F839B02C0DF91E6CF30
:100720002F930F931F9300B32FEF03FB20F94F93E9
:100730003F9310B34FEF012703FB21F93BE031C09A
:100740004E7F012F10B3216028C0102F4D7F2260F3
:10075000000000B329C04B7F2460012F000010B3BC
:100760002BC010B3477F28602AC04F7E00B32061A2
:100770002CC04F7D10B320622FC04F7B00B320648C
:1007800032C0422700B349934FEF0000102713FBFC
:1007900020F910B31C70C9F1297F91F2012703FBE6
:1007A00021F900B3237F89F2315058F1102713FB50
:1007B00022F910B3277E79F2012703FB23F92F7C5E
:1007C00081F200B3102713FB24F92F7971F200C0D6
:1007D00010B3012703FB25F92F7359F200C000B3B2
:1007E000102713FB26F9223040F200C010B3012776
:1007F00003FB27F9243028F64F77206810B3000058
:10080000F9CF10E81ABF00271CC03B503195C31B1D
:10081000D04010E81ABF0881033C11F10B3401F1FC
:10082000209148031981110F1213EDCF4A81441F03
:10083000093669F10D3211F0013E29F74F7009F0C8
:10084000042F009351033F914F911F910F912F91CE
:10085000DF91CAB7C7FD47CFCF91CFBFCF911895D2
:1008600020915103222379F310914F03112309F0B2
:1008700044C034300AF443C030934F0320934A03FA
:1008800010914B033BE0311B30934B0338C0009178
:100890004F03013094F50AE54F7049F4309184001C
:1008A00034FD2FC000938400C5E2D3E02EC0433056
:1008B00059F0443091F03091300334FD22C0009360
:1008C0003003C1E3D3E021C03091690334FD19C086
:1008D00000936903CAE6D3E018C030913C0334FDAD
:1008E00010C000933C03CDE3D3E00FC02795A8F4DC
:1008F0005150A9F4220F0000F9CF4AE503C042EDA0
:1009000001C0432FC4E1D0E032E011B31C60939AE0
:1009100011BB02B320E41CE05F93012756E002BB49
:10092000279520F4515021F4220FF9CF012756E0EA
:1009300000003B5A02BBD0F2279528F4515029F40D
:10094000220F0000F9CF012756E0279502BB20F4C3
:10095000515021F4220FF9CF012756E0299133237A
:1009600002BB21F6037F10915003110FC651D040F6
:1009700002BB11F01093480310E81ABF086011B3CE
:10098000137F402F437F5F9100C000C002BB11BBAB
:1009900042BB59CF1F93CF93DF9300D00F92CDB7B7
:1009A000DEB719821A821FEF1B832AE030E043E092
:1009B00050E0BE016F5F7F4F80E40E94C714811139
:1009C0001EC08CE089831A821B832AE030E043E05A
:1009D00050E0BE016F5F7F4F80E40E94C714811119
:1009E0000EC084E189831A831B832AE030E043E050
:1009F00050E0BE016F5F7F4F80E40E94C7140F90EC
:100A00000F900F90DF91CF911F9108958FEF87BBCB
:100A100088BB1ABA94B39B7B94BB8F988BBB85B36E
:100A20008C6F85BB979A0E94F7130C94CA040F939E
:100A30001F93CF93DF9300D00F92CDB7DEB792E133
:100A4000998301E010E001C0000F8A95EAF7102FAA
:100A500010951A832AE030E042E050E0BE016F5F5B
:100A60007F4F80E40E94C71407BB18BB0F900F9004
:100A70000F90DF91CF911F910F910895BF92CF9268
:100A8000DF92EF92FF920F931F93CF93DF930F921A
:100A9000CDB7DEB78C01D12CC12C8FE7B82EF80171
:100AA000E190F1908F018D2D0E9417050E94BA08E8
:100AB000B9822AE030E041E050E0BE016F5F7F4F35
:100AC00080E40E94ED1429B38981806890E08095CC
:100AD00090952095422F582FCA01F80132979183A3
:100AE000808321E0E816F90609F420E0C22AD394B5
:100AF00058E0D512D4CF8C2D0F90DF91CF911F915C
:100B00000F91FF90EF90DF90CF90BF900895CF921C
:100B1000DF92EF92FF920F931F93CF93DF938C019D
:100B2000EB0180911201811105C00E94F71381E051
:100B3000809312016E01D694C7947601EE0CFF1CCF
:100B4000EC0CFD1C24E630E0A701B80180EB0E940C
:100B5000C714CC19DD09AE01440F551F4C0F5D1FA2
:100B6000B8016E0D7F1D24E630E088EBDF91CF9158
:100B70001F910F91FF90EF90DF90CF900C94C714CE
:100B800070E00C94870581E0089581E008950C944D
:100B9000C50508950C94C9051F93CF93DF9300D02A
:100BA00000D00F92CDB7DEB749835A836B83309163
:100BB000970189819A8131111DC06623B9F02223E2
:100BC000A9F00E94C01E182F682F89819A810E9467
:100BD0006C1E69817A81812F0F900F900F900F907A
:100BE0000F90DF91CF911F910C94A8060E94981E40
:100BF000182FEFCF0E94C01E69817A81EDCFFC01D2
:100C0000262F408151816281738184810C94CC05AF
:100C1000CF93DF93EC0160E00E94FF05BE01DF91FE
:100C2000CF910C94CA050E940420811102C00E9439
:100C3000B1200E9495060E94E0110C94AB080C9420
:100C4000AE0808950E94D6190E9421062FEB87E274
:100C500099E0215080409040E1F700C000000C94E2
:100C600068210F931F93CF93DF93EC0161E00E9403
:100C7000FF058C01BE010E94C705882389F1BE01D2
:100C8000C8010E945211882359F1BE01C8010E9477
:100C90005812882329F1BE01C8010E94AA12882394
:100CA000F9F0BE01C8010E94CD138823C9F0BE012E
:100CB000C8010E941910882399F08A81882339F08D
:100CC00001158CE5180751F00F3D1C4579F0CE0158
:100CD000DF91CF911F910F910C94C3050E942206C2
:100CE00080E0DF91CF911F910F9108950E94B12074
:100CF000F7CF08950C94790681E00895CF93C82F1B
:100D00000E947C06882349F0C0FF09C0909AC1FF69
:100D100008C0919AC2FF07C0969ACF910895909803
:100D2000F6CF9198F7CF9698F8CF889A9098899AAD
:100D300091988E9A96980895CF93C82F0E947A061C
:100D40008C2FCF910C947E0690E080E0089508955A
:100D5000972F70E02FE0929F600D711D1124FB0111
:100D600098E7899FE00DF11D1124EE0FFF1FEC5A4B
:100D7000FF4F859194910895FC01EE0FFF1FEC5DEC
:100D8000FC4F859194910895CF93DF930E94A8061C
:100D90000E94D007EC01811520E5920708F041C0C0
:100DA000811530E4930708F0B4C0803E910518F532
:100DB000803C910508F09DC0883A910570F4853A11
:100DC000910508F08EC081309105F9F00097E9F0A7
:100DD0000497D8F4D0E0C0E018C08F3B9105D0F75D
:100DE000C85AD0E0CC0FDD1FCB57DF4F0990D88118
:100DF000C02DD4640AC08115904258F4C11581E019
:100E0000D80718F4C83ED10528F7CE01DF91CF915D
:100E10000895C11590E3D90708F071C0CE019F7005
:100E20006AC0811525E5920758F5811534E59307C9
:100E300008F09EC0811542E5940750F4C11581E584
:100E4000D80708F469C0DC2FCC27C16FD06ADDCF8A
:100E5000982F969596959E0123703327C115D345FB
:100E600008F077C0C1E0D0E002C0CC0FDD1F2A95AA
:100E7000E2F720E2929FC0011124C82BD92B67C052
:100E8000C11589E5D807A8F4C11598E5D90708F078
:100E900074C0C11526E5D20708F09CCF8C2F0E94A4
:100EA0006708C82FD0E0DC2FCC27CC27DF71D062B9
:100EB000ACCFC1153AE5D30708F464C0CE01905613
:100EC0008115904208F086CF8D2F8F710E946708A0
:100ED00090E0982F882788279F719C012C2BE9018F
:100EE000E6CFC55AD0E0CD54DF4FC881D0E0D06402
:100EF0008CCF805C91090E94BC06EC0186CFCE01AC
:100F00009927D3FF03C0EC01D86C7FCFEC01D06CE4
:100F10007CCFDF70D06A79CFCE01E4E096958795DB
:100F2000EA95E1F783702C2F26952695237090E2A1
:100F3000299F90011124382B8C2F8370C1E0D0E0C1
:100F400002C0CC0FDD1F8A95E2F7C22BD32BDC68E1
:100F50005CCFC1E0D0E002C0CC0FDD1F2A95E2F7E4
:100F600030E2939FC0011124C82BD92BDA684DCFF2
:100F7000D82FCC27C46FD06A48CFDC2FCC27C06FC6
:100F8000D06A43CF8C2F8F700E94670834E0D695CB
:100F9000C7953A95E1F7CF709C2FEC01D06935CF1A
:100FA00082389105B1F1B0F48133910509F475C02F
:100FB00048F48932910509F469C08A32910509F42F
:100FC00073C008958533910509F459C0893391059B
:100FD00001F10895833E9105A9F138F4803E910511
:100FE000F9F0823E910549F10895863E9105A9F1F7
:100FF000873E9105C9F1843E910519F5209124039E
:1010000021FF1FC08091230384FD14C087EE90E070
:101010000895209123032370A1F080EE90E00895BD
:101020002091230320FD47C03091240330FF09C0E5
:1010300024FF44C090E080E004C02091230322FDFF
:10104000F7CF08952091230322FD3BC03091240364
:1010500030FDE3CF24FFF5CFEDCF2091230323FF15
:10106000F0CF24FDE7CFD2CF2091230323FD2CC066
:101070003091240331FFEECF84EE90E0089520916B
:10108000230325FFDECF89E290E00895209123031A
:1010900025FFD7CF85E390E008952091230326FF15
:1010A000D0CF8AE290E008952091230326FFC9CF94
:1010B00081E390E0089589E390E0089583EE90E065
:1010C000089582EE90E0089586EE90E00895909164
:1010D000230392FF06C0282F28712830F9F4877F58
:1010E000846093FF06C0282F28712831F1F4877E91
:1010F00084612091240320FF06C0382F38713830D6
:10110000D9F4877F816021FF06C0282F28712831FC
:10111000D1F4877E816194FD877E0895282F247104
:101120002430F9F68B7F8860DCCF282F247124319E
:1011300001F78B7E8861DDCF382F3171313019F79F
:101140008E7F8860E0CF282F2171213121F78E7E9C
:101150008861E1CF08950C94AA0808950C94AD0815
:10116000E82FF0E0EE0FFF1FED52FD4F80819181DF
:101170000895089588E78A95F1F708950E94060575
:10118000E3ECF2E0A3EDB2E0119211921D921D92F8
:1011900082E0E33DF807C1F788E00E94E4080C9480
:1011A0001306CF9383EC92E00E943E05C82F282FB0
:1011B00048E063ED72E083EC92E00E94E5080E9453
:1011C0001F068C2FCF9108950895FF920F931F93C0
:1011D000CF93DF93F82E092F162FD72FC42F22235A
:1011E00049F081E0809315010E9429219093140118
:1011F00080931301809115018823A1F08091130140
:10120000909114010E943521069760F0EF2DF02F88
:10121000A12FBD2F90E080E0D0E08C179D0744F017
:1012200010921501DF91CF911F910F91FF900895BA
:10123000219131912D933D930196EFCFEF92FF9243
:101240000F931F93CF93DF93EB01E82FD11110C0C1
:10125000442321F0F0E0E25CFB4FE4916E2F7E2FFF
:101260008E2FDF91CF911F910F91FF90EF900895F6
:101270000D2F10E0282F30E0442329F0225C3B4F53
:10128000F901249130E0F6E0CF9FC0011124EFEF87
:10129000F0E0BF010E94B524AB018C2F90E0880FD5
:1012A000991FA5E5A49FB001A59F700D1124861B71
:1012B000970B982F990F980FBF01601B710B629FBE
:1012C000D001639FB00D729FB00D11248B2F9D9F95
:1012D000B0011124672F7727EF01C61BD70BBE0182
:1012E000629FE001639FD00D729FD00D11247F019A
:1012F000E91AF108E09EB001E19E700DF09E700DBC
:101300001124672F7727E61BF70BE29F8001E39FED
:10131000100DF29F100D1124E12F722F4230510554
:1013200099F048F44115510569F04130510581F0BB
:10133000EB2F8D2F07C04430510569F080F0463007
:101340005105B1F76E2F8DCFE22F7B2F812FFACF72
:10135000E22F7D2FF7CFEB2F822F712FF3CF7B2F33
:10136000822FED2FEFCF41E00C941E0908950C94CD
:10137000B309CF93DF93762FE901682F842F0E9462
:10138000B709798368838A83DF91CF91089580912B
:10139000E302982F9E7F29F4817082608093E3029C
:1013A00008958635E8F381708465F8CF88E090E091
:1013B0000C94A725CF92DF92EF92FF926B017C01F4
:1013C0000E94C709B701A60188E090E0FF90EF9066
:1013D000DF90CF900C94C425E3EEF2E083E08083AD
:1013E00011828FEF82838383148260817181828175
:1013F00093810C94DA098091E30280FF02C0869504
:10140000089580E008959091E702933018F49F5F6B
:101410009093E702882351F06091E3027091E40217
:101420008091E5029091E6020C94DA09089581E03A
:101430000C94030A9091E702992319F0915090932C
:10144000E702882351F06091E3027091E4028091F9
:10145000E5029091E6020C94DA09089581E00C947B
:101460001A0A609168008091E30280FF0AC08091AF
:10147000670023E0829FC001112488519D4F0C9486
:10148000C0058091690090916A0023E0829FF0017D
:101490001124E851FD4F891750F7118210821282F2
:1014A0008F5F3396F8CF9091E30290FF14C0909134
:1014B000690020916A0033E0939FF0011124E85104
:1014C000FD4F921710F00C94310A818360834283A0
:1014D0009F5F3396F6CF0895CF93DF9300D00F929E
:1014E000CDB7DEB79091E30290FF0AC09E012F5F57
:1014F0003F4F0E94B9094B8169818A810E94530A3A
:101500000F900F900F90DF91CF910895CF93DF93BD
:10151000EC01EC81F0E0E75CFC4F4491E3EEF2E09B
:10152000628181810E946C0A8C818F5F8C83DF9144
:10153000CF910895CF93DF93EC01E3EEF2E0438186
:1015400062818C810E946C0A8C818F5F8C83DF9119
:10155000CF9108950F931F93CF93DF9300D00F92F5
:10156000CDB7DEB78C018091160181110AC09E01B2
:101570002F5F3F4F4FEF6FEF0E94B9098A81809331
:101580001601F8016481613069F08091160140E034
:10159000662361F040E0623011F44091160180E072
:1015A00060E004C06091160140E080E00E94530AB0
:1015B000F801848190E0019663E070E00E94C92404
:1015C00084830F900F900F90DF91CF911F910F9117
:1015D0000895AF92BF92CF92DF92EF92FF920F9356
:1015E0001F93CF93DF9300D00F92CDB7DEB7182FA4
:1015F000F62E042FE22E9091E30290FF29C0E92FEE
:10160000E695AE2FB0E0AA54BF4F8C9180937A013B
:101610009E7F923059F59E012F5F3F4F812F0E9490
:10162000B9094B8169818A810E94530A1093E402AF
:10163000F092E5020093E602EE2051F06091E302A1
:101640007091E4028091E5029091E6020E94DA092D
:101650000F900F900F90DF91CF911F910F91FF90FE
:10166000EF90DF90CF90BF90AF900895823019F443
:101670000091E602DBCF863019F41091E402D6CF58
:101680008930D9F3893191F6E9518E2F8170D82EA6
:10169000E695F0E0E75CFB4FA590B490C12CBB242D
:1016A00060916B00C61618F00E94310ABFCF2C2D36
:1016B00030E0A29EC001A39E900DB29E900D112419
:1016C00070E00E94B524812FD11013C0860F409185
:1016D0006900420F532F511D9A01220F331F240F0F
:1016E000351F28513D4F402F6F2D0E94B909C394DB
:1016F000D7CF861BECCFE3EEF2E09181282F438118
:10170000628188E0890F0C94E90A81E00C947B0BDC
:10171000E3EEF2E09181282F4381628188EF890F07
:101720000C94E90A81E00C94880BE3EEF2E062810C
:1017300021E1620F08F46FEF282F438181810C941F
:10174000E90A81E00C94950BE3EEF2E0628121E17D
:10175000621B08F460E0282F438181810C94E90A20
:1017600081E00C94A40BE3EEF2E0438121E1420F0F
:1017700008F44FEF282F628181810C94E90A81E0FF
:101780000C94B30BE3EEF2E0438121E1421B08F439
:1017900040E0282F628181810C94E90A81E00C9459
:1017A000C20B20E00C94E90AEF92FF921F93CF93B3
:1017B000DF93EC0110E0EE24EA94F12C60916B00D1
:1017C000161770F00E94310A9A818C8190FF27C011
:1017D0008F5F8C83DF91CF911F91FF90EF900895E1
:1017E00020916900422F410F5527551FCA019A01C8
:1017F000220F331F280F391F28513D4F70E0C701BA
:101800000E94C924962F8C814091E6026091E502E6
:10181000199F800D11240E94B9091F5FCFCF8150FD
:10182000D8CFAF92BF92CF92DF92EF92FF920F93F9
:101830001F93CF93DF93FC0182810FEF80FF01E0C4
:1018400010E042E1A42E80916B001817C8F00E94AE
:10185000310A80911801013009F055C0811102C090
:1018600080916B00815080931801DF91CF911F917F
:101870000F91FF90EF90DF90CF90BF90AF900895C1
:10188000C0916900C12ED12CCC0DDD2DD11DCE0112
:10189000880F991FC80FD91FC851DD4F19821882B0
:1018A0001A8234E0E32EF12CB12C809118018B0DBB
:1018B00083311CF16A2D0E94A724892F082E000C69
:1018C000990BC816D90691F48091E6028E9DA0016D
:1018D0008F9D500D112455954795559547959E011F
:1018E0006091E5028091E4020E94B909B00EF1E036
:1018F000EF1AF108D1F61F5FA6CF87FFDFCF9091D7
:101900006B00890FDBCF90E0019660916B0070E077
:101910000E94C924A8CF0F931F93CF93DF93809188
:10192000690090916A0023E0829FF0011124E85140
:10193000FD4F891740F1C0E0D3E060916B00C617FE
:1019400040F10E94310A2091650080911701820FB9
:101950008093170190916600920F9093660019167C
:1019600054F4082E000C990B40916B004150550B1C
:10197000841795071CF0219520936500DF91CF9186
:101980001F910F9108951182108212828F5F3396FA
:10199000D0CF0C2F10E0C801099670E00E94C92436
:1019A00020916900820F482F50E020911701022EEC
:1019B000000C330B02171307BCF020916600022EB7
:1019C000000C330B201731077CF08D9F9001112400
:1019D00028513D4F4091E6026091E5028091E4027A
:1019E0000E94B909CF5FA9CFFA01EE0FFF1FE40FE4
:1019F000F51FE851FD4F118210821282F3CF8F92B2
:101A00009F92AF92BF92CF92DF92EF92FF920F938D
:101A10001F93CF93DF93EC014C81042F10E09801CA
:101A2000D8010E940D259B01AC010E9423254B018A
:101A30005C01E0E2F0E0E01BF10BA5E5B0E0AC01F9
:101A40009B010E9423256B017C019F01DF010E9405
:101A500005259B01AC010E942E259B01AC01280DA0
:101A6000391D4A1D5B1DC701B6010E94DD24F22EFF
:101A7000822F90E039E23F1560F143E0249F90010E
:101A8000112435952795122F109500E085E5E82E55
:101A9000EF1880916B00081758F10E94310A9C8161
:101AA00081E0992319F0903219F48FEF809364004C
:101AB00080916400890F8C83DF91CF911F910F91EA
:101AC000FF90EF90DF90CF90BF90AF909F908F905E
:101AD000089525E530E0B901681B790B9B01220FC1
:101AE000331F260F371F37FFCCCF2F5F3F4FC9CF94
:101AF0008E2D01FD8F2D20916900622F600F7727B9
:101B0000771F9B01220F331F260F371F28513D4F90
:101B1000412F6091E5020E94B9090F5FBACF0F9380
:101B20001F93CF93DF93EC0110E000E090916B00E6
:101B30009017110609F06CF40E94310A8C8190E034
:101B40000196817099278C83DF91CF911F910F911E
:101B5000089520916900A801420F511D9A01220F9A
:101B6000331F240F351F28513D4F4C816091E502F2
:101B70008091E40296959017110651F04CF04423A1
:101B800049F04091E6020E94B9090F5F1F4FCECF86
:101B90004423B9F340E0F7CF8F929F92AF92BF9268
:101BA000CF92DF92EF92FF920F931F93CF93DF9329
:101BB000FC01B280948081E0848300E015E05BE466
:101BC000A52E88248394EE24EA94F12C7BE4C72E7E
:101BD000D12C80916B00081770F0DF91CF911F918D
:101BE0000F91FF90EF90DF90CF90BF90AF909F90BC
:101BF0008F900C94310AC02FD0E01C9FF0011D9FE4
:101C0000F00D1124E75EFE4F91101CC0138212826A
:101C100020916900CE01820F911D9C01220F331F7C
:101C2000280F391F28513D4F1C9FF0011D9FF00DBB
:101C30001124E75EFE4F4281618180810E94B909D3
:101C40000F5FC7CF2381222379F121502383348171
:101C50008A2D821B311101C0822F1C9FF0011D9F14
:101C6000F00D1124E75EFE4F9091E602899FC001BE
:101C70001124B6010E94B5246283211104C03323CC
:101C800011F01482A38222E02B1510F21C9FF001A8
:101C90001D9FF00D1124E75EFE4F8091E4028083CA
:101CA0008091E5028183B4CF0E94822582309140E9
:101CB0000CF0AECF82E08B1530F50E948225B70183
:101CC0000E94C9241C9FF0011D9FF00D1124E75EA6
:101CD000FE4F808322E02B15C8F40E9482252091BC
:101CE000E5022695622F70E00E94C924280F1C9FF0
:101CF000F0011D9FF00D1124E75EFE4F218312823B
:101D0000A382848285CF8091E402DCCF2091E5021A
:101D1000EECFE3EEF2E080818E7F8083608171817F
:101D2000828193810E94DA0910927B012FEB84ED6E
:101D300091E0215080409040E1F700C000000C94F9
:101D4000310A6091E302669570E04BE050E08CE66A
:101D500090E00E949225892B19F481E080937B0109
:101D60000E942921909374018093730108959091AA
:101D7000E30290FF35C09170811128C0926090936A
:101D8000E302662351F06091E3027091E4028091D6
:101D9000E5029091E6020E94DA096091E3026695FD
:101DA00070E04BE050E08CE690E00E949225892B99
:101DB000A1F010927B0181E0809376014091E602D0
:101DC0006091E5028091E4020C94D10B8B3210F00B
:101DD0009465D5CF880F982BD2CF0E94A10EEBCF60
:101DE0000895682F9091E302969581E0890F8B32D8
:101DF00008F081E00C94B70E81E00C94F10E682F8E
:101E00009091E30296958FEF890F09F48AE20C9482
:101E1000B70E81E00C94FF0E61E00C94B70EE3EE78
:101E2000F2E080818160808386950C940C0F809114
:101E3000E30280FD0C94890E0C940F0F60E00C946B
:101E4000B70E8091790181112EC00E94042081116A
:101E500004C00E94B1200E94EC090E94D609609340
:101E6000E3027093E4028093E5029093E6026E7FB2
:101E700061F40E94EC090E94D6096093E30270931A
:101E8000E4028093E5029093E6020E94C709109253
:101E90007B018091E30280FF03C086950E941E0FA4
:101EA00081E08093790108950F931F93CF93DF937F
:101EB00080917B01882309F49DC080917A01E09193
:101EC000E302E695E81BE09375018230C9F5F0E086
:101ED000EB5CFC4FE491CE2FD0E006E81AE0809155
:101EE0007601882389F0109276010E9429219E01B3
:101EF00020953095820F931F909374018093730106
:101F00001092780110927701809173019091740181
:101F10000E9435218C179D0708F46CC0E091730175
:101F2000F0917401CE0FDF1FD0937401C093730141
:101F300083E791E0F801DF91CF911F910F91099410
:101F4000863049F4F0E0EE5CFC4FE491CE2FD0E017
:101F50000AE91AE0C4CF893051F4E695F0E0E15D7A
:101F6000FC4FE491CE2FD0E004ED1BE0B8CF8F30D2
:101F700051F4E695F0E0E45DFC4FE491CE2FD0E023
:101F800001E11CE0ACCF853149F4F0E0E75DFC4FA6
:101F9000E491CE2FD0E00BE81CE0A1CFC8E2D0E066
:101FA0000FEF1CE0883109F49ACF833239F4E7E26D
:101FB000F3E0C591D4910AEA1AE091CFC4EFD1E0E1
:101FC0000FE81DE0843209F48ACFC0EDD7E006EBBC
:101FD00019E0853209F083CF8E2F63E00E949B24A5
:101FE000E92FF0E0EC5DFC4FE491CE2FD0E00CEC5B
:101FF0001DE075CFDF91CF911F910F910895FA01E8
:10200000811101C0FB010994CF93DF93C82FD62F14
:102010000E94FB098C1740F00E94FB098D1720F4E9
:10202000DF91CF910C94FC0E8C2FDF91CF910C940B
:102030000C0F0F931F93CF938C01FB01C281CC2314
:1020400009F465C00E94551F8272F801E35CFC45EB
:10205000E431F10538F4EC5EF94D0C94FF240E9454
:10206000170FC0E08C2FCF911F910F91089549E079
:102070005FE06CEF7EE00E94FF0FF3CF4CEF5EE07D
:1020800069E07FE0F8CF42E95BE065E87BE0F3CF11
:1020900045E85BE062E97BE0EECF40EB5BE061EAC4
:1020A0007BE0E9CF41EA5BE060EB7BE0E4CF4EEC24
:1020B0005BE06FEB7BE0DFCF4FEB5BE06EEC7BE058
:1020C000DACF4EE25AE067E17AE0D5CF47E15AE055
:1020D0006EE27AE0D0CF81E00E940C0FC2CF65E0C3
:1020E00082E00E940410BDCF68E086E0FACF6EE087
:1020F00089E0F7CF64E18FE0F4CF67E185E1F1CFCC
:1021000088E1EACF62E289E1ECCF83E2E5CFC1E08A
:10211000A9CF0E940420811102C00E94B1200E9418
:10212000322080931E03803220F087708861809374
:102130001E0390911E03892F817090FF04C0892F88
:102140008695869586950C94871180911E03982F0D
:10215000969596959695933040F49F5F990F990FB9
:10216000990F8770892B80931E0380911E038160D5
:1021700080931E030E94362080911E0386958695CB
:1021800086950C94871180911E03982F987F79F083
:10219000885080931E03887F91E009F490E080913D
:1021A0001E0390FB80F980931E030E9436208091CD
:1021B0001E038695869586950C94871180911E0343
:1021C00080FD13C0816080931E03813019F489E083
:1021D00080931E0380911E030E94362080911E036F
:1021E0008695869586950C948711089580911E0397
:1021F00080FF08C08E7F80931E030E94362080E0FF
:102200000C948711089580911E0380FD0C94F610A4
:102210000C94DE1090911E03892F869586958695E5
:102220008F5F8F7197708430D8F4880F880F880F74
:10223000892B80931E0380911E03887F91E009F40F
:1022400090E080911E0390FB80F980931E030E9412
:10225000362080911E038695869586950C9487116D
:1022600090931E03E8CF843008F083E090911E0322
:102270009770282F220F220F220F922B90931E036C
:10228000987F21E009F420E090911E0320FB90F953
:1022900090931E030C9487110E94331180911E03AA
:1022A0000C9436209C01FB018281882349F12E3B4E
:1022B000FCE53F07C9F040F42C3BECE53E0769F034
:1022C0002D3B3C4579F00895203C9CE5390791F081
:1022D00070F0213C3C4589F0089583E00E944C1148
:1022E00080E0089580E0FACF0E94C310F9CF0E94E9
:1022F000A510F6CF0E940311F3CF0E940A11F0CF70
:1023000081E008958C9A9498089594980895CF92B6
:10231000DF92EF92FF92CF93C82F843020F5811186
:1023200023C08FB58F7D8FBD0E9485112C2F30E08B
:10233000AFEFBFEF0E940D2523E030E040E050E01A
:102340000E94DD24C9012C3764E1360788F469E076
:1023500070E00E94B52479BD68BDCF91FF90EF90E9
:10236000DF90CF900895C3E08FB580628FBDDECF40
:102370002A50374D4F4F5F4F942F832F722F662770
:1023800025EF38E241E050E00E94DD2469017A0146
:10239000CA01B9010E948B249B01AC01C701B6019F
:1023A0000E948B24672F782F892F9927611571053B
:1023B00021E08207910579F66FEF7FEFCCCF08958A
:1023C0000E94821182E28FBD89E18EBD8FEF9FEF67
:1023D00097BD86BD0C9489100F931F93CF93DF9305
:1023E000C42FD22FFC0182818823C9F040937E0143
:1023F0000E94292190937D0180937C0180E28C0FC3
:10240000883008F050C0C77081E001C0880FCA95BD
:10241000EAF7DF91CF911F910F910C9469171091FA
:102420007E01141335C080917C0190917D010E9442
:102430003521883C910560F5C0E2CD0F1D17B9F03C
:1024400080E2810F883040F4177081E001C0880F6E
:102450001A95EAF70E947017C83048F481E09D2F62
:10246000977001C0880F9A95EAF70E946917802F2C
:102470000E945617C830B8F4D77081E001C0880FA9
:10248000DA95EAF7DF91CF911F910F910C947017B5
:1024900080E28C0F883038F4C77081E001C0880F6B
:1024A000CA95EAF7EFCFDF91CF911F910F91089571
:1024B0000F939C01CB01243F4CE5340759F1A8F45C
:1024C000293DFCE53F0701F12A3D4CE53407D1F1F8
:1024D000283D3C4591F406E221EE41EE68ED7CE5B5
:1024E0000E94EC1180E00F910895263FFCE53F0724
:1024F000E9F0B0F0273F3C45F9F0FC0182818823E8
:1025000039F110927E01EFCF07E225EE45EE69ED3D
:102510007CE5E6CF06E221EE40EE64EF7CE5E0CF1D
:1025200007E225EE44EE65EF7CE5DACF06E221EE28
:1025300042EE66EF7CE5D4CF07E225EE46EE67EF8C
:102540007CE5CECF08E221E045EE6AED7CE5C8CF20
:1025500081E0C9CFCF93DF93EC01FB018281882317
:1025600009F419C1C230FCE5DF07C0F1C6319CE5B2
:10257000D90730F09E012B5F3C452930310570F5BD
:102580000E9417209093240380932303C031ECE52D
:10259000DE0709F4CFC008F05BC0C8308CE5D8076F
:1025A00009F4B6C088F5C430ECE5DE0709F4A8C02C
:1025B000C0F4C2308CE5D80709F49CC08091230395
:1025C0008260C330DC4509F498C080912303909168
:1025D00024030E9425200E94D61980E0DF91CF912C
:1025E0000895809123038061C630ECE5DE0709F48D
:1025F00084C0809123038860C730DC4508F47DC027
:1026000080912303806279C0CC308CE5D80709F42F
:1026100089C070F4809123038C60CA30ECE5DE073A
:1026200009F46BC008F478C0809123038E7F65C0E5
:10263000CE308CE5D80709F479C0809123038B7FD5
:10264000CF30DC4508F459C0809123038F7E55C0FC
:10265000CC3FECE5DE0709F457C030F5C3318CE51B
:10266000D80709F46FC078F4C131ECE5DE0709F44E
:1026700065C0C231DC4509F0A8CF0E94D61980910F
:1026800023038F773AC0C5318CE5D80709F462C0BF
:1026900008F476C0809124038160CB3FDC4509F0CB
:1026A00094CF8093240391CFC115FDE5DF0709F492
:1026B0004DC088F4809124038D7FCE3F9CE5D907DF
:1026C00081F3809124038E7FCF3FDC4550F38091CE
:1026D00024038360E6CFC230FDE5DF0709F459C06B
:1026E00008F444C080E0C330DD4509F06ECF0E949D
:1026F000B3206BCF8091230381608093230365CF48
:10270000809123038460F9CF809124038260C9CF34
:10271000809123038064F1CF0E94D6198091230316
:102720008068EBCF809123038D7FE7CF80912303D7
:10273000877FE3CF809123038F7DDFCF80912303B9
:102740008F7BDBCF80912303837FD7CF80912403BE
:102750008C7FA7CF8091230382FB992790F921E0FA
:10276000922790FB82F990FB83F9C7CF80912403D5
:10277000982F909591708E7F892B90FB81F991CF46
:102780000E94D61990912303892F97FB87F98058CF
:10279000B4CF81E0ACCF81E021CFCF93DF93EB01C9
:1027A00086319C4511F50E94551F9A81992399F015
:1027B0008A7A91E009F490E090937F01811109C039
:1027C00089E20E94301F0E94A11F80E0DF91CF911B
:1027D000089585E3F6CF80917F01811104C089E2DD
:1027E0000E94371FF0CF85E3FBCF81E0EFCF11B818
:1027F00087E080B985B3836085BB86B7846086BF78
:1028000086B7816086BF86B7806486BF0895EF92E1
:10281000FF920F931F93CF93DF93182FEB0116BEF8
:1028200084EA86BF0E9429217C0106B607FE21C0EA
:1028300081B1887F883021F081B1887F8031B9F5FE
:1028400013B984E886BF0E9429218C0106B607FED1
:1028500023C021B1287F90E080E02831B1F081E0F1
:1028600090E0203411F490E080E0919581959109F9
:102870000CC0CF3FDC07C9F20E9429218E199F09A5
:102880008C179D0790F28EEF9FEFDF91CF911F91F4
:102890000F91FF90EF900895CF3FDC07B9F20E94AF
:1028A0002921801B910B8C179D0780F2ECCF8FEFB5
:1028B0009FEFEBCF0F931F93CF93DF93EB0183B980
:1028C00084E886BF0E9429218C0106B607FE10C04D
:1028D00021B1287F81E090E0283211F490E080E07F
:1028E000919581959109DF91CF911F910F91089555
:1028F000CF3FDC0751F30E942921801B910B8C17DD
:102900009D0718F38EEF9FEFEECF0F931F93CF939A
:10291000DF93EC0184EC86BF0E9429218C0106B66E
:1029200007FE07C083B190E0DF91CF911F910F9117
:102930000895CF3FDC0799F30E942921801B910B5A
:102940008C179D0760F38EEF9FEFEECF0F931F93D1
:10295000CF93DF93EC0184E886BF0E9429218C018C
:1029600006B607FE07C083B190E0DF91CF911F91BB
:102970000F910895CF3FDC0799F30E942921801B16
:10298000910B8C179D0760F38EEF9FEFEECFCF92E8
:10299000DF92EF92FF920F931F93CF93DF936B0120
:1029A0008A017901B9010E940714E6010C0D1D1D71
:1029B000C017D10759F424E926BFDF91CF911F91A9
:1029C0000F91FF90EF90DF90CF90089597FDF3CF98
:1029D000B70189910E945A14EBCFCF92DF92EF9208
:1029E000FF920F931F93CF93DF93EB018A0169014D
:1029F000B90181600E940714F12CE12C01501109EA
:102A0000E016F106F8F497FF10C024E926BF181667
:102A1000190614F490E080E0DF91CF911F910F919F
:102A2000FF90EF90DF90CF900895C6010E9485142B
:102A300097FD04C0FE01EE0DFF1D80832FEFE21A0B
:102A4000F20ADECF97FDE1CFC6010E94A61497FDE2
:102A5000DCCFC00FD11F8883D8CF9093850180939E
:102A600084010895E0918401F0918501309721F06F
:102A70000190F081E02D099480E00895E0918401B7
:102A8000F0918501309721F00280F381E02D0994C7
:102A9000089520918201309183012817390771F040
:102AA0009093830180938201E0918401F0918501EC
:102AB000309721F00680F781E02D09940895209148
:102AC0008001309181012817390771F090938101BD
:102AD00080938001E0918401F0918501309721F08D
:102AE0000084F185E02D0994089584B7806884BF3F
:102AF00084B7806884BF0895089508950C947C1568
:102B000008950C9480150E9475150E947D150C94F3
:102B10007E1581E008950C948915089508950E940A
:102B200022210E94BE080E9481210E9489100E94D9
:102B3000210F0C9481159F92AF92BF92CF92DF929A
:102B4000EF92FF920F931F93CF93DF93CDB7DEB732
:102B50002A970FB6F894DEBF0FBECDBF0E948D1529
:102B60000E948E150E94D1080E948B15882309F4BB
:102B700072C057E8A52E51E0B52E10E000E0902E6F
:102B8000802F0E94B0086C01F501E190F1905F0187
:102B9000E816F90609F459C08091300281FD0E94BF
:102BA000B90897012C253D2580E0EE24E394F12C13
:102BB000A9014E215F21452B09F441C08E839F82DC
:102BC000CE20DF2081E0CD2809F480E088870E94B4
:102BD00029218160782F9A8789874E815F81688556
:102BE0008A850E944E16000F111FF801E957FE4F0B
:102BF00080819181E826F926F182E0820E94540FBB
:102C00000E94DF110E943215909186018917A1F16F
:102C10000E943215809386012A960FB6F894DEBF83
:102C20000FBECDBFDF91CF911F910F91FF90EF901D
:102C3000DF90CF90BF90AF909F900C949C068F5FD9
:102C4000EE0CFF1C8F3009F0B3CF0F5F1F4F083021
:102C5000110509F094CF8FEF89838A831B820E942C
:102C600029218160782F9D838C8349815A816B81D2
:102C70008D810E944E16C2CF2A960FB6F894DEBF01
:102C80000FBECDBFDF91CF911F910F91FF90EF90BD
:102C9000DF90CF90BF90AF909F900895CF93DF9338
:102CA000CDB7DEB72B970FB6F894DEBF0FBECDBF02
:102CB0004F83588769877A878B871E821D8285E0BC
:102CC000FE013796DE01119601900D928A95E1F78B
:102CD00049815A816B817C818D819E812B960FB6B3
:102CE000F894DEBF0FBECDBFDF91CF910C944C1C8A
:102CF000FC01808191810C94021FCF93C82F8823FF
:102D000009F483C08238C1F40E94321581FD7DC070
:102D100089E30E94301F0E94A11F2FE789EA93E0F8
:102D2000215080409040E1F700C0000089E30E94FC
:102D3000371FCF910C94A11F8338A1F40E94321544
:102D400080FD63C083E50E94301F0E94A11F2FE712
:102D500089EA93E0215080409040E1F700C00000F4
:102D600083E5E5CF8438A1F40E94321582FD4DC081
:102D700087E40E94301F0E94A11F2FE789EA93E099
:102D8000215080409040E1F700C0000087E4CFCFA1
:102D90008CEF8C0F813A90F46C2F8091770090919A
:102DA00078000E94CA20882329F08C2F0E94371FA8
:102DB0000E94A11F8C2F0E94301FBBCF80E28C0F7E
:102DC000883048F4C77081E001C0880FCA95EAF7DF
:102DD0000E94581FAECFEBE5EC0FE33040F4F0E07B
:102DE000E15FFE4F808190E0CF910C944915C85A65
:102DF000C73158F4EC2FF0E0EE0FFF1FEF51FF4FFB
:102E000080819181CF910C945F15CF910895882393
:102E100009F44BC0823871F40E94321581FF45C01D
:102E200089E30E94301F0E94A11F89E30E94371F7F
:102E30000C94A11F833859F40E94321580FF35C0CD
:102E400083E50E94301F0E94A11F83E5EFCF8438E5
:102E500059F40E94321582FF28C087E40E94301F77
:102E60000E94A11F87E4E2CF9CEF980F913AF0F205
:102E700090E2980F983050F4877091E001C0990F5C
:102E80008A95EAF7892F0E945E1FD2CF9BE5980FA3
:102E9000933020F490E080E00C944915885A8731F3
:102EA00020F490E080E00C945F150895CF93C82F34
:102EB0000E947D16C93349F42FEF8DEE92E0215028
:102EC00080409040E1F700C000008C2FCF910C941F
:102ED0000717882321F00E94581F0C94A11F089502
:102EE000882321F00E945E1F0C94A11F0895BF92B9
:102EF000CF92DF92EF92FF920F931F93CF93DF93C6
:102F00006C01D62FC72FFC01058102950F7012812D
:102F100011110E94751F0E944E1FE82E882391F008
:102F20001123D1F08C2F807F803421F080E28D0F2F
:102F3000883090F082E00E94EC1F0E944E1F91E0CA
:102F4000E82EE926BC2EB2949FE0B922EB2DF0E0EA
:102F5000E85DF94D0C94FF24E12CF4CF0C2F0F7099
:102F6000C07F11F00295007F1123A9F0002359F0D2
:102F700080E28D0F883010F0D11109C0802F0E949F
:102F8000581F0E94A11F8D2F0E947D1614C0802FF4
:102F90000E94681FF6CF8D2F0E940717002359F05B
:102FA00080E28D0F883010F0D1112CC0802F0E944C
:102FB0005E1F0E94A11F2B2D2850330B243031059A
:102FC00020F40E9432150E949C06EE2009F493C161
:102FD0000E944A1F80FD8FC1F60112820E94441F89
:102FE0000E94D01DC6010E949C190E94441FDF91BF
:102FF000CF911F910F91FF90EF90DF90CF90BF90F6
:103000000C94F11D802F0E946E1FD3CFFC2FFF70F8
:10301000FF2EC07FC03219F0F29480EFF822DD233A
:1030200069F0D13049F1112391F1002351F1F601FA
:10303000858180FFA8CF8F70858323C0112381F005
:10304000011106C00E94881F8F290E946917B3CF03
:103050000130C1F70E94881F8F290E948E1FABCFBD
:10306000011106C00E94971F8F2D0E947017A3CFD9
:10307000013009F4A0CFF6CF112329F0063008F073
:103080009ACF8F2DE2CF053008F095CFEDCF0023FA
:1030900059F3D93349F4FFEF2DEE32E0F1502040DF
:1030A0003040E1F700C000008D2F0E94071783CF4A
:1030B0008C2F86958695837069F0813009F07BCFDF
:1030C0008D2F9C2F9370111102C090E080E00E9420
:1030D0005F1571CF8D2F9C2F9370111102C090E05E
:1030E00080E00E94491567CF8C2F837009F041C0A2
:1030F000111161CF4D2F429546954770440F440FF3
:103100000D2F0F7010E030E020E0042E04C0000FFF
:10311000111F221F331F0A94D2F760E070E0CB0129
:10312000D4FF0FC06FE070E080E090E004C0660F55
:10313000771F881F991F4A95D2F7609570958095E3
:103140009095C695C695C370602B712B822B932BDF
:10315000C23049F058F4C13019F00E94821D2BCFC3
:103160000E94701D28CF0E94941D25CF0E946E1DC5
:1031700022CF8695112311F08C2F8170882309F4BA
:103180001ACF4D2F429546954770440F440F0D2F8F
:103190000F7010E030E020E0042E04C0000F111F7B
:1031A000221F331F0A94D2F760E070E0CB01D4FFF6
:1031B0000FC06FE070E080E090E004C0660F771F02
:1031C000881F991F4A95D2F76095709580959095C4
:1031D000C695C695C370602B712B822B932BC23082
:1031E00049F058F4C13019F00E94471EE4CE0E9405
:1031F000351EE1CE0E94591EDECE0E94AA1DDBCEF6
:10320000CF70112329F08C2F0E94D01D8D2F1DCF40
:103210008D2F0E9470178C2F0E94F11DCCCED23FB3
:1032200089F160F4D03FC9F0D13F29F1112309F4AD
:1032300042C00111A8CE8C2F8F7121C0D33F39F12C
:10324000D43FA1F7112369F1CF718C2F0E94D01DBB
:1032500063E08C2F0E94D71FAECE112341F00530C2
:1032600008F0A9CE8C2F8F710E94141EA4CE0630B8
:1032700008F0A1CEF7CF8C2F8F71112369F20E9435
:10328000D01D99CE8C2F8F711123C9F3C5CF112377
:1032900029F08C2F8F710E94BB1D8DCE0E94B61D10
:1032A0008ACE81E00E94EC1F023008F484CE82E0D6
:1032B0000E94EC1F80CE002359F0D93309F0F4CEE0
:1032C0008FEF9DEEE2E081509040E040E1F7EACEE2
:1032D0008C2F8F71A1CF4C2F4F706D2FC6010E9484
:1032E000A4060E94E61C67CE4C2F4F706D2FC601BE
:1032F0000E94A70660CEDF91CF911F910F91FF90A2
:10330000EF90DF90CF90BF9008950F931F93CF93CE
:10331000DF93EC01688179818A810E940C1F8C0106
:103320000E946B1E0E946D1DB801CE01DF91CF91EE
:103330001F910F910C947717CF93DF93EC018B8142
:103340009C81892B29F08881998189238F3F59F4A9
:10335000DF91CF910895CE010E948519CE01DF91B2
:10336000CF910C940806CE010E9431068111F3CF53
:103370000E944E1F882361F38A81882349F382E0EB
:10338000DF91CF910C94EC1F0E94751F0E94851F46
:103390000E94A11F90E080E00E94491590E080E02B
:1033A0000C945F150E943E1F0C94C4190E94651F67
:1033B0000C94D219E92FE295EF70E250EE3070F4E0
:1033C000F0E0E85CF94D0C94FF24803F19F020F404
:1033D000883E20F481E00895843FE1F380E0089581
:1033E000883EC0F3813FD1F7F5CF93FB882780F962
:1033F00008950E94021F0C94DA19CF93DF9300D036
:1034000000D00F92CDB7DEB70F900F900F900F90B6
:103410000F90DF91CF910895CF93DF9300D000D02C
:1034200000D0CDB7DEB726960FB6F894DEBF0FBE3C
:10343000CDBFDF91CF9108951F93CF93DF93C091BC
:10344000980116E0809199018C1304C0DF91CF910F
:103450001F910895D0E01C9FF0011D9FF00D1124D5
:10346000E656FE4F4081518162817381848195814E
:103470000E940C1A2196C770E5CF4091CA01509165
:10348000CB016091CC017091CD018091CE019091E2
:10349000CF010C940C1A1F93CF93DF938091CF012F
:1034A000807FA9F48091CC01882389F080919801D4
:1034B000C09199016091CA017091CB01A091CD0199
:1034C000B091CE01D62FD72316E0C81304C0DF91E8
:1034D000CF911F91089590E0109711F0DF3F19F4FC
:1034E00001968770F2CF189F9001199F300D11241B
:1034F000F901E656FE4F41814713F2CF4081461352
:10350000EFCF42814111ECCF438154814A1B5B0BC9
:10351000483C510528F78091CF018F7080618093DE
:10352000CF01F901E156FE4F80818F708061808369
:103530008AEC91E00E949C19DF91CF911F910C942D
:103540001C1AAF92BF92CF92DF92EF92FF920F932D
:103550001F93CF93DF93CDB7DEB761970FB6F89483
:10356000DEBF0FBECDBF8C0185E0F801DE011D96E8
:1035700001900D928A95E1F7F80140815181E28036
:103580008AECC82E81E0D82E6091CD017091CE01D9
:103590006115710509F461C19091CA012091CB01B7
:1035A000892F82238F3F09F458C1A380B480F09003
:1035B000CC01F501E61BF70BFF2009F4FCC080915C
:1035C000CF01382F307FE83CF10508F0B2C031114F
:1035D00079C0FE2C251323C0941321C0E1101FC015
:1035E0008F7080618093CF010E943D1AC6010E94B6
:1035F0009C198091CF01F80185838F2D61960FB6BC
:10360000F894DEBF0FBECDBFDF91CF911F910F9118
:10361000FF90EF90DF90CF90BF90AF900895AB28D0
:1036200029F0842F85238F3F09F033C180E0F82FE4
:10363000F170DF2E80FF3CC08091980120919901AC
:1036400036E0821315C04D875E878D859E850E946A
:10365000021F292F22952F702230F0F0243018F508
:103660009F70F1F0F8019581907FD1F4D12C1EC0AC
:1036700090E0389FF001399FF00D1124E656FE4F7F
:103680006181651306C06081641303C062816E119D
:103690000FC001968770D5CF9F7011F0882331F34A
:1036A000805E883018F3C8010E949C19FD2CA5CFBC
:1036B000EE2009F4A2CF8091CF0181608093CF01E9
:1036C000F12C9BCF251306C0941304C0F801EE2003
:1036D00009F48DC04D875E878D859E850E94F919FE
:1036E000882319F1EE2009F18091CF01803270F02A
:1036F0002091CA013091CB0138872F831986BB8670
:10370000AA868C87CE0107960E949C1986E0F80154
:10371000AAECB1E001900D928A95E1F70E944B1A54
:103720000E943D1AFF24F39468CFC8010E949C199F
:10373000F9CF311113C07A2DB98AA88A6E2D8989E3
:103740000E94FD198AEC91E00E949C1986E0F60126
:1037500011928A95E9F70E943D1AB2CF25130FC046
:1037600094130DC0E1100BC0F8018583C8010E94BD
:103770009C1986E0F60111928A95E9F73ECF4D87B4
:103780005E878D859E850E94F919882371F2EE204F
:1037900061F28091CF01803208F4B8CF2091CA0144
:1037A0003091CB013A8329831B82BD82AC828E8308
:1037B000CE010196A9CFE83CF10508F041C0FE2CEE
:1037C000EE2009F4B2CF25132AC0941328C08091AB
:1037D000CF0180FD1BC0982F907FC1F0F801858339
:1037E000903F31F0982F907F905F8F70892B858369
:1037F000C8010E949C1986E0F801AAECB1E0019092
:103800000D928A95E1F70E943D1AF7CE86E0F80105
:10381000AAECB1E001900D928A95E1F7EECE4D87CA
:103820005E878D859E850E94F91981116FCF8091E9
:10383000CF0181608093CF01C8010E949C19DDCE29
:103840007A2DB98AA88A6E2D89890E94FD1986E091
:10385000F60111928A95E9F7D6CFEE2009F465CFEB
:103860004D875E878D859E850E94F919F82E8823E5
:1038700009F45BCF86E0F801AAECB1E001900D926B
:103880008A95E1F78AEC91E00E9478160E944B1A23
:10389000BACF81E08E25CBCE1F93CF93DF93CDB7E8
:1038A000DEB72C970FB6F894DEBF0FBECDBF4F83A7
:1038B000588769877A878B879C87CE0107960E94F5
:1038C000A11A882369F08A859B85892B39F04F815D
:1038D0005885842F85238F3F09F071C016E05FC0A3
:1038E00086E0FE013796DE01119601900D928A95D1
:1038F000E1F78A859B85892B89F38F8198858923B8
:103900008F3F61F32091990130E0C90101968770E2
:103910009927409198014817190671F40E94D61909
:10392000109299011092980186E0EAECF1E0DF0133
:103930001D928A95E9F7D2CF96E0929FD001939F8E
:10394000B00D1124A656BE4FFE01319601900D9286
:103950009A95E1F7809399010E941C1ABFCF819F2D
:10396000C001112486569E4F0E94A11A8823E9F0B7
:10397000E09198011E9FF0011124E656FE4F408110
:10398000518162817381848195810E940C1A80919A
:10399000980190E001968770992780939801809113
:1039A0009801909199018913DACF2C960FB6F8946B
:1039B000DEBF0FBECDBFDF91CF911F910895698506
:1039C0007A858B859C850E940C1A88CFEF92FF9296
:1039D0000F931F93CF93DF938C01892B81F0F12CF0
:1039E000EE24E394E8012196F8018491843770F481
:1039F000843008F05FC08130B1F08230A1F1DF91F6
:103A0000CF911F910F91FF90EF900895853709F4A2
:103A10004CC008F43DC09CE7980F903780F78F7733
:103A20000E94071749C00E5F1F4FFE01849190E26C
:103A3000980F983060F48770FE2D01C0FF0F8A95B3
:103A4000EAF78F2F0E94781F0E94A11F02C00E94D8
:103A50007D168F2D815030F2E7EBFBE03197F1F7C7
:103A600000C00000F7CF0E5F1F4FFE01849190E26F
:103A7000980F983050F48770FE2D01C0FF0F8A9583
:103A8000EAF78F2F0E947E1FDFCF0E940717E1CF3A
:103A90000E5F1F4FFE01C491C150D8F287EB9BE02F
:103AA0000197F1F700C00000F7CF0E5F1F4FFE0136
:103AB000F490CFCF0E947D168E01CBCF08950C9449
:103AC0005E1D0E945F1D60931F0270932002809311
:103AD0002102909322020C94C41908950C94611D44
:103AE0000F931F9300911F02109120022091210239
:103AF00030912202602B712B822B932B1F910F91FF
:103B00000C94611D0F931F9300911F0210912002CE
:103B1000209121023091220260237123822393237A
:103B20001F910F910C94611D0F931F9300911F0221
:103B300010912002209121023091220260277127EA
:103B4000822793271F910F910C94611D0C945E1D89
:103B50000C94A61D0E94A81D60931B0270931C026A
:103B600080931D0290931E020C94C41960E070E0D3
:103B7000CB010C94AA1D0F931F9341E050E060E02D
:103B800070E08A019B0104C0000F111F221F331F28
:103B90008A95D2F7C901B8011F910F910C94AA1D03
:103BA0000F931F9341E050E060E070E004C0440FC9
:103BB000551F661F771F8A95D2F780911B0290913F
:103BC0001C02A0911D02B0911E028A019B01082BCC
:103BD000192B2A2B3B2BC901B8011F910F910C9473
:103BE000AA1D0F931F9341E050E060E070E004C015
:103BF000440F551F661F771F8A95D2F7CB01BA0174
:103C0000609570958095909500911B0210911C0213
:103C100020911D0230911E02602371238223932381
:103C20001F910F910C94AA1D0F931F9341E050E038
:103C300060E070E004C0440F551F661F771F8A952F
:103C4000D2F780911B0290911C02A0911D02B091AD
:103C50001E028A019B01082719272A273B27C90131
:103C6000B8011F910F910C94AA1D0F931F930091FF
:103C70001B0210911C0220911D0230911E02602B2C
:103C8000712B822B932B1F910F910C94AA1D0F93D4
:103C90001F9300911B0210911C0220911D02309174
:103CA0001E0260237123822393231F910F910C9492
:103CB000AA1D0F931F9300911B0210911C022091CB
:103CC0001D0230911E0260277127822793271F91C2
:103CD0000F910C94AA1D08952FE0929F800D11243E
:103CE000982F977041E001C0440F9A95EAF78695A6
:103CF0008695869595E0899FF0011124E053FE4F4B
:103D000090E080E070E05191DF0111979B01082E57
:103D100002C0369527950A94E2F721702195252750
:103D2000242325272C9301968530910561F708956A
:103D30002FE0929F800D1124982F9770869586957D
:103D4000869525E0829FF0011124E053FE4F50E05C
:103D500040E080E0219130E0092E02C036952795A1
:103D60000A94E2F721703327042E01C0220F0A942F
:103D7000EAF7822B4F5F5F4F4530510559F70895A1
:103D8000BF92CF92DF92EF92FF920F931F93CF9348
:103D9000DF938C01C0901B02D0901C02E0901D02AA
:103DA000F0901E0280911F0290912002A0912102AA
:103DB000B0912202C82AD92AEA2AFB2ACFE1D0E010
:103DC000BC2ED701C6010C2E04C0B695A7959795B9
:103DD00087950A94D2F780FD0EC0219788F7B12C01
:103DE0008B2DDF91CF911F910F91FF90EF90DF907E
:103DF000CF90BF900895B8018C2F0E94C406019700
:103E000061F3EECFCF93DF93EC010E94C01EBE01A1
:103E1000DF91CF910C94C4061F93CF93DF93EB01F6
:103E200090919701992331F0CB01DF91CF911F91B0
:103E30000C94021F882379F0CB010E94C01E182F1A
:103E4000682FCE010E946C1EBE01812FDF91CF91A1
:103E50001F910C94C406CB010E94981E182FF4CF1A
:103E6000682F80917700909178000C940021682F42
:103E700080917700909178000C94022180917700D6
:103E8000909178000C94042180912302859585956A
:103E9000859508958091230287700895909123025B
:103EA000977081E009F480E0089580912F020895D1
:103EB00090912F02892B80932F02089580959091E5
:103EC0002F02982390932F02089510922F020895A5
:103ED00090912E02892B80932E02089580959091C7
:103EE0002E02982390932E02089510922E02089588
:103EF00090912D02892B80932D02089580959091A9
:103F00002D02982390932D02089510922D0208956A
:103F100080912402089508950C948B1F909124029F
:103F2000981721F0809324020C948C1F089580919F
:103F30002402882329F01092240280E00C948C1F24
:103F40000895E0917700F091780080912F028083AE
:103F5000E0917700F0917800808190912E02892B7A
:103F60008083E0917700F0917800808190912D021C
:103F7000892B808390912402992381F0E09177002E
:103F8000F09178008081892B8083809177009091D7
:103F900078000E94B82081110E94971F80917700BD
:103FA000909178000C943E1508950C94D41F98E0DD
:103FB000899F90011124622B609323020E94D01DDF
:103FC000809123028595859585950C94D51F109237
:103FD000230280E00C94D51F9091230280958923C1
:103FE00080932302282F277071F4282F082E000CAD
:103FF000330B9217130639F08595859585950E94A8
:10400000F11D0C94E71F089590E080E00E94AD251B
:1040100021E08C3E9E4F09F020E0822F089582E03F
:1040200090E00C949F2583E090E00C949F25CF9323
:1040300084E090E00E949F25C82F81E290E00E94DA
:104040009F25982F8C2FCF910895CF93C92F682F3C
:1040500084E090E00E94B3256C2F81E290E0CF9144
:104060000C94B32586E090E00C949F25682F86E0A1
:1040700090E00C94B325AB01BC018FE090E00C9470
:10408000C425AB01BC0183E190E00C94C42560E041
:1040900070E0CB010C94412060E070E0CB010E9405
:1040A0003B200C9447206CEE7EEF90E080E00E9475
:1040B000D02560E082E090E00E94B32560E083E0DC
:1040C00090E00E94B32510921F02109220021092DD
:1040D00021021092220260E084E090E00E94B32569
:1040E00060E081E290E00E94B32560E085E090E02E
:1040F0000E94B32560E086E090E00E94B3256FEF58
:1041000087E090E00E94B32540E050E0BA0188E0EB
:1041100090E00E94C42560E08DE090E00E94B3250D
:1041200040E050E0BA0188E190E00E94C42560E0E0
:1041300087E190E00E94B32540E050E0BA018CE1B5
:1041400090E00E94C42560E080E290E00E94B325E8
:1041500040E050E0BA0188E190E00E94C4250C9450
:104160004C200C945320682F8EE090E00C94B325E3
:104170009C012E5F3F4FAC01485F5F4F80E02417EA
:10418000350709F40895F90191919F019923B9F335
:104190008F5FF5CF662349F0FC0132960896219196
:1041A000261729F0E817F907D1F780E0089581E094
:1041B00008959C01FC0132969FEF80E041914617E3
:1041C00051F09F3F19F4411101C0982F8F5F863045
:1041D000A9F79F3F09F40895290F311D97FD3A95DE
:1041E000F90162830895FC01329608962191261305
:1041F00003C0DF0111971C92E817F907B9F708957A
:104200000C94D9200C94F320029626E0FC01119224
:104210002A95E9F7089508950895CF930E940B21F8
:104220000E94D1080E940C21C0E08C2F0E94B0088F
:10423000892B31F4CF5FC830C1F780E0CF9108956A
:1042400081E0FCCF8BE083BF8BEB8CBF82E089BF2A
:1042500008952FB7F89480911F0390912003A091A7
:104260002103B09122032FBF08959C014FB7F8940A
:1042700080911F0390912003A0912103B09122030C
:104280004FBF821B930B089578941F921FB61F9205
:1042900011248F939F93AF93BF9380911F039091AD
:1042A0002003A0912103B09122030196A11DB11D0D
:1042B00080931F0390932003A0932103B0932203C4
:1042C000BF91AF919F918F911F901FBE1F90189526
:1042D00060E081E090E00E94D62587E090EBDC0171
:1042E0008093750390937603A0937703B09378033C
:1042F00088E19CE00FB6F894A89581BD0FBE91BDF2
:10430000FFCF0E940420811102C00E94B1200E94B0
:104310000F20809330020E941720909324038093F3
:1043200023030E941320682F70E090E080E00E9439
:104330006E1D60911B0270911C0280911D02909174
:104340001E020C94A81D0E9429218C010E94831535
:104350000E9470248B9A80E0815079F58B98789434
:104360000E948F150E949A220E942D15FFEB24EDCA
:1043700031E0F15020403040E1F700C00000C0E0E3
:10438000DCE080914C03882311F110924C030E94D1
:1043900029218C010E94802380915203882329F0D7
:1043A0008091300384FD0E949B150E9441220E944F
:1043B0008D150E948E15C0E0E4CFA895E7EBFBE0D9
:1043C0003197F1F700C00000C7CFC1E0DACFC801D4
:1043D0000E943521069710F4CC23E1F20E940D21B2
:1043E000C82F882391F3F89491B3939A892F8C6006
:1043F00081BB82B38D2782BB8FE5EAEEF0E081506E
:10440000E040F040E1F700C0000082B38D2782BB9E
:1044100091BB93987894B5CF8091C2020895089586
:10442000CF93DF9300D00F92CDB7DEB790913302D8
:10443000981307C0209131023091320226173707B6
:1044400091F080933302709332026093310289833A
:104450007B836A838091690384FF05C063E0CE019A
:1044600001960E947C230F900F900F90DF91CF91C7
:104470000895BC0184E00C941022BC0183E00C94EC
:104480001022CF93DF93CAE0D0E08091300384FF05
:104490001AC080913F0290914002981789F028E05D
:1044A000829FC001112468E08F5B9D4F0E9478239A
:1044B00080913F0290E001968F70992780933F0290
:1044C000DF91CF9108950E94802387EB9BE00197B5
:1044D000F1F700C000002197C1F6F2CFCF93DF9330
:1044E000EC01A0914002B0E0CD0101968F709927B8
:1044F00020913F02281779F093E0AA0FBB1F9A95ED
:10450000E1F7AF5BBD4F98E0FE0101900D929A95E7
:10451000E1F7809340020E9480230E94412288E0BC
:10452000FE01A7E3B2E001900D928A95E1F7DF91D9
:10453000CF91089589E790E00895FC01808180760D
:104540008032F1F48181813061F484819581892BFD
:10455000B9F487E392E090934E0380934D0388E093
:104560000895823041F481EC92E090934E03809361
:104570004D0381E008958A3029F483818093C1023C
:1045800080E008958930E1F782819381811592401E
:1045900069F484819581892B49F481E08093360206
:1045A0008681978190933502809334028FEF08952E
:1045B000FC018091340290913502892B61F0809149
:1045C0003602813041F490819093C20210923502FC
:1045D0001092340208958FEF08950895FC0193819D
:1045E000933051F130F49130B9F09230E9F080E03D
:1045F00008959132D9F19232D1F784819581009753
:1046000009F445C0019799F78FEA95E090934E031E
:1046100080934D0382E3089589E795E090934E03DC
:1046200080934D0382E108958EE395E090934E03CD
:1046300080934D038BE3089582818130A1F088231C
:1046400051F08230A1F68BE895E090934E03809371
:104650004D038AE008958BEA95E090934E03809392
:104660004D0384E0089587E995E0D8CF82818823BF
:1046700031F0813009F0BBCF89E695E002C080E5DA
:1046800095E090934E0380934D0389E0089581EE69
:1046900095E090934E0380934D0380E408951F931B
:1046A000CF93DF93E82F792F162FEA01888184FFBB
:1046B0001CC0298188E828272983CE010296DC01C5
:1046C0002E2F372F512F5E0FF90121912D939F012E
:1046D000452F4E1B1416C4F3612F0E946C031C5F00
:1046E0001883DF91CF911F9108958AE58883E5CFE4
:1046F00040E353E00C944F2349E653E00C944F23DE
:10470000CF93DF9360914F03635067FD12C0809198
:104710004B03CCE0D0E0C81BD109CD5ADC4F8091CF
:104720004A03803108F054C0CE010E94ED2210925D
:104730004F038091840084FF3EC0809183008F3FAF
:10474000D1F1C82F893008F0C8E0982F9C1B9093B6
:1047500083009091250328E89227909325038823CE
:10476000E9F080914D0390914E032091490326FF7B
:10477000AEC0FC012C2FA6E2B3E034913D933196FC
:104780002150D9F79C012F5F3F4F8FEF8C0F820F85
:10479000932F911D90934E0380934D036C2F86E2CF
:1047A00093E00E946C03CC5FCC3019F08FEF8093C4
:1047B0008300C093840084E190B39C7031F48150F5
:1047C000D9F71092500310924803DF91CF910895CA
:1047D0008D3209F069C0683009F0A9CF83EC80936D
:1047E00025038AE5809384001092490388818076AE
:1047F00071F0CE010E949D228F3FC1F4988197FDF8
:104800008E8190E8909349038093830090CF2A8112
:1048100010922E039981911111C010922F032EE254
:1048200033E082E030934E0320934D039F8191113A
:10483000EBCF9E81981740F7892FE6CF953029F46A
:10484000209350032EE233E0EDCF963099F49B8114
:10485000913021F4CE010E94EE2208C09230D1F3B3
:104860009330C1F39132B1F39232A1F390E490937B
:104870004903C2CF983089F0993019F4209352033C
:10488000E1CF9A3071F09B30E9F69BE490933103CD
:1048900090936A0390933D03D5CF22E533E081E006
:1048A000C1CF2EE233E0FBCF8091490387FF3FCF9A
:1048B000CE010E94D8228F3F21F48EE180938400A4
:1048C00036CF882309F433CF1092830030CFDC0138
:1048D0002C2FE6E2F3E03D9131932150E1F752CFE6
:1048E000CF93DF9385B7886085BF8BB780688BBF18
:1048F000C0E3D3E08BE48983A9E6B3E011968C93FF
:104900001197ECE3F3E081838AE588838C938083BD
:10491000DF91CF910895DB018F939F930E94232510
:10492000BF91AF91A29F800D911DA39F900DB29F4B
:10493000900D11240895991B79E004C0991F9617D2
:1049400008F0961B881F7A95C9F78095089587FB14
:10495000082E062687FD819567FD61950E949B24A0
:104960000EF4919507FC81950895AA1BBB1B51E19C
:1049700007C0AA1FBB1FA617B70710F0A61BB70BCF
:10498000881F991F5A95A9F780959095BC01CD0174
:10499000089597FB072E16F4009407D077FD09D0F1
:1049A0000E94B52407FC05D03EF4909581959F4F59
:1049B0000895709561957F4F0895A1E21A2EAA1B64
:1049C000BB1BFD010DC0AA1FBB1FEE1FFF1FA217BF
:1049D000B307E407F50720F0A21BB30BE40BF50BBC
:1049E000661F771F881F991F1A9469F76095709545
:1049F000809590959B01AC01BD01CF010895EE0F0C
:104A0000FF1F0590F491E02D09940E940D2533239A
:104A100012F48A1B9B0B0C941E25A29FB001B39F1E
:104A2000C001A39F700D811D1124911DB29F700DB7
:104A3000811D1124911D08950E940D25B7FF089531
:104A4000821B930B08950E940D25A59F900DB49F86
:104A5000900DA49F800D911D11240895B7FF0C9413
:104A600023250E942325821B930B08958F929F92EA
:104A7000AF92BF92CF92DF92EF92FF92CF93DF93EC
:104A8000EC01688179818A819B81611571058105BD
:104A9000910521F464E279ED8BE597E02DE133EFA8
:104AA00041E050E00E94F32549015A019B01AC010D
:104AB000A7EAB1E40E9423256B017C01ACEEB4EFC0
:104AC000A50194010E943125DC01CB018C0D9D1DB7
:104AD000AE1DBF1DB7FF03C00197A109B048888371
:104AE0009983AA83BB839F77DF91CF91FF90EF904B
:104AF000DF90CF90BF90AF909F908F9008950E94CD
:104B00003625089580E690E00E9436250895B0E0AD
:104B1000A0E08093600090936100A0936200B09346
:104B200063000895FC014150504030F0019006169A
:104B3000D1F73197CF010895882799270895E199F2
:104B4000FECF9FBB8EBBE09A99278DB30895A6E157
:104B5000B0E044E050E00C94E525A8E1B0E042E08C
:104B600050E00C94E525262FE199FECF9FBB8EBB2C
:104B7000E09A01970DB2021631F02DBB0FB6F894F2
:104B8000E29AE19A0FBE08950396272F0E94B4255A
:104B90000E94B325252F0E94B425242F0C94B42500
:104BA0000196272F0E94B4250C94B325262FE19956
:104BB000FECF9FBB8EBB2DBB0FB6F894E29AE19A55
:104BC0000FBE01960895DC01CB01FC01E199FECFF7
:104BD00006C0FFBBEEBBE09A31960DB20D9241507C
:104BE0005040B8F70895052E97FB1EF400940E94DC
:104BF0000A2657FD07D00E94DD2407FC03D04EF49F
:104C00000C940A2650954095309521953F4F4F4F73
:104C10005F4F089590958095709561957F4F8F4F68
:104C20009F4F0895F894FFCF2F1037103E10431078
:104C300048104D10521057105C10611066106B1028
:104C40006F10741077107A107D108010821085100C
:104C5000AE17AE17061806185818DB17DB17DB1748
:104C6000741800190F190F196B19DB17DB1774195A
:104C7000E519E519EE19EE19F019EE19EE19EE190C
:0C4C8000E519E519F519EE19EE19F51902
:104C8C0001000000010102001200121201191A1B8E
:104C9C001C1D1E1F20212225020C226E220F223DDC
:104CAC00223922FF5AE200E900EA00B500B600B74B
:104CBC0000CD008301CC008A0192019401210223D2
:104CCC000224022502260227022A02B300B4006F36
:104CDC0000700081828300010202020206060609AE
:104CEC0009090909090F0F0F0F0F0F1515151819C1
:104CFC0019191919191919191923242525252525C7
:104D0C0025E200E900EA00B500B600B700CD00834B
:104D1C0001CC008A01920194012102230224022574
:104D2C0002260227022A02B300B4006F0070008131
:024D3C00828370
:00000001FF
