:100000000C9482030C94C6030C94E1030C94C60375
:100010000C94C6030C94C6030C94C6030C94C6033C
:100020000C94C6030C94C6030C9460130C94C60382
:100030000C94C6030C94C6030C94C6030C94C6031C
:100040000C94C6030C94C6030C94C6030C94C6030C
:100050000C94C6030001010101010101010102022A
:100060000202020202020203030303030303030466
:100070000404040404040505050505060606060631
:10008000070707070708080808090909090A0A0AEB
:100090000B0B0B0C0C0C0D0D0D0E0E0E0F0F0F108D
:1000A0001011111112121313141415151616171717
:1000B000181819191A1A1B1B1C1D1D1E1E1F202083
:1000C000212222232424252626272829292A2B2CCD
:1000D0002D2D2E2F30313232333435363738393AF0
:1000E0003B3C3D3E3F404142434445464748494AE8
:1000F0004C4D4E4F50515354555658595A5B5D5EB6
:100100005F616264656668696B6C6D6F7072737550
:1001100077787A7B7D7E8082838587888A8C8E8FB4
:1001200091939596989A9C9EA0A2A3A5A7A9ABADE2
:10013000AFB1B3B5B7BABCBEC0C2C4C6C9CBCDCFD0
:10014000D1D4D6D8DBDDDFE2E4E7E9EBEEF0F3F57E
:10015000F8FAFDFFFFAA7F55402223252628292AE9
:100160002C2D2F3032333536383A3B3D3E4042431A
:100170004547494A4C4E5051535557595A5C5E6059
:1001800062646668696B6D6F71737577797B7D7F6B
:1001900081838587898A8C8E90929496989A9C9E6A
:1001A0009FA1A3A5A7A8AAACAEAFB1B3B4B6B8B986
:1001B000BBBCBEBFC1C2C3C5C6C7C9CACBCCCDCEEE
:1001C000D0D1D2D2D3D4D5D6D7D7D8D9D9DADADBD1
:1001D000DBDBDCDCDCDCDCDDDDDDDDDCDCDCDCDC5D
:1001E000DBDBDBDADAD9D9D8D7D7D6D5D4D3D2D29C
:1001F000D1D0CECDCCCBCAC9C7C6C5C3C2C1BFBE84
:10020000BCBBB9B8B6B4B3B1AFAEACAAA8A7A5A3EE
:10021000A19F9E9C9A98969492908E8C8A898785AD
:1002200083817F7D7B79777573716F6D6B6968668C
:100230006462605E5C5A5957555351504E4C4A495E
:1002400047454342403E3D3B3A3836353332302F06
:100250002D2C2A292826252322E000E300E2000095
:10026000000000000000000000E4006500E600005F
:1002700000000000000000E1001D001B0006001946
:10028000000500000000001C0018000C0012001304
:10029000002F003000390004001600070009000A92
:1002A00000000000000B000D000E000F00330034B2
:1002B0000031002B0014001A000800150017000080
:1002C000000000110010003600370038002800E55B
:1002D0000035001E001F0020002100220023000026
:1002E0000024002500260027002D002E002A0029CA
:1002F000003A003B003C003D003E003F0000004053
:100300000041004200430044004500000000002579
:1003100000230021001F0027002C00000052005184
:10032000004A0046004E004C002C0000002600242D
:1003300000220020001E0000002C0050004F004B47
:100340000049004D00000000000100010001000014
:10035000000000000000000000010001000100009A
:100360000000000000000001000100010001000188
:100370000001000000000001000100010001000177
:100380000001000100010001000100010001000165
:100390000000000000010001000100010001000157
:1003A0000001000100010001000100010001000046
:1003B0000000000100010001000100010001000136
:1003C0000001000100010001000100010001000026
:1003D0000001000100010001000100010001000115
:1003E0000001000100010001000100010000000106
:1003F00000010001000100010001000000000001F7
:1004000000010001000100010001000000010001E5
:1004100000010001000100010001000000010001D5
:1004200000010001000100000001000100010001C5
:1004300000010001000000000001000100010000B7
:1004400000000000000000000001000100010000A9
:100450000000000000000001000100010001000197
:100460000001000000000001000100010001000186
:100470000001000100010001000100010001000174
:100480000000000000010001000100010001000166
:100490000001000100010001000100010001000055
:1004A0000000000100010001000100010001000145
:1004B0000001000100010001000100010001000035
:1004C0000001000100010001000100010001000124
:1004D0000001000100010001000100010000000115
:1004E0000001000100010001000100000000000106
:1004F00000010001000100010001000000010001F5
:1005000000010001000100010001000000010001E4
:1005100000010001000100000001000100010001D4
:1005200000010001000000000000000000000000C9
:10053000000000000000000000000000007E0F002E
:10054000D4FFFFFFC700000078000000000000009B
:10055000002A2B280000000000000000000000001E
:100560000000000029000000002C1E34202122245D
:10057000342627252E362D3738271E1F20212223EB
:100580002425263333362E37381F0405060708097D
:100590000A0B0C0D0E0F1011121314151617181943
:1005A0001A1B1C1D2F3130232D35040506070809A1
:1005B0000A0B0C0D0E0F1011121314151617181923
:1005C0001A1B1C1D2F3130354C32190A00047F3F95
:1005D0001F643214643214783C1E1E140A0505018F
:1005E0000980A101850319012AB700150126B7006A
:1005F000950175108100C0050C0901A10185041940
:10060000012AA002150126A002950175108100C0E3
:100610000660FF0961A1010962150026FF0095200F
:10062000750881020963150026FF00952075089161
:1006300002C005010906A101050719E029E7150017
:10064000250195087501810295017508810305074B
:10065000190029FF150026FF009506750881000581
:1006600008190129059505750191029501750391F8
:1006700003C00A03560045002E004100000012038B
:100680004F006400640046006F0072006700650060
:1006900000000403090409025B00030100A0FA0939
:1006A00004000001030101000921010100012240B1
:1006B000000705810308000109040100020300008E
:1006C000000921010100012222000705840308001E
:1006D00001070504030800010904020001030000EA
:1006E00000092101010001223200070583030800EF
:1006F000011201100100000008FEFF554100010138
:100700000200010011241FBECFE5D8E0DEBFCDBF3F
:1007100004B603FE24C080915D0390915E03A09116
:100720005F03B09160038730904BA740B04BB9F4A2
:1007300010925D0310925E0310925F0310926003AB
:1007400014BE84B7877F84BF0FB6F894A89581B58F
:10075000886181BD11BC0FBEE0E0F8E3099523E09C
:10076000AAEDB0E001C01D92AD35B207E1F710E08F
:10077000A0E6B0E0E6E4FCE402C005900D92AA3DDC
:10078000B107D9F70E945F1E0C94E0250C9400007D
:10079000A82FB92F80E090E041E050EA609530E06A
:1007A00009C02D9182279795879510F0842795276A
:1007B000305EC8F36F5FA8F30895EADF8D939D93D1
:1007C0000895CF93CFB7CF93C395839BE9F7839BCE
:1007D0000EC0839B0CC0839B0AC0839B08C0839B75
:1007E00006C0C0913703C395C0933703A6C0DF93FB
:1007F000C0913603DD27C55CDC4F839B02C0DF91CF
:10080000E6CF2F930F931F9300B32FEF03FB20F935
:100810004F933F9310B34FEF012703FB21F93BE0C8
:1008200031C04E7F012F10B3216028C0102F4D7FA3
:100830002260000000B329C04B7F2460012F00001C
:1008400010B32BC010B3477F28602AC04F7E00B37F
:1008500020612CC04F7D10B320622FC04F7B00B3AE
:10086000206432C0422700B349934FEF00001027A5
:1008700013FB20F910B31C70C9F1297F91F20127F5
:1008800003FB21F900B3237F89F2315058F110277F
:1008900013FB22F910B3277E79F2012703FB23F91A
:1008A0002F7C81F200B3102713FB24F92F7971F20A
:1008B00000C010B3012703FB25F92F7359F200C0C4
:1008C00000B3102713FB26F9223040F200C010B30A
:1008D000012703FB27F9243028F64F77206810B34F
:1008E0000000F9CF10E81ABF00271CC03B5031951B
:1008F000C31BD04010E81ABF0881033C11F10B3430
:1009000001F1209134031981110F1213EDCF4A81A7
:10091000441F093669F10D3211F0013E29F74F707D
:1009200009F0042F00933A033F914F911F910F91CB
:100930002F91DF91CAB7C7FD47CFCF91CFBFCF91DE
:10094000189520913A03222379F31091380311234B
:1009500009F044C034300AF443C030933803209384
:100960003503109136033BE0311B3093360338C01A
:1009700000913803013094F50AE54F7049F4309145
:100980007D0034FD2FC000937D00C1E1D3E02EC077
:10099000433059F0443091F030911C0334FD22C0B3
:1009A00000931C03CDE1D3E021C03091510334FD0D
:1009B00019C000935103C2E5D3E018C03091280359
:1009C00034FD10C000932803C9E2D3E00FC027957F
:1009D000A8F45150A9F4220F0000F9CF4AE503C052
:1009E00042ED01C0432FC4E1D0E032E011B31C60FE
:1009F000939A11BB02B320E41CE05F93012756E0F9
:100A000002BB279520F4515021F4220FF9CF012782
:100A100056E000003B5A02BBD0F2279528F4515013
:100A200029F4220F0000F9CF012756E0279502BBD9
:100A300020F4515021F4220FF9CF012756E02991DB
:100A4000332302BB21F6037F10913903110FC651E6
:100A5000D04002BB11F01093340310E81ABF0860B5
:100A600011B3137F402F437F5F9100C000C002BBD2
:100A700011BB42BB59CFFC018381833089F130F433
:100A80008130F1F0823021F180E00895813209F463
:100A900041C08232C9F7248135812130310509F402
:100AA00057C02115310509F44BC02230310561F7DB
:100AB0008EED95E09093E9028093E80282E3089539
:100AC00081EF96E09093E9028093E80282E1089535
:100AD00086E996E09093E9028093E8028BE5089519
:100AE00082818130A1F0882351F0823069F682E75B
:100AF00096E09093E9028093E8028AE0089582E903
:100B000096E09093E9028093E80284E008958EE7EE
:100B100096E0D8CF8281813081F0882331F0823015
:100B200009F0B2CF81EE96E002C088EA96E0909399
:100B3000E9028093E80289E0089581EC96E0F7CF1E
:100B400082E396E09093E9028093E80280E40895BE
:100B500020E136E03093E9022093E80208950895F9
:100B600008958091E30208959C014FB7F894809115
:100B70003F0290914002A0914102B09142024FBFCA
:100B8000821B930B0895809105028111109205023A
:100B900008958091040290910302892B90910202A2
:100BA000892B8093DA0090910502992391F0892B8B
:100BB0008093DA0020E08CED90E0FC013191CF01D0
:100BC00031112F5FF0E0823E9F07B9F721110E949B
:100BD000C305E0911D02F0911E02309731F00280B2
:100BE000F381E02D8AED90E009940895ECEDF0E0BA
:100BF0009191891303C0DF0111971C9290E0E23EAE
:100C0000F907B1F70895ACEDB0E0EFEF90E02D916A
:100C1000821751F0EF3F19F4211101C0E92F9F5FB6
:100C20009630A9F7EF3F09F408950E2E000CFF0B44
:100C3000E652FF4F828308952FE0929F800D11248A
:100C4000982F977086958695869525E0829FF0016E
:100C50001124EA54FE4F50E040E080E0219130E062
:100C6000092E02C0369527950A94E2F721703327A2
:100C7000042E01C0220F0A94EAF7822B4F5F5F4FC8
:100C80004530510559F708952FE0929F800D1124AA
:100C9000982F977041E001C0440F9A95EAF7869526
:100CA0008695869595E0899FF0011124EA54FE4FC0
:100CB00090E080E070E05191DF0111979B01082ED8
:100CC00002C0369527950A94E2F7217021952527D1
:100CD000242325272C9301968530910561F70895EB
:100CE0008091B50190918401981301C008958F5FA0
:100CF0008770FACF882341F0809590910402892370
:100D0000809304020C94C9050895882339F09091CA
:100D10000402982B909304020C94C9050895209125
:100D20007B0130917C012817390771F090937C0189
:100D300080937B01E0911D02F0911E02309721F01B
:100D40000084F185E02D0994089520917901309176
:100D50007A012817390771F090937A01809379010D
:100D6000E0911D02F0911E02309721F00680F7817C
:100D7000E02D0994089510920302109202020E943D
:100D8000C90590E080E00E94A50690E080E00C9408
:100D90008F0660930D0370930E0380930F0390935F
:100DA00010030C94BB060F931F9360910D03709179
:100DB0000E0380910F03909110038B019C0106702C
:100DC000112722273327063011052105310529F483
:100DD00068601F910F910C94C906677FFACF0F933B
:100DE0001F9341E050E060E070E004C0440F551FE5
:100DF000661F771F8A95D2F7CB01BA01609570956F
:100E00008095909500910D0310910E0320910F0392
:100E10003091100360237123822393231F910F913C
:100E20000C94C90690910102809589238093010258
:100E3000282F277071F4282F082E000C330B9217DF
:100E4000130639F08595859585950E94EF061092D9
:100E5000010208950F931F9341E050E060E070E0BD
:100E600004C0440F551F661F771F8A95D2F78091E3
:100E70000D0390910E03A0910F03B09110038A010E
:100E80009B01082B192B2A2B3B2BC901B8011F9161
:100E90000F910C94C9066093060270930702809329
:100EA0000802909309020C94BB06E0911D02F09198
:100EB0001E02309721F00190F081E02D099480E02E
:100EC0000895882309F452C0823871F40E945507AE
:100ED00081FF4CC089E30E9403060E94C90589E393
:100EE0000E94F6050C94C905833859F40E945507F1
:100EF00080FF3CC083E50E9403060E94C90583E58C
:100F0000EFCF843859F40E94550782FF2FC087E441
:100F10000E9403060E94C90587E4E2CF9CEF980F68
:100F2000913AF0F290E2980F983088F4877021E0BF
:100F300030E0A90102C0440F551F8A95E2F7CA01AB
:100F4000809590910402892380930402CBCF9BE586
:100F5000980F933020F490E080E00C94A506885A16
:100F6000873120F490E080E00C948F060895CF92B2
:100F7000DF92EF92FF92843010F5811121C09FB56E
:100F80009F7D9FBD9498282F30E0AFEFBFEF0E9468
:100F9000D12523E030E040E050E00E94AF25C901B8
:100FA0002C3764E1360780F469E070E00E947C240D
:100FB00079BD68BDFF90EF90DF90CF90089583E0FA
:100FC0009FB590629FBDDFCF2A50374D4F4F5F4F87
:100FD000942F832F722F662725EF38E241E050E0EF
:100FE0000E94AF2569017A01CA01B9010E94522409
:100FF0009B01AC01C701B6010E945224672F782FD4
:10100000892F99276115710521E08207910581F6E5
:101010006FEF7FEFCDCF282F220F220F220F90915D
:1010200037029770922B90933702987F21E009F452
:1010300020E09091370220FB90F9909337020C94B6
:10104000B707FA01811101C0FB01099480913A02AE
:10105000982F9E7F29F48170826080933A020895D0
:101060008635E8F381708465F8CFAF92BF92DF9246
:10107000EF92FF920F931F93CF93DF93082F162FBA
:10108000E901E42FF0E0EC5AFF4F611110C0E49148
:101090005E2F4E2F4983E8835A83DF91CF911F91B2
:1010A0000F91FF90EF90DF90BF90AF900895E62EE4
:1010B000F12C4491D42EE42FF0E026E0829FC00171
:1010C00011242FEF30E0B9010E947C24802F90E0A2
:1010D000880F991F55E5569FD001579FB00D1124D9
:1010E0008A1B9B0B982F990F890F5901AE18BF08C7
:1010F000AE9ED001AF9EB00DBE9EB00D11245B2FF1
:10110000189F80011124012F11275901A01AB10A3B
:10111000AE9E8001AF9E100DBE9E100D1124590190
:10112000A81AB108AE9CC001AF9C900DBE9C900D5A
:101130001124892F9927281B390B2E9FC0012F9F1F
:10114000900D3E9F900D1124E92F62307105A1F0A2
:1011500050F46115710509F49DCF6130710581F07E
:10116000EB2F512F97CF6430710569F080F0663016
:10117000710509F48FCFF4CFE42F4B2F592F8ACF6D
:10118000E42F412F87CFEB2F542F492F83CF4B2FA5
:101190005D2DE12F7FCF90911A0292FF06C0282F7C
:1011A00028712830F9F4877F846093FF06C0282FC8
:1011B00028712831F1F4877E846120911B0220FF81
:1011C00006C0382F38713830D9F4877F816021FF0D
:1011D00006C0282F28712831D1F4877E816194FDC3
:1011E000877E0895282F24712430F9F68B7F88603C
:1011F000DCCF282F2471243101F78B7E8861DDCF6D
:10120000382F3171313019F78E7F8860E0CF282F69
:101210002171213121F78E7E8861E1CF80FF09C0E5
:10122000909A81FF08C0919A82FF07C0969A81E048
:1012300008959098F6CF9198F7CF9698F8CFCF93DE
:10124000DF9380913803835087FD14C0909136035B
:10125000CCE0D0E0C91BD109C55CDC4F90913503CF
:10126000903108F06BC0883009F453C01092D80256
:101270001092380380917D0084FF3EC080917C00F5
:101280008F3FD1F1C82F893008F0C8E0982F9C1B00
:1012900090937C009091110328E89227909311037A
:1012A0008823E9F08091E8029091E9022091E70219
:1012B00026FF06C1FC012C2FA2E1B3E034913D933F
:1012C00031962150D9F79C012F5F3F4F8FEF8C0F44
:1012D000820F932F911D9093E9028093E8026C2F67
:1012E00082E193E00E94DD03CC5FCC3019F08FEFF8
:1012F00080937C00C0937D0084E190B39C7031F4B6
:101300008150D9F71092390310923403DF91CF91B5
:1013100008958091D802893108F0A8CFE82FF0E035
:10132000E651FD4F9E01285F3F4F999191932C17F5
:101330003D07D9F7885F8093D8029ACF9D3209F094
:10134000A3C0883009F094CF83EC809311038AE521
:1013500080937D001092E7028881807609F447C06F
:10136000803229F58981813099F48C819D81892B86
:10137000F1F48AED92E09093E9028093E80288E02C
:101380009F81911131C09E81981770F5892F2CC0D3
:10139000823041F489ED92E09093E9028093E80273
:1013A00081E0EECF8A3029F48B818093D90280E0EE
:1013B000E7CF8930E1F78A819B818115924069F4FA
:1013C0008C819D81892B49F481E08093E6028E8196
:1013D0009F819093E5028093E402888187FF52C049
:1013E0008E8190E89093E70280937C0041CF2A8120
:1013F00010921A03998191110AC010921B032AE1DD
:1014000033E082E03093E9022093E802B9CF9530CF
:1014100029F4209339032AE133E0F4CF9630C1F464
:101420009B81913049F4CE010E943B0590E490935A
:10143000E7028F3F91F2A4CF9230A9F3933099F352
:10144000913289F3923279F390E49093E70298CF46
:10145000983089F0993019F42093E202DCCF9A3069
:1014600071F09B30C1F69BE490931D03909352035F
:1014700090932903D0CF22EE32E081E0C3CF2AE15E
:1014800033E0FBCF8FEFADCF8091E70287FFF0CE47
:101490008091E4029091E502892B71F08091E6023F
:1014A000813051F488818093E3021092E50210921A
:1014B000E40210927C00DCCE8EE180937D00D8CED9
:1014C000DC012C2FE2E1F3E03D9131932150E1F773
:1014D000FACE1F93CF93DF93E82F792F162FEA01CF
:1014E000888184FF1CC0298188E828272983CE01B0
:1014F0000296DC012E2F372F512F5E0FF90121911B
:101500002D939F01452F4E1B1416C4F3612F0E948B
:10151000DD031C5F1883DF91CF911F9108958AE549
:101520008883E5CFCF93DF93CAEED2E08091280382
:1015300084FF18C048E253E068E0CE010E94690AC7
:10154000289683E0CA30D80789F78091280384FF62
:101550000CC048E253E060E090E080E0DF91CF9182
:101560000C94690A0E941F09E1CF0E941F09EDCF68
:10157000CF93DF9300D00F92CDB7DEB79091D70213
:10158000981307C02091D5023091D602261737074D
:10159000A1F08093D7027093D6026093D50289831D
:1015A0007B836A838091510384FF07C041E553E048
:1015B00063E0CE0101960E94690A0F900F900F9090
:1015C000DF91CF910895BC0184E00C94B80ABC016E
:1015D00083E00C94B80ACF93DF93CAE0D0E0809107
:1015E0001C0384FF1CC08091D3029091D4029817F1
:1015F00099F028E0829FC00111244CE153E068E09B
:101600008D5A9D4F0E94690A8091D30290E0019605
:101610008F7099278093D302DF91CF9108950E9414
:101620001F0987EB9BE00197F1F700C000002197AD
:10163000B1F6F2CFCF93DF93EC01A091D402B0E0EA
:10164000CD0101968F7099272091D302281779F048
:1016500093E0AA0FBB1F9A95E1F7AD5ABD4F98E0F2
:10166000FE0101900D929A95E1F78093D4020E94B9
:101670001F090E94EB0A88E0FE01AAEDB2E001908A
:101680000D928A95E1F7DF91CF910895CF93C82FFE
:10169000882309F488C08238C1F40E94550781FD6F
:1016A00082C089E30E9403060E94C9052FE789EAE8
:1016B00093E0215080409040E1F700C0000089E3B2
:1016C0000E94F605CF910C94C9058338A1F40E94BD
:1016D000550780FD68C083E50E9403060E94C90586
:1016E0002FE789EA93E0215080409040E1F700C065
:1016F000000083E5E5CF8438A1F40E94550782FD00
:1017000052C087E40E9403060E94C9052FE789EAB8
:1017100093E0215080409040E1F700C0000087E452
:10172000CFCF8CEF8C0F813A68F4ECEDF0E0819133
:10173000C81799F120E0E23EF207C9F78C2F0E940A
:101740000306C0CF80E28C0F883068F4C77021E0B8
:1017500030E001C0220FCA95EAF780910402822B83
:1017600080930402AFCFEBE5EC0FE33040F4F0E000
:10177000E755FF4F808190E0CF910C94A506C85AA1
:10178000C73188F4EC2FF0E0EE0FFF1FE455FF4F58
:1017900080819181CF910C948F068C2F0E94F60549
:1017A0000E94C905CBCFCF910895CF93C82F0E9437
:1017B000460BC93349F42FEF8DEE92E02150804063
:1017C0009040E1F700C000008C2FCF910C9461078E
:1017D000CF9384E090E00E942925C82F81E290E019
:1017E0000E942925982F8C2FCF9108950F931F9336
:1017F000CF93DF93C42FD0E0CC0FDD1F2EE1629F8B
:10180000C00DD11D112430EF839FC00DD11D1124B7
:10181000CE0186960E942925082F10E0102F002760
:10182000CE0187960E9429259801282BC901DF91B6
:10183000CF911F910F910895462F833038F478305F
:1018400028F46F3018F4672F0C94F60B90E080E0CA
:101850000895CF93DF930E941C0CEC018238910510
:10186000A9F1D8F58133910509F496C048F589327C
:10187000910509F48AC08A9709F495C0C11522E53B
:10188000D20708F0B6C0C11531E5D30708F026C16C
:10189000C83ED10508F09CC0C03ED10560F5C83AED
:1018A000D10508F087C0C53AD10508F0EFC0C130B6
:1018B000D10509F12097F9F0C430D105E0F440C01A
:1018C0008533910509F45AC0C997C1F680911A026F
:1018D000837089F0C0EED0E00EC0833E910599F18F
:1018E00070F4803E910501F1823E910539F68091B8
:1018F0001A0282FD21C0CE01DF91CF910895863E6C
:10190000910561F1873E910571F1843E910509F0E1
:10191000B5CF80911B0281FFEECF80911A02C7EEF6
:10192000D0E084FD0DC0E7CF80911A0280FD07C191
:1019300090911B0290FFDFCFC3EED0E084FFDBCF9E
:10194000D0E0C0E0D8CF80911A0282FDFBC0909118
:101950001B0290FDBFCF84FFCECFF2CF80911A0241
:1019600083FDDDCFC8CF80911A0283FDEEC0909138
:101970001B0291FFF0CFC4EED0E0BDCF80911A02E0
:1019800085FFB9CFC9E2D0E0B6CF80911A0285FFBA
:10199000B2CFC5E3D0E0AFCF80911A0286FFABCFC4
:1019A000CAE2D0E0A8CF80911A0286FFA4CFC1E39B
:1019B000D0E0A1CFCF3BD10518F6C85AD0E0CC0F6C
:1019C000DD1FC455DF4F0990D881C02DD46493CF5B
:1019D000C11540E5D40708F064C0C11580E4D807FC
:1019E00008F05CC0CE019A9581159F4108F483CF21
:1019F000A7CFC11536E5D30718F5C11545E5D407BE
:101A000008F084C0C11584E5D80708F07AC09C2F7F
:101A1000969596959E0123703327C115D34508F4FA
:101A200062C0C1E0D0E002C0CC0FDD1F2A95E2F712
:101A300030E2939FC0011124C82BD92BDA685BCF09
:101A4000C1158AE5D80778F4C11599E5D90708F0DA
:101A500068C0C11528E5D20708F472CFDC2FCC2767
:101A6000C06FD06A48CFCE0190568115904208F0E1
:101A700067CF8D2F8F710E94CB0890E0982F882719
:101A800088279F719C012C2BE90149C0C55AD0E0E1
:101A9000C755DF4FC881D0E0D0642DCFDF70D06A4A
:101AA0002ACFCE01E4E096958795EA95E1F7837019
:101AB0002C2F26952695237040E2249F9001112417
:101AC000382B8C2F8370C1E0D0E002C0CC0FDD1F1B
:101AD0008A95E2F7C22BD32BDC680DCFDC2FCC2705
:101AE000C16FD06A08CFC1E0D0E002C0CC0FDD1FCB
:101AF0002A95E2F720E2929FC0011124C82BD92B2E
:101B0000EBCFDC2FCC27C46FD06AF5CE8C2F0E9490
:101B1000CB08C82FD0E0DC2FCC27CC27DF71D062D8
:101B2000EACE8C2F8F700E94CB0834E0D695C795F3
:101B30003A95E1F7CF709C2FEC01D069DCCEC9E378
:101B4000D0E0D9CEC2EED0E0D6CEC6EED0E0D3CE35
:101B5000BF92CF92DF92EF92FF920F931F93CF939A
:101B6000DF938C01C0900D03D0900E03E0900F0323
:101B7000F09010038091060290910702A091080254
:101B8000B0910902C82AD92AEA2AFB2ACFE1D0E07B
:101B9000BC2ED701C6010C2E04C0B695A79597950B
:101BA00087950A94D2F780FD0EC0219788F7B12C53
:101BB0008B2DDF91CF911F910F91FF90EF90DF90D0
:101BC000CF90BF900895B8018C2F0E94290C0197E7
:101BD00061F3EECFCF93DF93EC010E94A80DBE011D
:101BE000DF91CF910C94290C0E94EA0D292F2F70C0
:101BF00092959F7092509E3078F4E92FF0E0EE516C
:101C0000FA4D0C94A424803F19F020F4883E20F46F
:101C100081E00895843FE1F380E00895883EC0F3B9
:101C2000813FD1F7F5CF822F8695869586950895C9
:101C30006F927F928F929F92AF92BF92CF92DF92DC
:101C4000EF92FF920F931F93CF93DF9389E5C82EF6
:101C500082E0D82E94E3E92EFF24F394E701C05FDD
:101C6000D10936011BC0F50185909490692DC801FA
:101C70000E943D25682DC80101960E943D2582E005
:101C8000A80EB11C0E5F1F4FC017D10761F78EE180
:101C9000680E711C6E96CE15DF0529F08E010E516F
:101CA00011095301E0CF7E0180EFE80EF11C80EFB7
:101CB000C80ED11C84E0E816F80681F6DF91CF91BA
:101CC0001F910F91FF90EF90DF90CF90BF90AF905A
:101CD0009F908F907F906F900895682F86E090E09E
:101CE0000C943D25CF93DF93C6EFD2E060E0CE01A8
:101CF0000E943D252196C11584E0D807B9F7DF91F0
:101D0000CF910895CF93C82F6FEF811161E282E2E6
:101D100090E00E943D256FEFC11162E083E290E008
:101D20000E943D256FEFC11167E184E290E0CF9101
:101D30000C943D2580913A0280FD0AC0E9EEF0E066
:101D4000118210821282339681E0EF31F807C1F7D9
:101D50008091E500811105C00E941C2381E08093E1
:101D6000E50024E630E04BE150E069EE70E080EB06
:101D70000E94EC2324E630E04BE150E064E071E0A7
:101D800088EB0C94EC238F929F92AF92BF92CF92EC
:101D9000DF92EF92FF920F931F93CF93DF93FC019B
:101DA000B280948081E08483CFE1D1E009EE10E03D
:101DB0008BE4A82E88248394EE24EA94F12C2BE45F
:101DC000C22ED12C91101DC01B821A8298014A810B
:101DD000698188810E94350825960D5F1F4F81E03B
:101DE000C937D80779F7DF91CF911F910F91FF90F5
:101DF000EF90DF90CF90BF90AF909F908F900C941A
:101E00009A0E2B81222309F121502B833C818A2DAC
:101E1000821B311101C0822F90913D02899FC00128
:101E20001124B6010E947C246A83211104C033234B
:101E300011F01C82AB8222E02B1540F280913B0214
:101E4000888380913C028983C1CF0E940C25823017
:101E500091400CF0BBCF82E08B15C0F40E940C25A2
:101E6000B7010E949024888322E02B1590F40E94F1
:101E70000C2520913C022695622F70E00E94902450
:101E8000280F29831A82AB828C82A0CF80913B02DB
:101E9000EACF20913C02F5CFEF92FF921F93CF93B0
:101EA000DF93EC0189EEE82E80E0F82E10E08C81C3
:101EB000970140913D0260913C02810F0E943508DC
:101EC000125F83E0E80EF11C1C3F89F70E949A0E16
:101ED0009A818C8190FF08C08F5F8C83DF91CF91B6
:101EE0001F91FF90EF9008958150F7CFBF92CF924E
:101EF000DF92EF92FF920F931F93CF93DF93FC013A
:101F00008281DD24DA9480FD02C0DD24D39409EEC1
:101F100010E0D0E0C0E022E1B22EF8011182108280
:101F2000128294E0E92EF12CC12C8091E6008C0DF8
:101F300083310CF43DC06B2D0E946E24892F082E36
:101F4000000C990B8C179D0791F480913D028E9D9A
:101F5000A0018F9D500D1124559547955595479596
:101F6000980160913C0280913B020E943508CD0CA3
:101F7000F1E0EF1AF108C9F621960D5F1F4FC2314B
:101F8000D10559F60E949A0E8091E60091E0D9128F
:101F900015C0811111C081E18093E600DF91CF91DE
:101FA0001F910F91FF90EF90DF90CF90BF90089519
:101FB00087FFC5CF8E5EC3CF8150EECF90E00196F4
:101FC000BE010E949024E8CF0F931F93CF93DF931D
:101FD000E9EEF0E0118210821282339681E0EF3157
:101FE000F807C1F7D0E0C0E002E110E0CE010996A9
:101FF000B8010E9490242091E700022E000C330BC0
:10200000FC01EE0FFF1FE80FF91FC217D3078CF179
:1020100020917000022E000C330B2C173D074CF161
:102020009F0127513F4F40913D0260913C028091BA
:102030003B020E9435082196C231D105B9F60E94B3
:102040009A0E80916F009091E700980F9093E700AF
:1020500020917000280F20937000121614F4913113
:102060001CF0819580936F00DF91CF911F910F91AC
:102070000895E751FF4F118210821282DCCF8F92B8
:102080009F92AF92BF92CF92DF92EF92FF920F9307
:102090001F93CF93DF93EC014C81042F10E0980144
:1020A000D8010E94D1259B01AC010E949C254B01C7
:1020B0005C01E0E2F0E0E01BF10BA5E5B0E0AC0173
:1020C0009B010E949C256B017C019F01DF010E9406
:1020D000B1249B01AC010E94A7259B01AC01280DF6
:1020E000391D4A1D5B1DC701B6010E94AF25F22EA6
:1020F000822F90E039E23F15D8F143E0249F900110
:10210000112435952795122F109599EEC92E90E040
:10211000D92E00E085E5E82EEF188E2D01FD8F2DDC
:102120009601412F60913C020E9435080F5F53E0F9
:10213000C50ED11C023189F70E949A0E9C8181E064
:10214000992319F0903219F48FEF809371008091E8
:102150007100890F8C83DF91CF911F910F91FF90B8
:10216000EF90DF90CF90BF90AF909F908F900895A9
:1021700025E530E0A901481B590BCA019A01220F3D
:10218000331F280F391F37FFBCCF2F5F3F4FB9CF09
:10219000EF92FF920F931F93CF93DF938C01C9EEC1
:1021A000D0E0F12CE12CF801948160913C02809107
:1021B0003B02F9E0EF16F104FCF49923F9F09E01DB
:1021C00040913D020E9435082FEFE21AF20A239651
:1021D00082E1E816F10439F70E949A0EF801848131
:1021E00090E00196817099278483DF91CF911F91B0
:1021F0000F91FF90EF900895992309F39E0140E01D
:10220000E1CF90913A0290FF0CC0E9EEF0E08183BB
:1022100060834283339691E0EF31F907C1F70C9464
:102220009A0E08950F931F93CF93DF9300D00F92D0
:10223000CDB7DEB78C018091E80081110AC09E0104
:102240002F5F3F4F4FEF6FEF0E9435088A818093D9
:10225000E800F8016481613069F08091E80040E0B5
:10226000662361F040E0623011F44091E80080E0C4
:1022700060E004C06091E80040E080E00E9401114D
:10228000F801848190E0019663E070E00E94902460
:1022900084830F900F900F90DF91CF911F910F913A
:1022A0000895CF93DF9300D00F92CDB7DEB7909112
:1022B0003A0290FF0AC09E012F5F3F4F0E943508EF
:1022C0004B8169818A810E9401110F900F900F90BC
:1022D000DF91CF910895CF93DF93EC01EC81F0E093
:1022E000E75AFE4F4491EAE3F2E0628181810E9465
:1022F00051118C818F5F8C83DF91CF910895CF93A3
:10230000DF93EC01EAE3F2E0438162818C810E9479
:1023100051118C818F5F8C83DF91CF91089560E0A4
:1023200081E090E00E94602587E090EBDC018093E3
:102330005D0390935E03A0935F03B093600388E115
:102340009CE00FB6F894A89581BD0FBE91BDFFCF5C
:1023500090E080E00E94372521E08C3E9E4F09F0FE
:1023600020E0822F08956CEE7EEF90E080E00E94E6
:102370005A2560E082E090E00E943D2560E083E025
:1023800090E00E943D2510920602109207021092E2
:1023900008021092090260E084E090E00E943D256E
:1023A00060E081E290E00E943D2560E085E090E001
:1023B0000E943D2560E086E090E00E943D256FEFA1
:1023C00087E090E00E943D2540E050E0BA0188E0BF
:1023D00090E00E944E2560E08DE090E00E943D2557
:1023E00040E050E0BA0188E190E00E944E2560E0B4
:1023F00087E190E00E943D2540E050E0BA018CE189
:1024000090E00E944E2560E080E290E00E943D2531
:1024100040E050E0BA0188E190E00E944E2540E0A3
:1024200050E0BA018FE090E00E944E2540E050E07D
:10243000BA0183E190E00C944E250E94A81181110D
:1024400002C00E94B31186E090E00E94292580938B
:102450003702803220F08770886180933702909134
:102460003702892F817090FF04C0892F8695869549
:1024700086950C94B707CF92DF92EF92FF926B0193
:102480007C010E942608B701A60188E090E0FF9039
:10249000EF90DF90CF900C944E255F926F927F92D9
:1024A0008F929F92AF92BF92CF92DF92EF92FF9264
:1024B0000F931F93CF93DF9300D00F92CDB7DEB76A
:1024C000182F762E042F622E90913A0290FF29C089
:1024D000E92FE695AE2FB0E0A258BF4F8C918093C4
:1024E00038029E7F923081F59E012F5F3F4F812FF2
:1024F0000E9435084B8169818A810E9401111093E5
:102500003B0270923C0200933D02662051F06091C4
:102510003A0270913B0280913C0290913D020E94F0
:102520003B120F900F900F90DF91CF911F910F9161
:10253000FF90EF90DF90CF90BF90AF909F908F90E3
:102540007F906F905F900895823019F400913D0262
:10255000D6CF863019F410913B02D1CF8930D9F310
:10256000893169F6E9518E2F8170582EE695F0E099
:10257000EC5AFE4FA590B490BB2489EEE82E80E083
:10258000F82ED12CC12C92E1892E912CC601B401D8
:102590000E947C24812F511013C0860F9701402F79
:1025A000672D0E943508CA0CDB1C83E0E80EF11C85
:1025B0008FE1E81681E0F80649F70E949A0E9FCF56
:1025C000861BECCFEAE3F2E0438121E1421B08F4F1
:1025D00040E021E0628181810C944D12EAE3F2E057
:1025E000438121E1420F08F44FEF21E062818181B4
:1025F0000C944D12EAE3F2E0628121E1621B08F4DF
:1026000060E021E0438181810C944D12EAE3F2E025
:10261000628121E1620F08F46FEF21E04381818143
:102620000C944D12EAE3F2E0818121E04381628162
:1026300088500C944D12EAE3F2E0818121E043815D
:102640006281885F0C944D1280913E02882319F0BC
:10265000815080933E0260913A0270913B028091DA
:102660003C0290913D020C943B1280913E028330DB
:1026700018F48F5F80933E0260913A0270913B02A2
:1026800080913C0290913D020C943B12EAE3F2E00F
:1026900083E0808311828FEF828383831482608141
:1026A0007181828193810C943B1210920402ECEDB3
:1026B000F0E086E0DF011D928A95E9F70C94BB06F5
:1026C00078941F921FB61F9211248F939F93AF93FC
:1026D000BF9380913F0290914002A0914102B0913E
:1026E00042020196A11DB11D80933F0290934002CA
:1026F000A0934102B0934202BF91AF919F918F91FD
:102700001F901FBE1F9018952FB7F89480913F021D
:1027100090914002A0914102B09142022FBF0895D2
:102720000F931F93CF93DF93C62FD42F022FFC015B
:1027300082818823A1F060930C030E9484139093FC
:102740000B0380930A03C77081E001C0880FCA950C
:10275000EAF7DF91CF911F910F910C94850680913C
:102760000C03681335C080910A0390910B030E94FB
:10277000B405883C910560F510E21D0FCD17B9F046
:1027800080E28C0F883040F4C77081E001C0880F70
:10279000CA95EAF70E947A06183048F481E09D2F26
:1027A000977001C0880F9A95EAF70E948506802FDE
:1027B0000E94D50B183098F4D77081E001C0880FC3
:1027C000DA95EAF7DF91CF911F910F910C947A0679
:1027D000C77081E001C0880FCA95EAF7F3CFDF9197
:1027E000CF911F910F91089590913A0290FF3DC0B3
:1027F0009170811129C0926090933A02662351F042
:1028000060913A0270913B0280913C0290913D02AE
:102810000E943B1260913A02669570E04BE050E0F6
:1028200084E690E00E941C25892BA9F010923902C1
:1028300081E08093220220E040913D0260913C02C1
:1028400080913B020C944D128B3210F09465D4CFE2
:10285000880F982BD1CF81E0809339020E94841396
:102860009093200280931F02E3CF089580913A0253
:102870008695815009F48AE261E00C94F41380910A
:102880003A0286958F5F8B3208F081E061E00C940C
:10289000F41390913A0290FF07C09695981720F094
:1028A000961710F40C943F1461E00C94F4134F92BB
:1028B0005F926F927F928F929F92AF92BF92CF92D0
:1028C000DF92EF92FF920F931F93CF93DF9300D08D
:1028D00000D00F92CDB7DEB77C01FC0183819481DB
:1028E000892B31F08081918189238F3F09F062C665
:1028F0000F900F900F900F900F90DF91CF911F913D
:102900000F91FF90EF90DF90CF90BF90AF909F908E
:102910008F907F906F905F904F9008950E94A80DC8
:10292000182F682F89819A810E94440669817A81D3
:10293000812F0E941C0C8C01F7019281992309F4CC
:1029400014C6980122513F452031310508F092C547
:102950008FEF93E00E942925025156EF852E52E019
:10296000952E882379F180910102877009F4C0CFF8
:10297000F7018281882309F4BBCF82E00F900F908A
:102980000F900F900F90DF91CF911F910F91FF90BB
:10299000EF90DF90CF90BF90AF909F908F907F90FF
:1029A0006F905F904F900C9412078114F4E09F0693
:1029B000D1F2C4010E942925811101C001502FEFDD
:1029C000821A920A0111F1CF1C821B826624639441
:1029D0004AE0542E84010F5F1F4FC4010E94292535
:1029E00089831A82882309F4BECF9FEF980F933012
:1029F00008F58A83698232E0830E911CC8010E9427
:102A000029258B83882309F4AECF8E010F5F1F4FDA
:102A1000F80120812223F1F2213009F043C0918195
:102A20008281913049F40E5F1F4F0E94D50B0F5FDA
:102A30001F4FEECF4801E9CF923029F40E5F1F4FB0
:102A40000E94460BF4CF933029F40E5F1F4F0E9473
:102A50006107EDCF943019F00F5F1F4FE8CF0E5F85
:102A60001F4F30E020E0B8016F5F7F4FF8014181D8
:102A70008053990B8A30910550F021503109B8F2FA
:102A800087EB9BE00197F1F700C00000F6CF529E64
:102A9000F001539EF00D11249C012E0F3F1F842F37
:102AA0008B01E1CFE22FF0E0E75BFA4F7490822FC9
:102AB00086958695869590E0FC01E75CFA4FA49098
:102AC0002770B12C022E02C0B594A7940A94E2F7A5
:102AD000E1E0AE22BB24FC01E75DFA4FC490D12CAB
:102AE00002C0D594C7942A95E2F7F1E0CF22DD2405
:102AF000A114B10419F081EE0E94460BC114D10457
:102B000019F086EE0E94460B872D0E94D50BCD282A
:102B100019F086EE0E946107AB2809F488CF81EE98
:102B200096CF81E00E942A070E94D3061CCF81E045
:102B30000E94EF06F9CF82E0F5CF82E0F9CF003CAA
:102B4000FCE51F0709F44AC098F1013C3CE5130776
:102B500009F0ACC490913702892F869586958695A9
:102B60008F5F8F719770843008F059C0880F880F7D
:102B7000880F892B809337028091370210C083E041
:102B80000E940B08809137020E946D0EECCE80915E
:102B90003702982F987FE9F1885080933702887F19
:102BA00091E009F490E08091370290FB80F913C026
:102BB00080913702982F969596959695933040F48C
:102BC0009F5F990F990F990F8770892B8093370218
:102BD0008091370281608093370219C0809137025B
:102BE00080FF09C08E7F809337020E946D0E80E0C7
:102BF0000E94B707B8CE80FDB6CE816080933702C1
:102C0000813019F489E080933702809137020E9465
:102C10006D0E80913702869586958695E9CF9093C3
:102C20003702AACF27E245EE65EEC0C426E241EEA8
:102C300060EEBCC427E245EE64EEB8C426E241EE85
:102C400062EEB4C428E241E0EFCF80911A028061C5
:102C500006303CE5130709F47FC008F484C0809176
:102C60001A02806279C080911A028D7F0C309CE537
:102C7000190709F471C070F480911A028C600A304F
:102C8000FCE51F0709F468C008F479C080911A02B6
:102C90008E7F62C080911A02877F0E303CE5130759
:102CA00009F45AC008F471C080911A028F7E54C092
:102CB0000C3F9CE5190709F45AC030F50331FCE5D7
:102CC0001F0709F472C078F401313CE5130709F4D9
:102CD00068C002311C4509F038C40E945513809128
:102CE0001A028F7739C005319CE5190709F465C0D0
:102CF00008F479C080911B0281600B3F1C4509F0EC
:102D000024C480931B0221C401152DE5120709F488
:102D100050C070F40E3F8CE51807D9F180911B026A
:102D20008E7F0F3F1C4568F380911B028360E9CFC3
:102D30000230EDE51E0709F45FC008F44AC060E008
:102D400003301D4509F001C48EE090E00E943D254E
:102D5000FCC380911A02816080931A02F6C38091AD
:102D60001A028460F9CF80911A028860F5CF8091B1
:102D70001B028260C6CF80911A028064EDCF0E9450
:102D8000551380911A028068E7CF80911A028B7FD9
:102D9000E3CF80911B028D7FB4CF80911A028F7D8B
:102DA000DBCF80911A028F7BD7CF80911A02837F6D
:102DB000D3CF80911B028C7FA4CF80911A0282FB1B
:102DC000992790F921E0922790FB82F990FB83F9F3
:102DD000C3CF80911B02982F909591708E7F892B85
:102DE00090FB81F98ECF0E94551390911A02892F82
:102DF00097FB87F98058B0CF61E0A6CF809104029D
:102E000006313CE5130709F0E6C38A7A91E009F43C
:102E100090E090937D01811106C089E20E94030633
:102E20000E94C905A0CD85E3F9CF85E3F4C3809165
:102E30003A0280FF1BC08E7F80933A0260913A0273
:102E400070913B0280913C0290913D020E943B12A6
:102E5000109239028FEB94EDE1E081509040E04018
:102E6000E1F700C000000E949A0E7DCD8160809342
:102E70003A0261E086950E94F41375CD46E354E171
:102E80006FE374E10E9421086ECD4FE354E166E3E5
:102E900074E1F8CF42E153E16BE173E1F3CF4BE131
:102EA00053E162E173E1EECF4AEF52E166E073E194
:102EB000E9CF46E053E16AEF72E1E4CF42EE52E13E
:102EC0006EEE72E1DFCF4EEE52E162EE72E1DACFEA
:102ED00044E253E165E373E1D5CF45E353E164E2B6
:102EE00073E1D0CF61E081E0C6CF65E082E00E946F
:102EF000491439CD68E086E0FACF6EE089E0F7CF7B
:102F000064E18FE0F4CF67E185E1F1CF61E088E132
:102F1000B2CF62E289E1EBCF61E083E2ACCF011591
:102F2000FCE51F0709F447C00F3D1C4509F450C0DC
:102F3000F70100811181992309F44DC0C8010E9455
:102F4000A80DD82E682FC8010E944406B8018D2D07
:102F50000E94290C8C01882EF701A580A2943FE0E5
:102F6000A322D280D11010920302809101028770B7
:102F700099F0DD2089F0812F807F803421F080E27C
:102F8000800F883048F082E00E9412078091010291
:102F90008770CC24C3948111C12CB12EB2942FE040
:102FA000B222FBE0FB1508F450C0EB2DF0E0E0513D
:102FB000FA4D0C94A4240E9455133FEB87E299E04C
:102FC000315080409040E1F700C000000E948F1116
:102FD0000E94B311C8CCC8010E941C06D82EB6CFDF
:102FE000212F2F70A22E107F19F0A29490EFA9220A
:102FF000DD20C9F0AA2069F080E2800F883010F04F
:1030000081100BC080910402A82AA09204020E94A1
:10301000C905802F0E94460B18C080910302A82A80
:10302000A0920302F4CF802F0E946107AA2069F0CA
:10303000A094005E083010F081103DC08091040221
:10304000A822A09204020E94C905EB2DE850FF0BB4
:10305000349720F40E9455070E940E09CC2009F4F1
:1030600047CC8091010280FD43CCF7011282859507
:10307000859585950E942A07C7010E945714809163
:1030800001028595859585950F900F900F900F9073
:103090000F90DF91CF911F910F91FF90EF90DF90F4
:1030A000CF90BF90AF909F908F907F906F905F90E8
:1030B0004F900C94EF0680910302A822A092030285
:1030C000C2CF312F3F70932E107F103219F092949F
:1030D00080EF9822882071F081E0881661F1DD2070
:1030E000B9F1AA2071F1F701858180FF92CF8F702D
:1030F000858327C0DD2091F090910502892D892BD1
:10310000A11003C00E948506A0CFE1E0AE12FACF65
:10311000981709F49ACF8093050297CFA11006C0A3
:103120000E94C305892D0E947A068FCFF1E0AF1669
:1031300009F48BCFF5CFDD2031F025E02A1508F416
:1031400084CF892DDFCF34E03A1508F47ECFEACF63
:10315000AA2041F3F9E38F1286C12FEF3DEE82E002
:10316000215030408040E1F700C000007CC1812F39
:1031700086958695837061F0813009F066CFC8012D
:103180009370D11002C090E080E00E948F065DCF66
:10319000C8019370D11002C090E080E00E94A506A3
:1031A00054CF812F837009F066C0D1104ECF802F8D
:1031B000829586958770880F880F602F6F70462ED6
:1031C000512C712C612C082E04C0440C551C661C1B
:1031D000771C0A94D2F740E050E0BA0104FF0FC018
:1031E0004FE050E060E070E004C0440F551F661FE0
:1031F000771F8A95D2F74095509560957095812FED
:10320000869586958370823019F1D8F40091060274
:10321000109107022091080230910902813069F073
:103220004429552966297729CB01BA0160237123E6
:10323000822393230E944B0708CF402A512A622AF7
:10324000732ACB01BA016429752986299729F2CFFF
:103250004429552966297729009106021091070211
:103260002091080230910902CB01BA016027712731
:1032700082279327DFCF8695DD2011F0812F817083
:10328000882309F4E2CE802F829586958770880F77
:10329000880F602F6F70462E512C712C612C082ED8
:1032A00004C0440C551C661C771C0A94D2F740E0FD
:1032B00050E0BA0104FF0FC04FE050E060E070E062
:1032C00004C0440F551F661F771F8A95D2F740959B
:1032D000509560957095812F869586958370823084
:1032E00019F1D8F400910D0310910E0320910F03F2
:1032F00030911003813069F04429552966297729D6
:10330000CB01BA0160237123822393230E94C90653
:103310009CCE402A512A622A732ACB01BA01642921
:10332000752986299729F2CF4429552966297729B5
:1033300000910D0310910E0320910F0330911003A3
:10334000CB01BA016027712782279327DFCF1F7037
:10335000DD2029F0812F0E942A07802FD3CE802FD5
:103360000E947A06812F0E94EF066FCE802F92EF87
:10337000891609F450C0981578F0E0EF8E1619F10F
:10338000F1EF8F1609F43FC0DD2009F467C0A110EA
:1033900040CE812F8F713CC023EF821609F440C0CC
:1033A00034EF8312F1CFDD2009F44DC01F71812F5E
:1033B0000E942A07E8E01E9FC001112483608093C9
:1033C0000102812F25C0DD20C9F084E08A1508F4B0
:1033D0003CCE1F7161E070E080E090E004C0660FB9
:1033E000771F881F991F1A95D2F700910D0310912E
:1033F0000E0320910F0330911003A4CF95E09A158E
:1034000008F423CEE6CF812F8F71DD2009F4ABCFF6
:103410000E942A071ACE812F8F71DD20C9F3A3CF16
:1034200060E070E0CB01DD2009F470CF1F7161E036
:1034300070E080E090E004C0660F771F881F991F3E
:103440001A95D2F763CF81E00E941207F1E0FA15D6
:1034500008F0FBCD82E00E941207F7CDAA2039F0D8
:10346000893309F47ACE802F0E946107EECD812F37
:103470008F7179CF0031FFE51F0709F452CB01317D
:103480002FE5120709F457CB0E3B2CE5120709F480
:103490007ECB08F054CB0C3B8CE5180709F46FCBBE
:1034A00080E00D3BECE51E0709F46ACB043FECE538
:1034B0001E0709F4BBCB08F0B1C0093D2CE512078B
:1034C00009F4B0CB0A3D3CE5130709F4BBCB083D3A
:1034D0008CE5180709F467C010920C0302308CE5E4
:1034E000180708F48BCC0631ECE51E0738F098017C
:1034F0002B5F3C452930310508F080CC0E94E80B59
:1035000090931B0280931A020031FCE51F0709F417
:1035100044CC08F0CDCB08303CE5130709F42BCCA4
:1035200008F0A1CB04309CE5190709F418CC08F089
:103530008CCB0230FCE51F0709F40BCC80911A02FA
:10354000826003301C4509F407CC60911A02109187
:103550001B0284E090E00E943D25612F81E290E013
:103560000E943D250E945513FEC900313FE5130717
:1035700009F4DDCA01318FE5180709F4DECA043FFA
:103580002CE5120709F452CB90F5093D8CE518079C
:1035900009F448CB0A3DECE51E0709F453CB083D7E
:1035A000FCE51F0779F526E241EE61EEC7010E94B6
:1035B0009013D9C985E0DE01119601900D928A958C
:1035C000E1F7F701228189819A812111A7C90E941F
:1035D0001C06182FABC98272F801E35CFC45E4318C
:1035E000F10508F09CCCE450FA4D0C94A424063F5D
:1035F0002CE5120709F422CB08F41CCB073F8CE51D
:103600001807C1F006311C4509F092CC80917D016C
:1036100081110BCC89E20E94F60502CC063FECE555
:103620001E0709F40BCB08F405CB073F2CE5120766
:1036300009F052CF27E245EE66EEB8CF1F93CF9345
:10364000DF9380918301807FA9F48091800188239A
:1036500089F08091B501D091840160917E017091D3
:103660007F01A0918101B0918201C62FC72316E08E
:10367000D81304C0DF91CF911F91089590E0109767
:1036800011F0CF3F19F401968770F2CF189F900187
:10369000199F300D1124F901EB57FE4F418147135B
:1036A000F2CF40814613EFCF42814111ECCF4381ED
:1036B00054814A1B5B0B483C510528F780918301DC
:1036C0008F70806180938301F901E657FE4F8081FE
:1036D0008F70806180838EE791E00E945714DF91A4
:1036E000CF911F910C947006AF92BF92CF92DF9250
:1036F000EF92FF920F931F93CF93DF93CDB7DEB777
:1037000061970FB6F894DEBF0FBECDBF8C0185E088
:10371000F801DE011D9601900D928A95E1F7F801FE
:1037200080819181E2802EE7A22E21E0B22E60916D
:103730008101709182016115710509F43EC13091DA
:103740007E0140917F01232F24232F3F09F435C1AF
:10375000C380D480F0908001F601E61BF70BFF20B8
:1037600009F4FBC020918301522F507FE83CF10502
:1037700008F0BBC0511178C0FE2C491321C038138A
:103780001FC0E1101DC02F70206120938301C5016F
:103790000E94571480918301F80185838F2D6196D3
:1037A0000FB6F894DEBF0FBECDBFDF91CF911F9152
:1037B0000F91FF90EF90DF90CF90BF90AF90089562
:1037C000CD2829F0282F29232F3F09F014C120E00C
:1037D000F22FF170DF2E20FF3DC02091B501409106
:1037E000840156E0241315C08D879E878D859E85A4
:1037F0000E94EA0D292F22952F702230F8F02430F4
:1038000020F59F70F9F0F8019581907FD9F4D12CC3
:103810001FC030E0529FF001539FF00D1124EB5771
:10382000FE4F6181961306C06081861303C06281DA
:10383000E61210C02F5F3F4F2770D4CF9F7011F05A
:10384000882329F3805E883010F3C8010E94571442
:10385000FD2CA4CFEE2009F4A1CF809183018160DB
:1038600080938301F12C9ACF491312C0381310C0F2
:10387000E1100EC0F8012583C8010E94571486E0AC
:10388000F801AEE7B1E001900D928A95E1F786CF9D
:103890008D879E878D859E850E94F40D882309F172
:1038A000EE20F9F080918301803270F020917E014A
:1038B00030917F0138872F831986DB86CA868C87F3
:1038C000CE0107960E94571486E0F801AEE7B1E0FA
:1038D00001900D928A95E1F70E941E1BFF24F3943C
:1038E0005DCFC8010E945714F9CF51110AC08EE76D
:1038F00091E00E94571486E0F50111928A95E9F74C
:10390000B1CF49130FC038130DC0E1100BC0F8013F
:103910002583C8010E94571486E0F50111928A950B
:10392000E9F73CCF8D879E878D859E850E94F40D9B
:103930008823B9F2EE20A9F280918301803220F22F
:1039400020917E0130917F013A8329831B82DD82A1
:10395000CC828E83CE010196B5CFE83CF105E0F62E
:10396000FE2CEE2009F4BDCF491316C0381314C045
:103970008091830180FD83CF982F907F09F47FCFC2
:10398000F8018583903F09F477CF982F907F905F5F
:103990008F70892B858370CF8D879E878D859E85BF
:1039A0000E94F40D811190CF8091830181608093FA
:1039B0008301C8010E945714F1CEEE2009F491CF83
:1039C0008D879E878D859E850E94F40DF82E882315
:1039D00009F487CF86E0F801AEE7B1E001900D92DF
:1039E0008A95E1F780917E0190917F010E94EA0D16
:1039F0000E941E1BD3CE21E02E25EACE1F93CF932B
:103A0000DF93CDB7DEB767970FB6F894DEBF0FBE72
:103A1000CDBF4B8B5C8B6D8B7E8B8F8B1A8A198AFB
:103A200085E0FE017396DE011D9601900D928A9548
:103A3000E1F786E0FE013D96DE01179601900D92BA
:103A40008A95E1F7CE0107960E94741B882389F0BE
:103A500016E08091B50190918401891349C0679661
:103A60000FB6F894DEBF0FBECDBFDF91CF911F918F
:103A7000089586E0FE013796DE01119601900D92C1
:103A80008A95E1F78A859B85892B11F38F8198852B
:103A900089238F3FE9F22091840130E0C90101962A
:103AA000877099274091B5014817190671F40E9453
:103AB0005513109284011092B50186E0EEE7F1E013
:103AC000DF011D928A95E9F7C3CF96E0929FD0015E
:103AD000939FB00D1124AB57BE4FFE01319601905C
:103AE0000D929A95E1F7809384010E947006B0CF01
:103AF000819FC00111248B579E4F0E94741B882305
:103B000009F4ADCF8091B50190E0019687709927B7
:103B10008093B5019ECF5F926F927F928F929F921A
:103B2000AF92BF92CF92DF92EF92FF920F931F93CB
:103B3000CF93DF9300D00F92CDB7DEB78AE0C82EC7
:103B400082E0D82EF12CE12C10E002E1AA24A3940B
:103B5000B12C2FE7522EF601819091906F010983CD
:103B600035010E2C01C0660C0A94EAF7762C70948D
:103B70007A822AE030E042E050E0BE016F5F7F4F82
:103B800080E40E94EC2367BA78BAF8E7FA95F1F777
:103B900059822AE030E041E050E0BE016F5F7F4F84
:103BA00080E40E94122429B38981806890E0809586
:103BB00090952095422F582FCA01F6013297918394
:103BC000808321E08816990609F420E0122B5FEF2C
:103BD000E51AF50A88E0E816F10409F0BCCF1123D4
:103BE00009F455C081E08093E4000E94841390930F
:103BF000E3008093E2008091E2009091E3000E9454
:103C0000B405069708F447C080910A0290910B0210
:103C1000909344028093430280910C0290910D0294
:103C2000909346028093450280910E0290910F027C
:103C30009093480280934702809110029091110264
:103C400090934A028093490280911202909113024C
:103C500090934C0280934B02809114029091150234
:103C600090934E0280934D0280911602909117021C
:103C70009093500280934F02809118029091190204
:103C800090935202809351021092E40004C08091FC
:103C9000E4008111B0CF812F0F900F900F90DF9132
:103CA000CF911F910F91FF90EF90DF90CF90BF9039
:103CB000AF909F908F907F906F905F900895CDB759
:103CC000DEB72A970FB6F894DEBF0FBECDBF0E94B5
:103CD00084137C0184B7806884BF84B7806884BF04
:103CE00085B7886085BF8BB780688BBF8BE4809376
:103CF0001D0380935203809329038AE580931C035C
:103D000080935103809328038B9A80E0815009F0BF
:103D10006AC08B9878948BE083BF8BEB8CBF82E07A
:103D200089BF1FEF17BB18BB1ABA84B38B7B84BB48
:103D30008F981BBB85B38C6F85BB979A0E941C2301
:103D400019821A821B832AE030E043E050E0BE0172
:103D50006F5F7F4F80E40E94EC2381111EC08CE0D6
:103D600089831A821B832AE030E043E050E0BE01E1
:103D70006F5F7F4F80E40E94EC2381110EC084E1CD
:103D800089831A831B832AE030E043E050E0BE01C0
:103D90006F5F7F4F80E40E94EC23EAE0F2E08AE16B
:103DA00092E0A3E4B2E0119211921D921D928E173F
:103DB0009F07C9F70E948B1D8FE295E70197F1F7E6
:103DC00000C000000E948B1D8091430280FF13C041
:103DD00080E00E94820E6FEF7FEF90E080E00E9413
:103DE0005A250E948F11A895E7EBFBE03197F1F778
:103DF00000C000008BCF0E94A811811102C00E9458
:103E0000B311889A9098899A91988E9A96988C9ADC
:103E1000949882E28FBD89E18EBD8FEF9FEF97BDB1
:103E200086BD0E941D1282E290E00E942925813207
:103E300009F0E8C383E290E00E942925823009F06E
:103E4000E1C384E290E00E942925873109F0DAC3BA
:103E50000E94A811811102C00E94B31182E090E07B
:103E60000E942925809326020E94E80B90931B0252
:103E700080931A0283E090E00E942925682F70E069
:103E800090E080E00E944B070E941D1280911C026E
:103E9000811133C00E94A811811104C00E94B31186
:103EA0000E94461388E090E00E94312560933A0218
:103EB00070933B0280933C0290933D026E7F71F4BD
:103EC0000E94461388E090E00E94312560933A02F8
:103ED00070933B0280933C0290933D020E9426081F
:103EE0001092390280913A0280FF04C060E086950A
:103EF0000E94F41381E080931C0282E790E090938B
:103F00001E0280931D029FEBE4EDF1E09150E04032
:103F1000F040E1F700C0000010E053E0252E312C06
:103F200044244A94512C73E5672E72E0772EECEC12
:103F3000CE2EE5E0DE2E80913703882309F4BDC044
:103F4000109237030E9484137C010E941F09809104
:103F5000E202882309F494C080911C0384FF90C07E
:103F60000E948B1DE7E2F2E0A3E4B2E010E000E083
:103F7000702F8D919D91219131912817390709F466
:103F8000B9C02827392760E0AA24A394B12CA9013D
:103F90004A215B21452B09F4A7C069837A839C01E0
:103FA0002A213B2191E0232B09F490E09B830E947E
:103FB00084138160782F9D838C8349815A816B8122
:103FC0008D810E94FE1C000F111FF801E95DFD4F5D
:103FD00080819181A826B926B182A0828091390280
:103FE000882309F441C080913802E0913A02E695B5
:103FF000E81BE0932102823009F093C0F0E0E65222
:10400000FA4FE4910E2F10E02BE6A22E21E1B22E02
:1040100080912202882389F0109222020E94841348
:10402000980120953095820F931F909320028093E2
:104030001F02109224021092230280911F0290917D
:1040400020020E94B4058017910770F0E0911F02D2
:10405000F09120020E0F1F1F1093200200931F02E9
:104060008FE192E0F50109950E9455079091250294
:10407000891731F00E945507809325020E940E098E
:104080000E94EB0A0E941F098091E202882309F432
:10409000DCC08091510384FFD8C08091D802803267
:1040A00009F0D3C0E091EA02E150E33108F0F4C036
:1040B000F0E0E05FF94D0C94A424C7010E94B40520
:1040C000069718F4112309F440CF0E948B1DE3E4F6
:1040D000F2E081919191892B09F07AC292E0E33567
:1040E000F907B9F711E027CF6F5FAA0CBB1C6F303F
:1040F00009F04DCF0F5F1F4F0830110509F038CF81
:104100008FEF8E838F8318860E9484138160782FAF
:104110009A8789874E815F8168858A850E94FE1C07
:104120005DCF863059F4F0E0E952FA4FE4910E2F5A
:1041300010E09FE7A92E91E1B92E6ACF893061F492
:10414000E695F0E0EC52FA4FE4910E2F10E08CE48B
:10415000A82E8FE0B82E5CCF8F3061F4E695F0E0AA
:10416000EF52FA4FE4910E2F10E0B6E7AB2EBFE00E
:10417000BB2E4ECF853159F4F0E0E253FA4FE49173
:104180000E2F10E0A4EEAA2EAFE0BA2E41CF08E227
:1041900010E07FE3A72E70E1B72E883109F438CF05
:1041A000833241F4F60105911491F2E1AF2EF1E171
:1041B000BF2E2ECF04EF11E068ECA62E60E1B62EE4
:1041C000843209F425CF00ED17E05FEAA52E55E013
:1041D000B52E853209F01CCF8E2F63E00E94622439
:1041E000E92FF0E0E753FA4FE4910E2F10E0E3ECF3
:1041F000AE2EEEE0BE2E0CCF1092EB0289E0809343
:10420000EC021FC08091EB02823009F408C28330B7
:10421000F1F0813009F040C02FB7F89460913F026F
:104220007091400280914102909142022FBF0E9402
:10423000AA246093EC027093ED028093EE029093B7
:10424000EF020E94920A1092D80210E074CEAAEEF9
:10425000B2E0E3E4F2E080819181329612969C9381
:10426000129713968C93139712966E167F0699F7F2
:10427000E8CF8091EB02823079F46091EC0270918A
:10428000ED028091EE029091EF020E94AA2485E255
:1042900090E00E943D25D5CF8FEF8093EA02D1CFE9
:1042A0004091ED026091EC028091EB020E94F60BCE
:1042B0009827892798279093EF028093EE02C1CF29
:1042C000A090EE02B090EF02BA24AB24BA24809101
:1042D000EB020091EC02FEE10F9F8001112420EF20
:1042E000829F000D111D11248091ED0290E0880F36
:1042F000991F080F191F6B2DC80186960E943D2536
:104300006A2DC8018796C5CF0E94180E9ACF80915A
:10431000EB02893061F48091EC0243E0849FC0019C
:104320001124B2010E947C24862F0E940B088091E8
:10433000EB028138D9F068F4803809F082CF20E0B0
:104340004091EC0260913C0280913B020E944D1230
:1043500078CF823879F1833809F073CF20E040912B
:104360003D026091ED028091EC02F0CF60E080911F
:10437000EC020E94F4139091EC0280913A029111A8
:1043800011C08E7F80933A02109239028FEB94ED28
:10439000E1E081509040E040E1F700C000000E9461
:1043A0009A0E4FCF816080933A0260E086950E941A
:1043B000F41347CF8091EC0280933E0242CF80916C
:1043C000EB02893059F08A30C1F0813839F1C0F4FC
:1043D000803809F036CF80913D0211CF80913702AD
:1043E000869586958695FFEF8F9FC0011124B101B8
:1043F0000E947C246093EC0224CF1092EC0221CF27
:104400008238A1F0833809F01CCF80913B02809361
:10441000EC0280913C028093ED0213CF80913A022E
:1044200080FF02C08695EBCE80E0E9CE80913E020F
:10443000E6CE809137020E946D0E60913A02709133
:104440003B0280913C0290913D020E943B12F9CECA
:1044500080E18093EB02F5CE81E08093EB028AE06D
:10446000CECE0091EB021091EC021027012710270D
:104470003AEEA32E32E0B32E8090ED02912CC401CF
:1044800086519D4F4C01C8018A509D4F8A149B0450
:1044900009F4D7CE0A30E1E01E0750F40E94292526
:1044A000F50184830F5F1F4FFFEFAF1ABF0AEBCFF9
:1044B000F5011482F7CF0091EB021091EC02102766
:1044C000012710272AEE822E22E0922EA090ED02E4
:1044D000A00EB12EB11CC8018A509D4FA016B10686
:1044E00009F4AFCE0A3021E0120720F4F401648110
:1044F0000E943D25FFEF8F1A9F0A0F5F1F4FEBCFE2
:104500000E94720E9ECE83E0A4CF0091EB02109128
:10451000EC021027012710279AEEA92E92E0B92E5F
:104520008090ED02912CC40186519D4F4C01C80131
:1045300086968A149B0409F484CE003DE2E01E07AF
:1045400050F40E942925F50184830F5F1F4FFFEF70
:10455000AF1ABF0AECCFF5011482F7CF0091EB023E
:104560001091EC021027012710278AEE882E82E096
:10457000982EA090ED02A00EB12EB11CC801869617
:10458000A016B10609F45DCE003D22E0120720F42A
:10459000F40164810E943D25FFEF8F1A9F0A0F5F8F
:1045A0001F4FECCF80E00E94820E6FEF7FEF90E014
:1045B00080E00E945A2545CE0E94920A2FE749EAE0
:1045C00083E0215040408040E1F700C0000009CC6A
:1045D000F89421B3939A822F8C6081BB92B33CE014
:1045E000932792BBEFE5FAEE40E0E150F040404007
:1045F000E1F700C0000082B3832782BB21BB939800
:10460000789470CD60E085E290E00E943D250E94A4
:10461000180E0E94720E81E00E94820E19CC85E273
:1046200090E00E9429251092EC021092ED02109267
:10463000EE028093EF0205CE11B887E080B985B312
:10464000836085BB86B7846086BF86B7816086BF7E
:1046500086B7806486BF0895EF92FF920F931F93F1
:10466000CF93DF93182FEB0116BE84EA86BF0E941A
:1046700084137C0106B607FE21C081B1887F883093
:1046800021F081B1887F8031B9F513B984E886BF04
:104690000E9484138C0106B607FE23C021B1287F37
:1046A00090E080E02831B1F081E090E0203411F416
:1046B00090E080E09195819591090CC0CF3FDC0797
:1046C000C9F20E9484138E199F098C179D0790F2DE
:1046D0008EEF9FEFDF91CF911F910F91FF90EF90A1
:1046E0000895CF3FDC07B9F20E948413801B910B21
:1046F0008C179D0780F2ECCF8FEF9FEFEBCF0F93DE
:104700001F93CF93DF93EB0183B984E886BF0E94A8
:1047100084138C0106B607FE10C021B1287F81E00A
:1047200090E0283211F490E080E091958195910914
:10473000DF91CF911F910F910895CF3FDC0751F387
:104740000E948413801B910B8C179D0718F38EEF2A
:104750009FEFEECF0F931F93CF93DF93EC0184EC89
:1047600086BF0E9484138C0106B607FE07C083B182
:1047700090E0DF91CF911F910F910895CF3FDC071B
:1047800099F30E948413801B910B8C179D0760F393
:104790008EEF9FEFEECF0F931F93CF93DF93EC013C
:1047A00084E886BF0E9484138C0106B607FE07C00A
:1047B00083B190E0DF91CF911F910F910895CF3F8A
:1047C000DC0799F30E948413801B910B8C179D07C3
:1047D00060F38EEF9FEFEECFCF92DF92EF92FF92DA
:1047E0000F931F93CF93DF936B018A017901B90176
:1047F0000E942C23E6010C0D1D1DC017D10759F492
:1048000024E926BFDF91CF911F910F91FF90EF9088
:10481000DF90CF90089597FDF3CFB70189910E9463
:104820007F23EBCFCF92DF92EF92FF920F931F93F4
:10483000CF93DF93EB018A016901B90181600E9486
:104840002C23F12CE12C01501109E016F106F8F4AB
:1048500097FF10C024E926BF1816190614F490E03B
:1048600080E0DF91CF911F910F91FF90EF90DF904B
:10487000CF900895C6010E94AA2397FD04C0FE01AF
:10488000EE0DFF1D80832FEFE21AF20ADECF97FDB7
:10489000E1CFC6010E94CB2397FDDCCFC00FD11F13
:1048A0008883D8CFDB018F939F930E949C25BF9173
:1048B000AF91A29F800D911DA39F900DB29F900D6F
:1048C00011240895991B79E004C0991F961708F0E8
:1048D000961B881F7A95C9F78095089587FB082E47
:1048E000062687FD819567FD61950E9462240EF47E
:1048F000919507FC81950895AA1BBB1B51E107C048
:10490000AA1FBB1FA617B70710F0A61BB70B881F5F
:10491000991F5A95A9F780959095BC01CD010895EE
:1049200097FB072E16F4009407D077FD09D00E945C
:104930007C2407FC05D03EF4909581959F4F089507
:10494000709561957F4F0895EE0FFF1F0590F491CC
:10495000E02D0994692796276927782787277827E4
:1049600008950E94D125332312F48A1B9B0B0C94CB
:10497000BB240E94D125B7FF0895821B930B089595
:104980008F929F92AF92BF92CF92DF92EF92FF925F
:10499000CF93DF93EC01688179818A819B816115D6
:1049A00071058105910521F464E279ED8BE597E0CD
:1049B0002DE133EF41E050E00E947D2549015A018D
:1049C0009B01AC01A7EAB1E40E949C256B017C012C
:1049D000ACEEB4EFA50194010E94AA25DC01CB0145
:1049E0008C0D9D1DAE1DBF1DB7FF03C00197A10912
:1049F000B04888839983AA83BB839F77DF91CF9147
:104A0000FF90EF90DF90CF90BF90AF909F908F90EE
:104A100008950E94C024089580E690E00E94C0247A
:104A20000895B0E0A0E08093600090936100A093AF
:104A30006200B09363000895FC014150504030F093
:104A400001900616D1F73197CF010895882799274D
:104A50000895E199FECF9FBB8EBBE09A99278DB355
:104A60000895A6E1B0E044E050E00C946F25A8E181
:104A7000B0E042E050E00C946F25262FE199FECF84
:104A80009FBB8EBBE09A01970DB2021631F02DBB91
:104A90000FB6F894E29AE19A0FBE08950396272F75
:104AA0000E943E250E943D25252F0E943E25242F51
:104AB0000C943E250196272F0E943E250C943D25FF
:104AC000262FE199FECF9FBB8EBB2DBB0FB6F8946E
:104AD000E29AE19A0FBE01960895DC01CB01FC0138
:104AE000E199FECF06C0FFBBEEBBE09A31960DB256
:104AF0000D9241505040B8F70895052E97FB1EF4D3
:104B000000940E94942557FD07D00E94AF2507FC12
:104B100003D04EF40C9494255095409530952195F2
:104B20003F4F4F4F5F4F08959095809570956195D9
:104B30007F4F8F4F9F4F08950E94D125A59F900DC5
:104B4000B49F900DA49F800D911D11240895B7FF6F
:104B50000C949C250E949C25821B930B0895A1E236
:104B60001A2EAA1BBB1BFD010DC0AA1FBB1FEE1FE7
:104B7000FF1FA217B307E407F50720F0A21BB30B32
:104B8000E40BF50B661F771F881F991F1A9469F7AE
:104B900060957095809590959B01AC01BD01CF010A
:104BA0000895A29FB001B39FC001A39F700D811D06
:104BB0001124911DB29F700D811D1124911D089526
:104BC000F894FFCF030E030E0C0E0C0E0E0E0C0EFF
:104BD0000C0E0C0E030E030E130E0C0E0C0E130E09
:104BE000F017F01761186118B7182518251825183F
:104BF000D118A719B619B61917173E1745174A172E
:104C00004F17541759175E17631768176D177217E8
:104C100075177A177D1780178317861789178C17D2
:104C2000FC20022139215021602184218721DF21AC
:104C30001922D222DC2228222C2231225B2280223D
:064C400083228522AE2252
:104C46000100000001191A1B1C1D1E1F2021220134
:104C56000201B1051A0BB005E70AE30AFF5A000183
:104C6600020202020606060909090909090F0F0FC1
:104C76000F0F0F15151518191919191919191919C9
:104C8600192324252525252525818283E200E9008F
:104C9600EA00B500B600B700CD008301CC008A015A
:104CA60092019401210223022402250226022702F0
:0A4CB6002A02B300B4006F00700082
:00000001FF
