:100000000C94A2030C94E6030C9401040C94E603F4
:100010000C94E6030C94E6030C94E6030C94E603BC
:100020000C94E6030C94E6030C94E7130C94E6039B
:100030000C94E6030C94E6030C94E6030C94E6039C
:100040000C94E6030C94E6030C94E6030C94E6038C
:100050000C94E6030001010101010101010102020A
:100060000202020202020203030303030303030466
:100070000404040404040505050505060606060631
:10008000070707070708080808090909090A0A0AEB
:100090000B0B0B0C0C0C0D0D0D0E0E0E0F0F0F108D
:1000A0001011111112121313141415151616171717
:1000B000181819191A1A1B1B1C1D1D1E1E1F202083
:1000C000212222232424252626272829292A2B2CCD
:1000D0002D2D2E2F30313232333435363738393AF0
:1000E0003B3C3D3E3F404142434445464748494AE8
:1000F0004C4D4E4F50515354555658595A5B5D5EB6
:100100005F616264656668696B6C6D6F7072737550
:1001100077787A7B7D7E8082838587888A8C8E8FB4
:1001200091939596989A9C9EA0A2A3A5A7A9ABADE2
:10013000AFB1B3B5B7BABCBEC0C2C4C6C9CBCDCFD0
:10014000D1D4D6D8DBDDDFE2E4E7E9EBEEF0F3F57E
:10015000F8FAFDFFFFAA7F55402223252628292AE9
:100160002C2D2F3032333536383A3B3D3E4042431A
:100170004547494A4C4E5051535557595A5C5E6059
:1001800062646668696B6D6F71737577797B7D7F6B
:1001900081838587898A8C8E90929496989A9C9E6A
:1001A0009FA1A3A5A7A8AAACAEAFB1B3B4B6B8B986
:1001B000BBBCBEBFC1C2C3C5C6C7C9CACBCCCDCEEE
:1001C000D0D1D2D2D3D4D5D6D7D7D8D9D9DADADBD1
:1001D000DBDBDCDCDCDCDCDDDDDDDDDCDCDCDCDC5D
:1001E000DBDBDBDADAD9D9D8D7D7D6D5D4D3D2D29C
:1001F000D1D0CECDCCCBCAC9C7C6C5C3C2C1BFBE84
:10020000BCBBB9B8B6B4B3B1AFAEACAAA8A7A5A3EE
:10021000A19F9E9C9A98969492908E8C8A898785AD
:1002200083817F7D7B79777573716F6D6B6968668C
:100230006462605E5C5A5957555351504E4C4A495E
:1002400047454342403E3D3B3A3836353332302F06
:100250002D2C2A29282625232229003A003B003C60
:10026000003D003E003F004000410042004300448A
:1002700000450046004700480035001E001F0020D2
:100280000021002200230024002500260027002D45
:10029000002E004C002A0049002B0014001A000810
:1002A00000150017001C0018000C00120013002F8E
:1002B00000300031004A004B0039410400160007AD
:1002C0000009000A000B000D000E000F003300347F
:1002D00000320028004D004E00E10064001D001BAC
:1002E0000006001900050011001000360037003824
:1002F00000E500210052004C00E000E300E2002C89
:1003000000E20020002C001F002C00E600E7006542
:1003100000E400500051004F00005C0100010001AA
:1003200000010001000100010001000100010001C5
:1003300000010001000100010001000100010001B5
:1003400000010001000100010001000100010001A5
:100350000001000100010001000100010001000195
:10036000000100010001000100010001000100AADC
:1003700000A90001000100010001000100010001CD
:100380000001000100010001000100010001000165
:100390000001000100010001000100010001000155
:1003A000000100010001000100A80001000100019E
:1003B0000001000100010001000100010001000135
:1003C0000001000100010001000100010001000125
:1003D0000001000100010001000100010001000115
:1003E0000001000100010001000100010001000105
:1003F00000010001000100010001000100010001F5
:1004000000010001000100010001000100010001E4
:1004100000010001000100010001000100010001D4
:1004200000010001000100010001000100010001C4
:1004300000010001000100010001000100010001B4
:1004400000010001000100010001000100010001A4
:100450000001000100010001000100010001000194
:100460000001000100010001000100010001000184
:100470000001000100010001000100010001000174
:100480000001000100010001000100010001000164
:100490000001000100010001000100010001000154
:1004A0000001000100010001000100010001000144
:1004B0000001000100010001000100010001000134
:1004C0000001000100010001000100010001000124
:1004D0000001000100010001000100010001000114
:1004E0000001000100010001000100010001000104
:1004F00000010001000100010001000100010001F4
:1005000000010001000100010001000100010001E3
:1005100000010001000100010001000100010001D3
:1005200000010001000100010001000100010001C3
:1005300000010001000100010001000100010001B3
:1005400000010001000100010001000100010001A3
:100550000001000100010001000000000000000097
:10056000000000000000000000000000007E0F00FE
:10057000D4FFFFFFC700000078000000000000006B
:10058000002A2B28000000000000000000000000EE
:100590000000000029000000002C1E34202122242D
:1005A000342627252E362D3738271E1F20212223BB
:1005B0002425263333362E37381F0405060708094D
:1005C0000A0B0C0D0E0F1011121314151617181913
:1005D0001A1B1C1D2F3130232D3504050607080971
:1005E0000A0B0C0D0E0F10111213141516171819F3
:1005F0001A1B1C1D2F3130354C32190A00047F3F65
:100600001F643214643214783C1E1E140A0505015E
:100610000980A101850319012AB700150126B70039
:10062000950175108100C0050C0901A1018504190F
:10063000012AA002150126A002950175108100C0B3
:100640000660FF0961A1010962150026FF009520DF
:10065000750881020963150026FF00952075089131
:1006600002C005010906A101050719E029E71500E7
:10067000250195087501810295017508810305071B
:10068000190029FF150026FF009506750881000551
:1006900008190129059505750191029501750391C8
:1006A00003C00403300000001A034C00650065001D
:1006B0004B00750020004C003300200054004B001C
:1006C0004C0000000C034C00650065004B007500F9
:1006D00000000403090409025B00030100A0FA09F9
:1006E0000400000103010100092101010001224071
:1006F000000705810308000109040100020300004E
:1007000000092101010002222200070584030800DC
:1007100001070504030800010904020001030000A9
:1007200000092101010001223200070583030800AE
:10073000011201100100000008FEFF5141000101FB
:100740000203010011241FBECFE5D8E0DEBFCDBFFC
:1007500004B603FE24C08091CB039091CC03A091FA
:10076000CD03B091CE038730904BA740B04BB9F486
:100770001092CB031092CC031092CD031092CE03B3
:1007800014BE84B7877F84BF0FB6F894A89581B54F
:10079000886181BD11BC0FBEE0E0F8E3099523E05C
:1007A000A8E0B1E001C01D92AB3CB207E1F711E057
:1007B000A0E6B0E0E8EBFDE402C005900D92A830A1
:1007C000B107D9F70E94E71E0C9499260C940000FB
:1007D000A82FB92F80E090E041E050EA609530E02A
:1007E00009C02D9182279795879510F0842795272A
:1007F000305EC8F36F5FA8F30895EADF8D939D9391
:100800000895CF93CFB7CF93C395839BE9F7839B8D
:100810000EC0839B0CC0839B0AC0839B08C0839B34
:1008200006C0C091A503C395C093A503A6C0DF93DE
:10083000C091A403DD27C755DC4F839B02C0DF9125
:10084000E6CF2F930F931F9300B32FEF03FB20F9F5
:100850004F933F9310B34FEF012703FB21F93BE088
:1008600031C04E7F012F10B3216028C0102F4D7F63
:100870002260000000B329C04B7F2460012F0000DC
:1008800010B32BC010B3477F28602AC04F7E00B33F
:1008900020612CC04F7D10B320622FC04F7B00B36E
:1008A000206432C0422700B349934FEF0000102765
:1008B00013FB20F910B31C70C9F1297F91F20127B5
:1008C00003FB21F900B3237F89F2315058F110273F
:1008D00013FB22F910B3277E79F2012703FB23F9DA
:1008E0002F7C81F200B3102713FB24F92F7971F2CA
:1008F00000C010B3012703FB25F92F7359F200C084
:1009000000B3102713FB26F9223040F200C010B3C9
:10091000012703FB27F9243028F64F77206810B30E
:100920000000F9CF10E81ABF00271CC03B503195DA
:10093000C31BD04010E81ABF0881033C11F10B34EF
:1009400001F12091A2031981110F1213EDCF4A81F9
:10095000441F093669F10D3211F0013E29F74F703D
:1009600009F0042F0093A8033F914F911F910F911D
:100970002F91DF91CAB7C7FD47CFCF91CFBFCF919E
:1009800018952091A803222379F31091A60311232F
:1009900009F044C034300AF443C03093A6032093D6
:1009A000A3031091A4033BE0311B3093A40338C090
:1009B0000091A603013094F50AE54F7049F4309197
:1009C000820034FD2FC000938200CFE7D3E02EC019
:1009D000433059F0443091F030918A0334FD22C005
:1009E00000938A03CBE8D3E021C03091BF0334FDEC
:1009F00019C00093BF03C0ECD3E018C03091960338
:100A000034FD10C000939603C7E9D3E00FC02795CB
:100A1000A8F45150A9F4220F0000F9CF4AE503C011
:100A200042ED01C0432FC4E1D0E032E011B31C60BD
:100A3000939A11BB02B320E41CE05F93012756E0B8
:100A400002BB279520F4515021F4220FF9CF012742
:100A500056E000003B5A02BBD0F2279528F45150D3
:100A600029F4220F0000F9CF012756E0279502BB99
:100A700020F4515021F4220FF9CF012756E029919B
:100A8000332302BB21F6037F1091A703110FC65138
:100A9000D04002BB11F01093A20310E81ABF086007
:100AA00011B3137F402F437F5F9100C000C002BB92
:100AB00011BB42BB59CFFC018381833089F130F4F3
:100AC0008130F1F0823021F180E00895813209F423
:100AD0004BC08232C9F7248135812130310509F4B8
:100AE00061C02115310509F455C02230310561F787
:100AF0008EE096E090935A038093590382E3089521
:100B000081E397E090935A038093590382E108951B
:100B100086ED96E090935A03809359038BE50895F0
:100B20008281813089F0882339F08230A9F08330C6
:100B300059F682EA96E002C082ED96E090935A035D
:100B40008093590384E0089584EC96E090935A03CF
:100B5000809359038CE0089588EA96E090935A03B5
:100B6000809359038AE108958281813081F088233E
:100B700031F0823009F0A8CF81E297E002C088EE20
:100B800096E090935A038093590389E0089581E099
:100B900097E0F7CF82E696E090935A03809359034B
:100BA00080E4089520E436E030935A0320935903FB
:100BB0000895089508958091540308959C014FB7B6
:100BC000F8948091B4029091B502A091B602B091D0
:100BD000B7024FBF821B930B08958091360281119B
:100BE0001092360208958091350290913402892B3B
:100BF00090913302892B80930801909136029923BA
:100C000091F0892B8093080120E08AE091E0FC01BB
:100C10003191CF0131112F5FF1E080319F07B9F79A
:100C200021110E94ED05E0918702F0918802309732
:100C300031F00280F381E02D88E091E0099408957D
:100C4000EAE0F1E09191891303C0DF0111971C9252
:100C500091E0E031F907B1F70895AAE0B1E0EFEFD4
:100C600090E02D91821751F0EF3F19F4211101C04E
:100C7000E92F9F5F9630A9F7EF3F09F408950E2EF4
:100C8000000CFF0BE85FFE4F828308959295907FE2
:100C9000890F982F977086958695869525E0829F77
:100CA000F0011124EA50FE4F50E040E080E0219135
:100CB00030E0092E02C0369527950A94E2F721709C
:100CC0003327042E01C0220F0A94EAF7822B4F5FCC
:100CD0005F4F4530510559F708959295907F890FE0
:100CE000982F977041E001C0440F9A95EAF78695D6
:100CF0008695869595E0899FF0011124EA50FE4F74
:100D000030E020E070E05191DF011197CB01022E1D
:100D100002C0969587950A94E2F7817081958527A0
:100D2000842385278C932F5F3F4F2530310559F75A
:100D300008958091F5019091C401981301C0089520
:100D40008F5F8770FACF882341F0809590913502AC
:100D50008923809335020C94F3050895882339F094
:100D600090913502982B909335020C94F3050895D9
:100D70002091BA013091BB012817390771F0909387
:100D8000BB018093BA01E0918702F091880230970D
:100D900021F00084F185E02D099408952091B80197
:100DA0003091B9012817390771F09093B9018093F8
:100DB000B801E0918702F0918802309721F0068017
:100DC000F781E02D099408951092340210923302B5
:100DD0000E94F30590E080E00E94CE0690E080E063
:100DE0000C94B80660937B0370937C0380937D031F
:100DF00090937E030C94E4060F931F9360917B0302
:100E000070917C0380917D0390917E038B019C0106
:100E100006701127222733270630110521053105D9
:100E200029F468601F910F910C94F206677FFACF46
:100E30000F931F9341E050E060E070E004C0440F66
:100E4000551F661F771F8A95D2F7CB01BA016095AF
:100E500070958095909500917B0310917C03209173
:100E60007D0330917E0360237123822393231F919E
:100E70000F910C94F2069091320280958923809311
:100E80003202282F277071F4282F082E000C330B04
:100E90009217130639F08595859585950E94180758
:100EA0001092320208950F931F9341E050E060E0EA
:100EB00070E004C0440F551F661F771F8A95D2F754
:100EC00080917B0390917C03A0917D03B0917E0380
:100ED0008A019B01082B192B2A2B3B2BC901B80136
:100EE0001F910F910C94F2066093370270933802B1
:100EF0008093390290933A020C94E406E0918702C1
:100F0000F0918802309721F00190F081E02D099452
:100F100080E00895882309F452C0823871F40E9459
:100F20007E0781FF4CC089E30E942D060E94F305D5
:100F300089E30E9420060C94F305833859F40E943B
:100F40007E0780FF3CC083E50E942D060E94F305CA
:100F500083E5EFCF843859F40E947E0782FF2FC0CB
:100F600087E40E942D060E94F30587E4E2CF9CEF00
:100F7000980F913AF0F290E2980F983088F48770C9
:100F800021E030E0A90102C0440F551F8A95E2F725
:100F9000CA01809590913502892380933502CBCF89
:100FA0009BE5980F933020F490E080E00C94CE06FF
:100FB000885A873120F490E080E00C94B8060895B8
:100FC000FA01811101C0FB0109948091AF02982FB1
:100FD0009E7F61F4817082608093AF028091B20243
:100FE000893C18F088EC8093B20208958635B0F3FE
:100FF00081708465F1CFAF92BF92DF92EF92FF9242
:101000000F931F93CF93DF93182F062FE901493CCD
:1010100008F048ECE42FF0E0EC5AFF4F011110C04B
:10102000E4915E2F4E2F4983E8835A83DF91CF915D
:101030001F910F91FF90EF90DF90BF90AF900895B8
:10104000202F30E04491D42EE42EF12C56E0159F51
:10105000C0011124EFEFF0E0BF010E942C25812F89
:1010600090E0880F991F55E5569FD001579FB00D0E
:1010700011248A1B9B0B982F990F890F5F01A21ACD
:10108000B30AAE9CD001AF9CB00DBE9CB00D112434
:101090005B2F089F80011124012F11275F01A01AE7
:1010A000B10AAE9C8001AF9C100DBE9C100D1124A6
:1010B0005F01A81AB108A29EC001A39E900DB29E26
:1010C000900D1124892F9927E81BF90BEE9DC00183
:1010D000EF9D900DFE9D900D1124E92F623071055A
:1010E000A1F050F46115710509F49DCF61307105CF
:1010F00081F0EB2F512F97CF6430710569F080F0AC
:101100006630710509F48FCFF4CFE42F4B2F592FA0
:101110008ACFE42F412F87CFEB2F542F492F83CF36
:101120004B2F5D2DE12F7FCF9091950292FF06C04E
:10113000282F28712830F9F4877F846093FF06C038
:10114000282F28712831F1F4877E8461209196023E
:1011500020FF06C0382F38713830D9F4877F81607E
:1011600021FF06C0282F28712831D1F4877E8161A4
:1011700094FD877E0895282F24712430F9F68B7F03
:101180008860DCCF282F2471243101F78B7E8861A1
:10119000DDCF382F3171313019F78E7F8860E0CF85
:1011A000282F2171213121F78E7E8861E1CFCF93E5
:1011B000DF938091A603835087FD14C09091A40310
:1011C000CCE0D0E0C91BD109C755DC4F9091A303F7
:1011D000903108F06BC0883009F453C01092490375
:1011E0001092A6038091820084FF3EC0809181000E
:1011F0008F3FD1F1C82F893008F0C8E0982F9C1B91
:101200009093810090917F0328E8922790937F0329
:101210008823E9F08091590390915A032091580353
:1012200026FF06C1FC012C2FA0E8B3E034913D93CA
:1012300031962150D9F79C012F5F3F4F8FEF8C0FD4
:10124000820F932F911D90935A03809359036C2F13
:1012500080E893E00E94FD03CC5FCC3019F08FEF63
:1012600080938100C093820084E190B39C7031F43C
:101270008150D9F71092A7031092A203DF91CF916A
:10128000089580914903893108F0A8CFE82FF0E054
:10129000E55AFC4F9E01285F3F4F999191932C177F
:1012A0003D07D9F7885F809349039ACF9D3209F0B3
:1012B000A3C0883009F094CF83EC80937F038AE544
:1012C00080938200109258038881807609F447C089
:1012D000803229F58981813099F48C819D81892B17
:1012E000F1F48BE493E090935A038093590388E0E0
:1012F0009F81911131C09E81981770F5892F2CC064
:10130000823041F48AE493E090935A038093590326
:1013100081E0EECF8A3029F48B8180934A0380E00C
:10132000E7CF8930E1F78A819B818115924069F48A
:101330008C819D81892B49F481E0809357038E81B4
:101340009F819093560380935503888187FF52C0F5
:101350008E8190E8909358038093810041CF2A8139
:1013600010928803998191110AC01092890328E88C
:1013700033E082E030935A0320935903B9CF95307C
:1013800029F42093A70328E833E0F4CF9630C1F482
:101390009B81913049F4CE010E945B0590E49093CB
:1013A00058038F3F91F2A4CF9230A9F3933099F371
:1013B000913289F3923279F390E49093580398CF65
:1013C000983089F0993019F420935303DCCF9A3088
:1013D00071F09B30C1F69BE490938B039093C00314
:1013E00090939703D0CF23E533E081E0C3CF28E883
:1013F00033E0FBCF8FEFADCF8091580387FFF0CE66
:101400008091550390915603892B71F08091570379
:10141000813051F4888180935403109256031092C6
:10142000550310928100DCCE8EE180938200D8CEED
:10143000DC012C2FE0E8F3E03D9131932150E1F7FE
:10144000FACE1F93CF93DF93E82F792F162FEA015F
:10145000888184FF1CC0298188E828272983CE0140
:101460000296DC012E2F372F512F5E0FF9012191AB
:101470002D939F01452F4E1B1416C4F3612F0E941C
:10148000FD031C5F1883DF91CF911F9108958AE5BA
:101490008883E5CFCF93DF93CBE5D3E080919603AC
:1014A00084FF18C046E953E068E0CE010E94210A9B
:1014B000289683E0CB37D80789F78091960384FF7D
:1014C0000CC046E953E060E090E080E0DF91CF910E
:1014D0000C94210A0E94D708E1CF0E94D708EDCFD3
:1014E000CF93DF9300D00F92CDB7DEB79091480332
:1014F000981307C0209146033091470326173707FA
:10150000A1F0809348037093470360934603898357
:101510007B836A838091BF0384FF07C04FEB53E056
:1015200063E0CE0101960E94210A0F900F900F9068
:10153000DF91CF910895BC0184E00C94700ABC0146
:1015400083E00C94700ACF93DF93CAE0D0E08091DF
:101550008A0384FF1CC0809144039091450398172F
:1015600099F028E0829FC00111244AE853E068E026
:101570008C539D4F0E94210A8091440390E0019674
:101580008F70992780934403DF91CF9108950E9433
:10159000D70887EB9BE00197F1F700C00000219787
:1015A000B1F6F2CFCF93DF93EC01A0914503B0E009
:1015B000CD0101968F70992720914403281779F067
:1015C00093E0AA0FBB1F9A95E1F7AC53BD4F98E08B
:1015D000FE0101900D929A95E1F7809345030E94D8
:1015E000D7080E94A30A88E0FE01ABE4B3E00190B3
:1015F0000D928A95E1F7DF91CF910895CF93C82F8F
:10160000882309F488C08238C1F40E947E0781FDD6
:1016100082C089E30E942D060E94F3052FE789EA24
:1016200093E0215080409040E1F700C0000089E342
:101630000E942006CF910C94F3058338A1F40E94F8
:101640007E0780FD68C083E50E942D060E94F30599
:101650002FE789EA93E0215080409040E1F700C0F5
:10166000000083E5E5CF8438A1F40E947E0782FD67
:1016700052C087E40E942D060E94F3052FE789EAF5
:1016800093E0215080409040E1F700C0000087E4E3
:10169000CFCF8CEF8C0F813A68F4EAE0F1E08191D2
:1016A000C81799F121E0E031F207C9F78C2F0E94A9
:1016B0002D06C0CF80E28C0F883068F4C77021E01F
:1016C00030E001C0220FCA95EAF780913502822BE3
:1016D00080933502AFCFEBE5EC0FE33040F4F0E060
:1016E000EF53FF4F808190E0CF910C94CE06C85A03
:1016F000C73188F4EC2FF0E0EE0FFF1FEC53FF4FE3
:1017000080819181CF910C94B8068C2F0E94200685
:101710000E94F305CBCFCF910895CF93C82F0E949D
:10172000FE0AC93349F42FEF8DEE92E0215080403C
:101730009040E1F700C000008C2FCF910C948A07F5
:10174000CF9384E090E00E94E225C82F81E290E0F0
:101750000E94E225982F8C2FCF9108950F931F930D
:10176000CF93DF9320E2629FE001112450E0440F09
:10177000551FC40FD51F30EC839FC00DD11D112400
:10178000CE0186960E94E225082F10E0102F002738
:10179000CE0187960E94E2259801282BC901DF918E
:1017A000CF911F910F910895462F843038F47630F1
:1017B00028F4603118F4672F0C94AE0B90E080E0B1
:1017C0000895CF93DF930E94D40BEC0182389105EA
:1017D000A9F1D8F58133910509F496C048F589320D
:1017E000910509F48AC08A9709F495C0C11522E5CC
:1017F000D20708F0B6C0C11531E5D30708F026C1FD
:10180000C83ED10508F09CC0C03ED10560F5C83A7D
:10181000D10508F087C0C53AD10508F0EFC0C13046
:10182000D10509F12097F9F0C430D105E0F440C0AA
:101830008533910509F45AC0C997C1F68091950284
:10184000837089F0C0EED0E00EC0833E910599F11F
:1018500070F4803E910501F1823E910539F6809148
:10186000950282FD21C0CE01DF91CF910895863E81
:10187000910561F1873E910571F1843E910509F072
:10188000B5CF8091960281FFEECF80919502C7EE91
:10189000D0E084FD0DC0E7CF8091950280FD07C1A7
:1018A0009091960290FFDFCFC3EED0E084FFDBCFB4
:1018B000D0E0C0E0D8CF8091950282FDFBC090912E
:1018C000960290FDBFCF84FFCECFF2CF80919502DC
:1018D00083FDDDCFC8CF8091950283FDEEC090914E
:1018E000960291FFF0CFC4EED0E0BDCF809195027B
:1018F00085FFB9CFC9E2D0E0B6CF8091950285FFD0
:10190000B2CFC5E3D0E0AFCF8091950286FFABCFD9
:10191000CAE2D0E0A8CF8091950286FFA4CFC1E3B0
:10192000D0E0A1CFCF3BD10518F6C85AD0E0CC0FFC
:10193000DD1FCC53DF4F0990D881C02DD46493CFE5
:10194000C11540E5D40708F064C0C11580E4D8078C
:1019500008F05CC0CE019A9581159F4108F483CFB1
:10196000A7CFC11536E5D30718F5C11545E5D4074E
:1019700008F084C0C11584E5D80708F07AC09C2F10
:10198000969596959E0123703327C115D34508F48B
:1019900062C0C1E0D0E002C0CC0FDD1F2A95E2F7A3
:1019A00030E2939FC0011124C82BD92BDA685BCF9A
:1019B000C1158AE5D80778F4C11599E5D90708F06B
:1019C00068C0C11528E5D20708F472CFDC2FCC27F8
:1019D000C06FD06A48CFCE0190568115904208F072
:1019E00067CF8D2F8F710E94940890E0982F8827E1
:1019F00088279F719C012C2BE90149C0C55AD0E072
:101A0000CF53DF4FC881D0E0D0642DCFDF70D06AD4
:101A10002ACFCE01E4E096958795EA95E1F78370A9
:101A20002C2F26952695237040E2249F90011124A7
:101A3000382B8C2F8370C1E0D0E002C0CC0FDD1FAB
:101A40008A95E2F7C22BD32BDC680DCFDC2FCC2795
:101A5000C16FD06A08CFC1E0D0E002C0CC0FDD1F5B
:101A60002A95E2F720E2929FC0011124C82BD92BBE
:101A7000EBCFDC2FCC27C46FD06AF5CE8C2F0E9421
:101A80009408C82FD0E0DC2FCC27CC27DF71D062A0
:101A9000EACE8C2F8F700E94940834E0D695C795BB
:101AA0003A95E1F7CF709C2FEC01D069DCCEC9E309
:101AB000D0E0D9CEC2EED0E0D6CEC6EED0E0D3CEC6
:101AC000BF92CF92DF92EF92FF920F931F93CF932B
:101AD000DF938C01C0907B03D0907C03E0907D036A
:101AE000F0907E038091370290913802A0913902E4
:101AF000B0913A02C82AD92AEA2AFB2ACFE1D0E0DB
:101B0000BC2ED701C6010C2E04C0B695A79597959B
:101B100087950A94D2F780FD0EC0219788F7B12CE3
:101B20008B2DDF91CF911F910F91FF90EF90DF9060
:101B3000CF90BF900895B8018C2F0E94E10B0197C0
:101B400061F3EECFCF93DF93EC010E94600DBE01F5
:101B5000DF91CF910C94E10B0E94A20D292F2F70E1
:101B600092959F7092509E3078F4E92FF0E0E55600
:101B7000F94D0C945425803F19F020F4883E20F450
:101B800081E00895843FE1F380E00895883EC0F34A
:101B9000813FD1F7F5CF822F86958695869508955A
:101BA0006F927F928F929F92AF92BF92CF92DF926D
:101BB000EF92FF920F931F93CF93DF9389E5C82E87
:101BC00082E0D82E06E011E0E801C05CD1093601C0
:101BD0001CC0F50185909490692DC7010E94F625DF
:101BE000682DC70101960E94F62582E0A80EB11C5F
:101BF00082E0E80EF11CCE15DF0559F780E2680E91
:101C0000711CA0960C171D0731F07E0180E2E81AC6
:101C1000F1085301DECF00541F4F80ECC80ED11CD9
:101C2000063084E0180781F6DF91CF911F910F9164
:101C3000FF90EF90DF90CF90BF90AF909F908F90EC
:101C40007F906F900895682F86E090E00C94F625C1
:101C5000CF93DF93C6E2D3E060E0CE010E94F62589
:101C60002196C11584E0D807B9F7DF91CF91089587
:101C7000CF93C82F6FEF811161E282E290E00E9462
:101C8000F6256FEFC11162E083E290E00E94F62535
:101C90006FEFC11166E184E290E0CF910C94F625DC
:101CA00093E090933B0290933C02982F917080FDBB
:101CB00094E081FD926082FD916090933D0224E664
:101CC00030E043E050E06BE372E080EB0E94EC24F4
:101CD000892B81F087E99AE30197F1F700C00000B2
:101CE00040913C0250E024E630E06BE372E080EB90
:101CF0000E94EC2481E0089598E290933B0294E0E6
:101D000090933C029FEF90933D0280933E0224E625
:101D100030E044E050E06BE372E080EB0E94EC24A2
:101D2000892B81F087E99AE30197F1F700C0000061
:101D300040913C0250E024E630E06BE372E080EB3F
:101D40000C94EC240895282F220F220F220F90913B
:101D5000AC029770922B9093AC02987F21E009F42B
:101D600020E09091AC0220FB90F99093AC020C948F
:101D70007C0E60E081E090E00E94192687E090EB05
:101D8000DC018093CB039093CC03A093CD03B0935D
:101D9000CE0388E19CE00FB6F894A89581BD0FBEF4
:101DA00091BDFFCF90E080E00E94F02521E08C3EC5
:101DB0009E4F09F020E0822F08956CEE7EEF90E0B8
:101DC00080E00E94132660E082E090E00E94F62509
:101DD00060E083E090E00E94F625109237021092B6
:101DE00038021092390210923A0260E084E090E0EA
:101DF0000E94F62560E081E290E00E94F62560E016
:101E000085E090E00E94F62560E086E090E00E9488
:101E1000F6256FEF87E090E00E94F62540E050E065
:101E2000BA0188E090E00E94072660E08DE090E033
:101E30000E94F62540E050E0BA0188E190E00E945F
:101E4000072660E087E190E00E94F62540E050E040
:101E5000BA018CE190E00E94072660E080E290E009
:101E60000E94F62540E050E0BA018FE090E00E9429
:101E7000072640E050E0BA0183E190E00C94072689
:101E8000CF92DF92EF92FF926B017C010E94E507F7
:101E9000B701A60188E090E0FF90EF90DF90CF902F
:101EA0000C9407268091B302882319F08150809307
:101EB000B3026091AF027091B0028091B102909133
:101EC000B2020C94400F8091B302833018F48F5FFC
:101ED0008093B3026091AF027091B0028091B10221
:101EE0009091B2020C94400FEFEAF2E083E080831D
:101EF00011828FEF828388EC8383148260817181E9
:101F0000828193810C94400F10923502EAE0F1E057
:101F100086E0DF011D928A95E9F70C94E406409172
:101F200073008091AF0280FF22C06091720087E150
:101F300080933B0280E480933C0240933D02609397
:101F40003E0283E0489FA0011124689FB001112444
:101F50006A5E7E4F8FE392E00E94D92524E630E04E
:101F600040E450E06BE372E080EB0C94EC24809151
:101F700074009091750023E0829FF0011124EA5EC5
:101F8000FE4F891790F61182108212828F5F33966E
:101F9000F8CF8F929F92AF92BF92CF92DF92EF9243
:101FA000FF920F931F93CF93DF93FC01B280948035
:101FB00081E0848300E015E05BE4A52E882483940F
:101FC000EE24EA94F12C7BE4C72ED12C809176008C
:101FD000081770F0DF91CF911F910F91FF90EF9054
:101FE000DF90CF90BF90AF909F908F900C948F0F09
:101FF000C02FD0E01C9FF0011D9FF00D1124EE5A60
:10200000FE4F91101CC01382128220917400CE01E9
:10201000820F911D9C01220F331F280F391F2A5E4A
:102020003E4F1C9FF0011D9FF00D1124EE5AFE4FF4
:102030004281618180810E94FB070F5FC7CF2381AE
:10204000222379F12150238334818A2D821B31117F
:1020500001C0822F1C9FF0011D9FF00D1124EE5A2C
:10206000FE4F9091B202899FC0011124B6010E94D7
:102070002C256283211104C0332311F01482A38222
:1020800022E02B1510F21C9FF0011D9FF00D112472
:10209000EE5AFE4F8091B00280838091B10281831D
:1020A000B4CF0E94BC25823091400CF0AECF82E0CC
:1020B0008B1530F50E94BC25B7010E9440251C9F5E
:1020C000F0011D9FF00D1124EE5AFE4F808322E097
:1020D0002B15C8F40E94BC252091B1022695622FD1
:1020E00070E00E944025280F1C9FF0011D9FF00DFD
:1020F0001124EE5AFE4F21831282A382848285CF5F
:102100008091B002DCCF2091B102EECFEF92FF922E
:102110001F93CF93DF93EC0110E0EE24EA94F12CAF
:1021200060917600161770F00E948F0F9A818C8153
:1021300090FF27C08F5F8C83DF91CF911F91FF901D
:10214000EF90089520917400422F410F5527551F9D
:10215000CA019A01220F331F280F391F2A5E3E4FF2
:1021600070E0C7010E944025962F8C814091B202F9
:102170006091B102199F800D11240E94FB071F5F1F
:10218000CFCF8150D8CF9F92AF92BF92CF92DF92A4
:10219000EF92FF920F931F93CF93DF93FC01828105
:1021A0000FEF80FF01E010E044E1942EA090760054
:1021B0001A15D0F00E948F0F80911301013009F0A1
:1021C00054C0811102C08091760081508093130128
:1021D000DF91CF911F910F91FF90EF90DF90CF9003
:1021E000BF90AF909F900895C0917400C12ED12CE4
:1021F000CC0DDD2DD11DCE01880F991FC80FD91F21
:10220000CA5EDE4F198218821A8234E0E32EF12C66
:10221000B12C809113018B0D85311CF1692D0E9429
:102220001E25892F082E000C990BC816D90691F48B
:102230008091B2028E9DA0018F9D500D1124559565
:102240004795559547959E016091B1028091B002E6
:102250000E94FB07B00EF1E0EF1AF108D1F61F5F04
:10226000A5CF87FFDFCF8A0DDDCF90E0019660918B
:10227000760070E00E944025A9CF0F931F93CF9363
:10228000DF93809174009091750023E0829FF001AC
:102290001124EA5EFE4F891740F1C0E0D3E060915F
:1022A0007600C61740F10E948F0F20916F00809139
:1022B0001401820F8093140190917000920F9093FB
:1022C0007000191654F4082E000C990B40917600FA
:1022D0004150550B841795071CF0219520936F00F2
:1022E000DF91CF911F910F91089511821082128278
:1022F0008F5F3396D0CF0C2F10E070E0C8010E94A2
:10230000402520917400820F482F50E02091140145
:10231000022E000C330B02171307BCF02091700043
:10232000022E000C330B201731077CF08D9F90019B
:1023300011242A5E3E4F4091B2026091B102809119
:10234000B0020E94FB07CF5FAACFFA01EE0FFF1F7A
:10235000E40FF51FEA5EFE4F118210821282F3CF66
:102360008F929F92AF92BF92CF92DF92EF92FF92A5
:102370000F931F93CF93DF93EC014C81042F10E058
:102380009801D8010E948A269B01AC010E94552623
:102390004B015C01E0E2F0E0E01BF10BA5E5B0E0F1
:1023A000AC019B010E9455266B017C019F01DF015E
:1023B0000E9461259B01AC010E9460269B01AC013B
:1023C000280D391D4A1D5B1DC701B6010E946826F4
:1023D000F22E822F90E039E23F1560F143E0249F16
:1023E0009001112435952795122F109500E085E571
:1023F000E82EEF1880917600081758F10E948F0F91
:102400009C8181E0992319F0903219F48FEF809329
:10241000710080917100890F8C83DF91CF911F91A2
:102420000F91FF90EF90DF90CF90BF90AF909F9073
:102430008F90089525E530E0B901681B790B9B0169
:10244000220F331F260F371F37FFCCCF2F5F3F4F91
:10245000C9CF8E2D01FD8F2D20917400622F600F4A
:102460007727771F9B01220F331F260F371F2A5E06
:102470003E4F412F6091B1020E94FB070F5FBACF20
:102480000F931F93CF93DF93EC0110E000E0909146
:1024900076009017110609F06CF40E948F0F8C8162
:1024A00090E00196817099278C83DF91CF911F91E5
:1024B0000F91089520917400A801420F511D9A01B7
:1024C000220F331F240F351F2A5E3E4F4C8160912F
:1024D000B1028091B00296959017110651F04CF020
:1024E000442349F04091B2020E94FB070F5F1F4F47
:1024F000CECF4423B9F340E0F7CF9091AF0290FFE5
:1025000014C0909174002091750033E0939FF00106
:102510001124EA5EFE4F921710F00C948F0F818306
:10252000608342839F5F3396F6CF08950F931F9386
:10253000CF93DF9300D00F92CDB7DEB78C0180919F
:10254000150181110AC09E012F5F3F4F48EC6FEFCC
:102550000E94FB078A8180931501F8016481613034
:1025600069F08091150140E0662361F040E062303F
:1025700011F44091150180E060E004C06091150104
:1025800040E080E00E947D12F801848190E0019695
:1025900063E070E00E94402584830F900F900F90BD
:1025A000DF91CF911F910F910895CF93DF9300D0CA
:1025B0000F92CDB7DEB79091AF0290FF0AC09E0197
:1025C0002F5F3F4F0E94FB074B8169818A810E94E8
:1025D0007D120F900F900F90DF91CF910895CF93C0
:1025E000DF93EC01EC81F0E0E75AFE4F4491EFEA13
:1025F000F2E0628181810E94D5128C818F5F8C8391
:10260000DF91CF910895CF93DF93EC01EFEAF2E0F1
:10261000438162818C810E94D5128C818F5F8C8373
:10262000DF91CF910895AF92BF92CF92DF92EF9258
:10263000FF920F931F93CF93DF9300D00F92CDB7EC
:10264000DEB7182FF62E042FE22E9091AF0290FFE6
:1026500029C0E92FE695AE2FB0E0AA56BF4F8C9166
:102660008093AD029E7F923059F59E012F5F3F4FC0
:10267000812F0E94FB074B8169818A810E947D1214
:102680001093B002F092B1020093B202EE2051F02A
:102690006091AF027091B0028091B1029091B2024C
:1026A0000E94400F0F900F900F90DF91CF911F91DC
:1026B0000F91FF90EF90DF90CF90BF90AF90089573
:1026C000823019F40091B202DBCF863019F41091F8
:1026D000B002D6CF8930D9F3893191F6E9518E2FE6
:1026E0008170D82EE695F0E0EC5AFE4FA590B4909C
:1026F000C12CBB2460917600C61618F00E948F0F83
:10270000BFCF2C2D30E0A29EC001A39E900DB29EA3
:10271000900D112470E00E942C25812FD11013C040
:10272000860F40917400420F532F511D9A01220FC2
:10273000331F240F351F2A5E3E4F402F6F2D0E94FE
:10274000FB07C394D7CF861BECCFEFEAF2E04381BF
:1027500021E1421B08F440E021E0628181810C9478
:102760001313EFEAF2E0438121E1420F08F44FEF47
:1027700021E0628181810C941313EFEAF2E062811F
:1027800021E1621B08F460E021E0438181810C9427
:102790001313EFEAF2E0628121E1620F08F46FEFB8
:1027A00021E0438181810C941313EFEAF2E08181EF
:1027B00021E0438162818A500C941313EFEAF2E026
:1027C000818121E043816281865F0C9413137894A8
:1027D0001F921FB61F9211248F939F93AF93BF93A5
:1027E0008091B4029091B502A091B602B091B70267
:1027F0000196A11DB11D8093B4029093B502A093E0
:10280000B602B093B702BF91AF919F918F911F9085
:102810001FBE1F9018952FB7F8948091B402909125
:10282000B502A091B602B091B7022FBF08950F93E1
:102830001F93CF93DF93C42FD22FFC018281882373
:10284000A1F04093BC010E940B149093B7018093B8
:10285000B601C77081E001C0880FCA95EAF7DF9121
:10286000CF911F910F910C94AE061091BC011413DF
:1028700035C08091B6019091B7010E94DE05883C79
:10288000910560F5C0E2CD0F1D17B9F080E2810F10
:10289000883040F4177081E001C0880F1A95EAF77C
:1028A0000E94A306C83048F481E09D2F977001C0B4
:1028B000880F9A95EAF70E94AE06802F0E948D0B32
:1028C000C83098F4D77081E001C0880FDA95EAF734
:1028D000DF91CF911F910F910C94A306C77081E0F7
:1028E00001C0880FCA95EAF7F3CFDF91CF911F910E
:1028F0000F9108959091AF0290FF3DC091708111AA
:1029000029C092609093AF02662351F06091AF02AC
:102910007091B0028091B1029091B2020E94400F7A
:102920006091AF02669570E04BE050E084E690E085
:102930000E94CC25892BA9F01092AE0281E08093F1
:102940009B0220E04091B2026091B1028091B002FE
:102950000C9413138B3210F09465D4CF880F982BFE
:10296000D1CF81E08093AE020E940B149093990224
:1029700080939802E3CF08958091AF0286958150AD
:1029800009F48AE261E00C947A148091AF02869592
:102990008F5F8B3208F081E061E00C947A149091A3
:1029A000AF0290FF07C09695981720F0961710F485
:1029B0000C94C51461E00C947A144F925F926F925C
:1029C0007F928F929F92AF92BF92CF92DF92EF92BF
:1029D000FF920F931F93CF93DF9300D000D00F92FD
:1029E000CDB7DEB77C01FC0183819481892B31F066
:1029F0008081918189238F3F09F067C60F900F90E6
:102A00000F900F900F90DF91CF911F910F91FF903A
:102A1000EF90DF90CF90BF90AF909F908F907F907E
:102A20006F905F904F9008950E94600D182F682F4F
:102A300089819A810E946D0669817A81812F0E9425
:102A4000D40B8C01F7019281992309F417C69801E0
:102A500022513F452031310508F095C58FEF93E0B5
:102A60000E94E225025156E2852E53E0952E8823DE
:102A700079F180913202877009F4C0CFF701828129
:102A8000882309F4BBCF82E00F900F900F900F9036
:102A90000F90DF91CF911F910F91FF90EF90DF90FA
:102AA000CF90BF90AF909F908F907F906F905F90EE
:102AB0004F900C943B078114F4E09F06D1F2C401BF
:102AC0000E94E225811101C001502FEF821A920A63
:102AD0000111F1CF1C821B82662463944AE0542EBC
:102AE00084010F5F1F4FC4010E94E22589831A826F
:102AF000882309F4BECF9FEF980F933008F58A839F
:102B0000698232E0830E911CC8010E94E2258B830A
:102B1000882309F4AECF8E010F5F1F4FF80120818B
:102B20002223F1F2213009F043C09181828191305A
:102B300049F40E5F1F4F0E948D0B0F5F1F4FEECFAA
:102B40004801E9CF923029F40E5F1F4F0E94FE0A20
:102B5000F4CF933029F40E5F1F4F0E948A07EDCF08
:102B6000943019F00F5F1F4FE8CF0E5F1F4F30E01A
:102B700020E0B8016F5F7F4FF80141818053990BCE
:102B80008A30910550F021503109B8F287EB9BE073
:102B90000197F1F700C00000F6CF529EF001539E5E
:102BA000F00D11249C012E0F3F1F842F8B01E1CFCC
:102BB000E22FF0E0E758FA4F7490822F86958695C1
:102BC000869590E0FC01E759FA4FA4902770B12C4C
:102BD000022E02C0B594A7940A94E2F7E1E0AE2277
:102BE000BB24FC01E75AFA4FC490D12C02C0D59403
:102BF000C7942A95E2F7F1E0CF22DD24A114B104B5
:102C000019F081EE0E94FE0AC114D10419F086EE7B
:102C10000E94FE0A872D0E948D0BCD2819F086EEAA
:102C20000E948A07AB2809F488CF81EE96CF81E015
:102C30000E9453070E94FC061CCF81E00E941807E7
:102C4000F9CF82E0F5CF82E0F9CF0F3BFCE51F071B
:102C500009F442C098F1003C3CE5130709F0AFC409
:102C60009091AC02892F8695869586958F5F8F719E
:102C70009770823008F051C0880F880F880F892B19
:102C80008093AC028091AC0210C081E00E94A30E40
:102C90008091AC020E94230EECCE8091AC02982F62
:102CA000987FA9F188508093AC02887F91E009F465
:102CB00090E08091AC0290FB80F90BC08091AC0257
:102CC000982F987F19F4885F8093AC028091AC02B2
:102CD00081608093AC0219C08091AC0280FF09C072
:102CE0008E7F8093AC020E94230E80E00E947C0EB7
:102CF000C0CE80FDBECE81608093AC02813019F4DD
:102D000089E08093AC028091AC020E94230E8091F6
:102D1000AC02869586958695E9CF9093AC02B2CFAA
:102D200007E225EE45EE68ED7CE5CBC406E221EE38
:102D300040EE63EF7CE5C5C407E225EE44EE64EFA8
:102D40007CE5BFC406E221EE42EE65EF7CE5B9C446
:102D500008E221E045EE69ED7CE5B3C4809195027F
:102D6000806106303CE5130709F47FC008F484C095
:102D700080919502806279C0809195028D7F0C30A0
:102D80009CE5190709F471C070F4809195028C607C
:102D90000A30FCE51F0709F468C008F479C0809187
:102DA00095028E7F62C080919502877F0E303CE550
:102DB000130709F45AC008F471C0809195028F7E00
:102DC00054C00B3F9CE5190709F45AC030F5033194
:102DD000FCE51F0709F472C078F401313CE51307E4
:102DE00009F468C002311C4509F038C40E94840F00
:102DF000809195028F7739C005319CE5190709F458
:102E000065C008F479C08091960281600A3F1C4534
:102E100009F024C48093960221C40F3F2CE51207C9
:102E200009F450C070F40D3F8CE51807D9F180917A
:102E300096028E7F0E3F1C4568F380919602836058
:102E4000E9CF0130EDE51E0709F45FC008F44AC080
:102E500060E002301D4509F001C48EE090E00E9460
:102E6000F625FCC380919502816080939502F6C39C
:102E7000809195028460F9CF809195028860F5CFAA
:102E8000809196028260C6CF809195028064EDCFDA
:102E90000E94840F809195028068E7CF809195020F
:102EA0008B7FE3CF809196028D7FB4CF8091950286
:102EB0008F7DDBCF809195028F7BD7CF809195025C
:102EC000837FD3CF809196028C7FA4CF809195028F
:102ED00082FB992790F921E0922790FB82F990FBE1
:102EE00083F9C3CF80919602982F909591708E7F31
:102EF000892B90FB81F98ECF0E94840F90919502CF
:102F0000892F97FB87F98058B0CF61E0A6CF8091D9
:102F1000350206313CE5130709F0E8C38A7A91E0EF
:102F200009F490E09093BD01811106C089E20E94EE
:102F30002D060E94F3059DCD85E3F9CF85E3F6C309
:102F40008091AF0280FF1BC08E7F8093AF026091A3
:102F5000AF027091B0028091B1029091B2020E94D2
:102F6000400F1092AE028FEB94EDE1E08150904063
:102F7000E040E1F700C000000E948F0F7ACD816031
:102F80008093AF0261E086950E947A1472CD4CEB7B
:102F900054E165EC74E10E94E0076BCD45EC54E12F
:102FA0006CEB74E1F8CF45ED53E16EED73E1F3CFD7
:102FB0004EED53E165ED73E1EECF4DEB53E169EC7E
:102FC00073E1E9CF49EC53E16DEB73E1E4CF45EAFE
:102FD00053E161EB73E1DFCF41EB53E165EA73E16C
:102FE000DACF42E55FE063E67FE0D5CF43E65FE01E
:102FF00062E57FE0D0CF61E081E0C6CF65E082E0AE
:103000000E94CF1436CD68E086E0FACF6EE089E00A
:10301000F7CF64E18FE0F4CF67E185E1F1CF61E0C4
:1030200088E1B2CF62E289E1EBCF61E083E2ACCF2D
:103030000115FCE51F0709F447C00E3D1C4509F4C6
:1030400050C0F70100811181992309F44DC0C801D6
:103050000E94600DD82E682FC8010E946D06B8012D
:103060008D2D0E94E10B8C01882EF701A580A29482
:103070003FE0A322D280D11010923402809132021C
:10308000877099F0DD2089F0812F807F803421F0D6
:1030900080E2800F883048F082E00E943B078091F8
:1030A00032028770CC24C3948111C12CB12EB2940A
:1030B0002FE0B222FBE0FB1508F450C0EB2DF0E04E
:1030C000E755F94D0C9454250E94840F3FEB87E29D
:1030D00099E0315080409040E1F700C000000E942C
:1030E000B90E0E94DD0EC5CCC8010E944606D82E3E
:1030F000B6CF212F2F70A22E107F19F0A29490EF3F
:10310000A922DD20C9F0AA2069F080E2800F883072
:1031100010F081100BC080913502A82AA0923502D0
:103120000E94F305802F0E94FE0A18C0809134028D
:10313000A82AA0923402F4CF802F0E948A07AA20E6
:1031400069F0A094005E083010F081103DC08091BD
:103150003502A822A09235020E94F305EB2DE8501B
:10316000FF0B349720F40E947E070E94500ECC2063
:1031700009F444CC8091320280FD40CCF7011282E8
:103180008595859585950E945307C7010E94DD149A
:10319000809132028595859585950F900F900F90BF
:1031A0000F900F90DF91CF911F910F91FF90EF90B3
:1031B000DF90CF90BF90AF909F908F907F906F9057
:1031C0005F904F900C94180780913402A822A0922F
:1031D0003402C2CF312F3F70932E107F103219F07E
:1031E000929480EF9822882071F081E0881661F136
:1031F000DD20B9F1AA2071F1F701858180FF92CF1E
:103200008F70858327C0DD2091F090913602892D43
:10321000892BA11003C00E94AE06A0CFE1E0AE1240
:10322000FACF981709F49ACF8093360297CFA1105E
:1032300006C00E94ED05892D0E94A3068FCFF1E004
:10324000AF1609F48BCFF5CFDD2031F025E02A153C
:1032500008F484CF892DDFCF34E03A1508F47ECF0F
:10326000EACFAA2041F3F9E38F1286C12FEF3DEE9A
:1032700082E0215030408040E1F700C000007CC176
:10328000812F86958695837061F0813009F066CF35
:10329000C8019370D11002C090E080E00E94B8068F
:1032A0005DCFC8019370D11002C090E080E00E9411
:1032B000CE0654CF812F837009F066C0D1104ECF57
:1032C000802F829586958770880F880F602F6F708A
:1032D000462E512C712C612C082E04C0440C551C18
:1032E000661C771C0A94D2F740E050E0BA0104FF54
:1032F0000FC04FE050E060E070E004C0440F551F85
:10330000661F771F8A95D2F7409550956095709506
:10331000812F869586958370823019F1D8F40091BB
:103320003702109138022091390230913A028130EF
:1033300069F04429552966297729CB01BA01602310
:103340007123822393230E94740708CF402A512AB5
:10335000622A732ACB01BA01642975298629972923
:10336000F2CF442955296629772900913702109117
:1033700038022091390230913A02CB01BA0160271C
:10338000712782279327DFCF8695DD2011F0812FCB
:103390008170882309F4E2CE802F8295869587700C
:1033A000880F880F602F6F70462E512C712C612C66
:1033B000082E04C0440C551C661C771C0A94D2F7D6
:1033C00040E050E0BA0104FF0FC04FE050E060E081
:1033D00070E004C0440F551F661F771F8A95D2F70F
:1033E0004095509560957095812F86958695837050
:1033F000823019F1D8F400917B0310917C03209165
:103400007D0330917E03813069F044295529662976
:103410007729CB01BA0160237123822393230E9471
:10342000F2069CCE402A512A622A732ACB01BA01A5
:103430006429752986299729F2CF442955296629B7
:10344000772900917B0310917C0320917D033091BB
:103450007E03CB01BA016027712782279327DFCF34
:103460001F70DD2029F0812F0E945307802FD3CEBB
:10347000802F0E94A306812F0E9418076FCE802FF5
:1034800092EF891609F450C0981578F0E0EF8E1687
:1034900019F1F1EF8F1609F43FC0DD2009F467C080
:1034A000A11040CE812F8F713CC023EF821609F40A
:1034B00040C034EF8312F1CFDD2009F44DC01F71FD
:1034C000812F0E945307E8E01E9FC00111248360F2
:1034D00080933202812F25C0DD20C9F084E08A1557
:1034E00008F43CCE1F7161E070E080E090E004C021
:1034F000660F771F881F991F1A95D2F700917B03DB
:1035000010917C0320917D0330917E03A4CF95E040
:103510009A1508F423CEE6CF812F8F71DD2009F4B0
:10352000ABCF0E9453071ACE812F8F71DD20C9F3D4
:10353000A3CF60E070E0CB01DD2009F470CF1F71F4
:1035400061E070E080E090E004C0660F771F881FA4
:10355000991F1A95D2F763CF81E00E943B07F1E0F3
:10356000FA1508F0FBCD82E00E943B07F7CDAA20B8
:1035700039F0893309F47ACE802F0E948A07EECD84
:10358000812F8F7179CF0031FFE51F0709F44FCBF1
:1035900001312FE5120709F454CB0D3B2CE512073E
:1035A00009F47BCB08F051CB0B3B8CE5180709F4F1
:1035B0006CCB80E00C3BECE51E0709F467CB033FC6
:1035C000ECE51E0709F4B2CB08F0B3C0083D2CE5CA
:1035D000120709F4A5CB093D3CE5130709F4B8CB64
:1035E000073D8CE5180709F467C01092BC01023052
:1035F0008CE5180708F48BCC0631ECE51E0738F093
:1036000098012A5F3C452930310508F080CC0E94A2
:10361000A00B90939602809395020031FCE51F0762
:1036200009F444CC08F0CDCB08303CE5130709F48D
:103630002BCC08F0A1CB04309CE5190709F418CC79
:1036400008F08CCB0230FCE51F0709F40BCC80910D
:103650009502826003301C4509F407CC6091950205
:103660001091960284E090E00E94F625612F81E29D
:1036700090E00E94F6250E94840FFBC900313FE5CF
:10368000130709F4DACA01318FE5180709F4DBCA18
:10369000033F2CE5120709F449CBA0F5083D8CE562
:1036A000180709F43DCB093DECE51E0709F450CBA2
:1036B000073DFCE51F0789F506E221EE41EE67EDC7
:1036C0007CE5C7010E941714D4C985E0DE0111967C
:1036D00001900D928A95E1F7F701228189819A8103
:1036E0002111A2C90E944606182FA6C98272F801AC
:1036F000E25CFC45E431F10508F09ACCEB54F94D5D
:103700000C945425053F2CE5120709F41BCB08F453
:1037100013CB063F8CE51807C1F006311C4509F0B4
:1037200090CC8091BD01811109CC89E20E942006D4
:1037300000CC053FECE51E0709F404CB08F4FCCAF5
:10374000063F2CE5120709F050CF07E225EE46EEC2
:1037500066EF7CE5B6CF1F93CF93DF938091C301D3
:10376000807FA9F48091C001882389F08091F501C0
:10377000D091C4016091BE017091BF01A091C101BF
:10378000B091C201C62FC72316E0D81304C0DF9141
:10379000CF911F91089590E0109711F0CF3F19F449
:1037A00001968770F2CF189F9001199F300D112458
:1037B000F901EB53FE4F41814713F2CF408146138D
:1037C000EFCF42814111ECCF438154814A1B5B0B07
:1037D000483C510528F78091C3018F708061809328
:1037E000C301F901E653FE4F80818F7080618083B1
:1037F0008EEB91E00E94DD14DF91CF911F910C942C
:103800009906AF92BF92CF92DF92EF92FF920F9301
:103810001F93CF93DF93CDB7DEB761970FB6F894C0
:10382000DEBF0FBECDBF8C0185E0F801DE011D9625
:1038300001900D928A95E1F7F80180819181E280F3
:103840002EEBA22E21E0B22E6091C1017091C20137
:103850006115710509F43EC13091BE014091BF016F
:10386000232F24232F3F09F435C1C380D480F09047
:10387000C001F601E61BF70BFF2009F4FBC0209105
:10388000C301522F507FE83CF10508F0BBC0511135
:1038900078C0FE2C491321C038131FC0E1101DC091
:1038A0002F7020612093C301C5010E94DD14809117
:1038B000C301F80185838F2D61960FB6F894DEBFA2
:1038C0000FBECDBFDF91CF911F910F91FF90EF9071
:1038D000DF90CF90BF90AF900895CD2829F0282F8A
:1038E00029232F3F09F014C120E0F22FF170DF2EC1
:1038F00020FF3DC02091F5014091C40156E0241302
:1039000015C08D879E878D859E850E94A20D292FCB
:1039100022952F702230F8F0243020F59F70F9F0B6
:10392000F8019581907FD9F4D12C1FC030E0529FCF
:10393000F001539FF00D1124EB53FE4F618196135C
:1039400006C06081861303C06281E61210C02F5F3B
:103950003F4F2770D4CF9F7011F0882329F3805EEA
:10396000883010F3C8010E94DD14FD2CA4CFEE2096
:1039700009F4A1CF8091C30181608093C301F12C30
:103980009ACF491312C0381310C0E1100EC0F801CD
:103990002583C8010E94DD1486E0F801AEEBB1E09A
:1039A00001900D928A95E1F786CF8D879E878D8550
:1039B0009E850E94AC0D882309F1EE20F9F08091DC
:1039C000C301803270F02091BE013091BF01388771
:1039D0002F831986DB86CA868C87CE0107960E94C4
:1039E000DD1486E0F801AEEBB1E001900D928A950E
:1039F000E1F70E94AB1BFF24F3945DCFC8010E9446
:103A0000DD14F9CF51110AC08EEB91E00E94DD1454
:103A100086E0F50111928A95E9F7B1CF49130FC0FD
:103A200038130DC0E1100BC0F8012583C8010E94B6
:103A3000DD1486E0F50111928A95E9F73CCF8D8778
:103A40009E878D859E850E94AC0D8823B9F2EE205D
:103A5000A9F28091C301803220F22091BE01309101
:103A6000BF013A8329831B82DD82CC828E83CE0103
:103A70000196B5CFE83CF105E0F6FE2CEE2009F406
:103A8000BDCF491316C0381314C08091C30180FD07
:103A900083CF982F907F09F47FCFF8018583903FE3
:103AA00009F477CF982F907F905F8F70892B858353
:103AB00070CF8D879E878D859E850E94AC0D81116C
:103AC00090CF8091C30181608093C301C8010E949F
:103AD000DD14F1CEEE2009F491CF8D879E878D8580
:103AE0009E850E94AC0DF82E882309F487CF86E0CE
:103AF000F801AEEBB1E001900D928A95E1F780916B
:103B0000BE019091BF010E94A20D0E94AB1BD3CEBB
:103B100021E02E25EACE1F93CF93DF93CDB7DEB7FA
:103B200067970FB6F894DEBF0FBECDBF4B8B5C8B93
:103B30006D8B7E8B8F8B1A8A198A85E0FE017396B6
:103B4000DE011D9601900D928A95E1F786E0FE0157
:103B50003D96DE01179601900D928A95E1F7CE0110
:103B600007960E94011C882389F016E08091F501D8
:103B70009091C401891349C067960FB6F894DEBFCF
:103B80000FBECDBFDF91CF911F91089586E0FE015A
:103B90003796DE01119601900D928A95E1F78A859C
:103BA0009B85892B11F38F81988589238F3FE9F2BB
:103BB0002091C40130E0C901019687709927409196
:103BC000F5014817190671F40E94840F1092C40180
:103BD0001092F50186E0EEEBF1E0DF011D928A958F
:103BE000E9F7C3CF96E0929FD001939FB00D1124C7
:103BF000AB53BE4FFE01319601900D929A95E1F7BD
:103C00008093C4010E949906B0CF819FC001112406
:103C10008B539E4F0E94011C882309F4ADCF8091E5
:103C2000F50190E00196877099278093F5019ECF6A
:103C30007F928F929F92AF92BF92CF92DF92EF923C
:103C4000FF920F931F93CF93DF9302EF10E0A9E849
:103C5000B2E0712CCC24C394D12CE80189918E015F
:103C6000E82FE295EF70F0E091A98F70760101C026
:103C7000EE0C8A95EAF7892F8E2981AB92A97E2DC9
:103C80007095972392ABD8E7DA95F1F798EFA92EC4
:103C900090E0B92E50E040E030E020E0E50169918D
:103CA0005E01862E82948FE08822912CE40188A9FF
:103CB00090E06F7002C0959587956A95E2F780FD58
:103CC0006DC0C601042E02C0880F991F0A94E2F746
:103CD000282B392B4F5F5F4F40315105F9F681A9F1
:103CE000872381AB82A9E82AE2AA8D919C91119742
:103CF0002817390709F455C011963C932E9381E09B
:103D0000782A1296D0E0083F1D0709F0A6CF772049
:103D100009F449C081E0809312010E940B14909332
:103D200011018093100180911001909111010E9466
:103D3000DE050697E0F18091890290918A029093C6
:103D4000B9028093B80280918B0290918C0290937B
:103D5000BB028093BA0280918D0290918E02909363
:103D6000BD028093BC0280918F029091900290934B
:103D7000BF028093BE028091910290919202909333
:103D8000C1028093C002809193029091940290931B
:103D9000C3028093C2021092120109C090E080E039
:103DA00097CF80E0ADCF809112018111BCCFA89553
:103DB000872DDF91CF911F910F91FF90EF90DF90B2
:103DC000CF90BF90AF909F908F907F900895CDB788
:103DD000DEB764970FB6F894DEBF0FBECDBF0E946A
:103DE0000B147C0184B7806884BF84B7806884BF6B
:103DF0008FEF8BBB1ABA88BB17BA85BB14BA81EF99
:103E000082BB83E081BB88E19FE00FB6F894A89560
:103E100081BD0FBE91BD80918602811105C00E94B7
:103E20005E2481E08093860280E00E947C0E87E918
:103E30009AE30197F1F700C000008FE0E3E8F0E0BB
:103E4000DE01119601900D928A95E1F78BE2809345
:103E50003B0281E180933C028FE0FE013196ADE3AD
:103E6000B2E001900D928A95E1F724E630E041E15D
:103E700050E06BE372E080EB0E94EC24E7E9FAE3A8
:103E80003197F1F700C0000010923B0215E010934B
:103E90003C0285E180933D0288EC90E090933F02E4
:103EA00080933E0224E630E045E050E06BE372E0B0
:103EB00080EB0E94EC2487E99AE30197F1F700C0B8
:103EC000000084E180933B0286E080933C021092E4
:103ED0003D0210923E0210923F021092400224E6F0
:103EE00030E046E050E06BE372E080EB0E94EC24AF
:103EF000E7E9FAE33197F1F700C000008AE1809327
:103F00003B0284E080933C0283E090E090933E0289
:103F100080933D0224E630E044E050E06BE372E041
:103F200080EB0E94EC2487E99AE30197F1F700C047
:103F300000008091920090919300A0919400B09124
:103F4000950029E120933B0227E020933C02109347
:103F50003D0280933E0290933F02A0934002B093B3
:103F6000410224E630E047E050E06BE372E080EB92
:103F70000E94EC24E7E9FAE33197F1F700C0000072
:103F800082E08093720080E18093730087E790E085
:103F9000909388028093870285B7886085BF8BB72E
:103FA00080688BBF8BE480938B038093C0038093E6
:103FB00097038AE580938A038093BF0380939603D7
:103FC0008B9A80E0815009F06EC08B987894FFEB5B
:103FD00024ED41E0F15020404040E1F700C00000F6
:103FE0008BE083BF8BEB8CBF82E089BFA2EFB0E098
:103FF00028EF30E041E050E08D91E82FE295EF703E
:10400000F0E011A98F70BA0101C0660F8A95EAF736
:10401000962F9095912391AB82A9862B82AB2A177C
:104020003B0751F7A8EFB0E041E050E08D91E82F59
:10403000E295EF70F0E061A98F709A0101C0220F44
:104040008A95EAF7922F9095962391AB82A9822BBD
:1040500082AB81E0A830B80749F7E9E8F2E085E9EA
:1040600092E0A8EBB2E0119211921D921D928E1770
:104070009F07C9F70E94181EEFE2F5E73197F1F7A5
:1040800000C000000E94181E8091B80280FF13C07B
:1040900080E00E94380E6FEF7FEF90E080E00E949A
:1040A00013260E94B90EA895E7EBFBE03197F1F7D4
:1040B00000C0000087CF0E94D20E811102C00E9472
:1040C000DD0E82E290E00E94E225813209F0DCC33D
:1040D00083E290E00E94E225823009F0D5C384E2B9
:1040E00090E00E94E225863109F0CEC30E94D20EF4
:1040F000811102C00E94DD0E82E090E00E94E22564
:1041000080939F020E94A00B909396028093950249
:1041100083E090E00E94E225682F70E090E080E06C
:104120000E9474070E94D20E811102C00E94DD0E0F
:1041300086E090E00E94E2258093AC02803120F07E
:10414000877088608093AC029091AC02892F817057
:1041500090FF04C0892F8695869586950E947C0ED7
:1041600080919702811133C00E94D20E811104C048
:104170000E94DD0E0E94740F88E090E00E94EA2504
:104180006093AF027093B0028093B1029093B20239
:104190006E7F71F40E94740F88E090E00E94EA251F
:1041A0006093AF027093B0028093B1029093B20219
:1041B0000E94E5071092AE028091AF0280FF04C01A
:1041C00060E086950E947A1481E08093970210E067
:1041D0007CEFC72E75E0D72E8091A503882309F4C4
:1041E000BDC01092A5030E940B147C010E94D70849
:1041F00080915303882309F494C080918A0384FF3B
:1042000090C00E94181EE0EAF2E0A8EBB2E010E0D5
:1042100000E0902E8D919D91419151914817590741
:1042200009F4B9C04827592720E0AA24A394B12C47
:10423000BA016A217B21672B09F4A7C029839A82DE
:104240009C012A213B2191E0232B09F490E09B83E0
:104250000E940B148160782F9D838C8349815A8141
:104260006B818D810E948B1D000F111FF801E0569C
:10427000FD4F80819181A826B926B182A0828091CC
:10428000AE02882309F441C08091AD02E091AF02F3
:10429000E695E81BE0939A02823009F093C0F0E0C3
:1042A000E65FF94FE4910E2F10E02FEEA22E22E1EF
:1042B000B22E80919B02882389F010929B020E946B
:1042C0000B14980120953095820F931F90939902BB
:1042D0008093980210929D0210929C028091980205
:1042E000909199020E94DE058017910770F0E0918D
:1042F0009802F09199020E0F1F1F109399020093DC
:10430000980288E992E0F50109950E947E07909154
:104310009E02891731F00E947E0780939E020E94C0
:10432000500E0E94A30A0E94D7088091530388234D
:1043300009F4DCC08091BF0384FFD8C08091490399
:10434000803209F0D3C0E0915B03E150E33108F023
:10435000F5C0F0E0E753F94D0C945425C7010E94D5
:10436000DE05069718F4112309F440CF0E94181EA9
:10437000E8EBF2E081919191892B09F06BC292E018
:10438000E43CF907B9F711E027CF2F5FAA0CBB1C5B
:10439000203109F04DCF0F5F1F4F0630110509F096
:1043A00038CF8FEF888B898B1A8A0E940B1481601B
:1043B000782F9C8B8B8B488959896A898C890E94BC
:1043C0008B1D5DCF863059F4F0E0E95FF94FE49141
:1043D0000E2F10E093E0A92E93E1B92E6ACF893019
:1043E00061F4E695F0E0EC5FF94FE4910E2F10E0F8
:1043F00086E8A82E80E1B82E5CCF8F3061F4E69578
:10440000F0E0EF5FF94FE4910E2F10E0B3ECAB2E2C
:10441000B0E1BB2E4ECF853159F4F0E0E250FA4FB7
:10442000E4910E2F10E0ADE3AA2EA1E1BA2E41CF08
:1044300008E210E070EBA72E71E1B72E883109F485
:1044400038CF833241F4F60105911491F6E9AF2E8D
:10445000F2E1BF2E2ECF04EF11E060E4A62E62E160
:10446000B62E843209F425CF00ED17E059EDA52EC4
:1044700055E0B52E853209F01CCF8E2F63E00E94E7
:104480001225E92FF0E0E750FA4FE4910E2F10E0EB
:10449000E9ECAE2EEFE0BE2E0CCF10925C0389E06B
:1044A00080935D031FC080915C03823009F4F9C1E1
:1044B0008330F1F0813009F041C02FB7F89460915A
:1044C000B4027091B5028091B6029091B7022FBFED
:1044D0000E945A2560935D0370935E0380935F038F
:1044E000909360030E944A0A1092490310E074CE30
:1044F000ABE5B3E0E8EBF2E0808191813296129671
:104500009C93129713968C931397129622E0E43C97
:10451000F20791F7E7CF80915C03823079F46091E4
:104520005D0370915E0380915F03909160030E9430
:104530005A2585E290E00E94F625D4CF8FEF809334
:104540005B03D0CF40915E0360915D0380915C037B
:104550000E94AE0B98278927982790936003809339
:104560005F03C0CFA0905F03B0906003BA24AB2478
:10457000BA2480915C0300915D0340E2049F8001B6
:10458000112490EC899F000D111D112480915E0370
:1045900090E0880F991F080F191F6B2DC801869690
:1045A0000E94F6256A2DC8018796C5CF0E94D00DBE
:1045B00099CF80915C03893041F490915D0381E053
:1045C0009F3F08F480E00E94A30E80915C03813835
:1045D000D9F068F4803809F085CF20E040915D0380
:1045E0006091B1028091B0020E9413137BCF823898
:1045F00079F1833809F076CF20E04091B2026091E2
:104600005E0380915D03F0CF60E080915D030E94C6
:104610007A1490915D038091AF02911111C08E7F49
:104620008093AF021092AE02EFEBF4ED21E0E15087
:10463000F0402040E1F700C000000E948F0F52CFF1
:1046400081608093AF0260E086950E947A144ACF21
:1046500080915D038093B30245CF80915C038930E4
:1046600059F08A3081F08138F9F080F4803809F00F
:1046700039CF8091B20214CF8091AC028695869595
:10468000869581950DCF10925D032CCF8238A1F0D5
:10469000833809F027CF8091B00280935D03809129
:1046A000B10280935E031ECF8091AF0280FF02C0F3
:1046B0008695F6CE80E0F4CE8091B302F1CE809163
:1046C000AC020E94230E6091AF027091B002809103
:1046D000B1029091B2020E94400F04CF80E180931A
:1046E0005C0300CF10925C038AEDDACEA0905C03ED
:1046F000B0905D03BA24AB24BA243BE5832E33E0AB
:10470000932E00915E0310E0055A1C4FC5018A5D8F
:104710009C4F8016910609F4E5CE4AEDA416B1042B
:1047200058F40E94E225F4018483FFEFAF1ABF0A18
:104730002FEF821A920AEACFF4011482F6CF009189
:104740005C0310915D031027012710272BE5822EB3
:1047500023E0922EA0905E03A00EB12EB11CC801E2
:104760008A5D9C4FA016B10609F4BCCE0A3D110526
:1047700020F4F40164810E94F625FFEF8F1A9F0A4E
:104780000F5F1F4FECCF0E94280EACCE84E0A7CF66
:10479000A0905C03B0905D03BA24AB24BA249BE5DF
:1047A000892E93E0992E00915E0310E0055A1C4F6C
:1047B000C50186960815190509F494CEA11423E0C5
:1047C000B20658F40E94E225F4018483FFEFAF1A89
:1047D000BF0A2FEF821A920AEBCFF4011482F6CFB0
:1047E00000915C0310915D031027012710278BE5D2
:1047F000882E83E0982EA0905E03A00EB12EB11CEF
:10480000C8018696A016B10609F46CCE011543E0E6
:10481000140720F4F40164810E94F625FFEF8F1A3B
:104820009F0A0F5F1F4FECCF80E00E94380E6FEFA2
:104830007FEF90E080E00E94132654CE0E944A0A47
:104840002FE749EA83E0215040408040E1F700C073
:10485000000027CCF89421B3939A822F8C6081BBFF
:1048600092B33CE0932792BBEFE5FAEE40E0E150D3
:10487000F0404040E1F700C0000082B3832782BBD4
:1048800021BB939878947FCD60E085E290E00E9410
:10489000F6250E94D00D0E94280E81E00E94380E5D
:1048A00025CC85E290E00E94E22510925D031092F3
:1048B0005E0310925F038093600314CE11B887E00B
:1048C00080B985B3836085BB86B7846086BF86B7B1
:1048D000816086BF86B7806486BF0895EF92FF929D
:1048E0000F931F93CF93DF93182FEB0116BE84EA2B
:1048F00086BF0E940B147C0106B607FE21C081B161
:10490000887F883021F081B1887F8031B9F513B973
:1049100084E886BF0E940B148C0106B607FE23C0F4
:1049200021B1287F90E080E02831B1F081E090E073
:10493000203411F490E080E09195819591090CC0AC
:10494000CF3FDC07C9F20E940B148E199F098C1708
:104950009D0790F28EEF9FEFDF91CF911F910F9106
:10496000FF90EF900895CF3FDC07B9F20E940B143F
:10497000801B910B8C179D0780F2ECCF8FEF9FEF80
:10498000EBCF0F931F93CF93DF93EB0183B984E8B1
:1049900086BF0E940B148C0106B607FE10C021B121
:1049A000287F81E090E0283211F490E080E091953A
:1049B00081959109DF91CF911F910F910895CF3F7C
:1049C000DC0751F30E940B14801B910B8C179D0781
:1049D00018F38EEF9FEFEECFCF92DF92EF92FF9220
:1049E0000F931F93CF93DF936B018A017901B90174
:1049F0000E946E24E6010C0D1D1DC017D10759F44D
:104A000024E926BFDF91CF911F910F91FF90EF9086
:104A1000DF90CF90089597FDF3CFB70189910E9461
:104A2000C124EBCF991B79E004C0991F961708F0B9
:104A3000961B881F7A95C9F78095089587FB082EE5
:104A4000062687FD819567FD61950E9412250EF46B
:104A5000919507FC81950895AA1BBB1B51E107C0E6
:104A6000AA1FBB1FA617B70710F0A61BB70B881FFE
:104A7000991F5A95A9F780959095BC01CD0108958D
:104A800097FB072E16F4009407D077FD09D00E94FB
:104A90002C2507FC05D03EF4909581959F4F0895F5
:104AA000709561957F4F0895EE0FFF1F0590F4916B
:104AB000E02D099469279627692778278727782783
:104AC00008950E948A26332312F48A1B9B0B0C94B0
:104AD0006B250E948A26B7FF0895821B930B0895C9
:104AE0008F929F92AF92BF92CF92DF92EF92FF92FE
:104AF000CF93DF93EC01688179818A819B81611575
:104B000071058105910521F464E279ED8BE597E06B
:104B10002DE133EF41E050E00E94362649015A0171
:104B20009B01AC01A7EAB1E40E9455266B017C0110
:104B3000ACEEB4EFA50194010E946326DC01CB0129
:104B40008C0D9D1DAE1DBF1DB7FF03C00197A109B0
:104B5000B04888839983AA83BB839F77DF91CF91E5
:104B6000FF90EF90DF90CF90BF90AF909F908F908D
:104B700008950E947025089580E690E00E947025B7
:104B80000895B0E0A0E08093600090936100A0934E
:104B90006200B09363000895FC014150504030F032
:104BA00001900616D1F73197CF01089588279927EC
:104BB0000895FB01DC0102C001900D92415050406C
:104BC000D8F70895E199FECF9FBB8EBBE09A992755
:104BD0008DB30895A6E1B0E044E050E00C9428269F
:104BE000A8E1B0E042E050E00C942826262FE1999D
:104BF000FECF9FBB8EBBE09A01970DB2021631F03B
:104C00002DBB0FB6F894E29AE19A0FBE0895039671
:104C1000272F0E94F7250E94F625252F0E94F725B1
:104C2000242F0C94F7250196272F0E94F7250C942A
:104C3000F625262FE199FECF9FBB8EBB2DBB0FB66D
:104C4000F894E29AE19A0FBE01960895DC01CB0137
:104C5000FC01E199FECF06C0FFBBEEBBE09A3196A6
:104C60000DB20D9241505040B8F70895052E97FBB4
:104C70001EF400940E944D2657FD07D00E9468261E
:104C800007FC03D04EF40C944D265095409530957A
:104C900021953F4F4F4F5F4F0895909580957095A8
:104CA00061957F4F8F4F9F4F08950E948A26A59F41
:104CB000900DB49F900DA49F800D911D1124089517
:104CC000B7FF0C9455260E945526821B930B08951E
:104CD000A1E21A2EAA1BBB1BFD010DC0AA1FBB1F00
:104CE000EE1FFF1FA217B307E407F50720F0A21B72
:104CF000B30BE40BF50B661F771F881F991F1A94DF
:104D000069F760957095809590959B01AC01BD0108
:104D1000CF010895A29FB001B39FC001A39F700D62
:104D2000811D1124911DB29F700D811D1124911DB3
:104D30000895F894FFCFBB0DBB0DC40DC40DC60D77
:104D4000C40DC40DC40DBB0DBB0DCB0DC40DC40DE6
:104D5000CB0D79187918EA18EA184019AE18AE1870
:104D6000AE185A19301A3F1A3F1AA017C717CE1794
:104D7000D317D817DD17E217E717EC17F117F61757
:104D8000FB17FE170318061809180C180F1812182D
:104D900015184D2253228B22A222B222D622D922CA
:104DA0002D235F2314241E246E23722376239F2336
:084DB000C323C623C823F0232E
:104DB8000100000001191A1B1C1D1E1F20212201C1
:104DC80002010014001414DB05D20ADA059F0A9BBD
:104DD8000AFF5A0505050505050505050505050527
:104DE8000505050105010001020202020606060981
:104DF80009090909090F0F0F0F0F0F1515151819B4
:104E080019191919191919191923242525252525B9
:104E180025818283E200E900EA00B500B600B70008
:104E2800CD008301CC008A01920194012102230262
:104E380024022502260227022A02B300B4006F00CA
:104E48007000323334353637909192939495969713
:084E5800606162636465666736
:00000001FF
