:100000000C942C030C9470030C948B030C947003CD
:100010000C9470030C9470030C9470030C94700394
:100020000C9470030C9470030C94B6200C94700321
:100030000C9470030C9470030C9470030C94700374
:100040000C9470030C9470030C9470030C94700364
:100050000C94700329003A003B003C003D003E0038
:100060003F004000410042004300440045004C0076
:100070004700480035001E001F002000210022001C
:10008000230024002500260027002D002E004C0010
:100090002A004A002B0014001A000800150017005F
:1000A0001C0018000C00120013002F00300031005B
:1000B0004D000000394104001600070009000A0045
:1000C0000B000D000E000F0033003400320028003A
:1000D0004B000000E10064001D001B000600190039
:1000E000050011001000360037003800E500000060
:1000F00052004E00E000E300E200000000000000BB
:100100002C0000000000E600E7000000E4005000C2
:1001100051004F0001000100010001000100010039
:1001200001000100010001000100010001000100C7
:1001300001000100010001000100010001000100B7
:1001400001000100010001000100010001000100A7
:100150004C0001000100010001000100010001004C
:1001600001000100010001000100AA00A900010036
:100170000100000001000100010001000100010078
:100180000100010001000100010001000100010067
:100190000100000001000100010001000100010058
:1001A00001000100A80001000100010001000000A1
:1001B000010001000100010001000000000000003A
:1001C000010000000000010001000000010001002A
:1001D0000100010001000100010001000100010017
:1001E0000100010001000100010001000100010007
:1001F00001000100010001000100010001000100F7
:1002000001000100010001000100010001000100E6
:1002100001000100010001000100010001000100D6
:1002200001000100010001000100010001000100C6
:1002300001000000010001000100010001000100B7
:1002400001000100010001000100010001000100A6
:100250000100000001000100010001000100010097
:100260000100010001000100010001000100000087
:100270000100010001000100010000000000000079
:100280000100000000000100010000000100010069
:100290000100010001000100010001000100010056
:1002A0000100010001000100010001000100010046
:1002B0000100010001000100010001000100010036
:1002C0000100010001000100010001000100010026
:1002D0000100010001000100010001000100010016
:1002E0000100010001000100010001000100010006
:1002F00001000000010001000100010001000100F7
:1003000001000100010001000100010001000100E5
:1003100001000000010001000100010001000100D6
:1003200001000100010001000100010001000000C6
:1003300001000100010001000100000000000000B8
:1003400001000000000001000100000001000100A8
:100350000100010032190A00047F3F1F6432146457
:100360003214783C1E1E140A052223252628292A29
:100370002C2D2F3032333536383A3B3D3E40424308
:100380004547494A4C4E5051535557595A5C5E6047
:1003900062646668696B6D6F71737577797B7D7F59
:1003A00081838587898A8C8E90929496989A9C9E58
:1003B0009FA1A3A5A7A8AAACAEAFB1B3B4B6B8B974
:1003C000BBBCBEBFC1C2C3C5C6C7C9CACBCCCDCEDC
:1003D000D0D1D2D2D3D4D5D6D7D7D8D9D9DADADBBF
:1003E000DBDBDCDCDCDCDCDDDDDDDDDCDCDCDCDC4B
:1003F000DBDBDBDADAD9D9D8D7D7D6D5D4D3D2D28A
:10040000D1D0CECDCCCBCAC9C7C6C5C3C2C1BFBE71
:10041000BCBBB9B8B6B4B3B1AFAEACAAA8A7A5A3DC
:10042000A19F9E9C9A98969492908E8C8A8987859B
:1004300083817F7D7B79777573716F6D6B6968667A
:100440006462605E5C5A5957555351504E4C4A494C
:1004500047454342403E3D3B3A3836353332302FF4
:100460002D2C2A292826252322FFAA7F554000016A
:100470000101010101010101020202020202020264
:100480000203030303030303030404040404040436
:1004900005050505050606060606070707070708FA
:1004A000080808090909090A0A0A0B0B0B0C0C0CAD
:1004B0000D0D0D0E0E0E0F0F0F1010111111121247
:1004C00013131414151516161717181819191A1AC4
:1004D0001B1B1C1D1D1E1E1F202021222223242425
:1004E000252626272829292A2B2C2D2D2E2F303161
:1004F0003232333435363738393A3B3C3D3E3F4073
:100500004142434445464748494A4C4D4E4F50515D
:100510005354555658595A5B5D5E5F616264656617
:1005200068696B6C6D6F7072737577787A7B7D7E9E
:100530008082838587888A8C8E8F91939596989AEE
:100540009C9EA0A2A3A5A7A9ABADAFB1B3B5B7BA06
:10055000BCBEC0C2C4C6C9CBCDCFD1D4D6D8DBDDDA
:10056000DFE2E4E7E9EBEEF0F3F5F8FAFDFF09026C
:100570003B00020100A0FA09040000010301010090
:100580000921010100012240000705810308000143
:1005900009040100010300000009210101000122FA
:1005A000320007058303080001120110010000005A
:1005B00008FEFF5241000101020301040330000064
:1005C0000010034C005A00200043004C0053006D03
:1005D0000000000C034C00650065004B0075000036
:1005E000000403090405010980A101850319012AFA
:1005F000B700150126B700950175108100C0050CE4
:100600000901A101850419012AA002150126A002F1
:10061000950175108100C005010906A101050719A2
:10062000E029E715002501950875018102950175FE
:100630000881030507190029FF150026FF0095060C
:1006400075088100050819012905950575019102B4
:10065000950175039103C00011241FBECFE5D8E0BA
:10066000DEBFCDBF04B603FE24C08091AF039091DE
:10067000B003A091B103B091B2038730904BA74073
:10068000B04BB9F41092AF031092B0031092B103C3
:100690001092B20314BE84B7877F84BF0FB6F8945C
:1006A000A89581B5886181BD11BC0FBEE0E0F8E37B
:1006B000099511E0A0E6B0E0E8E6FBE402C0059091
:1006C0000D92AC33B107D9F723E0ACE3B1E001C040
:1006D0001D92AF3AB207E1F70E9415210C948425D0
:1006E0000C940000A82FB92F80E090E041E050EA80
:1006F000609530E009C02D9182279795879510F07D
:1007000084279527305EC8F36F5FA8F30895EADF6A
:100710008D939D930895CF93CFB7CF93C395839B2C
:10072000E9F7839B0EC0839B0CC0839B0AC0839B0D
:1007300008C0839B06C0C0918603C395C0938603FF
:10074000A6C0DF93C0918503DD27C357DC4F839B91
:1007500002C0DF91E6CF2F930F931F9300B32FEFCB
:1007600003FB20F94F933F9310B34FEF012703FB97
:1007700021F93BE031C04E7F012F10B3216028C02A
:10078000102F4D7F2260000000B329C04B7F2460F2
:10079000012F000010B32BC010B3477F28602AC080
:1007A0004F7E00B320612CC04F7D10B320622FC05C
:1007B0004F7B00B3206432C0422700B349934FEF10
:1007C0000000102713FB20F910B31C70C9F1297F1A
:1007D00091F2012703FB21F900B3237F89F2315005
:1007E00058F1102713FB22F910B3277E79F2012765
:1007F00003FB23F92F7C81F200B3102713FB24F9AC
:100800002F7971F200C010B3012703FB25F92F7374
:1008100059F200C000B3102713FB26F9223040F232
:1008200000C010B3012703FB27F9243028F64F77C7
:10083000206810B30000F9CF10E81ABF00271CC0D1
:100840003B503195C31BD04010E81ABF0881033CD0
:1008500011F10B3401F1209182031981110F121350
:10086000EDCF4A81441F093669F10D3211F0013E86
:1008700029F74F7009F0042F00938B033F914F919C
:100880001F910F912F91DF91CAB7C7FD47CFCF912D
:10089000CFBFCF91189520918B03222379F310912C
:1008A0008903112309F044C034300AF443C0309363
:1008B000890320938403109185033BE0311B30931F
:1008C000850338C000918903013094F50AE54F7023
:1008D00049F43091840034FD2FC000938400CFE5AB
:1008E000D3E02EC0433059F0443091F030916A0388
:1008F00034FD22C000936A03CBE6D3E021C03091DF
:10090000A30334FD19C00093A303C4EAD3E018C0C5
:100910003091760334FD10C000937603C7E7D3E02F
:100920000FC02795A8F45150A9F4220F0000F9CF69
:100930004AE503C042ED01C0432FC4E1D0E032E0FC
:1009400011B31C60939A11BB02B320E41CE05F93C7
:10095000012756E002BB279520F4515021F4220FC5
:10096000F9CF012756E000003B5A02BBD0F2279591
:1009700028F4515029F4220F0000F9CF012756E046
:10098000279502BB20F4515021F4220FF9CF012703
:1009900056E02991332302BB21F6037F10918A038D
:1009A000110FC651D04002BB11F01093820310E822
:1009B0001ABF086011B3137F402F437F5F9100C0BF
:1009C00000C002BB11BB42BB59CFA8950C94E508EF
:1009D00098E29093C60294E09093C7029FEF9093A1
:1009E000C8028093C90224E630E044E050E066EC9F
:1009F00072E080EB0E941B15892B81F087E99AE356
:100A00000197F1F700C000004091C70250E024E6D2
:100A100030E066EC72E080EB0C941B1508950C94AA
:100A2000E8041F93CF93DF93CDB7DEB72F970FB6B0
:100A3000F894DEBF0FBECDBF80913C01811105C08F
:100A40000E948D1481E080933C0180E00E94E804C4
:100A500087E99AE30197F1F700C000008FE0E5E82D
:100A6000F0E0DE01119601900D928A95E1F78BE29C
:100A70008093C60281E18093C7028FE0FE01319628
:100A8000A8ECB2E001900D928A95E1F724E630E0FF
:100A900041E150E066EC72E080EB0E941B1587E9B3
:100AA0009AE30197F1F700C000001092C60215E02A
:100AB0001093C7028FE08093C80288EC90E0909377
:100AC000CA028093C90224E630E045E050E066ECBB
:100AD00072E080EB0E941B1587E99AE30197F1F71A
:100AE00000C0000084E18093C60286E08093C702C4
:100AF0001092C8021092C9021092CA021092CB0240
:100B000024E630E046E050E066EC72E080EB0E94C4
:100B10001B1587E99AE30197F1F700C000008AE10D
:100B20008093C60284E08093C70283E090E09093B4
:100B3000C9028093C80224E630E044E050E066EC4D
:100B400072E080EB0E941B1587E99AE30197F1F7A9
:100B500000C000008091940090919500A0919600B3
:100B6000B091970029E12093C60227E02093C702A5
:100B70001093C8028093C9029093CA02A093CB023B
:100B8000B093CC0224E630E047E050E066EC72E03F
:100B900080EB0E941B1587E99AE30197F1F700C0EB
:100BA00000002F960FB6F894DEBF0FBECDBFDF91C9
:100BB000CF911F9108958FEF8BBB1ABA88BB17BADC
:100BC00085BB14BA81EF82BB83E081BB88E19FE0E3
:100BD0000FB6F894A89581BD0FBE91BD0C94110578
:100BE000E6ECF2E027E120832EE22183628320916C
:100BF00067002383AB01440F551F460F571FBC01ED
:100C00008AEC92E00E94082524E630E04EE250E0B3
:100C100066EC72E080EB0C941B1570E00C94F00510
:100C2000CF93DF93C82F0E94FD06D82F882351F160
:100C300083E08093C6028093C7028C2F8170C0FD31
:100C400084E0C1FD8260C2FD81608093C80224E619
:100C500030E043E050E066EC72E080EB0E941B1550
:100C6000892B81F087E99AE30197F1F700C0000032
:100C70004091C70250E024E630E066EC72E080EB81
:100C80000E941B158D2FDF91CF91089581E008956B
:100C900081E008950C94480608950C944C061F9327
:100CA000CF93DF9300D000D00F92CDB7DEB749834A
:100CB0005A836B833091A90189819A8131111DC0BA
:100CC0006623B9F02223A9F00E94461E182F682F30
:100CD00089819A810E94F31D69817A81812F0F9009
:100CE0000F900F900F900F90DF91CF911F910C9468
:100CF00007070E941F1E182FEFCF0E94461E698112
:100D00007A81EDCFFC01262F408151816281738170
:100D100084810C944F06CF93DF93EC0160E00E9436
:100D20008206BE01DF91CF910C944D060E947D1F7B
:100D3000811102C00E9423200E9472110C94E308CA
:100D40000C94E50408950E94D2190E94A2062FEB8C
:100D500087E299E0215080409040E1F700C0000018
:100D60000C94DA200F931F93CF93DF93EC0161E093
:100D70000E9482068C01BE010E944A06882389F1E6
:100D8000BE01C8010E943312882359F1BE01C80177
:100D90000E94EE12882329F1BE01C8010E9440136F
:100DA0008823F9F0BE01C8010E9463148823C9F0AA
:100DB000BE01C8010E940211882399F08A8188230C
:100DC00039F001158CE5180751F00E3D1C4579F0FE
:100DD000CE01DF91CF911F910F910C9446060E9496
:100DE000A30680E0DF91CF911F910F9108950E949B
:100DF0002320F7CF08950C94FA0681E00895CF934D
:100E0000C82F0E94FB068C2FCF910C941006E72F61
:100E1000F0E096E0899FE00DF11D112484E0EE0FD3
:100E2000FF1F8A95E1F7E60FF11DEE0FFF1FEC5A49
:100E3000FF4F859194910895CF93DF930E94070708
:100E40000E940808EC01811522E59207E8F581155A
:100E500031E5930708F0ACC0883E910510F5803E5F
:100E6000910570F5883A910570F4853A910508F07E
:100E700078C08130910521F1009711F1049700F5B8
:100E8000D0E0C0E01DC08F3B9105D0F7C85AD0E03C
:100E9000CC0FDD1FC856DF4F0990D881C02DD46418
:100EA0000FC0811540E5940708F066C0C11580E4C5
:100EB000D80708F05EC0CE019A9581159F4100F7D2
:100EC000CE01DF91CF910895811536E5930718F58E
:100ED000811545E5940708F083C0C11584E5D8075E
:100EE00008F079C09C2F969596959E012370332724
:100EF000C115D34508F461C0C1E0D0E002C0CC0FF9
:100F0000DD1F2A95E2F730E2939FC0011124C82B20
:100F1000D92BDA68D5CFC1158AE5D80778F4C11581
:100F200099E5D90708F066C0C11528E5D20708F48D
:100F3000A7CFDC2FCC27C06FD06AC2CFCE0190568E
:100F40008115904208F09CCF8D2F8F710E949F08D1
:100F500090E0982F882788279F719C012C2BE9010E
:100F600047C0C55AD0E0CA53DF4FC881D0E0D06433
:100F7000A7CFDF70D06AA4CFE4E096958795EA9575
:100F8000E1F783702C2F26952695237040E2249F4D
:100F900090011124382B8C2F8370C1E0D0E002C067
:100FA000CC0FDD1F8A95E2F7C22BD32BDC6888CFEC
:100FB000D82FCC27C16FD06A83CFC1E0D0E002C068
:100FC000CC0FDD1F2A95E2F720E2929FC001112489
:100FD000C82BD92BEBCFDC2FCC27C46FD06A70CFB6
:100FE0000E949F08C82FD0E0DC2FCC27CC27DF71D0
:100FF000D06266CF8C2F8F700E949F0834E0D69508
:10100000C7953A95E1F7CF709C2FEC01D06958CF86
:1010100082389105B1F1B0F48133910509F475C0BE
:1010200048F48932910509F469C08A32910509F4BE
:1010300073C008958533910509F459C0893391052A
:1010400001F10895833E9105A9F138F4803E9105A0
:10105000F9F0823E910549F10895863E9105A9F186
:10106000873E9105C9F1843E910519F520915E03F3
:1010700021FF1FC080915D0384FD14C087EE90E0C6
:10108000089520915D032370A1F080EE90E0089513
:1010900020915D0320FD47C030915E0330FF09C001
:1010A00024FF44C090E080E004C020915D0322FD55
:1010B000F7CF089520915D0322FD3BC030915E0380
:1010C00030FDE3CF24FFF5CFEDCF20915D0323FF6B
:1010D000F0CF24FDE7CFD2CF20915D0323FD2CC0BC
:1010E00030915E0331FFEECF84EE90E008952091C1
:1010F0005D0325FFDECF89E290E0089520915D0336
:1011000025FFD7CF85E390E0089520915D0326FF6A
:10111000D0CF8AE290E0089520915D0326FFC9CFE9
:1011200081E390E0089589E390E0089583EE90E0F4
:10113000089582EE90E0089586EE90E008959091F3
:101140005D0392FF06C0282F28712830F9F4877FAD
:10115000846093FF06C0282F28712831F1F4877E20
:10116000846120915E0320FF06C0382F387138302B
:10117000D9F4877F816021FF06C0282F287128318C
:10118000D1F4877E816194FD877E0895282F247194
:101190002430F9F68B7F8860DCCF282F247124312E
:1011A00001F78B7E8861DDCF382F3171313019F72F
:1011B0008E7F8860E0CF282F2171213121F78E7E2C
:1011C0008861E1CF08950C94E2080895E82FF0E0DB
:1011D000EE0FFF1FE35EFC4F80819181089508951B
:1011E00088E78A95F1F70895A9EDB0E061E070E035
:1011F0008D91E82FE295EF70F0E041A98F709B018F
:1012000001C0220F8A95EAF7922F9095942391AB13
:1012100082A9822B82AB80E0AF3DB80749F7A9ECE9
:10122000B0E061E070E08D91E82FE295EF70F0E0C2
:1012300041A98F709B0101C0220F8A95EAF7922F76
:101240009095942391AB82A9822B82AB80E0A93D3B
:10125000B80749F7E1E1F3E0ADE1B3E08DE193E0F8
:10126000119211921D921D928E179F07C9F786E069
:101270000E94C3090C9496068F929F92AF92BF92E0
:10128000CF92DF92EF92FF920F931F93CF93DF9352
:1012900089EDE82E80E0F82E01E113E0912CAA24DC
:1012A000A394B12CF70181917F01C82FC295CF7013
:1012B000D0E099A98F70650101C0CC0C8A95EAF73E
:1012C000892F8C2989AB8AA98C2C809488218AABA0
:1012D0000E94F008E9ECF0E050E040E030E020E06F
:1012E0006191A62FA295AF70B0E0D0968C9190E05E
:1012F0006F7002C0959587956A95E2F780FD3EC0B4
:10130000C501042E02C0880F991F0A94E2F7282B0A
:10131000392B4F5F5F4F4031510511F789A9882262
:1013200089AA8AA9C82ACAAAF801808191812817A6
:10133000390739F13183208381E0982A0E5F1F4FEE
:10134000FFEDEF16F0E0FF0609F0ACCF292D46E0E7
:101350006DE173E081E193E00E94C4090E94A00660
:10136000892DDF91CF911F910F91FF90EF90DF902A
:10137000CF90BF90AF909F908F90089590E080E0C5
:10138000C6CF80E0DACF0895FF920F931F93CF93DB
:10139000DF93F82E092F162FD72FC42F222349F0C1
:1013A00081E080933F010E949B2090933E018093B7
:1013B0003D0180913F018823A1F080913D019091F2
:1013C0003E010E94A720069760F0EF2DF02FA12F7D
:1013D000BD2F90E080E0D0E08C179D0744F0109284
:1013E0003F01DF91CF911F910F91FF9008952191BF
:1013F00031912D933D930196EFCFEF92FF920F9392
:101400001F93CF93DF93EB01E82FD11110C044233A
:1014100021F0F0E0E259FB4FE4916E2F7E2F8E2FEA
:10142000DF91CF911F910F91FF90EF9008950D2FB5
:1014300010E0282F30E0442329F022593B4FF901D6
:10144000249130E0F6E0CF9FC0011124EFEFF0E0EF
:10145000BF010E941E24AB018C2F90E0880F991FC2
:10146000A5E5A49FB001A59F700D1124861B970BC5
:10147000982F990F980FBF01601B710B629FD001CD
:10148000639FB00D729FB00D11248B2F9D9FB001F3
:101490001124672F7727EF01C61BD70BBE01629F70
:1014A000E001639FD00D729FD00D11247F01E91AD6
:1014B000F108E09EB001E19E700DF09E700D1124C8
:1014C000672F7727E61BF70BE29F8001E39F100D44
:1014D000F29F100D1124E12F722F4230510599F027
:1014E00048F44115510569F04130510581F0EB2F69
:1014F0008D2F07C04430510569F080F0463051050A
:10150000B1F76E2F8DCFE22F7B2F812FFACFE22FF5
:101510007D2FF7CFEB2F822F712FF3CF7B2F822FD1
:10152000ED2FEFCF41E00C94FD090895CF93DF93A9
:10153000762FE901682F842F0E94920A79836883AD
:101540008A83DF91CF910895493C08F048EC0C94D0
:10155000960A80912903982F9E7F61F481708260A2
:101560008093290380912C03893C18F088EC8093A8
:101570002C0308958635B0F381708465F1CF88E03F
:1015800090E00C941925CF92DF92EF92FF926B01BD
:101590007C010E94A90AB701A60188E090E0FF90B3
:1015A000EF90DF90CF900C943625E9E2F3E083E0F2
:1015B000808311828FEF828388EC83831482608121
:1015C0007181828193810C94C30A8091290380FFE9
:1015D00002C08695089580E0089590912D03933080
:1015E00018F49F5F90932D03882351F06091290395
:1015F00070912A0380912B0390912C030C94C30AC1
:10160000089581E00C94ED0A90912D03992319F02F
:10161000915090932D03882351F06091290370918C
:101620002A0380912B0390912C030C94C30A0895F4
:1016300081E00C94040B609168008091290380FF85
:101640000AC08091670023E0829FC0011124825D5F
:101650009C4F0C940D068091690090916A0023E0E4
:10166000829FF0011124E25DFC4F891750F711822F
:10167000108212828F5F3396F8CF9091290390FFEA
:1016800014C09091690020916A0033E0939FF001AB
:101690001124E25DFC4F921710F00C941B0B818318
:1016A000608342839F5F3396F6CF0895CF93DF9395
:1016B00000D00F92CDB7DEB79091290390FF0AC0FA
:1016C0009E012F5F3F4F0E94A40A4B8169818A814E
:1016D0000E943D0B0F900F900F90DF91CF910895D6
:1016E000CF93DF93EC01EC81F0E0E759FC4F44919C
:1016F000E9E2F3E0628181810E94560B8C818F5F69
:101700008C83DF91CF910895CF93DF93EC01E9E2D1
:10171000F3E0438162818C810E94560B8C818F5F44
:101720008C83DF91CF9108950F931F93CF93DF9315
:1017300000D00F92CDB7DEB78C01809140018111AE
:101740000AC09E012F5F3F4F48EC6FEF0E94A40A32
:101750008A8180934001F8016481613069F0809151
:10176000400140E0662361F040E0623011F44091B6
:10177000400180E060E004C06091400140E080E012
:101780000E943D0BF801848190E0019663E070E0D7
:101790000E94322484830F900F900F90DF91CF919D
:1017A0001F910F910895AF92BF92CF92DF92EF9267
:1017B000FF920F931F93CF93DF9300D00F92CDB77B
:1017C000DEB7182FF62E042FE22E9091290390FFFA
:1017D00029C0E92FE695AE2FB0E0A152BF4F8C9102
:1017E000809390019E7F923059F59E012F5F3F4F6D
:1017F000812F0E94A40A4B8169818A810E943D0B3E
:1018000010932A03F0922B0300932C03EE2051F047
:101810006091290370912A0380912B0390912C03EE
:101820000E94C30A0F900F900F90DF91CF911F91EC
:101830000F91FF90EF90DF90CF90BF90AF90089501
:10184000823019F400912C03DBCF863019F410910B
:101850002A03D6CF8930D9F3893191F6E9518E2FF9
:101860008170D82EE695F0E0E759FB4FA590B49033
:10187000C12CBB2460916B00C61618F00E941B0B94
:10188000BFCF2C2D30E0A29EC001A39E900DB29E32
:10189000900D112470E00E941E24812FD11013C0DE
:1018A000860F40916900420F532F511D9A01220F5C
:1018B000331F240F351F225D3C4F402F6F2D0E9498
:1018C000A40AC394D7CF861BECCFE9E2F3E0918161
:1018D000282F438162818AE0890F0C94D30B81E029
:1018E0000C94650CE9E2F3E09181282F4381628139
:1018F00086EF890F0C94D30B81E00C94720CE9E213
:10190000F3E0628121E1620F08F46FEF282F438139
:1019100081810C94D30B81E00C947F0CE9E2F3E01D
:10192000628121E1621B08F460E0282F43818181FC
:101930000C94D30B81E00C948E0CE9E2F3E043812C
:1019400021E1420F08F44FEF282F628181810C942E
:10195000D30B81E00C949D0CE9E2F3E0438121E19B
:10196000421B08F440E0282F628181810C94D30B44
:1019700081E00C94AC0C20E00C94D30BEF92FF921E
:101980001F93CF93DF93EC0110E0EE24EA94F12C47
:1019900060916B00161770F00E941B0B9A818C816E
:1019A00090FF27C08F5F8C83DF91CF911F91FF90B5
:1019B000EF90089520916900422F410F5527551F40
:1019C000CA019A01220F331F280F391F225D3C4F95
:1019D00070E0C7010E943224962F8C8140912C0325
:1019E00060912B03199F800D11240E94A40A1F5F90
:1019F000CFCF8150D8CFAF92BF92CF92DF92EF92EC
:101A0000FF920F931F93CF93DF93FC0182810FEF1F
:101A100080FF01E010E04EE0A42E80916B001817CB
:101A2000C8F00E941B0B80914201013009F055C0A3
:101A3000811102C080916B00815080934201DF913F
:101A4000CF911F910F91FF90EF90DF90CF90BF90BB
:101A5000AF900895C0916900C12ED12CCC0DDD2D21
:101A6000D11DCE01880F991FC80FD91FC25DDC4F51
:101A7000198218821A8234E0E32EF12CB12C809165
:101A800042018B0D8F301CF16A2D0E941024892F8A
:101A9000082E000C990BC816D90691F480912C03DE
:101AA0008E9DA0018F9D500D1124559547955595FC
:101AB00047959E0160912B0380912A030E94A40AFE
:101AC000B00EF1E0EF1AF108D1F61F5FA6CF87FF45
:101AD000DFCF90916B00890FDBCF90E00196609192
:101AE0006B0070E00E943224A8CF0F931F93CF9316
:101AF000DF938091690090916A0023E0829FF0015A
:101B00001124E25DFC4F891740F1C0E0D3E0609101
:101B10006B00C61740F10E941B0B2091650080915D
:101B20004101820F8093410190916600920F909342
:101B30006600191654F4082E000C990B40916B00A6
:101B40004150550B841795071CF021952093650093
:101B5000DF91CF911F910F9108951182108212820F
:101B60008F5F3396D0CF0C2F10E070E0C8010E9439
:101B7000322420916900820F482F50E020914101CA
:101B8000022E000C330B02171307BCF020916600E5
:101B9000022E000C330B201731077CF08D9F900133
:101BA0001124225D3C4F40912C0360912B038091C6
:101BB0002A030E94A40ACF5FAACFFA01EE0FFF1FEB
:101BC000E40FF51FE25DFC4F118210821282F3CF09
:101BD0008F929F92AF92BF92CF92DF92EF92FF923D
:101BE0000F931F93CF93DF93EC014C81042F10E0F0
:101BF0009801D8010E9476249B01AC010E948C249C
:101C00004B015C01E0E2F0E0E01BF10BA5E5B0E088
:101C1000AC019B010E948C246B017C019F01DF01C0
:101C20000E946E249B01AC010E9497249B01AC0191
:101C3000280D391D4A1D5B1DC701B6010E944624AF
:101C4000F22E822F90E039E23F1560F143E0249FAD
:101C50009001112435952795122F109500E085E508
:101C6000E82EEF1880916B00081758F10E941B0BAB
:101C70009C8181E0992319F0903219F48FEF8093C1
:101C8000640080916400890F8C83DF91CF911F9154
:101C90000F91FF90EF90DF90CF90BF90AF909F900B
:101CA0008F90089525E530E0B901681B790B9B0101
:101CB000220F331F260F371F37FFCCCF2F5F3F4F29
:101CC000C9CF8E2D01FD8F2D20916900622F600FED
:101CD0007727771F9B01220F331F260F371F225DA7
:101CE0003C4F412F60912B030E94A40A0F5FBACF93
:101CF0000F931F93CF93DF93EC0110E000E09091DE
:101D00006B009017110609F06CF40E941B0B8C817C
:101D100090E00196817099278C83DF91CF911F917C
:101D20000F91089520916900A801420F511D9A0159
:101D3000220F331F240F351F225D3C4F4C816091D1
:101D40002B0380912A0396959017110651F04CF0C1
:101D5000442349F040912C030E94A40A0F5F1F4FB7
:101D6000CECF4423B9F340E0F7CF8F929F92AF924A
:101D7000BF92CF92DF92EF92FF920F931F93CF9378
:101D8000DF93FC01B280948081E0848300E015E061
:101D90005BE4A52E88248394EE24EA94F12C7BE462
:101DA000C72ED12C80916B00081770F0DF91CF9176
:101DB0001F910F91FF90EF90DF90CF90BF90AF9069
:101DC0009F908F900C941B0BC02FD0E01C9FF001B4
:101DD0001D9FF00D1124ED5BFE4F91101CC013826E
:101DE000128220916900CE01820F911D9C01220F69
:101DF000331F280F391F225D3C4F1C9FF0011D9F90
:101E0000F00D1124ED5BFE4F4281618180810E94C3
:101E1000A40A0F5FC7CF2381222379F121502383A6
:101E200034818A2D821B311101C0822F1C9FF00149
:101E30001D9FF00D1124ED5BFE4F90912C03899FA7
:101E4000C0011124B6010E941E246283211104C026
:101E5000332311F01482A38222E02B1510F21C9F71
:101E6000F0011D9FF00D1124ED5BFE4F80912A03C0
:101E7000808380912B038183B4CF0E94EB24823036
:101E800091400CF0AECF82E08B1530F50E94EB2430
:101E9000B7010E9432241C9FF0011D9FF00D1124F8
:101EA000ED5BFE4F808322E02B15C8F40E94EB24EB
:101EB00020912B032695622F70E00E943224280F78
:101EC0001C9FF0011D9FF00D1124ED5BFE4F21833F
:101ED0001282A382848285CF80912A03DCCF209155
:101EE0002B03EECFE9E2F3E080818E7F8083608177
:101EF0007181828193810E94C30A109291012FEB1C
:101F000084ED91E0215080409040E1F700C0000056
:101F10000C941B0B60912903669570E04BE050E038
:101F20008CE690E00E94FB24892B19F481E08093D9
:101F300091010E949B2090938A01809389010895CA
:101F40009091290390FF35C09170811128C0926053
:101F500090932903662351F06091290370912A031D
:101F600080912B0390912C030E94C30A6091290356
:101F7000669570E04BE050E08CE690E00E94FB2418
:101F8000892BA1F01092910181E080938C01409106
:101F90002C0360912B0380912A030C94BB0C8B3291
:101FA00010F09465D5CF880F982BD2CF0E948A0F5E
:101FB000EBCF0895682F90912903969581E0890FC2
:101FC0008B3208F081E00C94A00F81E00C94DA0FC2
:101FD000682F9091290396958FEF890F09F48AE273
:101FE0000C94A00F81E00C94E80F61E00C94A00F1A
:101FF000E9E2F3E080818160808386950C94F50F9F
:102000008091290380FD0C94720F0C94F80F60E00E
:102010000C94A00F80918F0181112EC00E947D1F12
:10202000811104C00E9423200E94D50A0E94BF0A89
:102030006093290370932A0380932B0390932C03BE
:102040006E7F61F40E94D50A0E94BF0A6093290343
:1020500070932A0380932B0390932C030E94A90A68
:10206000109291018091290380FF03C086950E9400
:10207000071081E080938F0108950F931F93CF93F2
:10208000DF9380919101882309F49DC08091900194
:10209000E0912903E695E81BE0938B018230C9F5B6
:1020A000F0E0EB59FC4FE491CE2FD0E000E71BE0CD
:1020B00080918C01882389F010928C010E949B20D2
:1020C0009E0120953095820F931F90938A018093F3
:1020D000890110928E0110928D0180918901909159
:1020E0008A010E94A7208C179D0708F46CC0E0911C
:1020F0008901F0918A01CE0FDF1FD0938A01C0932E
:10210000890189E891E0F801DF91CF911F910F914A
:102110000994863049F4F0E0EE59FC4FE491CE2F5B
:10212000D0E004E81BE0C4CF893051F4E695F0E03C
:10213000E15AFC4FE491CE2FD0E00EEB1CE0B8CF7B
:102140008F3051F4E695F0E0E45AFC4FE491CE2F45
:10215000D0E00BEF1CE0ACCF853149F4F0E0E75A5A
:10216000FC4FE491CE2FD0E005E71DE0A1CFC8E2FF
:10217000D0E008EE1DE0883109F49ACF833239F4BB
:10218000E7E5F3E0C591D49104E91BE091CFC4EFFA
:10219000D1E008E71EE0843209F48ACFC0EDD7E031
:1021A00005E91AE0853209F083CF8E2F63E00E94A3
:1021B0000424E92FF0E0EC5AFC4FE491CE2FD0E05C
:1021C00005EB1EE075CFDF91CF911F910F91089520
:1021D000FA01811101C0FB010994CF93DF93C82F4D
:1021E000D62F0E94E50A8C1740F00E94E50A8D1751
:1021F00020F4DF91CF910C94E50F8C2FDF91CF91DC
:102200000C94F50F0F931F93CF938C01FB01C281A8
:10221000CC2309F465C00E94DB1E8272F801E25CE7
:10222000FC45E431F10538F4EA57FA4D0C94682482
:102230000E940010C0E08C2FCF911F910F91089544
:1022400042EF5FE065EE7FE00E94E810F3CF45EEDD
:102250005FE062EF7FE0F8CF4CE75CE06FE67CE0A8
:10226000F3CF4FE65CE06CE77CE0EECF4AE95CE060
:102270006BE87CE0E9CF4BE85CE06AE97CE0E4CF26
:1022800048EB5CE069EA7CE0DFCF49EA5CE068EBC0
:102290007CE0DACF48E15BE061E07BE0D5CF41E074
:1022A0005BE068E17BE0D0CF81E00E94F50FC2CF18
:1022B00065E082E00E94ED10BDCF68E086E0FACFD5
:1022C0006EE089E0F7CF64E18FE0F4CF67E185E16C
:1022D000F1CF88E1EACF62E289E1ECCF83E2E5CF9A
:1022E000C1E0A9CF08950E947D1F811102C00E9404
:1022F00023200E94AB1F80935803803120F0877009
:1023000088608093580390915803892F817090FFC3
:1023100004C0892F8695869586950C940F0580912B
:102320005803982F987F19F4885F80935803809101
:1023300058038160809358030E94AF1F8091580317
:102340008695869586950C940F0580915803982F55
:10235000987F79F0885080935803887F91E009F442
:1023600090E08091580390FB80F9809358030E947D
:10237000AF1F809158038695869586950C940F051E
:102380008091580380FD13C0816080935803813091
:1023900019F489E080935803809158030E94AF1F7D
:1023A000809158038695869586950C940F0508951F
:1023B0008091580380FF08C08E7F809358030E944D
:1023C000AF1F80E00C940F0508958091580380FDA5
:1023D0000C94D8110C94C01190915803892F8695B4
:1023E000869586958F5F8F7197708230D8F4880FAD
:1023F000880F880F892B8093580380915803887F1A
:1024000091E009F490E08091580390FB80F980936B
:1024100058030E94AF1F8091580386958695869534
:102420000C940F0590935803E8CF811181E09091AF
:1024300058039770282F220F220F220F922B909370
:102440005803987F21E009F420E09091580320FB85
:1024500090F9909358030C940F050E9415128091E7
:1024600058030C94AF1F9C01FB018281882349F122
:102470002D3BFCE53F07C9F040F42B3BECE53E0764
:1024800069F02C3B3C4579F008952F3B9CE53907DA
:1024900091F070F0203C3C4589F0089581E00E9465
:1024A0002D1280E0089580E0FACF0E94A511F9CFA7
:1024B0000E948F11F6CF0E94E511F3CF0E94EC111C
:1024C000F0CF81E00895AF92BF92CF92DF92EF926A
:1024D000FF920F931F93CF93DF937C015B01C42F77
:1024E000D22FFC0182818823F9F0409394010E944D
:1024F0009B20909393018093920180E28C0F88300F
:1025000008F061C0C77081E001C0880FCA95EAF782
:10251000DF91CF911F910F91FF90EF90DF90CF90BF
:10252000BF90AF900C94721710919401141340C097
:1025300080919201909193010E94A7206C01B701B4
:10254000C5010E94481CC816D90690F5C0E2CD0FFF
:102550001D17B9F080E2810F883040F4177081E0D8
:1025600001C0880F1A95EAF70E947917C83048F41D
:1025700081E09D2F977001C0880F9A95EAF70E941D
:102580007217802F0E945F17C830E8F4D77081E07F
:1025900001C0880FDA95EAF7DF91CF911F910F9173
:1025A000FF90EF90DF90CF90BF90AF900C94791791
:1025B00080E28C0F883038F4C77081E001C0880F4A
:1025C000CA95EAF7E9CFDF91CF911F910F91FF9064
:1025D000EF90DF90CF90BF90AF9008950F939C0144
:1025E000CB01233F4CE5340759F1A8F4283DFCE525
:1025F0003F0701F1293D4CE53407D1F1273D3C452A
:1026000091F406E221EE41EE67ED7CE50E94631253
:1026100080E00F910895253FFCE53F07E9F0B0F019
:10262000263F3C45F9F0FC018281882339F1109264
:102630009401EFCF07E225EE45EE68ED7CE5E6CFAD
:1026400006E221EE40EE63EF7CE5E0CF07E225EE07
:1026500044EE64EF7CE5DACF06E221EE42EE65EF70
:102660007CE5D4CF07E225EE46EE66EF7CE5CECFE3
:1026700008E221E045EE69ED7CE5C8CF81E0C9CFF5
:10268000CF93DF93EC01FB018281882309F419C108
:10269000C230FCE5DF07C0F1C6319CE5D90730F058
:1026A0009E012A5F3C452930310570F50E94901F3C
:1026B00090935E0380935D03C031ECE5DE0709F47F
:1026C000CFC008F05BC0C8308CE5D80709F4B6C0AD
:1026D00088F5C430ECE5DE0709F4A8C0C0F4C230C8
:1026E0008CE5D80709F49CC080915D038260C330FB
:1026F000DC4509F498C080915D0390915E030E94CF
:102700009E1F0E94D21980E0DF91CF9108958091A1
:102710005D038061C630ECE5DE0709F484C080917A
:102720005D038860C730DC4508F47DC080915D039F
:10273000806279C0CC308CE5D80709F489C070F488
:1027400080915D038C60CA30ECE5DE0709F46BC054
:1027500008F478C080915D038E7F65C0CE308CE533
:10276000D80709F479C080915D038B7FCF30DC45B9
:1027700008F459C080915D038F7E55C0CB3FECE5D6
:10278000DE0709F457C030F5C3318CE5D80709F4EA
:102790006FC078F4C131ECE5DE0709F465C0C231E1
:1027A000DC4509F0A8CF0E94D21980915D038F7794
:1027B0003AC0C5318CE5D80709F462C008F476C088
:1027C00080915E038160CA3FDC4509F094CF80931D
:1027D0005E0391CFCF3FFCE5DF0709F44DC088F4DD
:1027E00080915E038D7FCD3F9CE5D90781F3809179
:1027F0005E038E7FCE3FDC4550F380915E038360A5
:10280000E6CFC130FDE5DF0709F459C008F444C044
:1028100080E0C230DD4509F06ECF0E9425206BCFED
:1028200080915D03816080935D0365CF80915D033E
:102830008460F9CF80915E038260C9CF80915D038F
:102840008064F1CF0E94D21980915D038068EBCF44
:1028500080915D038D7FE7CF80915D03877FE3CF1C
:1028600080915D038F7DDFCF80915D038F7BDBCF18
:1028700080915D03837FD7CF80915E038C7FA7CF4C
:1028800080915D0382FB992790F921E0922790FBCC
:1028900082F990FB83F9C7CF80915E03982F9095C2
:1028A00091708E7F892B90FB81F991CF0E94D21974
:1028B00090915D03892F97FB87F98058B4CF81E011
:1028C000ACCF81E021CFCF93DF93EB0186319C45E4
:1028D00011F50E94DB1E9A81992399F08A7A91E082
:1028E00009F490E090939501811109C089E20E945A
:1028F000B61E0E941A1F80E0DF91CF91089585E3F4
:10290000F6CF80919501811104C089E20E94BD1E1D
:10291000F0CF85E3FBCF81E0EFCF11B887E080B93E
:1029200085B3836085BB86B7846086BF86B78160C8
:1029300086BF86B7806486BF0895EF92FF920F939B
:102940001F93CF93DF93182FEB0116BE84EA86BF47
:102950000E949B207C0106B607FE21C081B1887FC2
:10296000883021F081B1887F8031B9F513B984E8CE
:1029700086BF0E949B208C0106B607FE23C021B1B2
:10298000287F90E080E02831B1F081E090E02034B1
:1029900011F490E080E09195819591090CC0CF3FB2
:1029A000DC07C9F20E949B208E199F098C179D0796
:1029B00090F28EEF9FEFDF91CF911F910F91FF90DB
:1029C000EF900895CF3FDC07B9F20E949B20801B57
:1029D000910B8C179D0780F2ECCF8FEF9FEFEBCF21
:1029E0000F931F93CF93DF93EB0183B984E886BFE6
:1029F0000E949B208C0106B607FE10C021B1287FE3
:102A000081E090E0283211F490E080E0919581958A
:102A10009109DF91CF911F910F910895CF3FDC076E
:102A200051F30E949B20801B910B8C179D0718F37C
:102A30008EEF9FEFEECFCF92DF92EF92FF920F9348
:102A40001F93CF93DF936B018A017901B9010E9433
:102A50009D14E6010C0D1D1DC017D10759F424E982
:102A600026BFDF91CF911F910F91FF90EF90DF90E4
:102A7000CF90089597FDF3CFB70189910E94F0148C
:102A8000EBCF90939B0180939A010895E0919A0176
:102A9000F0919B01309721F00190F081E02D099495
:102AA00080E00895E0919A01F0919B01309721F028
:102AB0000280F381E02D09940895209198013091CE
:102AC00099012817390771F0909399018093980123
:102AD000E0919A01F0919B01309721F00680F781F7
:102AE000E02D0994089520919601309197012817BF
:102AF000390771F09093970180939601E0919A01C4
:102B0000F0919B01309721F00084F185E02D09942C
:102B1000089584B7806884BF84B7806884BF0895AF
:102B2000089508950C9491150E9489150E9490159E
:102B30000C94DB0581E008950C949A150E94942072
:102B40000E94F4080E94F3200E9473110E940A1050
:102B50000C9492159F92AF92BF92CF92DF92EF9218
:102B6000FF920F931F93CF93DF93CDB7DEB72A97D2
:102B70000FB6F894DEBF0FBECDBF0E943C090E9485
:102B80009C15882309F470C05DE9A52E51E0B52E8F
:102B900010E000E0902E802F0E94E6086C01F50105
:102BA000E190F1905F01E816F90609F457C08091B1
:102BB000330281FD0E94EF0897012C253D2580E01E
:102BC000EE24E394F12CA9014E215F21452B09F459
:102BD0003FC08E839F82CE20DF2081E0CD2809F484
:102BE00080E088870E949B208160782F9A87898760
:102BF0004E815F8168858A850E945716000F111FDC
:102C0000F801E356FE4F80819181E826F926F18292
:102C1000E0820E943D100E94461590919C01891708
:102C2000A1F10E94461580939C012A960FB6F89454
:102C3000DEBF0FBECDBFDF91CF911F910F91FF90EF
:102C4000EF90DF90CF90BF90AF909F900C94FF06D5
:102C50008F5FEE0CFF1C803109F0B5CF0F5F1F4F67
:102C60000630110509F096CF8FEF89838A831B8286
:102C70000E949B208160782F9D838C8349815A819B
:102C80006B818D810E945716C4CF2A960FB6F89497
:102C9000DEBF0FBECDBFDF91CF911F910F91FF908F
:102CA000EF90DF90CF90BF90AF909F900895CF931B
:102CB000DF93CDB7DEB72B970FB6F894DEBF0FBE0C
:102CC000CDBF4F83588769877A878B871E821D8285
:102CD00085E0FE013796DE01119601900D928A95EE
:102CE000E1F749815A816B817C818D819E812B9690
:102CF0000FB6F894DEBF0FBECDBFDF91CF910C941D
:102D00004B1CFC01808191810C94881ECF93C82FAD
:102D1000882309F483C08238C1F40E94461581FDDE
:102D20007DC089E30E94B61E0E941A1F2FE789EA20
:102D300093E0215080409040E1F700C0000089E31B
:102D40000E94BD1ECF910C941A1F8338A1F40E94DB
:102D5000461580FD63C083E50E94B61E0E941A1FBF
:102D60002FE789EA93E0215080409040E1F700C0CE
:102D7000000083E5E5CF8438A1F40E94461582FD6A
:102D80004DC087E40E94B61E0E941A1F2FE789EAF1
:102D900093E0215080409040E1F700C0000087E4BC
:102DA000CFCF8CEF8C0F813A90F46C2F809177000D
:102DB000909178000E943C20882329F08C2F0E945B
:102DC000BD1E0E941A1F8C2F0E94B61EBBCF80E230
:102DD0008C0F883048F4C77081E001C0880FCA9515
:102DE000EAF70E94DE1EAECFEBE5EC0FE33040F4D5
:102DF000F0E0E85CFE4F808190E0CF910C945D158F
:102E0000C85AC73158F4EC2FF0E0EE0FFF1FE65F11
:102E1000FE4F80819181CF910C947315CF910895CD
:102E2000882309F44BC0823871F40E94461581FF53
:102E300045C089E30E94B61E0E941A1F89E30E94C2
:102E4000BD1E0C941A1F833859F40E94461580FF4A
:102E500035C083E50E94B61E0E941A1F83E5EFCF9E
:102E6000843859F40E94461582FF28C087E40E94E6
:102E7000B61E0E941A1F87E4E2CF9CEF980F913A8A
:102E8000F0F290E2980F983050F4877091E001C012
:102E9000990F8A95EAF7892F0E94E41ED2CF9BE50D
:102EA000980F933020F490E080E00C945D15885AE0
:102EB000873120F490E080E00C9473150895CF934F
:102EC000C82F0E948616C93349F42FEF8DEE92E089
:102ED000215080409040E1F700C000008C2FCF913E
:102EE0000C941017882321F00E94DE1E0C941A1FE8
:102EF0000895882321F00E94E41E0C941A1F08955F
:102F0000BF92CF92DF92EF92FF920F931F93CF93D6
:102F1000DF936C01D62FC72FFC01058102950F703E
:102F2000128111110E94FB1E0E94D41EE82E8823DC
:102F300091F01123E9F08C2F807F803421F080E222
:102F40008D0F8830A8F082E00E94651F0E94D41E79
:102F500091E0E82EE926BC2EB2949FE0B922FBE076
:102F6000FB15A8F1EB2DF0E0E656FA4D0C94682421
:102F7000E12CF1CF0C2F0F70C07F11F00295007F74
:102F80001123A9F0002359F080E28D0F883010F052
:102F9000D11109C0802F0E94DE1E0E941A1F8D2FA2
:102FA0000E94861614C0802F0E94EE1EF6CF8D2F31
:102FB0000E941017002359F080E28D0F883010F026
:102FC000D1112CC0802F0E94E41E0E941A1F2B2DAD
:102FD0002850330B2430310520F40E9446150E94FE
:102FE000FF06EE2009F483C10E94D01E80FD7FC140
:102FF000F60112820E94CA1E0E94571DC6010E943D
:1030000098190E94CA1EDF91CF911F910F91FF90D6
:10301000EF90DF90CF90BF900C94781D802F0E948E
:10302000F41ED3CF2C2F2F70F22EC07FC03219F098
:10303000F29480EFF822DD2369F0D13049F11123B9
:1030400091F1002351F1F601858180FFA8CF8F70A7
:10305000858323C0112381F0011106C00E94011F46
:103060008F290E947217B3CF0130C1F70E94011F50
:103070008F290E94071FABCF011106C00E94101FAD
:103080008F2D0E947917A3CF013009F4A0CFF6CF7E
:10309000112329F0063008F09ACF8F2DE2CF0530AA
:1030A00008F095CFEDCF002359F3D93349F4FFEF62
:1030B0002DEE32E0F15020403040E1F700C000003A
:1030C0008D2F0E94101783CF8C2F86958695837045
:1030D00069F0813009F07BCF8D2F9C2F93701111F7
:1030E00002C090E080E00E94731571CF8D2F9C2F5D
:1030F0009370111102C090E080E00E945D1567CFCF
:103100008C2F837009F041C0111161CF4D2F429572
:1031100046954770440F440F0D2F0F7010E030E0BC
:1031200020E0042E04C0000F111F221F331F0A9439
:10313000D2F760E070E0CB01D4FF0FC06FE070E029
:1031400080E090E004C0660F771F881F991F4A95A2
:10315000D2F76095709580959095C695C695C37089
:10316000602B712B822B932BC23049F058F4C13065
:1031700019F00E94091D2BCF0E94F71C28CF0E9436
:103180001B1D25CF0E94F51C22CF8695112311F01F
:103190008C2F8170882309F41ACF4D2F42954695C4
:1031A0004770440F440F0D2F0F7010E030E020E007
:1031B000042E04C0000F111F221F331F0A94D2F7E0
:1031C00060E070E0CB01D4FF0FC06FE070E080E002
:1031D00090E004C0660F771F881F991F4A95D2F7A9
:1031E0006095709580959095C695C695C370602B37
:1031F000712B822B932BC23049F058F4C13019F057
:103200000E94CE1DE4CE0E94BC1DE1CE0E94E01DB6
:10321000DECE0E94311DDBCECF70112329F08C2F22
:103220000E94571D8D2F1DCF8D2F0E9479178C2F37
:103230000E94781DCCCED23F89F160F4D03FC9F016
:10324000D13F29F1112309F442C00111A8CE8C2FDE
:103250008F7121C0D33F39F1D43FA1F7112369F118
:10326000CF718C2F0E94571D63E08C2F0E94501F3E
:10327000AECE112341F0053008F0A9CE8C2F8F710E
:103280000E949B1DA4CE063008F0A1CEF7CF8C2F54
:103290008F71112369F20E94571D99CE8C2F8F7167
:1032A0001123C9F3C5CF112329F08C2F8F710E94F0
:1032B000421D8DCE0E943D1D8ACE81E00E94651F79
:1032C000023008F484CE82E00E94651F80CE002385
:1032D00059F0D93309F0F4CE8FEF9DEEE2E0815042
:1032E0009040E040E1F7EACE8C2F8F71A1CFDF91C3
:1032F000CF911F910F91FF90EF90DF90CF90BF90F3
:1033000008950F931F93CF93DF93EC016881798128
:103310008A810E94921E8C010E94F21D0E94F41C60
:10332000B801CE01DF91CF911F910F910C948017BE
:10333000CF93DF93EC018B819C81892B29F08881CD
:10334000998189238F3F59F4DF91CF910895CE0160
:103350000E948119CE01DF91CF910C948B06CE0192
:103360000E94B2068111F3CF0E94D41E882361F31C
:103370008A81882349F382E0DF91CF910C94651F05
:103380000E94FB1E0E94FE1E0E941A1F90E080E019
:103390000E945D1590E080E00C9473150E94C41E9D
:1033A0000C94C0190E94EB1E0C94CE19E92FE295E3
:1033B000EF70E250EE3070F4F0E0EA55FA4D0C9404
:1033C0006824803F19F020F4883E20F481E00895BD
:1033D000843FE1F380E00895883EC0F3813FD1F758
:1033E000F5CF93FB882780F908950E94881E0C94DE
:1033F000D619CF93DF9300D000D00F92CDB7DEB7B0
:103400000F900F900F900F900F90DF91CF91089534
:10341000CF93DF9300D000D000D0CDB7DEB7269693
:103420000FB6F894DEBF0FBECDBFDF91CF910895E8
:103430001F93CF93DF93C091AA0116E08091AB0157
:103440008C1304C0DF91CF911F910895D0E01C9F91
:10345000F0011D9FF00D1124E455FE4F4081518174
:1034600062817381848195810E94081A2196C770B8
:10347000E5CF4091DC015091DD016091DE0170915A
:10348000DF018091E0019091E1010C94081A1F93F3
:10349000CF93DF938091E101807FA9F48091DE01D9
:1034A000882389F08091AA01C091AB016091DC0171
:1034B0007091DD01A091DF01B091E001D62FD723FB
:1034C00016E0C81304C0DF91CF911F91089590E0DA
:1034D000109711F0DF3F19F401968770F2CF189F13
:1034E0009001199F300D1124F901E455FE4F4181DF
:1034F0004713F2CF40814613EFCF42814111ECCF09
:10350000438154814A1B5B0B483C510528F780914D
:10351000E1018F7080618093E101F901EF54FE4F6A
:1035200080818F70806180838CED91E00E9498197A
:10353000DF91CF911F910C94181AAF92BF92CF9246
:10354000DF92EF92FF920F931F93CF93DF93CDB74C
:10355000DEB761970FB6F894DEBF0FBECDBF8C010A
:1035600085E0F801DE011D9601900D928A95E1F744
:10357000F80140815181E2808CEDC82E81E0D82E87
:103580006091DF017091E0016115710509F461C17D
:103590009091DC012091DD01892F82238F3F09F476
:1035A00058C1A380B480F090DE01F501E61BF70B53
:1035B000FF2009F4FCC08091E101382F307FE83C06
:1035C000F10508F0B2C0311179C0FE2C251323C0DB
:1035D000941321C0E1101FC08F7080618093E101BE
:1035E0000E94391AC6010E9498198091E101F801E0
:1035F00085838F2D61960FB6F894DEBF0FBECDBFC9
:10360000DF91CF911F910F91FF90EF90DF90CF90BE
:10361000BF90AF900895AB2829F0842F85238F3F6A
:1036200009F033C180E0F82FF170DF2E80FF3CC03D
:103630008091AA012091AB0136E0821315C04D871D
:103640005E878D859E850E94881E292F22952F706A
:103650002230F0F0243018F59F70F1F0F8019581D8
:10366000907FD1F4D12C1EC090E0389FF001399F9B
:10367000F00D1124E455FE4F6181651306C0608191
:10368000641303C062816E110FC001968770D5CF9D
:103690009F7011F0882331F3805E883018F3C801E1
:1036A0000E949819FD2CA5CFEE2009F4A2CF80919D
:1036B000E10181608093E101F12C9BCF251306C0CD
:1036C000941304C0F801EE2009F48DC04D875E8785
:1036D0008D859E850E94F519882319F1EE2009F148
:1036E0008091E101803270F02091DC013091DD01A8
:1036F00038872F831986BB86AA868C87CE010796CA
:103700000E94981986E0F801ACEDB1E001900D92AD
:103710008A95E1F70E94471A0E94391AFF24F39410
:1037200068CFC8010E949819F9CF311113C07A2DC2
:10373000B98AA88A6E2D89890E94F9198CED91E0C9
:103740000E94981986E0F60111928A95E9F70E9485
:10375000391AB2CF25130FC094130DC0E1100BC05E
:10376000F8018583C8010E94981986E0F60111923C
:103770008A95E9F73ECF4D875E878D859E850E94AD
:10378000F519882371F2EE2061F28091E101803217
:1037900008F4B8CF2091DC013091DD013A83298310
:1037A0001B82BD82AC828E83CE010196A9CFE83CFC
:1037B000F10508F041C0FE2CEE2009F4B2CF25132C
:1037C0002AC0941328C08091E10180FD1BC0982F6E
:1037D000907FC1F0F8018583903F31F0982F907F62
:1037E000905F8F70892B8583C8010E94981986E0AD
:1037F000F801ACEDB1E001900D928A95E1F70E94DD
:10380000391AF7CE86E0F801ACEDB1E001900D92E7
:103810008A95E1F7EECE4D875E878D859E850E9465
:10382000F51981116FCF8091E10181608093E101F1
:10383000C8010E949819DDCE7A2DB98AA88A6E2D0A
:1038400089890E94F91986E0F60111928A95E9F7B3
:10385000D6CFEE2009F465CF4D875E878D859E8596
:103860000E94F519F82E882309F45BCF86E0F80151
:10387000ACEDB1E001900D928A95E1F78CED91E00D
:103880000E9481160E94471ABACF81E08E25CBCEC6
:1038900088EC90E008951F93CF93DF93CDB7DEB708
:1038A0002C970FB6F894DEBF0FBECDBF4F8358875D
:1038B00069877A878B879C87CE0107960E949D1A1D
:1038C000882369F08A859B85892B39F04F8158853B
:1038D000842F85238F3F09F071C016E05FC086E01A
:1038E000FE013796DE01119601900D928A95E1F75F
:1038F0008A859B85892B89F38F81988589238F3FC2
:1039000061F32091AB0130E0C901019687709927DE
:103910004091AA014817190671F40E94D219109219
:10392000AB011092AA0186E0ECEDF1E0DF011D92FF
:103930008A95E9F7D2CF96E0929FD001939FB00D80
:103940001124A455BE4FFE01319601900D929A9517
:10395000E1F78093AB010E94181ABFCF819FC0018D
:10396000112484559E4F0E949D1A8823E9F0E0910E
:10397000AA011E9FF0011124E455FE4F40815181A0
:1039800062817381848195810E94081A8091AA01C5
:1039900090E00196877099278093AA018091AA01EF
:1039A0009091AB018913DACF2C960FB6F894DEBF55
:1039B0000FBECDBFDF91CF911F91089569857A85A4
:1039C0008B859C850E94081A88CF08950C94E51C6D
:1039D0000E94E61C609322027093230280932402CB
:1039E000909325020C94C01908950C94E81C0F9331
:1039F0001F93009122021091230220912402309102
:103A00002502602B712B822B932B1F910F910C940D
:103A1000E81C0F931F930091220210912302209122
:103A200024023091250260237123822393231F9166
:103A30000F910C94E81C0F931F9300912202109198
:103A400023022091240230912502602771278227CA
:103A500093271F910F910C94E81C0C94E51C0C9477
:103A60002D1D0E942F1D60931E0270931F028093D4
:103A70002002909321020C94C01960E070E0CB0109
:103A80000C94311D0F931F9341E050E060E070E013
:103A90008A019B0104C0000F111F221F331F8A954A
:103AA000D2F7C901B8011F910F910C94311D0F93EA
:103AB0001F9341E050E060E070E004C0440F551FE8
:103AC000661F771F8A95D2F780911E0290911F0280
:103AD000A0912002B09121028A019B01082B192B91
:103AE0002A2B3B2BC901B8011F910F910C94311D5A
:103AF0000F931F9341E050E060E070E004C0440F7A
:103B0000551F661F771F8A95D2F7CB01BA016095C2
:103B100070958095909500911E0210911F02209142
:103B200020023091210260237123822393231F916D
:103B30000F910C94311D0F931F9341E050E060E012
:103B400070E004C0440F551F661F771F8A95D2F797
:103B500080911E0290911F02A0912002B09121023B
:103B60008A019B01082719272A273B27C901B80189
:103B70001F910F910C94311D0F931F9300911E0202
:103B800010911F022091200230912102602B712B95
:103B9000822B932B1F910F910C94311D0F931F9328
:103BA00000911E0210911F022091200230912102EB
:103BB00060237123822393231F910F910C94311D55
:103BC0000F931F9300911E0210911F02209120025B
:103BD0003091210260277127822793271F910F912F
:103BE0000C94311D08959295907F890F982F9770AE
:103BF00041E001C0440F9A95EAF78695869586952F
:103C000095E0899FF0011124EE51FE4F30E020E055
:103C100070E05191DF011197CB01022E02C0969501
:103C200087950A94E2F781708195852784238527FB
:103C30008C932F5F3F4F2530310559F708959295AA
:103C4000907F890F982F977086958695869525E0A9
:103C5000829FF0011124EE51FE4F50E040E080E0E1
:103C6000219130E0092E02C0369527950A94E2F79B
:103C700021703327042E01C0220F0A94EAF7822B09
:103C80004F5F5F4F4530510559F70895BF92CF926E
:103C9000DF92EF92FF920F931F93CF93DF938C01EC
:103CA000C0901E02D0901F02E0902002F0902102EE
:103CB0008091220290912302A0912402B0912502CA
:103CC000C82AD92AEA2AFB2ACFE1D0E0BC2ED701A4
:103CD000C6010C2E04C0B695A795979587950A94B2
:103CE000D2F780FD0EC0219788F7B12C8B2DDF9184
:103CF000CF911F910F91FF90EF90DF90CF90BF90E9
:103D00000895B8018C2F0E941C07019761F3EECF34
:103D1000CF93DF93EC010E94461EBE01DF91CF914D
:103D20000C941C071F93CF93DF93EB019091A90193
:103D3000992331F0CB01DF91CF911F910C94881E14
:103D4000882379F0CB010E94461E182F682FCE01E0
:103D50000E94F31DBE01812FDF91CF911F910C9422
:103D60001C07CB010E941F1E182FF4CF682F8091D3
:103D70007700909178000C947220682F80917700E2
:103D8000909178000C947420809177009091780045
:103D90000C947620809126028595859585950895C9
:103DA000809126028770089590912602977081E095
:103DB00009F480E0089580913202089590913202D2
:103DC000892B809332020895809590913202982336
:103DD0009093320208951092320208959091310228
:103DE000892B809331020895809590913102982318
:103DF000909331020895109231020895109230028A
:103E0000089580912702089508950C94041F9091BD
:103E10002702981721F0809327020C94051F08951C
:103E200080912702882329F01092270280E00C94C9
:103E3000051F0895E0917700F0917800809132029B
:103E40008083E0917700F091780080819091310239
:103E5000892B8083E0917700F091780080819091A8
:103E60003002892B808390912702992381F0E09181
:103E70007700F09178008081892B80838091770092
:103E8000909178000E942A2081110E94101F809139
:103E90007700909178000C94521508950C944D1F62
:103EA00098E0899F90011124622B609326020E9462
:103EB000571D809126028595859585950C944E1FFA
:103EC0001092260280E00C944E1F9091260280955D
:103ED000892380932602282F277071F4282F082E1B
:103EE000000C330B9217130639F08595859585954F
:103EF0000E94781D0C94601F089590E080E00E945D
:103F00001F2521E08C3E9E4F09F020E0822F08956E
:103F100082E090E00C94112583E090E00C94112550
:103F2000CF9384E090E00E941125C82F81E290E0B9
:103F30000E941125982F8C2FCF910895CF93C92FD0
:103F4000682F84E090E00E9425256C2F81E290E0AC
:103F5000CF910C94252586E090E00C941125682FD4
:103F600086E090E00C942525AB01BC018FE090E049
:103F70000C943625AB01BC0183E190E00C9436250E
:103F800060E070E0CB010C94BA1F60E070E0CB0100
:103F90000E94B41F0C94C01F6CEE7EEF90E080E096
:103FA0000E94422560E082E090E00E94252560E0CA
:103FB00083E090E00E9425251092220210922302B5
:103FC000109224021092250260E084E090E00E94AA
:103FD000252560E081E290E00E94252560E085E0F3
:103FE00090E00E94252560E086E090E00E94252573
:103FF0006FEF87E090E00E94252540E050E0BA0195
:1040000088E090E00E94362560E08DE090E00E941C
:10401000252540E050E0BA0188E190E00E94362575
:1040200060E087E190E00E94252540E050E0BA0181
:104030008CE190E00E94362560E080E290E00E94F2
:1040400025250C94C51F0C94CC1F682F8EE090E0A2
:104050000C9425259C012E5F3F4FAC01485F5F4FBC
:1040600080E02417350709F40895F90191919F0123
:104070009923B9F38F5FF5CF662349F0FC0132969F
:1040800008962191261729F0E817F907D1F780E063
:10409000089581E008959C01FC0132969FEF80E035
:1040A0004191461751F09F3F19F4411101C0982FDB
:1040B0008F5F8630A9F79F3F09F40895290F311DBE
:1040C00097FD3A95F90162830895FC0132960896AE
:1040D0002191261303C0DF0111971C92E817F907FD
:1040E000B9F708950C944B200C946520029626E0B5
:1040F000FC0111922A95E9F7089508950895CF9348
:104100000E947D200E943C090E947E20C0E08C2FEE
:104110000E94E608892B31F4CF5FC630C1F780E0FA
:10412000CF91089581E0FCCF8BE083BF8BEB8CBFF8
:1041300082E089BF08952FB7F89480915903909138
:104140005A03A0915B03B0915C032FBF08959C01BB
:104150004FB7F8948091590390915A03A0915B0353
:10416000B0915C034FBF821B930B089578941F920C
:104170001FB61F9211248F939F93AF93BF9380918B
:10418000590390915A03A0915B03B0915C0301968F
:10419000A11DB11D8093590390935A03A0935B0313
:1041A000B0935C03BF91AF919F918F911F901FBE01
:1041B0001F90189560E081E090E00E94482587E01C
:1041C00090EBDC018093AF039093B003A093B10315
:1041D000B093B20388E19CE00FB6F894A89581BD36
:1041E0000FBE91BDFFCF0E947D1F811102C00E94B2
:1041F00023200E94881F809333020E94901F909377
:104200005E0380935D030E948C1F682F70E090E036
:1042100080E00E94F51C60911E0270911F02809147
:104220002002909121020C942F1D0E949B208C0152
:104230000E9494150E9408220E9441150E94E923C1
:104240008B9A80E0815039F58B987894FFEB24EDC0
:1042500031E0F15020403040E1F700C000000E9402
:104260009E15C0E0DCE0809186038823F1F0109277
:1042700086030E949B208C010E94F92280918C036E
:10428000882329F080916A0384FD0E94AA150E9468
:10429000AF21C0E0E8CFA895E7EBFBE03197F1F75D
:1042A00000C00000CFCFC1E0DECFC8010E94A72030
:1042B000069710F4CC2301F30E947F20C82F882397
:1042C00091F3F89491B3939A892F8C6081BB82B358
:1042D0008D2782BB8FE5EAEEF0E08150E040F040B0
:1042E000E1F700C0000082B38D2782BB91BB939899
:1042F0007894B9CF8091C50208950895CF93DF9344
:1043000000D00F92CDB7DEB790913602981307C058
:1043100020913402309135022617370791F08093AF
:104320003602709335026093340289837B836A83FB
:104330008091A30384FF05C063E0CE0101960E9433
:10434000F5220F900F900F90DF91CF910895BC014F
:1043500084E00C947E21BC0183E00C947E21CF93F9
:10436000DF93CAE0D0E080916A0384FF1AC0809195
:10437000420290914302981789F028E0829FC00181
:10438000112468E08C5B9D4F0E94F12280914202D3
:1043900090E001968F70992780934202DF91CF9130
:1043A00008950E94F92287EB9BE00197F1F700C086
:1043B00000002197C1F6F2CFCF93DF93EC01A091DB
:1043C0004302B0E0CD0101968F70992720914202FF
:1043D000281779F093E0AA0FBB1F9A95E1F7AC5B21
:1043E000BD4F98E0FE0101900D929A95E1F7809300
:1043F00043020E94F9220E94AF2188E0FE01AAE355
:10440000B2E001900D928A95E1F7DF91CF91089586
:1044100089E790E00895FC01808180768032F1F494
:104420008181813061F484819581892BB9F48AE39B
:1044300092E0909388038093870388E00895823008
:1044400041F484EC92E0909388038093870381E0A9
:1044500008958A3029F483818093C40280E008950E
:104460008930E1F7828193818115924069F48481DA
:104470009581892B49F481E0809339028681978167
:1044800090933802809337028FEF0895FC0180915A
:10449000370290913802892B61F080913902813086
:1044A00041F490819093C502109238021092370225
:1044B00008958FEF08950895FC019381933059F189
:1044C00030F49130C1F09230F1F080E008959132F3
:1044D00009F445C09232C9F784819581009709F4A7
:1044E0004FC0019791F785EE95E0909388038093F4
:1044F000870382E3089589EA95E090938803809387
:10450000870382E108958EE695E090938803809377
:1045100087038BE308958281813089F0882339F005
:104520008230A9F0833089F68BEB95E002C081EEF2
:1045300095E0909388038093870384E0089583ED4A
:1045400095E090938803809387038CE0089581EC35
:1045500095E0909388038093870380E1089582819A
:10456000882331F0813009F0B0CF89E995E002C0AD
:1045700080E895E0909388038093870389E008950D
:1045800087E196E0909388038093870380E4089501
:104590001F93CF93DF93E82F792F162FEA0188819D
:1045A00084FF1CC0298188E828272983CE01029630
:1045B000DC012E2F372F512F5E0FF90121912D9302
:1045C0009F01452F4E1B1416C4F3612F0E948703D1
:1045D0001C5F1883DF91CF911F9108958AE588832E
:1045E000E5CF4AE653E00C94C82243EA53E00C942A
:1045F000C822CF93DF9360918903635067FD12C097
:1046000080918503CCE0D0E0C81BD109C357DC4FB3
:1046100080918403803108F054C0CE010E945B2257
:10462000109289038091840084FF3EC080918300B2
:104630008F3FD1F1C82F893008F0C8E0982F9C1B1C
:104640009093830090915F0328E8922790935F03F3
:104650008823E9F080918703909188032091830358
:1046600026FFAEC0FC012C2FA0E6B3E034913D93B1
:1046700031962150D9F79C012F5F3F4F8FEF8C0F60
:10468000820F932F911D90938803809387036C2F43
:1046900080E693E00E948703CC5FCC3019F08FEF67
:1046A00080938300C093840084E190B39C7031F4C4
:1046B0008150D9F710928A0310928203DF91CF9133
:1046C00008958D3209F069C0683009F0A9CF83ECF4
:1046D00080935F038AE5809384001092830388812E
:1046E000807671F0CE010E940B228F3FC1F4988139
:1046F00097FD8E8190E8909383038093830090CF01
:104700002A81109268039981911111C01092690356
:1047100028E633E082E030938803209387039F816B
:104720009111EBCF9E81981740F7892FE6CF9530F6
:1047300029F420938A0328E633E0EDCF963099F4EC
:104740009B81913021F4CE010E945C2208C09230FE
:10475000D1F39330C1F39132B1F39232A1F390E4EB
:1047600090938303C2CF983089F0993019F4209345
:104770008C03E1CF9A3071F09B30E9F69BE4909383
:104780006B039093A40390937703D5CF2CE833E089
:1047900081E0C1CF28E633E0FBCF8091830387FF20
:1047A0003FCFCE010E9446228F3F21F48EE18093BD
:1047B000840036CF882309F433CF1092830030CFA2
:1047C000DC012C2FE0E6F3E03D9131932150E1F73D
:1047D00052CFCF93DF9385B7886085BF8BB7806852
:1047E0008BBFCAE6D3E08BE48983A3EAB3E01196DA
:1047F0008C931197E6E7F3E081838AE588838C93B5
:104800008083DF91CF910895991B79E004C0991FAF
:10481000961708F0961B881F7A95C9F7809508951A
:1048200087FB082E062687FD819567FD61950E940E
:1048300004240EF4919507FC81950895AA1BBB1BD7
:1048400051E107C0AA1FBB1FA617B70710F0A61B90
:10485000B70B881F991F5A95A9F780959095BC01B1
:10486000CD01089597FB072E16F4009407D077FD2D
:1048700009D00E941E2407FC05D03EF49095819536
:104880009F4F0895709561957F4F0895A1E21A2E6C
:10489000AA1BBB1BFD010DC0AA1FBB1FEE1FFF1FE4
:1048A000A217B307E407F50720F0A21BB30BE40B34
:1048B000F50B661F771F881F991F1A9469F760957B
:1048C0007095809590959B01AC01BD01CF01089535
:1048D000EE0FFF1F0590F491E02D09940E947624BD
:1048E000332312F48A1B9B0B0C948724A29FB001E4
:1048F000B39FC001A39F700D811D1124911DB29F14
:10490000700D811D1124911D08950E947624B7FF1A
:104910000895821B930B08950E947624A59F900D05
:10492000B49F900DA49F800D911D11240895B7FF91
:104930000C948C240E948C24821B930B08958F92DC
:104940009F92AF92BF92CF92DF92EF92FF92CF935E
:10495000DF93EC01688179818A819B816115710502
:104960008105910521F464E279ED8BE597E02DE175
:1049700033EF41E050E00E94652549015A019B0157
:10498000AC01A7EAB1E40E948C246B017C01ACEE7F
:10499000B4EFA50194010E949A24DC01CB018C0D97
:1049A0009D1DAE1DBF1DB7FF03C00197A109B048F3
:1049B00088839983AA83BB839F77DF91CF91FF90F0
:1049C000EF90DF90CF90BF90AF909F908F90089521
:1049D0000E949F24089580E690E00E949F240895FD
:1049E000B0E0A0E08093600090936100A09362002B
:1049F000B09363000895FC014150504030F00190A5
:104A00000616D1F73197CF01089588279927089581
:104A1000FB01DC0102C001900D9241505040D8F7DB
:104A20000895E199FECF9FBB8EBBE09A99278DB385
:104A30000895A6E1B0E044E050E00C945725A8E1C9
:104A4000B0E042E050E00C945725262FE199FECFCC
:104A50009FBB8EBBE09A01970DB2021631F02DBBC1
:104A60000FB6F894E29AE19A0FBE08950396272FA5
:104A70000E9426250E942525252F0E942625242FC9
:104A80000C9426250196272F0E9426250C94252577
:104A9000262FE199FECF9FBB8EBB2DBB0FB6F8949E
:104AA000E29AE19A0FBE01960895DC01CB01FC0168
:104AB000E199FECF06C0FFBBEEBBE09A31960DB286
:104AC0000D9241505040B8F70895052E97FB1EF403
:104AD00000940E947C2557FD07D00E94462407FCC5
:104AE00003D04EF40C947C2550954095309521953B
:104AF0003F4F4F4F5F4F089590958095709561950A
:104B00007F4F8F4F9F4F0895F894FFCF18112011BA
:104B100027112C11311136113B11401145114A1149
:104B20004F11541158115D11601163116611691113
:104B30006B116E11BA17BA17121812186418E7170A
:104B4000E717E71780180C191B191B19E119E11950
:104B5000EA19EA19EC19EA19EA19EA19E119E1194D
:084B6000F119EA19EA19F11933
:104B680001000000010102000E000E0E01191A1BBF
:104B78001C1D1E1F20212228027A21DC217D21AB49
:104B880021A721FF5A0505050505050505050505A4
:104B98000505050505010501E200E900EA00B50083
:104BA800B600B700CD008301CC008A0192019401C0
:104BB8002102230224022502260227022A02B30028
:104BC800B4006F00700081828390919293949596BF
:104BD80097606162636465666732333435363700DF
:104BE80001020202020606060909090909090F0F4E
:104BF8000F0F0F0F15151518191919191919191952
:104C080019192324252525252525E200E900EA0090
:104C1800B500B600B700CD008301CC008A0192012F
:104C280094012102230224022502260227022A02D5
:0C4C3800B300B4006F00700081828300A4
:00000001FF
