:100000000C9431030C9475030C9490030C947503B9
:100010000C9475030C9475030C9475030C94750380
:100020000C9475030C9475030C94C3200C94750305
:100030000C9475030C9475030C9475030C94750360
:100040000C9475030C9475030C9475030C94750350
:100050000C94750329003A003B003C003D003E0033
:100060003F0040004100420043004400450046007C
:100070004700480035001E001F002000210022001C
:10008000230024002500260027002D002E004C0010
:100090002A0049002B0014001A0008001500170060
:1000A0001C0018000C00120013002F00300031005B
:1000B0004A004B00394104001600070009000A00FD
:1000C0000B000D000E000F0033003400320028003A
:1000D0004D004E00E10064001D001B0006001900E9
:1000E000050011001000360037003800E50021003F
:1000F00052004C00E000E300E2002C00E20020008F
:100100002C001F002C00E600E7006500E400500012
:1001100051004F00005C01000100010001000100DE
:1001200001000100010001000100010001000100C7
:1001300001000100010001000100010001000100B7
:1001400001000100010001000100010001000100A7
:100150000100010001000100010001000100010097
:1001600001000100010001000100AA00A900010036
:100170000100010001000100010001000100010077
:100180000100010001000100010001000100010067
:100190000100010001000100010001000100010057
:1001A00001000100A80001000100010001000100A0
:1001B0000100010001000100010001000100010037
:1001C0000100010001000100010001000100010027
:1001D0000100010001000100010001000100010017
:1001E0000100010001000100010001000100010007
:1001F00001000100010001000100010001000100F7
:1002000001000100010001000100010001000100E6
:1002100001000100010001000100010001000100D6
:1002200001000100010001000100010001000100C6
:1002300001000100010001000100010001000100B6
:1002400001000100010001000100010001000100A6
:100250000100010001000100010001000100010096
:100260000100010001000100010001000100010086
:100270000100010001000100010001000100010076
:100280000100010001000100010001000100010066
:100290000100010001000100010001000100010056
:1002A0000100010001000100010001000100010046
:1002B0000100010001000100010001000100010036
:1002C0000100010001000100010001000100010026
:1002D0000100010001000100010001000100010016
:1002E0000100010001000100010001000100010006
:1002F00001000100010001000100010001000100F6
:1003000001000100010001000100010001000100E5
:1003100001000100010001000100010001000100D5
:1003200001000100010001000100010001000100C5
:1003300001000100010001000100010001000100B5
:1003400001000100010001000100010001000100A5
:100350000100010032190A00047F3F1F6432146457
:100360003214783C1E1E140A052223252628292A29
:100370002C2D2F3032333536383A3B3D3E40424308
:100380004547494A4C4E5051535557595A5C5E6047
:1003900062646668696B6D6F71737577797B7D7F59
:1003A00081838587898A8C8E90929496989A9C9E58
:1003B0009FA1A3A5A7A8AAACAEAFB1B3B4B6B8B974
:1003C000BBBCBEBFC1C2C3C5C6C7C9CACBCCCDCEDC
:1003D000D0D1D2D2D3D4D5D6D7D7D8D9D9DADADBBF
:1003E000DBDBDCDCDCDCDCDDDDDDDDDCDCDCDCDC4B
:1003F000DBDBDBDADAD9D9D8D7D7D6D5D4D3D2D28A
:10040000D1D0CECDCCCBCAC9C7C6C5C3C2C1BFBE71
:10041000BCBBB9B8B6B4B3B1AFAEACAAA8A7A5A3DC
:10042000A19F9E9C9A98969492908E8C8A8987859B
:1004300083817F7D7B79777573716F6D6B6968667A
:100440006462605E5C5A5957555351504E4C4A494C
:1004500047454342403E3D3B3A3836353332302FF4
:100460002D2C2A292826252322FFAA7F554000016A
:100470000101010101010101020202020202020264
:100480000203030303030303030404040404040436
:1004900005050505050606060606070707070708FA
:1004A000080808090909090A0A0A0B0B0B0C0C0CAD
:1004B0000D0D0D0E0E0E0F0F0F1010111111121247
:1004C00013131414151516161717181819191A1AC4
:1004D0001B1B1C1D1D1E1E1F202021222223242425
:1004E000252626272829292A2B2C2D2D2E2F303161
:1004F0003232333435363738393A3B3C3D3E3F4073
:100500004142434445464748494A4C4D4E4F50515D
:100510005354555658595A5B5D5E5F616264656617
:1005200068696B6C6D6F7072737577787A7B7D7E9E
:100530008082838587888A8C8E8F91939596989AEE
:100540009C9EA0A2A3A5A7A9ABADAFB1B3B5B7BA06
:10055000BCBEC0C2C4C6C9CBCDCFD1D4D6D8DBDDDA
:10056000DFE2E4E7E9EBEEF0F3F5F8FAFDFF09026C
:100570003B00020100A0FA09040000010301010090
:100580000921010100012240000705810308000143
:1005900009040100010300000009210101000122FA
:1005A000320007058303080001120110010000005A
:1005B00008FEFF5141000101020301040330000065
:1005C000001A034C00650065004B00750020004CCC
:1005D000003300200054004B004C0000000C034C82
:1005E00000650065004B0075000000040309040568
:1005F000010980A101850319012AB700150126B759
:1006000000950175108100C0050C0901A101850448
:1006100019012AA002150126A0029501751081007A
:10062000C005010906A101050719E029E715002504
:100630000195087501810295017508810305071967
:100640000029FF150026FF009506750881000508A2
:10065000190129059505750191029501750391030D
:10066000C00011241FBECFE5D8E0DEBFCDBF04B669
:1006700003FE24C08091DF039091E003A091E10389
:10068000B091E2038730904BA740B04BB9F4109281
:10069000DF031092E0031092E1031092E20314BE14
:1006A00084B7877F84BF0FB6F894A89581B5886119
:1006B00081BD11BC0FBEE0E0F8E3099511E0A0E6B2
:1006C000B0E0E2E8FBE402C005900D92AC33B10764
:1006D000D9F723E0ACE3B1E001C01D92AF3DB20712
:1006E000E1F70E9422210C9491250C940000A82F80
:1006F000B92F80E090E041E050EA609530E009C019
:100700002D9182279795879510F084279527305E45
:10071000C8F36F5FA8F30895EADF8D939D93089562
:10072000CF93CFB7CF93C395839BE9F7839B0EC03D
:10073000839B0CC0839B0AC0839B08C0839B06C01D
:10074000C091B603C395C093B603A6C0DF93C09112
:10075000B503DD27C354DC4F839B02C0DF91E6CF96
:100760002F930F931F9300B32FEF03FB20F94F93A9
:100770003F9310B34FEF012703FB21F93BE031C05A
:100780004E7F012F10B3216028C0102F4D7F2260B3
:10079000000000B329C04B7F2460012F000010B37C
:1007A0002BC010B3477F28602AC04F7E00B3206162
:1007B0002CC04F7D10B320622FC04F7B00B320644C
:1007C00032C0422700B349934FEF0000102713FBBC
:1007D00020F910B31C70C9F1297F91F2012703FBA6
:1007E00021F900B3237F89F2315058F1102713FB10
:1007F00022F910B3277E79F2012703FB23F92F7C1E
:1008000081F200B3102713FB24F92F7971F200C095
:1008100010B3012703FB25F92F7359F200C000B371
:10082000102713FB26F9223040F200C010B3012735
:1008300003FB27F9243028F64F77206810B3000017
:10084000F9CF10E81ABF00271CC03B503195C31BDD
:10085000D04010E81ABF0881033C11F10B3401F1BC
:100860002091B2031981110F1213EDCF4A81441F59
:10087000093669F10D3211F0013E29F74F7009F088
:10088000042F0093BB033F914F911F910F912F9124
:10089000DF91CAB7C7FD47CFCF91CFBFCF91189592
:1008A0002091BB03222379F31091B903112309F09E
:1008B00044C034300AF443C03093B9032093B403E6
:1008C0001091B5033BE0311B3093B50338C0009164
:1008D000B903013094F50AE54F7049F43091840072
:1008E00034FD2FC000938400CFE8D3E02EC0433006
:1008F00059F0443091F030919A0334FD22C00093B6
:100900009A03CBE9D3E021C03091D30334FD19C061
:100910000093D303C4EDD3E018C03091A60334FD97
:1009200010C00093A603C7EAD3E00FC02795A8F430
:100930005150A9F4220F0000F9CF4AE503C042ED5F
:1009400001C0432FC4E1D0E032E011B31C60939AA0
:1009500011BB02B320E41CE05F93012756E002BB09
:10096000279520F4515021F4220FF9CF012756E0AA
:1009700000003B5A02BBD0F2279528F4515029F4CD
:10098000220F0000F9CF012756E0279502BB20F483
:10099000515021F4220FF9CF012756E0299133233A
:1009A00002BB21F6037F1091BA03110FC651D0404C
:1009B00002BB11F01093B20310E81ABF086011B324
:1009C000137F402F437F5F9100C000C002BB11BB6B
:1009D00042BB59CFA8950C94ED0898E29093E4029D
:1009E00094E09093E5029FEF9093E6028093E702F4
:1009F00024E630E044E050E064EE72E080EB0E94D8
:100A00002815892B81F087E99AE30197F1F700C057
:100A100000004091E50250E024E630E064EE72E030
:100A200080EB0C94281508950C94ED041F93CF933C
:100A3000DF93CDB7DEB72F970FB6F894DEBF0FBEAA
:100A4000CDBF80913C01811105C00E949A1481E0C4
:100A500080933C0180E00E94ED0487E99AE30197CE
:100A6000F1F700C000008FE0E5E8F0E0DE0111964C
:100A700001900D928A95E1F78BE28093E40281E187
:100A80008093E5028FE0FE013196A6EEB2E0019080
:100A90000D928A95E1F724E630E041E150E064EE02
:100AA00072E080EB0E94281587E99AE30197F1F73D
:100AB00000C000001092E40215E01093E50285E109
:100AC0008093E60288EC90E09093E8028093E7023E
:100AD00024E630E045E050E064EE72E080EB0E94F6
:100AE000281587E99AE30197F1F700C0000084E137
:100AF0008093E40286E08093E5021092E602109271
:100B0000E7021092E8021092E90224E630E046E0A3
:100B100050E064EE72E080EB0E94281587E99AE3CA
:100B20000197F1F700C000008AE18093E40284E0BD
:100B30008093E50283E090E09093E7028093E602E1
:100B400024E630E044E050E064EE72E080EB0E9486
:100B5000281587E99AE30197F1F700C0000080911A
:100B6000940090919500A0919600B091970029E192
:100B70002093E40227E02093E5021093E60280939D
:100B8000E7029093E802A093E902B093EA0224E618
:100B900030E047E050E064EE72E080EB0E94281500
:100BA00087E99AE30197F1F700C0000060E182E075
:100BB0002F960FB6F894DEBF0FBECDBFDF91CF9159
:100BC0001F910C949E0A8FEF8BBB1ABA88BB17BA81
:100BD00085BB14BA81EF82BB83E081BB88E19FE0D3
:100BE0000FB6F894A89581BD0FBE91BD0C94160563
:100BF000E4EEF2E027E1208320E421836283209168
:100C000067002383AB01440F551F460F571FBC01DC
:100C100088EE92E00E94152524E630E040E450E0A2
:100C200064EE72E080EB0C94281570E00C94F805EB
:100C3000CF93DF93C82F0E940507D82F882351F147
:100C400083E08093E4028093E5028C2F8170C0FDE5
:100C500084E0C1FD8260C2FD81608093E60224E6EB
:100C600030E043E050E064EE72E080EB0E94281533
:100C7000892B81F087E99AE30197F1F700C0000022
:100C80004091E50250E024E630E064EE72E080EB53
:100C90000E9428158D2FDF91CF91089581E008954E
:100CA00081E008950C94500608950C9454061F9307
:100CB000CF93DF9300D000D00F92CDB7DEB749833A
:100CC0005A836B833091C70189819A8131111DC08C
:100CD0006623B9F02223A9F00E94531E182F682F13
:100CE00089819A810E94001E69817A81812F0F90EB
:100CF0000F900F900F900F90DF91CF911F910C9458
:100D00000F070E942C1E182FEFCF0E94531E6981DF
:100D10007A81EDCFFC01262F408151816281738160
:100D200084810C945706CF93DF93EC0160E00E941E
:100D30008A06BE01DF91CF910C9455060E948A1F4E
:100D4000811102C00E9430200E947F110C94EB0898
:100D50000C94EA0408950E94DF190E94AA062FEB62
:100D600087E299E0215080409040E1F700C0000008
:100D70000C94E7200F931F93CF93DF93EC0161E076
:100D80000E948A068C01BE010E945206882389F1C6
:100D9000BE01C8010E944012882359F1BE01C8015A
:100DA0000E94FB12882329F1BE01C8010E944D1345
:100DB0008823F9F0BE01C8010E9470148823C9F08D
:100DC000BE01C8010E940F11882399F08A818823EF
:100DD00039F001158CE5180751F00E3D1C4579F0EE
:100DE000CE01DF91CF911F910F910C944E060E947E
:100DF000AB0680E0DF91CF911F910F9108950E9483
:100E00003020F7CF08950C94020781E00895CF9326
:100E1000C82F0E9403078C2FCF910C941806E72F40
:100E2000F0E096E0899FE00DF11D112484E0EE0FC3
:100E3000FF1F8A95E1F7E60FF11DEE0FFF1FEC5A39
:100E4000FF4F859194910895CF93DF930E940F07F0
:100E50000E941008EC01811522E59207E8F5811542
:100E600031E5930708F0ACC0883E910510F5803E4F
:100E7000910570F5883A910570F4853A910508F06E
:100E800078C08130910521F1009711F1049700F5A8
:100E9000D0E0C0E01DC08F3B9105D0F7C85AD0E02C
:100EA000CC0FDD1FC856DF4F0990D881C02DD46408
:100EB0000FC0811540E5940708F066C0C11580E4B5
:100EC000D80708F05EC0CE019A9581159F4100F7C2
:100ED000CE01DF91CF910895811536E5930718F57E
:100EE000811545E5940708F083C0C11584E5D8074E
:100EF00008F079C09C2F969596959E012370332714
:100F0000C115D34508F461C0C1E0D0E002C0CC0FE8
:100F1000DD1F2A95E2F730E2939FC0011124C82B10
:100F2000D92BDA68D5CFC1158AE5D80778F4C11571
:100F300099E5D90708F066C0C11528E5D20708F47D
:100F4000A7CFDC2FCC27C06FD06AC2CFCE0190567E
:100F50008115904208F09CCF8D2F8F710E94A708B9
:100F600090E0982F882788279F719C012C2BE901FE
:100F700047C0C55AD0E0CA53DF4FC881D0E0D06423
:100F8000A7CFDF70D06AA4CFE4E096958795EA9565
:100F9000E1F783702C2F26952695237040E2249F3D
:100FA00090011124382B8C2F8370C1E0D0E002C057
:100FB000CC0FDD1F8A95E2F7C22BD32BDC6888CFDC
:100FC000D82FCC27C16FD06A83CFC1E0D0E002C058
:100FD000CC0FDD1F2A95E2F720E2929FC001112479
:100FE000C82BD92BEBCFDC2FCC27C46FD06A70CFA6
:100FF0000E94A708C82FD0E0DC2FCC27CC27DF71B8
:10100000D06266CF8C2F8F700E94A70834E0D695EF
:10101000C7953A95E1F7CF709C2FEC01D06958CF76
:1010200082389105B1F1B0F48133910509F475C0AE
:1010300048F48932910509F469C08A32910509F4AE
:1010400073C008958533910509F459C0893391051A
:1010500001F10895833E9105A9F138F4803E910590
:10106000F9F0823E910549F10895863E9105A9F176
:10107000873E9105C9F1843E910519F520918E03B3
:1010800021FF1FC080918D0384FD14C087EE90E086
:10109000089520918D032370A1F080EE90E00895D3
:1010A00020918D0320FD47C030918E0330FF09C091
:1010B00024FF44C090E080E004C020918D0322FD15
:1010C000F7CF089520918D0322FD3BC030918E0310
:1010D00030FDE3CF24FFF5CFEDCF20918D0323FF2B
:1010E000F0CF24FDE7CFD2CF20918D0323FD2CC07C
:1010F00030918E0331FFEECF84EE90E00895209181
:101100008D0325FFDECF89E290E0089520918D03C5
:1011100025FFD7CF85E390E0089520918D0326FF2A
:10112000D0CF8AE290E0089520918D0326FFC9CFA9
:1011300081E390E0089589E390E0089583EE90E0E4
:10114000089582EE90E0089586EE90E008959091E3
:101150008D0392FF06C0282F28712830F9F4877F6D
:10116000846093FF06C0282F28712831F1F4877E10
:10117000846120918E0320FF06C0382F38713830EB
:10118000D9F4877F816021FF06C0282F287128317C
:10119000D1F4877E816194FD877E0895282F247184
:1011A0002430F9F68B7F8860DCCF282F247124311E
:1011B00001F78B7E8861DDCF382F3171313019F71F
:1011C0008E7F8860E0CF282F2171213121F78E7E1C
:1011D0008861E1CF08950C94EA080895E82FF0E0C3
:1011E000EE0FFF1FE55CFC4F80819181089508950B
:1011F00088E78A95F1F70895A9EDB0E061E070E025
:101200008D91E82FE295EF70F0E041A98F709B017E
:1012100001C0220F8A95EAF7922F9095942391AB03
:1012200082A9822B82AB80E0AF3DB80749F7A9ECD9
:10123000B0E061E070E08D91E82FE295EF70F0E0B2
:1012400041A98F709B0101C0220F8A95EAF7922F66
:101250009095942391AB82A9822B82AB80E0A93D2B
:10126000B80749F7EFE2F3E0ABE3B3E08BE393E0D9
:10127000119211921D921D928E179F07C9F786E059
:101280000E94CB090C949E068F929F92AF92BF92C0
:10129000CF92DF92EF92FF920F931F93CF93DF9342
:1012A00089EDE82E80E0F82E0FE213E0912CAA24BD
:1012B000A394B12CF70181917F01C82FC295CF7003
:1012C000D0E099A98F70650101C0CC0C8A95EAF72E
:1012D000892F8C2989AB8AA98C2C809488218AAB90
:1012E0000E94F808E9ECF0E050E040E030E020E057
:1012F0006191A62FA295AF70B0E0D0968C9190E04E
:101300006F7002C0959587956A95E2F780FD3EC0A3
:10131000C501042E02C0880F991F0A94E2F7282BFA
:10132000392B4F5F5F4F4031510511F789A9882252
:1013300089AA8AA9C82ACAAAF80180819181281796
:10134000390739F13183208381E0982A0E5F1F4FDE
:10135000FFEDEF16F0E0FF0609F0ACCF292D46E0D7
:101360006BE373E08FE293E00E94CC090E94A80631
:10137000892DDF91CF911F910F91FF90EF90DF901A
:10138000CF90BF90AF909F908F90089590E080E0B5
:10139000C6CF80E0DACF0895FF920F931F93CF93CB
:1013A000DF93F82E092F162FD72FC42F222349F0B1
:1013B00081E080933F010E94A82090933E0180939A
:1013C0003D0180913F018823A1F080913D019091E2
:1013D0003E010E94B420069760F0EF2DF02FA12F60
:1013E000BD2F90E080E0D0E08C179D0744F0109274
:1013F0003F01DF91CF911F910F91FF9008952191AF
:1014000031912D933D930196EFCFEF92FF920F9381
:101410001F93CF93DF93EB01E82FD11110C044232A
:1014200021F0F0E0E259FB4FE4916E2F7E2F8E2FDA
:10143000DF91CF911F910F91FF90EF9008950D2FA5
:1014400010E0282F30E0442329F022593B4FF901C6
:10145000249130E0F6E0CF9FC0011124EFEFF0E0DF
:10146000BF010E942B24AB018C2F90E0880F991FA5
:10147000A5E5A49FB001A59F700D1124861B970BB5
:10148000982F990F980FBF01601B710B629FD001BD
:10149000639FB00D729FB00D11248B2F9D9FB001E3
:1014A0001124672F7727EF01C61BD70BBE01629F60
:1014B000E001639FD00D729FD00D11247F01E91AC6
:1014C000F108E09EB001E19E700DF09E700D1124B8
:1014D000672F7727E61BF70BE29F8001E39F100D34
:1014E000F29F100D1124E12F722F4230510599F017
:1014F00048F44115510569F04130510581F0EB2F59
:101500008D2F07C04430510569F080F046305105F9
:10151000B1F76E2F8DCFE22F7B2F812FFACFE22FE5
:101520007D2FF7CFEB2F822F712FF3CF7B2F822FC1
:10153000ED2FEFCF41E00C94050A0895E7E6F0E0C7
:10154000808361830895CF93DF93762FE901682F1D
:10155000842F0E949A0A798368838A83DF91CF91CE
:101560000895493C08F048EC0C94A30A8091470385
:10157000982F9E7F61F481708260809347038091F1
:101580004A03893C18F088EC80934A030895863515
:10159000B0F381708465F1CF88E090E00C9426254B
:1015A000CF92DF92EF92FF926B017C010E94B60A0C
:1015B000B701A60188E090E0FF90EF90DF90CF9018
:1015C0000C944325E7E4F3E083E0808311828FEFFE
:1015D000828388EC8383148260817181828193810C
:1015E0000C94D00A8091470380FF02C0869508952D
:1015F00080E0089590914B03933018F49F5F90938F
:101600004B03882351F06091470370914803809108
:10161000490390914A030C94D00A089581E00C94F8
:10162000FA0A90914B03992319F0915090934B0330
:10163000882351F0609147037091480380914903DA
:1016400090914A030C94D00A089581E00C94110BF8
:10165000609168008091470380FF0AC08091670015
:1016600023E0829FC0011124845B9C4F0C941506DB
:101670008091690090916A0023E0829FF00111241B
:10168000E45BFC4F891750F71182108212828F5F42
:101690003396F8CF9091470390FF14C09091690062
:1016A00020916A0033E0939FF0011124E45BFC4F2A
:1016B000921710F00C94280B8183608342839F5F04
:1016C0003396F6CF0895CF93DF9300D00F92CDB726
:1016D000DEB79091470390FF0AC09E012F5F3F4FF6
:1016E0000E94B10A4B8169818A810E944A0B0F9046
:1016F0000F900F90DF91CF910895CF93DF93EC017E
:10170000EC81F0E0E759FC4F4491E7E4F3E06281BB
:1017100081810E94630B8C818F5F8C83DF91CF91DD
:101720000895CF93DF93EC01E7E4F3E04381628116
:101730008C810E94630B8C818F5F8C83DF91CF91B2
:1017400008950F931F93CF93DF9300D00F92CDB7DF
:10175000DEB78C018091400181110AC09E012F5F8C
:101760003F4F48EC6FEF0E94B10A8A81809340019D
:10177000F8016481613069F08091400140E06623A6
:1017800061F040E0623011F44091400180E060E09F
:1017900004C06091400140E080E00E944A0BF801E3
:1017A000848190E0019663E070E00E943F2484838E
:1017B0000F900F900F90DF91CF911F910F9108958F
:1017C000AF92BF92CF92DF92EF92FF920F931F934F
:1017D000CF93DF9300D00F92CDB7DEB7182FF62E40
:1017E000042FE22E9091470390FF29C0E92FE69540
:1017F000AE2FB0E0A152BF4F8C918093AE019E7F7F
:10180000923059F59E012F5F3F4F812F0E94B10A00
:101810004B8169818A810E944A0B10934803F092A0
:10182000490300934A03EE2051F060914703709101
:1018300048038091490390914A030E94D00A0F9077
:101840000F900F90DF91CF911F910F91FF90EF902C
:10185000DF90CF90BF90AF900895823019F400913F
:101860004A03DBCF863019F410914803D6CF893074
:10187000D9F3893191F6E9518E2F8170D82EE695F2
:10188000F0E0E759FB4FA590B490C12CBB246091C8
:101890006B00C61618F00E94280BBFCF2C2D30E02D
:1018A000A29EC001A39E900DB29E900D112470E0E7
:1018B0000E942B24812FD11013C0860F4091690004
:1018C000420F532F511D9A01220F331F240F351F32
:1018D000245B3C4F402F6F2D0E94B10AC394D7CF99
:1018E000861BECCFE7E4F3E09181282F43816281EE
:1018F0008AE0890F0C94E00B81E00C94720CE7E411
:10190000F3E09181282F4381628186EF890F0C9447
:10191000E00B81E00C947F0CE7E4F3E0628121E1CD
:10192000620F08F46FEF282F438181810C94E00B44
:1019300081E00C948C0CE7E4F3E0628121E1621B0E
:1019400008F460E0282F438181810C94E00B81E052
:101950000C949B0CE7E4F3E0438121E1420F08F48F
:101960004FEF282F628181810C94E00B81E00C9471
:10197000AA0CE7E4F3E0438121E1421B08F440E0D4
:10198000282F628181810C94E00B81E00C94B90CCA
:1019900020E00C94E00BEF92FF921F93CF93DF9324
:1019A000EC0110E0EE24EA94F12C60916B00161724
:1019B00070F00E94280B9A818C8190FF27C08F5F66
:1019C0008C83DF91CF911F91FF90EF90089520912C
:1019D0006900422F410F5527551FCA019A01220F56
:1019E000331F280F391F245B3C4F70E0C7010E9452
:1019F0003F24962F8C8140914A0360914903199F9F
:101A0000800D11240E94B10A1F5FCFCF8150D8CF23
:101A1000AF92BF92CF92DF92EF92FF920F931F93FC
:101A2000CF93DF93FC0182810FEF80FF01E010E094
:101A300044E1A42E80916B001817C8F00E94280B77
:101A400080914201013009F055C0811102C080919E
:101A50006B00815080934201DF91CF911F910F91D4
:101A6000FF90EF90DF90CF90BF90AF900895C0911E
:101A70006900C12ED12CCC0DDD2DD11DCE01880FDA
:101A8000991FC80FD91FC45BDC4F198218821A82B4
:101A900034E0E32EF12CB12C809142018B0D853185
:101AA0001CF16A2D0E941D24892F082E000C990B11
:101AB000C816D90691F480914A038E9DA0018F9D8E
:101AC000500D112455954795559547959E01609168
:101AD0004903809148030E94B10AB00EF1E0EF1A69
:101AE000F108D1F61F5FA6CF87FFDFCF90916B0083
:101AF000890FDBCF90E0019660916B0070E00E944F
:101B00003F24A8CF0F931F93CF93DF938091690059
:101B100090916A0023E0829FF0011124E45BFC4F66
:101B2000891740F1C0E0D3E060916B00C61740F127
:101B30000E94280B2091650080914101820F8093C3
:101B4000410190916600920F90936600191654F42B
:101B5000082E000C990B40916B004150550B8417D7
:101B600095071CF0219520936500DF91CF911F917F
:101B70000F9108951182108212828F5F3396D0CF19
:101B80000C2F10E070E0C8010E943F2420916900F2
:101B9000820F482F50E020914101022E000C330BA0
:101BA00002171307BCF020916600022E000C330BC5
:101BB000201731077CF08D9F90011124245B3C4F4E
:101BC00040914A0360914903809148030E94B10A01
:101BD000CF5FAACFFA01EE0FFF1FE40FF51FE45B02
:101BE000FC4F118210821282F3CF8F929F92AF929C
:101BF000BF92CF92DF92EF92FF920F931F93CF93FA
:101C0000DF93EC014C81042F10E09801D8010E9471
:101C100083249B01AC010E9499244B015C01E0E20A
:101C2000F0E0E01BF10BA5E5B0E0AC019B010E94E8
:101C300099246B017C019F01DF010E947B249B01A1
:101C4000AC010E94A4249B01AC01280D391D4A1D42
:101C50005B1DC701B6010E945324F22E822F90E033
:101C600039E23F1560F143E0249F9001112435953E
:101C70002795122F109500E085E5E82EEF1880914A
:101C80006B00081758F10E94280B9C8181E0992372
:101C900019F0903219F48FEF809364008091640002
:101CA000890F8C83DF91CF911F910F91FF90EF905F
:101CB000DF90CF90BF90AF909F908F90089525E5D3
:101CC00030E0B901681B790B9B01220F331F260FEF
:101CD000371F37FFCCCF2F5F3F4FC9CF8E2D01FD70
:101CE0008F2D20916900622F600F7727771F9B014E
:101CF000220F331F260F371F245B3C4F412F60916B
:101D000049030E94B10A0F5FBACF0F931F93CF937D
:101D1000DF93EC0110E000E090916B00901711064A
:101D200009F06CF40E94280B8C8190E00196817080
:101D300099278C83DF91CF911F910F910895209166
:101D40006900A801420F511D9A01220F331F240F71
:101D5000351F245B3C4F4C816091490380914803BF
:101D600096959017110651F04CF0442349F040919C
:101D70004A030E94B10A0F5F1F4FCECF4423B9F32D
:101D800040E0F7CF8F929F92AF92BF92CF92DF92B7
:101D9000EF92FF920F931F93CF93DF93FC01B280DA
:101DA000948081E0848300E015E05BE4A52E882424
:101DB0008394EE24EA94F12C7BE4C72ED12C8091FD
:101DC0006B00081770F0DF91CF911F910F91FF907A
:101DD000EF90DF90CF90BF90AF909F908F900C943A
:101DE000280BC02FD0E01C9FF0011D9FF00D112487
:101DF000ED5BFE4F91101CC013821282209169008E
:101E0000CE01820F911D9C01220F331F280F391F15
:101E1000245B3C4F1C9FF0011D9FF00D1124ED5BD6
:101E2000FE4F4281618180810E94B10A0F5FC7CF5E
:101E30002381222379F12150238334818A2D821B2F
:101E4000311101C0822F1C9FF0011D9FF00D112444
:101E5000ED5BFE4F90914A03899FC0011124B601AA
:101E60000E942B246283211104C0332311F01482B9
:101E7000A38222E02B1510F21C9FF0011D9FF00D94
:101E80001124ED5BFE4F80914803808380914903CC
:101E90008183B4CF0E94F824823091400CF0AECF01
:101EA00082E08B1530F50E94F824B7010E943F2490
:101EB0001C9FF0011D9FF00D1124ED5BFE4F8083F0
:101EC00022E02B15C8F40E94F8242091490326959E
:101ED000622F70E00E943F24280F1C9FF0011D9F7D
:101EE000F00D1124ED5BFE4F21831282A3828482C8
:101EF00085CF80914803DCCF20914903EECFE7E402
:101F0000F3E080818E7F8083608171818281938103
:101F10000E94D00A1092AF012FEB84ED91E0215086
:101F200080409040E1F700C000000C94280B6091C5
:101F30004703669570E04BE050E08CE690E00E942D
:101F40000825892B19F481E08093AF010E94A82015
:101F50009093A8018093A70108959091470390FF63
:101F600035C09170811128C0926090934703662319
:101F700051F060914703709148038091490390911B
:101F80004A030E94D00A60914703669570E04BE0D7
:101F900050E08CE690E00E940825892BA1F0109279
:101FA000AF0181E08093AA0140914A036091490307
:101FB000809148030C94C80C8B3210F09465D5CFF7
:101FC000880F982BD2CF0E94970FEBCF0895682FE0
:101FD00090914703969581E0890F8B3208F081E05C
:101FE0000C94AD0F81E00C94E70F682F909147039C
:101FF00096958FEF890F09F48AE20C94AD0F81E07A
:102000000C94F50F61E00C94AD0FE7E4F3E08081F0
:102010008160808386950C9402108091470380FD37
:102020000C947F0F0C94051060E00C94AD0F809120
:10203000AD0181112EC00E948A1F811104C00E942F
:1020400030200E94E20A0E94CC0A609347037093FA
:1020500048038093490390934A036E7F61F40E9482
:10206000E20A0E94CC0A609347037093480380936E
:10207000490390934A030E94B60A1092AF018091DF
:10208000470380FF03C086950E94141081E080936F
:10209000AD0108950F931F93CF93DF938091AF010C
:1020A000882309F49DC08091AE01E0914703E69535
:1020B000E81BE093A9018230C9F5F0E0EB59FC4F31
:1020C000E491CE2FD0E00DE71BE08091AA01882398
:1020D00089F01092AA010E94A8209E0120953095B7
:1020E000820F931F9093A8018093A7011092AC01D7
:1020F0001092AB018091A7019091A8010E94B42099
:102100008C179D0708F46CC0E091A701F091A8011D
:10211000CE0FDF1FD093A801C093A70187EA91E0FB
:10212000F801DF91CF911F910F910994863049F406
:10213000F0E0EE59FC4FE491CE2FD0E001E91BE036
:10214000C4CF893051F4E695F0E0E15AFC4FE491B8
:10215000CE2FD0E00BEC1CE0B8CF8F3051F4E695D9
:10216000F0E0E45AFC4FE491CE2FD0E008E01DE00F
:10217000ACCF853149F4F0E0E75AFC4FE491CE2F23
:10218000D0E002E81DE0A1CFC8E2D0E005EF1DE0FD
:10219000883109F49ACF833239F4E7E5F3E0C59149
:1021A000D49101EA1BE091CFC4EFD1E005E81EE035
:1021B000843209F48ACFC0EDD7E00DE91AE0853208
:1021C00009F083CF8E2F63E00E941124E92FF0E005
:1021D000EC5AFC4FE491CE2FD0E002EC1EE075CF1C
:1021E000DF91CF911F910F910895FA01811101C0E4
:1021F000FB010994CF93DF93C82FD62F0E94F20AD8
:102200008C1740F00E94F20A8D1720F4DF91CF91D5
:102210000C94F20F8C2FDF91CF910C9402100F933E
:102220001F93CF938C01FB01C281CC2309F465C0BD
:102230000E94E81E8272F801E25CFC45E431F1057F
:1022400038F4ED56FA4D0C9475240E940D10C0E040
:102250008C2FCF911F910F9108954FEF5FE062EFA8
:102260007FE00E94F510F3CF42EF5FE06FEF7FE079
:10227000F8CF49E85CE06CE77CE0F3CF4CE75CE04A
:1022800069E87CE0EECF47EA5CE068E97CE0E9CF12
:1022900048E95CE067EA7CE0E4CF45EC5CE066EBB3
:1022A0007CE0DFCF46EB5CE065EC7CE0DACF45E23A
:1022B0005BE06EE07BE0D5CF4EE05BE065E27BE08B
:1022C000D0CF81E00E940210C2CF65E082E00E9480
:1022D000FA10BDCF68E086E0FACF6EE089E0F7CF74
:1022E00064E18FE0F4CF67E185E1F1CF88E1EACFE7
:1022F00062E289E1ECCF83E2E5CFC1E0A9CF0895A6
:102300000E948A1F811102C00E9430200E94B81FC3
:1023100080938803803120F08770886080938803E1
:1023200090918803892F817090FF04C0892F869532
:10233000869586950C94140580918803982F987F34
:1023400019F4885F8093880380918803816080936B
:1023500088030E94BC1F8091880386958695869588
:102360000C94140580918803982F987F79F08850F9
:1023700080938803887F91E009F490E0809188033E
:1023800090FB80F9809388030E94BC1F8091880392
:102390008695869586950C9414058091880380FD1A
:1023A00013C0816080938803813019F489E08093A1
:1023B0008803809188030E94BC1F809188038695C2
:1023C000869586950C94140508958091880380FF66
:1023D00008C08E7F809388030E94BC1F80E00C940D
:1023E000140508958091880380FD0C94E5110C94E8
:1023F000CD1190918803892F8695869586958F5F5C
:102400008F7197708230D8F4880F880F880F892BCE
:102410008093880380918803887F91E009F490E09D
:102420008091880390FB80F9809388030E94BC1FF1
:10243000809188038695869586950C9414059093D3
:102440008803E8CF811181E0909188039770282F4D
:10245000220F220F220F922B90938803987F21E066
:1024600009F420E09091880320FB90F99093880371
:102470000C9414050E942212809188030C94BC1FB6
:102480009C01FB018281882349F12D3BFCE53F073C
:10249000C9F040F42B3BECE53E0769F02C3B3C4592
:1024A00079F008952F3B9CE5390791F070F0203CBE
:1024B0003C4589F0089581E00E943A1280E0089539
:1024C00080E0FACF0E94B211F9CF0E949C11F6CFA2
:1024D0000E94F211F3CF0E94F911F0CF81E008952C
:1024E000AF92BF92CF92DF92EF92FF920F931F9322
:1024F000CF93DF937C015B01C42FD22FFC0182813B
:102500008823F9F04093B2010E94A8209093B10172
:102510008093B00180E28C0F883008F061C0C770F2
:1025200081E001C0880FCA95EAF7DF91CF911F9132
:102530000F91FF90EF90DF90CF90BF90AF900C94F1
:102540007F171091B201141340C08091B001909197
:10255000B1010E94B4206C01B701C5010E94551C55
:10256000C816D90690F5C0E2CD0F1D17B9F080E26C
:10257000810F883040F4177081E001C0880F1A95F0
:10258000EAF70E948617C83048F481E09D2F9770C3
:1025900001C0880F9A95EAF70E947F17802F0E944A
:1025A0006C17C830E8F4D77081E001C0880FDA9565
:1025B000EAF7DF91CF911F910F91FF90EF90DF909D
:1025C000CF90BF90AF900C94861780E28C0F88302C
:1025D00038F4C77081E001C0880FCA95EAF7E9CFE7
:1025E000DF91CF911F910F91FF90EF90DF90CF90EF
:1025F000BF90AF9008950F939C01CB01233F4CE512
:10260000340759F1A8F4283DFCE53F0701F1293DC5
:102610004CE53407D1F1273D3C4591F406E221EE2B
:1026200041EE67ED7CE50E94701280E00F91089505
:10263000253FFCE53F07E9F0B0F0263F3C45F9F0C7
:10264000FC018281882339F11092B201EFCF07E2B9
:1026500025EE45EE68ED7CE5E6CF06E221EE40EEA4
:1026600063EF7CE5E0CF07E225EE44EE64EF7CE526
:10267000DACF06E221EE42EE65EF7CE5D4CF07E249
:1026800025EE46EE66EF7CE5CECF08E221E045EE92
:1026900069ED7CE5C8CF81E0C9CFCF93DF93EC0132
:1026A000FB018281882309F419C1C230FCE5DF07F0
:1026B000C0F1C6319CE5D90730F09E012A5F3C4548
:1026C0002930310570F50E949D1F90938E038093F1
:1026D0008D03C031ECE5DE0709F4CFC008F05BC024
:1026E000C8308CE5D80709F4B6C088F5C430ECE5ED
:1026F000DE0709F4A8C0C0F4C2308CE5D80709F49D
:102700009CC080918D038260C330DC4509F498C081
:1027100080918D0390918E030E94AB1F0E94DF1960
:1027200080E0DF91CF91089580918D038061C63064
:10273000ECE5DE0709F484C080918D038860C73022
:10274000DC4508F47DC080918D03806279C0CC3077
:102750008CE5D80709F489C070F480918D038C60F2
:10276000CA30ECE5DE0709F46BC008F478C080914C
:102770008D038E7F65C0CE308CE5D80709F479C013
:1027800080918D038B7FCF30DC4508F459C0809158
:102790008D038F7E55C0CB3FECE5DE0709F457C0B3
:1027A00030F5C3318CE5D80709F46FC078F4C13136
:1027B000ECE5DE0709F465C0C231DC4509F0A8CFBD
:1027C0000E94DF1980918D038F773AC0C5318CE567
:1027D000D80709F462C008F476C080918E03816046
:1027E000CA3FDC4509F094CF80938E0391CFCF3F51
:1027F000FCE5DF0709F44DC088F480918E038D7FDE
:10280000CD3F9CE5D90781F380918E038E7FCE3F2B
:10281000DC4550F380918E038360E6CFC130FDE547
:10282000DF0709F459C008F444C080E0C230DD4538
:1028300009F06ECF0E9432206BCF80918D038160B2
:1028400080938D0365CF80918D038460F9CF809153
:102850008E038260C9CF80918D038064F1CF0E9486
:10286000DF1980918D038068EBCF80918D038D7F80
:10287000E7CF80918D03877FE3CF80918D038F7D9C
:10288000DFCF80918D038F7BDBCF80918D03837FA2
:10289000D7CF80918E038C7FA7CF80918D0382FB51
:1028A000992790F921E0922790FB82F990FB83F918
:1028B000C7CF80918E03982F909591708E7F892B32
:1028C00090FB81F991CF0E94DF1990918D03892FA0
:1028D00097FB87F98058B4CF81E0ACCF81E021CF5E
:1028E000CF93DF93EB0186319C4511F50E94E81EE2
:1028F0009A81992399F08A7A91E009F490E0909373
:10290000B301811109C089E20E94C31E0E94271FE2
:1029100080E0DF91CF91089585E3F6CF8091B301F8
:10292000811104C089E20E94CA1EF0CF85E3FBCF6B
:1029300081E0EFCF11B887E080B985B3836085BBB4
:1029400086B7846086BF86B7816086BF86B780649D
:1029500086BF0895EF92FF920F931F93CF93DF935B
:10296000182FEB0116BE84EA86BF0E94A8207C01C6
:1029700006B607FE21C081B1887F883021F081B181
:10298000887F8031B9F513B984E886BF0E94A820FA
:102990008C0106B607FE23C021B1287F90E080E0BD
:1029A0002831B1F081E090E0203411F490E080E033
:1029B0009195819591090CC0CF3FDC07C9F20E9427
:1029C000A8208E199F098C179D0790F28EEF9FEF1C
:1029D000DF91CF911F910F91FF90EF900895CF3F1E
:1029E000DC07B9F20E94A820801B910B8C179D0771
:1029F00080F2ECCF8FEF9FEFEBCF0F931F93CF932E
:102A0000DF93EB0183B984E886BF0E94A8208C0184
:102A100006B607FE10C021B1287F81E090E0283281
:102A200011F490E080E0919581959109DF91CF912B
:102A30001F910F910895CF3FDC0751F30E94A8200A
:102A4000801B910B8C179D0718F38EEF9FEFEECF35
:102A5000CF92DF92EF92FF920F931F93CF93DF936A
:102A60006B018A017901B9010E94AA14E6010C0DDB
:102A70001D1DC017D10759F424E926BFDF91CF915E
:102A80001F910F91FF90EF90DF90CF90089597FDE9
:102A9000F3CFB70189910E94FD14EBCF9093B90158
:102AA0008093B8010895E091B801F091B901309791
:102AB00021F00190F081E02D099480E00895E091EB
:102AC000B801F091B901309721F00280F381E02D37
:102AD000099408952091B6013091B701281739075C
:102AE00071F09093B7018093B601E091B801F09135
:102AF000B901309721F00680F781E02D09940895FF
:102B00002091B4013091B5012817390771F09093E5
:102B1000B5018093B401E091B801F091B90130970B
:102B200021F00084F185E02D0994089584B7806830
:102B300084BF84B7806884BF0895089508950C9475
:102B40009E150E9496150E949D150C94E30581E048
:102B500008950C94A7150E94A1200E94FC080E94D1
:102B600000210E9480110E9417100C949F159F92C3
:102B7000AF92BF92CF92DF92EF92FF920F931F938B
:102B8000CF93DF93CDB7DEB72A970FB6F894DEBFA9
:102B90000FBECDBF0E9444090E94A915882309F4E5
:102BA00070C05BEBA52E51E0B52E10E000E0902E3A
:102BB000802F0E94EE086C01F501E190F1905F0119
:102BC000E816F90609F457C08091510281FD0E9470
:102BD000F70897012C253D2580E0EE24E394F12CA5
:102BE000A9014E215F21452B09F43FC08E839F82AE
:102BF000CE20DF2081E0CD2809F480E088870E9484
:102C0000A8208160782F9A8789874E815F816885A7
:102C10008A850E946416000F111FF801E554FE4FCB
:102C200080819181E826F926F182E0820E944A1093
:102C30000E9453159091BA018917A1F10E94531572
:102C40008093BA012A960FB6F894DEBF0FBECDBFAF
:102C5000DF91CF911F910F91FF90EF90DF90CF9078
:102C6000BF90AF909F900C9407078F5FEE0CFF1CF6
:102C7000803109F0B5CF0F5F1F4F0630110509F005
:102C800096CF8FEF89838A831B820E94A820816060
:102C9000782F9D838C8349815A816B818D810E941D
:102CA0006416C4CF2A960FB6F894DEBF0FBECDBF10
:102CB000DF91CF911F910F91FF90EF90DF90CF9018
:102CC000BF90AF909F900895CF93DF93CDB7DEB7BD
:102CD0002B970FB6F894DEBF0FBECDBF4F8358873A
:102CE00069877A878B871E821D8285E0FE01379671
:102CF000DE01119601900D928A95E1F749815A8182
:102D00006B817C818D819E812B960FB6F894DEBFFE
:102D10000FBECDBFDF91CF910C94581CFC01808178
:102D200091810C94951ECF93C82F882309F483C0FA
:102D30008238C1F40E94531581FD7DC089E30E9451
:102D4000C31E0E94271F2FE789EA93E0215080408D
:102D50009040E1F700C0000089E30E94CA1ECF91B5
:102D60000C94271F8338A1F40E94531580FD63C083
:102D700083E50E94C31E0E94271F2FE789EA93E084
:102D8000215080409040E1F700C0000083E5E5CF8E
:102D90008438A1F40E94531582FD4DC087E40E943F
:102DA000C31E0E94271F2FE789EA93E0215080402D
:102DB0009040E1F700C0000087E4CFCF8CEF8C0F8C
:102DC000813A90F46C2F80917700909178000E9466
:102DD0004920882329F08C2F0E94CA1E0E94271F99
:102DE0008C2F0E94C31EBBCF80E28C0F883048F42A
:102DF000C77081E001C0880FCA95EAF70E94EB1EF8
:102E0000AECFEBE5EC0FE33040F4F0E0E85CFE4FD2
:102E1000808190E0CF910C946A15C85AC73158F45C
:102E2000EC2FF0E0EE0FFF1FE65FFE4F80819181F7
:102E3000CF910C948015CF910895882309F44BC04D
:102E4000823871F40E94531581FF45C089E30E94C6
:102E5000C31E0E94271F89E30E94CA1E0C94271FCD
:102E6000833859F40E94531580FF35C083E50E94D2
:102E7000C31E0E94271F83E5EFCF843859F40E94B8
:102E8000531582FF28C087E40E94C31E0E94271F9B
:102E900087E4E2CF9CEF980F913AF0F290E2980F1E
:102EA000983050F4877091E001C0990F8A95EAF745
:102EB000892F0E94F11ED2CF9BE5980F933020F40A
:102EC00090E080E00C946A15885A873120F490E0F5
:102ED00080E00C9480150895CF93C82F0E9493161C
:102EE000C93349F42FEF8DEE92E02150804090409D
:102EF000E1F700C000008C2FCF910C941D178823A0
:102F000021F00E94EB1E0C94271F0895882321F0C6
:102F10000E94F11E0C94271F0895BF92CF92DF925A
:102F2000EF92FF920F931F93CF93DF936C01D62FF5
:102F3000C72FFC01058102950F70128111110E94AB
:102F4000081F0E94E11EE82E882391F01123E9F06A
:102F50008C2F807F803421F080E28D0F8830A8F0A4
:102F600082E00E94721F0E94E11E91E0E82EE92695
:102F7000BC2EB2949FE0B922FBE0FB15A8F1EB2D2B
:102F8000F0E0E955FA4D0C947524E12CF1CF0C2FAB
:102F90000F70C07F11F00295007F1123A9F000236C
:102FA00059F080E28D0F883010F0D11109C0802FC8
:102FB0000E94EB1E0E94271F8D2F0E94931614C0A3
:102FC000802F0E94FB1EF6CF8D2F0E941D1700231D
:102FD00059F080E28D0F883010F0D1112CC0802F75
:102FE0000E94F11E0E94271F2B2D2850330B2430E6
:102FF000310520F40E9453150E940707EE2009F4C2
:1030000083C10E94DD1E80FD7FC1F60112820E94F5
:10301000D71E0E94641DC6010E94A5190E94D71EDA
:10302000DF91CF911F910F91FF90EF90DF90CF90A4
:10303000BF900C94851D802F0E94011FD3CF2C2F91
:103040002F70F22EC07FC03219F0F29480EFF82278
:10305000DD2369F0D13049F1112391F1002351F1C1
:10306000F601858180FFA8CF8F70858323C011234F
:1030700081F0011106C00E940E1F8F290E947F1748
:10308000B3CF0130C1F70E940E1F8F290E94141F79
:10309000ABCF011106C00E941D1F8F2D0E94861705
:1030A000A3CF013009F4A0CFF6CF112329F00630C9
:1030B00008F09ACF8F2DE2CF053008F095CFEDCFF5
:1030C000002359F3D93349F4FFEF2DEE32E0F150EC
:1030D00020403040E1F700C000008D2F0E941D17F6
:1030E00083CF8C2F86958695837069F0813009F0A7
:1030F0007BCF8D2F9C2F9370111102C090E080E048
:103100000E94801571CF8D2F9C2F9370111102C0DA
:1031100090E080E00E946A1567CF8C2F837009F0E1
:1031200041C0111161CF4D2F429546954770440F14
:10313000440F0D2F0F7010E030E020E0042E04C08B
:10314000000F111F221F331F0A94D2F760E070E0B6
:10315000CB01D4FF0FC06FE070E080E090E004C0CE
:10316000660F771F881F991F4A95D2F76095709553
:1031700080959095C695C695C370602B712B822B58
:10318000932BC23049F058F4C13019F00E94161D3B
:103190002BCF0E94041D28CF0E94281D25CF0E94FE
:1031A000021D22CF8695112311F08C2F8170882368
:1031B00009F41ACF4D2F429546954770440F440F9E
:1031C0000D2F0F7010E030E020E0042E04C0000F3F
:1031D000111F221F331F0A94D2F760E070E0CB0169
:1031E000D4FF0FC06FE070E080E090E004C0660F95
:1031F000771F881F991F4A95D2F760957095809523
:103200009095C695C695C370602B712B822B932B1E
:10321000C23049F058F4C13019F00E94DB1DE4CEF1
:103220000E94C91DE1CE0E94ED1DDECE0E943E1D12
:10323000DBCECF70112329F08C2F0E94641D8D2FBF
:103240001DCF8D2F0E9486178C2F0E94851DCCCEFE
:10325000D23F89F160F4D03FC9F0D13F29F1112369
:1032600009F442C00111A8CE8C2F8F7121C0D33F29
:1032700039F1D43FA1F7112369F1CF718C2F0E944E
:10328000641D63E08C2F0E945D1FAECE112341F0C0
:10329000053008F0A9CE8C2F8F710E94A81DA4CEF6
:1032A000063008F0A1CEF7CF8C2F8F71112369F271
:1032B0000E94641D99CE8C2F8F711123C9F3C5CF45
:1032C000112329F08C2F8F710E944F1D8DCE0E94EB
:1032D0004A1D8ACE81E00E94721F023008F484CE1B
:1032E00082E00E94721F80CE002359F0D93309F08A
:1032F000F4CE8FEF9DEEE2E081509040E040E1F7A8
:10330000EACE8C2F8F71A1CFDF91CF911F910F91BA
:10331000FF90EF90DF90CF90BF9008950F931F9391
:10332000CF93DF93EC01688179818A810E949F1E8F
:103330008C010E94FF1D0E94011DB801CE01DF918A
:10334000CF911F910F910C948D17CF93DF93EC01C8
:103350008B819C81892B29F08881998189238F3FDA
:1033600059F4DF91CF910895CE010E948E19CE01BC
:10337000DF91CF910C949306CE010E94BA06811181
:10338000F3CF0E94E11E882361F38A81882349F3E9
:1033900082E0DF91CF910C94721F0E94081F0E945F
:1033A0000B1F0E94271F90E080E00E946A1590E0AA
:1033B00080E00C9480150E94D11E0C94CD190E94BF
:1033C000F81E0C94DB19E92FE295EF70E250EE3015
:1033D00070F4F0E0ED54FA4D0C947524803F19F030
:1033E00020F4883E20F481E00895843FE1F380E0FA
:1033F0000895883EC0F3813FD1F7F5CF93FB88272E
:1034000080F908950E94951E0C94E319CF93DF93E1
:1034100000D000D00F92CDB7DEB70F900F900F9075
:103420000F900F90DF91CF910895CF93DF9300D04D
:1034300000D000D0CDB7DEB726960FB6F894DEBF29
:103440000FBECDBFDF91CF9108951F93CF93DF9330
:10345000C091C80116E08091C9018C1304C0DF91AE
:10346000CF911F910895D0E01C9FF0011D9FF00D9A
:103470001124E653FE4F4081518162817381848122
:1034800095810E94151A2196C770E5CF4091FA01E7
:103490005091FB016091FC017091FD018091FE0152
:1034A0009091FF010C94151A1F93CF93DF93809195
:1034B000FF01807FA9F48091FC01882389F080912D
:1034C000C801C091C9016091FA017091FB01A091FE
:1034D000FD01B091FE01D62FD72316E0C81304C01A
:1034E000DF91CF911F91089590E0109711F0DF3F89
:1034F00019F401968770F2CF189F9001199F300D33
:103500001124F901E653FE4F41814713F2CF408168
:103510004613EFCF42814111ECCF438154814A1BC6
:103520005B0B483C510528F78091FF018F7080614B
:103530008093FF01F901E153FE4F80818F7080611C
:1035400080838AEF91E00E94A519DF91CF911F91AE
:103550000C94251AAF92BF92CF92DF92EF92FF9216
:103560000F931F93CF93DF93CDB7DEB761970FB65D
:10357000F894DEBF0FBECDBF8C0185E0F801DE01FF
:103580001D9601900D928A95E1F7F80140815181D5
:10359000E2808AEFC82E81E0D82E6091FD01709103
:1035A000FE016115710509F461C19091FA01209144
:1035B000FB01892F82238F3F09F458C1A380B48077
:1035C000F090FC01F501E61BF70BFF2009F4FCC0AD
:1035D0008091FF01382F307FE83CF10508F0B2C040
:1035E000311179C0FE2C251323C0941321C0E110A2
:1035F0001FC08F7080618093FF010E94461AC60130
:103600000E94A5198091FF01F80185838F2D619695
:103610000FB6F894DEBF0FBECDBFDF91CF911F91E3
:103620000F91FF90EF90DF90CF90BF90AF900895F3
:10363000AB2829F0842F85238F3F09F033C180E028
:10364000F82FF170DF2E80FF3CC08091C8012091DF
:10365000C90136E0821315C04D875E878D859E8532
:103660000E94951E292F22952F702230F0F02430D1
:1036700018F59F70F1F0F8019581907FD1F4D12C6D
:103680001EC090E0389FF001399FF00D1124E653E1
:10369000FE4F6181651306C06081641303C06281BF
:1036A0006E110FC001968770D5CF9F7011F08823DF
:1036B00031F3805E883018F3C8010E94A519FD2CF3
:1036C000A5CFEE2009F4A2CF8091FF018160809305
:1036D000FF01F12C9BCF251306C0941304C0F80101
:1036E000EE2009F48DC04D875E878D859E850E94F2
:1036F000021A882319F1EE2009F18091FF0180322E
:1037000070F02091FA013091FB0138872F831986E0
:10371000BB86AA868C87CE0107960E94A51986E0F3
:10372000F801AAEFB1E001900D928A95E1F70E94AD
:10373000541A0E94461AFF24F39468CFC8010E94CD
:10374000A519F9CF311113C07A2DB98AA88A6E2D27
:1037500089890E94061A8AEF91E00E94A51986E0E5
:10376000F60111928A95E9F70E94461AB2CF251305
:103770000FC094130DC0E1100BC0F8018583C80180
:103780000E94A51986E0F60111928A95E9F73ECFCD
:103790004D875E878D859E850E94021A882371F26F
:1037A000EE2061F28091FF01803208F4B8CF2091C1
:1037B000FA013091FB013A8329831B82BD82AC82DE
:1037C0008E83CE010196A9CFE83CF10508F041C0F7
:1037D000FE2CEE2009F4B2CF25132AC0941328C082
:1037E0008091FF0180FD1BC0982F907FC1F0F801F0
:1037F0008583903F31F0982F907F905F8F70892B59
:103800008583C8010E94A51986E0F801AAEFB1E0FE
:1038100001900D928A95E1F70E94461AF7CE86E054
:10382000F801AAEFB1E001900D928A95E1F7EECE92
:103830004D875E878D859E850E94021A81116FCF0C
:103840008091FF0181608093FF01C8010E94A5194A
:10385000DDCE7A2DB98AA88A6E2D89890E94061A32
:1038600086E0F60111928A95E9F7D6CFEE2009F4A9
:1038700065CF4D875E878D859E850E94021AF82E42
:10388000882309F45BCF86E0F801AAEFB1E001904C
:103890000D928A95E1F78AEF91E00E948E160E94C0
:1038A000541ABACF81E08E25CBCE88EC90E00895F3
:1038B0001F93CF93DF93CDB7DEB72C970FB6F89455
:1038C000DEBF0FBECDBF4F83588769877A878B874E
:1038D0009C87CE0107960E94AA1A882369F08A85E0
:1038E0009B85892B39F04F815885842F85238F3F05
:1038F00009F071C016E05FC086E0FE013796DE0178
:10390000119601900D928A95E1F78A859B85892B06
:1039100089F38F81988589238F3F61F32091C901B5
:1039200030E0C9010196877099274091C801481776
:10393000190671F40E94DF191092C9011092C80192
:1039400086E0EAEFF1E0DF011D928A95E9F7D2CF38
:1039500096E0929FD001939FB00D1124A653BE4FC5
:10396000FE01319601900D929A95E1F78093C9017D
:103970000E94251ABFCF819FC001112486539E4FFC
:103980000E94AA1A8823E9F0E091C8011E9FF00165
:103990001124E653FE4F40815181628173818481FD
:1039A00095810E94151A8091C80190E00196877058
:1039B00099278093C8018091C8019091C90189130A
:1039C000DACF2C960FB6F894DEBF0FBECDBFDF91D5
:1039D000CF911F91089569857A858B859C850E947A
:1039E000151A88CF08950C94F21C0E94F31C609362
:1039F00040027093410280934202909343020C94E0
:103A0000CD1908950C94F51C0F931F93009140025B
:103A1000109141022091420230914302602B712BA0
:103A2000822B932B1F910F910C94F51C0F931F93D6
:103A300000914002109141022091420230914302D4
:103A400060237123822393231F910F910C94F51C03
:103A50000F931F9300914002109141022091420266
:103A60003091430260277127822793271F910F917E
:103A70000C94F51C0C94F21C0C943A1D0E943C1DF5
:103A800060933C0270933D0280933E0290933F020C
:103A90000C94CD1960E070E0CB010C943E1D0F93A7
:103AA0001F9341E050E060E070E08A019B0104C098
:103AB000000F111F221F331F8A95D2F7C901B801C9
:103AC0001F910F910C943E1D0F931F9341E050E006
:103AD00060E070E004C0440F551F661F771F8A9591
:103AE000D2F780913C0290913D02A0913E02B091AC
:103AF0003F028A019B01082B192B2A2B3B2BC90162
:103B0000B8011F910F910C943E1D0F931F9341E03C
:103B100050E060E070E004C0440F551F661F771F3F
:103B20008A95D2F7CB01BA016095709580959095F2
:103B300000913C0210913D0220913E0230913F02E3
:103B400060237123822393231F910F910C943E1DB8
:103B50000F931F9341E050E060E070E004C0440F19
:103B6000551F661F771F8A95D2F780913C0290916E
:103B70003D02A0913E02B0913F028A019B010827BD
:103B800019272A273B27C901B8011F910F910C94CF
:103B90003E1D0F931F9300913C0210913D02209116
:103BA0003E0230913F02602B712B822B932B1F9191
:103BB0000F910C943E1D0F931F9300913C021091A6
:103BC0003D0220913E0230913F0260237123822307
:103BD00093231F910F910C943E1D0F931F930091FF
:103BE0003C0210913D0220913E0230913F0260273D
:103BF0007127822793271F910F910C943E1D0895E2
:103C00009295907F890F982F977041E001C0440FE3
:103C10009A95EAF786958695869595E0899FF001B5
:103C20001124E050FE4F30E020E070E05191DF01C0
:103C30001197CB01022E02C0969587950A94E2F760
:103C4000817081958527842385278C932F5F3F4F33
:103C50002530310559F708959295907F890F982F57
:103C6000977086958695869525E0829FF0011124B0
:103C7000E050FE4F50E040E080E0219130E0092E1E
:103C800002C0369527950A94E2F721703327042E57
:103C900001C0220F0A94EAF7822B4F5F5F4F453035
:103CA000510559F70895BF92CF92DF92EF92FF929C
:103CB0000F931F93CF93DF938C01C0903C02D09061
:103CC0003D02E0903E02F0903F02809140029091D0
:103CD0004102A0914202B0914302C82AD92AEA2A9D
:103CE000FB2ACFE1D0E0BC2ED701C6010C2E04C0C8
:103CF000B695A795979587950A94D2F780FD0EC043
:103D0000219788F7B12C8B2DDF91CF911F910F91C7
:103D1000FF90EF90DF90CF90BF900895B8018C2F67
:103D20000E942407019761F3EECFCF93DF93EC015C
:103D30000E94531EBE01DF91CF910C9424071F9364
:103D4000CF93DF93EB019091C701992331F0CB0121
:103D5000DF91CF911F910C94951E882379F0CB01B0
:103D60000E94531E182F682FCE010E94001EBE0114
:103D7000812FDF91CF911F910C942407CB010E94DA
:103D80002C1E182FF4CF682F809177009091780027
:103D90000C947F20682F80917700909178000C948C
:103DA000812080917700909178000C9483208091FD
:103DB0004402859585958595089580914402877084
:103DC000089590914402977081E009F480E008958D
:103DD00080915002089590915002892B8093500257
:103DE00008958095909150029823909350020895E1
:103DF00010925002089590914F02892B80934F02A8
:103E00000895809590914F02982390934F020895C2
:103E100010924F02089510924E020895809145022B
:103E2000089508950C94111F90914502981721F060
:103E3000809345020C94121F0895809145028823B7
:103E400029F01092450280E00C94121F0895E09131
:103E50007700F0917800809150028083E0917700A4
:103E6000F0917800808190914F02892B8083E091BE
:103E70007700F0917800808190914E02892B8083A9
:103E800090914502992381F0E0917700F0917800BC
:103E90008081892B808380917700909178000E94A7
:103EA000372081110E941D1F80917700909178002A
:103EB0000C945F1508950C945A1F98E0899F900107
:103EC0001124622B609344020E94641D809144027D
:103ED0008595859585950C945B1F1092440280E032
:103EE0000C945B1F90914402809589238093440237
:103EF000282F277071F4282F082E000C330B9217EF
:103F0000130639F08595859585950E94851D0C943D
:103F10006D1F089590E080E00E942C2521E08C3EEA
:103F20009E4F09F020E0822F089582E090E00C94EB
:103F30001E2583E090E00C941E25CF9384E090E052
:103F40000E941E25C82F81E290E00E941E25982F16
:103F50008C2FCF910895CF93C92F682F84E090E0E4
:103F60000E9432256C2F81E290E0CF910C94322593
:103F700086E090E00C941E25682F86E090E00C947B
:103F80003225AB01BC018FE090E00C944325AB01DE
:103F9000BC0183E190E00C94432560E070E0CB012C
:103FA0000C94C71F60E070E0CB010E94C11F0C940D
:103FB000CD1F6CEE7EEF90E080E00E944F2560E028
:103FC00082E090E00E94322560E083E090E00E9471
:103FD0003225109240021092410210924202109239
:103FE000430260E084E090E00E94322560E081E2DC
:103FF00090E00E94322560E085E090E00E9432254A
:1040000060E086E090E00E9432256FEF87E090E06C
:104010000E94322540E050E0BA0188E090E00E9422
:10402000432560E08DE090E00E94322540E050E0C2
:10403000BA0188E190E00E94432560E087E190E0CA
:104040000E94322540E050E0BA018CE190E00E94ED
:10405000432560E080E290E00E9432250C94D21F5C
:104060000C94D91F682F8EE090E00C9432259C01AF
:104070002E5F3F4FAC01485F5F4F80E0241735074C
:1040800009F40895F90191919F019923B9F38F5F84
:10409000F5CF662349F0FC01329608962191261748
:1040A00029F0E817F907D1F780E0089581E0089535
:1040B0009C01FC0132969FEF80E04191461751F040
:1040C0009F3F19F4411101C0982F8F5F8630A9F7E7
:1040D0009F3F09F40895290F311D97FD3A95F90185
:1040E00062830895FC01329608962191261303C03D
:1040F000DF0111971C92E817F907B9F708950C949E
:1041000058200C947220029626E0FC0111922A9508
:10411000E9F7089508950895CF930E948A200E9498
:1041200044090E948B20C0E08C2F0E94EE08892B4E
:1041300031F4CF5FC630C1F780E0CF91089581E0C0
:10414000FCCF8BE083BF8BEB8CBF82E089BF0895EF
:104150002FB7F8948091890390918A03A0918B03E3
:10416000B0918C032FBF08959C014FB7F8948091B4
:10417000890390918A03A0918B03B0918C034FBF68
:10418000821B930B089578941F921FB61F921124DF
:104190008F939F93AF93BF938091890390918A03EC
:1041A000A0918B03B0918C030196A11DB11D80934A
:1041B000890390938A03A0938B03B0938C03BF91E0
:1041C000AF919F918F911F901FBE1F90189560E037
:1041D00081E090E00E94552587E090EBDC01809320
:1041E000DF039093E003A093E103B093E20388E13F
:1041F0009CE00FB6F894A89581BD0FBE91BDFFCF8E
:104200000E948A1F811102C00E9430200E94951FC7
:10421000809351020E949D1F90938E0380938D0383
:104220000E94991F682F70E090E080E00E94021DBC
:1042300060913C0270913D0280913E0290913F025C
:104240000C943C1D0E94A8208C010E94A1150E9484
:1042500015220E944E150E94F6238B9A80E0815011
:1042600039F58B987894FFEB24ED31E0F150204044
:104270003040E1F700C000000E94AB15C0E0DCE078
:104280008091B6038823F1F01092B6030E94A82013
:104290008C010E9406238091BC03882329F0809121
:1042A0009A0384FD0E94B7150E94BC21C0E0E8CFAC
:1042B000A895E7EBFBE03197F1F700C00000CFCF06
:1042C000C1E0DECFC8010E94B420069710F4CC23D1
:1042D00001F30E948C20C82F882391F3F89491B3A6
:1042E000939A892F8C6081BB82B38D2782BB8FE527
:1042F000EAEEF0E08150E040F040E1F700C000005D
:1043000082B38D2782BB91BB93987894B9CF80916B
:10431000E30208950895CF93DF9300D00F92CDB7B5
:10432000DEB790915402981307C020915202309149
:1043300053022617370791F080935402709353026B
:104340006093520289837B836A838091D30384FFC5
:1043500005C063E0CE0101960E9402230F900F90EA
:104360000F90DF91CF910895BC0184E00C948B21D4
:10437000BC0183E00C948B21CF93DF93CAE0D0E0A3
:1043800080919A0384FF1AC080916002909161022B
:10439000981789F028E0829FC001112468E08E59A7
:1043A0009D4F0E94FE228091600290E001968F70E6
:1043B000992780936002DF91CF9108950E94062390
:1043C00087EB9BE00197F1F700C000002197C1F651
:1043D000F2CFCF93DF93EC01A0916102B0E0CD0169
:1043E00001968F70992720916002281779F093E049
:1043F000AA0FBB1F9A95E1F7AE59BD4F98E0FE0199
:1044000001900D929A95E1F7809361020E94062334
:104410000E94BC2188E0FE01A8E5B2E001900D9267
:104420008A95E1F7DF91CF91089589E790E00895AB
:10443000FC01808180768032F1F48181813061F4E9
:1044400084819581892BB9F488E592E09093B80333
:104450008093B70388E00895823041F482EE92E0C1
:104460009093B8038093B70381E008958A3029F4CC
:1044700083818093E20280E008958930E1F78281B0
:1044800093818115924069F484819581892B49F447
:1044900081E08093570286819781909356028093A2
:1044A00055028FEF0895FC018091550290915602BC
:1044B000892B61F080915702813041F49081909373
:1044C000E302109256021092550208958FEF08955C
:1044D0000895FC019381933059F130F49130C1F08B
:1044E0009230F1F080E00895913209F445C09232A3
:1044F000C9F784819581009709F44FC0019791F71E
:104500008FEE95E09093B8038093B70382E308950C
:1045100089EA95E09093B8038093B70382E1089508
:104520008EE695E09093B8038093B7038BE30895EC
:104530008281813089F0882339F08230A9F083307C
:1045400089F68BEB95E002C08BEE95E09093B80373
:104550008093B70384E008958DED95E09093B803C0
:104560008093B7038CE0089581EC95E09093B803B5
:104570008093B7038AE108958281882331F08130E6
:1045800009F0B0CF89E995E002C080E895E090930A
:10459000B8038093B70389E0089581E296E0909391
:1045A000B8038093B70380E408951F93CF93DF93FC
:1045B000E82F792F162FEA01888184FF1CC02981FA
:1045C00088E828272983CE010296DC012E2F372F79
:1045D000512F5E0FF90121912D939F01452F4E1B05
:1045E0001416C4F3612F0E948C031C5F1883DF91A3
:1045F000CF911F9108958AE58883E5CF4AE953E07A
:104600000C94D52243ED53E00C94D522CF93DF9345
:104610006091B903635067FD12C08091B503CCE08F
:10462000D0E0C81BD109C354DC4F8091B403803162
:1046300008F054C0CE010E9468221092B903809104
:10464000840084FF3EC0809183008F3FD1F1C82F4A
:10465000893008F0C8E0982F9C1B909383009091BC
:104660008F0328E8922790938F038823E9F08091A5
:10467000B7039091B8032091B30326FFAEC0FC01AD
:104680002C2FA0E9B3E034913D9331962150D9F716
:104690009C012F5F3F4F8FEF8C0F820F932F911D47
:1046A0009093B8038093B7036C2F80E993E00E9446
:1046B0008C03CC5FCC3019F08FEF80938300C093D4
:1046C000840084E190B39C7031F48150D9F710924A
:1046D000BA031092B203DF91CF9108958D3209F0A1
:1046E00069C0683009F0A9CF83EC80938F038AE515
:1046F000809384001092B3038881807671F0CE019C
:104700000E9418228F3FC1F4988197FD8E8190E816
:104710009093B3038093830090CF2A8110929803E3
:104720009981911111C01092990328E933E082E038
:104730003093B8032093B7039F819111EBCF9E81F3
:10474000981740F7892FE6CF953029F42093BA03C4
:1047500028E933E0EDCF963099F49B81913021F434
:10476000CE010E94692208C09230D1F39330C1F388
:104770009132B1F39232A1F390E49093B303C2CF9C
:10478000983089F0993019F42093BC03E1CF9A3026
:1047900071F09B30E9F69BE490939B039093D403D4
:1047A0009093A703D5CF2CEB33E081E0C1CF28E96C
:1047B00033E0FBCF8091B30387FF3FCFCE010E9450
:1047C00053228F3F21F48EE18093840036CF8823DB
:1047D00009F433CF1092830030CFDC012C2FE0E9B5
:1047E000F3E03D9131932150E1F752CFCF93DF9326
:1047F00085B7886085BF8BB780688BBFCAE9D3E077
:104800008BE48983A3EDB3E011968C931197E6EACC
:10481000F3E081838AE588838C938083DF91CF9155
:104820000895991B79E004C0991F961708F0961B0C
:10483000881F7A95C9F78095089587FB082E06266C
:1048400087FD819567FD61950E9411240EF4919575
:1048500007FC81950895AA1BBB1B51E107C0AA1F45
:10486000BB1FA617B70710F0A61BB70B881F991F11
:104870005A95A9F780959095BC01CD01089597FBB5
:10488000072E16F4009407D077FD09D00E942B2440
:1048900007FC05D03EF4909581959F4F0895709543
:1048A00061957F4F0895A1E21A2EAA1BBB1BFD0143
:1048B0000DC0AA1FBB1FEE1FFF1FA217B307E407FF
:1048C000F50720F0A21BB30BE40BF50B661F771F57
:1048D000881F991F1A9469F7609570958095909537
:1048E0009B01AC01BD01CF010895EE0FFF1F0590A4
:1048F000F491E02D09940E948324332312F48A1B3F
:104900009B0B0C949424A29FB001B39FC001A39F62
:10491000700D811D1124911DB29F700D811D1124F8
:10492000911D08950E948324B7FF0895821B930B65
:1049300008950E948324A59F900DB49F900DA49F7D
:10494000800D911D11240895B7FF0C9499240E94A5
:104950009924821B930B08958F929F92AF92BF92DE
:10496000CF92DF92EF92FF92CF93DF93EC016881B9
:1049700079818A819B81611571058105910521F4F9
:1049800064E279ED8BE597E02DE133EF41E050E013
:104990000E94722549015A019B01AC01A7EAB1E4CA
:1049A0000E9499246B017C01ACEEB4EFA501940147
:1049B0000E94A724DC01CB018C0D9D1DAE1DBF1DE7
:1049C000B7FF03C00197A109B04888839983AA83E0
:1049D000BB839F77DF91CF91FF90EF90DF90CF90D7
:1049E000BF90AF909F908F9008950E94AC2408953F
:1049F00080E690E00E94AC240895B0E0A0E08093AF
:104A0000600090936100A0936200B09363000895EA
:104A1000FC014150504030F001900616D1F731971B
:104A2000CF010895882799270895FB01DC0102C072
:104A300001900D9241505040D8F70895E199FECF72
:104A40009FBB8EBBE09A99278DB30895A6E1B0E095
:104A500044E050E00C946425A8E1B0E042E050E06E
:104A60000C946425262FE199FECF9FBB8EBBE09A64
:104A700001970DB2021631F02DBB0FB6F894E29AF1
:104A8000E19A0FBE08950396272F0E9433250E94B6
:104A90003225252F0E943325242F0C94332501968F
:104AA000272F0E9433250C943225262FE199FECF23
:104AB0009FBB8EBB2DBB0FB6F894E29AE19A0FBE56
:104AC00001960895DC01CB01FC01E199FECF06C0FF
:104AD000FFBBEEBBE09A31960DB20D9241505040B3
:104AE000B8F70895052E97FB1EF400940E948925BF
:104AF00057FD07D00E94532407FC03D04EF40C94BA
:104B0000892550954095309521953F4F4F4F5F4FE8
:104B1000089590958095709561957F4F8F4F9F4F29
:104B20000895F894FFCF25112D11341139113E113C
:104B3000431148114D11521157115C11611165114A
:104B40006A116D1170117311761178117B11C717ED
:104B5000C7171F181F187118F417F417F4178D18BA
:104B6000191928192819EE19EE19F719F719F91951
:104B7000F719F719F719EE19EE19FE19F719F719C0
:024B8000FE191C
:104B820001000000010102001400141401191A1B93
:104B92001C1D1E1F20212246028721E9218A21B8DD
:104BA20021B421FF5A05050505050505050505057D
:104BB2000505050505010501E200E900EA00B50069
:104BC200B600B700CD008301CC008A0192019401A6
:104BD2002102230224022502260227022A02B3000E
:104BE200B4006F00700081828390919293949596A5
:104BF20097606162636465666732333435363700C5
:104C020001020202020606060909090909090F0F33
:104C12000F0F0F0F15151518191919191919191937
:104C220019192324252525252525E200E900EA0076
:104C3200B500B600B700CD008301CC008A01920115
:104C420094012102230224022502260227022A02BB
:0C4C5200B300B4006F007000818283008A
:00000001FF
