:100000000C9423020C9467020C9482020C946702F5
:100010000C9467020C9467020C9467020C946702BC
:100020000C9467020C9467020C9405170C946702F9
:100030000C9467020C9467020C9467020C9467029C
:100040000C9467020C9467020C9467020C9467028C
:100050000C94670229003A003B003C003D003E0042
:100060003F0040004100420043004400450046007C
:100070004700480035001E001F002000210022001C
:10008000230024002500260027002D002E004C0010
:100090002A0049002B0014001A0008001500170060
:1000A0001C0018000C00120013002F00300031005B
:1000B0004A004B00394104001600070009000A00FD
:1000C0000B000D000E000F0033003400320028003A
:1000D0004D004E00E10064001D001B0006001900E9
:1000E000050011001000360037003800E50001510E
:1000F00052004C00E000E300E2002C000000000091
:100100002C0000002C00E600E7006500E400500031
:1001100051004F00005C01000100010001000100DE
:1001200001000100010001000100010001000100C7
:1001300001000100010001000100010001000100B7
:1001400001000100010001000100010001000100A7
:100150000100010001000100010001000100010097
:1001600001000100010001000100AA00A900010036
:100170000100010001000100010001000100010077
:100180000100010001000100010001000100010067
:100190000100010001000100010001000100010057
:1001A00001000100A80001000100010001000100A0
:1001B0000100010001000100010001000100010037
:1001C0000100010001000100010001000100010027
:1001D0000100010001000100010001000100010017
:1001E0000100010001000100010001000100010007
:1001F00001000100010001000100010001000100F7
:1002000001000100010001000100010001000100E6
:1002100001000100010001000100010001000100D6
:1002200001000100010001000100010001000100C6
:1002300001000100010001000100010001000100B6
:1002400001000100010001000100010001000100A6
:100250000100010001000100010001000100010096
:100260000100010001000100010001000100010086
:100270000100010001000100010001000100010076
:100280000100010001000100010001000100010066
:100290000100010001000100010001000100010056
:1002A0000100010001000100010001000100010046
:1002B0000100010001000100010001000100010036
:1002C0000100010001000100010001000100010026
:1002D0000100010001000100010001000100010016
:1002E0000100010001000100010001000100010006
:1002F00001000100010001000100010001000100F6
:1003000001000100010001000100010001000100E5
:1003100001000100010001000100010001000100D5
:1003200001000100010001000100010001000100C5
:1003300001000100010001000100010001000100B5
:1003400001000100010001000100010001000100A5
:100350000100010009023B00020100A0FA090400AB
:1003600000010301010009210101000122400007F1
:1003700005810308000109040100010300000009D0
:100380002101010001223200070583030800011248
:1003900001100100000008FEFF53410001010203AB
:1003A0000104033000000018034C005A00200045EF
:1003B00000720067006F00200054004B004C0000EA
:1003C000000C034C00650065004B00750000000444
:1003D00003090405010980A101850319012AB70059
:1003E000150126B700950175108100C0050C0901A3
:1003F000A101850419012AA002150126A002950178
:1004000075108100C005010906A101050719E02941
:10041000E715002501950875018102950175088190
:10042000030507190029FF150026FF00950675082A
:1004300081000508190129059505750191029501AD
:1004400075039103C00011241FBECFE5D8E0DEBFC5
:10045000CDBF04B603FE24C08091EB029091EC0264
:10046000A091ED02B091EE028730904BA740B04BC7
:10047000B9F41092EB021092EC021092ED0210927D
:10048000EE0214BE84B7877F84BF0FB6F894A89598
:1004900081B5886181BD11BC0FBEE0E0F8E309952C
:1004A00010E0A0E6B0E0E6E8F5E302C005900D92AA
:1004B000AA3FB107D9F722E0AAEFB0E001C01D9230
:1004C000AB3EB207E1F70E9464170C94A71A0C9494
:1004D0000000A82FB92F80E090E041E050EA60953D
:1004E00030E009C02D9182279795879510F08427D9
:1004F0009527305EC8F36F5FA8F30895EADF8D9308
:100500009D930895CF93CFB7CF93C395839BE9F77E
:10051000839B0EC0839B0CC0839B0AC0839B08C037
:10052000839B06C0C091C202C395C093C202A6C0FD
:10053000DF93C091C102DD27C753DD4F839B02C00B
:10054000DF91E6CF2F930F931F9300B32FEF03FBA1
:1005500020F94F933F9310B34FEF012703FB21F98D
:100560003BE031C04E7F012F10B3216028C0102F17
:100570004D7F2260000000B329C04B7F2460012F13
:10058000000010B32BC010B3477F28602AC04F7EF5
:1005900000B320612CC04F7D10B320622FC04F7B71
:1005A00000B3206432C0422700B349934FEF0000EC
:1005B000102713FB20F910B31C70C9F1297F91F2A9
:1005C000012703FB21F900B3237F89F2315058F151
:1005D000102713FB22F910B3277E79F2012703FBC2
:1005E00023F92F7C81F200B3102713FB24F92F7914
:1005F00071F200C010B3012703FB25F92F7359F2E4
:1006000000C000B3102713FB26F9223040F200C0CF
:1006100010B3012703FB27F9243028F64F77206811
:1006200010B30000F9CF10E81ABF00271CC03B50E0
:100630003195C31BD04010E81ABF0881033C11F16B
:100640000B3401F12091BE021981110F1213EDCF6D
:100650004A81441F093669F10D3211F0013E29F734
:100660004F7009F0042F0093C7023F914F911F91E3
:100670000F912F91DF91CAB7C7FD47CFCF91CFBF61
:10068000CF9118952091C702222379F31091C502CA
:10069000112309F044C034300AF443C03093C5023A
:1006A0002093C0021091C1023BE0311B3093C10284
:1006B00038C00091C502013094F50AE54F7049F445
:1006C00030916D0034FD2FC000936D00CBE9D2E076
:1006D0002EC0433059F0443091F03091A60234FDE1
:1006E00022C00093A602C7EAD2E021C03091DF0207
:1006F00034FD19C00093DF02C0EED2E018C0309183
:10070000B20234FD10C00093B202C3EBD2E00FC0BE
:100710002795A8F45150A9F4220F0000F9CF4AE51B
:1007200003C042ED01C0432FC4E1D0E032E011B379
:100730001C60939A11BB02B320E41CE05F93012775
:1007400056E002BB279520F4515021F4220FF9CF37
:10075000012756E000003B5A02BBD0F2279528F44F
:10076000515029F4220F0000F9CF012756E02795B8
:1007700002BB20F4515021F4220FF9CF012756E09B
:100780002991332302BB21F6037F1091C602110F7A
:10079000C651D04002BB11F01093BE0210E81ABF40
:1007A000086011B3137F402F437F5F9100C000C0EA
:1007B00002BB11BB42BB59CFA8950C94AA0798E283
:1007C0009093320294E0909333029FEF909334021F
:1007D0008093350224E630E044E050E062E372E0CA
:1007E00080EB0E947A0B892B81F087E99AE30197CD
:1007F000F1F700C000004091330250E024E630E001
:1008000062E372E080EB0C947A0B08951F93CF9310
:10081000DF93CDB7DEB72F970FB6F894DEBF0FBECC
:10082000CDBF8091FA00811105C00E94EC0A81E0E1
:100830008093FA0080E00E94DF0387E99AE3019742
:10084000F1F700C000008FE0EEE6F0E0DE01119667
:1008500001900D928A95E1F78BE28093320281E15B
:10086000809333028FE0FE013196A4E3B2E0019061
:100870000D928A95E1F724E630E041E150E062E331
:1008800072E080EB0E947A0B87E99AE30197F1F717
:1008900000C000001092320215E01093330285E18F
:1008A00080933402109236021092350224E630E032
:1008B00045E050E062E372E080EB0E947A0B87E94A
:1008C0009AE30197F1F700C0000084E180933202BF
:1008D00086E0809333021092340210923502109217
:1008E00036021092370224E630E046E050E062E340
:1008F00072E080EB0E947A0B87E99AE30197F1F7A7
:1009000000C000008AE18093320284E080933302C9
:1009100083E090E0909335028093340224E630E047
:1009200044E050E062E372E080EB0E947A0B87E9DA
:100930009AE30197F1F700C0000080917D0090914B
:100940007E00A0917F00B091800029E120933202C7
:1009500027E0209333021093340280933502909362
:100960003602A0933702B093380224E630E047E025
:1009700050E062E372E080EB0E947A0B87E99AE331
:100980000197F1F700C000002F960FB6F894DEBF74
:100990000FBECDBFDF91CF911F9108958FEF8BBB1D
:1009A0001ABA88BB17BA85BB14BA81EF82BB83E041
:1009B00081BB88E19FE00FB6F894A89581BD0FBE7A
:1009C00091BD0C940604CF93DF93C82F0E94C205FB
:1009D000D82F882351F183E0809332028093330231
:1009E0008C2F8170C0FD84E0C1FD8260C2FD8160FA
:1009F0008093340224E630E043E050E062E372E0AA
:100A000080EB0E947A0B892B81F087E99AE30197AA
:100A1000F1F700C000004091330250E024E630E0DE
:100A200062E372E080EB0E947A0B8D2FDF91CF9111
:100A3000089581E0089581E008950C941B050895C0
:100A40000C941F051F93CF93DF9300D000D00F921B
:100A5000CDB7DEB749835A836B8330911501898105
:100A60009A8131111DC06623B9F02223A9F00E949A
:100A70009E14182F682F89819A810E944B146981D6
:100A80007A81812F0F900F900F900F900F90DF9130
:100A9000CF911F910C94CC050E947714182FEFCFA3
:100AA0000E949E1469817A81EDCFFC01262F40813E
:100AB00051816281738184810C942205CF93DF93ED
:100AC000EC0160E00E945505BE01DF91CF910C94CE
:100AD00020050E94D515811102C00E9472160C9447
:100AE000A8070C94DC0308950E942A100E94730545
:100AF0002FEB87E299E0215080409040E1F700C061
:100B000000000C9429170F931F93CF93DF93EC01F0
:100B100061E00E9455058C01BE010E941D058823DD
:100B200029F1BE01C8010E944D098823F9F0BE01D8
:100B3000C8010E949F098823C9F0BE01C8010E9414
:100B4000C20A882399F08A81882339F001158CE53F
:100B5000180751F00E3D1C4579F0CE01DF91CF9181
:100B60001F910F910C9419050E94740580E0DF918C
:100B7000CF911F910F9108950E947216F7CF08959B
:100B80000C94BF0581E00895CF93C82F0E94C00543
:100B90008C2FCF910C94E304E72FF0E096E0899F2F
:100BA000E00DF11D112484E0EE0FFF1F8A95E1F79F
:100BB000E60FF11DEE0FFF1FEC5AFF4F8591949148
:100BC0000895CF93DF930E94CC050E94CD06EC01DF
:100BD000811522E59207E8F5811531E5930708F0C4
:100BE000ACC0883E910510F5803E910570F5883ABD
:100BF000910570F4853A910508F078C0813091052F
:100C000021F1009711F1049700F5D0E0C0E01DC07C
:100C10008F3B9105D0F7C85AD0E0CC0FDD1FCF57DE
:100C2000DF4F0990D881C02DD4640FC0811540E5F5
:100C3000940708F066C0C11580E4D80708F05EC0CC
:100C4000CE019A9581159F4100F7CE01DF91CF919A
:100C50000895811536E5930718F5811545E5940744
:100C600008F083C0C11584E5D80708F079C09C2F2F
:100C7000969596959E0123703327C115D34508F4A8
:100C800061C0C1E0D0E002C0CC0FDD1F2A95E2F7C1
:100C900030E2939FC0011124C82BD92BDA68D5CF3D
:100CA000C1158AE5D80778F4C11599E5D90708F088
:100CB00066C0C11528E5D20708F4A7CFDC2FCC27E2
:100CC000C06FD06AC2CFCE0190568115904208F015
:100CD0009CCF8D2F8F710E94640790E0982F8827FA
:100CE00088279F719C012C2BE90147C0C55AD0E091
:100CF000C155DF4FC881D0E0D064A7CFDF70D06A84
:100D0000A4CFE4E096958795EA95E1F783702C2FC0
:100D100026952695237040E2249F90011124382BBC
:100D20008C2F8370C1E0D0E002C0CC0FDD1F8A950C
:100D3000E2F7C22BD32BDC6888CFD82FCC27C16F2A
:100D4000D06A83CFC1E0D0E002C0CC0FDD1F2A956E
:100D5000E2F720E2929FC0011124C82BD92BEBCFE0
:100D6000DC2FCC27C46FD06A70CF0E946407C82FD5
:100D7000D0E0DC2FCC27CC27DF71D06266CF8C2F60
:100D80008F700E94640734E0D695C7953A95E1F7D5
:100D9000CF709C2FEC01D06958CF82389105B1F10A
:100DA000B0F48133910509F475C048F48932910596
:100DB00009F469C08A32910509F473C00895853336
:100DC000910509F459C08933910501F10895833ED5
:100DD0009105A9F138F4803E9105F9F0823E910524
:100DE00049F10895863E9105A9F1873E9105C9F123
:100DF000843E910519F520919A0221FF1FC0809130
:100E0000990284FD14C087EE90E008952091990224
:100E10002370A1F080EE90E008952091990220FDCA
:100E200047C030919A0230FF09C024FF44C090E0CF
:100E300080E004C02091990222FDF7CF089520910F
:100E4000990222FD3BC030919A0230FDE3CF24FF8E
:100E5000F5CFEDCF2091990223FFF0CF24FDE7CF0E
:100E6000D2CF2091990223FD2CC030919A0231FFFC
:100E7000EECF84EE90E008952091990225FFDECF19
:100E800089E290E008952091990225FFD7CF85E36C
:100E900090E008952091990226FFD0CF8AE290E059
:100EA00008952091990226FFC9CF81E390E008952B
:100EB00089E390E0089583EE90E0089582EE90E05B
:100EC000089586EE90E008959091990292FF06C0F1
:100ED000282F28712830F9F4877F846093FF06C09B
:100EE000282F28712831F1F4877E846120919A029D
:100EF00020FF06C0382F38713830D9F4877F8160E1
:100F000021FF06C0282F28712831D1F4877E816106
:100F100094FD877E0895282F24712430F9F68B7F65
:100F20008860DCCF282F2471243101F78B7E886103
:100F3000DDCF382F3171313019F78E7F8860E0CFE7
:100F4000282F2171213121F78E7E8861E1CF08950C
:100F50000C94A7070895E82FF0E0EE0FFF1FE75766
:100F6000FD4F808191810895089588E78A95F1F772
:100F70000895A2ECB0E061E070E08D91E82FE29579
:100F8000EF70F0E041A98F709B0101C0220F8A959C
:100F9000EAF7922F9095942391AB82A9822B82AB92
:100FA00080E0A83CB80749F7A2EBB0E061E070E050
:100FB0008D91E82FE295EF70F0E041A98F709B01D1
:100FC00001C0220F8A95EAF7922F9095942391AB56
:100FD00082A9822B82AB80E0A23CB80749F7EDE7FB
:100FE000F2E0A9E8B2E089E892E0119211921D9234
:100FF0001D928E179F07C9F786E00E9488080C94FF
:1010000069058F929F92AF92BF92CF92DF92EF923B
:10101000FF920F931F93CF93DF9382ECE82E80E033
:10102000F82E0DE712E0912CAA24A394B12CF7011D
:1010300081917F01C82FC295CF70D0E099A98F70A0
:10104000650101C0CC0C8A95EAF7892F8C2989AB00
:101050008AA98C2C809488218AAB0E94B507E2EB88
:10106000F0E050E040E030E020E06191A62FA29552
:10107000AF70B0E0D0968C9190E06F7002C0959503
:1010800087956A95E2F780FD3EC0C501042E02C037
:10109000880F991F0A94E2F7282B392B4F5F5F4F77
:1010A0004031510511F789A9882289AA8AA9C82A3D
:1010B000CAAAF801808191812817390739F1318353
:1010C000208381E0982A0E5F1F4FF8ECEF16F0E0C6
:1010D000FF0609F0ACCF292D46E069E872E08DE704
:1010E00092E00E9489080E947105892DDF91CF91BD
:1010F0001F910F91FF90EF90DF90CF90BF90AF9036
:101100009F908F90089590E080E0C6CF80E0DACF86
:101110000895FF920F931F93CF93DF93F82E092F1B
:10112000162FD72FC42F222349F081E08093FD0092
:101130000E94EA169093FC008093FB008091FD00D2
:101140008823A1F08091FB009091FC000E94F6168C
:10115000069760F0EF2DF02FA12FBD2F90E080E0DB
:10116000D0E08C179D0744F01092FD00DF91CF91E5
:101170001F910F91FF900895219131912D933D93EF
:101180000196EFCFAF92BF92CF92DF92EF92FF9294
:101190000F931F93CF93DF937C015B01C42FD22F5A
:1011A000FC0182818823F9F0409300010E94EA1635
:1011B0009093FF008093FE0080E28C0F883008F04F
:1011C00061C0C77081E001C0880FCA95EAF7DF915E
:1011D000CF911F910F91FF90EF90DF90CF90BF9034
:1011E000AF900C94CA0D10910001141340C080916F
:1011F000FE009091FF000E94F6166C01B701C50138
:101200000E94A012C816D90690F5C0E2CD0F1D1796
:10121000B9F080E2810F883040F4177081E001C09E
:10122000880F1A95EAF70E94D10DC83048F481E082
:101230009D2F977001C0880F9A95EAF70E94CA0DFA
:10124000802F0E94B70DC830E8F4D77081E001C04C
:10125000880FDA95EAF7DF91CF911F910F91FF90F8
:10126000EF90DF90CF90BF90AF900C94D10D80E2C3
:101270008C0F883038F4C77081E001C0880FCA95A0
:10128000EAF7E9CFDF91CF911F910F91FF90EF9097
:10129000DF90CF90BF90AF9008950F939C01CB014A
:1012A000233F4CE5340759F1A8F4283DFCE53F07FE
:1012B00001F1293D4CE53407D1F1273D3C4591F43E
:1012C00006E221EE41EE67ED7CE50E94C20880E077
:1012D0000F910895253FFCE53F07E9F0B0F0263F68
:1012E0003C45F9F0FC018281882339F1109200011C
:1012F000EFCF07E225EE45EE68ED7CE5E6CF06E2AE
:1013000021EE40EE63EF7CE5E0CF07E225EE44EE10
:1013100064EF7CE5DACF06E221EE42EE65EF7CE594
:10132000D4CF07E225EE46EE66EF7CE5CECF08E2AD
:1013300021E045EE69ED7CE5C8CF81E0C9CFCF93D0
:10134000DF93EC01FB018281882309F419C1C230CB
:10135000FCE5DF07C0F1C6319CE5D90730F09E01FE
:101360002A5F3C452930310570F50E94E8159093BD
:101370009A0280939902C031ECE5DE0709F4CFC0F0
:1013800008F05BC0C8308CE5D80709F4B6C088F512
:10139000C430ECE5DE0709F4A8C0C0F4C2308CE527
:1013A000D80709F49CC0809199028260C330DC4563
:1013B00009F498C08091990290919A020E94F615C2
:1013C0000E942A1080E0DF91CF91089580919902C8
:1013D0008061C630ECE5DE0709F484C08091990293
:1013E0008860C730DC4508F47DC080919902806236
:1013F00079C0CC308CE5D80709F489C070F48091AD
:1014000099028C60CA30ECE5DE0709F46BC008F481
:1014100078C0809199028E7F65C0CE308CE5D80768
:1014200009F479C0809199028B7FCF30DC4508F4B4
:1014300059C0809199028F7E55C0CB3FECE5DE0705
:1014400009F457C030F5C3318CE5D80709F46FC0F3
:1014500078F4C131ECE5DE0709F465C0C231DC4542
:1014600009F0A8CF0E942A10809199028F773AC084
:10147000C5318CE5D80709F462C008F476C08091C4
:101480009A028160CA3FDC4509F094CF80939A02AA
:1014900091CFCF3FFCE5DF0709F44DC088F4809180
:1014A0009A028D7FCD3F9CE5D90781F380919A0206
:1014B0008E7FCE3FDC4550F380919A028360E6CF69
:1014C000C130FDE5DF0709F459C008F444C080E0ED
:1014D000C230DD4509F06ECF0E9474166BCF80914B
:1014E000990281608093990265CF8091990284600E
:1014F000F9CF80919A028260C9CF8091990280646D
:10150000F1CF0E942A10809199028068EBCF8091E0
:1015100099028D7FE7CF80919902877FE3CF8091F9
:1015200099028F7DDFCF809199028F7BDBCF8091F5
:101530009902837FD7CF80919A028C7FA7CF809129
:10154000990282FB992790F921E0922790FB82F97A
:1015500090FB83F9C7CF80919A02982F9095917054
:101560008E7F892B90FB81F991CF0E942A10909158
:101570009902892F97FB87F98058B4CF81E0ACCFCF
:1015800081E021CFCF93DF93EB0186319C4511F5AC
:101590000E9433159A81992399F08A7A91E009F48F
:1015A00090E090930101811109C089E20E940E151B
:1015B0000E94721580E0DF91CF91089585E3F6CF08
:1015C00080910101811104C089E20E941515F0CFBC
:1015D00085E3FBCF81E0EFCF11B887E080B985B319
:1015E000836085BB86B7846086BF86B7816086BF0F
:1015F00086B7806486BF0895EF92FF920F931F9382
:10160000CF93DF93182FEB0116BE84EA86BF0E94AA
:10161000EA167C0106B607FE21C081B1887F8830BA
:1016200021F081B1887F8031B9F513B984E886BF94
:101630000E94EA168C0106B607FE23C021B1287F5E
:1016400090E080E02831B1F081E090E0203411F4A6
:1016500090E080E09195819591090CC0CF3FDC0727
:10166000C9F20E94EA168E199F098C179D0790F205
:101670008EEF9FEFDF91CF911F910F91FF90EF9031
:101680000895CF3FDC07B9F20E94EA16801B910B48
:101690008C179D0780F2ECCF8FEF9FEFEBCF0F936E
:1016A0001F93CF93DF93EB0183B984E886BF0E9439
:1016B000EA168C0106B607FE10C021B1287F81E032
:1016C00090E0283211F490E080E0919581959109A5
:1016D000DF91CF911F910F910895CF3FDC0751F318
:1016E0000E94EA16801B910B8C179D0718F38EEF52
:1016F0009FEFEECFCF92DF92EF92FF920F931F9367
:10170000CF93DF936B018A017901B9010E94FC0A32
:10171000E6010C0D1D1DC017D10759F424E926BFA1
:10172000DF91CF911F910F91FF90EF90DF90CF90BD
:10173000089597FDF3CFB70189910E944F0BEBCF2E
:1017400090930701809306010895E0910601F091BE
:101750000701309721F00190F081E02D099480E09D
:101760000895E0910601F0910701309721F0028081
:10177000F381E02D09940895209104013091050131
:101780002817390771F09093050180930401E091C7
:101790000601F0910701309721F00680F781E02DD6
:1017A0000994089520910201309103012817390707
:1017B00071F09093030180930201E0910601F09192
:1017C0000701309721F00084F185E02D09940895F8
:1017D00084B7806884BF84B7806884BF0895089503
:1017E00008950C94F00B0E94E80B0E94EF0B0C94F0
:1017F000CE0481E008950C94F90B0E94E3160E9438
:10180000B9070E9442170C94F10B9F92AF92BF92BE
:10181000CF92DF92EF92FF920F931F93CF93DF93BC
:10182000CDB7DEB72A970FB6F894DEBF0FBECDBF97
:101830000E9401080E94FB0B882309F46DC059E047
:10184000A52E51E0B52E10E000E0902E802F0E94D2
:10185000AB076C01F501E190F1905F01E816F90624
:1018600009F454C080919F0181FD0E94B407970143
:101870002C253D2580E0EE24E394F12CA9014E2196
:101880005F21452BE9F18E839F82CE20DF2081E00E
:10189000CD2809F480E088870E94EA168160782FBD
:1018A0009A8789874E815F8168858A850E94AF0CFF
:1018B000000F111FF801E75FFE4F80819181E8263C
:1018C000F926F182E0820E94A50B90910801891708
:1018D000A1F10E94A50B809308012A960FB6F894F7
:1018E000DEBF0FBECDBFDF91CF911F910F91FF9053
:1018F000EF90DF90CF90BF90AF909F900C94C40575
:101900008F5FEE0CFF1C803109F0B8CF0F5F1F4FC7
:101910000630110509F099CF8FEF89838A831B82E6
:101920000E94EA168160782F9D838C8349815A81B9
:101930006B818D810E94AF0CC6CF2A960FB6F894AA
:10194000DEBF0FBECDBFDF91CF911F910F91FF90F2
:10195000EF90DF90CF90BF90AF909F900895CF937E
:10196000DF93CDB7DEB72B970FB6F894DEBF0FBE6F
:10197000CDBF4F83588769877A878B871E821D82E8
:1019800085E0FE013796DE01119601900D928A9551
:10199000E1F749815A816B817C818D819E812B96F3
:1019A0000FB6F894DEBF0FBECDBFDF91CF910C9480
:1019B000A312FC01808191810C94E014CF93C82F75
:1019C000882309F483C08238C1F40E94A50B81FDED
:1019D0007DC089E30E940E150E9472152FE789EAE7
:1019E00093E0215080409040E1F700C0000089E37F
:1019F0000E941515CF910C9472158338A1F40E94A2
:101A0000A50B80FD63C083E50E940E150E94721530
:101A10002FE789EA93E0215080409040E1F700C031
:101A2000000083E5E5CF8438A1F40E94A50B82FD78
:101A30004DC087E40E940E150E9472152FE789EAB7
:101A400093E0215080409040E1F700C0000087E41F
:101A5000CFCF8CEF8C0F813A90F46C2F8091600087
:101A6000909161000E948B16882329F08C2F0E9490
:101A700015150E9472158C2F0E940E15BBCF80E2A7
:101A80008C0F883048F4C77081E001C0880FCA9578
:101A9000EAF70E943615AECFEBE5EC0FE33040F4E9
:101AA000F0E0EA50FF4F808190E0CF910C94BC0BA6
:101AB000C85AC73158F4EC2FF0E0EE0FFF1FE8537F
:101AC000FF4F80819181CF910C94D20BCF910895DB
:101AD000882309F44BC0823871F40E94A50B81FF62
:101AE00045C089E30E940E150E94721589E30E9489
:101AF00015150C947215833859F40E94A50B80FFBC
:101B000035C083E50E940E150E94721583E5EFCF64
:101B1000843859F40E94A50B82FF28C087E40E94F4
:101B20000E150E94721587E4E2CF9CEF980F913A50
:101B3000F0F290E2980F983050F4877091E001C075
:101B4000990F8A95EAF7892F0E943C15D2CF9BE521
:101B5000980F933020F490E080E00C94BC0B885AEE
:101B6000873120F490E080E00C94D20B0895CF935D
:101B7000C82F0E94DE0CC93349F42FEF8DEE92E09E
:101B8000215080409040E1F700C000008C2FCF91A1
:101B90000C94680D882321F00E9436150C94721560
:101BA0000895882321F00E943C150C947215089525
:101BB000BF92CF92DF92EF92FF920F931F93CF933A
:101BC000DF936C01D62FC72FFC01058102950F70A2
:101BD000128111110E9453150E942C15E82E8823A2
:101BE00091F01123E9F08C2F807F803421F080E286
:101BF0008D0F8830A8F082E00E94BD150E942C1540
:101C000091E0E82EE926BC2EB2949FE0B922FBE0D9
:101C1000FB15A8F1EB2DF0E0E755F54E0C94531AA7
:101C2000E12CF1CF0C2F0F70C07F11F00295007FD7
:101C30001123A9F0002359F080E28D0F883010F0B5
:101C4000D11109C0802F0E9436150E9472158D2F68
:101C50000E94DE0C14C0802F0E944615F6CF8D2FF7
:101C60000E94680D002359F080E28D0F883010F03B
:101C7000D1112CC0802F0E943C150E9472152B2D73
:101C80002850330B2430310520F40E94A50B0E940C
:101C9000C405EE2009F483C10E94281580FD7FC190
:101CA000F60112820E9422150E94AF13C6010E9403
:101CB000F00F0E942215DF91CF911F910F91FF909D
:101CC000EF90DF90CF90BF900C94D013802F0E94A4
:101CD0004C15D3CF2C2F2F70F22EC07FC03219F0AD
:101CE000F29480EFF822DD2369F0D13049F111231D
:101CF00091F1002351F1F601858180FFA8CF8F700B
:101D0000858323C0112381F0011106C00E9459155B
:101D10008F290E94CA0DB3CF0130C1F70E94591517
:101D20008F290E945F15ABCF011106C00E94681574
:101D30008F2D0E94D10DA3CF013009F4A0CFF6CF93
:101D4000112329F0063008F09ACF8F2DE2CF05300D
:101D500008F095CFEDCF002359F3D93349F4FFEFC5
:101D60002DEE32E0F15020403040E1F700C000009D
:101D70008D2F0E94680D83CF8C2F8695869583705A
:101D800069F0813009F07BCF8D2F9C2F937011115A
:101D900002C090E080E00E94D20B71CF8D2F9C2F6B
:101DA0009370111102C090E080E00E94BC0B67CFDD
:101DB0008C2F837009F041C0111161CF4D2F4295D6
:101DC00046954770440F440F0D2F0F7010E030E020
:101DD00020E0042E04C0000F111F221F331F0A949D
:101DE000D2F760E070E0CB01D4FF0FC06FE070E08D
:101DF00080E090E004C0660F771F881F991F4A9506
:101E0000D2F76095709580959095C695C695C370EC
:101E1000602B712B822B932BC23049F058F4C130C8
:101E200019F00E9461132BCF0E944F1328CF0E94FC
:101E3000731325CF0E944D1322CF8695112311F0E5
:101E40008C2F8170882309F41ACF4D2F4295469527
:101E50004770440F440F0D2F0F7010E030E020E06A
:101E6000042E04C0000F111F221F331F0A94D2F743
:101E700060E070E0CB01D4FF0FC06FE070E080E065
:101E800090E004C0660F771F881F991F4A95D2F70C
:101E90006095709580959095C695C695C370602B9A
:101EA000712B822B932BC23049F058F4C13019F0BA
:101EB0000E942614E4CE0E941414E1CE0E9438142D
:101EC000DECE0E948913DBCECF70112329F08C2F38
:101ED0000E94AF138D2F1DCF8D2F0E94D10D8C2FFF
:101EE0000E94D013CCCED23F89F160F4D03FC9F02C
:101EF000D13F29F1112309F442C00111A8CE8C2F42
:101F00008F7121C0D33F39F1D43FA1F7112369F17B
:101F1000CF718C2F0E94AF1363E08C2F0E94A81505
:101F2000AECE112341F0053008F0A9CE8C2F8F7171
:101F30000E94F313A4CE063008F0A1CEF7CF8C2F69
:101F40008F71112369F20E94AF1399CE8C2F8F717C
:101F50001123C9F3C5CF112329F08C2F8F710E9453
:101F60009A138DCE0E9495138ACE81E00E94BD15F2
:101F7000023008F484CE82E00E94BD1580CE00239A
:101F800059F0D93309F0F4CE8FEF9DEEE2E08150A5
:101F90009040E040E1F7EACE8C2F8F71A1CFDF9126
:101FA000CF911F910F91FF90EF90DF90CF90BF9056
:101FB00008950F931F93CF93DF93EC01688179818C
:101FC0008A810E94EA148C010E944A140E944C13D8
:101FD000B801CE01DF91CF911F910F910C94D80DD4
:101FE000CF93DF93EC018B819C81892B29F0888131
:101FF000998189238F3F59F4DF91CF910895CE01C4
:102000000E94D90FCE01DF91CF910C945E05CE01D5
:102010000E9483058111F3CF0E942C15882361F360
:102020008A81882349F382E0DF91CF910C94BD151A
:102030000E9453150E9456150E94721590E080E090
:102040000E94BC0B90E080E00C94D20B0E941C1507
:102050000C9418100E9443150C942610E92FE29559
:10206000EF70E250EE3070F4F0E0EB54F54E0C946B
:10207000531A803F19F020F4883E20F481E008953F
:10208000843FE1F380E00895883EC0F3813FD1F7BB
:10209000F5CF93FB882780F908950E94E0140C94F3
:1020A0002E10CF93DF9300D000D00F92CDB7DEB7C4
:1020B0000F900F900F900F900F90DF91CF91089598
:1020C000CF93DF9300D000D000D0CDB7DEB72696F7
:1020D0000FB6F894DEBF0FBECDBFDF91CF9108954C
:1020E0001F93CF93DF93C091160116E080911701E3
:1020F0008C1304C0DF91CF911F910895D0E01C9FF5
:10210000F0011D9FF00D1124E85EFE4F40815181CA
:1021100062817381848195810E9460102196C770CD
:10212000E5CF409148015091490160914A01709179
:102130004B0180914C0190914D010C9460101F93C4
:10214000CF93DF9380914D01807FA9F480914A0164
:10215000882389F080911601C09117016091480190
:1021600070914901A0914B01B0914C01D62FD7231A
:1021700016E0C81304C0DF91CF911F91089590E03D
:10218000109711F0DF3F19F401968770F2CF189F76
:102190009001199F300D1124F901E85EFE4F418135
:1021A0004713F2CF40814613EFCF42814111ECCF6C
:1021B000438154814A1B5B0B483C510528F78091B1
:1021C0004D018F70806180934D01F901E35EFE4FF8
:1021D00080818F708061808388E491E00E94F00F9D
:1021E000DF91CF911F910C947010AF92BF92CF925C
:1021F000DF92EF92FF920F931F93CF93DF93CDB7B0
:10220000DEB761970FB6F894DEBF0FBECDBF8C016D
:1022100085E0F801DE011D9601900D928A95E1F7A7
:10222000F80140815181E28088E4C82E81E0D82EF7
:1022300060914B0170914C016115710509F461C108
:102240009091480120914901892F82238F3F09F401
:1022500058C1A380B480F0904A01F501E61BF70B4A
:10226000FF2009F4FCC080914D01382F307FE83CFD
:10227000F10508F0B2C0311179C0FE2C251323C03E
:10228000941321C0E1101FC08F70806180934D01B5
:102290000E949110C6010E94F00F80914D01F8013B
:1022A00085838F2D61960FB6F894DEBF0FBECDBF2C
:1022B000DF91CF911F910F91FF90EF90DF90CF9022
:1022C000BF90AF900895AB2829F0842F85238F3FCE
:1022D00009F033C180E0F82FF170DF2E80FF3CC0A1
:1022E000809116012091170136E0821315C04D87A9
:1022F0005E878D859E850E94E014292F22952F7080
:102300002230F0F0243018F59F70F1F0F80195813B
:10231000907FD1F4D12C1EC090E0389FF001399FFE
:10232000F00D1124E85EFE4F6181651306C06081E7
:10233000641303C062816E110FC001968770D5CF00
:102340009F7011F0882331F3805E883018F3C80144
:102350000E94F00FFD2CA5CFEE2009F4A2CF8091B2
:102360004D01816080934D01F12C9BCF251306C058
:10237000941304C0F801EE2009F48DC04D875E87E8
:102380008D859E850E944D10882319F1EE2009F15C
:1023900080914D01803270F02091480130914901C7
:1023A00038872F831986BB86AA868C87CE0107962D
:1023B0000E94F00F86E0F801A8E4B1E001900D92D0
:1023C0008A95E1F70E949F100E949110FF24F394D8
:1023D00068CFC8010E94F00FF9CF311113C07A2DD8
:1023E000B98AA88A6E2D89890E94511088E491E0EB
:1023F0000E94F00F86E0F60111928A95E9F70E949B
:102400009110B2CF25130FC094130DC0E1100BC073
:10241000F8018583C8010E94F00F86E0F601119251
:102420008A95E9F73ECF4D875E878D859E850E9410
:102430004D10882371F2EE2061F280914D018032BF
:1024400008F4B8CF20914801309149013A8329839B
:102450001B82BD82AC828E83CE010196A9CFE83C5F
:10246000F10508F041C0FE2CEE2009F4B2CF25138F
:102470002AC0941328C080914D0180FD1BC0982F65
:10248000907FC1F0F8018583903F31F0982F907FC5
:10249000905F8F70892B8583C8010E94F00F86E0C2
:1024A000F801A8E4B1E001900D928A95E1F70E944D
:1024B0009110F7CE86E0F801A8E4B1E001900D920A
:1024C0008A95E1F7EECE4D875E878D859E850E94C9
:1024D0004D1081116FCF80914D01816080934D012E
:1024E000C8010E94F00FDDCE7A2DB98AA88A6E2D20
:1024F00089890E94511086E0F60111928A95E9F7C8
:10250000D6CFEE2009F465CF4D875E878D859E85F9
:102510000E944D10F82E882309F45BCF86E0F80165
:10252000A8E4B1E001900D928A95E1F788E491E08A
:102530000E94D90C0E949F10BACF81E08E25CBCE8D
:1025400088EC90E008951F93CF93DF93CDB7DEB76B
:102550002C970FB6F894DEBF0FBECDBF4F835887C0
:1025600069877A878B879C87CE0107960E94F51032
:10257000882369F08A859B85892B39F04F8158859E
:10258000842F85238F3F09F071C016E05FC086E07D
:10259000FE013796DE01119601900D928A95E1F7C2
:1025A0008A859B85892B89F38F81988589238F3F25
:1025B00061F32091170130E0C901019687709927D6
:1025C000409116014817190671F40E942A101092C2
:1025D00017011092160186E0E8E4F1E0DF011D9298
:1025E0008A95E9F7D2CF96E0929FD001939FB00DE4
:1025F0001124A85EBE4FFE01319601900D929A956E
:10260000E1F7809317010E947010BFCF819FC00136
:102610001124885E9E4F0E94F5108823E9F0E09116
:1026200016011E9FF0011124E85EFE4F408151818A
:1026300062817381848195810E946010809116016E
:1026400090E001968770992780931601809116017A
:10265000909117018913DACF2C960FB6F894DEBF4C
:102660000FBECDBFDF91CF911F91089569857A8507
:102670008B859C850E94601088CF08950C943D1333
:102680000E943E1360938E0170938F01809390019E
:10269000909391010C94181008950C9440130F938B
:1026A0001F9300918E0110918F0120919001309124
:1026B0009101602B712B822B932B1F910F910C9406
:1026C00040130F931F9300918E0110918F01209161
:1026D00090013091910160237123822393231F91F4
:1026E0000F910C9440130F931F9300918E01109142
:1026F0008F012091900130919101602771278227ED
:1027000093271F910F910C9440130C943D130C943C
:1027100085130E94871360938A0170938B018093C5
:102720008C0190938D010C94181060E070E0CB0147
:102730000C9489130F931F9341E050E060E070E028
:102740008A019B0104C0000F111F221F331F8A95AD
:10275000D2F7C901B8011F910F910C9489130F93FF
:102760001F9341E050E060E070E004C0440F551F4B
:10277000661F771F8A95D2F780918A0190918B010D
:10278000A0918C01B0918D018A019B01082B192B1E
:102790002A2B3B2BC901B8011F910F910C9489136F
:1027A0000F931F9341E050E060E070E004C0440FDD
:1027B000551F661F771F8A95D2F7CB01BA01609526
:1027C00070958095909500918A0110918B012091D0
:1027D0008C0130918D0160237123822393231F91FB
:1027E0000F910C9489130F931F9341E050E060E028
:1027F00070E004C0440F551F661F771F8A95D2F7FB
:1028000080918A0190918B01A0918C01B0918D01F2
:102810008A019B01082719272A273B27C901B801EC
:102820001F910F910C9489130F931F9300918A01AC
:1028300010918B0120918C0130918D01602B712BB7
:10284000822B932B1F910F910C9489130F931F933D
:1028500000918A0110918B0120918C0130918D01A2
:1028600060237123822393231F910F910C9489136A
:102870000F931F9300918A0110918B0120918C017D
:1028800030918D0160277127822793271F910F9127
:102890000C94891308959295907F890F982F9770C3
:1028A00041E001C0440F9A95EAF786958695869592
:1028B00095E0899FF0011124E25BFE4F30E020E0BB
:1028C00070E05191DF011197CB01022E02C0969565
:1028D00087950A94E2F7817081958527842385275F
:1028E0008C932F5F3F4F2530310559F7089592950E
:1028F000907F890F982F977086958695869525E00D
:10290000829FF0011124E25BFE4F50E040E080E046
:10291000219130E0092E02C0369527950A94E2F7FE
:1029200021703327042E01C0220F0A94EAF7822B6C
:102930004F5F5F4F4530510559F70895BF92CF92D1
:10294000DF92EF92FF920F931F93CF93DF938C014F
:10295000C0908A01D0908B01E0908C01F0908D01A5
:1029600080918E0190918F01A0919001B091910181
:10297000C82AD92AEA2AFB2ACFE1D0E0BC2ED70107
:10298000C6010C2E04C0B695A795979587950A9415
:10299000D2F780FD0EC0219788F7B12C8B2DDF91E7
:1029A000CF911F910F91FF90EF90DF90CF90BF904C
:1029B0000895B8018C2F0E94E105019761F3EECFD5
:1029C000CF93DF93EC010E949E14BE01DF91CF9163
:1029D0000C94E1051F93CF93DF93EB0190911501C8
:1029E000992331F0CB01DF91CF911F910C94E0142A
:1029F000882379F0CB010E949E14182F682FCE01F6
:102A00000E944B14BE01812FDF91CF911F910C9436
:102A1000E105CB010E947714182FF4CF682F809125
:102A20006000909161000C94C116682F8091600045
:102A3000909161000C94C3168091600090916100A8
:102A40000C94C5168091920185958595859508957C
:102A5000809192018770089590919201977081E022
:102A600009F480E0089580919E01089590919E015F
:102A7000892B80939E010895809590919E019823C3
:102A800090939E01089510929E01089590919D014A
:102A9000892B80939D010895809590919D019823A5
:102AA00090939D01089510929D01089510929C01AC
:102AB000089580919301089508950C945C15909168
:102AC0009301981721F0809393010C945D1508955C
:102AD00080919301882329F01092930180E00C9457
:102AE0005D150895E0916000F091610080919E0174
:102AF0008083E0916000F0916100808190919D0160
:102B0000892B8083E0916000F09161008081909139
:102B10009C01892B808390919301992381F0E0910E
:102B20006000F09161008081892B8083809160003A
:102B3000909161000E94791681110E946815809120
:102B40006000909161000C94B10B08950C94A51550
:102B500098E0899F90011124622B609392010E945A
:102B6000AF13809192018595859585950C94A61556
:102B70001092920180E00C94A6159091920180959C
:102B8000892380939201282F277071F4282F082E13
:102B9000000C330B9217130639F0859585958595B2
:102BA0000E94D0130C94B815089590E080E00E9424
:102BB000611A21E08C3E9E4F09F020E0822F08959B
:102BC00082E090E00C94591A83E090E00C94591A3A
:102BD000CF9384E090E00E94591AC82F81E290E0E0
:102BE0000E94591A982F8C2FCF910895CF93C92FF7
:102BF000682F84E090E00E94671A6C2F81E290E0D9
:102C0000CF910C94671AAB01BC018FE090E00C945B
:102C1000781AAB01BC0183E190E00C94781A60E073
:102C200070E0CB010C94091660E070E0CB010E94CB
:102C300003160C940F166CEE7EEF90E080E00E947D
:102C4000841A60E082E090E00E94671A60E083E00E
:102C500090E00E94671A10928E0110928F011092DC
:102C600090011092910160E084E090E00E94671A68
:102C700060E081E290E00E94671A60E085E090E009
:102C80000E94671A60E086E090E00E94671A6FEF8A
:102C900087E090E00E94671A40E050E0BA0188E0C7
:102CA00090E00E94781A60E08DE090E00E94671A40
:102CB00040E050E0BA0188E190E00E94781A60E0BC
:102CC00087E190E00E94671A40E050E0BA018CE191
:102CD00090E00E94781A60E080E290E00E94671A1B
:102CE0000C9414160C941B16682F8EE090E00C9434
:102CF000671A9C012E5F3F4FAC01485F5F4F80E039
:102D00002417350709F40895F90191919F0199233A
:102D1000B9F38F5FF5CF662349F0FC013296089630
:102D20002191261729F0E817F907D1F780E00895D7
:102D300081E008959C01FC0132969FEF80E0419173
:102D4000461751F09F3F19F4411101C0982F8F5F32
:102D50008630A9F79F3F09F40895290F311D97FD8B
:102D60003A95F90162830895FC0132960896219103
:102D7000261303C0DF0111971C92E817F907B9F772
:102D800008950C949A160C94B416029626E0FC0151
:102D900011922A95E9F7089508950895CF930E9416
:102DA000CC160E9401080E94CD16C0E08C2F0E9414
:102DB000AB07892B31F4CF5FC630C1F780E0CF91EC
:102DC000089581E0FCCF8BE083BF8BEB8CBF82E06A
:102DD00089BF08952FB7F89480919502909196023B
:102DE000A0919702B09198022FBF08959C014FB710
:102DF000F8948091950290919602A0919702B091DB
:102E000098024FBF821B930B089578941F921FB6B0
:102E10001F9211248F939F93AF93BF93809195023C
:102E200090919602A0919702B09198020196A11DEF
:102E3000B11D8093950290939602A0939702B09350
:102E40009802BF91AF919F918F911F901FBE1F90CD
:102E5000189560E081E090E00E948A1A87E090EB8C
:102E6000DC018093EB029093EC02A093ED02B0930F
:102E7000EE0288E19CE00FB6F894A89581BD0FBEE4
:102E800091BDFFCF0E94D515811102C00E9472161C
:102E90000E94E01580939F010E94E81590939A028A
:102EA000809399020E94E415682F70E090E080E022
:102EB0000E944D1360918A0170918B0180918C0169
:102EC00090918D010C9487130E94EA168C010E9448
:102ED000F30B0E9457180E94A00B0E94381A8B9A7D
:102EE00080E0815039F58B987894FFEB24ED31E048
:102EF000F15020403040E1F700C000000E94FD0B7F
:102F0000C0E0DCE08091C2028823F1F01092C2029E
:102F10000E94EA168C010E9448198091C8028823F9
:102F200029F08091A60284FD0E94050C0E94FE17E4
:102F3000C0E0E8CFA895E7EBFBE03197F1F700C0E0
:102F40000000CFCFC1E0DECFC8010E94F616069781
:102F500010F4CC2301F30E94CE16C82F882391F3DE
:102F6000F89491B3939A892F8C6081BB82B38D279B
:102F700082BB8FE5EAEEF0E08150E040F040E1F7FF
:102F800000C0000082B38D2782BB91BB93987894D8
:102F9000B9CF8091310208950895CF93DF9300D087
:102FA0000F92CDB7DEB79091A201981307C0209180
:102FB000A0013091A1012617370791F08093A2015B
:102FC0007093A1016093A00189837B836A838091C0
:102FD000DF0284FF05C063E0CE0101960E94441920
:102FE0000F900F900F90DF91CF910895BC0184E076
:102FF0000C94CD17BC0183E00C94CD17CF93DF93D5
:10300000CAE0D0E08091A60284FF1AC08091AE0190
:103010009091AF01981789F028E0829FC001112498
:1030200068E080559E4F0E9440198091AE0190E06B
:1030300001968F7099278093AE01DF91CF9108950B
:103040000E94481987EB9BE00197F1F700C0000050
:103050002197C1F6F2CFCF93DF93EC01A091AF019E
:10306000B0E0CD0101968F7099272091AE0128170D
:1030700079F093E0AA0FBB1F9A95E1F7A055BE4FD8
:1030800098E0FE0101900D929A95E1F78093AF01CF
:103090000E9448190E94FE1788E0FE01A6EAB1E0EE
:1030A00001900D928A95E1F7DF91CF91089582E624
:1030B00090E00895FC01808180768032F1F4818176
:1030C000813061F484819581892BB9F486EA91E09D
:1030D0009093C4028093C30288E00895823041F443
:1030E00080E392E09093C4028093C30281E008954C
:1030F0008A3029F483818093300280E008958930FA
:10310000E1F7828193818115924069F484819581F0
:10311000892B49F481E08093A50186819781909362
:10312000A4018093A3018FEF0895FC018091A30176
:103130009091A401892B61F08091A501813041F427
:103140009081909331021092A4011092A3010895EE
:103150008FEF08950895FC019381933059F130F475
:103160009130C1F09230F1F080E00895913209F48D
:1031700045C09232C9F784819581009709F44FC008
:10318000019791F783ED93E09093C4028093C3027B
:1031900082E308958FE893E09093C4028093C30282
:1031A00082E1089584E593E09093C4028093C30282
:1031B0008BE308958281813089F0882339F0823051
:1031C000A9F0833089F681EA93E002C08FEC93E0A6
:1031D0009093C4028093C30284E0089581EC93E04D
:1031E0009093C4028093C3028CE0089587EA93E031
:1031F0009093C4028093C30288E10895828188235A
:1032000031F0813009F0B0CF8FE793E002C086E65D
:1032100093E09093C4028093C30289E0089585E00F
:1032200094E09093C4028093C30280E408951F93B6
:10323000CF93DF93E82F792F162FEA01888184FF3F
:103240001CC0298188E828272983CE010296DC0149
:103250002E2F372F512F5E0FF90121912D939F01B2
:10326000452F4E1B1416C4F3612F0E947E021C5F73
:103270001883DF91CF911F9108958AE58883E5CF68
:1032800046EA52E00C9417194FED52E00C941719CE
:10329000CF93DF936091C502635067FD12C08091A8
:1032A000C102CCE0D0E0C81BD109C753DD4F8091EB
:1032B000C002803108F054C0CE010E94AA181092BA
:1032C000C50280916D0084FF3EC080916C008F3FED
:1032D000D1F1C82F893008F0C8E0982F9C1B90933B
:1032E0006C0090919B0228E8922790939B02882380
:1032F000E9F08091C3029091C4022091BF0226FFA1
:10330000AEC0FC012C2FACE9B2E034913D93319674
:103310002150D9F79C012F5F3F4F8FEF8C0F820F09
:10332000932F911D9093C4028093C3026C2F8CE95C
:1033300092E00E947E02CC5FCC3019F08FEF809338
:103340006C00C0936D0084E190B39C7031F48150A7
:10335000D9F71092C6021092BE02DF91CF91089564
:103360008D3209F069C0683009F0A9CF83EC8093F1
:103370009B028AE580936D001092BF02888180765F
:1033800071F0CE010E945A188F3FC1F4988197FDC9
:103390008E8190E89093BF0280936C0090CF2A8139
:1033A0001092A4029981911111C01092A50224EAF1
:1033B00032E082E03093C4022093C3029F819111D6
:1033C000EBCF9E81981740F7892FE6CF953029F4EF
:1033D0002093C60224EA32E0EDCF963099F49B8127
:1033E000913021F4CE010E94AB1808C09230D1F385
:1033F0009330C1F39132B1F39232A1F390E4909300
:10340000BF02C2CF983089F0993019F42093C802D6
:10341000E1CF9A3071F09B30E9F69BE49093A702DC
:103420009093E0029093B302D5CF28EC32E081E094
:10343000C1CF24EA32E0FBCF8091BF0287FF3FCFAC
:10344000CE010E9495188F3F21F48EE180936D008C
:1034500036CF882309F433CF10926C0030CFDC01D3
:103460002C2FECE9F2E03D9131932150E1F752CF5E
:10347000CF93DF9385B7886085BF8BB780688BBF9C
:10348000C6EAD2E08BE48983AFEDB2E011968C936B
:103490001197E2EBF2E081838AE588838C93808345
:1034A000DF91CF910895EE0FFF1F0590F491E02D6D
:1034B0000994E199FECF9FBB8EBBE09A99278DB30B
:1034C0000895A8E1B0E042E050E00C94991A262F4C
:1034D000E199FECF9FBB8EBBE09A01970DB2021619
:1034E00031F02DBB0FB6F894E29AE19A0FBE089521
:1034F0000396272F0E94681A0E94671A252F0E94A0
:10350000681A242F0C94681A0196272F0E94681AB3
:103510000C94671A262FE199FECF9FBB8EBB2DBB63
:103520000FB6F894E29AE19A0FBE01960895DC0175
:10353000CB01FC01E199FECF06C0FFBBEEBBE09AD8
:1035400031960DB20D9241505040B8F70895F8945D
:10355000FFCF120E120E6A0E6A0EBC0E3F0E3F0E09
:103560003F0ED80E640F730F730F391039104210CD
:1035700042104410421042104210391039104910C4
:0635800042104210491048
:103586009401C9172B18CC17FA17F617FF5A070715
:1035960007070707070707070707070707050105BF
:1035A60001E200E900EA00B500B600B700CD0083ED
:1035B60001CC008A019201940121022302240225F2
:1035C60002260227022A02B300B4006F00700081AF
:1035D60082839091929394959697606162636465F5
:1035E6006667323334353637E200E900EA00B50063
:1035F600B600B700CD008301CC008A019201940188
:103606002102230224022502260227022A02B300EF
:0A361600B4006F0070008182830091
:00000001FF
