:100000000C949D030C94E1030C94FC030C94E10309
:100010000C94E1030C94E1030C94E1030C94E103D0
:100020000C94E1030C94E1030C944B130C94E10346
:100030000C94E1030C94E1030C94E1030C94E103B0
:100040000C94E1030C94E1030C94E1030C94E103A0
:100050000C94E1030001010101010101010102020F
:100060000202020202020203030303030303030466
:100070000404040404040505050505060606060631
:10008000070707070708080808090909090A0A0AEB
:100090000B0B0B0C0C0C0D0D0D0E0E0E0F0F0F108D
:1000A0001011111112121313141415151616171717
:1000B000181819191A1A1B1B1C1D1D1E1E1F202083
:1000C000212222232424252626272829292A2B2CCD
:1000D0002D2D2E2F30313232333435363738393AF0
:1000E0003B3C3D3E3F404142434445464748494AE8
:1000F0004C4D4E4F50515354555658595A5B5D5EB6
:100100005F616264656668696B6C6D6F7072737550
:1001100077787A7B7D7E8082838587888A8C8E8FB4
:1001200091939596989A9C9EA0A2A3A5A7A9ABADE2
:10013000AFB1B3B5B7BABCBEC0C2C4C6C9CBCDCFD0
:10014000D1D4D6D8DBDDDFE2E4E7E9EBEEF0F3F57E
:10015000F8FAFDFFFFAA7F55402223252628292AE9
:100160002C2D2F3032333536383A3B3D3E4042431A
:100170004547494A4C4E5051535557595A5C5E6059
:1001800062646668696B6D6F71737577797B7D7F6B
:1001900081838587898A8C8E90929496989A9C9E6A
:1001A0009FA1A3A5A7A8AAACAEAFB1B3B4B6B8B986
:1001B000BBBCBEBFC1C2C3C5C6C7C9CACBCCCDCEEE
:1001C000D0D1D2D2D3D4D5D6D7D7D8D9D9DADADBD1
:1001D000DBDBDCDCDCDCDCDDDDDDDDDCDCDCDCDC5D
:1001E000DBDBDBDADAD9D9D8D7D7D6D5D4D3D2D29C
:1001F000D1D0CECDCCCBCAC9C7C6C5C3C2C1BFBE84
:10020000BCBBB9B8B6B4B3B1AFAEACAAA8A7A5A3EE
:10021000A19F9E9C9A98969492908E8C8A898785AD
:1002200083817F7D7B79777573716F6D6B6968668C
:100230006462605E5C5A5957555351504E4C4A495E
:1002400047454342403E3D3B3A3836353332302F06
:100250002D2C2A29282625232229003A003B003C60
:10026000003D003E003F004000410042004300448A
:100270000045004C004700480035001E001F0020CC
:100280000021002200230024002500260027002D45
:10029000002E004C002A004A002B0014001A00080F
:1002A00000150017001C0018000C00120013002F8E
:1002B00000300031004D00000039410400160007F5
:1002C0000009000A000B000D000E000F003300347F
:1002D00000320028004B000000E10064001D001BFC
:1002E0000006001900050011001000360037003824
:1002F00000E500000052004E00E000E300E20000D4
:1003000000000000002C0000000000E600E70000F4
:1003100000E400500051004F000100010001000105
:1003200000010001000100010001000100010001C5
:1003300000010001000100010001000100010001B5
:1003400000010001000100010001000100010001A5
:1003500000010001004C000100010001000100014A
:10036000000100010001000100010001000100AADC
:1003700000A90001000100000001000100010001CE
:100380000001000100010001000100010001000165
:100390000001000100010000000100010001000156
:1003A000000100010001000100A80001000100019E
:1003B0000001000000010001000100010001000037
:1003C000000000000001000000000001000100002A
:1003D0000001000100010001000100010001000115
:1003E0000001000100010001000100010001000105
:1003F00000010001000100010001000100010001F5
:1004000000010001000100010001000100010001E4
:1004100000010001000100010001000100010001D4
:1004200000010001000100010001000100010001C4
:1004300000010001000100000001000100010001B5
:1004400000010001000100010001000100010001A4
:100450000001000100010000000100010001000195
:100460000001000100010001000100010001000184
:100470000001000000010001000100010001000076
:100480000000000000010000000000010001000069
:100490000001000100010001000100010001000154
:1004A0000001000100010001000100010001000144
:1004B0000001000100010001000100010001000134
:1004C0000001000100010001000100010001000124
:1004D0000001000100010001000100010001000114
:1004E0000001000100010001000100010001000104
:1004F00000010001000100000001000100010001F5
:1005000000010001000100010001000100010001E3
:1005100000010001000100000001000100010001D4
:1005200000010001000100010001000100010001C3
:1005300000010000000100010001000100010000B5
:1005400000000000000100000000000100010000A8
:100550000001000100010001000000000000000097
:10056000000000000000000000000000007E0F00FE
:10057000D4FFFFFFC700000078000000000000006B
:10058000002A2B28000000000000000000000000EE
:100590000000000029000000002C1E34202122242D
:1005A000342627252E362D3738271E1F20212223BB
:1005B0002425263333362E37381F0405060708094D
:1005C0000A0B0C0D0E0F1011121314151617181913
:1005D0001A1B1C1D2F3130232D3504050607080971
:1005E0000A0B0C0D0E0F10111213141516171819F3
:1005F0001A1B1C1D2F3130354C32190A00047F3F65
:100600001F643214643214783C1E1E140A0505015E
:100610000980A101850319012AB700150126B70039
:10062000950175108100C0050C0901A1018504190F
:10063000012AA002150126A002950175108100C0B3
:100640000660FF0961A1010962150026FF009520DF
:10065000750881020963150026FF00952075089131
:1006600002C005010906A101050719E029E71500E7
:10067000250195087501810295017508810305071B
:10068000190029FF150026FF009506750881000551
:1006900008190129059505750191029501750391C8
:1006A00003C004033000000010034C005A00200077
:1006B00043004C0053006D0000000C034C0065002B
:1006C00065004B00750000000403090409025B008B
:1006D000030100A0FA09040000010301010009213F
:1006E00001010001224000070581030800010904FF
:1006F0000100020300000009210101000222220082
:100700000705840308000107050403080001090424
:100710000200010300000009210101000122320052
:10072000070583030800011201100100000008FE04
:10073000FF52410001010203010011241FBECFE559
:10074000D8E0DEBFCDBF04B603FE24C0809197037E
:1007500090919803A0919903B0919A038730904BA0
:10076000A740B04BB9F410929703109298031092DF
:10077000990310929A0314BE84B7877F84BF0FB683
:10078000F894A89581B5886181BD11BC0FBEE0E0E9
:10079000F8E3099523E0A4E0B1E001C01D92A73978
:1007A000B207E1F711E0A0E6B0E0E2E6FCE402C047
:1007B00005900D92A430B107D9F70E944B1E0C94FE
:1007C000EE250C940000A82FB92F80E090E041E0C6
:1007D00050EA609530E009C02D9182279795879562
:1007E00010F084279527305EC8F36F5FA8F3089553
:1007F000EADF8D939D930895CF93CFB7CF93C395A1
:10080000839BE9F7839B0EC0839B0CC0839B0AC02C
:10081000839B08C0839B06C0C0917103C395C0939E
:100820007103A6C0DF93C0917003DD27CB58DC4F66
:10083000839B02C0DF91E6CF2F930F931F9300B3EA
:100840002FEF03FB20F94F933F9310B34FEF012796
:1008500003FB21F93BE031C04E7F012F10B3216033
:1008600028C0102F4D7F2260000000B329C04B7FAD
:100870002460012F000010B32BC010B3477F286005
:100880002AC04F7E00B320612CC04F7D10B3206280
:100890002FC04F7B00B3206432C0422700B349937E
:1008A0004FEF0000102713FB20F910B31C70C9F1A3
:1008B000297F91F2012703FB21F900B3237F89F2FD
:1008C000315058F1102713FB22F910B3277E79F22B
:1008D000012703FB23F92F7C81F200B3102713FBC0
:1008E00024F92F7971F200C010B3012703FB25F919
:1008F0002F7359F200C000B3102713FB26F92230E2
:1009000040F200C010B3012703FB27F9243028F67A
:100910004F77206810B30000F9CF10E81ABF002706
:100920001CC03B503195C31BD04010E81ABF088152
:10093000033C11F10B3401F120916E031981110F69
:100940001213EDCF4A81441F093669F10D3211F0BF
:10095000013E29F74F7009F0042F009374033F9173
:100960004F911F910F912F91DF91CAB7C7FD47CFCC
:10097000CF91CFBFCF91189520917403222379F3A3
:1009800010917203112309F044C034300AF443C0BB
:100990003093720320936F03109170033BE0311B7F
:1009A0003093700338C000917203013094F50AE56A
:1009B0004F7049F430917D0034FD2FC000937D00CD
:1009C000CBE4D3E02EC0433059F0443091F0309165
:1009D000560334FD22C000935603C7E5D3E021C07F
:1009E00030918B0334FD19C000938B03CCE8D3E026
:1009F00018C03091620334FD10C000936203C3E657
:100A0000D3E00FC02795A8F45150A9F4220F00009D
:100A1000F9CF4AE503C042ED01C0432FC4E1D0E065
:100A200032E011B31C60939A11BB02B320E41CE0C6
:100A30005F93012756E002BB279520F4515021F423
:100A4000220FF9CF012756E000003B5A02BBD0F23B
:100A5000279528F4515029F4220F0000F9CF0127DF
:100A600056E0279502BB20F4515021F4220FF9CF14
:100A7000012756E02991332302BB21F6037F109111
:100A80007303110FC651D04002BB11F010936E03D7
:100A900010E81ABF086011B3137F402F437F5F91A6
:100AA00000C000C002BB11BB42BB59CFFC01838117
:100AB000833089F130F48130F1F0823021F180E02F
:100AC0000895813209F44BC08232C9F724813581FF
:100AD0002130310509F461C02115310509F455C0F3
:100AE0002230310561F78EE096E0909326038093E3
:100AF000250382E3089587E297E09093260380938D
:100B0000250382E108958CEC96E090932603809370
:100B100025038BE508958281813089F0882339F09F
:100B20008230A9F0833059F682EA96E002C088EC60
:100B300096E0909326038093250384E008958AEB42
:100B400096E090932603809325038CE0089588EA2D
:100B500096E0909326038093250380E10895828197
:100B6000813081F0882331F0823009F0A8CF87E10D
:100B700097E002C08EED96E09093260380932503C4
:100B800089E0089587EF96E0F7CF82E696E09093AC
:100B900026038093250380E4089520E436E0309313
:100BA0002603209325030895089508958091200336
:100BB00008959C014FB7F894809180029091810232
:100BC000A0918202B09183024FBF821B930B0895C4
:100BD0008091020281111092020208958091010217
:100BE00090910002892B9091FF01892B8093040141
:100BF00090910202992391F0892B8093040120E0C7
:100C000086E091E0FC013191CF0131112F5FF1E0DD
:100C10008C309F07B9F721110E94E805E09153023B
:100C2000F0915402309731F00280F381E02D84E09E
:100C300091E009940895E6E0F1E09191891303C0F1
:100C4000DF0111971C9291E0EC30F907B1F708959C
:100C5000A6E0B1E0EFEF90E02D91821751F0EF3F69
:100C600019F4211101C0E92F9F5F9630A9F7EF3FDA
:100C700009F408950E2E000CFF0BEC5FFE4F8283EB
:100C800008959295907F890F982F977086958695F5
:100C9000869525E0829FF0011124EE53FE4F50E02F
:100CA00040E080E0219130E0092E02C03695279582
:100CB0000A94E2F721703327042E01C0220F0A9410
:100CC000EAF7822B4F5F5F4F4530510559F7089582
:100CD0009295907F890F982F977041E001C0440F43
:100CE0009A95EAF786958695869595E0899FF00115
:100CF0001124EE53FE4F30E020E070E05191DF010F
:100D00001197CB01022E02C0969587950A94E2F7BF
:100D1000817081958527842385278C932F5F3F4F92
:100D20002530310559F708958091C10190919001C6
:100D3000981301C008958F5F8770FACF882341F020
:100D40008095909101028923809301020C94EE0515
:100D50000895882339F090910102982B9093010215
:100D60000C94EE0508952091860130918701281793
:100D7000390771F09093870180938601E0915302C7
:100D8000F0915402309721F00084F185E02D099410
:100D9000089520918401309185012817390771F059
:100DA0009093850180938401E0915302F091540265
:100DB000309721F00680F781E02D09940895109274
:100DC00000021092FF010E94EE0590E080E00E9478
:100DD000C90690E080E00C94B306609347037093DB
:100DE00048038093490390934A030C94DF060F93C2
:100DF0001F9360914703709148038091490390913C
:100E00004A038B019C0106701127222733270630E5
:100E100011052105310529F468601F910F910C948B
:100E2000ED06677FFACF0F931F9341E050E060E03B
:100E300070E004C0440F551F661F771F8A95D2F7D4
:100E4000CB01BA016095709580959095009147030C
:100E5000109148032091490330914A036023712384
:100E6000822393231F910F910C94ED069091FE0124
:100E7000809589238093FE01282F277071F4282FF5
:100E8000082E000C330B9217130639F085958595C3
:100E900085950E9413071092FE0108950F931F93EA
:100EA00041E050E060E070E004C0440F551F661F51
:100EB000771F8A95D2F78091470390914803A091BC
:100EC0004903B0914A038A019B01082B192B2A2B55
:100ED0003B2BC901B8011F910F910C94ED06609353
:100EE00003027093040280930502909306020C940F
:100EF000DF06E0915302F0915402309721F0019007
:100F0000F081E02D099480E00895882309F452C00F
:100F1000823871F40E94790781FF4CC089E30E94F6
:100F200028060E94EE0589E30E941B060C94EE053C
:100F3000833859F40E94790780FF3CC083E50E9402
:100F400028060E94EE0583E5EFCF843859F40E940D
:100F5000790782FF2FC087E40E9428060E94EE05D1
:100F600087E4E2CF9CEF980F913AF0F290E2980F6D
:100F7000983088F4877021E030E0A90102C0440F66
:100F8000551F8A95E2F7CA01809590910102892345
:100F900080930102CBCF9BE5980F933020F490E033
:100FA00080E00C94C906885A873120F490E080E0F4
:100FB0000C94B3060895FA01811101C0FB01099454
:100FC00080917B02982F9E7F61F481708260809374
:100FD0007B0280917E02893C18F088EC80937E022F
:100FE00008958635B0F381708465F1CFAF92BF92DA
:100FF000DF92EF92FF920F931F93CF93DF93182FFF
:10100000062FE901493C08F048ECE42FF0E0EC5AE7
:10101000FF4F011110C0E4915E2F4E2F4983E883EA
:101020005A83DF91CF911F910F91FF90EF90DF9046
:10103000BF90AF900895202F30E04491D42EE42E3D
:10104000F12C56E0159FC0011124EFEFF0E0BF0135
:101050000E948A24812F90E0880F991F55E5569FA2
:10106000D001579FB00D11248A1B9B0B982F990F0D
:10107000890F5F01A21AB30AAE9CD001AF9CB00DDC
:10108000BE9CB00D11245B2F089F80011124012FFD
:1010900011275F01A01AB10AAE9C8001AF9C100D10
:1010A000BE9C100D11245F01A81AB108A29EC001B8
:1010B000A39E900DB29E900D1124892F9927E81BB5
:1010C000F90BEE9DC001EF9D900DFE9D900D11243A
:1010D000E92F62307105A1F050F46115710509F432
:1010E0009DCF6130710581F0EB2F512F97CF643088
:1010F000710569F080F06630710509F48FCFF4CF87
:10110000E42F4B2F592F8ACFE42F412F87CFEB2F7E
:10111000542F492F83CF4B2F5D2DE12F7FCF9091FF
:10112000610292FF06C0282F28712830F9F4877FCA
:10113000846093FF06C0282F28712831F1F4877E40
:1011400084612091620220FF06C0382F3871383048
:10115000D9F4877F816021FF06C0282F28712831AC
:10116000D1F4877E816194FD877E0895282F2471B4
:101170002430F9F68B7F8860DCCF282F247124314E
:1011800001F78B7E8861DDCF382F3171313019F74F
:101190008E7F8860E0CF282F2171213121F78E7E4C
:1011A0008861E1CFCF93DF9380917203835087FDF5
:1011B00014C090917003CCE0D0E0C91BD109CB588A
:1011C000DC4F90916F03903108F06BC0883009F4C8
:1011D00053C0109215031092720380917D0084FF1A
:1011E0003EC080917C008F3FD1F1C82F893008F03C
:1011F000C8E0982F9C1B90937C0090914B0328E8AB
:10120000922790934B038823E9F0809125039091D6
:1012100026032091240326FF06C1FC012C2FACE4F9
:10122000B3E034913D9331962150D9F79C012F5F63
:101230003F4F8FEF8C0F820F932F911D90932603BA
:10124000809325036C2F8CE493E00E94F803CC5F1D
:10125000CC3019F08FEF80937C00C0937D0084E147
:1012600090B39C7031F48150D9F7109273031092AF
:101270006E03DF91CF91089580911503893108F0B5
:10128000A8CFE82FF0E0E95DFC4F9E01285F3F4FBB
:10129000999191932C173D07D9F7885F8093150397
:1012A0009ACF9D3209F0A3C0883009F094CF83EC27
:1012B00080934B038AE580937D00109224038881FC
:1012C000807609F447C0803229F58981813099F40C
:1012D0008C819D81892BF1F487E193E09093260323
:1012E0008093250388E09F81911131C09E819817DA
:1012F00070F5892F2CC0823041F486E193E0909301
:1013000026038093250381E0EECF8A3029F48B8178
:101310008093160380E0E7CF8930E1F78A819B81D3
:101320008115924069F48C819D81892B49F481E07B
:10133000809323038E819F819093220380932103C6
:10134000888187FF52C08E8190E890932403809318
:101350007C0041CF2A8110925403998191110AC0D7
:101360001092550324E533E082E030932603209366
:101370002503B9CF953029F42093730324E533E096
:10138000F4CF9630C1F49B81913049F4CE010E9494
:10139000560590E4909324038F3F91F2A4CF9230AE
:1013A000A9F3933099F3913289F3923279F390E46F
:1013B0009093240398CF983089F0993019F42093B2
:1013C0001F03DCCF9A3071F09B30C1F69BE4909301
:1013D000570390938C0390936303D0CF2FE133E0B6
:1013E00081E0C3CF24E533E0FBCF8FEFADCF809119
:1013F000240387FFF0CE8091210390912203892B53
:1014000071F080912303813051F48881809320030F
:10141000109222031092210310927C00DCCE8EE108
:1014200080937D00D8CEDC012C2FECE4F3E03D91DD
:1014300031932150E1F7FACE1F93CF93DF93E82F3A
:10144000792F162FEA01888184FF1CC0298188E842
:1014500028272983CE010296DC012E2F372F512F0A
:101460005E0FF90121912D939F01452F4E1B1416FC
:10147000C4F3612F0E94F8031C5F1883DF91CF91A2
:101480001F9108958AE58883E5CFCF93DF93C7E264
:10149000D3E08091620384FF18C042E653E068E025
:1014A000CE010E941C0A289683E0C734D80789F72A
:1014B0008091620384FF0CC042E653E060E090E05C
:1014C00080E0DF91CF910C941C0A0E94D208E1CFFA
:1014D0000E94D208EDCFCF93DF9300D00F92CDB70B
:1014E000DEB790911403981307C020911203309136
:1014F000130326173707A1F0809314037093130387
:101500006093120389837B836A8380918B0384FFBA
:1015100007C04BE853E063E0CE0101960E941C0A2D
:101520000F900F900F90DF91CF910895BC0184E050
:101530000C946B0ABC0183E00C946B0ACF93DF938D
:10154000CAE0D0E08091560384FF1CC08091100354
:1015500090911103981799F028E0829FC0011124FF
:1015600046E553E068E080579D4F0E941C0A809139
:10157000100390E001968F70992780931003DF91FC
:10158000CF9108950E94D20887EB9BE00197F1F775
:1015900000C000002197B1F6F2CFCF93DF93EC01AA
:1015A000A0911103B0E0CD0101968F709927209191
:1015B0001003281779F093E0AA0FBB1F9A95E1F763
:1015C000A057BD4F98E0FE0101900D929A95E1F76A
:1015D000809311030E94D2080E949E0A88E0FE01B7
:1015E000A7E1B3E001900D928A95E1F7DF91CF91E9
:1015F0000895CF93C82F882309F488C08238C1F496
:101600000E94790781FD82C089E30E9428060E941A
:10161000EE052FE789EA93E0215080409040E1F702
:1016200000C0000089E30E941B06CF910C94EE05D8
:101630008338A1F40E94790780FD68C083E50E9489
:1016400028060E94EE052FE789EA93E021508040AA
:101650009040E1F700C0000083E5E5CF8438A1F4B5
:101660000E94790782FD52C087E40E9428060E94EA
:10167000EE052FE789EA93E0215080409040E1F7A2
:1016800000C0000087E4CFCF8CEF8C0F813A68F464
:10169000E6E0F1E08191C81799F121E0EC30F20722
:1016A000C9F78C2F0E942806C0CF80E28C0F8830AB
:1016B00068F4C77021E030E001C0220FCA95EAF754
:1016C00080910102822B80930102AFCFEBE5EC0FFA
:1016D000E33040F4F0E0E454FF4F808190E0CF919C
:1016E0000C94C906C85AC73188F4EC2FF0E0EE0F0D
:1016F000FF1FE154FF4F80819181CF910C94B3067D
:101700008C2F0E941B060E94EE05CBCFCF9108952F
:10171000CF93C82F0E94F90AC93349F42FEF8DEEF9
:1017200092E0215080409040E1F700C000008C2FF3
:10173000CF910C948507CF9384E090E00E943725E9
:10174000C82F81E290E00E943725982F8C2FCF91EF
:1017500008950F931F93CF93DF9320E2629FE001E0
:10176000112450E0440F551FC40FD51F30EC839F48
:10177000C00DD11D1124CE0186960E943725082F59
:1017800010E0102F0027CE0187960E943725980180
:10179000282BC901DF91CF911F910F910895462FFA
:1017A000843038F4763028F4603118F4672F0C94C4
:1017B000A90B90E080E00895CF93DF930E94CF0BB8
:1017C000EC0182389105A9F1D8F58133910509F42E
:1017D00096C048F58932910509F48AC08A9709F4C0
:1017E00095C0C11522E5D20708F0B6C0C11531E594
:1017F000D30708F026C1C83ED10508F09CC0C03E02
:10180000D10560F5C83AD10508F087C0C53AD105C1
:1018100008F0EFC0C130D10509F12097F9F0C430CC
:10182000D105E0F440C08533910509F45AC0C99749
:10183000C1F680916102837089F0C0EED0E00EC0E5
:10184000833E910599F170F4803E910501F1823E4D
:10185000910539F68091610282FD21C0CE01DF91B0
:10186000CF910895863E910561F1873E910571F112
:10187000843E910509F0B5CF8091620281FFEECFE1
:1018800080916102C7EED0E084FD0DC0E7CF80916A
:10189000610280FD07C19091620290FFDFCFC3EE2D
:1018A000D0E084FFDBCFD0E0C0E0D8CF80916102F0
:1018B00082FDFBC09091620290FDBFCF84FFCECF2E
:1018C000F2CF8091610283FDDDCFC8CF80916102AC
:1018D00083FDEEC09091620291FFF0CFC4EED0E0A4
:1018E000BDCF8091610285FFB9CFC9E2D0E0B6CF0C
:1018F0008091610285FFB2CFC5E3D0E0AFCF809188
:10190000610286FFABCFCAE2D0E0A8CF809161022E
:1019100086FFA4CFC1E3D0E0A1CFCF3BD10518F61D
:10192000C85AD0E0CC0FDD1FC154DF4F0990D881D9
:10193000C02DD46493CFC11540E5D40708F064C02E
:10194000C11580E4D80708F05CC0CE019A958115D6
:101950009F4108F483CFA7CFC11536E5D30718F50B
:10196000C11545E5D40708F084C0C11584E5D80742
:1019700008F07AC09C2F969596959E012370332788
:10198000C115D34508F462C0C1E0D0E002C0CC0F5D
:10199000DD1F2A95E2F730E2939FC0011124C82B86
:1019A000D92BDA685BCFC1158AE5D80778F4C11561
:1019B00099E5D90708F068C0C11528E5D20708F4F1
:1019C00072CFDC2FCC27C06FD06A48CFCE019056A3
:1019D0008115904208F067CF8D2F8F710E948F087C
:1019E00090E0982F882788279F719C012C2BE90174
:1019F00049C0C55AD0E0C454DF4FC881D0E0D0649C
:101A00002DCFDF70D06A2ACFCE01E4E0969587957E
:101A1000EA95E1F783702C2F26952695237040E2F6
:101A2000249F90011124382B8C2F8370C1E0D0E0CB
:101A300002C0CC0FDD1F8A95E2F7C22BD32BDC68E6
:101A40000DCFDC2FCC27C16FD06A08CFC1E0D0E02A
:101A500002C0CC0FDD1F2A95E2F720E2929FC00161
:101A60001124C82BD92BEBCFDC2FCC27C46FD06A25
:101A7000F5CE8C2F0E948F08C82FD0E0DC2FCC270A
:101A8000CC27DF71D062EACE8C2F8F700E948F0836
:101A900034E0D695C7953A95E1F7CF709C2FEC01CD
:101AA000D069DCCEC9E3D0E0D9CEC2EED0E0D6CE4C
:101AB000C6EED0E0D3CEBF92CF92DF92EF92FF92EC
:101AC0000F931F93CF93DF938C01C0904703D09067
:101AD0004803E0904903F0904A03809103029091FB
:101AE0000402A0910502B0910602C82AD92AEA2A66
:101AF000FB2ACFE1D0E0BC2ED701C6010C2E04C0DA
:101B0000B695A795979587950A94D2F780FD0EC054
:101B1000219788F7B12C8B2DDF91CF911F910F91D9
:101B2000FF90EF90DF90CF90BF900895B8018C2F79
:101B30000E94DC0B019761F3EECFCF93DF93EC01B2
:101B40000E945B0DBE01DF91CF910C94DC0B0E94D3
:101B50009D0D292F2F7092959F7092509E3078F492
:101B6000E92FF0E0E051FA4D0C94B224803F19F0D7
:101B700020F4883E20F481E00895843FE1F380E082
:101B80000895883EC0F3813FD1F7F5CF822F869527
:101B90008695869508956F927F928F929F92AF92CD
:101BA000BF92CF92DF92EF92FF920F931F93CF934A
:101BB000DF9389E5C82E82E0D82E06E011E0E80127
:101BC000C05CD10936011CC0F50185909490692D47
:101BD000C7010E944B25682DC70101960E944B2525
:101BE00082E0A80EB11C82E0E80EF11CCE15DF05E4
:101BF00059F780E2680E711CA0960C171D0731F092
:101C00007E0180E2E81AF1085301DECF00541F4F35
:101C100080ECC80ED11C063084E0180781F6DF91F5
:101C2000CF911F910F91FF90EF90DF90CF90BF90D9
:101C3000AF909F908F907F906F900895682F86E06F
:101C400090E00C944B25CF93DF93C6E2D3E060E0A5
:101C5000CE010E944B252196C11584E0D807B9F723
:101C6000DF91CF910895CF93C82F6FEF811161E27B
:101C700082E290E00E944B256FEFC11162E083E2A7
:101C800090E00E944B256FEFC11166E184E290E085
:101C9000CF910C944B2593E0909307029093080208
:101CA000982F917080FD94E081FD926082FD91609B
:101CB0009093090224E630E043E050E067E072E0F0
:101CC00080EB0E944A24892B81F087E99AE30197EF
:101CD000F1F700C000004091080250E024E630E037
:101CE00067E072E080EB0E944A2481E0089598E268
:101CF0009093070294E0909308029FEF909309025B
:101D000080930A0224E630E044E050E067E072E0AD
:101D100080EB0E944A24892B81F087E99AE301979E
:101D2000F1F700C000004091080250E024E630E0E6
:101D300067E072E080EB0C944A240895282F220F6C
:101D4000220F220F909178029770922B9093780235
:101D5000987F21E009F420E09091780220FB90F92F
:101D6000909378020C94770E60E081E090E00E94FE
:101D70006E2587E090EBDC018093970390939803A6
:101D8000A0939903B0939A0388E19CE00FB6F8946E
:101D9000A89581BD0FBE91BDFFCF90E080E00E946D
:101DA000452521E08C3E9E4F09F020E0822F0895CA
:101DB0006CEE7EEF90E080E00E94682560E082E0BB
:101DC00090E00E944B2560E083E090E00E944B256C
:101DD0001092030210920402109205021092060261
:101DE00060E084E090E00E944B2560E081E290E0BA
:101DF0000E944B2560E085E090E00E944B2560E06A
:101E000086E090E00E944B256FEF87E090E00E9413
:101E10004B2540E050E0BA0188E090E00E945C254C
:101E200060E08DE090E00E944B2540E050E0BA0178
:101E300088E190E00E945C2560E087E190E00E94EC
:101E40004B2540E050E0BA018CE190E00E945C2517
:101E500060E080E290E00E944B2540E050E0BA0153
:101E60008FE090E00E945C2540E050E0BA0183E101
:101E700090E00C945C25CF92DF92EF92FF926B0181
:101E80007C010E94E007B701A60188E090E0FF9086
:101E9000EF90DF90CF900C945C2580917F02882397
:101EA00019F0815080937F0260917B0270917C02D7
:101EB00080917D0290917E020C943B0F80917F0275
:101EC000833018F48F5F80937F0260917B02709162
:101ED0007C0280917D0290917E020C943B0FEBE797
:101EE000F2E083E0808311828FEF828388EC83832A
:101EF000148260817181828193810C943B0F1092D6
:101F00000102E6E0F1E086E0DF011D928A95E9F743
:101F10000C94DF0680917B0280FD0AC0E2E1F1E0D3
:101F2000118210821282339681E0EC33F807C1F7F8
:101F300087E1809307028EE2809308028EE080930F
:101F4000090210920A028AE2E2E1F1E0ABE0B2E0BB
:101F500001900D928A95E1F724E630E04EE250E0E0
:101F600067E072E080EB0C944A248F929F92AF92CC
:101F7000BF92CF92DF92EF92FF920F931F93CF9376
:101F8000DF93FC01B280948081E08483CCE3D1E0D4
:101F900002E111E08BE4A82E88248394EE24EA94D5
:101FA000F12C2BE4C22ED12C91101DC01B821A8261
:101FB00098014A81698188810E94F60725960D5F04
:101FC0001F4F81E0C238D80779F7DF91CF911F9179
:101FD0000F91FF90EF90DF90CF90BF90AF909F90C8
:101FE0008F900C948A0F2B81222309F121502B838F
:101FF0003C818A2D821B311101C0822F90917E027B
:10200000899FC0011124B6010E948A246A8321118C
:1020100004C0332311F01C82AB8222E02B1540F266
:1020200080917C02888380917D028983C1CF0E9448
:102030001A25823091400CF0BBCF82E08B15C0F4A2
:102040000E941A25B7010E949E24888322E02B1546
:1020500090F40E941A2520917D022695622F70E04F
:102060000E949E24280F29831A82AB828C82A0CFE3
:1020700080917C02EACF20917D02F5CFEF92FF9212
:102080001F93CF93DF93EC0182E1E82E81E0F82EDD
:1020900010E08C81970140917E0260917D02810F5A
:1020A0000E94F6071E5E83E0E80EF11C1C3F89F7D4
:1020B0000E948A0F9A818C8190FF08C08F5F8C8369
:1020C000DF91CF911F91FF90EF9008958150F7CF4E
:1020D000BF92CF92DF92EF92FF920F931F93CF9315
:1020E000DF93FC018281DD24DA9480FD02C0DD24CF
:1020F000D39402E111E0D0E0C0E02EE0B22EF8016E
:1021000011821082128294E0E92EF12CC12C809170
:102110000F018C0D8F300CF43DC06B2D0E947C2480
:10212000892F082E000C990B8C179D0791F4809134
:102130007E028E9DA0018F9D500D112455954795CF
:1021400055954795980160917D0280917C020E948F
:10215000F607CD0CF1E0EF1AF108C9F621960D5FF4
:102160001F4FCE30D10559F60E948A0F80910F0182
:1021700091E0D91215C0811111C08DE080930F013B
:10218000DF91CF911F910F91FF90EF90DF90CF9053
:10219000BF90089587FFC5CF825FC3CF8150EECF38
:1021A00090E00196BE010E949E24E8CF0F931F93FA
:1021B000CF93DF93C2E1D1E0FE011182108212823F
:1021C000339681E0EC33F807C1F710E000E080912E
:1021D0001001082E000C990B081719078CF180913B
:1021E0007000082E000C990B801791074CF19E018E
:1021F00040917E0260917D0280917C020E94F607F0
:102200000F5F1F4F23960E30110509F70E948A0FAA
:1022100080916F0090911001980F90931001209180
:102220007000280F20937000121614F49D301CF0DB
:10223000819580936F00DF91CF911F910F91089549
:10224000198218821A82DCCF8F929F92AF92BF922E
:10225000CF92DF92EF92FF920F931F93CF93DF9372
:10226000EC014C81042F10E09801D8010E94DF2579
:102270009B01AC010E94AA254B015C01E0E2F0E069
:10228000E01BF10BA5E5B0E0AC019B010E94AA2583
:102290006B017C019F01DF010E94BF249B01AC0107
:1022A0000E94B5259B01AC01280D391D4A1D5B1DFF
:1022B000C701B6010E94BD25F22E822F90E039E2BF
:1022C0003F15D8F143E0249F9001112435952795BF
:1022D000122F109592E1C92E91E0D92E00E085E5EC
:1022E000E82EEF188E2D01FD8F2D9601412F609164
:1022F0007D020E94F6070F5F53E0C50ED11C0E3021
:1023000089F70E948A0F9C8181E0992319F090320D
:1023100019F48FEF8093710080917100890F8C8385
:10232000DF91CF911F910F91FF90EF90DF90CF90B1
:10233000BF90AF909F908F90089525E530E0A90160
:10234000481B590BCA019A01220F331F280F391F4E
:1023500037FFBCCF2F5F3F4FB9CFEF92FF920F9364
:102360001F93CF93DF938C01C2E1D1E0F12CE12CDC
:10237000F801948160917D0280917C02F7E0EF1674
:10238000F104FCF49923F9F09E0140917E020E9431
:10239000F6072FEFE21AF20A23968EE0E816F10410
:1023A00039F70E948A0FF801848190E001968170CC
:1023B00099278483DF91CF911F910F91FF90EF9028
:1023C0000895992309F39E0140E0E1CF90917B02AB
:1023D00090FF0CC0E2E1F1E0818360834283339699
:1023E00091E0EC33F907C1F70C948A0F08950F932D
:1023F0001F93CF93DF9300D00F92CDB7DEB78C0140
:102400008091110181110AC09E012F5F3F4F48EC5E
:102410006FEF0E94F6078A8180931101F8016481B1
:10242000613069F08091110140E0662361F040E085
:10243000623011F44091110180E060E004C06091CD
:10244000110140E080E00E94E611F801848190E0F3
:10245000019663E070E00E949E2484830F900F90A9
:102460000F90DF91CF911F910F910895CF93DF933C
:1024700000D00F92CDB7DEB790917B0290FF0AC0DB
:102480009E012F5F3F4F0E94F6074B8169818A8131
:102490000E94E6110F900F900F90DF91CF91089559
:1024A000CF93DF93EC01EC81F0E0E75AFE4F4491CB
:1024B000EBE7F2E0628181810E9436128C818F5FAE
:1024C0008C83DF91CF910895CF93DF93EC01EBE7FD
:1024D000F2E0438162818C810E9436128C818F5F91
:1024E0008C83DF91CF9108955F926F927F928F924C
:1024F0009F92AF92BF92CF92DF92EF92FF920F9393
:102500001F93CF93DF9300D00F92CDB7DEB7182F74
:10251000762E042F622E90917B0290FF29C0E92F26
:10252000E695AE2FB0E0AF56BF4F8C918093790205
:102530009E7F923081F59E012F5F3F4F812F0E9439
:10254000F6074B8169818A810E94E61110937C0213
:1025500070927D0200937E02662051F060917B02B2
:1025600070917C0280917D0290917E020E943B0FCF
:102570000F900F900F90DF91CF911F910F91FF90CF
:10258000EF90DF90CF90BF90AF909F908F907F9013
:102590006F905F900895823019F400917E02D6CF3B
:1025A000863019F410917C02D1CF8930D9F389316A
:1025B00069F6E9518E2F8170582EE695F0E0EC5ABD
:1025C000FE4FA590B490BB2482E1E82E81E0F82E66
:1025D000D12CC12C9EE0892E912CC601B4010E9401
:1025E0008A24812F511013C0860F9701402F672D29
:1025F0000E94F607CA0CDB1C83E0E80EF11C8CE39A
:10260000E81681E0F80649F70E948A0F9FCF861BE3
:10261000ECCFEBE7F2E0438121E1421B08F440E01C
:1026200021E0628181810C947412EBE7F2E0438136
:1026300021E1420F08F44FEF21E0628181810C9487
:102640007412EBE7F2E0628121E1621B08F460E0C2
:1026500021E0438181810C947412EBE7F2E0628106
:1026600021E1620F08F46FEF21E0438181810C9436
:102670007412EBE7F2E0818121E0438162818A50AC
:102680000C947412EBE7F2E0818121E043816281D6
:10269000865F0C94741278941F921FB61F921124B7
:1026A0008F939F93AF93BF9380918002909181020B
:1026B000A0918202B09183020196A11DB11D809369
:1026C000800290938102A0938202B0938302BF9113
:1026D000AF919F918F911F901FBE1F9018952FB79C
:1026E000F8948091800290918102A0918202B09131
:1026F00083022FBF08950F931F93CF93DF93C42FAF
:10270000D22FFC0182818823A1F0409388010E948E
:102710006F139093830180938201C77081E001C0A1
:10272000880FCA95EAF7DF91CF911F910F910C9412
:10273000A90610918801141335C0809182019091EF
:1027400083010E94D905883C910560F5C0E2CD0F58
:102750001D17B9F080E2810F883040F4177081E0D6
:1027600001C0880F1A95EAF70E949E06C83048F407
:1027700081E09D2F977001C0880F9A95EAF70E941B
:10278000A906802F0E94880BC83098F4D77081E08A
:1027900001C0880FDA95EAF7DF91CF911F910F9171
:1027A0000C949E06C77081E001C0880FCA95EAF7B5
:1027B000F3CFDF91CF911F910F91089590917B02FC
:1027C00090FF3DC09170811129C0926090937B026F
:1027D000662351F060917B0270917C0280917D02B2
:1027E00090917E020E943B0F60917B02669570E0A3
:1027F0004BE050E084E690E00E942A25892BA9F066
:1028000010927A0281E08093670220E040917E027C
:1028100060917D0280917C020C9474128B3210F0D6
:102820009465D4CF880F982BD1CF81E080937A0222
:102830000E946F139093650280936402E3CF089522
:1028400080917B028695815009F48AE261E00C94C4
:10285000DE1380917B0286958F5F8B3208F081E0DA
:1028600061E00C94DE1390917B0290FF07C0969577
:10287000981720F0961710F40C94291461E00C942A
:10288000DE134F925F926F927F928F929F92AF92E0
:10289000BF92CF92DF92EF92FF920F931F93CF934D
:1028A000DF9300D000D00F92CDB7DEB77C01FC01E2
:1028B00083819481892B31F08081918189238F3F9D
:1028C00009F067C60F900F900F900F900F90DF9157
:1028D000CF911F910F91FF90EF90DF90CF90BF901D
:1028E000AF909F908F907F906F905F904F900895E2
:1028F0000E945B0D182F682F89819A810E946806BB
:1029000069817A81812F0E94CF0B8C01F70192811E
:10291000992309F417C6980122513F45203131050A
:1029200008F095C58FEF93E00E943725025156E2DB
:10293000852E53E0952E882379F18091FE018770D2
:1029400009F4C0CFF7018281882309F4BBCF82E06C
:102950000F900F900F900F900F90DF91CF911F91DC
:102960000F91FF90EF90DF90CF90BF90AF909F902E
:102970008F907F906F905F904F900C9436078114EA
:10298000F4E09F06D1F2C4010E943725811101C0F5
:1029900001502FEF821A920A0111F1CF1C821B8283
:1029A000662463944AE0542E84010F5F1F4FC401D4
:1029B0000E94372589831A82882309F4BECF9FEFAE
:1029C000980F933008F58A83698232E0830E911C58
:1029D000C8010E9437258B83882309F4AECF8E016E
:1029E0000F5F1F4FF80120812223F1F2213009F0FF
:1029F00043C091818281913049F40E5F1F4F0E9444
:102A0000880B0F5F1F4FEECF4801E9CF923029F4BA
:102A10000E5F1F4F0E94F90AF4CF933029F40E5F26
:102A20001F4F0E948507EDCF943019F00F5F1F4FA5
:102A3000E8CF0E5F1F4F30E020E0B8016F5F7F4F9F
:102A4000F80141818053990B8A30910550F0215053
:102A50003109B8F287EB9BE00197F1F700C0000065
:102A6000F6CF529EF001539EF00D11249C012E0FC3
:102A70003F1F842F8B01E1CFE22FF0E0E758FA4FA0
:102A80007490822F86958695869590E0FC01E75993
:102A9000FA4FA4902770B12C022E02C0B594A794CF
:102AA0000A94E2F7E1E0AE22BB24FC01E75AFA4FB8
:102AB000C490D12C02C0D594C7942A95E2F7F1E0D6
:102AC000CF22DD24A114B10419F081EE0E94F90A8D
:102AD000C114D10419F086EE0E94F90A872D0E94D4
:102AE000880BCD2819F086EE0E948507AB2809F4E3
:102AF00088CF81EE96CF81E00E944E070E94F706B4
:102B00001CCF81E00E941307F9CF82E0F5CF82E06D
:102B1000F9CF0F3BFCE51F0709F442C098F1003CD8
:102B20003CE5130709F0AFC490917802892F869590
:102B3000869586958F5F8F719770823008F051C0AF
:102B4000880F880F880F892B8093780280917802F4
:102B500010C081E00E949E0E809178020E941E0E9D
:102B6000ECCE80917802982F987FA9F188508093BD
:102B70007802887F91E009F490E08091780290FBE0
:102B800080F90BC080917802982F987F19F4885FA4
:102B9000809378028091780281608093780219C0D6
:102BA0008091780280FF09C08E7F809378020E9416
:102BB0001E0E80E00E94770EC0CE80FDBECE8160EA
:102BC00080937802813019F489E0809378028091B3
:102BD00078020E941E0E80917802869586958695D1
:102BE000E9CF90937802B2CF07E225EE45EE68ED8B
:102BF0007CE5CBC406E221EE40EE63EF7CE5C5C484
:102C000007E225EE44EE64EF7CE5BFC406E221EE68
:102C100042EE65EF7CE5B9C408E221E045EE69EDDE
:102C20007CE5B3C480916102806106303CE5130706
:102C300009F47FC008F484C080916102806279C089
:102C4000809161028D7F0C309CE5190709F471C0F9
:102C500070F4809161028C600A30FCE51F0709F472
:102C600068C008F479C0809161028E7F62C0809153
:102C70006102877F0E303CE5130709F45AC008F45F
:102C800071C0809161028F7E54C00B3F9CE5190793
:102C900009F45AC030F50331FCE51F0709F472C08E
:102CA00078F401313CE5130709F468C002311C4592
:102CB00009F038C40E947F0F809161028F7739C07C
:102CC00005319CE5190709F465C008F479C08091C5
:102CD000620281600A3F1C4509F024C480936202AD
:102CE00021C40F3F2CE5120709F450C070F40D3FCA
:102CF0008CE51807D9F1809162028E7F0E3F1C454A
:102D000068F3809162028360E9CF0130EDE51E0730
:102D100009F45FC008F44AC060E002301D4509F0C4
:102D200001C48EE090E00E944B25FCC380916102BB
:102D3000816080936102F6C3809161028460F9CF63
:102D4000809161028860F5CF809162028260C6CF77
:102D5000809161028064EDCF0E947F0F80916102BB
:102D60008068E7CF809161028B7FE3CF8091620220
:102D70008D7FB4CF809161028F7DDBCF8091610226
:102D80008F7BD7CF80916102837FD3CF8091620206
:102D90008C7FA4CF8091610282FB992790F921E07A
:102DA000922790FB82F990FB83F9C3CF8091620256
:102DB000982F909591708E7F892B90FB81F98ECF03
:102DC0000E947F0F90916102892F97FB87F98058AD
:102DD000B0CF61E0A6CF8091010206313CE5130738
:102DE00009F0E8C38A7A91E009F490E090938901B0
:102DF000811106C089E20E9428060E94EE059DCD41
:102E000085E3F9CF85E3F6C380917B0280FF1BC089
:102E10008E7F80937B0260917B0270917C02809117
:102E20007D0290917E020E943B0F10927A028FEBFE
:102E300094EDE1E081509040E040E1F700C00000F7
:102E40000E948A0F7ACD816080937B0261E0869533
:102E50000E94DE1372CD40E254E169E274E10E9407
:102E6000DB076BCD49E254E160E274E1F8CF49E35E
:102E700053E162E473E1F3CF42E453E169E373E1C8
:102E8000EECF41E253E16DE273E1E9CF4DE253E170
:102E900061E273E1E4CF49E053E165E173E1DFCF43
:102EA00045E153E169E073E1DACF4DE45FE06EE5BF
:102EB0007FE0D5CF4EE55FE06DE47FE0D0CF61E00D
:102EC00081E0C6CF65E082E00E94331436CD68E031
:102ED00086E0FACF6EE089E0F7CF64E18FE0F4CFCF
:102EE00067E185E1F1CF61E088E1B2CF62E289E19B
:102EF000EBCF61E083E2ACCF0115FCE51F0709F4DD
:102F000047C00E3D1C4509F450C0F70100811181F6
:102F1000992309F44DC0C8010E945B0DD82E682F7B
:102F2000C8010E946806B8018D2D0E94DC0B8C013F
:102F3000882EF701A580A2943FE0A322D280D11071
:102F4000109200028091FE01877099F0DD2089F0D7
:102F5000812F807F803421F080E2800F883048F01C
:102F600082E00E9436078091FE018770CC24C394D2
:102F70008111C12CB12EB2942FE0B222FBE0FB15DF
:102F800008F450C0EB2DF0E0E250FA4D0C94B2245E
:102F90000E947F0F3FEB87E299E0315080409040E4
:102FA000E1F700C000000E94B40E0E94D80EC5CC0C
:102FB000C8010E944106D82EB6CF212F2F70A22E15
:102FC000107F19F0A29490EFA922DD20C9F0AA2069
:102FD00069F080E2800F883010F081100BC0809182
:102FE0000102A82AA09201020E94EE05802F0E94F1
:102FF000F90A18C080910002A82AA0920002F4CF1A
:10300000802F0E948507AA2069F0A094005E0830F6
:1030100010F081103DC080910102A822A09201020F
:103020000E94EE05EB2DE850FF0B349720F40E9430
:1030300079070E944B0ECC2009F444CC8091FE010C
:1030400080FD40CCF70112828595859585950E947B
:103050004E07C7010E9441148091FE018595859518
:1030600085950F900F900F900F900F90DF91CF915B
:103070001F910F91FF90EF90DF90CF90BF90AF9096
:103080009F908F907F906F905F904F900C9413075C
:1030900080910002A822A0920002C2CF312F3F707F
:1030A000932E107F103219F0929480EF982288208E
:1030B00071F081E0881661F1DD20B9F1AA2071F18B
:1030C000F701858180FF92CF8F70858327C0DD2037
:1030D00091F090910202892D892BA11003C00E94CA
:1030E000A906A0CFE1E0AE12FACF981709F49ACF63
:1030F0008093020297CFA11006C00E94E805892D97
:103100000E949E068FCFF1E0AF1609F48BCFF5CF6A
:10311000DD2031F025E02A1508F484CF892DDFCF9A
:1031200034E03A1508F47ECFEACFAA2041F3F9E360
:103130008F1286C12FEF3DEE82E02150304080405B
:10314000E1F700C000007CC1812F869586958370D1
:1031500061F0813009F066CFC8019370D11002C0D0
:1031600090E080E00E94B3065DCFC8019370D1105B
:1031700002C090E080E00E94C90654CF812F837086
:1031800009F066C0D1104ECF802F8295869587704A
:10319000880F880F602F6F70462E512C712C612C78
:1031A000082E04C0440C551C661C771C0A94D2F7E8
:1031B00040E050E0BA0104FF0FC04FE050E060E093
:1031C00070E004C0440F551F661F771F8A95D2F721
:1031D0004095509560957095812F86958695837062
:1031E000823019F1D8F40091030210910402209169
:1031F000050230910602813069F04429552966297B
:103200007729CB01BA0160237123822393230E9483
:103210006F0708CF402A512A622A732ACB01BA01CC
:103220006429752986299729F2CF442955296629C9
:103230007729009103021091040220910502309138
:103240000602CB01BA016027712782279327DFCFBF
:103250008695DD2011F0812F8170882309F4E2CE5C
:10326000802F829586958770880F880F602F6F70EA
:10327000462E512C712C612C082E04C0440C551C78
:10328000661C771C0A94D2F740E050E0BA0104FFB4
:103290000FC04FE050E060E070E004C0440F551FE5
:1032A000661F771F8A95D2F7409550956095709567
:1032B000812F869586958370823019F1D8F400911C
:1032C0004703109148032091490330914A0381300C
:1032D00069F04429552966297729CB01BA01602371
:1032E0007123822393230E94ED069CCE402A512A0B
:1032F000622A732ACB01BA01642975298629972984
:10330000F2CF442955296629772900914703109166
:1033100048032091490330914A03CB01BA01602749
:10332000712782279327DFCF1F70DD2029F0812F9F
:103330000E944E07802FD3CE802F0E949E06812FA1
:103340000E9413076FCE802F92EF891609F450C0A8
:10335000981578F0E0EF8E1619F1F1EF8F1609F459
:103360003FC0DD2009F467C0A11040CE812F8F71CE
:103370003CC023EF821609F440C034EF8312F1CF32
:10338000DD2009F44DC01F71812F0E944E07E8E037
:103390001E9FC001112483608093FE01812F25C0F0
:1033A000DD20C9F084E08A1508F43CCE1F7161E08D
:1033B00070E080E090E004C0660F771F881F991FBF
:1033C0001A95D2F7009147031091480320914903C1
:1033D00030914A03A4CF95E09A1508F423CEE6CFA6
:1033E000812F8F71DD2009F4ABCF0E944E071ACEDA
:1033F000812F8F71DD20C9F3A3CF60E070E0CB0196
:10340000DD2009F470CF1F7161E070E080E090E092
:1034100004C0660F771F881F991F1A95D2F763CFD4
:1034200081E00E943607F1E0FA1508F0FBCD82E05A
:103430000E943607F7CDAA2039F0893309F47ACEF5
:10344000802F0E948507EECD812F8F7179CF0031BB
:10345000FFE51F0709F44FCB01312FE5120709F4EF
:1034600054CB0D3B2CE5120709F47BCB08F051CB74
:103470000B3B8CE5180709F46CCB80E00C3BECE5CA
:103480001E0709F467CB033FECE51E0709F4B2CB36
:1034900008F0B3C0083D2CE5120709F4A5CB093D9F
:1034A0003CE5130709F4B8CB073D8CE5180709F490
:1034B00067C01092880102308CE5180708F48BCCA5
:1034C0000631ECE51E0738F098012A5F3C452930AB
:1034D000310508F080CC0E949B0B90936202809390
:1034E00061020031FCE51F0709F444CC08F0CDCBA4
:1034F00008303CE5130709F42BCC08F0A1CB0430CD
:103500009CE5190709F418CC08F08CCB0230FCE5D7
:103510001F0709F40BCC80916102826003301C45C7
:1035200009F407CC609161021091620284E090E09E
:103530000E944B25612F81E290E00E944B250E9462
:103540007F0FFBC900313FE5130709F4DACA0131E7
:103550008FE5180709F4DBCA033F2CE5120709F4CD
:1035600049CBA0F5083D8CE5180709F43DCB093D92
:10357000ECE51E0709F450CB073DFCE51F0789F574
:1035800006E221EE41EE67ED7CE5C7010E947B1368
:10359000D4C985E0DE01119601900D928A95E1F77C
:1035A000F701228189819A812111A2C90E944106D5
:1035B000182FA6C98272F801E25CFC45E431F105DE
:1035C00008F09ACCE65FF94D0C94B224053F2CE547
:1035D000120709F41BCB08F413CB063F8CE5180740
:1035E000C1F006311C4509F090CC80918901811110
:1035F00009CC89E20E941B0600CC053FECE51E07C2
:1036000009F404CB08F4FCCA063F2CE5120709F0C4
:1036100050CF07E225EE46EE66EF7CE5B6CF1F936E
:10362000CF93DF9380918F01807FA9F480918C01EB
:10363000882389F08091C101D091900160918A0125
:1036400070918B01A0918D01B0918E01C62FC7237F
:1036500016E0D81304C0DF91CF911F91089590E038
:10366000109711F0CF3F19F401968770F2CF189F91
:103670009001199F300D1124F901EF56FE4F418141
:103680004713F2CF40814613EFCF42814111ECCF77
:10369000438154814A1B5B0B483C510528F78091BC
:1036A0008F018F70806180938F01F901EA56FE4F80
:1036B00080818F70806180838AE891E00E9441144C
:1036C000DF91CF911F910C949406AF92BF92CF924D
:1036D000DF92EF92FF920F931F93CF93DF93CDB7BB
:1036E000DEB761970FB6F894DEBF0FBECDBF8C0179
:1036F00085E0F801DE011D9601900D928A95E1F7B3
:10370000F80180819181E2802AE8A22E21E0B22E88
:1037100060918D0170918E016115710509F43EC1B2
:1037200030918A0140918B01232F24232F3F09F4EC
:1037300035C1C380D480F0908C01F601E61BF70BF5
:10374000FF2009F4FBC020918F01522F507FE83CED
:10375000F10508F0BBC0511178C0FE2C491321C0FF
:1037600038131FC0E1101DC02F70206120938F01FE
:10377000C5010E94411480918F01F80185838F2D2E
:1037800061960FB6F894DEBF0FBECDBFDF91CF912B
:103790001F910F91FF90EF90DF90CF90BF90AF906F
:1037A0000895CD2829F0282F29232F3F09F014C18F
:1037B00020E0F22FF170DF2E20FF3DC02091C101EB
:1037C0004091900156E0241315C08D879E878D850A
:1037D0009E850E949D0D292F22952F702230F8F092
:1037E000243020F59F70F9F0F8019581907FD9F48D
:1037F000D12C1FC030E0529FF001539FF00D1124D7
:10380000EF56FE4F6181961306C06081861303C098
:103810006281E61210C02F5F3F4F2770D4CF9F7098
:1038200011F0882329F3805E883010F3C8010E94CC
:103830004114FD2CA4CFEE2009F4A1CF80918F017B
:10384000816080938F01F12C9ACF491312C03813F5
:1038500010C0E1100EC0F8012583C8010E94411478
:1038600086E0F801AAE8B1E001900D928A95E1F7AF
:1038700086CF8D879E878D859E850E94A70D882384
:1038800009F1EE20F9F080918F01803270F02091E3
:103890008A0130918B0138872F831986DB86CA868F
:1038A0008C87CE0107960E94411486E0F801AAE8B1
:1038B000B1E001900D928A95E1F70E940F1BFF2461
:1038C000F3945DCFC8010E944114F9CF51110AC091
:1038D0008AE891E00E94411486E0F50111928A95F0
:1038E000E9F7B1CF49130FC038130DC0E1100BC079
:1038F000F8012583C8010E94411486E0F501119268
:103900008A95E9F73CCF8D879E878D859E850E949D
:10391000A70D8823B9F2EE20A9F280918F018032A1
:1039200020F220918A0130918B013A8329831B82F6
:10393000DD82CC828E83CE010196B5CFE83CF105C5
:10394000E0F6FE2CEE2009F4BDCF491316C0381363
:1039500014C080918F0180FD83CF982F907F09F450
:103960007FCFF8018583903F09F477CF982F907F20
:10397000905F8F70892B858370CF8D879E878D8513
:103980009E850E94A70D811190CF80918F0181604B
:1039900080938F01C8010E944114F1CEEE2009F4FA
:1039A00091CF8D879E878D859E850E94A70DF82ECD
:1039B000882309F487CF86E0F801AAE8B1E00190F6
:1039C0000D928A95E1F780918A0190918B010E9476
:1039D0009D0D0E940F1BD3CE21E02E25EACE1F9312
:1039E000CF93DF93CDB7DEB767970FB6F894DEBFFE
:1039F0000FBECDBF4B8B5C8B6D8B7E8B8F8B1A8AF2
:103A0000198A85E0FE017396DE011D9601900D92E4
:103A10008A95E1F786E0FE013D96DE01179601905A
:103A20000D928A95E1F7CE0107960E94651B8823C7
:103A300089F016E08091C10190919001891349C0ED
:103A400067960FB6F894DEBF0FBECDBFDF91CF9162
:103A50001F91089586E0FE013796DE0111960190D0
:103A60000D928A95E1F78A859B85892B11F38F81C9
:103A7000988589238F3FE9F22091900130E0C901B8
:103A80000196877099274091C1014817190671F472
:103A90000E947F0F109290011092C10186E0EAE827
:103AA000F1E0DF011D928A95E9F7C3CF96E0929F7E
:103AB000D001939FB00D1124AF56BE4FFE01319639
:103AC00001900D929A95E1F7809390010E949406DF
:103AD000B0CF819FC00111248F569E4F0E94651B5D
:103AE000882309F4ADCF8091C10190E001968770E1
:103AF00099278093C1019ECF7F928F929F92AF9220
:103B0000BF92CF92DF92EF92FF920F931F93CF93CA
:103B1000DF930DEE10E0A5E5B2E0712CCC24C39448
:103B2000D12CE80189918E01E82FE295EF70F0E049
:103B300091A98F70760101C0EE0C8A95EAF7892F62
:103B40008E2981AB92A97E2D7095972392ABD8E7F1
:103B5000DA95F1F793EFA92E90E0B92E50E040E00E
:103B600030E020E0E50169915E01862E82948FE0CD
:103B70008822912CE40188A990E06F7002C095958D
:103B800087956A95E2F780FD6DC0C601042E02C0DC
:103B9000880F991F0A94E2F7282B392B4F5F5F4F4C
:103BA00040315105F9F681A9872381AB82A9E82A22
:103BB000E2AA8D919C9111972817390709F455C0F5
:103BC00011963C932E9381E0782A1296D0E0033F21
:103BD0001D0709F0A6CF772009F449C081E0809342
:103BE0000E010E946F1390930D0180930C01809140
:103BF0000C0190910D010E94D9050697E0F180918A
:103C00005502909156029093850280938402809190
:103C10005702909158029093870280938602809178
:103C2000590290915A029093890280938802809160
:103C30005B0290915C0290938B0280938A02809148
:103C40005D0290915E0290938D0280938C02809130
:103C50005F029091600290938F0280938E02109287
:103C60000E0109C090E080E097CF80E0ADCF809159
:103C70000E018111BCCFA895872DDF91CF911F91A7
:103C80000F91FF90EF90DF90CF90BF90AF909F90FB
:103C90008F907F900895CDB7DEB764970FB6F894F4
:103CA000DEBF0FBECDBF0E946F137C0184B780685A
:103CB00084BF84B7806884BF8FEF8BBB1ABA88BB80
:103CC00017BA85BB14BA81EF82BB83E081BB88E160
:103CD0009FE00FB6F894A89581BD0FBE91BD80916D
:103CE0005202811105C00E94BC2381E080935202E0
:103CF00080E00E94770E87E99AE30197F1F700C010
:103D000000008FE0EEE7F0E0DE01119601900D92E9
:103D10008A95E1F78BE28093070281E180930802A4
:103D20008FE0FE013196A9E0B2E001900D928A95F4
:103D3000E1F724E630E041E150E067E072E080EB3B
:103D40000E944A24E7E9FAE33197F1F700C0000046
:103D50001092070215E0109308028FE08093090289
:103D600088EC90E090930B0280930A0224E630E006
:103D700045E050E067E072E080EB0E944A2487E96A
:103D80009AE30197F1F700C0000084E180930702F5
:103D900086E0809308021092090210920A021092A3
:103DA0000B0210920C0224E630E046E050E067E09F
:103DB00072E080EB0E944A24E7E9FAE33197F1F7D9
:103DC00000C000008AE18093070284E0809308022B
:103DD00083E090E090930A028093090224E630E0A9
:103DE00044E050E067E072E080EB0E944A2487E9FB
:103DF0009AE30197F1F700C0000080918D00909147
:103E00008E00A0918F00B091900029E120930702CD
:103E100027E0209308021093090280930A029093EE
:103E20000B02A0930C02B0930D0224E630E047E0B1
:103E300050E067E072E080EB0E944A24E7E9FAE391
:103E40003197F1F700C0000082E790E090935402B0
:103E50008093530285B7886085BF8BB780688BBF1E
:103E60008BE48093570380938C03809363038AE5EC
:103E70008093560380938B03809362038B9A80E038
:103E8000815009F06EC08B987894FFEB24ED41E0EF
:103E9000F15020404040E1F700C000008BE083BFBC
:103EA0008BEB8CBF82E089BFADEEB0E023EF30E05A
:103EB00041E050E08D91E82FE295EF70F0E011A91C
:103EC0008F70BA0101C0660F8A95EAF7962F909518
:103ED000912391AB82A9862B82AB2A173B0751F71E
:103EE000A3EFB0E041E050E08D91E82FE295EF7054
:103EF000F0E061A98F709A0101C0220F8A95EAF75C
:103F0000922F9095962391AB82A9822B82AB81E070
:103F1000A330B80749F7E5E5F2E081E692E0A4E8CE
:103F2000B2E0119211921D921D928E179F07C9F750
:103F30000E947C1DEFE2F5E73197F1F700C0000029
:103F40000E947C1D8091840280FF13C080E00E944B
:103F5000330E6FEF7FEF90E080E00E9468250E94B3
:103F6000B40EA895E7EBFBE03197F1F700C0000035
:103F700087CF0E94CD0E811102C00E94D80E82E22E
:103F800090E00E943725813209F0DCC383E290E0A3
:103F90000E943725823009F0D5C384E290E00E9468
:103FA0003725863109F0CEC30E94CD0E811102C0A3
:103FB0000E94D80E82E090E00E94372580936B0229
:103FC0000E949B0B909362028093610283E090E0D9
:103FD0000E943725682F70E090E080E00E946F0714
:103FE0000E94CD0E811102C00E94D80E86E090E0A2
:103FF0000E94372580937802803120F08770886096
:104000008093780290917802892F817090FF04C08C
:10401000892F8695869586950E94770E80916302FA
:10402000811133C00E94CD0E811104C00E94D80EB0
:104030000E946F0F88E090E00E943F2560937B0212
:1040400070937C0280937D0290937E026E7F71F468
:104050000E946F0F88E090E00E943F2560937B02F2
:1040600070937C0280937D0290937E020E94E00711
:1040700010927A0280917B0280FF04C060E08695F6
:104080000E94DE1381E08093630210E07CEFC72E74
:1040900075E0D72E80917103882309F4BDC010927A
:1040A00071030E946F137C010E94D20880911F034C
:1040B000882309F494C08091560384FF90C00E9425
:1040C0007C1DECE6F2E0A4E8B2E010E000E0902E07
:1040D0008D919D91419151914817590709F4B9C0AB
:1040E0004827592720E0AA24A394B12CBA016A21B9
:1040F0007B21672B09F4A7C029839A829C012A217E
:104100003B2191E0232B09F490E09B830E946F13E5
:104110008160782F9D838C8349815A816B818D8149
:104120000E94EF1C000F111FF801E459FD4F808120
:104130009181A826B926B182A08280917A02882333
:1041400009F441C080917902E0917B02E695E81B79
:10415000E0936602823009F093C0F0E0E65FF94F29
:10416000E4910E2F10E020E5A22E22E1B22E8091E4
:104170006702882389F0109267020E946F139801EA
:1041800020953095820F931F90936502809364026F
:104190001092690210926802809164029091650207
:1041A0000E94D9058017910770F0E0916402F091A8
:1041B00065020E0F1F1F109365020093640284E6D0
:1041C00092E0F50109950E94790790916A0289179A
:1041D00031F00E94790780936A020E944B0E0E9480
:1041E0009E0A0E94D20880911F03882309F4DCC034
:1041F00080918B0384FFD8C080911503803209F031
:10420000D3C0E0912703E150E33108F0F5C0F0E0BE
:10421000E25EF94D0C94B224C7010E94D9050697BD
:1042200018F4112309F440CF0E947C1DE4E8F2E069
:1042300081919191892B09F06BC292E0E039F907E5
:10424000B9F711E027CF2F5FAA0CBB1C203109F072
:104250004DCF0F5F1F4F0630110509F038CF8FEF9C
:10426000888B898B1A8A0E946F138160782F9C8BB0
:104270008B8B488959896A898C890E94EF1C5DCF94
:10428000863059F4F0E0E95FF94FE4910E2F10E029
:1042900094E6A92E92E1B92E6ACF893061F4E695B1
:1042A000F0E0EC5FF94FE4910E2F10E08EE3A82EC2
:1042B00080E1B82E5CCF8F3061F4E695F0E0EF5FDF
:1042C000F94FE4910E2F10E0B8E6AB2EB0E1BB2E13
:1042D0004ECF853159F4F0E0E250FA4FE4910E2FC1
:1042E00010E0A6EDAA2EA0E1BA2E41CF08E210E020
:1042F00074E2A72E71E1B72E883109F438CF8332EA
:1043000041F4F60105911491F7EFAF2EF1E1BF2EC4
:104310002ECF04EF11E06DEAA62E61E1B62E8432B5
:1043200009F425CF00ED17E054EDA52E55E0B52E8C
:10433000853209F01CCF8E2F63E00E947024E92F94
:10434000F0E0E750FA4FE4910E2F10E0E5EBAE2ECF
:10435000EFE0BE2E0CCF1092280389E08093290352
:104360001FC080912803823009F4F9C18330F1F035
:10437000813009F041C02FB7F894609180027091AC
:10438000810280918202909183022FBF0E94B82403
:104390006093290370932A0380932B0390932C033B
:1043A0000E94450A1092150310E074CEA7E2B3E014
:1043B000E4E8F2E080819181329612969C93129704
:1043C00013968C931397129622E0E039F20791F737
:1043D000E7CF80912803823079F4609129037091AE
:1043E0002A0380912B0390912C030E94B82485E22C
:1043F00090E00E944B25D4CF8FEF80932703D0CF3E
:1044000040912A0360912903809128030E94A90BFF
:1044100098278927982790932C0380932B03C0CF4C
:10442000A0902B03B0902C03BA24AB24BA24809123
:1044300028030091290340E2049F8001112490EC9D
:10444000899F000D111D112480912A0390E0880F8F
:10445000991F080F191F6B2DC80186960E944B25C6
:104460006A2DC8018796C5CF0E94CB0D99CF809148
:104470002803893041F49091290381E09F3F08F49B
:1044800080E00E949E0E809128038138D9F068F464
:10449000803809F085CF20E04091290360917D02AA
:1044A00080917C020E9474127BCF823879F183382C
:1044B00009F076CF20E040917E0260912A0380913E
:1044C0002903F0CF60E0809129030E94DE139091D0
:1044D000290380917B02911111C08E7F80937B0212
:1044E00010927A02EFEBF4ED21E0E150F040204031
:1044F000E1F700C000000E948A0F52CF81608093D4
:104500007B0260E086950E94DE134ACF80912903EA
:1045100080937F0245CF80912803893059F08A30FB
:1045200081F08138F9F080F4803809F039CF80913A
:104530007E0214CF80917802869586958695819526
:104540000DCF109229032CCF8238A1F0833809F0C7
:1045500027CF80917C028093290380917D028093F4
:104560002A031ECF80917B0280FF02C08695F6CE83
:1045700080E0F4CE80917F02F1CE809178020E949B
:104580001E0E60917B0270917C0280917D02909161
:104590007E020E943B0F04CF80E18093280300CF6E
:1045A000109228038AEDDACEA0902803B090290358
:1045B000BA24AB24BA2437E2832E33E0932E009141
:1045C0002A0310E0095D1C4FC5018A5D9C4F8016CF
:1045D000910609F4E5CE4AEDA416B10458F40E9400
:1045E0003725F4018483FFEFAF1ABF0A2FEF821A39
:1045F000920AEACFF4011482F6CF009128031091B9
:10460000290310270127102727E2822E23E0922E6C
:10461000A0902A03A00EB12EB11CC8018A5D9C4F48
:10462000A016B10609F4BCCE0A3D110520F4F40130
:1046300064810E944B25FFEF8F1A9F0A0F5F1F4F67
:10464000ECCF0E94230EACCE84E0A7CFA09028032D
:10465000B0902903BA24AB24BA2497E2892E93E0C0
:10466000992E00912A0310E0095D1C4FC501869622
:104670000815190509F494CEA11423E0B20658F4E4
:104680000E943725F4018483FFEFAF1ABF0A2FEF92
:10469000821A920AEBCFF4011482F6CF009128031C
:1046A0001091290310270127102787E2882E83E025
:1046B000982EA0902A03A00EB12EB11CC801869698
:1046C000A016B10609F46CCE011543E0140720F4DE
:1046D000F40164810E944B25FFEF8F1A9F0A0F5F40
:1046E0001F4FECCF80E00E94330E6FEF7FEF90E022
:1046F00080E00E94682554CE0E94450A2FE749EACF
:1047000083E0215040408040E1F700C0000027CC0A
:10471000F89421B3939A822F8C6081BB92B33CE0D2
:10472000932792BBEFE5FAEE40E0E150F0404040C5
:10473000E1F700C0000082B3832782BB21BB9398BE
:1047400078947FCD60E085E290E00E944B250E9446
:10475000CB0D0E94230E81E00E94330E25CC85E212
:1047600090E00E9437251092290310922A0310929C
:104770002B0380932C0314CE11B887E080B985B346
:10478000836085BB86B7846086BF86B7816086BF3D
:1047900086B7806486BF0895EF92FF920F931F93B0
:1047A000CF93DF93182FEB0116BE84EA86BF0E94D9
:1047B0006F137C0106B607FE21C081B1887F883067
:1047C00021F081B1887F8031B9F513B984E886BFC3
:1047D0000E946F138C0106B607FE23C021B1287F0B
:1047E00090E080E02831B1F081E090E0203411F4D5
:1047F00090E080E09195819591090CC0CF3FDC0756
:10480000C9F20E946F138E199F098C179D0790F2B1
:104810008EEF9FEFDF91CF911F910F91FF90EF905F
:104820000895CF3FDC07B9F20E946F13801B910BF4
:104830008C179D0780F2ECCF8FEF9FEFEBCF0F939C
:104840001F93CF93DF93EB0183B984E886BF0E9467
:104850006F138C0106B607FE10C021B1287F81E0DE
:1048600090E0283211F490E080E0919581959109D3
:10487000DF91CF911F910F910895CF3FDC0751F346
:104880000E946F13801B910B8C179D0718F38EEFFE
:104890009FEFEECFCF92DF92EF92FF920F931F9395
:1048A000CF93DF936B018A017901B9010E94CC2378
:1048B000E6010C0D1D1DC017D10759F424E926BFD0
:1048C000DF91CF911F910F91FF90EF90DF90CF90EC
:1048D000089597FDF3CFB70189910E941F24EBCF74
:1048E000991B79E004C0991F961708F0961B881F42
:1048F0007A95C9F78095089587FB082E062687FDCF
:10490000819567FD61950E9470240EF4919507FCD6
:1049100081950895AA1BBB1B51E107C0AA1FBB1FAD
:10492000A617B70710F0A61BB70B881F991F5A953B
:10493000A9F780959095BC01CD01089597FB072EAE
:1049400016F4009407D077FD09D00E948A2407FC52
:1049500005D03EF4909581959F4F0895709561958F
:104960007F4F0895EE0FFF1F0590F491E02D0994FD
:1049700069279627692778278727782708950E942F
:10498000DF25332312F48A1B9B0B0C94C9240E944D
:10499000DF25B7FF0895821B930B08958F929F9296
:1049A000AF92BF92CF92DF92EF92FF92CF93DF93BD
:1049B000EC01688179818A819B816115710581058E
:1049C000910521F464E279ED8BE597E02DE133EF79
:1049D00041E050E00E948B2549015A019B01AC0146
:1049E000A7EAB1E40E94AA256B017C01ACEEB4EF0A
:1049F000A50194010E94B825DC01CB018C0D9D1D01
:104A0000AE1DBF1DB7FF03C00197A109B048888341
:104A10009983AA83BB839F77DF91CF91FF90EF901B
:104A2000DF90CF90BF90AF909F908F9008950E949D
:104A3000CE24089580E690E00E94CE240895B0E050
:104A4000A0E08093600090936100A0936200B09317
:104A500063000895FC014150504030F0019006166B
:104A6000D1F73197CF010895882799270895E199C3
:104A7000FECF9FBB8EBBE09A99278DB30895A6E128
:104A8000B0E044E050E00C947D25A8E1B0E042E0C5
:104A900050E00C947D25262FE199FECF9FBB8EBB65
:104AA000E09A01970DB2021631F02DBB0FB6F894C3
:104AB000E29AE19A0FBE08950396272F0E944C2593
:104AC0000E944B25252F0E944C25242F0C944C2509
:104AD0000196272F0E944C250C944B25262FE199F7
:104AE000FECF9FBB8EBB2DBB0FB6F894E29AE19A26
:104AF0000FBE01960895DC01CB01FC01E199FECFC8
:104B000006C0FFBBEEBBE09A31960DB20D9241504C
:104B10005040B8F70895052E97FB1EF400940E94AC
:104B2000A22557FD07D00E94BD2507FC03D04EF4F7
:104B30000C94A22550954095309521953F4F4F4FAD
:104B40005F4F089590958095709561957F4F8F4F39
:104B50009F4F08950E94DF25A59F900DB49F900D53
:104B6000A49F800D911D11240895B7FF0C94AA25D0
:104B70000E94AA25821B930B0895A1E21A2EAA1B5C
:104B8000BB1BFD010DC0AA1FBB1FEE1FFF1FA217FD
:104B9000B307E407F50720F0A21BB30BE40BF50BFA
:104BA000661F771F881F991F1A9469F76095709583
:104BB000809590959B01AC01BD01CF010895A29F06
:104BC000B001B39FC001A39F700D811D1124911DE1
:104BD000B29F700D811D1124911D0895F894FFCF8F
:104BE000B60DB60DBF0DBF0DC10DBF0DBF0DBF0D75
:104BF000B60DB60DC60DBF0DBF0DC60DDD17DD1709
:104C00004E184E18A418121812181218BE1894191B
:104C1000A319A31904172B17321737173C1741177D
:104C200046174B17501755175A175F176217671714
:104C30006A176D177017731776177917AB21B121A3
:104C4000E92100221022342237228B22BD22722336
:104C50007C23CC22D022D422FD22212324232623EC
:024C60004E23E1
:104C62000100000001191A1B1C1D1E1F2021220118
:104C72000201D605CD0AD5059A0A960AFF5A0505FC
:104C820005050505050505050505050505050105D6
:104C920001000102020202060606090909090909C0
:104CA2000F0F0F0F0F0F15151518191919191919BB
:104CB200191919192324252525252525818283E201
:104CC20000E900EA00B500B600B700CD008301CCD0
:104CD200008A019201940121022302240225022664
:104CE2000227022A02B300B4006F0070003233348C
:104CF200353637909192939495969760616263648A
:044D0200656667007B
:00000001FF
