:100000000C945B030C949F030C94BA030C949F0311
:100010000C949F030C949F030C949F030C949F03D8
:100020000C949F030C949F030C9404130C949F0353
:100030000C949F030C949F030C949F030C949F03B8
:100040000C949F030C949F030C949F030C949F03A8
:100050000C949F0300010101010101010101020251
:100060000202020202020203030303030303030466
:100070000404040404040505050505060606060631
:10008000070707070708080808090909090A0A0AEB
:100090000B0B0B0C0C0C0D0D0D0E0E0E0F0F0F108D
:1000A0001011111112121313141415151616171717
:1000B000181819191A1A1B1B1C1D1D1E1E1F202083
:1000C000212222232424252626272829292A2B2CCD
:1000D0002D2D2E2F30313232333435363738393AF0
:1000E0003B3C3D3E3F404142434445464748494AE8
:1000F0004C4D4E4F50515354555658595A5B5D5EB6
:100100005F616264656668696B6C6D6F7072737550
:1001100077787A7B7D7E8082838587888A8C8E8FB4
:1001200091939596989A9C9EA0A2A3A5A7A9ABADE2
:10013000AFB1B3B5B7BABCBEC0C2C4C6C9CBCDCFD0
:10014000D1D4D6D8DBDDDFE2E4E7E9EBEEF0F3F57E
:10015000F8FAFDFFFFAA7F55402223252628292AE9
:100160002C2D2F3032333536383A3B3D3E4042431A
:100170004547494A4C4E5051535557595A5C5E6059
:1001800062646668696B6D6F71737577797B7D7F6B
:1001900081838587898A8C8E90929496989A9C9E6A
:1001A0009FA1A3A5A7A8AAACAEAFB1B3B4B6B8B986
:1001B000BBBCBEBFC1C2C3C5C6C7C9CACBCCCDCEEE
:1001C000D0D1D2D2D3D4D5D6D7D7D8D9D9DADADBD1
:1001D000DBDBDCDCDCDCDCDDDDDDDDDCDCDCDCDC5D
:1001E000DBDBDBDADAD9D9D8D7D7D6D5D4D3D2D29C
:1001F000D1D0CECDCCCBCAC9C7C6C5C3C2C1BFBE84
:10020000BCBBB9B8B6B4B3B1AFAEACAAA8A7A5A3EE
:10021000A19F9E9C9A98969492908E8C8A898785AD
:1002200083817F7D7B79777573716F6D6B6968668C
:100230006462605E5C5A5957555351504E4C4A495E
:1002400047454342403E3D3B3A3836353332302F06
:100250002D2C2A29282625232229001E001F0020B4
:100260000021002200230024002500260027002D65
:10027000002E004C002A004B002B0014001A00082E
:1002800000150017001C0018000C00120013002FAE
:10029000003000310000004E003941040016000714
:1002A0000009000A000B000D000E000F003300349F
:1002B000003200280000000000E10064001D001B67
:1002C0000006001900050011001000360037003844
:1002D00000E500015152000000E000E300E20000F0
:1002E00000000000002C0000000000E600E7000015
:1002F00000E400500051004F000100010001000126
:1003000000010001000100010001000100010001E5
:1003100000010001000100010001000100010001D5
:1003200000010001000100010001000100010001C5
:1003300000010001000000010001000100010001B6
:1003400000010001000100010001000100010001A5
:100350000001000100000000000100010001000197
:100360000001000100010001000100010001000185
:100370000001000100010000000100010001000077
:10038000000000000001000000000001000100006A
:100390000001000100010001000100010001000155
:1003A0000001000100010001000100010001000145
:1003B0000001000100010001000100010001000135
:1003C0000001000100010001000100010001000125
:1003D0000001000100000001000100010001000116
:1003E0000001000100010001000100010001000105
:1003F00000010001000000000001000100010001F7
:1004000000010001000100010001000100010001E4
:1004100000010001000100000001000100010000D6
:1004200000000000000100000000000100010000C9
:1004300000010001000100010001000100010001B4
:1004400000010001000100010001000100010001A4
:100450000001000100010001000100010001000194
:100460000001000100010001000100010001000184
:100470000001000100000001000100010001000175
:100480000001000100010001000100010001000164
:100490000001000100000000000100010001000156
:1004A0000001000100010001000100010001000144
:1004B0000001000100010000000100010001000036
:1004C0000000000000010000000000010001000029
:1004D0000001000100010001000000000000000018
:1004E000000000000000000000000000007E0F007F
:1004F000D4FFFFFFC70000007800000000000000EC
:10050000002A2B280000000000000000000000006E
:100510000000000029000000002C1E3420212224AD
:10052000342627252E362D3738271E1F202122233B
:100530002425263333362E37381F040506070809CD
:100540000A0B0C0D0E0F1011121314151617181993
:100550001A1B1C1D2F3130232D35040506070809F1
:100560000A0B0C0D0E0F1011121314151617181973
:100570001A1B1C1D2F3130354C32190A00047F3FE5
:100580001F643214643214783C1E1E140A050501DF
:100590000980A101850319012AB700150126B700BA
:1005A000950175108100C0050C0901A10185041990
:1005B000012AA002150126A002950175108100C034
:1005C0000660FF0961A1010962150026FF00952060
:1005D000750881020963150026FF009520750891B2
:1005E00002C005010906A101050719E029E7150068
:1005F000250195087501810295017508810305079C
:10060000190029FF150026FF0095067508810005D1
:100610000819012905950575019102950175039148
:1006200003C00403300000000C034C005A002000FB
:100630005300740000000C034C00650065004B0083
:10064000750000000403090409025B00030100A017
:10065000FA09040000010301010009210101000160
:10066000224000070581030800010904010002037C
:100670000000000921010100022222000705840375
:100680000800010705040308000109040200010332
:100690000000000921010100012232000705830347
:1006A0000800011201100100000008FEFF54410083
:1006B00001010203010011241FBECFE5D8E0DEBF17
:1006C000CDBF04B603FE24C08091650390916603FC
:1006D000A0916703B09168038730904BA740B04B5F
:1006E000B9F410926503109266031092670310929A
:1006F000680314BE84B7877F84BF0FB6F894A895AB
:1007000081B5886181BD11BC0FBEE0E0F8E30995B9
:1007100023E0A2E0B1E001C01D92A536B207E1F7E7
:1007200011E0A0E6B0E0E0E5FCE402C005900D9227
:10073000A230B107D9F70E94FC1D0C94E5250C945A
:100740000000A82FB92F80E090E041E050EA6095CA
:1007500030E009C02D9182279795879510F0842766
:100760009527305EC8F36F5FA8F30895EADF8D9395
:100770009D930895CF93CFB7CF93C395839BE9F70C
:10078000839B0EC0839B0CC0839B0AC0839B08C0C5
:10079000839B06C0C0913F03C395C0933F03A6C08F
:1007A000DF93C0913E03DD27CD5BDC4F839B02C00E
:1007B000DF91E6CF2F930F931F9300B32FEF03FB2F
:1007C00020F94F933F9310B34FEF012703FB21F91B
:1007D0003BE031C04E7F012F10B3216028C0102FA5
:1007E0004D7F2260000000B329C04B7F2460012FA1
:1007F000000010B32BC010B3477F28602AC04F7E83
:1008000000B320612CC04F7D10B320622FC04F7BFE
:1008100000B3206432C0422700B349934FEF000079
:10082000102713FB20F910B31C70C9F1297F91F236
:10083000012703FB21F900B3237F89F2315058F1DE
:10084000102713FB22F910B3277E79F2012703FB4F
:1008500023F92F7C81F200B3102713FB24F92F79A1
:1008600071F200C010B3012703FB25F92F7359F271
:1008700000C000B3102713FB26F9223040F200C05D
:1008800010B3012703FB27F9243028F64F7720689F
:1008900010B30000F9CF10E81ABF00271CC03B506E
:1008A0003195C31BD04010E81ABF0881033C11F1F9
:1008B0000B3401F120913C031981110F1213EDCF7C
:1008C0004A81441F093669F10D3211F0013E29F7C2
:1008D0004F7009F0042F009342033F914F911F91F5
:1008E0000F912F91DF91CAB7C7FD47CFCF91CFBFEF
:1008F000CF91189520914203222379F31091400360
:10090000112309F044C034300AF443C0309340034B
:1009100020933D0310913E033BE0311B30933E0397
:1009200038C000914003013094F50AE54F7049F456
:1009300030917D0034FD2FC000937D00C9E1D3E0EC
:100940002EC0433059F0443091F03091240334FDEF
:1009500022C000932403C5E2D3E021C030915903A3
:1009600034FD19C000935903CAE5D3E018C0309193
:10097000300334FD10C000933003C1E3D3E00FC057
:100980002795A8F45150A9F4220F0000F9CF4AE5A9
:1009900003C042ED01C0432FC4E1D0E032E011B307
:1009A0001C60939A11BB02B320E41CE05F93012703
:1009B00056E002BB279520F4515021F4220FF9CFC5
:1009C000012756E000003B5A02BBD0F2279528F4DD
:1009D000515029F4220F0000F9CF012756E0279546
:1009E00002BB20F4515021F4220FF9CF012756E029
:1009F0002991332302BB21F6037F10914103110F8C
:100A0000C651D04002BB11F010933C0310E81ABF4E
:100A1000086011B3137F402F437F5F9100C000C077
:100A200002BB11BB42BB59CFFC018381833089F1EA
:100A300030F48130F1F0823021F180E0089581328C
:100A400009F446C08232C9F724813581213031054D
:100A500009F45CC02115310509F450C0223031057C
:100A600061F78EE895E09093F4028093F30282E3BD
:100A7000089583EA96E09093F4028093F30282E172
:100A8000089588E496E09093F4028093F3028BE556
:100A900008958281813089F0882339F08230A9F06D
:100AA000833059F682E296E002C084E496E09093A7
:100AB000F4028093F30284E0089586E396E0909335
:100AC000F4028093F3028CE0089588E296E0F7CF79
:100AD0008281813081F0882331F0823009F0ADCFFE
:100AE00083E996E002C08AE596E09093F402809351
:100AF000F30289E0089583E796E0F7CF82EE95E070
:100B00009093F4028093F30280E4089520EC35E0A2
:100B10003093F4022093F30208950895089580918C
:100B2000EE0208959C014FB7F89480915002909185
:100B30005102A0915202B09153024FBF821B930BFE
:100B400008958091D60181111092D6010895809167
:100B5000D5019091D401892B9091D301892B809359
:100B600002019091D601992391F0892B8093020183
:100B700020E084E091E0FC013191CF0131112F5F41
:100B8000F1E08A309F07B9F721110E94A105E09199
:100B90002702F0912802309731F00280F381E02D96
:100BA00082E091E009940895E4E0F1E091918913E5
:100BB00003C0DF0111971C9291E0EA30F907B1F709
:100BC0000895A4E0B1E0EFEF90E02D91821751F08D
:100BD000EF3F19F4211101C0E92F9F5F9630A9F76B
:100BE000EF3F09F408950E2E000CFF0BEE5FFE4F51
:100BF000828308959295907F890F982F977086959C
:100C00008695869525E0829FF0011124E056FE4FDF
:100C100050E040E080E0219130E0092E02C036959E
:100C200027950A94E2F721703327042E01C0220F82
:100C30000A94EAF7822B4F5F5F4F4530510559F711
:100C400008959295907F890F982F977041E001C089
:100C5000440F9A95EAF786958695869595E0899F43
:100C6000F0011124E056FE4F30E020E070E0519199
:100C7000DF011197CB01022E02C0969587950A9449
:100C8000E2F7817081958527842385278C932F5FD8
:100C90003F4F2530310559F7089580919F0190917C
:100CA0006E01981301C008958F5F8770FACF882373
:100CB00041F080959091D50189238093D5010C94C2
:100CC000A7050895882339F09091D501982B90932A
:100CD000D5010C94A7050895209164013091650118
:100CE0002817390771F09093650180936401E091B2
:100CF0002702F0912802309721F00084F185E02D41
:100D000009940895209162013091630128173907F1
:100D100071F09093630180936201E0912702F0915A
:100D20002802309721F00680F781E02D099408957C
:100D30001092D4011092D3010E94A70590E080E0A8
:100D40000E94820690E080E00C946C06609315038C
:100D50007093160380931703909318030C949806CE
:100D60000F931F93609115037091160380911703E1
:100D7000909118038B019C010670112722273327BD
:100D8000063011052105310529F468601F910F9186
:100D90000C94A606677FFACF0F931F9341E050E0B3
:100DA00060E070E004C0440F551F661F771F8A95EE
:100DB000D2F7CB01BA01609570958095909500911E
:100DC0001503109116032091170330911803602327
:100DD0007123822393231F910F910C94A606909167
:100DE000D201809589238093D201282F277071F436
:100DF000282F082E000C330B9217130639F0859517
:100E0000859585950E94CC061092D20108950F9386
:100E10001F9341E050E060E070E004C0440F551FB4
:100E2000661F771F8A95D2F780911503909116035C
:100E3000A0911703B09118038A019B01082B192B6D
:100E40002A2B3B2BC901B8011F910F910C94A606C8
:100E50006093D7017093D8018093D9019093DA0100
:100E60000C949806E0912702F0912802309721F027
:100E70000190F081E02D099480E00895882309F421
:100E800052C0823871F40E94320781FF4CC089E35E
:100E90000E94E1050E94A70589E30E94D4050C94F5
:100EA000A705833859F40E94320780FF3CC083E5D0
:100EB0000E94E1050E94A70583E5EFCF843859F42D
:100EC0000E94320782FF2FC087E40E94E1050E9442
:100ED000A70587E4E2CF9CEF980F913AF0F290E2F9
:100EE000980F983088F4877021E030E0A90102C0A3
:100EF000440F551F8A95E2F7CA0180959091D5015C
:100F000089238093D501CBCF9BE5980F933020F4B4
:100F100090E080E00C948206885A873120F490E0BB
:100F200080E00C946C060895FA01811101C0FB0168
:100F3000099480914B02982F9E7F61F481708260AA
:100F400080934B0280914E02893C18F088EC80938C
:100F50004E0208958635B0F381708465F1CFAF926B
:100F6000BF92DF92EF92FF920F931F93CF93DF9385
:100F7000182F062FE901493C08F048ECE42FF0E077
:100F8000EC5AFF4F011110C0E4915E2F4E2F4983A0
:100F9000E8835A83DF91CF911F910F91FF90EF90DB
:100FA000DF90BF90AF900895202F30E04491D42E71
:100FB000E42EF12C56E0159FC0011124EFEFF0E074
:100FC000BF010E948124812F90E0880F991F55E571
:100FD000569FD001579FB00D11248A1B9B0B982F51
:100FE000990F890F5F01A21AB30AAE9CD001AF9C82
:100FF000B00DBE9CB00D11245B2F089F8001112401
:10100000012F11275F01A01AB10AAE9C8001AF9C8D
:10101000100DBE9C100D11245F01A81AB108A29EEC
:10102000C001A39E900DB29E900D1124892F992787
:10103000E81BF90BEE9DC001EF9D900DFE9D900DFC
:101040001124E92F62307105A1F050F4611571058A
:1010500009F49DCF6130710581F0EB2F512F97CFAF
:101060006430710569F080F06630710509F48FCF46
:10107000F4CFE42F4B2F592F8ACFE42F412F87CF66
:10108000EB2F542F492F83CF4B2F5D2DE12F7FCF97
:101090009091330292FF06C0282F28712830F9F46E
:1010A000877F846093FF06C0282F28712831F1F4D0
:1010B000877E84612091340220FF06C0382F38716A
:1010C0003830D9F4877F816021FF06C0282F28712E
:1010D0002831D1F4877E816194FD877E0895282F81
:1010E00024712430F9F68B7F8860DCCF282F24719F
:1010F000243101F78B7E8861DDCF382F317131309B
:1011000019F78E7F8860E0CF282F2171213121F7D8
:101110008E7E8861E1CFCF93DF938091400383502F
:1011200087FD14C090913E03CCE0D0E0C91BD109EB
:10113000CD5BDC4F90913D03903108F06BC088305F
:1011400009F453C01092E3021092400380917D0095
:1011500084FF3EC080917C008F3FD1F1C82F893041
:1011600008F0C8E0982F9C1B90937C009091190385
:1011700028E89227909319038823E9F08091F302DD
:101180009091F4022091F20226FF06C1FC012C2F5F
:10119000AAE1B3E034913D9331962150D9F79C01F7
:1011A0002F5F3F4F8FEF8C0F820F932F911D9093E6
:1011B000F4028093F3026C2F8AE193E00E94B6035D
:1011C000CC5FCC3019F08FEF80937C00C0937D0012
:1011D00084E190B39C7031F48150D9F710924103AF
:1011E00010923C03DF91CF9108958091E302893101
:1011F00008F0A8CFE82FF0E0EB50FD4F9E01285FEC
:101200003F4F999191932C173D07D9F7885F8093B1
:10121000E3029ACF9D3209F0A3C0883009F094CF41
:1012200083EC809319038AE580937D001092F2028B
:101230008881807609F447C0803229F58981813020
:1012400099F48C819D81892BF1F485EE92E0909345
:10125000F4028093F30288E09F81911131C09E8156
:10126000981770F5892F2CC0823041F484EE92E0FB
:101270009093F4028093F30281E0EECF8A3029F458
:101280008B818093E40280E0E7CF8930E1F78A81A7
:101290009B818115924069F48C819D81892B49F451
:1012A00081E08093F1028E819F819093F002809380
:1012B000EF02888187FF52C08E8190E89093F202FE
:1012C00080937C0041CF2A81109222039981911151
:1012D0000AC01092230322E233E082E03093F4024A
:1012E0002093F302B9CF953029F42093410322E2F1
:1012F00033E0F4CF9630C1F49B81913049F4CE01B4
:101300000E94140590E49093F2028F3F91F2A4CFD3
:101310009230A9F3933099F3913289F3923279F3B1
:1013200090E49093F20298CF983089F0993019F4B4
:101330002093ED02DCCF9A3071F09B30C1F69BE434
:101340009093250390935A0390933103D0CF2DEEC1
:1013500032E081E0C3CF22E233E0FBCF8FEFADCFAD
:101360008091F20287FFF0CE8091EF029091F0021F
:10137000892B71F08091F102813051F48881809342
:10138000EE021092F0021092EF0210927C00DCCE7E
:101390008EE180937D00D8CEDC012C2FEAE1F3E0D2
:1013A0003D9131932150E1F7FACE1F93CF93DF9314
:1013B000E82F792F162FEA01888184FF1CC029812C
:1013C00088E828272983CE010296DC012E2F372FAB
:1013D000512F5E0FF90121912D939F01452F4E1B37
:1013E0001416C4F3612F0E94B6031C5F1883DF91AB
:1013F000CF911F9108958AE58883E5CFCF93DF933E
:10140000C5EFD2E08091300384FF18C040E353E081
:1014100068E0CE010E94D509289683E0C531D8073F
:1014200089F78091300384FF0CC040E353E060E013
:1014300090E080E0DF91CF910C94D5090E948B0859
:10144000E1CF0E948B08EDCFCF93DF9300D00F92B6
:10145000CDB7DEB79091E202981307C02091E00269
:101460003091E10226173707A1F08093E2027093D2
:10147000E1026093E00289837B836A838091590350
:1014800084FF07C049E553E063E0CE0101960E9466
:10149000D5090F900F900F90DF91CF910895BC0167
:1014A00084E00C94240ABC0183E00C94240ACF93BA
:1014B000DF93CAE0D0E08091240384FF1CC08091B8
:1014C000DE029091DF02981799F028E0829FC00118
:1014D000112444E253E068E0825A9D4F0E94D509EE
:1014E0008091DE0290E001968F7099278093DE0252
:1014F000DF91CF9108950E948B0887EB9BE00197C5
:10150000F1F700C000002197B1F6F2CFCF93DF933F
:10151000EC01A091DF02B0E0CD0101968F70992718
:101520002091DE02281779F093E0AA0FBB1F9A954D
:10153000E1F7A25ABD4F98E0FE0101900D929A95F5
:10154000E1F78093DF020E948B080E94570A88E02F
:10155000FE01A5EEB2E001900D928A95E1F7DF91D0
:10156000CF910895CF93C82F882309F488C082387B
:10157000C1F40E94320781FD82C089E30E94E10527
:101580000E94A7052FE789EA93E021508040904010
:10159000E1F700C0000089E30E94D405CF910C94CC
:1015A000A7058338A1F40E94320780FD68C083E557
:1015B0000E94E1050E94A7052FE789EA93E02150E8
:1015C00080409040E1F700C0000083E5E5CF84381B
:1015D000A1F40E94320782FD52C087E40E94E10517
:1015E0000E94A7052FE789EA93E0215080409040B0
:1015F000E1F700C0000087E4CFCF8CEF8C0F813A79
:1016000068F4E4E0F1E08191C81799F121E0EA3053
:10161000F207C9F78C2F0E94E105C0CF80E28C0F42
:10162000883068F4C77021E030E001C0220FCA950D
:10163000EAF78091D501822B8093D501AFCFEBE5FE
:10164000EC0FE33040F4F0E0E454FF4F808190E091
:10165000CF910C948206C85AC73188F4EC2FF0E081
:10166000EE0FFF1FE154FF4F80819181CF910C94C9
:101670006C068C2F0E94D4050E94A705CBCFCF917A
:101680000895CF93C82F0E94B20AC93349F42FEFAF
:101690008DEE92E0215080409040E1F700C00000C4
:1016A0008C2FCF910C943E07CF9384E090E00E9462
:1016B0002E25C82F81E290E00E942E25982F8C2F96
:1016C000CF9108950F931F93CF93DF9320E2629FF2
:1016D000E001112450E0440F551FC40FD51F30EA1C
:1016E000839FC00DD11D1124CE0186960E942E2508
:1016F000082F10E0102F0027CE0187960E942E257C
:101700009801282BC901DF91CF911F910F91089566
:10171000462F843038F4753028F4603118F4672F80
:101720000C94620B90E080E00895CF93DF930E94C9
:10173000880BEC0182389105A9F1D8F58133910528
:1017400009F496C048F58932910509F48AC08A9750
:1017500009F495C0C11522E5D20708F0B6C0C1153D
:1017600031E5D30708F026C1C83ED10508F09CC07A
:10177000C03ED10560F5C83AD10508F087C0C53A2A
:10178000D10508F0EFC0C130D10509F12097F9F07B
:10179000C430D105E0F440C08533910509F45AC046
:1017A000C997C1F680913302837089F0C0EED0E012
:1017B0000EC0833E910599F170F4803E910501F1D0
:1017C000823E910539F68091330282FD21C0CE011F
:1017D000DF91CF910895863E910561F1873E910595
:1017E00071F1843E910509F0B5CF8091340281FFFB
:1017F000EECF80913302C7EED0E084FD0DC0E7CF7D
:101800008091330280FD07C19091340290FFDFCFB9
:10181000C3EED0E084FFDBCFD0E0C0E0D8CF809132
:10182000330282FDFBC09091340290FDBFCF84FF54
:10183000CECFF2CF8091330283FDDDCFC8CF809130
:10184000330283FDEEC09091340291FFF0CFC4EEDD
:10185000D0E0BDCF8091330285FFB9CFC9E2D0E09F
:10186000B6CF8091330285FFB2CFC5E3D0E0AFCFD2
:101870008091330286FFABCFCAE2D0E0A8CF80913F
:10188000330286FFA4CFC1E3D0E0A1CFCF3BD10587
:1018900018F6C85AD0E0CC0FDD1FC154DF4F0990B5
:1018A000D881C02DD46493CFC11540E5D40708F08A
:1018B00064C0C11580E4D80708F05CC0CE019A95D9
:1018C00081159F4108F483CFA7CFC11536E5D30713
:1018D00018F5C11545E5D40708F084C0C11584E5A5
:1018E000D80708F07AC09C2F969596959E01237094
:1018F0003327C115D34508F462C0C1E0D0E002C06F
:10190000CC0FDD1F2A95E2F730E2939FC00111242E
:10191000C82BD92BDA685BCFC1158AE5D80778F4D4
:10192000C11599E5D90708F068C0C11528E5D207A7
:1019300008F472CFDC2FCC27C06FD06A48CFCE011D
:1019400090568115904208F067CF8D2F8F710E94BD
:10195000480890E0982F882788279F719C012C2B9E
:10196000E90149C0C55AD0E0C454DF4FC881D0E076
:10197000D0642DCFDF70D06A2ACFCE01E4E09695F7
:101980008795EA95E1F783702C2F2695269523708D
:1019900040E2249F90011124382B8C2F8370C1E0EA
:1019A000D0E002C0CC0FDD1F8A95E2F7C22BD32B0B
:1019B000DC680DCFDC2FCC27C16FD06A08CFC1E027
:1019C000D0E002C0CC0FDD1F2A95E2F720E2929F03
:1019D000C0011124C82BD92BEBCFDC2FCC27C46F2F
:1019E000D06AF5CE8C2F0E944808C82FD0E0DC2F9B
:1019F000CC27CC27DF71D062EACE8C2F8F700E946B
:101A0000480834E0D695C7953A95E1F7CF709C2FFA
:101A1000EC01D069DCCEC9E3D0E0D9CEC2EED0E093
:101A2000D6CEC6EED0E0D3CEBF92CF92DF92EF9269
:101A3000FF920F931F93CF93DF938C01C0901503F8
:101A4000D0901603E0901703F09018038091D7010F
:101A50009091D801A091D901B091DA01C82AD92A70
:101A6000EA2AFB2ACFE1D0E0BC2ED701C6010C2E1A
:101A700004C0B695A795979587950A94D2F780FDEF
:101A80000EC0219788F7B12C8B2DDF91CF911F913C
:101A90000F91FF90EF90DF90CF90BF900895B80125
:101AA0008C2F0E94950B019761F3EECFCF93DF93BC
:101AB000EC010E94140DBE01DF91CF910C94950BA7
:101AC0000E94560D292F2F7092959F7092509E3034
:101AD00078F4E92FF0E0E951FA4D0C94A924803F05
:101AE00019F020F4883E20F481E00895843FE1F36A
:101AF00080E00895883EC0F3813FD1F7F5CF822F73
:101B000086958695869508956F927F928F929F9283
:101B1000AF92BF92CF92DF92EF92FF920F931F93FB
:101B2000CF93DF9389E5C82E82E0D82E06EE10E031
:101B3000E801C05AD10936011CC0F5018590949086
:101B4000692DC7010E944225682DC70101960E9498
:101B5000422582E0A80EB11C82E0E80EF11CCE15F1
:101B6000DF0559F780E2680E711CA0960C171D075F
:101B700031F07E0180E2E81AF1085301DECF005611
:101B80001F4F80EAC80ED11C063683E0180781F685
:101B9000DF91CF911F910F91FF90EF90DF90CF9049
:101BA000BF90AF909F908F907F906F900895682F17
:101BB00086E090E00C944225CF93DF93C6EAD2E012
:101BC00060E0CE010E9442252196C11584E0D8072D
:101BD000B9F7DF91CF910895CF93C82F6FEF81119F
:101BE00061E282E290E00E9442256FEFC11162E063
:101BF00083E290E00E9442256FEFC11166E184E22A
:101C000090E0CF910C94422593E09093DB01909368
:101C1000DC01982F917080FD94E081FD926082FD3F
:101C200091609093DD0124E630E043E050E06BEDFD
:101C300071E080EB0E944124892B81F087E99AE3CF
:101C40000197F1F700C000004091DC0150E024E66C
:101C500030E06BED71E080EB0E94412481E008955B
:101C600098E29093DB0194E09093DC019FEF9093D6
:101C7000DD018093DE0124E630E044E050E06BEDCE
:101C800071E080EB0E944124892B81F087E99AE37F
:101C90000197F1F700C000004091DC0150E024E61C
:101CA00030E06BED71E080EB0C9441240895282F17
:101CB000220F220F220F909148029770922B90933F
:101CC0004802987F21E009F420E09091480220FB2F
:101CD00090F9909348020C94300E60E081E090E01F
:101CE0000E94652587E090EBDC018093650390936B
:101CF0006603A0936703B093680388E19CE00FB686
:101D0000F894A89581BD0FBE91BDFFCF90E080E013
:101D10000E943C2521E08C3E9E4F09F020E0822F5E
:101D200008956CEE7EEF90E080E00E945F2560E019
:101D300082E090E00E94422560E083E090E00E9413
:101D400042251092D7011092D8011092D901109219
:101D5000DA0160E084E090E00E94422560E081E2E8
:101D600090E00E94422560E085E090E00E944225DC
:101D700060E086E090E00E9442256FEF87E090E00F
:101D80000E94422540E050E0BA0188E090E00E94C5
:101D9000532560E08DE090E00E94422540E050E055
:101DA000BA0188E190E00E94532560E087E190E06D
:101DB0000E94422540E050E0BA018CE190E00E9490
:101DC000532560E080E290E00E94422540E050E030
:101DD000BA018FE090E00E94532540E050E0BA0144
:101DE00083E190E00C945325CF92DF92EF92FF9223
:101DF0006B017C010E949907B701A60188E090E081
:101E0000FF90EF90DF90CF900C94532580914F027C
:101E1000882319F0815080934F0260914B0270919A
:101E20004C0280914D0290914E020C94F40E8091E0
:101E30004F02833018F48F5F80934F0260914B0202
:101E400070914C0280914D0290914E020C94F40ED0
:101E5000EBE4F2E083E0808311828FEF828388ECF1
:101E60008383148260817181828193810C94F40E4A
:101E70001092D501E4E0F1E086E0DF011D928A9541
:101E8000E9F70C94980680914B0280FD0AC0E0E1CE
:101E9000F1E0118210821282339681E0EE32F8076F
:101EA000C1F787E18093DB0182E28093DC018AE065
:101EB0008093DD011092DE018EE1E0E1F1E0AFED13
:101EC000B1E001900D928A95E1F724E630E042E21C
:101ED00050E06BED71E080EB0C9441248F929F9267
:101EE000AF92BF92CF92DF92EF92FF920F931F9328
:101EF000CF93DF93FC01B280948081E08483CEE2B3
:101F0000D1E000E111E08BE4A82E88248394EE2434
:101F1000EA94F12C2BE4C22ED12C91101DC01B820F
:101F20001A8298014A81698188810E94AF072596AB
:101F30000D5F1F4F81E0C036D80779F7DF91CF9151
:101F40001F910F91FF90EF90DF90CF90BF90AF90D7
:101F50009F908F900C94430F2B81222309F12150E5
:101F60002B833C818A2D821B311101C0822F9091DD
:101F70004E02899FC0011124B6010E9481246A8308
:101F8000211104C0332311F01C82AB8222E02B15F7
:101F900040F280914C02888380914D028983C1CFA9
:101FA0000E941125823091400CF0BBCF82E08B154E
:101FB000C0F40E941125B7010E949524888322E075
:101FC0002B1590F40E94112520914D022695622F29
:101FD00070E00E949524280F29831A82AB828C829C
:101FE000A0CF80914C02EACF20914D02F5CFEF9225
:101FF000FF921F93CF93DF93EC0180E1E82E81E005
:10200000F82E10E08C81970140914E0260914D02B4
:10201000810F0E94AF07175E83E0E80EF11C1A3FA4
:1020200089F70E94430F9A818C8190FF08C08F5FCF
:102030008C83DF91CF911F91FF90EF900895815095
:10204000F7CFBF92CF92DF92EF92FF920F931F9341
:10205000CF93DF93FC018281DD24DA9480FD02C0FE
:10206000DD24D39400E111E0D0E0C0E02AE0B22EFC
:10207000F80111821082128294E0E92EF12CC12C19
:1020800080910D018C0D8B300CF43DC06B2D0E94A6
:102090007324892F082E000C990B8C179D0791F43F
:1020A00080914E028E9DA0018F9D500D112455955B
:1020B000479555954795980160914D0280914C0246
:1020C0000E94AF07CD0CF1E0EF1AF108C9F6219696
:1020D0000D5F1F4FCA30D10559F60E94430F809102
:1020E0000D0191E0D91215C0811111C089E08093D2
:1020F0000D01DF91CF911F910F91FF90EF90DF9035
:10210000CF90BF90089587FFC5CF865FC3CF815022
:10211000EECF90E00196BE010E949524E8CF0F9388
:102120001F93CF93DF93C0E1D1E0FE0111821082B3
:102130001282339681E0EE32F807C1F710E000E03A
:1021400080910E01082E000C990B081719078CF1CD
:1021500080917000082E000C990B801791074CF1AC
:102160009E0140914E0260914D0280914C020E946E
:10217000AF070F5F1F4F23960A30110509F70E9422
:10218000430F80916F0090910E01980F90930E0174
:1021900020917000280F20937000121614F49930CB
:1021A0001CF0819580936F00DF91CF911F910F916B
:1021B0000895198218821A82DCCF8F929F92AF9273
:1021C000BF92CF92DF92EF92FF920F931F93CF9324
:1021D000DF93EC014C81042F10E09801D8010E949C
:1021E000D6259B01AC010E94A1254B015C01E0E2D8
:1021F000F0E0E01BF10BA5E5B0E0AC019B010E9413
:10220000A1256B017C019F01DF010E94B6249B0187
:10221000AC010E94AC259B01AC01280D391D4A1D63
:102220005B1DC701B6010E94B425F22E822F90E0FB
:1022300039E23F15D8F143E0249F900111243595F0
:102240002795122F109590E1C92E91E0D92E00E02C
:1022500085E5E82EEF188E2D01FD8F2D9601412F7B
:1022600060914D020E94AF070F5F53E0C50ED11C75
:102270000A3089F70E94430F9C8181E0992319F06D
:10228000903219F48FEF8093710080917100890F63
:102290008C83DF91CF911F910F91FF90EF90DF9092
:1022A000CF90BF90AF909F908F90089525E530E03C
:1022B000A901481B590BCA019A01220F331F280F8D
:1022C000391F37FFBCCF2F5F3F4FB9CFEF92FF923F
:1022D0000F931F93CF93DF938C01C0E1D1E0F12CDA
:1022E000E12CF801948160914D0280914C02F5E05F
:1022F000EF16F104FCF49923F9F09E0140914E028F
:102300000E94AF072FEFE21AF20A23968AE0E8163E
:10231000F10439F70E94430FF801848190E001969F
:10232000817099278483DF91CF911F910F91FF9046
:10233000EF900895992309F39E0140E0E1CF909139
:102340004B0290FF0CC0E0E1F1E0818360834283A7
:10235000339691E0EE32F907C1F70C94430F0895DC
:102360000F931F93CF93DF9300D00F92CDB7DEB7BB
:102370008C0180910F0181110AC09E012F5F3F4F98
:1023800048EC6FEF0E94AF078A8180930F01F8013C
:102390006481613069F080910F0140E0662361F053
:1023A00040E0623011F440910F0180E060E004C031
:1023B00060910F0140E080E00E949F11F80184814C
:1023C00090E0019663E070E00E94952484830F9072
:1023D0000F900F90DF91CF911F910F910895CF93A0
:1023E000DF9300D00F92CDB7DEB790914B0290FFF4
:1023F0000AC09E012F5F3F4F0E94AF074B8169814A
:102400008A810E949F110F900F900F90DF91CF91C2
:102410000895CF93DF93EC01EC81F0E0E75AFE4F93
:102420004491EBE4F2E0628181810E94EF118C81A2
:102430008F5F8C83DF91CF910895CF93DF93EC0171
:10244000EBE4F2E0438162818C810E94EF118C8188
:102450008F5F8C83DF91CF9108955F926F927F920F
:102460008F929F92AF92BF92CF92DF92EF92FF92A4
:102470000F931F93CF93DF9300D00F92CDB7DEB7AA
:10248000182F762E042F622E90914B0290FF29C0B8
:10249000E92FE695AE2FB0E0AF56BF4F8C918093F9
:1024A00049029E7F923081F59E012F5F3F4F812F21
:1024B0000E94AF074B8169818A810E949F1110930E
:1024C0004C0270924D0200934E02662051F06091D2
:1024D0004B0270914C0280914D0290914E020E94ED
:1024E000F40E0F900F900F90DF91CF911F910F91ED
:1024F000FF90EF90DF90CF90BF90AF909F908F9024
:102500007F906F905F900895823019F400914E0291
:10251000D6CF863019F410914C02D1CF8930D9F33F
:10252000893169F6E9518E2F8170582EE695F0E0D9
:10253000EC5AFE4FA590B490BB2480E1E82E81E0D8
:10254000F82ED12CC12C9AE0892E912CC601B40111
:102550000E948124812F511013C0860F9701402FB4
:10256000672D0E94AF07CA0CDB1C83E0E80EF11C4C
:102570008EE2E81681E0F80649F70E94430F9FCFEC
:10258000861BECCFEBE4F2E0438121E1421B08F42F
:1025900040E021E0628181810C942D12EBE4F2E0B5
:1025A000438121E1420F08F44FEF21E062818181F4
:1025B0000C942D12EBE4F2E0628121E1621B08F43D
:1025C00060E021E0438181810C942D12EBE4F2E084
:1025D000628121E1620F08F46FEF21E04381818184
:1025E0000C942D12EBE4F2E0818121E043816281C1
:1025F0008A500C942D12EBE4F2E0818121E04381BA
:102600006281865F0C942D1278941F921FB61F92E0
:1026100011248F939F93AF93BF9380915002909119
:102620005102A0915202B09153020196A11DB11D19
:102630008093500290935102A0935202B0935302A0
:10264000BF91AF919F918F911F901FBE1F901895C2
:102650002FB7F8948091500290915102A0915202AC
:10266000B09153022FBF08950F931F93CF93DF9321
:10267000C42FD22FFC0182818823A1F040936601F0
:102680000E9428139093610180936001C77081E0DC
:1026900001C0880FCA95EAF7DF91CF911F910F9182
:1026A0000C94620610916601141335C0809160018C
:1026B000909161010E949205883C910560F5C0E20D
:1026C000CD0F1D17B9F080E2810F883040F41770EC
:1026D00081E001C0880F1A95EAF70E945706C830BA
:1026E00048F481E09D2F977001C0880F9A95EAF712
:1026F0000E946206802F0E94410BC83098F4D77068
:1027000081E001C0880FDA95EAF7DF91CF911F9140
:102710000F910C945706C77081E001C0880FCA95CD
:10272000EAF7F3CFDF91CF911F910F910895909128
:102730004B0290FF3DC09170811129C0926090932F
:102740004B02662351F060914B0270914C028091D4
:102750004D0290914E020E94F40E60914B026695DC
:1027600070E04BE050E084E690E00E942125892B48
:10277000A9F010924A0281E08093390220E0409152
:102780004E0260914D0280914C020C942D128B32BE
:1027900010F09465D4CF880F982BD1CF81E080932F
:1027A0004A020E9428139093370280933602E3CFA7
:1027B000089580914B028695815009F48AE261E088
:1027C0000C94971380914B0286958F5F8B3208F0A3
:1027D00081E061E00C94971390914B0290FF07C049
:1027E0009695981720F0961710F40C94E21361E078
:1027F0000C9497134F925F926F927F928F929F9259
:10280000AF92BF92CF92DF92EF92FF920F931F93FE
:10281000CF93DF9300D000D00F92CDB7DEB77C010D
:10282000FC0183819481892B31F0808191818923FE
:102830008F3F09F067C60F900F900F900F900F9089
:10284000DF91CF911F910F91FF90EF90DF90CF908C
:10285000BF90AF909F908F907F906F905F904F90C0
:1028600008950E94140D182F682F89819A810E9463
:10287000210669817A81812F0E94880B8C01F701E2
:102880009281992309F417C6980122513F452031BE
:10289000310508F095C58FEF93E00E942E25025177
:1028A00056EA852E52E0952E882379F18091D20147
:1028B000877009F4C0CFF7018281882309F4BBCF68
:1028C00082E00F900F900F900F900F90DF91CF91BB
:1028D0001F910F91FF90EF90DF90CF90BF90AF903E
:1028E0009F908F907F906F905F904F900C94EF0629
:1028F0008114F4E09F06D1F2C4010E942E258111BB
:1029000001C001502FEF821A920A0111F1CF1C82EF
:102910001B82662463944AE0542E84010F5F1F4F8C
:10292000C4010E942E2589831A82882309F4BECF10
:102930009FEF980F933008F58A83698232E0830E07
:10294000911CC8010E942E258B83882309F4AECFE9
:102950008E010F5F1F4FF80120812223F1F22130F9
:1029600009F043C091818281913049F40E5F1F4F7D
:102970000E94410B0F5F1F4FEECF4801E9CF92300D
:1029800029F40E5F1F4F0E94B20AF4CF933029F44E
:102990000E5F1F4F0E943E07EDCF943019F00F5F7E
:1029A0001F4FE8CF0E5F1F4F30E020E0B8016F5F90
:1029B0007F4FF80141818053990B8A30910550F087
:1029C00021503109B8F287EB9BE00197F1F700C085
:1029D0000000F6CF529EF001539EF00D11249C0191
:1029E0002E0F3F1F842F8B01E1CFE22FF0E0E75045
:1029F000FB4F7490822F86958695869590E0FC011A
:102A0000E751FB4FA4902770B12C022E02C0B59461
:102A1000A7940A94E2F7E1E0AE22BB24FC01E7525E
:102A2000FB4FC490D12C02C0D594C7942A95E2F7ED
:102A3000F1E0CF22DD24A114B10419F081EE0E944F
:102A4000B20AC114D10419F086EE0E94B20A872D91
:102A50000E94410BCD2819F086EE0E943E07AB285C
:102A600009F488CF81EE96CF81E00E9407070E948B
:102A7000B0061CCF81E00E94CC06F9CF82E0F5CFF2
:102A800082E0F9CF0F3BFCE51F0709F442C098F143
:102A9000003C3CE5130709F0AFC490914802892F30
:102AA0008695869586958F5F8F719770823008F036
:102AB00051C0880F880F880F892B8093480280911E
:102AC000480210C081E00E94570E809148020E9487
:102AD000D70DECCE80914802982F987FA9F18850AD
:102AE00080934802887F91E009F490E08091480249
:102AF00090FB80F90BC080914802982F987F19F4C1
:102B0000885F8093480280914802816080934802E8
:102B100019C08091480280FF09C08E7F80934802CF
:102B20000E94D70D80E00E94300EC0CE80FDBECE48
:102B3000816080934802813019F489E080934802D3
:102B4000809148020E94D70D809148028695869513
:102B50008695E9CF90934802B2CF07E225EE45EE85
:102B600068ED7CE5CBC406E221EE40EE63EF7CE548
:102B7000C5C407E225EE44EE64EF7CE5BFC406E27F
:102B800021EE42EE65EF7CE5B9C408E221E045EEB6
:102B900069ED7CE5B3C480913302806106303CE589
:102BA000130709F47FC008F484C080913302806267
:102BB00079C0809133028D7F0C309CE5190709F4B0
:102BC00071C070F4809133028C600A30FCE51F07FD
:102BD00009F468C008F479C0809133028E7F62C026
:102BE00080913302877F0E303CE5130709F45AC009
:102BF00008F471C0809133028F7E54C00B3F9CE576
:102C0000190709F45AC030F50331FCE51F0709F430
:102C100072C078F401313CE5130709F468C0023151
:102C20001C4509F038C40E94380F809133028F7719
:102C300039C005319CE5190709F465C008F479C06D
:102C40008091340281600A3F1C4509F024C48093BE
:102C5000340221C40F3F2CE5120709F450C070F470
:102C60000D3F8CE51807D9F1809134028E7F0E3F1D
:102C70001C4568F3809134028360E9CF0130EDE5B3
:102C80001E0709F45FC008F44AC060E002301D4529
:102C900009F001C48EE090E00E944225FCC38091BF
:102CA0003302816080933302F6C3809133028460E3
:102CB000F9CF809133028860F5CF80913402826031
:102CC000C6CF809133028064EDCF0E94380F80918F
:102CD00033028068E7CF809133028B7FE3CF80910E
:102CE00034028D7FB4CF809133028F7DDBCF809112
:102CF00033028F7BD7CF80913302837FD3CF8091F4
:102D000034028C7FA4CF8091330282FB992790F903
:102D100021E0922790FB82F990FB83F9C3CF809149
:102D20003402982F909591708E7F892B90FB81F9BA
:102D30008ECF0E94380F90913302892F97FB87F92D
:102D40008058B0CF61E0A6CF8091D50106313CE537
:102D5000130709F0E8C38A7A91E009F490E09093B0
:102D60006701811106C089E20E94E1050E94A70562
:102D70009DCD85E3F9CF85E3F6C380914B0280FFBB
:102D80001BC08E7F80934B0260914B0270914C026E
:102D900080914D0290914E020E94F40E10924A02D0
:102DA0008FEB94EDE1E081509040E040E1F700C00E
:102DB00000000E94430F7ACD816080934B0261E056
:102DC00086950E94971372CD49ED53E162EE73E14F
:102DD0000E9494076BCD42EE53E169ED73E1F8CFA9
:102DE00042EF52E16BEF72E1F3CF4BEF52E162EF52
:102DF00072E1EECF4AED52E166EE72E1E9CF46EEC6
:102E000052E16AED72E1E4CF42EC52E16EEC72E124
:102E1000DFCF4EEC52E162EC72E1DACF46E05FE0E8
:102E200067E17FE0D5CF47E15FE066E07FE0D0CFAC
:102E300061E081E0C6CF65E082E00E94EC1336CD10
:102E400068E086E0FACF6EE089E0F7CF64E18FE0DA
:102E5000F4CF67E185E1F1CF61E088E1B2CF62E2D2
:102E600089E1EBCF61E083E2ACCF0115FCE51F0700
:102E700009F447C00E3D1C4509F450C0F70100811C
:102E80001181992309F44DC0C8010E94140DD82E58
:102E9000682FC8010E942106B8018D2D0E94950B54
:102EA0008C01882EF701A580A2943FE0A322D28056
:102EB000D1101092D4018091D201877099F0DD2059
:102EC00089F0812F807F803421F080E2800F88306C
:102ED00048F082E00E94EF068091D2018770CC24F6
:102EE000C3948111C12CB12EB2942FE0B222FBE029
:102EF000FB1508F450C0EB2DF0E0EB50FA4D0C94AC
:102F0000A9240E94380F3FEB87E299E031508040BE
:102F10009040E1F700C000000E946D0E0E94910EEB
:102F2000C5CCC8010E94FA05D82EB6CF212F2F702C
:102F3000A22E107F19F0A29490EFA922DD20C9F0F3
:102F4000AA2069F080E2800F883010F081100BC059
:102F50008091D501A82AA092D5010E94A705802FB3
:102F60000E94B20A18C08091D401A82AA092D4016C
:102F7000F4CF802F0E943E07AA2069F0A094005E43
:102F8000083010F081103DC08091D501A822A09298
:102F9000D5010E94A705EB2DE850FF0B349720F4D4
:102FA0000E9432070E94040ECC2009F444CC809188
:102FB000D20180FD40CCF7011282859585958595DB
:102FC0000E940707C7010E94FA138091D2018595DC
:102FD000859585950F900F900F900F900F90DF9132
:102FE000CF911F910F91FF90EF90DF90CF90BF9006
:102FF000AF909F908F907F906F905F904F900C94C8
:10300000CC068091D401A822A092D401C2CF312F46
:103010003F70932E107F103219F0929480EF982217
:10302000882071F081E0881661F1DD20B9F1AA20D5
:1030300071F1F701858180FF92CF8F70858327C062
:10304000DD2091F09091D601892D892BA11003C02C
:103050000E946206A0CFE1E0AE12FACF981709F401
:103060009ACF8093D60197CFA11006C00E94A105E8
:10307000892D0E9457068FCFF1E0AF1609F48BCF50
:10308000F5CFDD2031F025E02A1508F484CF892D15
:10309000DFCF34E03A1508F47ECFEACFAA2041F31F
:1030A000F9E38F1286C12FEF3DEE82E021503040D0
:1030B0008040E1F700C000007CC1812F8695869595
:1030C000837061F0813009F066CFC8019370D11030
:1030D00002C090E080E00E946C065DCFC801937052
:1030E000D11002C090E080E00E94820654CF812F70
:1030F000837009F066C0D1104ECF802F82958695DF
:103100008770880F880F602F6F70462E512C712C9E
:10311000612C082E04C0440C551C661C771C0A94B4
:10312000D2F740E050E0BA0104FF0FC04FE050E09A
:1031300060E070E004C0440F551F661F771F8A953A
:10314000D2F74095509560957095812F869586951C
:103150008370823019F1D8F40091D7011091D80111
:103160002091D9013091DA01813069F04429552943
:1031700066297729CB01BA01602371238223932327
:103180000E94280708CF402A512A622A732ACB01BD
:10319000BA016429752986299729F2CF442955292E
:1031A000662977290091D7011091D8012091D90182
:1031B0003091DA01CB01BA0160277127822793276A
:1031C000DFCF8695DD2011F0812F8170882309F4EF
:1031D000E2CE802F829586958770880F880F602FAA
:1031E0006F70462E512C712C612C082E04C0440C9B
:1031F000551C661C771C0A94D2F740E050E0BA01D7
:1032000004FF0FC04FE050E060E070E004C0440FE6
:10321000551F661F771F8A95D2F740955095609588
:103220007095812F869586958370823019F1D8F438
:103230000091150310911603209117033091180384
:10324000813069F04429552966297729CB01BA01D3
:1032500060237123822393230E94A6069CCE402ADA
:10326000512A622A732ACB01BA0164297529862959
:103270009729F2CF4429552966297729009115030A
:10328000109116032091170330911803CB01BA0156
:103290006027712782279327DFCF1F70DD2029F059
:1032A000812F0E940707802FD3CE802F0E945706C0
:1032B000812F0E94CC066FCE802F92EF891609F4E1
:1032C00050C0981578F0E0EF8E1619F1F1EF8F16D7
:1032D00009F43FC0DD2009F467C0A11040CE812F62
:1032E0008F713CC023EF821609F440C034EF831283
:1032F000F1CFDD2009F44DC01F71812F0E94070717
:10330000E8E01E9FC001112483608093D201812FC9
:1033100025C0DD20C9F084E08A1508F43CCE1F7179
:1033200061E070E080E090E004C0660F771F881FC6
:10333000991F1A95D2F70091150310911603209149
:10334000170330911803A4CF95E09A1508F423CE03
:10335000E6CF812F8F71DD2009F4ABCF0E940707E4
:103360001ACE812F8F71DD20C9F3A3CF60E070E00A
:10337000CB01DD2009F470CF1F7161E070E080E0C7
:1033800090E004C0660F771F881F991F1A95D2F727
:1033900063CF81E00E94EF06F1E0FA1508F0FBCD63
:1033A00082E00E94EF06F7CDAA2039F0893309F4B4
:1033B0007ACE802F0E943E07EECD812F8F7179CF7C
:1033C0000031FFE51F0709F44FCB01312FE512074C
:1033D00009F454CB0D3B2CE5120709F47BCB08F024
:1033E00051CB0B3B8CE5180709F46CCB80E00C3B10
:1033F000ECE51E0709F467CB033FECE51E0709F473
:10340000B2CB08F0B3C0083D2CE5120709F4A5CBF8
:10341000093D3CE5130709F4B8CB073D8CE51807D7
:1034200009F467C01092660102308CE5180708F4B1
:103430008BCC0631ECE51E0738F098012A5F3C453D
:103440002930310508F080CC0E94540B909334024F
:10345000809333020031FCE51F0709F444CC08F0E7
:10346000CDCB08303CE5130709F42BCC08F0A1CBF9
:1034700004309CE5190709F418CC08F08CCB023015
:10348000FCE51F0709F40BCC809133028260033006
:103490001C4509F407CC609133021091340284E09A
:1034A00090E00E944225612F81E290E00E94422537
:1034B0000E94380FFBC900313FE5130709F4DACA4F
:1034C00001318FE5180709F4DBCA033F2CE5120729
:1034D00009F449CBA0F5083D8CE5180709F43DCB6C
:1034E000093DECE51E0709F450CB073DFCE51F073D
:1034F00089F506E221EE41EE67ED7CE5C7010E9409
:103500003413D4C985E0DE01119601900D928A959D
:10351000E1F7F701228189819A812111A2C90E94D4
:10352000FA05182FA6C98272F801E25CFC45E43165
:10353000F10508F09ACCEF5FF94D0C94A924053FF2
:103540002CE5120709F41BCB08F413CB063F8CE5DE
:103550001807C1F006311C4509F090CC8091670135
:10356000811109CC89E20E94D40500CC053FECE52D
:103570001E0709F404CB08F4FCCA063F2CE5120729
:1035800009F050CF07E225EE46EE66EF7CE5B6CFB8
:103590001F93CF93DF9380916D01807FA9F4809179
:1035A0006A01882389F080919F01D0916E0160911A
:1035B000680170916901A0916B01B0916C01C62FF7
:1035C000C72316E0D81304C0DF91CF911F9108954F
:1035D00090E0109711F0CF3F19F401968770F2CF69
:1035E000189F9001199F300D1124F901E159FE4FE8
:1035F00041814713F2CF40814613EFCF4281411101
:10360000ECCF438154814A1B5B0B483C510528F7A2
:1036100080916D018F70806180936D01F901EC588C
:10362000FE4F80818F708061808388E691E00E94E8
:10363000FA13DF91CF911F910C944D06AF92BF9278
:10364000CF92DF92EF92FF920F931F93CF93DF936E
:10365000CDB7DEB761970FB6F894DEBF0FBECDBF12
:103660008C0185E0F801DE011D9601900D928A958E
:10367000E1F7F80180819181E28028E6A22E21E025
:10368000B22E60916B0170916C016115710509F4A6
:103690003EC13091680140916901232F24232F3FBF
:1036A00009F435C1C380D480F0906A01F601E61BAD
:1036B000F70BFF2009F4FBC020916D01522F507FC2
:1036C000E83CF10508F0BBC0511178C0FE2C49134D
:1036D00021C038131FC0E1101DC02F70206120933E
:1036E0006D01C5010E94FA1380916D01F801858377
:1036F0008F2D61960FB6F894DEBF0FBECDBFDF9160
:10370000CF911F910F91FF90EF90DF90CF90BF90DE
:10371000AF900895CD2829F0282F29232F3F09F0B5
:1037200014C120E0F22FF170DF2E20FF3DC0209168
:103730009F0140916E0156E0241315C08D879E872E
:103740008D859E850E94560D292F22952F7022303F
:10375000F8F0243020F59F70F9F0F8019581907F02
:10376000D9F4D12C1FC030E0529FF001539FF00DCF
:103770001124E159FE4F6181961306C060818613C2
:1037800003C06281E61210C02F5F3F4F2770D4CF75
:103790009F7011F0882329F3805E883010F3C801F0
:1037A0000E94FA13FD2CA4CFEE2009F4A1CF809142
:1037B0006D01816080936D01F12C9ACF491312C085
:1037C000381310C0E1100EC0F8012583C8010E9413
:1037D000FA1386E0F801A8E6B1E001900D928A950F
:1037E000E1F786CF8D879E878D859E850E94600D2F
:1037F000882309F1EE20F9F080916D01803270F09C
:10380000209168013091690138872F831986DB8602
:10381000CA868C87CE0107960E94FA1386E0F801CB
:10382000A8E6B1E001900D928A95E1F70E94C81ACE
:10383000FF24F3945DCFC8010E94FA13F9CF511110
:103840000AC088E691E00E94FA1386E0F501119221
:103850008A95E9F7B1CF49130FC038130DC0E110B5
:103860000BC0F8012583C8010E94FA1386E0F50118
:1038700011928A95E9F73CCF8D879E878D859E852D
:103880000E94600D8823B9F2EE20A9F280916D01AB
:10389000803220F220916801309169013A832983B6
:1038A0001B82DD82CC828E83CE010196B5CFE83CAF
:1038B000F105E0F6FE2CEE2009F4BDCF491316C049
:1038C000381314C080916D0180FD83CF982F907FB5
:1038D00009F47FCFF8018583903F09F477CF982FC3
:1038E000907F905F8F70892B858370CF8D879E87A7
:1038F0008D859E850E94600D811190CF80916D0114
:10390000816080936D01C8010E94FA13F1CEEE2010
:1039100009F491CF8D879E878D859E850E94600DCD
:10392000F82E882309F487CF86E0F801A8E6B1E0F5
:1039300001900D928A95E1F780916801909169015B
:103940000E94560D0E94C81AD3CE21E02E25EACE41
:103950001F93CF93DF93CDB7DEB767970FB6F89479
:10396000DEBF0FBECDBF4B8B5C8B6D8B7E8B8F8B89
:103970001A8A198A85E0FE017396DE011D96019070
:103980000D928A95E1F786E0FE013D96DE011796DD
:1039900001900D928A95E1F7CE0107960E941E1BB9
:1039A000882389F016E080919F0190916E01891320
:1039B00049C067960FB6F894DEBF0FBECDBFDF914A
:1039C000CF911F91089586E0FE013796DE01119692
:1039D00001900D928A95E1F78A859B85892B11F3D9
:1039E0008F81988589238F3FE9F220916E0130E025
:1039F000C90101968770992740919F0148171906C0
:103A000071F40E94380F10926E0110929F0186E0AF
:103A1000E8E6F1E0DF011D928A95E9F7C3CF96E071
:103A2000929FD001939FB00D1124A159BE4FFE016A
:103A3000319601900D929A95E1F780936E010E9464
:103A40004D06B0CF819FC001112481599E4F0E9425
:103A50001E1B882309F4ADCF80919F0190E0019651
:103A60008770992780939F019ECF7F928F929F921C
:103A7000AF92BF92CF92DF92EF92FF920F931F937C
:103A8000CF93DF930DEE10E0A9E2B2E0712CCC24CD
:103A9000C394D12CE80189918E01E82FE295EF7053
:103AA000F0E091A98F70760101C0EE0C8A95EAF7DB
:103AB000892F8E2981AB92A97E2D7095972392AB89
:103AC000D8E7DA95F1F792EFA92E90E0B92E50E001
:103AD00040E030E020E0E50169915E01862E8294AD
:103AE0008FE08822912CE40188A990E06F7002C0D9
:103AF000959587956A95E2F780FD65C0C601042E0D
:103B000002C0880F991F0A94E2F7282B392B4F5FC8
:103B10005F4F40315105F9F681A9872381AB82A916
:103B2000E82AE2AA8D919C9111972817390709F488
:103B30004DC011963C932E9381E0782A1296D0E0E6
:103B4000023F1D0709F0A6CF772009F441C081E0AC
:103B500080930C010E94281390930B0180930A011B
:103B600080910A0190910B010E9492050697A0F1A5
:103B70008091290290912A029093550280935402D9
:103B800080912B0290912C029093570280935602C1
:103B900080912D0290912E029093590280935802A9
:103BA00080912F029091300290935B0280935A0291
:103BB000809131029091320290935D0280935C0279
:103BC00010920C0109C090E080E09FCF80E0B5CF5B
:103BD00080910C018111C4CFA895872DDF91CF91E1
:103BE0001F910F91FF90EF90DF90CF90BF90AF901B
:103BF0009F908F907F900895CDB7DEB764970FB6F2
:103C0000F894DEBF0FBECDBF0E9428137C0184B79D
:103C1000806884BF84B7806884BF8FEF8BBB1ABA7B
:103C200088BB17BA85BB14BA81EF82BB83E081BB26
:103C300088E19FE00FB6F894A89581BD0FBE91BDB5
:103C400080912602811105C00E94B32381E08093F8
:103C5000260280E00E94300E87E99AE30197F1F78F
:103C600000C000008FE0EEE7F0E0DE011196019069
:103C70000D928A95E1F78BE28093DB0181E18093DD
:103C8000DC018FE0FE013196ADEDB1E001900D92C7
:103C90008A95E1F724E630E041E150E06BED71E018
:103CA00080EB0E944124E7E9FAE33197F1F700C085
:103CB00000001092DB0115E01093DC018BE0809393
:103CC000DD0188EC90E09093DF018093DE0124E633
:103CD00030E045E050E06BED71E080EB0E94412464
:103CE00087E99AE30197F1F700C0000084E180932F
:103CF000DB0186E08093DC011092DD011092DE0191
:103D00001092DF011092E00124E630E046E050E03E
:103D10006BED71E080EB0E944124E7E9FAE3319713
:103D2000F1F700C000008AE18093DB0184E080931A
:103D3000DC0183E090E09093DE018093DD0124E6D6
:103D400030E044E050E06BED71E080EB0E944124F4
:103D500087E99AE30197F1F700C0000080918D0098
:103D600090918E00A0918F00B091900029E1209356
:103D7000DB0127E02093DC011093DD018093DE015D
:103D80009093DF01A093E001B093E10124E630E0DD
:103D900047E050E06BED71E080EB0E944124E7E9E1
:103DA000FAE33197F1F700C0000082E790E09093CA
:103DB00028028093270285B7886085BF8BB780680B
:103DC0008BBF8BE48093250380935A038093310348
:103DD0008AE58093240380935903809330038B9A60
:103DE00080E0815009F08AC08B987894FFEB24ED35
:103DF00041E0F15020404040E1F700C000008BE07E
:103E000083BF8BEB8CBF82E089BFADEEB0E022EFC9
:103E100030E041E050E08D91E82FE295EF70F0E066
:103E200011A98F70BA0101C0660F8A95EAF7962F23
:103E30009095912391AB82A9862B82AB2A173B07E1
:103E400051F7A2EFB0E022E031E041E050E08D9187
:103E5000E82FE295EF70F0E011A98F70BA0101C070
:103E6000660F8A95EAF7962F9095912391AB82A9D8
:103E7000862B82AB2A173B0751F710922A02109229
:103E80002902109255021092540210922C021092A4
:103E90002B02109257021092560210922E0210928C
:103EA0002D02109259021092580210923002109274
:103EB0002F0210925B0210925A021092320210925C
:103EC000310210925D0210925C020E94351D8FE259
:103ED00095E70197F1F700C000000E94351D809121
:103EE000540280FF13C080E00E94EC0D6FEF7FEF63
:103EF00090E080E00E945F250E946D0EA895E7EBA0
:103F0000FBE03197F1F700C000006BCF0E94860EF6
:103F1000811102C00E94910E82E290E00E942E2543
:103F2000813209F006C483E290E00E942E2582309F
:103F300009F0FFC384E290E00E942E25863109F04B
:103F4000F8C30E94860E811102C00E94910E82E089
:103F500090E00E942E2580933D020E94540B909386
:103F600034028093330283E090E00E942E25682F74
:103F700070E090E080E00E9428070E94860E811188
:103F800002C00E94910E86E090E00E942E25809350
:103F90004802803120F087708860809348029091B9
:103FA0004802892F817090FF04C0892F86958695DD
:103FB00086950E94300E80913502811133C00E9497
:103FC000860E811104C00E94910E0E94280F88E085
:103FD00090E00E94362560934B0270934C028093D0
:103FE0004D0290934E026E7F71F40E94280F88E07C
:103FF00090E00E94362560934B0270934C028093B0
:104000004D0290934E020E94990710924A028091AD
:104010004B0280FF04C060E086950E94971381E008
:104020008093350210E07CE7C72E75E0D72E809193
:104030003F03882309F4BDC010923F030E94281358
:104040007C010E948B088091ED02882309F494C0C2
:104050008091240384FF90C00E94351DA4E5B2E046
:10406000EEE3F2E010E000E0902E8D919D91419101
:1040700051914817590709F4BAC04827592720E039
:10408000AA24A394B12CBA016A217B21672B09F4DD
:10409000A8C029839A829C012A213B2191E0232BED
:1040A00009F490E09B830E9428138160782F9D8300
:1040B0008C8349815A816B818D810E94A81C000FDD
:1040C000111FF801E25CFD4F80819181A826B9267D
:1040D000B182A08280914A02882309F441C0809174
:1040E0004902E0914B02E695E81BE09338028230EA
:1040F00009F094C0F0E0E657FA4FE4910E2F10E07B
:1041000029E0A22E22E1B22E80913902882389F083
:10411000109239020E942813980120953095820F41
:10412000931F909337028093360210923B021092B5
:104130003A0280913602909137020E9492058017D0
:10414000910770F0E0913602F09137020E0F1F1FB9
:10415000109337020093360286E392E0F501099549
:104160000E94320790913C02891731F00E94320779
:1041700080933C020E94040E0E94570A0E948B0802
:104180008091ED02882309F4DDC08091590384FFFA
:10419000D9C08091E302803209F0D4C0E091F502E9
:1041A000E150E33108F01BC1F0E0EB5EF94D0C94F7
:1041B000A924C7010E949205069718F4112309F457
:1041C00040CF0E94351DE4E5F2E08EE592E02191BA
:1041D0003191232B09F093C28E179F07C1F711E08D
:1041E00026CF2F5FAA0CBB1C203109F04CCF0F5FEC
:1041F0001F4F0530110509F037CF8FEF888B898B62
:104200001A8A0E9428138160782F9C8B8B8B488997
:1042100059896A898C890E94A81C5CCF863059F420
:10422000F0E0E957FA4FE4910E2F10E09DE1A92E3E
:1042300092E1B92E69CF893061F4E695F0E0EC5750
:10424000FA4FE4910E2F10E087EFA82E8FE0B82EE2
:104250005BCF8F3061F4E695F0E0EF57FA4FE491D1
:104260000E2F10E0B1E2AB2EB0E1BB2E4DCF853169
:1042700059F4F0E0E258FA4FE4910E2F10E0AFE865
:10428000AA2EA0E1BA2E40CF08E210E07DEDA72EC5
:1042900070E1B72E883109F437CF833241F4F6014B
:1042A00005911491F0EBAF2EF1E1BF2E2DCF04EF6D
:1042B00011E066E6A62E61E1B62E843209F424CF21
:1042C00000ED17E05DE8A52E55E0B52E853209F02A
:1042D0001BCF8E2F63E00E946724E92FF0E0E758A0
:1042E000FA4FE4910E2F10E0EEE6AE2EEFE0BE2E78
:1042F0000BCF1092F60289E08093F7021FC08091E5
:10430000F602823009F422C28330F1F0813009F0E4
:1043100066C02FB7F894609150027091510280915D
:104320005202909153022FBF0E94AF246093F70274
:104330007093F8028093F9029093FA020E94FE09AA
:104340001092E30210E073CE8091540290915502D6
:104350009827892798279093F8028093F7028091F5
:104360005602909157029827892798279093FA022E
:104370008093F902809158029091590298278927D9
:1043800098279093FC028093FB0280915A029091AF
:104390005B029827892798279093FE028093FD025D
:1043A00080915C0290915D029827892798279093CD
:1043B00000038093FF02C2CF8091F602823079F42D
:1043C0006091F7027091F8028091F9029091FA02DF
:1043D0000E94AF2485E290E00E944225AFCF8FEF8C
:1043E0008093F502ABCF4091F8026091F702809183
:1043F000F6020E94620B9827892798279093FA0269
:104400008093F9029BCFA090F902B090FA02BA24EF
:10441000AB24BA248091F6020091F702F0E20F9FDC
:104420008001112420EA829F000D111D112480912A
:10443000F80290E0880F991F080F191F6B2DC80113
:1044400086960E9442256A2DC8018796C5CF0E9494
:10445000840D74CF8091F602893041F49091F70277
:1044600081E09F3F08F480E00E94570E8091F602A1
:104470008138D9F068F4803809F060CF20E04091AD
:10448000F70260914D0280914C020E942D1256CF8E
:10449000823879F1833809F051CF20E040914E0203
:1044A0006091F8028091F702F0CF60E08091F7020E
:1044B0000E9497139091F70280914B02911111C0C5
:1044C0008E7F80934B0210924A024FEB84ED91E075
:1044D000415080409040E1F700C000000E94430F2F
:1044E0002DCF816080934B0260E086950E949713E8
:1044F00025CF8091F70280934F0220CF8091F60262
:10450000893059F08A3081F08138F9F080F48038B0
:1045100009F014CF80914E02EFCE8091480286952B
:10452000869586958195E8CE1092F70207CF82385E
:10453000A1F0833809F002CF80914C028093F702FA
:1045400080914D028093F802F9CE80914B0280FF5A
:1045500002C08695D1CE80E0CFCE80914F02CCCEE6
:10456000809148020E94D70D60914B0270914C02DD
:1045700080914D0290914E020E94F40EDFCE80E1B8
:104580008093F602DBCE81E08093F6028AE5B4CE1A
:10459000A090F602B090F702BA24AB24BA2435EF0B
:1045A000832E32E0932E0091F80210E00B501D4F45
:1045B000C5018A559D4F8016910609F4BFCEEAE5E4
:1045C000AE16E1E0BE0658F40E942E25F401848365
:1045D000FFEFAF1ABF0A2FEF821A920AE9CFF40158
:1045E0001482F6CF0091F6021091F70210270127EE
:1045F000102725EF822E22E0922EA090F802A00E26
:10460000B12EB11CC8018A559D4FA016B10609F400
:1046100095CE0A3541E0140720F4F40164810E942C
:104620004225FFEF8F1A9F0A0F5F1F4FEBCF0E94AB
:10463000DC0D84CE84E0A4CFA090F602B090F70207
:10464000BA24AB24BA2495EF892E92E0992E0091DA
:10465000F80210E00B501D4FC5018696081519058C
:1046600009F46CCE20E8A21622E0B20658F40E94AB
:104670002E25F4018483FFEFAF1ABF0A2FEF821AB1
:10468000920AEACFF4011482F6CF0091F60210915B
:10469000F70210270127102785EF882E82E0982E39
:1046A000A090F802A00EB12EB11CC80186960A1582
:1046B0001B0509F443CE003842E0140720F4F4014E
:1046C00064810E944225FFEF8F1A9F0A0F5F1F4FE0
:1046D000ECCF80E00E94EC0D6FEF7FEF90E080E088
:1046E0000E945F252BCE0E94FE092FE749EA83E056
:1046F000215040408040E1F700C00000FDCBF8941D
:1047000021B3939A822F8C6081BB92B33CE09327B4
:1047100092BB9FE5EAEEF0E09150E040F040E1F717
:1047200000C0000082B3832782BB21BB939878949A
:1047300056CD60E085E290E00E9442250E94840D03
:104740000E94DC0D81E00E94EC0DFBCB85E290E045
:104750000E942E251092F7021092F8021092F90290
:104760008093FA02EBCD11B887E080B985B38360FE
:1047700085BB86B7846086BF86B7816086BF86B7F3
:10478000806486BF0895EF92FF920F931F93CF939B
:10479000DF93182FEB0116BE84EA86BF0E94281310
:1047A0007C0106B607FE21C081B1887F883021F0E8
:1047B00081B1887F8031B9F513B984E886BF0E9442
:1047C00028138C0106B607FE23C021B1287F90E094
:1047D00080E02831B1F081E090E0203411F490E0E5
:1047E00080E09195819591090CC0CF3FDC07C9F21B
:1047F0000E9428138E199F098C179D0790F28EEF47
:104800009FEFDF91CF911F910F91FF90EF9008954F
:10481000CF3FDC07B9F20E942813801B910B8C1745
:104820009D0780F2ECCF8FEF9FEFEBCF0F931F939D
:10483000CF93DF93EB0183B984E886BF0E942813EE
:104840008C0106B607FE10C021B1287F81E090E000
:10485000283211F490E080E0919581959109DF91E3
:10486000CF911F910F910895CF3FDC0751F30E9424
:104870002813801B910B8C179D0718F38EEF9FEF69
:10488000EECFCF92DF92EF92FF920F931F93CF93D1
:10489000DF936B018A017901B9010E94C323E6010C
:1048A0000C0D1D1DC017D10759F424E926BFDF9157
:1048B000CF911F910F91FF90EF90DF90CF900895CF
:1048C00097FDF3CFB70189910E941624EBCF991B76
:1048D00079E004C0991F961708F0961B881F7A95F7
:1048E000C9F78095089587FB082E062687FD8195D8
:1048F00067FD61950E9467240EF4919507FC8195F0
:104900000895AA1BBB1B51E107C0AA1FBB1FA61716
:10491000B70710F0A61BB70B881F991F5A95A9F768
:1049200080959095BC01CD01089597FB072E16F454
:10493000009407D077FD09D00E94812407FC05D0A0
:104940003EF4909581959F4F0895709561957F4FA6
:104950000895EE0FFF1F0590F491E02D099469274B
:104960009627692778278727782708950E94D625D4
:10497000332312F48A1B9B0B0C94C0240E94D6256F
:10498000B7FF0895821B930B08958F929F92AF9269
:10499000BF92CF92DF92EF92FF92CF93DF93EC0121
:1049A000688179818A819B816115710581059105F5
:1049B00021F464E279ED8BE597E02DE133EF41E0FE
:1049C00050E00E94822549015A019B01AC01A7EAEF
:1049D000B1E40E94A1256B017C01ACEEB4EFA5010E
:1049E00094010E94AF25DC01CB018C0D9D1DAE1DF5
:1049F000BF1DB7FF03C00197A109B0488883998301
:104A0000AA83BB839F77DF91CF91FF90EF90DF90D8
:104A1000CF90BF90AF909F908F9008950E94C52433
:104A2000089580E690E00E94C5240895B0E0A0E0DB
:104A30008093600090936100A0936200B093630044
:104A40000895FC014150504030F001900616D1F716
:104A50003197CF010895882799270895E199FECFCE
:104A60009FBB8EBBE09A99278DB30895A6E1B0E075
:104A700044E050E00C947425A8E1B0E042E050E03E
:104A80000C947425262FE199FECF9FBB8EBBE09A34
:104A900001970DB2021631F02DBB0FB6F894E29AD1
:104AA000E19A0FBE08950396272F0E9443250E9486
:104AB0004225252F0E944325242F0C94432501963F
:104AC000272F0E9443250C944225262FE199FECFE3
:104AD0009FBB8EBB2DBB0FB6F894E29AE19A0FBE36
:104AE00001960895DC01CB01FC01E199FECF06C0DF
:104AF000FFBBEEBBE09A31960DB20D924150504093
:104B0000B8F70895052E97FB1EF400940E9499258E
:104B100057FD07D00E94B42507FC03D04EF40C9437
:104B2000992550954095309521953F4F4F4F5F4FB8
:104B3000089590958095709561957F4F8F4F9F4F09
:104B400008950E94D625A59F900DB49F900DA49F17
:104B5000800D911D11240895B7FF0C94A1250E948A
:104B6000A125821B930B0895A1E21A2EAA1BBB1B41
:104B7000FD010DC0AA1FBB1FEE1FFF1FA217B30729
:104B8000E407F50720F0A21BB30BE40BF50B661F3F
:104B9000771F881F991F1A9469F760957095809503
:104BA00090959B01AC01BD01CF010895A29FB0017A
:104BB000B39FC001A39F700D811D1124911DB29F51
:104BC000700D811D1124911D0895F894FFCF6F0D74
:104BD0006F0D780D780D7A0D780D780D780D6F0DBD
:104BE0006F0D7F0D780D780D7F0D961796170718AE
:104BF00007185D18CB17CB17CB1777184D195C1911
:104C00005C19BD16E416EB16F016F516FA16FF162B
:104C1000041709170E17131718171B172017231738
:104C2000261729172C172F17321779217F21DC21FE
:104C3000F321032227222A227E22B0226923732312
:104C4000BF22C322C822F22217231A231C23452382
:104C50000100000001191A1B1C1D1E1F202122012A
:104C600002018F05860A8E05530A4F0AFF5A050571
:104C700005050505050505050505050505050105E8
:104C800001000102020202060606090909090909D2
:104C90000F0F0F0F0F0F15151518191919191919CD
:104CA000191919192324252525252525818283E213
:104CB00000E900EA00B500B600B700CD008301CCE2
:104CC000008A019201940121022302240225022676
:104CD0000227022A02B300B4006F0070003334359B
:104CE000363790919293949596976061626364656C
:024CF0006667F5
:00000001FF
