:100000000C9494020C94D8020C94F3020C94D80231
:100010000C94D8020C94D8020C94D8020C94D802F8
:100020000C94D8020C94D8020C943B0D0C94D8027A
:100030000C94D8020C94D8020C94D8020C94D802D8
:100040000C94D8020C94D8020C94D8020C94D802C8
:100050000C94D80229003A003B003C003D003E00D1
:100060003F0040004100420043004400450046007C
:100070004700480035001E001F002000210022001C
:10008000230024002500260027002D002E004C0010
:100090002A0049002B0014001A0008001500170060
:1000A0001C0018000C00120013002F00300031005B
:1000B0004A004B00394104001600070009000A00FD
:1000C0000B000D000E000F0033003400320028003A
:1000D0004D004E00E10064001D001B0006001900E9
:1000E000050011001000360037003800E50001510E
:1000F00052004C00E000E300E2002C000000000091
:100100002C0000002C00E600E7006500E400500031
:1001100051004F00005C01000100010001000100DE
:1001200001000100010001000100010001000100C7
:1001300001000100010001000100010001000100B7
:1001400001000100010001000100010001000100A7
:100150000100010001000100010001000100010097
:1001600001000100010001000100AA00A900010036
:100170000100010001000100010001000100010077
:100180000100010001000100010001000100010067
:100190000100010001000100010001000100010057
:1001A00001000100A80001000100010001000100A0
:1001B0000100010001000100010001000100010037
:1001C0000100010001000100010001000100010027
:1001D0000100010001000100010001000100010017
:1001E0000100010001000100010001000100010007
:1001F00001000100010001000100010001000100F7
:1002000001000100010001000100010001000100E6
:1002100001000100010001000100010001000100D6
:1002200001000100010001000100010001000100C6
:1002300001000100010001000100010001000100B6
:1002400001000100010001000100010001000100A6
:100250000100010001000100010001000100010096
:100260000100010001000100010001000100010086
:100270000100010001000100010001000100010076
:100280000100010001000100010001000100010066
:100290000100010001000100010001000100010056
:1002A0000100010001000100010001000100010046
:1002B0000100010001000100010001000100010036
:1002C0000100010001000100010001000100010026
:1002D0000100010001000100010001000100010016
:1002E0000100010001000100010001000100010006
:1002F00001000100010001000100010001000100F6
:1003000001000100010001000100010001000100E5
:1003100001000100010001000100010001000100D5
:1003200001000100010001000100010001000100C5
:1003300001000100010001000100010001000100B5
:1003400001000100010001000100010001000100A5
:10035000010001000000000000000000000000009B
:1003600000000000000000007E0F00D4FFFFFFC768
:100370000000007800000000000000002A2B280088
:100380000000000000000000000000000000002944
:10039000000000002C1E3420212224342627252E84
:1003A000362D3738271E1F202122232425263333BC
:1003B000362E37381F0405060708090A0B0C0D0EE8
:1003C0000F101112131415161718191A1B1C1D2FB4
:1003D0003130232D350405060708090A0B0C0D0ED4
:1003E0000F101112131415161718191A1B1C1D2F94
:1003F0003130354C05010980A101850319012AB767
:1004000000150126B700950175108100C0050C0983
:1004100001A101850419012AA002150126A0029557
:100420000175108100C00660FF0961A10109621514
:100430000026FF009520750881020963150026FF3C
:1004400000952075089102C005010906A101050764
:1004500019E029E71500250195087501810295012C
:10046000750881030507190029FF150026FF00956F
:100470000675088100050819012905950575019182
:1004800002950175039103C00403300000001803B6
:100490004C005A0020004500720067006F002000E9
:1004A00054004B004C0000000C034C00650065003C
:1004B0004B00750000000403090409025B000301FE
:1004C00000A0FA0904000001030101000921010153
:1004D0000001224000070581030800010904010012
:1004E0000203000000092101010002222200070589
:1004F0008403080001070504030800010904020041
:10050000010300000009210101000122320007055A
:1005100083030800011201100100000008FEFF53D0
:10052000410001010203010011241FBECFE5D8E004
:10053000DEBFCDBF04B603FE24C08091D7029091E8
:10054000D802A091D902B091DA028730904BA7402F
:10055000B04BB9F41092D7021092D8021092D9027F
:100560001092DA0214BE84B7877F84BF0FB6F89466
:10057000A89581B5886181BD11BC0FBEE0E0F8E3AC
:10058000099522E0A6ECB0E001C01D92A73DB2079C
:10059000E1F710E0A0E6B0E0E8EFF7E302C0059075
:1005A0000D92A63CB107D9F70E94BC160C94CD1B46
:1005B0000C940000A82FB92F80E090E041E050EAB1
:1005C000609530E009C02D9182279795879510F0AE
:1005D00084279527305EC8F36F5FA8F30895EADF9C
:1005E0008D939D930895CF93CFB7CF93C395839B5E
:1005F000E9F7839B0EC0839B0CC0839B0AC0839B3F
:1006000008C0839B06C0C091B102C395C093B102DC
:10061000A6C0DF93C091B002DD27CB54DD4F839B92
:1006200002C0DF91E6CF2F930F931F9300B32FEFFC
:1006300003FB20F94F933F9310B34FEF012703FBC8
:1006400021F93BE031C04E7F012F10B3216028C05B
:10065000102F4D7F2260000000B329C04B7F246023
:10066000012F000010B32BC010B3477F28602AC0B1
:100670004F7E00B320612CC04F7D10B320622FC08D
:100680004F7B00B3206432C0422700B349934FEF41
:100690000000102713FB20F910B31C70C9F1297F4B
:1006A00091F2012703FB21F900B3237F89F2315036
:1006B00058F1102713FB22F910B3277E79F2012796
:1006C00003FB23F92F7C81F200B3102713FB24F9DD
:1006D0002F7971F200C010B3012703FB25F92F73A6
:1006E00059F200C000B3102713FB26F9223040F264
:1006F00000C010B3012703FB27F9243028F64F77F9
:10070000206810B30000F9CF10E81ABF00271CC002
:100710003B503195C31BD04010E81ABF0881033C01
:1007200011F10B3401F12091AE021981110F121356
:10073000EDCF4A81441F093669F10D3211F0013EB7
:1007400029F74F7009F0042F0093B4023F914F91A5
:100750001F910F912F91DF91CAB7C7FD47CFCF915E
:10076000CFBFCF9118952091B402222379F3109135
:10077000B202112309F044C034300AF443C030936C
:10078000B2022093AF021091B0023BE0311B3093D4
:10079000B00238C00091B202013094F50AE54F7002
:1007A00049F430916B0034FD2FC000936B00CBE80F
:1007B000D2E02EC0433059F0443091F0309196028F
:1007C00034FD22C000939602C7E9D2E021C03091E7
:1007D000CB0234FD19C00093CB02CCECD2E018C0A0
:1007E0003091A20234FD10C00093A202C3EAD2E00D
:1007F0000FC02795A8F45150A9F4220F0000F9CF9B
:100800004AE503C042ED01C0432FC4E1D0E032E02D
:1008100011B31C60939A11BB02B320E41CE05F93F8
:10082000012756E002BB279520F4515021F4220FF6
:10083000F9CF012756E000003B5A02BBD0F22795C2
:1008400028F4515029F4220F0000F9CF012756E077
:10085000279502BB20F4515021F4220FF9CF012734
:1008600056E02991332302BB21F6037F1091B30296
:10087000110FC651D04002BB11F01093AE0210E828
:100880001ABF086011B3137F402F437F5F9100C0F0
:1008900000C002BB11BB42BB59CFFC018381833036
:1008A00089F130F48130F1F0823021F180E0089557
:1008B000813209F44BC08232C9F72481358121305D
:1008C000310509F461C02115310509F455C0223004
:1008D000310561F784EF93E090936602809365029F
:1008E00082E3089585E195E0909366028093650226
:1008F00082E108958AEB94E090936602809365020A
:100900008BE508958281813089F0882339F0823027
:10091000A9F0833059F688E894E002C086EB94E0B1
:10092000909366028093650284E0089588EA94E0DB
:1009300090936602809365028CE008958EE894E0BF
:10094000909366028093650288E1089582818130E8
:1009500081F0882331F0823009F0A8CF85E095E05E
:1009600002C08CEC94E0909366028093650289E06B
:10097000089585EE94E0F7CF88E494E090936602C2
:100980008093650280E4089526E234E030936602A5
:1009900020936502089508958091600208959C0156
:1009A0004FB7F8948091C0019091C101A091C2010C
:1009B000B091C3014FBF821B930B089580915101E9
:1009C00081111092510108958091500190914F0131
:1009D000892B90914E01892B8093C60090915101F3
:1009E000992391F0892B8093C60020E088EC90E059
:1009F000FC013191CF0131112F5FF0E08E3C9F0758
:100A0000B9F721110E94DE04E091A201F091A30147
:100A1000309731F00280F381E02D86EC90E009946C
:100A20000895E8ECF0E09191891303C0DF0111977C
:100A30001C9290E0EE3CF907B1F70895A8ECB0E005
:100A4000EFEF90E02D91821751F0EF3F19F4211153
:100A500001C0E92F9F5F9630A9F7EF3F09F4089591
:100A60000E2E000CFF0BEA53FF4F828308959295E0
:100A7000907F890F982F977086958695869525E0AB
:100A8000829FF0011124EF5EFE4F50E040E080E0D5
:100A9000219130E0092E02C0369527950A94E2F79D
:100AA00021703327042E01C0220F0A94EAF7822B0B
:100AB0004F5F5F4F4530510559F708959295907FEC
:100AC000890F982F977041E001C0440F9A95EAF77B
:100AD00086958695869595E0899FF0011124EF5EB5
:100AE000FE4F30E020E070E05191DF011197CB0123
:100AF000022E02C0969587950A94E2F7817081953F
:100B00008527842385278C932F5F3F4F2530310520
:100B100059F70895809110019091DF00981301C05A
:100B200008958F5F8770FACF882341F08095909168
:100B300050018923809350010C94E4040895882384
:100B400039F090915001982B909350010C94E4044B
:100B500008952091D5003091D6002817390771F0FB
:100B60009093D6008093D500E091A201F091A3016B
:100B7000309721F00084F185E02D099408952091AB
:100B8000D3003091D4002817390771F09093D40026
:100B90008093D300E091A201F091A301309721F05E
:100BA0000680F781E02D0994089510924F0110926C
:100BB0004E010E94E40490E080E00E94BF0590E0B6
:100BC00080E00C94A905609387027093880280935B
:100BD000890290938A020C94D5050F931F9360911C
:100BE0008702709188028091890290918A028B011C
:100BF0009C01067011272227332706301105210595
:100C0000310529F468601F910F910C94E305677F0B
:100C1000FACF0F931F9341E050E060E070E004C012
:100C2000440F551F661F771F8A95D2F7CB01BA0173
:100C3000609570958095909500918702109188023B
:100C40002091890230918A026023712382239323A9
:100C50001F910F910C94E30590914D01809589238C
:100C600080934D01282F277071F4282F082E000C37
:100C7000330B9217130639F08595859585950E945B
:100C8000090610924D0108950F931F9341E050E023
:100C900060E070E004C0440F551F661F771F8A95FF
:100CA000D2F78091870290918802A0918902B09139
:100CB0008A028A019B01082B192B2A2B3B2BC90185
:100CC000B8011F910F910C94E3056093520170934A
:100CD000530180935401909355010C94D505E091F4
:100CE000A201F091A301309721F00190F081E02D55
:100CF000099480E00895882309F452C0823871F481
:100D00000E946F0681FF4CC089E30E941E050E946D
:100D1000E40489E30E9411050C94E404833859F437
:100D20000E946F0680FF3CC083E50E941E050E9462
:100D3000E40483E5EFCF843859F40E946F0682FF04
:100D40002FC087E40E941E050E94E40487E4E2CFDE
:100D50009CEF980F913AF0F290E2980F983088F457
:100D6000877021E030E0A90102C0440F551F8A9529
:100D7000E2F7CA0180959091500189238093500138
:100D8000CBCF9BE5980F933020F490E080E00C945B
:100D9000BF05885A873120F490E080E00C94A905C3
:100DA00008959091B00192FF06C0282F2871283035
:100DB000F9F4877F846093FF06C0282F28712831BB
:100DC000F1F4877E84612091B10120FF06C0382FA5
:100DD00038713830D9F4877F816021FF06C0282F11
:100DE00028712831D1F4877E816194FD877E089532
:100DF000282F24712430F9F68B7F8860DCCF282FD0
:100E00002471243101F78B7E8861DDCF382F317159
:100E1000313019F78E7F8860E0CF282F2171213182
:100E200021F78E7E8861E1CFCF93DF938091B2026C
:100E3000835087FD14C09091B002CCE0D0E0C91B74
:100E4000D109CB54DD4F9091AF02903108F06BC0C7
:100E5000883009F453C0109255021092B20280916A
:100E60006B0084FF3EC080916A008F3FD1F1C82F94
:100E7000893008F0C8E0982F9C1B90936A009091ED
:100E80008B0228E8922790938B028823E9F08091C7
:100E90006502909166022091640226FF06C1FC0162
:100EA0002C2FACE8B2E034913D9331962150D9F724
:100EB0009C012F5F3F4F8FEF8C0F820F932F911D5F
:100EC00090936602809365026C2F8CE892E00E94FA
:100ED000EF02CC5FCC3019F08FEF80936A00C093A3
:100EE0006B0084E190B39C7031F48150D9F710927B
:100EF000B3021092AE02DF91CF9108958091550216
:100F0000893108F0A8CFE82FF0E0E959FD4F9E01A4
:100F1000285F3F4F999191932C173D07D9F7885F30
:100F2000809355029ACF9D3209F0A3C0883009F012
:100F300094CF83EC80938B028AE580936B001092B0
:100F400064028881807609F447C0803229F589815E
:100F5000813099F48C819D81892BF1F487E592E0B1
:100F6000909366028093650288E09F81911131C061
:100F70009E81981770F5892F2CC0823041F486E548
:100F800092E0909366028093650281E0EECF8A3012
:100F900029F48B818093560280E0E7CF8930E1F716
:100FA0008A819B818115924069F48C819D81892B76
:100FB00049F481E0809363028E819F819093620265
:100FC00080936102888187FF52C08E8190E8909360
:100FD000640280936A0041CF2A8110929402998121
:100FE00091110AC01092950224E932E082E0309318
:100FF000660220936502B9CF953029F42093B3029D
:1010000024E932E0F4CF9630C1F49B81913049F469
:10101000CE010E944D0490E4909364028F3F91F2C0
:10102000A4CF9230A9F3933099F3913289F392329D
:1010300079F390E49093640298CF983089F09930D6
:1010400019F420935F02DCCF9A3071F09B30C1F627
:101050009BE4909397029093CC029093A302D0CFFD
:101060002FE532E081E0C3CF24E932E0FBCF8FEF00
:10107000ADCF8091640287FFF0CE809161029091A4
:101080006202892B71F080916302813051F4888172
:1010900080936002109262021092610210926A00C4
:1010A000DCCE8EE180936B00D8CEDC012C2FECE8F7
:1010B000F2E03D9131932150E1F7FACE1F93CF93A7
:1010C000DF93E82F792F162FEA01888184FF1CC057
:1010D000298188E828272983CE010296DC012E2F5A
:1010E000372F512F5E0FF90121912D939F01452F2D
:1010F0004E1B1416C4F3612F0E94EF021C5F18836D
:10110000DF91CF911F9108958AE58883E5CFCF9332
:10111000DF93C7E6D2E08091A20284FF18C042EAC2
:1011200052E068E0CE010E945E08289682E0C7384F
:10113000D80789F78091A20284FF0CC042EA52E0EE
:1011400060E090E080E0DF91CF910C945E080E9417
:101150001407E1CF0E941407EDCFCF93DF9300D0A7
:101160000F92CDB7DEB790915402981307C020912B
:1011700052023091530226173707A1F08093540290
:10118000709353026093520289837B836A838091B8
:10119000CB0284FF07C04BEC52E063E0CE01019626
:1011A0000E945E080F900F900F90DF91CF910895ED
:1011B000BC0184E00C94AD08BC0183E00C94AD0844
:1011C000CF93DF93CAE0D0E08091960284FF1CC0E9
:1011D0008091500290915102981799F028E0829FD7
:1011E000C001112446E952E068E080539E4F0E94FE
:1011F0005E088091500290E001968F70992780934D
:101200005002DF91CF9108950E94140787EB9BE075
:101210000197F1F700C000002197B1F6F2CFCF930C
:10122000DF93EC01A0915102B0E0CD0101968F70E7
:10123000992720915002281779F093E0AA0FBB1F3D
:101240009A95E1F7A053BE4F98E0FE0101900D92F0
:101250009A95E1F7809351020E9414070E94E008DA
:1012600088E0FE01A7E5B2E001900D928A95E1F7D2
:10127000DF91CF910895CF93C82F882309F488C0B8
:101280008238C1F40E946F0681FD82C089E30E940A
:101290001E050E94E4042FE789EA93E02150804074
:1012A0009040E1F700C0000089E30E941105CF9152
:1012B0000C94E4048338A1F40E946F0680FD68C09A
:1012C00083E50E941E050E94E4042FE789EA93E06B
:1012D000215080409040E1F700C0000083E5E5CF59
:1012E0008438A1F40E946F0682FD52C087E40E94F8
:1012F0001E050E94E4042FE789EA93E02150804014
:101300009040E1F700C0000087E4CFCF8CEF8C0F56
:10131000813A68F4E8ECF0E08191C81799F120E097
:10132000EE3CF207C9F78C2F0E941E05C0CF80E269
:101330008C0F883068F4C77021E030E001C0220FC4
:10134000CA95EAF780915001822B80935001AFCF6C
:10135000EBE5EC0FE33040F4F0E0E158FF4F808123
:1013600090E0CF910C94BF05C85AC73188F4EC2F98
:10137000F0E0EE0FFF1FEE57FF4F80819181CF917C
:101380000C94A9058C2F0E9411050E94E404CBCF78
:10139000CF910895CF93C82F0E943B09C93349F4D8
:1013A0002FEF8DEE92E0215080409040E1F700C099
:1013B00000008C2FCF910C947B06CF9384E090E0BB
:1013C0000E947F1BC82F81E290E00E947F1B982F14
:1013D0008C2FCF9108950F931F93CF93DF9320E22B
:1013E000629FE001112450E0440F551FC40FD51F28
:1013F00030EC839FC00DD11D1124CE0186960E9432
:101400007F1B082F10E0102F0027CE0187960E9427
:101410007F1B9801282BC901DF91CF911F910F915C
:101420000895462F843038F4763028F4603118F46B
:10143000672F0C94EB0990E080E00895CF93DF9341
:101440000E94110AEC0182389105A9F1D8F5813387
:10145000910509F496C048F58932910509F48AC0CE
:101460008A9709F495C0C11522E5D20708F0B6C0E5
:10147000C11531E5D30708F026C1C83ED10508F0F3
:101480009CC0C03ED10560F5C83AD10508F087C0C0
:10149000C53AD10508F0EFC0C130D10509F1209758
:1014A000F9F0C430D105E0F440C08533910509F46A
:1014B0005AC0C997C1F68091B001837089F0C0EE1F
:1014C000D0E00EC0833E910599F170F4803E910505
:1014D00001F1823E910539F68091B00182FD21C073
:1014E000CE01DF91CF910895863E910561F1873E4F
:1014F000910571F1843E910509F0B5CF8091B1015C
:1015000081FFEECF8091B001C7EED0E084FD0DC029
:10151000E7CF8091B00180FD07C19091B10190FFAC
:10152000DFCFC3EED0E084FFDBCFD0E0C0E0D8CF88
:101530008091B00182FDFBC09091B10190FDBFCFC1
:1015400084FFCECFF2CF8091B00183FDDDCFC8CF35
:101550008091B00183FDEEC09091B10191FFF0CF79
:10156000C4EED0E0BDCF8091B00185FFB9CFC9E214
:10157000D0E0B6CF8091B00185FFB2CFC5E3D0E017
:10158000AFCF8091B00186FFABCFCAE2D0E0A8CF49
:101590008091B00186FFA4CFC1E3D0E0A1CFCF3BC3
:1015A000D10518F6C85AD0E0CC0FDD1FCE57DF4F5B
:1015B0000990D881C02DD46493CFC11540E5D407DC
:1015C00008F064C0C11580E4D80708F05CC0CE0103
:1015D0009A9581159F4108F483CFA7CFC11536E5B1
:1015E000D30718F5C11545E5D40708F084C0C11527
:1015F00084E5D80708F07AC09C2F969596959E01B1
:1016000023703327C115D34508F462C0C1E0D0E090
:1016100002C0CC0FDD1F2A95E2F730E2939FC00194
:101620001124C82BD92BDA685BCFC1158AE5D807FE
:1016300078F4C11599E5D90708F068C0C11528E507
:10164000D20708F472CFDC2FCC27C06FD06A48CF06
:10165000CE0190568115904208F067CF8D2F8F7183
:101660000E94D10690E0982F882788279F719C01BF
:101670002C2BE90149C0C55AD0E0C158DF4FC881C1
:10168000D0E0D0642DCFDF70D06A2ACFCE01E4E065
:1016900096958795EA95E1F783702C2F26952695E8
:1016A000237040E2249F90011124382B8C2F8370EB
:1016B000C1E0D0E002C0CC0FDD1F8A95E2F7C22B5B
:1016C000D32BDC680DCFDC2FCC27C16FD06A08CFBD
:1016D000C1E0D0E002C0CC0FDD1F2A95E2F720E286
:1016E000929FC0011124C82BD92BEBCFDC2FCC2724
:1016F000C46FD06AF5CE8C2F0E94D106C82FD0E0DF
:10170000DC2FCC27CC27DF71D062EACE8C2F8F70F4
:101710000E94D10634E0D695C7953A95E1F7CF708F
:101720009C2FEC01D069DCCEC9E3D0E0D9CEC2EE6B
:10173000D0E0D6CEC6EED0E0D3CEBF92CF92DF922D
:10174000EF92FF920F931F93CF93DF938C01C09082
:101750008702D0908802E0908902F0908A028091FE
:10176000520190915301A0915401B0915501C82AA2
:10177000D92AEA2AFB2ACFE1D0E0BC2ED701C60144
:101780000C2E04C0B695A795979587950A94D2F725
:1017900080FD0EC0219788F7B12C8B2DDF91CF9162
:1017A0001F910F91FF90EF90DF90CF90BF90089521
:1017B000B8018C2F0E941E0A019761F3EECFCF93E0
:1017C000DF93EC010E949D0BBE01DF91CF910C9441
:1017D0001E0A0E94DF0B292F2F7092959F70925046
:1017E0009E3078F4E92FF0E0E153F44E0C94721B34
:1017F000803F19F020F4883E20F481E00895843F72
:10180000E1F380E00895883EC0F3813FD1F7F5CF42
:10181000822F86958695869508956F927F928F92F6
:101820009F92AF92BF92CF92DF92EF92FF920F936F
:101830001F93CF93DF9384E5C82E80E0D82E06E077
:1018400011E0E801C05CD10936011CC0F5018590AA
:101850009490692DC7010E948D1B682DC7010196C8
:101860000E948D1B82E0A80EB11C82E0E80EF11CE4
:10187000CE15DF0559F780E2680E711CA0960C1793
:101880001D0731F07E0180E2E81AF1085301DECF36
:1018900000541F4F80ECC80ED11C063084E018079E
:1018A00081F6DF91CF911F910F91FF90EF90DF9024
:1018B000CF90BF90AF909F908F907F906F90089542
:1018C000CF93DF93C6E2D3E060E0CE010E948D1B90
:1018D0002196C11584E0D807B9F7DF91CF9108951B
:1018E000CF93C82F6FEF811161E282E290E00E94F6
:1018F0008D1B6FEFC11162E083E290E00E948D1BAF
:101900006FEFC11166E184E290E0CF910C948D1BE2
:1019100093E09093560190935701982F917080FD1A
:1019200094E081FD926082FD91609093580124E6DD
:1019300030E043E050E066E571E080EB0E944C1B34
:10194000892B81F087E99AE30197F1F700C0000045
:101950004091570150E024E630E066E571E080EB0D
:101960000E944C1B81E0089560E081E090E00E94BD
:10197000B01B87E090EBDC018093D7029093D802F4
:10198000A093D902B093DA0288E19CE00FB6F894F4
:10199000A89581BD0FBE91BDFFCF6CEE7EEF90E0AC
:1019A00080E00E94AA1B60E082E090E00E948D1B14
:1019B00060E083E090E00E948D1B10925201109233
:1019C0005301109254011092550160E084E090E0C0
:1019D0000E948D1B60E081E290E00E948D1B60E020
:1019E00085E090E00E948D1B60E086E090E00E9420
:1019F0008D1B6FEF87E090E00E948D1B40E050E070
:101A0000BA0188E090E00E949E1B60E08DE090E0CB
:101A10000E948D1B40E050E0BA0188E190E00E94F6
:101A20009E1B60E087E190E00E948D1B40E050E04B
:101A3000BA018CE190E00E949E1B60E080E290E0A1
:101A40000E948D1B40E050E0BA018FE090E00E94C0
:101A50009E1B40E050E0BA0183E190E00C949E1B95
:101A600010925001E8ECF0E086E0DF011D928A95CB
:101A7000E9F70C94D50578941F921FB61F92112494
:101A80008F939F93AF93BF938091C0019091C101B9
:101A9000A091C201B091C3010196A11DB11D809317
:101AA000C0019093C101A093C201B093C301BF9143
:101AB000AF919F918F911F901FBE1F9018952FB7C8
:101AC000F8948091C0019091C101A091C201B091A0
:101AD000C3012FBF08950F931F93CF93DF93C42F9C
:101AE000D22FFC0182818823A1F04093D7000E946D
:101AF0005F0D9093D2008093D100C77081E001C048
:101B0000880FCA95EAF7DF91CF911F910F910C943E
:101B10009F051091D700141335C08091D10090918A
:101B2000D2000E94CF04883C910560F5C0E2CD0F41
:101B30001D17B9F080E2810F883040F4177081E002
:101B400001C0880F1A95EAF70E949405C83048F43E
:101B500081E09D2F977001C0880F9A95EAF70E9447
:101B60009F05802F0E94CA09C83098F4D77081E081
:101B700001C0880FDA95EAF7DF91CF911F910F919D
:101B80000C949405C77081E001C0880FCA95EAF7EC
:101B9000F3CFDF91CF911F910F9108954F925F92F4
:101BA0006F927F928F929F92AF92BF92CF92DF926D
:101BB000EF92FF920F931F93CF93DF9300D000D04B
:101BC0000F92CDB7DEB77C01FC0183819481892B14
:101BD00031F08081918189238F3F09F029C50F90D1
:101BE0000F900F900F900F90DF91CF911F910F9159
:101BF000FF90EF90DF90CF90BF90AF909F908F902D
:101C00007F906F905F904F9008950E949D0B182FCA
:101C1000682F89819A810E945E0569817A81812F6E
:101C20000E94110A8C01F7018281882309F4F5C40E
:101C3000980122513F452031310508F0C5C48FEF8E
:101C400093E00E947F1B025156E2A52E53E0B52E71
:101C5000882379F180914D01877009F4C0CFF70195
:101C60008281882309F4BBCF82E00F900F900F9000
:101C70000F900F90DF91CF911F910F91FF90EF90F8
:101C8000DF90CF90BF90AF909F908F907F906F909C
:101C90005F904F900C942C06A114F4E0BF06D1F293
:101CA000C5010E947F1B811101C001502FEFA21AB4
:101CB000B20A0111F1CF1C821B82662463944AE0B0
:101CC000542E85010F5F1F4FC5010E947F1B898322
:101CD0001A82882309F4BECF9FEF980F933008F53E
:101CE0008A83698232E0A30EB11CC8010E947F1B67
:101CF0008B83882309F4AECF8E010F5F1F4FF8014D
:101D000020812223F1F2213009F043C091818281A8
:101D1000913049F40E5F1F4F0E94CA090F5F1F4F99
:101D2000EECF5801E9CF923029F40E5F1F4F0E9489
:101D30003B09F4CF933029F40E5F1F4F0E947B06BE
:101D4000EDCF943019F00F5F1F4FE8CF0E5F1F4F9C
:101D500030E020E0B8016F5F7F4FF8014181805390
:101D6000990B8A30910550F021503109B8F287EB78
:101D70009BE00197F1F700C00000F6CF529EF00102
:101D8000539EF00D11249C012E0F3F1F842F8B01B9
:101D9000E1CFE22FF0E0EC58FC4F7490822F869553
:101DA0008695869590E0FC01EC59FC4F8490277055
:101DB000912C022E02C0959487940A94E2F7E1E0F8
:101DC0008E229924FC01EC5AFC4FC490D12C02C005
:101DD000D594C7942A95E2F7F1E0CF22DD2481144F
:101DE000910419F081EE0E943B09C114D10419F04D
:101DF00086EE0E943B09872D0E94CA09CD2819F062
:101E000086EE0E947B06892809F488CF81EE96CF62
:101E100081E00E9444060E94ED051CCF81E00E94F3
:101E20000906F9CF82E0F5CF053F2CE5120709F44A
:101E300065C008F45DC0063F9CE5190709F464C05D
:101E4000882309F406C41092D7000230ECE51E077F
:101E500008F442C10631FCE51F0738F098012A5FFB
:101E60003C452930310508F037C10E94DD099093C7
:101E7000B1018093B00100312CE5120709F4FBC0D9
:101E800008F085C008308CE5180709F4E6C008F0B2
:101E900057C00430ECE51E0709F4D3C008F040C079
:101EA00002302CE5120709F4C6C08091B0018260AF
:101EB00003301C4509F4C2C06091B0011091B1011A
:101EC00084E090E00E948D1B612F81E290E00E94EF
:101ED0008D1B0E94300DBECE07E225EE45EE68ED6B
:101EE0007CE597C306E221EE40EE63EF7CE591C30B
:101EF00007E225EE44EE64EF7CE58BC306E221EEBB
:101F000042EE65EF7CE585C307E225EE46EE66EF1F
:101F10007CE57FC308E221E045EE69ED7CE579C30D
:101F200006308CE5180709F494C08091B0018860F0
:101F300007301C4508F482C08091B00180627EC0E9
:101F40008091B0018D7F0C30ECE51E0709F476C05E
:101F500070F48091B0018C600A302CE5120709F40E
:101F60006DC008F47EC08091B0018E7F67C00E30D6
:101F70008CE5180709F47BC08091B0018B7F0F308E
:101F80001C4508F45BC08091B0018F7E57C00B3FA9
:101F9000ECE51E0709F459C030F503312CE51207B2
:101FA00009F471C078F401318CE5180709F467C0B1
:101FB00002311C4509F080CF0E94300D8091B001A4
:101FC0008F773CC00531ECE51E0709F464C008F4C6
:101FD00078C08091B10181600A3F1C4509F06CCF47
:101FE0008093B10169CF0F3F3CE5130709F44FC05F
:101FF00088F48091B1018D7F0D3F9CE5190781F335
:102000008091B1018E7F0E3F1C4550F38091B1014C
:102010008360E6CF0130FDE51F0709F45BC008F4DB
:1020200046C060E002301D4509F046CF8EE090E0EA
:102030000E948D1B41CF8091B00181608093B001DF
:102040003BCF8091B0018460F9CF8091B101826073
:10205000C7CF8091B0018061F1CF8091B0018064E1
:10206000EDCF0E94300D8091B0018068E7CF809164
:10207000B001877FE3CF8091B0018F7DDFCF80916A
:10208000B0018F7BDBCF8091B001837FD7CF809170
:10209000B1018C7FA5CF8091B00182FB992790F987
:1020A00021E0922790FB82F990FB83F9C7CF8091C2
:1020B000B101982F909591708E7F892B90FB81F9BB
:1020C0008FCF0E94300D9091B001892F97FB87F937
:1020D0008058B4CF61E0AACF06319CE5190709F01A
:1020E000C3C2809150018A7A91E009F490E0909304
:1020F000D800811106C089E20E941E050E94E404F6
:10210000A9CD85E3F9CF85E3ACC20E94300DEFEB9A
:10211000F7E229E0E150F0402040E1F700C0000084
:102120000E94B40C0E94CD0C95CDC8010E943705C9
:10213000D82EB1C2212F2F70A22E107F19F0A29499
:1021400090EFA922DD20C9F0AA2069F080E2800F7B
:10215000883010F081100BC080915001A82AA09205
:1021600050010E94E404802F0E943B0918C0809116
:102170004F01A82AA0924F01F4CF802F0E947B0626
:10218000AA2069F0A094005E083010F081103DC0D4
:1021900080915001A822A09250010E94E404EB2DEE
:1021A000E850FF0B349720F40E946F060E94880CC1
:1021B000CC2009F414CD80914D0180FD10CDF701A4
:1021C00012828595859585950E944406C7010E94D7
:1021D000CE0D80914D018595859585950F900F9039
:1021E0000F900F900F90DF91CF911F910F91FF9063
:1021F000EF90DF90CF90BF90AF909F908F907F90A7
:102200006F905F904F900C94090680914F01A82227
:10221000A0924F01C2CF312F3F70932E107F10320A
:1022200019F0929480EF9822882071F081E088164E
:1022300061F1DD20B9F1AA2071F1F701858180FFFC
:1022400092CF8F70858327C0DD2091F0909151014E
:10225000892D892BA11003C00E949F05A0CFE1E02A
:10226000AE12FACF981709F49ACF8093510197CF05
:10227000A11006C00E94DE04892D0E9494058FCF14
:10228000F1E0AF1609F48BCFF5CFDD2031F025E07A
:102290002A1508F484CF892DDFCF34E03A1508F4ED
:1022A0007ECFEACFAA2041F3F9E38F1286C12FEF48
:1022B0003DEE82E0215030408040E1F700C0000058
:1022C0007CC1812F86958695837061F0813009F0FD
:1022D00066CFC8019370D11002C090E080E00E94E8
:1022E000A9055DCFC8019370D11002C090E080E0D5
:1022F0000E94BF0554CF812F837009F066C0D110B2
:102300004ECF802F829586958770880F880F602F1B
:102310006F70462E512C712C612C082E04C0440C79
:10232000551C661C771C0A94D2F740E050E0BA01B5
:1023300004FF0FC04FE050E060E070E004C0440FC5
:10234000551F661F771F8A95D2F740955095609567
:102350007095812F869586958370823019F1D8F417
:102360000091520110915301209154013091550177
:10237000813069F04429552966297729CB01BA01B2
:1023800060237123822393230E94650608CF402A8D
:10239000512A622A732ACB01BA0164297529862938
:1023A0009729F2CF442955296629772900915201AE
:1023B000109153012091540130915501CB01BA0184
:1023C0006027712782279327DFCF8695DD2011F0C4
:1023D000812F8170882309F4E2CE802F8295869523
:1023E0008770880F880F602F6F70462E512C712CCC
:1023F000612C082E04C0440C551C661C771C0A94E2
:10240000D2F740E050E0BA0104FF0FC04FE050E0C7
:1024100060E070E004C0440F551F661F771F8A9567
:10242000D2F74095509560957095812F8695869549
:102430008370823019F1D8F40091870210918802DC
:102440002091890230918A02813069F0442955290E
:1024500066297729CB01BA01602371238223932354
:102460000E94E3059CCE402A512A622A732ACB019E
:10247000BA016429752986299729F2CF442955295B
:10248000662977290091870210918802209189029C
:1024900030918A02CB01BA016027712782279327E6
:1024A000DFCF1F70DD2029F0812F0E944406802F8E
:1024B000D3CE802F0E949405812F0E9409066FCEF3
:1024C000802F92EF891609F450C0981578F0E0EF4C
:1024D0008E1619F1F1EF8F1609F43FC0DD2009F4D3
:1024E00067C0A11040CE812F8F713CC023EF8216B0
:1024F00009F440C034EF8312F1CFDD2009F44DC060
:102500001F71812F0E944406E8E01E9FC001112424
:10251000836080934D01812F25C0DD20C9F084E0C8
:102520008A1508F43CCE1F7161E070E080E090E015
:1025300004C0660F771F881F991F1A95D2F7009164
:102540008702109188022091890230918A02A4CFDB
:1025500095E09A1508F423CEE6CF812F8F71DD2008
:1025600009F4ABCF0E9444061ACE812F8F71DD2073
:10257000C9F3A3CF60E070E0CB01DD2009F470CF98
:102580001F7161E070E080E090E004C0660F771F8B
:10259000881F991F1A95D2F763CF81E00E942C06FD
:1025A000F1E0FA1508F0FBCD82E00E942C06F7CD91
:1025B000AA2039F0893309F47ACE802F0E947B0655
:1025C000EECD812F8F7179CF0031FFE51F0709F420
:1025D0001FCC01312FE5120709F424CC033F2CE571
:1025E000120709F47FCC08F01FCC083D9CE51907C1
:1025F00009F472CC093DECE51E0709F48BCC073DCC
:10260000FCE51F0709F01CCC06E221EE41EE67ED68
:102610007CE5C7010E946B0D1DCB00313FE5130720
:1026200009F4FCCB01319FE51907C1F682E0F7CB35
:1026300085E0DE01119601900D928A95E1F7F70190
:10264000228189819A812111E0CA0E943705182FC1
:10265000E4CA06311C4589F48091D800811153CD1C
:1026600089E20E9411054ACD01152CE5120709F4F3
:102670004CCD0E3D1C4509F455CDF701008111816B
:10268000882309F452CDC8010E949D0BD82E682FD3
:10269000C8010E945E05B8018D2D0E941E0A8C01A2
:1026A000882EF701A580A2943FE0A322D280D1100A
:1026B00010924F0180914D01877099F0DD2089F0D3
:1026C000812F807F803421F080E2800F883048F0B5
:1026D00082E00E942C0680914D018770CC24C39427
:1026E0008111C12CB12EB2942FE0B222FBE0FB1578
:1026F00008F455CDEB2DF0E0E352F44E0C94721B30
:102700001F93CF93DF938091DE00807FA9F48091A7
:10271000DB00882389F080911001D091DF00609167
:10272000D9007091DA00A091DC00B091DD00C62FD5
:10273000C72316E0D81304C0DF91CF911F910895ED
:1027400090E0109711F0CF3F19F401968770F2CF07
:10275000189F9001199F300D1124F901E052FF4F8D
:1027600041814713F2CF40814613EFCF428141119F
:10277000ECCF438154814A1B5B0B483C510528F741
:102780008091DE008F7080618093DE00F901EB5153
:10279000FF4F80818F708061808389ED90E00E947F
:1027A000CE0DDF91CF911F910C948A05AF92BF920D
:1027B000CF92DF92EF92FF920F931F93CF93DF930D
:1027C000CDB7DEB761970FB6F894DEBF0FBECDBFB1
:1027D0008C0185E0F801DE011D9601900D928A952D
:1027E000E1F7F80180819181E28029EDA22E20E0BD
:1027F000B22E6091DC007091DD006115710509F465
:102800003EC13091D9004091DA00232F24232F3F7D
:1028100009F435C1C380D480F090DB00F601E61BDB
:10282000F70BFF2009F4FBC02091DE00522F507FF0
:10283000E83CF10508F0BBC0511178C0FE2C4913EB
:1028400021C038131FC0E1101DC02F7020612093DC
:10285000DE00C5010E94CE0D8091DE00F801858367
:102860008F2D61960FB6F894DEBF0FBECDBFDF91FE
:10287000CF911F910F91FF90EF90DF90CF90BF907D
:10288000AF900895CD2829F0282F29232F3F09F054
:1028900014C120E0F22FF170DF2E20FF3DC0209107
:1028A00010014091DF0056E0241315C08D879E87EC
:1028B0008D859E850E94DF0B292F22952F70223057
:1028C000F8F0243020F59F70F9F0F8019581907FA1
:1028D000D9F4D12C1FC030E0529FF001539FF00D6E
:1028E0001124E052FF4F6181961306C06081861368
:1028F00003C06281E61210C02F5F3F4F2770D4CF14
:102900009F7011F0882329F3805E883010F3C8018E
:102910000E94CE0DFD2CA4CFEE2009F4A1CF809112
:10292000DE0081608093DE00F12C9ACF491312C043
:10293000381310C0E1100EC0F8012583C8010E94B1
:10294000CE0D86E0F801A9EDB0E001900D928A95D8
:10295000E1F786CF8D879E878D859E850E94E90B46
:10296000882309F1EE20F9F08091DE00803270F0CA
:102970002091D9003091DA0038872F831986DB86C1
:10298000CA868C87CE0107960E94CE0D86E0F8019C
:10299000A9EDB0E001900D928A95E1F70E948013B5
:1029A000FF24F3945DCFC8010E94CE0DF9CF5111E1
:1029B0000AC089ED90E00E94CE0D86E0F5011192EB
:1029C0008A95E9F7B1CF49130FC038130DC0E11054
:1029D0000BC0F8012583C8010E94CE0D86E0F501E9
:1029E00011928A95E9F73CCF8D879E878D859E85CC
:1029F0000E94E90B8823B9F2EE20A9F28091DE0053
:102A0000803220F22091D9003091DA003A83298374
:102A10001B82DD82CC828E83CE010196B5CFE83C4D
:102A2000F105E0F6FE2CEE2009F4BDCF491316C0E7
:102A3000381314C08091DE0080FD83CF982F907FE3
:102A400009F47FCFF8018583903F09F477CF982F61
:102A5000907F905F8F70892B858370CF8D879E8745
:102A60008D859E850E94E90B811190CF8091DE00BB
:102A700081608093DE00C8010E94CE0DF1CEEE2071
:102A800009F491CF8D879E878D859E850E94E90BE5
:102A9000F82E882309F487CF86E0F801A9EDB0E08D
:102AA00001900D928A95E1F78091D9009091DA001A
:102AB0000E94DF0B0E948013D3CE21E02E25EACEA8
:102AC0001F93CF93DF93CDB7DEB767970FB6F89418
:102AD000DEBF0FBECDBF4B8B5C8B6D8B7E8B8F8B28
:102AE0001A8A198A85E0FE017396DE011D9601900F
:102AF0000D928A95E1F786E0FE013D96DE0117967C
:102B000001900D928A95E1F7CE0107960E94D613A7
:102B1000882389F016E0809110019091DF008913DD
:102B200049C067960FB6F894DEBF0FBECDBFDF91E8
:102B3000CF911F91089586E0FE013796DE01119630
:102B400001900D928A95E1F78A859B85892B11F377
:102B50008F81988589238F3FE9F22091DF0030E053
:102B6000C9010196877099274091100148171906ED
:102B700071F40E94300D1092DF001092100186E077
:102B8000E9EDF0E0DF011D928A95E9F7C3CF96E009
:102B9000929FD001939FB00D1124A052BF4FFE0110
:102BA000319601900D929A95E1F78093DF000E9493
:102BB0008A05B0CF819FC001112480529F4F0E948F
:102BC000D613882309F4ADCF8091100190E00196CF
:102BD00087709927809310019ECF7F928F929F924A
:102BE000AF92BF92CF92DF92EF92FF920F931F931B
:102BF000CF93DF9300EB10E0A4EAB1E0712CCC247A
:102C0000C394D12CE80189918E01E82FE295EF70F1
:102C1000F0E091A98F70760101C0EE0C8A95EAF779
:102C2000892F8E2981AB92A97E2D7095972392AB27
:102C3000D8E7DA95F1F796EBA92E90E0B92E50E09F
:102C400040E030E020E0E50169915E01862E82944B
:102C50008FE08822912CE40188A990E06F7002C077
:102C6000959587956A95E2F780FD6DC0C601042EA3
:102C700002C0880F991F0A94E2F7282B392B4F5F67
:102C80005F4F40315105F9F681A9872381AB82A9B5
:102C9000E82AE2AA8D919C9111972817390709F427
:102CA00055C011963C932E9381E0782A1296D0E07D
:102CB000063B1D0709F0A6CF772009F449C081E043
:102CC0008093D0000E945F0D9093CF008093CE0040
:102CD0008091CE009091CF000E94CF040697E0F142
:102CE0008091A4019091A5019093C5018093C401A6
:102CF0008091A6019091A7019093C7018093C6018E
:102D00008091A8019091A9019093C9018093C80175
:102D10008091AA019091AB019093CB018093CA015D
:102D20008091AC019091AD019093CD018093CC0145
:102D30008091AE019091AF019093CF018093CE012D
:102D40001092D00009C090E080E097CF80E0ADCF36
:102D50008091D0008111BCCFA895872DDF91CF91B4
:102D60001F910F91FF90EF90DF90CF90BF90AF90A9
:102D70009F908F907F900895CDB7DEB764970FB680
:102D8000F894DEBF0FBECDBF0E945F0D7C0184B7FB
:102D9000806884BF84B7806884BF8FEF8BBB1ABA0A
:102DA00088BB17BA85BB14BA81EF82BB83E081BBB5
:102DB00088E19FE00FB6F894A89581BD0FBE91BD44
:102DC0008091A101811105C00E94BE1A81E080930B
:102DD000A10188E28093560184E0809357018FEF30
:102DE000809358011092590124E630E044E050E00D
:102DF00066E571E080EB0E944C1B892B81F087E92E
:102E00009AE30197F1F700C000004091570150E0AC
:102E100024E630E066E571E080EB0E944C1BE7E9B8
:102E2000FAE33197F1F700C000008FE0ECE6F0E044
:102E3000DE01119601900D928A95E1F78BE2809365
:102E4000560181E1809357018FE0FE013196A8E59C
:102E5000B1E001900D928A95E1F724E630E041E17E
:102E600050E066E571E080EB0E944C1B87E99AE335
:102E70000197F1F700C000001092560115E0109381
:102E8000570185E18093580110925A01109259011F
:102E900024E630E045E050E066E571E080EB0E941A
:102EA0004C1BE7E9FAE33197F1F700C0000084E139
:102EB0008093560186E0809357011092580110923A
:102EC000590110925A0110925B0124E630E046E06D
:102ED00050E066E571E080EB0E944C1B87E99AE3C5
:102EE0000197F1F700C000008AE18093560184E069
:102EF0008093570183E090E09093590180935801AB
:102F000024E630E044E050E066E571E080EB0E94AA
:102F10004C1BE7E9FAE33197F1F700C0000080911C
:102F20007B0090917C00A0917D00B0917E0029E112
:102F30002093560127E02093570110935801809366
:102F4000590190935A01A0935B01B0935C0124E670
:102F500030E047E050E066E571E080EB0E944C1BFA
:102F600087E99AE30197F1F700C0000080E690E05E
:102F70009093A3018093A20185B7886085BF8BB72A
:102F800080688BBF8BE4809397028093CC02809300
:102F9000A3028AE5809396028093CB028093A202DB
:102FA0008B9A80E0815009F06DC08B987894FFEB8C
:102FB00024ED31E0F15020403040E1F700C0000046
:102FC0008BE083BF8BEB8CBF82E089BFA0EBB0E0CE
:102FD00041E050E08D91E82FE295EF70F0E061A9BB
:102FE0008F709A0101C0220F8A95EAF7922F90956F
:102FF000962391AB82A9822B82AB80E0A63BB807D7
:1030000049F7A6EBB0E026EC30E041E050E08D91CE
:10301000E82FE295EF70F0E011A98F70BA0101C0BE
:10302000660F8A95EAF7962F9095912391AB82A926
:10303000862B82AB2A173B0751F7E4EAF1E0A4ECB8
:10304000B1E0119211921D921D9291E0E03BF907BF
:10305000C1F70E94ED15EFE2F5E73197F1F700C0F7
:1030600000000E94ED158091C40180FF13C080E034
:103070000E94700C6FEF7FEF90E080E00E94AA1B2F
:103080000E94B40CA895E7EBFBE03197F1F700C084
:10309000000088CF90E080E00E94871B8C3E9E4F0E
:1030A00011F00E94CD0C82E290E00E947F1B8132E1
:1030B00009F04AC283E290E00E947F1B823009F04F
:1030C00043C284E290E00E947F1B863109F03CC23B
:1030D00090E080E00E94871B8C3E9E4F11F00E9482
:1030E000CD0C82E090E00E947F1B8093B3010E9490
:1030F000DD099093B1018093B00183E090E00E94DC
:103100007F1B682F70E090E080E00E94650610E071
:10311000BB24BA9454E0352E6AED462E70E1572E4A
:10312000E0EC6E2EF9E07F2EACE0AA2E8091B10289
:10313000882309F477C01092B1020E945F0D7C01D0
:103140000E94140780915F02882309F44EC0809189
:10315000960284FF4AC00E94ED15A4EBB1E0E4ECB6
:10316000F1E010E000E0702F819191912D913D915F
:103170002817390709F473C02827392760E0CC24C1
:10318000C394D12CA9014C215D21452B09F461C0C8
:1031900069837A839C012C213D2191E0232B09F442
:1031A00090E09B830E945F0D8160782F9D838C83CC
:1031B00049815A816B818D810E946015000F111F1A
:1031C000F801EC54FE4F80819181C826D926D18226
:1031D000C0820E946F069091B201891731F00E945F
:1031E0006F068093B2010E94880C0E94E0080E9442
:1031F000140780915F02882309F44FC08091CB02AD
:1032000084FF4BC080915502803209F046C0E091A6
:103210006702E150E33108F087C0F0E0E751F44E77
:103220000C94721BC7010E94CF04069718F4112357
:1032300009F486CF0E94ED15E4ECF1E081919191C3
:10324000892B09F068C191E0E03DF907B9F711E079
:103250006DCF6F5FCC0CDD1C603109F093CF0F5F39
:103260001F4F0630110509F07ECFB88AB98A1A8A35
:103270000E945F0D8160782F9C8B8B8B48895989C8
:103280006A898C890E946015A4CF1092680270929E
:1032900069020E9487081092550210E047CF809182
:1032A0006802823009F45DC18330C1F08130E1F5FC
:1032B0002FB7F8946091C0017091C1018091C20153
:1032C0009091C3012FBF0E94781B60936902709395
:1032D0006A0280936B0290936C02DBCFA7E6B2E0A8
:1032E000E4ECF1E080819181329612969C931297E2
:1032F00013968C931397129631E0E03DF30791F704
:10330000C8CF80916802823079F46091690270912F
:103310006A0280916B0290916C020E94781B85E298
:1033200090E00E948D1BB5CFB0926702B2CF409162
:103330006A0260916902809168020E94EB099827F5
:103340008927982790936C0280936B02A2CF0091FB
:103350006B0210916C0210270127102780916802E0
:10336000C090690290E2C99E60011124869DC00C44
:10337000D11C112480916A0290E0880F991FC80E19
:10338000D91E612FC60186960E948D1B602FC60133
:103390008796C7CF0E940D0C7CCF5092680279CFE0
:1033A000109268024092690274CF009168021091F5
:1033B000690210270127102737E6C32E32E0D32EEB
:1033C00080906A02912CF401E959FD4F4F01C80128
:1033D0008A5D9C4F8C149D0409F45BCF0A3D110556
:1033E00050F40E947F1BF60184830F5F1F4FFFEF95
:1033F000CF1ADF0AECCFF6011482F7CF00916802F2
:103400001091690210270127102727E6822E22E05B
:10341000922EC0906A02C00ED12ED11CC8018A5DC6
:103420009C4FC016D10609F434CF0A3D110520F493
:10343000F40164810E948D1BFFEF8F1A9F0A0F5FBA
:103440001F4FECCF0E94600C24CF3092680221CF36
:10345000009168021091690210270127102797E652
:10346000C92E92E0D92E80906A02912C940129599C
:103470003D4F4901C80186968C149D0409F409CF7B
:10348000011533E0130750F40E947F1BF60184837B
:103490000F5F1F4FFFEFCF1ADF0AECCFF601148248
:1034A000F7CF0091680210916902102701271027B9
:1034B00087E6882E82E0982EC0906A02C00ED12E38
:1034C000D11CC80186960C151D0509F4E2CE011524
:1034D00023E0120720F4F40164810E948D1BFFEFAA
:1034E0008F1A9F0A0F5F1F4FECCF80E00E94700C75
:1034F0006FEF7FEF90E080E00E94AA1BCACE0E948F
:1035000087082FE739EA83E0215030408040E1F717
:1035100000C00000B5CDF89491B3939A892F8C60C8
:1035200081BB82B38A2582BBEFE5FAEE20E0E15051
:10353000F0402040E1F700C0000082B38A2582BB42
:1035400091BB9398789483CE60E085E290E00E94EE
:103550008D1B0E940D0C0E94600C81E00E94700C7B
:10356000B7CD85E290E00E947F1B10926902109215
:103570006A0210926B0280936C028BCE11B887E0C6
:1035800080B985B3836085BB86B7846086BF86B704
:10359000816086BF86B7806486BF0895EF92FF92F0
:1035A0000F931F93CF93DF93182FEB0116BE84EA7E
:1035B00086BF0E945F0D7C0106B607FE21C081B167
:1035C000887F883021F081B1887F8031B9F513B9C7
:1035D00084E886BF0E945F0D8C0106B607FE23C0FB
:1035E00021B1287F90E080E02831B1F081E090E0C7
:1035F000203411F490E080E09195819591090CC000
:10360000CF3FDC07C9F20E945F0D8E199F098C170E
:103610009D0790F28EEF9FEFDF91CF911F910F9159
:10362000FF90EF900895CF3FDC07B9F20E945F0D45
:10363000801B910B8C179D0780F2ECCF8FEF9FEFD3
:10364000EBCF0F931F93CF93DF93EB0183B984E804
:1036500086BF0E945F0D8C0106B607FE10C021B127
:10366000287F81E090E0283211F490E080E091958D
:1036700081959109DF91CF911F910F910895CF3FCF
:10368000DC0751F30E945F0D801B910B8C179D0787
:1036900018F38EEF9FEFEECFCF92DF92EF92FF9273
:1036A0000F931F93CF93DF936B018A017901B901C7
:1036B0000E94CE1AE6010C0D1D1DC017D10759F44A
:1036C00024E926BFDF91CF911F910F91FF90EF90DA
:1036D000DF90CF90089597FDF3CFB70189910E94B5
:1036E000211BEBCFEE0FFF1F0590F491E02D099405
:1036F0006927962769277827872778270895E199EA
:10370000FECF9FBB8EBBE09A99278DB30895A8E1A9
:10371000B0E042E050E00C94BF1B262FE199FECFB1
:103720009FBB8EBBE09A01970DB2021631F02DBB04
:103730000FB6F894E29AE19A0FBE08950396272FE8
:103740000E948E1B0E948D1B252F0E948E1B242FF2
:103750000C948E1B0196272F0E948E1B0C948D1BA0
:10376000262FE199FECF9FBB8EBB2DBB0FB6F894E1
:10377000E29AE19A0FBE01960895DC01CB01FC01AB
:10378000E199FECF06C0FFBBEEBBE09A31960DB2C9
:103790000D9241505040B8F70895F894FFCFF80BC0
:1037A000F80B010C010C030C010C010C010CF80BC3
:1037B000F80B080C010C010C080C9A109A100B1154
:1037C0000B116111CF10CF10CF107B11511260126D
:1037D000601245194F1981199719A719CA19941917
:1037E00094199419751A7F1ACD19D019D519FE1983
:0837F000221A251A281A511AA9
:1037F800CC040F09CB04DC08D808FF5A07070707D1
:1038080007070707070707070707070501050181D6
:103818008283E200E900EA00B500B600B700CD00F7
:103828008301CC008A01920194012102230224021F
:103838002502260227022A02B300B4006F00700096
:1038480032333435363790919293949596976061D8
:063858006263646566670F
:00000001FF
