:100000000C94EA020C942E030C9449030C942E03D6
:100010000C942E030C942E030C942E030C942E039C
:100020000C942E030C942E030C9494200C942E0309
:100030000C942E030C942E030C942E030C942E037C
:100040000C942E030C942E030C942E030C942E036C
:100050000C942E0329001E001F0020002100220006
:10006000230024002500260027002D002E004C0030
:100070002A004B002B0014001A000800150017007E
:100080001C0018000C00120013002F00300031007B
:1000900000004E00394104001600070009000A0064
:1000A0000B000D000E000F0033003400320028005A
:1000B00000000000E10064001D001B0006001900A4
:1000C000050011001000360037003800E50001512E
:1000D00052000000E000E300E20000000000000029
:1000E0002C0000000000E600E7000000E4005000E3
:1000F00051004F000100010001000100010001005A
:1001000001000100010001000100010001000100E7
:1001100001000100010001000100010001000100D7
:1001200001000100010001000100010001000100C7
:1001300000000100010001000100010001000100B8
:1001400001000100010001000100010001000100A7
:100150000000000001000100010001000100010099
:100160000100010001000100010001000100010087
:10017000010000000100010001000000000000007B
:10018000010000000000010001000000010001006A
:100190000100010001000100010001000100010057
:1001A0000100010001000100010001000100010047
:1001B0000100010001000100010001000100010037
:1001C0000100010001000100010001000100010027
:1001D0000000010001000100010001000100010018
:1001E0000100010001000100010001000100010007
:1001F00000000000010001000100010001000100F9
:1002000001000100010001000100010001000100E6
:1002100001000000010001000100000000000000DA
:1002200001000000000001000100000001000100C9
:1002300001000100010001000100010001000100B6
:1002400001000100010001000100010001000100A6
:100250000100010001000100010001000100010096
:100260000100010001000100010001000100010086
:100270000000010001000100010001000100010077
:100280000100010001000100010001000100010066
:100290000000000001000100010001000100010058
:1002A0000100010001000100010001000100010046
:1002B000010000000100010001000000000000003A
:1002C0000100000000000100010000000100010029
:1002D0000100010032190A00047F3F1F64321464D8
:1002E0003214783C1E1E140A052223252628292AAA
:1002F0002C2D2F3032333536383A3B3D3E40424389
:100300004547494A4C4E5051535557595A5C5E60C7
:1003100062646668696B6D6F71737577797B7D7FD9
:1003200081838587898A8C8E90929496989A9C9ED8
:100330009FA1A3A5A7A8AAACAEAFB1B3B4B6B8B9F4
:10034000BBBCBEBFC1C2C3C5C6C7C9CACBCCCDCE5C
:10035000D0D1D2D2D3D4D5D6D7D7D8D9D9DADADB3F
:10036000DBDBDCDCDCDCDCDDDDDDDDDCDCDCDCDCCB
:10037000DBDBDBDADAD9D9D8D7D7D6D5D4D3D2D20A
:10038000D1D0CECDCCCBCAC9C7C6C5C3C2C1BFBEF2
:10039000BCBBB9B8B6B4B3B1AFAEACAAA8A7A5A35D
:1003A000A19F9E9C9A98969492908E8C8A8987851C
:1003B00083817F7D7B79777573716F6D6B696866FB
:1003C0006462605E5C5A5957555351504E4C4A49CD
:1003D00047454342403E3D3B3A3836353332302F75
:1003E0002D2C2A292826252322FFAA7F55400001EB
:1003F00001010101010101010202020202020202E5
:1004000002030303030303030304040404040404B6
:10041000050505050506060606060707070707087A
:10042000080808090909090A0A0A0B0B0B0C0C0C2D
:100430000D0D0D0E0E0E0F0F0F10101111111212C7
:1004400013131414151516161717181819191A1A44
:100450001B1B1C1D1D1E1E1F2020212222232424A5
:10046000252626272829292A2B2C2D2D2E2F3031E1
:100470003232333435363738393A3B3C3D3E3F40F3
:100480004142434445464748494A4C4D4E4F5051DE
:100490005354555658595A5B5D5E5F616264656698
:1004A00068696B6C6D6F7072737577787A7B7D7E1F
:1004B0008082838587888A8C8E8F91939596989A6F
:1004C0009C9EA0A2A3A5A7A9ABADAFB1B3B5B7BA87
:1004D000BCBEC0C2C4C6C9CBCDCFD1D4D6D8DBDD5B
:1004E000DFE2E4E7E9EBEEF0F3F5F8FAFDFF0902ED
:1004F0003B00020100A0FA09040000010301010011
:1005000009210101000122400007058103080001C3
:10051000090401000103000000092101010001227A
:1005200032000705830308000112011001000000DA
:1005300008FEFF54410001010203010403300000E2
:10054000000C034C005A0020005300740000000C03
:10055000034C00650065004B0075000000040309B2
:100560000405010980A101850319012AB7001501BD
:1005700026B700950175108100C0050C0901A10185
:10058000850419012AA002150126A0029501751003
:100590008100C005010906A101050719E029E71539
:1005A00000250195087501810295017508810305F3
:1005B00007190029FF150026FF0095067508810020
:1005C0000508190129059505750191029501750325
:1005D0009103C00011241FBECFE5D8E0DEBFCDBF20
:1005E00004B603FE24C080917D0390917E03A09108
:1005F0007F03B09180038730904BA740B04BB9F494
:1006000010927D0310927E0310927F03109280035C
:1006100014BE84B7877F84BF0FB6F894A89581B5C0
:10062000886181BD11BC0FBEE0E0F8E3099511E0DF
:10063000A0E6B0E0EAE1FBE402C005900D92AA3327
:10064000B107D9F723E0AAE3B1E001C01D92AD37AD
:10065000B207E1F70E94F3200C945D250C94000092
:10066000A82FB92F80E090E041E050EA609530E09B
:1006700009C02D9182279795879510F0842795279B
:10068000305EC8F36F5FA8F30895EADF8D939D9302
:100690000895CF93CFB7CF93C395839BE9F7839BFF
:1006A0000EC0839B0CC0839B0AC0839B08C0839BA6
:1006B00006C0C0915403C395C0935403A6C0DF93F2
:1006C000C0915303DD27C55ADC4F839B02C0DF91E5
:1006D000E6CF2F930F931F9300B32FEF03FB20F967
:1006E0004F933F9310B34FEF012703FB21F93BE0FA
:1006F00031C04E7F012F10B3216028C0102F4D7FD5
:100700002260000000B329C04B7F2460012F00004D
:1007100010B32BC010B3477F28602AC04F7E00B3B0
:1007200020612CC04F7D10B320622FC04F7B00B3DF
:10073000206432C0422700B349934FEF00001027D6
:1007400013FB20F910B31C70C9F1297F91F2012726
:1007500003FB21F900B3237F89F2315058F11027B0
:1007600013FB22F910B3277E79F2012703FB23F94B
:100770002F7C81F200B3102713FB24F92F7971F23B
:1007800000C010B3012703FB25F92F7359F200C0F5
:1007900000B3102713FB26F9223040F200C010B33B
:1007A000012703FB27F9243028F64F77206810B380
:1007B0000000F9CF10E81ABF00271CC03B5031954C
:1007C000C31BD04010E81ABF0881033C11F10B3461
:1007D00001F1209150031981110F1213EDCF4A81BD
:1007E000441F093669F10D3211F0013E29F74F70AF
:1007F00009F0042F009359033F914F911F910F91DE
:100800002F91DF91CAB7C7FD47CFCF91CFBFCF910F
:10081000189520915903222379F31091570311233E
:1008200009F044C034300AF443C030935703209396
:100830005203109153033BE0311B3093530338C0F4
:1008400000915703013094F50AE54F7049F4309157
:10085000840034FD2FC000938400CDE2D3E02EC08D
:10086000433059F0443091F03091380334FD22C0C8
:1008700000933803C9E3D3E021C03091710334FD04
:1008800019C000937103C2E7D3E018C0309144034C
:1008900034FD10C000934403C5E4D3E00FC0279596
:1008A000A8F45150A9F4220F0000F9CF4AE503C083
:1008B00042ED01C0432FC4E1D0E032E011B31C602F
:1008C000939A11BB02B320E41CE05F93012756E02A
:1008D00002BB279520F4515021F4220FF9CF0127B4
:1008E00056E000003B5A02BBD0F2279528F4515045
:1008F00029F4220F0000F9CF012756E0279502BB0B
:1009000020F4515021F4220FF9CF012756E029910C
:10091000332302BB21F6037F10915803110FC651F8
:10092000D04002BB11F01093500310E81ABF0860CA
:1009300011B3137F402F437F5F9100C000C002BB03
:1009400011BB42BB59CFA8950C94A30898E2909391
:10095000A40294E09093A5029FEF9093A602809347
:10096000A70224E630E044E050E064EA72E080EB65
:100970000E94F914892B81F087E99AE30197F1F736
:1009800000C000004091A50250E024E630E064EA97
:1009900072E080EB0C94F91408950C94A6041F9354
:1009A000CF93DF93CDB7DEB72F970FB6F894DEBFA6
:1009B0000FBECDBF80913A01811105C00E946B141A
:1009C00081E080933A0180E00E94A60487E99AE3DF
:1009D0000197F1F700C000008FE0E5E8F0E0DE01EC
:1009E000119601900D928A95E1F78BE28093A40213
:1009F00081E18093A5028FE0FE013196A6EAB2E084
:100A000001900D928A95E1F724E630E041E150E053
:100A100064EA72E080EB0E94F91487E99AE3019797
:100A2000F1F700C000001092A40215E01093A50297
:100A30008BE08093A60288EC90E09093A8028093CC
:100A4000A70224E630E045E050E064EA72E080EB83
:100A50000E94F91487E99AE30197F1F700C00000BA
:100A600084E18093A40286E08093A5021092A602FE
:100A70001092A7021092A8021092A90224E630E078
:100A800046E050E064EA72E080EB0E94F91487E9E6
:100A90009AE30197F1F700C000008AE18093A40275
:100AA00084E08093A50283E090E09093A702809376
:100AB000A60224E630E044E050E064EA72E080EB15
:100AC0000E94F91487E99AE30197F1F700C000004A
:100AD0008091940090919500A0919600B09197001C
:100AE00029E12093A40227E02093A5021093A602F7
:100AF0008093A7029093A802A093A902B093AA02A0
:100B000024E630E047E050E064EA72E080EB0E94C7
:100B1000F91487E99AE30197F1F700C000002F96D6
:100B20000FB6F894DEBF0FBECDBFDF91CF911F91FE
:100B300008958FEF8BBB1ABA88BB17BA85BB14BA5E
:100B400081EF82BB83E081BB88E19FE00FB6F89420
:100B5000A89581BD0FBE91BD0C94CF04E4EAF2E0EC
:100B600027E1208322E2218362832091670023838F
:100B7000AB01440F551F460F571FBC0188EA92E096
:100B80000E94E12424E630E042E250E064EA72E0B0
:100B900080EB0C94F91470E00C94AE05CF93DF93C6
:100BA000C82F0E94BB06D82F882351F183E0809381
:100BB000A4028093A5028C2F8170C0FD84E0C1FD4A
:100BC0008260C2FD81608093A60224E630E043E0AB
:100BD00050E064EA72E080EB0E94F914892B81F006
:100BE00087E99AE30197F1F700C000004091A50260
:100BF00050E024E630E064EA72E080EB0E94F914F1
:100C00008D2FDF91CF91089581E0089581E00895BF
:100C10000C94060608950C940A061F93CF93DF9355
:100C200000D000D00F92CDB7DEB749835A836B83D3
:100C30003091910189819A8131111DC06623B9F0EB
:100C40002223A9F00E94241E182F682F89819A81DF
:100C50000E94D11D69817A81812F0F900F900F9092
:100C60000F900F90DF91CF911F910C94C5060E94B9
:100C7000FD1D182FEFCF0E94241E69817A81EDCFD0
:100C8000FC01262F408151816281738184810C9403
:100C90000D06CF93DF93EC0160E00E944006BE0199
:100CA000DF91CF910C940B060E945B1F811102C053
:100CB0000E9401200E9450110C94A1080C94A304DE
:100CC00008950E94B0190E9460062FEB87E299E018
:100CD000215080409040E1F700C000000C94B82003
:100CE0000F931F93CF93DF93EC0161E00E944006C6
:100CF0008C01BE010E940806882389F1BE01C8014B
:100D00000E941112882359F1BE01C8010E94CC1221
:100D1000882329F1BE01C8010E941E138823F9F01F
:100D2000BE01C8010E9441148823C9F0BE01C80158
:100D30000E94E010882399F08A81882339F00115F8
:100D40008CE5180751F00E3D1C4579F0CE01DF917E
:100D5000CF911F910F910C9404060E94610680E0D0
:100D6000DF91CF911F910F9108950E940120F7CF3D
:100D700008950C94B80681E00895CF93C82F0E947F
:100D8000B9068C2FCF910C94CE05E72FF0E095E0BB
:100D9000899FE00DF11D112484E0EE0FFF1F8A955D
:100DA000E1F7E60FF11DEE0FFF1FEC5AFF4F8591A3
:100DB00094910895CF93DF930E94C5060E94C607C1
:100DC000EC01811522E59207E8F5811531E59307DD
:100DD00008F0ACC0883E910510F5803E910570F595
:100DE000883A910570F4853A910508F078C0813011
:100DF000910521F1009711F1049700F5D0E0C0E0D2
:100E00001DC08F3B9105D0F7C85AD0E0CC0FDD1F35
:100E1000C856DF4F0990D881C02DD4640FC081150A
:100E200040E5940708F066C0C11580E4D80708F0D3
:100E30005EC0CE019A9581159F4100F7CE01DF91EA
:100E4000CF910895811536E5930718F5811545E58D
:100E5000940708F083C0C11584E5D80708F079C06D
:100E60009C2F969596959E0123703327C115D345E7
:100E700008F461C0C1E0D0E002C0CC0FDD1F2A95AC
:100E8000E2F730E2939FC0011124C82BD92BDA6816
:100E9000D5CFC1158AE5D80778F4C11599E5D907EA
:100EA00008F066C0C11528E5D20708F4A7CFDC2FEB
:100EB000CC27C06FD06AC2CFCE0190568115904228
:100EC00008F09CCF8D2F8F710E945D0890E0982FC5
:100ED000882788279F719C012C2BE90147C0C55AA0
:100EE000D0E0CA53DF4FC881D0E0D064A7CFDF7015
:100EF000D06AA4CFE4E096958795EA95E1F78370F0
:100F00002C2F26952695237040E2249F90011124D2
:100F1000382B8C2F8370C1E0D0E002C0CC0FDD1FD6
:100F20008A95E2F7C22BD32BDC6888CFD82FCC2749
:100F3000C16FD06A83CFC1E0D0E002C0CC0FDD1F0B
:100F40002A95E2F720E2929FC0011124C82BD92BE9
:100F5000EBCFDC2FCC27C46FD06A70CF0E945D0826
:100F6000C82FD0E0DC2FCC27CC27DF71D06266CF32
:100F70008C2F8F700E945D0834E0D695C7953A9506
:100F8000E1F7CF709C2FEC01D06958CF82389105E2
:100F9000B1F1B0F48133910509F475C048F4893298
:100FA000910509F469C08A32910509F473C0089566
:100FB0008533910509F459C08933910501F10895EC
:100FC000833E9105A9F138F4803E9105F9F0823E07
:100FD000910549F10895863E9105A9F1873E910555
:100FE000C9F1843E910519F520912C0321FF1FC002
:100FF00080912B0384FD14C087EE90E0089520912A
:101000002B032370A1F080EE90E0089520912B0334
:1010100020FD47C030912C0330FF09C024FF44C09D
:1010200090E080E004C020912B0322FDF7CF0895CB
:1010300020912B0322FD3BC030912C0330FDE3CFE8
:1010400024FFF5CFEDCF20912B0323FFF0CF24FD1C
:10105000E7CFD2CF20912B0323FD2CC030912C035E
:1010600031FFEECF84EE90E0089520912B0325FF11
:10107000DECF89E290E0089520912B0325FFD7CFA2
:1010800085E390E0089520912B0326FFD0CF8AE2DC
:1010900090E0089520912B0326FFC9CF81E390E0D3
:1010A000089589E390E0089583EE90E0089582EE3C
:1010B00090E0089586EE90E0089590912B0392FFC2
:1010C00006C0282F28712830F9F4877F846093FFA9
:1010D00006C0282F28712831F1F4877E8461209181
:1010E0002C0320FF06C0382F38713830D9F4877FA1
:1010F000816021FF06C0282F28712831D1F4877E16
:10110000816194FD877E0895282F24712430F9F69B
:101110008B7F8860DCCF282F2471243101F78B7EF0
:101120008861DDCF382F3171313019F78E7F8860BB
:10113000E0CF282F2171213121F78E7E8861E1CF08
:1011400008950C94A0080895E82FF0E0EE0FFF1F1B
:10115000E750FD4F808191810895089588E78A9531
:10116000F1F70895CF93DF93A9EDB0E04EED50E095
:10117000C1E0D0E08D91E82FE295EF70F0E061A939
:101180008F709E0101C0220F8A95EAF7922F9095E9
:10119000962391AB82A9822B82AB4A175B0751F74A
:1011A000A9ECB0E061E070E08D91E82FE295EF707E
:1011B000F0E041A98F709B0101C0220F8A95EAF7E8
:1011C000922F9095942391AB82A9822B82AB80E0E1
:1011D000A93DB80749F71092F0021092EF02109261
:1011E000FA021092F9021092F2021092F102109299
:1011F000FC021092FB021092F4021092F302109281
:10120000FE021092FD021092F6021092F502109268
:1012100000031092FF021092F8021092F70210924F
:1012200002031092010385E00E94A109DF91CF9192
:101230000C9454068F929F92AF92BF92CF92DF92FE
:10124000EF92FF920F931F93CF93DF9389EDE82ED8
:1012500080E0F82E0FEE12E0912CAA24A394B12C7A
:10126000F70181917F01C82FC295CF70D0E099A975
:101270008F70650101C0CC0C8A95EAF7892F8C2903
:1012800089AB8AA98C2C809488218AAB0E94AE08F5
:10129000E9ECF0E050E040E030E020E06191A62F82
:1012A000A295AF70B0E0D0968C9190E06F7002C0C4
:1012B000959587956A95E2F780FD3EC0C501042E9D
:1012C00002C0880F991F0A94E2F7282B392B4F5F31
:1012D0005F4F4031510511F789A9882289AA8AA94F
:1012E000C82ACAAAF801808191812817390739F1E3
:1012F0003183208381E0982A0E5F1F4FFEEDEF16A9
:10130000F0E0FF0609F0ACCF292D45E069EF72E06F
:101310008FEE92E00E94A2090E945E06892DDF9165
:10132000CF911F910F91FF90EF90DF90CF90BF90E2
:10133000AF909F908F90089590E080E0C6CF80E0BE
:10134000DACF0895FF920F931F93CF93DF93F82E78
:10135000092F162FD72FC42F222349F081E0809325
:101360003D010E94792090933C0180933B01809144
:101370003D018823A1F080913B0190913C010E94A6
:101380008520069760F0EF2DF02FA12FBD2F90E064
:1013900080E0D0E08C179D0744F010923D01DF9172
:1013A000CF911F910F91FF900895219131912D932D
:1013B0003D930196EFCFEF92FF920F931F93CF9340
:1013C000DF93EB01E82FD11110C0442321F0F0E0AE
:1013D000E251FC4FE4916E2F7E2F8E2FDF91CF9143
:1013E0001F910F91FF90EF9008950D2F10E0282F7F
:1013F00030E0442329F022513C4FF901249130E0A0
:10140000F6E0CF9FC0011124EFEFF0E0BF010E9492
:10141000F723AB018C2F90E0880F991FA5E5A49FBF
:10142000B001A59F700D1124861B970B982F990F63
:10143000980FBF01601B710B629FD001639FB00DBD
:10144000729FB00D11248B2F9D9FB0011124672F27
:101450007727EF01C61BD70BBE01629FE001639F98
:10146000D00D729FD00D11247F01E91AF108E09E82
:10147000B001E19E700DF09E700D1124672F77274B
:10148000E61BF70BE29F8001E39F100DF29F100D0A
:101490001124E12F722F4230510599F048F4411583
:1014A000510569F04130510581F0EB2F8D2F07C0B8
:1014B0004430510569F080F046305105B1F76E2F88
:1014C0008DCFE22F7B2F812FFACFE22F7D2FF7CF09
:1014D000EB2F822F712FF3CF7B2F822FED2FEFCFAA
:1014E00041E00C94DB090895CF93DF93762FE90157
:1014F000682F842F0E94700A798368838A83DF9122
:10150000CF910895493C08F048EC0C94740A8091FE
:101510000303982F9E7F61F48170826080930303A0
:1015200080910603893C18F088EC809306030895A7
:101530008635B0F381708465F1CF88E090E00C943B
:10154000F224CF92DF92EF92FF926B017C010E9416
:10155000870AB701A60188E090E0FF90EF90DF9046
:10156000CF900C940F25E3E0F3E083E080831182B9
:101570008FEF828388EC8383148260817181828102
:1015800093810C94A10A8091030380FF02C0869589
:10159000089580E0089590910703933018F49F5FB9
:1015A00090930703882351F0609103037091040323
:1015B00080910503909106030C94A10A089581E09F
:1015C0000C94CB0A90910703992319F091509093B2
:1015D0000703882351F06091030370910403809105
:1015E0000503909106030C94A10A089581E00C94E0
:1015F000E20A609168008091030380FF0AC0809135
:10160000670023E0829FC0011124885F9C4F0C94E7
:10161000CB058091690090916A0023E0829FF001E0
:101620001124E85FFC4F891750F711821082128253
:101630008F5F3396F8CF9091030390FF14C0909181
:10164000690020916A0033E0939FF0011124E85F64
:10165000FC4F921710F00C94F90A81836083428347
:101660009F5F3396F6CF0895CF93DF9300D00F920C
:10167000CDB7DEB79091030390FF0AC09E012F5FA4
:101680003F4F0E94820A4B8169818A810E941B0B15
:101690000F900F900F90DF91CF910895CF93DF932C
:1016A000EC01EC81F0E0E751FD4F4491E3E0F3E021
:1016B000628181810E94340B8C818F5F8C83DF91EA
:1016C000CF910895CF93DF93EC01E3E0F3E0438102
:1016D00062818C810E94340B8C818F5F8C83DF91BF
:1016E000CF9108950F931F93CF93DF9300D00F9264
:1016F000CDB7DEB78C0180913E0181110AC09E01F9
:101700002F5F3F4F48EC6FEF0E94820A8A818093DF
:101710003E01F8016481613069F080913E0140E052
:10172000662361F040E0623011F440913E0180E0B8
:1017300060E004C060913E0140E080E00E941B0B2D
:10174000F801848190E0019663E070E00E940B2430
:1017500084830F900F900F90DF91CF911F910F9185
:101760000895AF92BF92CF92DF92EF92FF920F93C4
:101770001F93CF93DF9300D00F92CDB7DEB7182F12
:10178000F62E042FE22E9091030390FF29C0E92F3B
:10179000E695AE2FB0E0A252BF4F8C9180937A01B4
:1017A0009E7F923059F59E012F5F3F4F812F0E94FF
:1017B000820A4B8169818A810E941B0B109304036A
:1017C000F092050300930603EE2051F060910303AD
:1017D0007091040380910503909106030E94A10A71
:1017E0000F900F900F90DF91CF911F910F91FF906D
:1017F000EF90DF90CF90BF90AF900895823019F4B2
:1018000000910603DBCF863019F410910403D6CF84
:101810008930D9F3893191F6E9518E2F8170D82E14
:10182000E695F0E0E751FC4FA590B490C12CBB24A5
:1018300060916B00C61618F00E94F90ABFCF2C2DDC
:1018400030E0A29EC001A39E900DB29E900D112487
:1018500070E00E94F723812FD11013C0860F4091B2
:101860006900420F532F511D9A01220F331F240F7D
:10187000351F285F3C4F402F6F2D0E94820AC39472
:10188000D7CF861BECCFE3E0F3E09181282F438193
:1018900062818AE0890F0C94B10B81E00C94430CB7
:1018A000E3E0F3E09181282F4381628186EF890F85
:1018B0000C94B10B81E00C94500CE3E0F3E06281F6
:1018C00021E1620F08F46FEF282F438181810C948E
:1018D000B10B81E00C945D0CE3E0F3E0628121E167
:1018E000621B08F460E0282F438181810C94B10BC6
:1018F00081E00C946C0CE3E0F3E0438121E1420FC2
:1019000008F44FEF282F628181810C94B10B81E0A4
:101910000C947B0CE3E0F3E0438121E1421B08F4EB
:1019200040E0282F628181810C94B10B81E00C94FE
:101930008A0C20E00C94B10BEF92FF921F93CF938F
:10194000DF93EC0110E0EE24EA94F12C60916B003F
:10195000161770F00E94F90A9A818C8190FF27C0B7
:101960008F5F8C83DF91CF911F91FF90EF9008954F
:1019700020916900422F410F5527551FCA019A0136
:10198000220F331F280F391F285F3C4F70E0C7011B
:101990000E940B24962F8C814091060360910503D1
:1019A000199F800D11240E94820A1F5FCFCF8150A2
:1019B000D8CFAF92BF92CF92DF92EF92FF920F9368
:1019C0001F93CF93DF93FC0182810FEF80FF01E033
:1019D00010E04AE0A42E80916B001817C8F00E9416
:1019E000F90A80914001013009F055C0811102C00F
:1019F00080916B00815080934001DF91CF911F91C6
:101A00000F91FF90EF90DF90CF90BF90AF9008952F
:101A1000C0916900C12ED12CCC0DDD2DD11DCE0180
:101A2000880F991FC80FD91FC85FDC4F1982188211
:101A30001A8234E0E32EF12CB12C809140018B0D01
:101A40008B301CF16A2D0E94E923892F082E000C8F
:101A5000990BC816D90691F4809106038E9DA001BA
:101A60008F9D500D112455954795559547959E018D
:101A700060910503809104030E94820AB00EF1E098
:101A8000EF1AF108D1F61F5FA6CF87FFDFCF909145
:101A90006B00890FDBCF90E0019660916B0070E0E6
:101AA0000E940B24A8CF0F931F93CF93DF938091B5
:101AB000690090916A0023E0829FF0011124E85FA1
:101AC000FC4F891740F1C0E0D3E060916B00C6176E
:101AD00040F10E94F90A2091650080913F01820F38
:101AE00080933F0190916600920F909366001916C3
:101AF00054F4082E000C990B40916B004150550B8B
:101B0000841795071CF0219520936500DF91CF91F4
:101B10001F910F9108951182108212828F5F339668
:101B2000D0CF0C2F10E070E0C8010E940B24209150
:101B30006900820F482F50E020913F01022E000CD7
:101B4000330B02171307BCF020916600022E000C25
:101B5000330B201731077CF08D9F90011124285FF3
:101B60003C4F4091060360910503809104030E945D
:101B7000820ACF5FAACFFA01EE0FFF1FE40FF51F15
:101B8000E85FFC4F118210821282F3CF8F929F92F6
:101B9000AF92BF92CF92DF92EF92FF920F931F937B
:101BA000CF93DF93EC014C81042F10E09801D80112
:101BB0000E944F249B01AC010E9465244B015C01F3
:101BC000E0E2F0E0E01BF10BA5E5B0E0AC019B0129
:101BD0000E9465246B017C019F01DF010E94472464
:101BE0009B01AC010E9470249B01AC01280D391DA2
:101BF0004A1D5B1DC701B6010E941F24F22E822FD1
:101C000090E039E23F1560F143E0249F90011124F8
:101C100035952795122F109500E085E5E82EEF18F1
:101C200080916B00081758F10E94F90A9C8181E0AD
:101C3000992319F0903219F48FEF8093640080910A
:101C40006400890F8C83DF91CF911F910F91FF90DA
:101C5000EF90DF90CF90BF90AF909F908F900895BE
:101C600025E530E0B901681B790B9B01220F331F7A
:101C7000260F371F37FFCCCF2F5F3F4FC9CF8E2D99
:101C800001FD8F2D20916900622F600F7727771F4C
:101C90009B01220F331F260F371F285F3C4F412F18
:101CA000609105030E94820A0F5FBACF0F931F93C2
:101CB000CF93DF93EC0110E000E090916B00901760
:101CC000110609F06CF40E94F90A8C8190E00196EB
:101CD000817099278C83DF91CF911F910F91089587
:101CE00020916900A801420F511D9A01220F331F54
:101CF000240F351F285F3C4F4C8160910503809174
:101D0000040396959017110651F04CF0442349F0C6
:101D1000409106030E94820A0F5F1F4FCECF4423DB
:101D2000B9F340E0F7CF8F929F92AF92BF92CF92DC
:101D3000DF92EF92FF920F931F93CF93DF93FC01FB
:101D4000B280948081E0848300E015E05BE4A52EFE
:101D500088248394EE24EA94F12C7BE4C72ED12CC2
:101D600080916B00081770F0DF91CF911F910F9158
:101D7000FF90EF90DF90CF90BF90AF909F908F90AB
:101D80000C94F90AC02FD0E01C9FF0011D9FF00DAC
:101D90001124EF5BFE4F91101CC013821282209120
:101DA0006900CE01820F911D9C01220F331F280F65
:101DB000391F285F3C4F1C9FF0011D9FF00D11241F
:101DC000EF5BFE4F4281618180810E94820A0F5F3A
:101DD000C7CF2381222379F12150238334818A2D97
:101DE000821B311101C0822F1C9FF0011D9FF00D3D
:101DF0001124EF5BFE4F90910603899FC0011124CF
:101E0000B6010E94F7236283211104C0332311F02D
:101E10001482A38222E02B1510F21C9FF0011D9F5B
:101E2000F00D1124EF5BFE4F8091040380838091BD
:101E300005038183B4CF0E94C424823091400CF00A
:101E4000AECF82E08B1530F50E94C424B7010E940A
:101E50000B241C9FF0011D9FF00D1124EF5BFE4F22
:101E6000808322E02B15C8F40E94C424209105032E
:101E70002695622F70E00E940B24280F1C9FF00112
:101E80001D9FF00D1124EF5BFE4F21831282A38270
:101E9000848285CF80910403DCCF20910503EECFAF
:101EA000E3E0F3E080818E7F8083608171818281B5
:101EB00093810E94A10A10927B012FEB84ED91E0A7
:101EC000215080409040E1F700C000000C94F90AD6
:101ED00060910303669570E04BE050E08CE690E083
:101EE0000E94D424892B19F481E080937B010E9405
:101EF0007920909374018093730108959091030366
:101F000090FF35C09170811128C0926090930303B7
:101F1000662351F0609103037091040380910503DF
:101F2000909106030E94A10A60910303669570E0F8
:101F30004BE050E08CE690E00E94D424892BA1F085
:101F400010927B0181E080937601409106036091BD
:101F50000503809104030C94990C8B3210F0946566
:101F6000D5CF880F982BD2CF0E94680FEBCF089562
:101F7000682F90910303969581E0890F8B3208F0CA
:101F800081E00C947E0F81E00C94B80F682F909143
:101F9000030396958FEF890F09F48AE20C947E0F64
:101FA00081E00C94C60F61E00C947E0FE3E0F3E057
:101FB00080818160808386950C94D30F8091030388
:101FC00080FD0C94500F0C94D60F60E00C947E0FA3
:101FD0008091790181112EC00E945B1F811104C084
:101FE0000E9401200E94B30A0E949D0A609303038D
:101FF0007093040380930503909306036E7F61F44E
:102000000E94B30A0E949D0A609303037093040325
:1020100080930503909306030E94870A10927B0128
:102020008091030380FF03C086950E94E50F81E045
:102030008093790108950F931F93CF93DF9380913D
:102040007B01882309F49DC080917A01E09103030C
:10205000E695E81BE09375018230C9F5F0E0EB519D
:10206000FD4FE491CE2FD0E00EE41BE0809176018D
:10207000882389F0109276010E9479209E01209594
:102080003095820F931F9093740180937301109287
:1020900078011092770180917301909174010E94F0
:1020A00085208C179D0708F46CC0E0917301F091B6
:1020B0007401CE0FDF1FD0937401C093730183E7C7
:1020C00091E0F801DF91CF911F910F910994863033
:1020D00049F4F0E0EE51FD4FE491CE2FD0E002E65E
:1020E0001BE0C4CF893051F4E695F0E0E152FD4F9A
:1020F000E491CE2FD0E00CE91CE0B8CF8F3051F442
:10210000E695F0E0E452FD4FE491CE2FD0E009EDEA
:102110001CE0ACCF853149F4F0E0E752FD4FE4918B
:10212000CE2FD0E003E51DE0A1CFC8E2D0E006EC61
:102130001DE0883109F49ACF833239F4E7EDF2E0FB
:10214000C591D49102E71BE091CFC4EFD1E006E541
:102150001EE0843209F48ACFC0EDD7E003E71AE02D
:10216000853209F083CF8E2F63E00E94DD23E92FB3
:10217000F0E0EC52FD4FE491CE2FD0E003E91EE0F9
:1021800075CFDF91CF911F910F910895FA018111C1
:1021900001C0FB010994CF93DF93C82FD62F0E9473
:1021A000C30A8C1740F00E94C30A8D1720F4DF91F8
:1021B000CF910C94C30F8C2FDF91CF910C94D30F40
:1021C0000F931F93CF938C01FB01C281CC2309F4A1
:1021D00065C00E94B91E8272F801E25CFC45E431E0
:1021E000F10538F4E15AFA4D0C9441240E94DE0FB7
:1021F000C0E08C2FCF911F910F91089540ED5FE0CB
:1022000063EC7FE00E94C610F3CF43EC5FE060ED2B
:102210007FE0F8CF4AE55CE06DE47CE0F3CF4DE48D
:102220005CE06AE57CE0EECF48E75CE069E67CE0F4
:10223000E9CF49E65CE068E77CE0E4CF46E95CE0B2
:1022400067E87CE0DFCF47E85CE066E97CE0DACF76
:1022500046EF5AE06FED7AE0D5CF4FED5AE066EFEA
:102260007AE0D0CF81E00E94D30FC2CF65E082E058
:102270000E94CB10BDCF68E086E0FACF6EE089E027
:10228000F7CF64E18FE0F4CF67E185E1F1CF88E13A
:10229000EACF62E289E1ECCF83E2E5CFC1E0A9CFEA
:1022A00008950E945B1F811102C00E9401200E94BC
:1022B000891F80932603803120F087708860809387
:1022C000260390912603892F817090FF04C0892FE7
:1022D0008695869586950C94CD0480912603982F3B
:1022E000987F19F4885F809326038091260381608C
:1022F000809326030E948D1F8091260386958695E4
:1023000086950C94CD0480912603982F987F79F0C0
:10231000885080932603887F91E009F490E08091B3
:10232000260390FB80F9809326030E948D1F8091E5
:1023300026038695869586950C94CD048091260378
:1023400080FD13C0816080932603813019F489E0F9
:1023500080932603809126030E948D1F809126037F
:102360008695869586950C94CD04089580912603D4
:1023700080FF08C08E7F809326030E948D1F80E01F
:102380000C94CD0408958091260380FD0C94B61121
:102390000C949E1190912603892F8695869586959B
:1023A0008F5F8F7197708230D8F4880F880F880FF5
:1023B000892B8093260380912603887F91E009F47E
:1023C00090E08091260390FB80F9809326030E9481
:1023D0008D1F809126038695869586950C94CD0455
:1023E00090932603E8CF811181E0909126039770A6
:1023F000282F220F220F220F922B90932603987FD3
:1024000021E009F420E09091260320FB90F99093BD
:1024100026030C94CD040E94F311809126030C94A2
:102420008D1F9C01FB018281882349F12D3BFCE536
:102430003F07C9F040F42B3BECE53E0769F02C3B2D
:102440003C4579F008952F3B9CE5390791F070F0F9
:10245000203C3C4589F0089581E00E940B1280E009
:10246000089580E0FACF0E948311F9CF0E946D1188
:10247000F6CF0E94C311F3CF0E94CA11F0CF81E0C2
:102480000895AF92BF92CF92DF92EF92FF920F9397
:102490001F93CF93DF937C015B01C42FD22FFC01EC
:1024A00082818823F9F040937E010E9479209093E5
:1024B0007D0180937C0180E28C0F883008F061C040
:1024C000C77081E001C0880FCA95EAF7DF91CF910C
:1024D0001F910F91FF90EF90DF90CF90BF90AF9042
:1024E0000C94501710917E01141340C080917C0110
:1024F00090917D010E9485206C01B701C5010E9469
:10250000261CC816D90690F5C0E2CD0F1D17B9F0EC
:1025100080E2810F883040F4177081E001C0880F9D
:102520001A95EAF70E945717C83048F481E09D2FAA
:10253000977001C0880F9A95EAF70E945017802F74
:102540000E943D17C830E8F4D77081E001C0880FC1
:10255000DA95EAF7DF91CF911F910F91FF90EF90FD
:10256000DF90CF90BF90AF900C94571780E28C0F04
:10257000883038F4C77081E001C0880FCA95EAF747
:10258000E9CFDF91CF911F910F91FF90EF90DF90F6
:10259000CF90BF90AF9008950F939C01CB01233F44
:1025A0004CE5340759F1A8F4283DFCE53F0701F15B
:1025B000293D4CE53407D1F1273D3C4591F406E235
:1025C00021EE41EE67ED7CE50E94411280E00F9123
:1025D0000895253FFCE53F07E9F0B0F0263F3C4574
:1025E000F9F0FC018281882339F110927E01EFCF4E
:1025F00007E225EE45EE68ED7CE5E6CF06E221EE4A
:1026000040EE63EF7CE5E0CF07E225EE44EE64EFB9
:102610007CE5DACF06E221EE42EE65EF7CE5D4CF31
:1026200007E225EE46EE66EF7CE5CECF08E221E03C
:1026300045EE69ED7CE5C8CF81E0C9CFCF93DF934C
:10264000EC01FB018281882309F419C1C230FCE549
:10265000DF07C0F1C6319CE5D90730F09E012A5F43
:102660003C452930310570F50E946E1F90932C0374
:1026700080932B03C031ECE5DE0709F4CFC008F0EE
:102680005BC0C8308CE5D80709F4B6C088F5C43003
:10269000ECE5DE0709F4A8C0C0F4C2308CE5D80729
:1026A00009F49CC080912B038260C330DC4509F49F
:1026B00098C080912B0390912C030E947C1F0E9454
:1026C000B01980E0DF91CF91089580912B03806154
:1026D000C630ECE5DE0709F484C080912B038860E6
:1026E000C730DC4508F47DC080912B03806279C03F
:1026F000CC308CE5D80709F489C070F480912B03A5
:102700008C60CA30ECE5DE0709F46BC008F478C0D1
:1027100080912B038E7F65C0CE308CE5D80709F4FD
:1027200079C080912B038B7FCF30DC4508F459C0F2
:1027300080912B038F7E55C0CB3FECE5DE0709F47B
:1027400057C030F5C3318CE5D80709F46FC078F471
:10275000C131ECE5DE0709F465C0C231DC4509F0A2
:10276000A8CF0E94B01980912B038F773AC0C53152
:102770008CE5D80709F462C008F476C080912C0378
:102780008160CA3FDC4509F094CF80932C0391CF40
:10279000CF3FFCE5DF0709F44DC088F480912C039E
:1027A0008D7FCD3F9CE5D90781F380912C038E7FEF
:1027B000CE3FDC4550F380912C038360E6CFC130DF
:1027C000FDE5DF0709F459C008F444C080E0C230D9
:1027D000DD4509F06ECF0E9403206BCF80912B0363
:1027E000816080932B0365CF80912B038460F9CFA8
:1027F00080912C038260C9CF80912B038064F1CF3C
:102800000E94B01980912B038068EBCF80912B033D
:102810008D7FE7CF80912B03877FE3CF80912B03C0
:102820008F7DDFCF80912B038F7BDBCF80912B03BC
:10283000837FD7CF80912C038C7FA7CF80912B03F0
:1028400082FB992790F921E0922790FB82F990FB77
:1028500083F9C7CF80912C03982F909591708E7F2C
:10286000892B90FB81F991CF0E94B01990912B0395
:10287000892F97FB87F98058B4CF81E0ACCF81E0F6
:1028800021CFCF93DF93EB0186319C4511F50E9458
:10289000B91E9A81992399F08A7A91E009F490E01F
:1028A00090937F01811109C089E20E94941E0E94C9
:1028B000F81E80E0DF91CF91089585E3F6CF8091F7
:1028C0007F01811104C089E20E949B1EF0CF85E345
:1028D000FBCF81E0EFCF11B887E080B985B383608B
:1028E00085BB86B7846086BF86B7816086BF86B7A2
:1028F000806486BF0895EF92FF920F931F93CF934A
:10290000DF93182FEB0116BE84EA86BF0E94792060
:102910007C0106B607FE21C081B1887F883021F096
:1029200081B1887F8031B9F513B984E886BF0E94F0
:1029300079208C0106B607FE23C021B1287F90E0E4
:1029400080E02831B1F081E090E0203411F490E093
:1029500080E09195819591090CC0CF3FDC07C9F2C9
:102960000E9479208E199F098C179D0790F28EEF97
:102970009FEFDF91CF911F910F91FF90EF900895FE
:10298000CF3FDC07B9F20E947920801B910B8C1796
:102990009D0780F2ECCF8FEF9FEFEBCF0F931F934C
:1029A000CF93DF93EB0183B984E886BF0E9479203F
:1029B0008C0106B607FE10C021B1287F81E090E0AF
:1029C000283211F490E080E0919581959109DF9192
:1029D000CF911F910F910895CF3FDC0751F30E94D3
:1029E0007920801B910B8C179D0718F38EEF9FEFBA
:1029F000EECFCF92DF92EF92FF920F931F93CF9380
:102A0000DF936B018A017901B9010E947B14E60111
:102A10000C0D1D1DC017D10759F424E926BFDF9105
:102A2000CF911F910F91FF90EF90DF90CF9008957D
:102A300097FDF3CFB70189910E94CE14EBCF90930D
:102A40008501809384010895E0918401F0918501CE
:102A5000309721F00190F081E02D099480E00895F5
:102A6000E0918401F0918501309721F00280F3819B
:102A7000E02D099408952091820130918301281757
:102A8000390771F09093830180938201E091840172
:102A9000F0918501309721F00680F781E02D0994AF
:102AA000089520918001309181012817390771F034
:102AB0009093810180938001E0918401F0918501E0
:102AC000309721F00084F185E02D0994089584B7B2
:102AD000806884BF84B7806884BF0895089508958E
:102AE0000C946F150E9467150E946E150C94990541
:102AF00081E008950C9478150E9472200E94B2081B
:102B00000E94D1200E9451110E94E80F0C94701570
:102B10009F92AF92BF92CF92DF92EF92FF920F936C
:102B20001F93CF93DF93CDB7DEB72A970FB6F894F4
:102B3000DEBF0FBECDBF0E941A090E947A158823FE
:102B400009F470C057E8A52E51E0B52E10E000E062
:102B5000902E802F0E94A4086C01F501E190F19065
:102B60005F01E816F90609F457C08091110281FD52
:102B70000E94AD0897012C253D2580E0EE24E394CA
:102B8000F12CA9014E215F21452B09F43FC08E8312
:102B90009F82CE20DF2081E0CD2809F480E0888765
:102BA0000E9479208160782F9A8789874E815F8182
:102BB00068858A850E943516000F111FF801E957B4
:102BC000FE4F80819181E826F926F182E0820E9401
:102BD0001B100E942415909186018917A1F10E9473
:102BE0002415809386012A960FB6F894DEBF0FBE97
:102BF000CDBFDF91CF911F910F91FF90EF90DF90AC
:102C0000CF90BF90AF909F900C94BD068F5FEE0C5D
:102C1000FF1C803109F0B5CF0F5F1F4F0530110544
:102C200009F096CF8FEF89838A831B820E947920D7
:102C30008160782F9D838C8349815A816B818D813E
:102C40000E943516C4CF2A960FB6F894DEBF0FBE89
:102C5000CDBFDF91CF911F910F91FF90EF90DF904B
:102C6000CF90BF90AF909F900895CF93DF93CDB753
:102C7000DEB72B970FB6F894DEBF0FBECDBF4F83E4
:102C8000588769877A878B871E821D8285E0FE01BF
:102C90003796DE01119601900D928A95E1F74981F0
:102CA0005A816B817C818D819E812B960FB6F89421
:102CB000DEBF0FBECDBFDF91CF910C94291CFC016C
:102CC000808191810C94661ECF93C82F882309F4CC
:102CD00083C08238C1F40E94241581FD7DC089E340
:102CE0000E94941E0E94F81E2FE789EA93E021506B
:102CF00080409040E1F700C0000089E30E949B1EE5
:102D0000CF910C94F81E8338A1F40E94241580FD05
:102D100063C083E50E94941E0E94F81E2FE789EA93
:102D200093E0215080409040E1F700C0000083E52F
:102D3000E5CF8438A1F40E94241582FD4DC087E4BC
:102D40000E94941E0E94F81E2FE789EA93E021500A
:102D500080409040E1F700C0000087E4CFCF8CEFC7
:102D60008C0F813A90F46C2F8091770090917800CD
:102D70000E941A20882329F08C2F0E949B1E0E94FB
:102D8000F81E8C2F0E94941EBBCF80E28C0F8830DF
:102D900048F4C77081E001C0880FCA95EAF70E9425
:102DA000BC1EAECFEBE5EC0FE33040F4F0E0E95CA5
:102DB000FE4F808190E0CF910C943B15C85AC731EB
:102DC00058F4EC2FF0E0EE0FFF1FE75FFE4F80811D
:102DD0009181CF910C945115CF910895882309F4D6
:102DE0004BC0823871F40E94241581FF45C089E3ED
:102DF0000E94941E0E94F81E89E30E949B1E0C9460
:102E0000F81E833859F40E94241580FF35C083E5ED
:102E10000E94941E0E94F81E83E5EFCF843859F477
:102E20000E94241582FF28C087E40E94941E0E94FD
:102E3000F81E87E4E2CF9CEF980F913AF0F290E20F
:102E4000980F983050F4877091E001C0990F8A95DF
:102E5000EAF7892F0E94C21ED2CF9BE5980F9330CC
:102E600020F490E080E00C943B15885A873120F4E0
:102E700090E080E00C9451150895CF93C82F0E94E4
:102E80006416C93349F42FEF8DEE92E02150804053
:102E90009040E1F700C000008C2FCF910C94EE160B
:102EA000882321F00E94BC1E0C94F81E08958823EC
:102EB00021F00E94C21E0C94F81E0895BF92CF927A
:102EC000DF92EF92FF920F931F93CF93DF936C01EA
:102ED000D62FC72FFC01058102950F7012811111A9
:102EE0000E94D91E0E94B21EE82E882391F0112361
:102EF000E9F08C2F807F803421F080E28D0F8830C4
:102F0000A8F082E00E94431F0E94B21E91E0E82ECA
:102F1000E926BC2EB2949FE0B922FBE0FB15A8F194
:102F2000EB2DF0E0ED58FA4D0C944124E12CF1CF5B
:102F30000C2F0F70C07F11F00295007F1123A9F0B4
:102F4000002359F080E28D0F883010F0D11109C0B4
:102F5000802F0E94BC1E0E94F81E8D2F0E946416B6
:102F600014C0802F0E94CC1EF6CF8D2F0E94EE162B
:102F7000002359F080E28D0F883010F0D1112CC061
:102F8000802F0E94C21E0E94F81E2B2D2850330B4A
:102F90002430310520F40E9424150E94BD06EE2045
:102FA00009F483C10E94AE1E80FD7FC1F60112822A
:102FB0000E94A81E0E94351DC6010E9476190E941B
:102FC000A81EDF91CF911F910F91FF90EF90DF909E
:102FD000CF90BF900C94561D802F0E94D21ED3CF4D
:102FE0002C2F2F70F22EC07FC03219F0F29480EF98
:102FF000F822DD2369F0D13049F1112391F100234A
:1030000051F1F601858180FFA8CF8F70858323C0A1
:10301000112381F0011106C00E94DF1E8F290E943A
:103020005017B3CF0130C1F70E94DF1E8F290E94D5
:10303000E51EABCF011106C00E94EE1E8F2D0E942F
:103040005717A3CF013009F4A0CFF6CF112329F0F1
:10305000063008F09ACF8F2DE2CF053008F095CFDB
:10306000EDCF002359F3D93349F4FFEF2DEE32E0D1
:10307000F15020403040E1F700C000008D2F0E9449
:10308000EE1683CF8C2F86958695837069F08130FC
:1030900009F07BCF8D2F9C2F9370111102C090E00F
:1030A00080E00E94511571CF8D2F9C2F93701111CC
:1030B00002C090E080E00E943B1567CF8C2F8370A8
:1030C00009F041C0111161CF4D2F429546954770CF
:1030D000440F440F0D2F0F7010E030E020E0042E5D
:1030E00004C0000F111F221F331F0A94D2F760E0A3
:1030F00070E0CB01D4FF0FC06FE070E080E090E0A3
:1031000004C0660F771F881F991F4A95D2F76095F4
:10311000709580959095C695C695C370602B712B60
:10312000822B932BC23049F058F4C13019F00E9421
:10313000E71C2BCF0E94D51C28CF0E94F91C25CF5D
:103140000E94D31C22CF8695112311F08C2F817001
:10315000882309F41ACF4D2F429546954770440FA6
:10316000440F0D2F0F7010E030E020E0042E04C05B
:10317000000F111F221F331F0A94D2F760E070E086
:10318000CB01D4FF0FC06FE070E080E090E004C09E
:10319000660F771F881F991F4A95D2F76095709523
:1031A00080959095C695C695C370602B712B822B28
:1031B000932BC23049F058F4C13019F00E94AC1D75
:1031C000E4CE0E949A1DE1CE0E94BE1DDECE0E947A
:1031D0000F1DDBCECF70112329F08C2F0E94351DDF
:1031E0008D2F1DCF8D2F0E9457178C2F0E94561D9B
:1031F000CCCED23F89F160F4D03FC9F0D13F29F164
:10320000112309F442C00111A8CE8C2F8F7121C067
:10321000D33F39F1D43FA1F7112369F1CF718C2F3E
:103220000E94351D63E08C2F0E942E1FAECE11230D
:1032300041F0053008F0A9CE8C2F8F710E94791DC6
:10324000A4CE063008F0A1CEF7CF8C2F8F711123BA
:1032500069F20E94351D99CE8C2F8F711123C9F30D
:10326000C5CF112329F08C2F8F710E94201D8DCE88
:103270000E941B1D8ACE81E00E94431F023008F489
:1032800084CE82E00E94431F80CE002359F0D933C0
:1032900009F0F4CE8FEF9DEEE2E081509040E040E7
:1032A000E1F7EACE8C2F8F71A1CFDF91CF911F91E3
:1032B0000F91FF90EF90DF90CF90BF9008950F9304
:1032C0001F93CF93DF93EC01688179818A810E94FB
:1032D000701E8C010E94D01D0E94D21CB801CE012C
:1032E000DF91CF911F910F910C945E17CF93DF93D5
:1032F000EC018B819C81892B29F08881998189231C
:103300008F3F59F4DF91CF910895CE010E945F194C
:10331000CE01DF91CF910C944906CE010E94700638
:103320008111F3CF0E94B21E882361F38A81882322
:1033300049F382E0DF91CF910C94431F0E94D91E84
:103340000E94DC1E0E94F81E90E080E00E943B1567
:1033500090E080E00C9451150E94A21E0C949E19DE
:103360000E94C91E0C94AC19E92FE295EF70E2504F
:10337000EE3070F4F0E0E158FA4D0C944124803FB7
:1033800019F020F4883E20F481E00895843FE1F3B1
:1033900080E00895883EC0F3813FD1F7F5CF93FBDD
:1033A000882780F908950E94661E0C94B419CF9363
:1033B000DF9300D000D00F92CDB7DEB70F900F9003
:1033C0000F900F900F90DF91CF910895CF93DF93DF
:1033D00000D000D000D0CDB7DEB726960FB6F89457
:1033E000DEBF0FBECDBFDF91CF9108951F93CF9366
:1033F000DF93C091920116E0809193018C1304C079
:10340000DF91CF911F910895D0E01C9FF0011D9F87
:10341000F00D1124EC56FE4F408151816281738181
:10342000848195810E94E6192196C770E5CF40916D
:10343000C4015091C5016091C6017091C70180918E
:10344000C8019091C9010C94E6191F93CF93DF93A3
:103450008091C901807FA9F48091C601882389F0F9
:1034600080919201C09193016091C4017091C50156
:10347000A091C701B091C801D62FD72316E0C81379
:1034800004C0DF91CF911F91089590E0109711F043
:10349000DF3F19F401968770F2CF189F9001199FB2
:1034A000300D1124F901EC56FE4F41814713F2CF44
:1034B00040814613EFCF42814111ECCF43815481CB
:1034C0004A1B5B0B483C510528F78091C9018F705E
:1034D00080618093C901F901E756FE4F80818F70AA
:1034E0008061808384EC91E00E947619DF91CF9116
:1034F0001F910C94F619AF92BF92CF92DF92EF9288
:10350000FF920F931F93CF93DF93CDB7DEB76197F1
:103510000FB6F894DEBF0FBECDBF8C0185E0F80179
:10352000DE011D9601900D928A95E1F7F801408128
:103530005181E28084ECC82E81E0D82E6091C701D1
:103540007091C8016115710509F461C19091C401C0
:103550002091C501892F82238F3F09F458C1A38090
:10356000B480F090C601F501E61BF70BFF2009F4CB
:10357000FCC08091C901382F307FE83CF10508F08C
:10358000B2C0311179C0FE2C251323C0941321C081
:10359000E1101FC08F7080618093C9010E94171ACB
:1035A000C6010E9476198091C901F80185838F2D8B
:1035B00061960FB6F894DEBF0FBECDBFDF91CF91FD
:1035C0001F910F91FF90EF90DF90CF90BF90AF9041
:1035D0000895AB2829F0842F85238F3F09F033C14C
:1035E00080E0F82FF170DF2E80FF3CC080919201C7
:1035F0002091930136E0821315C04D875E878D853B
:103600009E850E94661E292F22952F702230F0F091
:10361000243018F59F70F1F0F8019581907FD1F476
:10362000D12C1EC090E0389FF001399FF00D11247D
:10363000EC56FE4F6181651306C06081641303C0C0
:1036400062816E110FC001968770D5CF9F7011F007
:10365000882331F3805E883018F3C8010E94761900
:10366000FD2CA5CFEE2009F4A2CF8091C901816085
:103670008093C901F12C9BCF251306C0941304C07D
:10368000F801EE2009F48DC04D875E878D859E85FB
:103690000E94D319882319F1EE2009F18091C90104
:1036A000803270F02091C4013091C50138872F839A
:1036B0001986BB86AA868C87CE0107960E9476194A
:1036C00086E0F801A4ECB1E001900D928A95E1F753
:1036D0000E94251A0E94171AFF24F39468CFC8018C
:1036E0000E947619F9CF311113C07A2DB98AA88AB0
:1036F0006E2D89890E94D71984EC91E00E94761979
:1037000086E0F60111928A95E9F70E94171AB2CF66
:1037100025130FC094130DC0E1100BC0F801858371
:10372000C8010E94761986E0F60111928A95E9F7A0
:103730003ECF4D875E878D859E850E94D319882355
:1037400071F2EE2061F28091C901803208F4B8CFA5
:103750002091C4013091C5013A8329831B82BD8227
:10376000AC828E83CE010196A9CFE83CF10508F02A
:1037700041C0FE2CEE2009F4B2CF25132AC09413C9
:1037800028C08091C90180FD1BC0982F907FC1F097
:10379000F8018583903F31F0982F907F905F8F7074
:1037A000892B8583C8010E94761986E0F801A4EC74
:1037B000B1E001900D928A95E1F70E94171AF7CEB9
:1037C00086E0F801A4ECB1E001900D928A95E1F752
:1037D000EECE4D875E878D859E850E94D31981111F
:1037E0006FCF8091C90181608093C901C8010E9497
:1037F0007619DDCE7A2DB98AA88A6E2D89890E9424
:10380000D71986E0F60111928A95E9F7D6CFEE2016
:1038100009F465CF4D875E878D859E850E94D319FB
:10382000F82E882309F45BCF86E0F801A4ECB1E020
:1038300001900D928A95E1F784EC91E00E945F1669
:103840000E94251ABACF81E08E25CBCE88EC90E07D
:1038500008951F93CF93DF93CDB7DEB72C970FB6A4
:10386000F894DEBF0FBECDBF4F83588769877A8734
:103870008B879C87CE0107960E947B1A882369F06C
:103880008A859B85892B39F04F815885842F852324
:103890008F3F09F071C016E05FC086E0FE013796E9
:1038A000DE01119601900D928A95E1F78A859B853C
:1038B000892B89F38F81988589238F3F61F320912C
:1038C000930130E0C90101968770992740919201D8
:1038D0004817190671F40E94B019109293011092C2
:1038E000920186E0E4ECF1E0DF011D928A95E9F7B0
:1038F000D2CF96E0929FD001939FB00D1124AC5689
:10390000BE4FFE01319601900D929A95E1F780939A
:1039100093010E94F619BFCF819FC00111248C56DC
:103920009E4F0E947B1A8823E9F0E09192011E9F2E
:10393000F0011124EC56FE4F408151816281738168
:10394000848195810E94E6198091920190E0019610
:1039500087709927809392018091920190919301B1
:103960008913DACF2C960FB6F894DEBF0FBECDBF09
:10397000DF91CF911F91089569857A858B859C850C
:103980000E94E61988CF08950C94C31C0E94C41CA1
:1039900060930002709301028093020290930302ED
:1039A0000C949E1908950C94C61C0F931F930091BC
:1039B0000002109101022091020230910302602B5B
:1039C000712B822B932B1F910F910C94C61C0F937C
:1039D0001F93009100021091010220910202309188
:1039E000030260237123822393231F910F910C9470
:1039F000C61C0F931F9300910002109101022091A9
:103A000002023091030260277127822793271F91BA
:103A10000F910C94C61C0C94C31C0C940B1D0E949B
:103A20000D1D6093FC017093FD018093FE01909346
:103A3000FF010C949E1960E070E0CB010C940F1D07
:103A40000F931F9341E050E060E070E08A019B011A
:103A500004C0000F111F221F331F8A95D2F7C9011E
:103A6000B8011F910F910C940F1D0F931F9341E00C
:103A700050E060E070E004C0440F551F661F771FE0
:103A80008A95D2F78091FC019091FD01A091FE01F1
:103A9000B091FF018A019B01082B192B2A2B3B2B8C
:103AA000C901B8011F910F910C940F1D0F931F9323
:103AB00041E050E060E070E004C0440F551F661F15
:103AC000771F8A95D2F7CB01BA01609570958095E2
:103AD00090950091FC011091FD012091FE01309123
:103AE000FF0160237123822393231F910F910C9474
:103AF0000F1D0F931F9341E050E060E070E004C0A1
:103B0000440F551F661F771F8A95D2F78091FC01DD
:103B10009091FD01A091FE01B091FF018A019B01EE
:103B2000082719272A273B27C901B8011F910F91A0
:103B30000C940F1D0F931F930091FC011091FD0138
:103B40002091FE013091FF01602B712B822B932B72
:103B50001F910F910C940F1D0F931F930091FC0167
:103B60001091FD012091FE013091FF01602371232E
:103B7000822393231F910F910C940F1D0F931F937A
:103B80000091FC011091FD012091FE013091FF0197
:103B900060277127822793271F910F910C940F1D87
:103BA00008959295907F890F982F977041E001C0FA
:103BB000440F9A95EAF786958695869595E0899FB4
:103BC000F0011124E653FE4F30E020E070E0519107
:103BD000DF011197CB01022E02C0969587950A94BA
:103BE000E2F7817081958527842385278C932F5F49
:103BF0003F4F2530310559F708959295907F890FF1
:103C0000982F977086958695869525E0829FF0017E
:103C10001124E653FE4F50E040E080E0219130E077
:103C2000092E02C0369527950A94E2F721703327B2
:103C3000042E01C0220F0A94EAF7822B4F5F5F4FD8
:103C40004530510559F70895BF92CF92DF92EF9218
:103C5000FF920F931F93CF93DF938C01C090FC01D1
:103C6000D090FD01E090FE01F090FF0180910002F4
:103C700090910102A0910202B0910302C82AD92AB0
:103C8000EA2AFB2ACFE1D0E0BC2ED701C6010C2ED8
:103C900004C0B695A795979587950A94D2F780FDAD
:103CA0000EC0219788F7B12C8B2DDF91CF911F91FA
:103CB0000F91FF90EF90DF90CF90BF900895B801E3
:103CC0008C2F0E94DA06019761F3EECFCF93DF933A
:103CD000EC010E94241EBE01DF91CF910C94DA0604
:103CE0001F93CF93DF93EB0190919101992331F0D2
:103CF000CB01DF91CF911F910C94661E882379F040
:103D0000CB010E94241E182F682FCE010E94D11DC6
:103D1000BE01812FDF91CF911F910C94DA06CB0168
:103D20000E94FD1D182FF4CF682F8091770090918D
:103D300078000C945020682F809177009091780043
:103D40000C94522080917700909178000C9454202C
:103D5000809104028595859585950895809104024A
:103D60008770089590910402977081E009F480E0D3
:103D7000089580911002089590911002892B8093EC
:103D8000100208958095909110029823909310024C
:103D9000089510921002089590910F02892B80933C
:103DA0000F020895809590910F02982390930F022F
:103DB000089510920F02089510920E0208958091B6
:103DC0000502089508950C94E21E9091050298173B
:103DD00021F0809305020C94E31E08958091050262
:103DE000882329F01092050280E00C94E31E0895C8
:103DF000E0917700F0917800809110028083E0914B
:103E00007700F0917800808190910F02892B808358
:103E1000E0917700F0917800808190910E02892BDB
:103E2000808390910502992381F0E0917700F091D1
:103E300078008081892B8083809177009091780031
:103E40000E94082081110E94EE1E809177009091BF
:103E500078000C94301508950C942B1F98E0899FDE
:103E600090011124622B609304020E94351D809101
:103E700004028595859585950C942C1F109204025B
:103E800080E00C942C1F90910402809589238093EC
:103E90000402282F277071F4282F082E000C330BF2
:103EA0009217130639F08595859585950E94561DC4
:103EB0000C943E1F089590E080E00E94F82421E0D9
:103EC0008C3E9E4F09F020E0822F089582E090E022
:103ED0000C94EA2483E090E00C94EA24CF9384E0ED
:103EE00090E00E94EA24C82F81E290E00E94EA2438
:103EF000982F8C2FCF910895CF93C92F682F84E0EE
:103F000090E00E94FE246C2F81E290E0CF910C940F
:103F1000FE2486E090E00C94EA24682F86E090E08E
:103F20000C94FE24AB01BC018FE090E00C940F25B3
:103F3000AB01BC0183E190E00C940F2560E070E0E0
:103F4000CB010C94981F60E070E0CB010E94921F9F
:103F50000C949E1F6CEE7EEF90E080E00E941B258B
:103F600060E082E090E00E94FE2460E083E090E068
:103F70000E94FE241092000210920102109202028E
:103F80001092030260E084E090E00E94FE2460E072
:103F900081E290E00E94FE2460E085E090E00E94D3
:103FA000FE2460E086E090E00E94FE246FEF87E050
:103FB00090E00E94FE2440E050E0BA0188E090E0EA
:103FC0000E940F2560E08DE090E00E94FE2440E01A
:103FD00050E0BA0188E190E00E940F2560E087E19F
:103FE00090E00E94FE2440E050E0BA018CE190E0B5
:103FF0000E940F2560E080E290E00E94FE240C9475
:10400000A31F0C94AA1F682F8EE090E00C94FE244E
:104010009C012E5F3F4FAC01485F5F4F80E024174B
:10402000350709F40895F90191919F019923B9F396
:104030008F5FF5CF662349F0FC01329608962191F7
:10404000261729F0E817F907D1F780E0089581E0F5
:1040500008959C01FC0132969FEF80E04191461744
:1040600051F09F3F19F4411101C0982F8F5F8630A6
:10407000A9F79F3F09F40895290F311D97FD3A953F
:10408000F90162830895FC01329608962191261366
:1040900003C0DF0111971C92E817F907B9F70895DB
:1040A0000C9429200C944320029626E0FC011192E6
:1040B0002A95E9F7089508950895CF930E945B200B
:1040C0000E941A090E945C20C0E08C2F0E94A40864
:1040D000892B31F4CF5FC530C1F780E0CF910895CF
:1040E00081E0FCCF8BE083BF8BEB8CBF82E089BF8C
:1040F00008952FB7F8948091270390912803A091F9
:104100002903B0912A032FBF08959C014FB7F8945B
:104110008091270390912803A0912903B0912A034D
:104120004FBF821B930B089578941F921FB61F9266
:1041300011248F939F93AF93BF9380912703909106
:104140002803A0912903B0912A030196A11DB11D56
:104150008093270390932803A0932903B0932A0305
:10416000BF91AF919F918F911F901FBE1F90189587
:1041700060E081E090E00E94212587E090EBDC0187
:1041800080937D0390937E03A0937F03B09380037D
:1041900088E19CE00FB6F894A89581BD0FBE91BD53
:1041A000FFCF0E945B1F811102C00E9401200E946C
:1041B000661F809311020E946E1F90932C038093C0
:1041C0002B030E946A1F682F70E090E080E00E943D
:1041D000D31C6091FC017091FD018091FE019091D2
:1041E000FF010C940D1D0E9479208C010E94721514
:1041F0000E94E6210E941F150E94C2238B9A80E034
:10420000815039F58B987894FFEB24ED31E0F15033
:1042100020403040E1F700C000000E947C15C0E063
:10422000DCE0809154038823F1F0109254030E9443
:1042300079208C010E94D22280915A03882329F090
:104240008091380384FD0E9488150E948D21C0E072
:10425000E8CFA895E7EBFBE03197F1F700C000004D
:10426000CFCFC1E0DECFC8010E948520069710F4B1
:10427000CC2301F30E945D20C82F882391F3F8948A
:1042800091B3939A892F8C6081BB82B38D2782BBB7
:104290008FE5EAEEF0E08150E040F040E1F700C049
:1042A000000082B38D2782BB91BB93987894B9CFDD
:1042B0008091A30208950895CF93DF9300D00F92C9
:1042C000CDB7DEB790911402981307C02091120267
:1042D000309113022617370791F0809314027093E0
:1042E00013026093120289837B836A838091710336
:1042F00084FF05C063E0CE0101960E94CE220F909C
:104300000F900F90DF91CF910895BC0184E00C9441
:104310005C21BC0183E00C945C21CF93DF93CAE065
:10432000D0E08091380384FF1AC0809120029091E0
:104330002102981789F028E0829FC001112468E0CB
:104340008E5D9D4F0E94CA228091200290E00196CE
:104350008F70992780932002DF91CF9108950E945A
:10436000D22287EB9BE00197F1F700C00000219774
:10437000C1F6F2CFCF93DF93EC01A0912102B0E020
:10438000CD0101968F70992720912002281779F08E
:1043900093E0AA0FBB1F9A95E1F7AE5DBD4F98E081
:1043A000FE0101900D929A95E1F7809321020E94FF
:1043B000D2220E948D2188E0FE01A8E1B2E00190A6
:1043C0000D928A95E1F7DF91CF91089589E790E00A
:1043D0000895FC01808180768032F1F48181813002
:1043E00061F484819581892BB9F488E192E09093FE
:1043F00056038093550388E00895823041F482EAA1
:1044000092E0909356038093550381E008958A309B
:1044100029F483818093A20280E008958930E1F736
:10442000828193818115924069F484819581892BE1
:1044300049F481E080931702868197819093160258
:10444000809315028FEF0895FC01809115029091E1
:104450001602892B61F080911702813041F490811E
:104460009093A302109216021092150208958FEFF6
:1044700008950895FC019381933059F130F49130FF
:10448000C1F09230F1F080E00895913209F440C01B
:104490009232C9F784819581009709F44AC0019747
:1044A00091F781E695E0909356038093550382E35C
:1044B000089589E295E0909356038093550382E135
:1044C00008958EEE94E090935603809355038BE30A
:1044D00008958281813089F0882339F08230A9F0F3
:1044E000833089F68BE395E002C08DE595E09093EB
:1044F00056038093550384E008958FE495E09093EC
:104500005603809355038CE0089581E495E0F7CF3E
:104510008281882331F0813009F0B5CF89E195E0BF
:1045200002C080E095E0909356038093550389E0A4
:10453000089583E995E0909356038093550380E4B2
:1045400008951F93CF93DF93E82F792F162FEA0159
:10455000888184FF1CC0298188E828272983CE010F
:104560000296DC012E2F372F512F5E0FF90121917A
:104570002D939F01452F4E1B1416C4F3612F0E94EB
:1045800045031C5F1883DF91CF911F9108958AE541
:104590008883E5CF48E353E00C94A12241E753E040
:1045A0000C94A122CF93DF9360915703635067FD72
:1045B00012C080915303CCE0D0E0C81BD109C55A8A
:1045C000DC4F80915203803108F054C0CE010E942C
:1045D0003922109257038091840084FF3EC080915D
:1045E00083008F3FD1F1C82F893008F0C8E0982FA1
:1045F0009C1B9093830090912D0328E89227909321
:104600002D038823E9F08091550390915603209162
:10461000510326FFAEC0FC012C2FAEE2B3E0349173
:104620003D9331962150D9F79C012F5F3F4F8FEF7B
:104630008C0F820F932F911D9093560380935503F7
:104640006C2F8EE293E00E944503CC5FCC3019F0D2
:104650008FEF80938300C093840084E190B39C70BB
:1046600031F48150D9F71092580310925003DF9122
:10467000CF9108958D3209F069C0683009F0A9CF53
:1046800083EC80932D038AE580938400109251037C
:104690008881807671F0CE010E94E9218F3FC1F4BC
:1046A000988197FD8E8190E89093510380938300C9
:1046B00090CF2A81109236039981911111C01092E6
:1046C000370326E333E082E030935603209355030B
:1046D0009F819111EBCF9E81981740F7892FE6CFEC
:1046E000953029F42093580326E333E0EDCF96303C
:1046F00099F49B81913021F4CE010E943A2208C0A6
:104700009230D1F39330C1F39132B1F39232A1F3ED
:1047100090E490935103C2CF983089F0993019F406
:1047200020935A03E1CF9A3071F09B30E9F69BE475
:10473000909339039093720390934503D5CF2AE564
:1047400033E081E0C1CF26E333E0FBCF809151031A
:1047500087FF3FCFCE010E9424228F3F21F48EE1BC
:104760008093840036CF882309F433CF10928300DE
:1047700030CFDC012C2FEEE2F3E03D91319321505C
:10478000E1F752CFCF93DF9385B7886085BF8BB7B2
:1047900080688BBFC8E3D3E08BE48983A1E7B3E0F3
:1047A00011968C931197E4E4F3E081838AE5888382
:1047B0008C938083DF91CF910895991B79E004C099
:1047C000991F961708F0961B881F7A95C9F7809550
:1047D000089587FB082E062687FD819567FD619564
:1047E0000E94DD230EF4919507FC81950895AA1B84
:1047F000BB1B51E107C0AA1FBB1FA617B70710F0CC
:10480000A61BB70B881F991F5A95A9F780959095FD
:10481000BC01CD01089597FB072E16F4009407D034
:1048200077FD09D00E94F72307FC05D03EF4909550
:1048300081959F4F0895709561957F4F0895A1E2EE
:104840001A2EAA1BBB1BFD010DC0AA1FBB1FEE1F0A
:10485000FF1FA217B307E407F50720F0A21BB30B55
:10486000E40BF50B661F771F881F991F1A9469F7D1
:1048700060957095809590959B01AC01BD01CF012D
:104880000895EE0FFF1F0590F491E02D09940E940A
:104890004F24332312F48A1B9B0B0C946024A29F99
:1048A000B001B39FC001A39F700D811D1124911D04
:1048B000B29F700D811D1124911D08950E944F24F7
:1048C000B7FF0895821B930B08950E944F24A59F64
:1048D000900DB49F900DA49F800D911D11240895FB
:1048E000B7FF0C9465240E946524821B930B0895E6
:1048F0008F929F92AF92BF92CF92DF92EF92FF92F0
:10490000CF93DF93EC01688179818A819B81611566
:1049100071058105910521F464E279ED8BE597E05D
:104920002DE133EF41E050E00E943E2549015A015C
:104930009B01AC01A7EAB1E40E9465246B017C01F4
:10494000ACEEB4EFA50194010E947324DC01CB010D
:104950008C0D9D1DAE1DBF1DB7FF03C00197A109A2
:10496000B04888839983AA83BB839F77DF91CF91D7
:10497000FF90EF90DF90CF90BF90AF909F908F907F
:1049800008950E947824089580E690E00E9478249B
:104990000895B0E0A0E08093600090936100A09340
:1049A0006200B09363000895FC014150504030F024
:1049B00001900616D1F73197CF01089588279927DE
:1049C0000895FB01DC0102C001900D92415050405E
:1049D000D8F70895E199FECF9FBB8EBBE09A992747
:1049E0008DB30895A6E1B0E044E050E00C9430258A
:1049F000A8E1B0E042E050E00C943025262FE19988
:104A0000FECF9FBB8EBBE09A01970DB2021631F02C
:104A10002DBB0FB6F894E29AE19A0FBE0895039663
:104A2000272F0E94FF240E94FE24252F0E94FF248E
:104A3000242F0C94FF240196272F0E94FF240C940E
:104A4000FE24262FE199FECF9FBB8EBB2DBB0FB658
:104A5000F894E29AE19A0FBE01960895DC01CB0129
:104A6000FC01E199FECF06C0FFBBEEBBE09A319698
:104A70000DB20D9241505040B8F70895052E97FBA6
:104A80001EF400940E94552557FD07D00E941F2454
:104A900007FC03D04EF40C94552550954095309565
:104AA00021953F4F4F4F5F4F08959095809570959A
:104AB00061957F4F8F4F9F4F0895F894FFCFF61069
:104AC000FE1005110A110F11141119111E112311D5
:104AD00028112D11321136113B113E114111441193
:104AE000471149114C1198179817F017F0174218F1
:104AF000C517C517C5175E18EA18F918F918BF19B0
:104B0000BF19C819C819CA19C819C819C819BF19AD
:0A4B1000BF19CF19C819C819CF1931
:104B1A0001000000010102000A000A0A01191A1B19
:104B2A001C1D1E1F20212206025821BA215B218941
:104B3A00218521FF5A050505050505050505050514
:104B4A000505050505010501E200E900EA00B500D1
:104B5A00B600B700CD008301CC008A01920194010E
:104B6A002102230224022502260227022A02B30076
:104B7A00B4006F007000818283909192939495960D
:104B8A00976061626364656667333435363700015E
:104B9A00020202020606060909090909090F0F0F8E
:104BAA000F0F0F1515151819191919191919191996
:104BBA00192324252525252525E200E900EA00B543
:104BCA0000B600B700CD008301CC008A019201949F
:104BDA00012102230224022502260227022A02B305
:0A4BEA0000B4006F007000818283A8
:00000001FF
