:100000000C94BC010C94D9010C94F4010C94D9010A
:100010000C94D9010C94442A0C94D9010C94D90164
:100020000C94D9010C94152A0C94D9010C94E6294E
:100030000C94D9010C94D9010C94D9010C94D901D8
:100040000C94D9010C94D9010C94D9010C94D901C8
:100050000C94D901B3239F23CF23A323A523A72344
:10006000AB23CD23AF23B123AD23BB23D523B523AE
:10007000D923DD23E623DF23DF23DF23DF23DF2371
:10008000DF23DF23DF23DF23CB23C923D723B923B8
:10009000DB23E123A123DF23DF23DF23DF23DF2390
:1000A000DF23DF23DF23DF23DF23DF23DF23DF2340
:1000B000DF23DF23DF23DF23DF23DF23DF23DF2330
:1000C000DF23DF23DF23DF23DF23BD23C523C1237A
:1000D000A923B723D123DF23DF23DF23DF23DF237C
:1000E000DF23DF23DF23DF23DF23DF23DF23DF2300
:1000F000DF23DF23DF23DF23DF23DF23DF23DF23F0
:10010000DF23DF23DF23DF23DF23BF23C723C32333
:10011000D32305010906A101050719E029E7150008
:1001200025019508750181029501750881039505E2
:1001300075010508190129059102950175039103BF
:100140000507190029FF95067508150026FF00818F
:1001500000C00600FF0901A101150026FF00750877
:10016000850195070900B20201850295830900B255
:100170000201C005010980A1018504150125B719F7
:100180000129B7751095018100C0050C0901A10175
:1001900085031501269C0219012A9C027510950100
:1001A0008100C009023B00020100A0FA090400001E
:1001B000010301010009210101000122400007059E
:1001C0008103080001090401000103000000092166
:1001D0000101000122510007058303080001FEF818
:1001E000F6FB01020408102040800000FC001C32D5
:1001F0002123242B3433433B424B3A31444D152DBC
:100200001B2C3C2A1D22351A161E26252E363D3E55
:1002100046455A76660D294E55545B5D5D4C520E2F
:1002200041494A580506040C030B830A0109780763
:100230007C7E7C706C7D71697A746B7275774A7C98
:100240007B795A69727A6B73746C757D7071612FEA
:10025000001412111F145911270000373F5E481077
:100260003A38302820184D153B34233221502B408A
:100270004B1C43221D0000F1F2370F0810182028F4
:100280003038404850575F6D000081008200830085
:100290008A012102230224022502260227022A02C1
:1002A000B500B600B700CD00E200E900EA00830126
:1002B00092019401000000000000000000009190F5
:1002C000666768696A6B6C6D6E6F70717273858634
:1002D000464800488E8D007172738F006A6B6E6D98
:1002E0006546494A4B4C4D4E52504F5154587172CD
:1002F000737475767778797A7B7C7D7E7F80818256
:10030000838485868788898A8F00494C4A4D4B4E65
:100310006A6E65504F525154003953470004030927
:10032000041C03770069006E006B00650079006CA7
:10033000006500730073002E006B007200120370E2
:100340000073003200610076007200470042001224
:1003500001100100000008A0202D4205010102004B
:100360000145464765666700202B2D2E303132331C
:10037000343536373839680011241FBECFE5D8E050
:10038000DEBFCDBF10E0A0E6B0E0EAE7FCE502C0CA
:1003900005900D92A238B107D9F714E0A2E8B0E0B9
:1003A00001C01D92AC3FB107E1F70E94CD2A0C9429
:1003B0003B2E0C940000A82FB92F80E090E041E084
:1003C00050EA609530E009C02D9182279795879576
:1003D00010F084279527305EC8F36F5FA8F3089567
:1003E000EADF8D939D930895CF93CFB7CF93C395B5
:1003F000839BE9F7839B0EC0839B0CC0839B0AC041
:10040000839B08C0839B06C0C091D304C395C0934F
:10041000D304A3C0DF93C091D204DD27C652DB4FC3
:10042000839B02C0DF91E6CF2F930F931F9300B3FE
:100430002FEF03FB20F94F933F9310B34FEF0127AA
:1004400003FB21F93BE031C04E7F012F10B3216047
:1004500028C0102F4D7F2260000000B329C04B7FC1
:100460002460012F000010B32BC010B3477F286019
:100470002AC04F7E00B320612CC04F7D10B3206294
:100480002FC04F7B00B3206432C0422700B3499392
:100490004FEF0000102713FB20F910B31C70C9F1B7
:1004A000297F91F2012703FB21F900B3237F89F211
:1004B000315058F1102713FB22F910B3277E79F23F
:1004C000012703FB23F92F7C81F200B3102713FBD4
:1004D00024F92F7971F200C010B3012703FB25F92D
:1004E0002F7359F200C000B3102713FB26F92230F6
:1004F00040F200C010B3012703FB27F9243028F68F
:100500004F77206810B30000F9CF10E81ABF00271A
:1005100019C03B503195C31BD04010E81ABF088169
:10052000033CF9F00B34E9F02091CF041981110F4D
:100530001213EDCF4A81441F093641F10D3211F0FB
:10054000013E29F70093D8043F914F911F910F91DD
:100550002F91DF91CAB7C7FD4ACFCF91CFBFCF91BF
:1005600018952091D804222379F31091D6041123F1
:10057000C1F53430C2F13093D6042093D1041091E8
:10058000D2043BE0311B3093D2042DC00091D6043D
:1005900001303CF50AE54F7049F430917F0034FD9D
:1005A00024C000937F00C8EBD4E023C0433049F05F
:1005B0003091C30434FD19C00093C304C4ECD4E0EB
:1005C00018C03091F00434FD10C00093F004C1EF66
:1005D000D4E00FC02795A8F45150A9F4220F0000D1
:1005E000F9CF4AE503C042ED01C0432FC4E1D0E09A
:1005F00032E011B31C60939A11BB02B320E41CE0FB
:100600005F93012756E002BB279520F4515021F457
:10061000220FF9CF012756E000003B5A02BBD0F26F
:10062000279528F4515029F4220F0000F9CF012713
:1006300056E0279502BB20F4515021F4220FF9CF48
:10064000012756E02991332302BB21F6037F109145
:10065000D704110FC651D04002BB11F01093CF0444
:1006600010E81ABF086011B3137F402F437F5F91DA
:1006700000C000C002BB11BB42BB66CFA89AA99ABA
:1006800086B7846086BF109282000895BC010898E6
:10069000099880EE9EE20E94482C603130F0862F4F
:1006A00090E0409795958795682F60B9089586B733
:1006B0008F70806A86BF089586B78F70806D86BF01
:1006C0000895FC01108205C080818F5F8083803A8D
:1006D00018F406B607FEF8CF089583B986B78F7071
:1006E000806886BF0895882321F086B78F70806C5C
:1006F00003C086B78F70806886BF089583B1089560
:10070000CF92DF92EF92FF920F931F93DF93CF93DD
:100710000F92CDB7DEB7E82EF62E6A0186B78E7F30
:1007200086BF0E9457038E010F5F1F4FC8010E94B2
:1007300061038981803A08F58E2D8E7F0E946D03BA
:10074000C8010E9461038981803AB8F481B188317F
:1007500059F011E00CC0F60181916F010E946D0308
:10076000C8010E946103FA94FF20A9F710E00E94DB
:100770005C0386B7816086BF01C011E0812F0F90B6
:10078000CF91DF911F910F91FF90EF90DF90CF906D
:100790000895CF92DF92EF92FF920F931F93DF9312
:1007A000CF930F92CDB7DEB7C82ED62E7A0186B77B
:1007B0008E7F86BF0E9457038E010F5F1F4FC801B7
:1007C0000E9461038981803AC8F58C2D81600E9466
:1007D0006D03C8010E9461038981803A78F581B177
:1007E000803491F011E024C081E00E947303812FD6
:1007F000902F0E9461038981803A00F583B1F7014F
:1008000081937F01DA9403C0C801102F092FF1E012
:10081000FD1550F380E00E947303812F902F0E94FA
:1008200061038981803A50F483B1F701808310E03D
:100830000E945C0386B7816086BF01C011E0812FF2
:100840000F90CF91DF911F910F91FF90EF90DF906C
:10085000CF9008950F931F93982FF801442321F010
:10086000222391F484E003C0222371F082E080838C
:10087000662329F080912701892B8093270180919D
:100880002601892B809326011F910F9108952091B5
:10089000A200222309F457C08091A8009091A900DA
:1008A00001969093A9008093A800853691050CF4D9
:1008B00052C0213011F02330E1F480912601982FAD
:1008C00080FF07C08091270180FF02C0909A01C07D
:1008D000909891FF07C08091270181FF02C0919AF3
:1008E00001C0919896FF27C08091270186FF20C004
:1008F00021C0243011F02230F1F480912601982F8C
:1009000080FF07C08091270180FF02C0909801C03E
:10091000909A91FF07C08091270181FF02C09198B2
:1009200001C0919A96FF07C08091270186FF02C0FF
:10093000969801C0969A1092A9001092A800215092
:100940002093A20008951092270110922601109280
:10095000A9001092A8000895662361F0813011F477
:10096000909A0895823011F4919A0895843069F430
:10097000969A0895813011F490980895823011F478
:1009800091980895843009F496980895CF93DF9351
:10099000FC0180916800818380918700828380912F
:1009A0000E0190910F0163E070E00E94482C638378
:1009B000EF012496A7E1B1E083E00D900992815008
:1009C000E1F7EF012796AAE1B1E083E00D900992EB
:1009D0008150E1F7EF012A96ADE1B1E083E00D909F
:1009E00009928150E1F789EF90E09F01235F3F4F2B
:1009F000E901DC0143E00D9009924150E1F70396D3
:100A00002D5F3F4F41E08E30940791F78091840035
:100A100082A3EF01A396A0E2B1E083E00D900992DA
:100A20008150E1F780918B0086A38091690087A3B4
:100A300080918A0080A78091670081A7EF01E096EE
:100A4000AAEAB0E083E00D9009928150E1F790911D
:100A50006B009295907F80916A008F70982B93A77E
:100A6000DF91CF910895809184008F5F80938400FF
:100A7000833011F41092840080918500816080930E
:100A800085000895EF92FF920F931F9320910E011E
:100A900030910F01809115019091160182179307F3
:100AA00020F08FEF8093B0001DC060911301709112
:100AB00014017B01E81AF90A621B730B80E090E0D5
:100AC0002DEC30E040E050E00E941D2C0027F7FCA8
:100AD0000095102FA80197010E946F2C2E5C3F4FAC
:100AE0002093B0001F910F91FF90EF9008952091F7
:100AF00010013091110180910E0190910F01281782
:100B0000390720F430930F0120930E0108958823B4
:100B100009F448C0809368008F3F11F48CE003C053
:100B2000893118F088E180936800209168008CEC8E
:100B300095E1622F70E00E945C2C70931401609329
:100B4000130132E06B3F730734F08AEF92E0909329
:100B50001401809313018EE898E0622F70E00E94E8
:100B60005C2C709316016093150122E06B3F7207B5
:100B700034F08AEF92E090931601809315018091F2
:100B80008100882329F4809115019091160104C0F9
:100B900080911301909114019093110180931001A1
:100BA0000E94770508951092860008958093A3000F
:100BB00008958091A30008952091670030E0AC0172
:100BC000429FC001439F900D529F900D11246FEFE3
:100BD00070E00E94482C8091B000482F50E09B01AB
:100BE0004617570708F49A01C90108958F929F92FA
:100BF000AF92BF92CF92DF92EF92FF920F931F932B
:100C0000CF93DF93EC0129819880822F90E0890DAA
:100C1000911D8A80880D911D60910E0170910F01C8
:100C20006817790760F57B0100E010E05C01CC24D7
:100C3000DD2430E040E050E0C801B7010E941D2CE7
:100C4000A60195010E946F2C2983692D70E080E038
:100C500090E0A80197010E941D2CA60195010E9419
:100C60006F2C2883682D70E080E090E0A801970148
:100C70000E941D2CA60195010E946F2C2A83998148
:100C8000933050F08881981739F48A81981721F4AD
:100C90009150988391509A83DF91CF911F910F913A
:100CA000FF90EF90DF90CF90BF90AF909F908F908C
:100CB00008958091A0008F5F8093A000873010F08E
:100CC0001092A0000895FC018081873010F08750B9
:100CD000808308950F931F93CF93DF93EC010E94BD
:100CE00063060091680010E019C02881822F90E00F
:100CF000FC01EE0FFF1FE80FF91FE750FF4F818146
:100D0000882371F48081882359F48281882341F4F7
:100D10002F5F2883CE010E9463061F5F101728F300
:100D2000DF91CF911F910F9108951F93FC01DB017B
:100D30001081E12FF0E05C91252F30E0642F70E00E
:100D4000CB01820F931F8E179F0714F4540F06C018
:100D5000261B370BE217F3071CF4541B5C9301C0EE
:100D60001C931F91089581E08093960008959C0143
:100D700080918300882319F4C9010E94E329089512
:100D800090918A00913029F410928D0010928C007D
:100D90000895923029F48FEF90E00E94DC051BC08B
:100DA000892F83508230A8F483E08093910094309F
:100DB00019F481E080939100809191009FEF899FC9
:100DC000C00111246CE070E00E945C2C60939000E4
:100DD000089580E090E00E94B706089580918A000F
:100DE000823011F40E94C00608950E94420580914D
:100DF00087008250833018F482E080939B000E9429
:100E0000EE06809189008460809389000895813086
:100E1000A1F4809167008E3181F189518093670040
:100E20008E3118F48EE1809367000E94EE06809167
:100E3000890082608093890008958230F1F4809166
:100E40000E0190910F018536910518F482E390E030
:100E500002C08456904090930F0180930E018091C0
:100E60000E0190910F01C29730F482E390E09093CD
:100E70000F0180930E010E94F50608958130A9F4B8
:100E8000809167008F3F09F190E049968F3F91056F
:100E900011F00CF08FEF809367000E94EE068091B6
:100EA00089008260809389000895823071F4809176
:100EB0000E0190910F018C599F4F90930F018093D9
:100EC0000E010E9477050E94F506089580E090E0EB
:100ED0000E94B706949881E08093880080938300F5
:100EE00008959098919896980E94660708950F9398
:100EF0001F93082F122F0E941221882309F048C047
:100F000080918300882309F043C0112369F1209167
:100F10008A00233008F184EF91E090938F00809352
:100F20008E00809191008C3030F4233011F48F5F6B
:100F300005C0882329F0243019F481508093910052
:100F4000809191009FEF899FC00111246CE070E0B7
:100F50000E94482C60939000053FD1F081E080937F
:100F6000980080939B0014C082E080939800809149
:100F7000A100882369F01092A10080919900882334
:100F800021F081E080939A0003C081E080939C006F
:100F90001F910F910895FF920F931F936091680026
:100FA00083E0689F602D1124F62EF6946F196093EC
:100FB000120101EB10E080EBA8010E9480038091F8
:100FC0001201080F111D88EB6F2DA8010E948003EC
:100FD000109212011F910F91FF9008950F931F938C
:100FE000CF93DF938C019091680041EB50E083E058
:100FF000989FB0011124EB01C40FD51F09C0DA017D
:10100000F80183E001900D928150E1F74D5F5F4F51
:101010004C175D07A1F7609312010E94CB07DF9187
:10102000CF911F910F9108951092B2001092B100CC
:101030001092B30010922401109223011092250106
:101040001092AE00EEEAF0E012921092AF00CF01E3
:101050000E94EE070895DF93CF9300D00F92CDB793
:10106000DEB769837A838B83CE0101960E94F605F1
:10107000909124018A81981751F4909123018981DC
:10108000981729F4909125018B81981769F0A3E2B4
:10109000B1E0FE01319683E001900D928150E1F7BD
:1010A000CE0101960E94EE070F900F900F90CF9106
:1010B000DF9108950F931F93182F092F0E94420567
:1010C000ADEAB0E0212F302FC901FC0183E001908F
:1010D0000D928150E1F76091AD007091AE0080916A
:1010E000AF000E942B081F910F910895FF920F935C
:1010F0001F93CF93DF9310929E00F0906800C1EB96
:10110000D0E083E0F89E800111240C0F1D1F1DC04C
:101110008EE990E00E946A0680919E0090E0FC01BA
:10112000EE0FFF1FE80FF91FDE01E750FF4F83E0CE
:1011300001900D928150E1F7CE010E94F605809159
:101140009E008F5F80939E002396C017D10701F702
:101150008F2D90E0FC01EE0FFF1FE80FF91FADEAA5
:10116000B0E0EF54FF4F83E001900D928150E1F722
:101170000E94CB07DF91CF911F910F91FF900895AF
:10118000FF920F931F93DF93CF930F92CDB7DEB7EC
:10119000F62E042F1982813041F582B3862B82BB53
:1011A00040E08091A300802309F041E020E080919D
:1011B000A400802309F021E08F2D61E08E010F5FF4
:1011C0001F4F0E942A048981882309F0BAC00E9417
:1011D000B724182F0E94BA2440E0111141E020E00A
:1011E000811121E08F2D61E0A7C0823051F582B3DB
:1011F000962F9095982392BB40E08091A300802386
:1012000009F041E020E08091A400802309F021E072
:101210008F2D60E08E010F5F1F4F0E942A0489818D
:10122000882309F08EC00E94B724182F0E94BA2488
:1012300040E0111141E020E0811121E08F2D60E0BC
:101240007BC08823A9F41091A300142319F082B362
:10125000862B04C092B3862F8095892382BB0E947F
:10126000B724082F0E94BA2460E01123C1F016C0F1
:101270008330D1F41091A300142329F092B3862F68
:101280008095892302C082B3862B82BB0E94B7243B
:10129000082F0E94BA2460E0112309F461E040E0C5
:1012A000011141E020E045C0843091F40E94B72450
:1012B000823019F482B38F2904C092B38F2D8095A8
:1012C000892382BB0E94B72460E0823041F526C0AA
:1012D000853091F40E94B724833019F482B38F29AA
:1012E00004C092B38F2D8095892382BB0E94B724BE
:1012F00060E08330A1F412C0863019F50E94B72453
:10130000882319F082B38F2904C092B38F2D809562
:10131000892382BB0E94B72460E0811161E040E034
:101320008091A300802309F041E020E08091A40097
:101330008023811121E08F2D8E010F5F1F4F0E94AE
:101340002A0489810F90CF91DF911F910F91FF9017
:1013500008958091AA0061E041E00E94C0088823BE
:1013600011F08093A2008091AB0062E042E00E9405
:10137000C008882311F08093A2008091AC0060E443
:1013800044E00E94C008882311F08093A20080915D
:10139000A3008093A40080916B008F3021F00E9405
:1013A000B724823041F080916A008F3051F00E9462
:1013B000B724833031F481E08093A10080939900B9
:1013C0000895809199008823A9F080916B008F3057
:1013D00021F00E94B724823041F480916A008F305E
:1013E00049F00E94B724833029F081E08093A10066
:1013F000109299000895882371F080E00E949B2943
:1014000089B78B7F89BF80E090E00E94B7069498EF
:101410000E94DC2908950E94A0290E94D52980916C
:101420008A00823011F40E94C006089580918100E4
:10143000882331F480918700811181E00E94FB09AB
:1014400081E080939C000895CF92DF92EF92FF920B
:101450000F931F93CF93DF9380918300882309F02C
:101460009AC020918A00213009F046C080919200F4
:101470009091930001969093930080939200089727
:1014800009F089C0109293001092920080918C0014
:10149000882331F480918D0090E00E94DC050AC021
:1014A000823061F420918D008FEF90E0821B9109D2
:1014B0000E94DC0590E00E94B70609C0813011F05F
:1014C000833029F480918D008F5F80938D0080910F
:1014D0008D008F3F69F410928D0080918C008F5F9A
:1014E00080938C00843008F456C010928C0053C056
:1014F0008F5F80938D004FC0822F8350823008F021
:101500004AC080918E0090918F001816190634F40D
:10151000019790938F0080938E0035C0233029F47B
:1015200080919000882339F426C0243039F58091C9
:1015300090008F3F19F180918D008F5F80938D0017
:10154000883008F110928D0080919000233011F4C2
:10155000815001C08F5F80939000209190008FEFA9
:1015600090E0821B91096BEE7FEF0E945C2C645F20
:101570006093910008C01092910003C08CE08093AA
:10158000910010928D008091900090E00E94DC0507
:1015900090E00E94B706809194009091950001968A
:1015A0009093950080939400889708F4E3C210927A
:1015B00095001092940080919600882369F00E9413
:1015C00014088B9A28E088E190E00FB6F894A8956B
:1015D00081BD0FBE21BDFFCF809197008823A1F070
:1015E0000E941408809197000E9487050E9442057E
:1015F0000E94C0060E94160A80918900886080932C
:10160000890010929700B6C280918800882329F043
:10161000109288000E941408ADC280918300882334
:1016200009F0A8C280919800813009F041C0109261
:101630009800809184008130B9F4A1EBB0E0E0E241
:10164000F1E083E001900D928150E1F781EB90E0B1
:101650000E94F605A3E2B1E0E1EBF0E083E0019047
:101660000D928150E1F71FC0823009F083C2809152
:10167000AD0080958093B1008091AE0080958093FD
:10168000B2008091AF0080958093B30081EB90E031
:101690000E94F605A3E2B1E0E1EBF0E083E0019007
:1016A0000D928150E1F781EB90E00E94EE0762C25B
:1016B0008230A1F51092980080919900882321F042
:1016C00080919A008823C9F080919B008130E9F4D1
:1016D00080918700813051F480918B00833019F420
:1016E0000E94760812C0843081F007C0882329F454
:1016F0008DEA90E00E94EE0708C06091AD00709105
:10170000AE008091AF000E942B0880919B00823038
:1017100011F40E94160A10929B002CC280919A002C
:10172000882341F110929A00109224011092230113
:10173000109225010E94B724823051F480916B00F1
:101740000EC0813089F48AE191E00E945A0812C2E9
:101750000E94B724833009F00DC280916A0088236B
:1017600081F787E191E0F1CF823009F003C28DE18A
:1017700091E0EBCF80916B008F3029F00E94B7246D
:10178000823009F4F7C180916A008F3029F00E94FD
:10179000B724833009F4EEC180919C00882309F4BA
:1017A0004FC010929C0080918700813079F40E9494
:1017B000420510929D0010929E0010929F00109280
:1017C0002401109223011092250137C0823061F468
:1017D0000E944205ADEAB0E0E7E1F1E083E001906C
:1017E0000D928150E1F71BC0833061F40E944205E5
:1017F000ADEAB0E0EAE1F1E083E001900D928150C2
:10180000E1F70DC08430A1F40E944205ADEAB0E0DA
:10181000EDE1F1E083E001900D928150E1F76091FC
:10182000AD007091AE008091AF000E942B0805C002
:101830000E9414088FEF8093B0000E94EE069AC1B8
:1018400080919B00813029F480918400882309F0E5
:1018500091C180918700813009F08CC180918B000B
:10186000813031F580919D00815080939D008F5F84
:1018700009F080C18091690080939D008091A00053
:1018800090E0FC01EE0FFF1FE80FF91FADEAB0E09A
:10189000E750FF4F83E001900D928150E1F7609196
:1018A000AD007091AE008091AF000E942B0860C126
:1018B000823009F07AC090919E008091680098175C
:1018C00008F03FC000E013E031C0802F90E0201707
:1018D00078F4FC01EE0FFF1FE80FF91FEF54FF4FE4
:1018E000ADEAB0E083E00D9001928150E1F716C0BF
:1018F000DC01AA0FBB1FA80FB91F8091A00090E0C8
:10190000FC01EE0FFF1FE80FF91FAF54BF4FE75068
:10191000FF4F83E001900D928150E1F7019FC001DC
:1019200011248F549F4F0E94F6050F5F809168002D
:1019300020919E00081748F22F5F20939E000E947E
:10194000CB0790919E00809168009817C1F49F5F2B
:1019500090939E008091A00090E0FC01EE0FFF1F8D
:10196000E80FF91FADEAB0E0E750FF4F83E00190C8
:101970000D928150E1F78DEA90E00E94F60590917A
:101980009E0080916800891708F0F4C080919F0044
:101990008F5F80939F0090916900891708F4EAC0D7
:1019A00010929F0010929E00E3C0833059F4809102
:1019B0009D008F5F80939D00815009F0DBC00E94E5
:1019C0007608D8C0909169002091A000843009F079
:1019D00081C020939E008FE0989FC001112466E093
:1019E0007FEF0E945C2C7B0184E190E0E80EF91E01
:1019F000DD2413E0C12E3DC08EE990E00E946A060E
:101A000080919E008C9DC00111248E01000F111F3A
:101A10000C0F1D1FB8016E547F4F86509F4F4E2DE7
:101A20000E94950680919E008C9DC0011124B801F2
:101A30006F547F4F87509F4F4E2D0E949506809187
:101A40009E008C9DC00111240D541F4F85509F4F47
:101A5000B8014E2D0E949506DC9CC00111248F54C4
:101A60009F4F0E94F60580919E008F5F80939E009D
:101A7000D39480916800CD2DD0E0D81608F4BCCF67
:101A8000FE01EE0FFF1FEC0FFD1FADEAB0E0EF54BB
:101A9000FF4F83E001900D928150E1F70E94CB0748
:101AA00020919F002E0D20939F0030E08FEF90E05B
:101AB0008E199F092817390708F45CC010929F00FF
:101AC0008091A0008F5F8093A00080EA90E00E9448
:101AD0006A0650C0892F90E06BEF7FEF0E945C2C6C
:101AE0008B010D5C1F4F73E0F72E2F9DC001112459
:101AF00086509F4F6EEA70E0402F0E9495068091BD
:101B0000A0008F9DC001112487509F4F6DEA70E0A7
:101B1000402F0E9495068091A0008F9DC001112446
:101B200085509F4F6FEA70E0402F0E9495066091AC
:101B3000AD007091AE008091AF000E942B088091A3
:101B4000A00090E0FC01EE0FFF1FE80FF91FE75027
:101B5000FF4F91818091AE00981761F49081809140
:101B6000AD00981739F492818091AF00981711F465
:101B70000E945906DF91CF911F910F91FF90EF9036
:101B8000DF90CF9008950E94B12480938300882332
:101B900021F40E94C0060E94160A08950E94A90915
:101BA0000E94C30D0895109289001092850089E06B
:101BB00090E00E94F52D809367008BE090E00E94FA
:101BC000F52D8F7080938A008F3011F410928A0067
:101BD0008BE090E00E94F52D82958F7080938700B6
:101BE0008F3011F41092870087E191E06AE871E08C
:101BF00043E050E00E94E52D8AE191E06DE871E05C
:101C000043E050E00E94E52D8DE191E060E971E054
:101C100043E050E00E94E52D89EF90E065E771E038
:101C200045E150E00E94E52D85E090E00E94F52D11
:101C300080938B0082E090E00E94F52D90E08F3F32
:101C4000910519F42DEE30E005C09C01220F331FE1
:101C5000280F391F30930F0120930E0184E090E08C
:101C60000E94F52D0E94870583E090E00E94F52DEB
:101C70008F70809384008F3011F41092840080E282
:101C800091E065EE73E043E050E00E94E52D83E9CA
:101C900091E00E94F52D809369008F3F11F488E751
:101CA00003C08B3F18F08AEF809369008AEA90E0C6
:101CB00064E971E043E050E00E94E52D8091AA00C4
:101CC0008F3F11F41092AA008091AB008F3F11F466
:101CD0001092AB008091AC008F3F11F41092AC00D9
:101CE0008AE991E00E94F52D8F7080936A008AE95D
:101CF00091E00E94F52D82958F7080936B000E9479
:101D000042050E94C30D80918300882311F00E9438
:101D100066070895109283000E94C0060E94160A6A
:101D2000089580938700853010F010928700662315
:101D300029F410929B000E94160A03C082E080934F
:101D40009B008091890081608093890008951F9392
:101D5000182F0E9412218823E1F4113089F4809118
:101D60008A008F5F80938A00853011F410928A0078
:101D70000E94C0068091890081608093890009C01B
:101D8000123039F4809187008F5F609184000E9447
:101D9000910E1F9108950F931F93082F162F0E94E5
:101DA0005F20112369F0093359F4109283008230C7
:101DB000C1F08032B1F0813089F0803129F40EC059
:101DC0000D3F21F41092830081E00CC0013F69F4C3
:101DD00010928300813011F0803119F40E94330594
:101DE00021C082E00E94A70E1DC00A3F61F410923C
:101DF0008300823011F0803211F482E001C081E072
:101E00000E943E070FC0093F11F081E00CC0109204
:101E10008300823011F0803211F482E001C081E051
:101E20000E94070780E01F910F910895CF93DF93E1
:101E3000DC0111968C9111978F3119F41092A50045
:101E400036C1803109F043C09091A500892F81509F
:101E5000833038F5892F90E00197FC01EE0FFF1FCA
:101E6000E80FF91FEE0FFF1FE750FF4FED0122961D
:101E700083E0099001928150E1F78091A50090E004
:101E8000880F991F0197FC01EE0FFF1FE80FF91F44
:101E9000E750FF4F159683E00D9001928150E1F7D6
:101EA00010C0943071F4CBE0D1E0FD01329683E0B4
:101EB000019009928150E1F78091890080688093B8
:101EC00089008091A5008F5F8093A500F0C08131CB
:101ED00069F4C7E1D1E0FD01329683E001900992F7
:101EE0008150E1F78091890080610EC0823189F4D0
:101EF000CAE1D1E0FD01329683E001900992815060
:101F0000E1F7809189008062809389000E94160A1F
:101F1000CEC0833169F4CDE1D1E0FD01329683E09A
:101F2000019009928150E1F7809189008064ECCFA3
:101F3000813A69F4C0E2D1E0FD01329683E001907C
:101F400009928150E1F7809185008260AEC08032B5
:101F500041F41092830012968C9160E00E94910EE1
:101F6000A6C08034B9F412968C9123E0829FC00100
:101F7000112490930F0180930E01892B31F483E09B
:101F800090E090930F0180930E010E9477050E94CC
:101F9000F506BCCF813241F412968C918093840077
:101FA00080918500816081C0833281F412968C918A
:101FB00080938B0010929D0010929E001092A000C2
:101FC00010929F008091850084606FC0803329F457
:101FD00012968C91809397006AC0803871F41296A3
:101FE0008C9180938A008091890081608093890020
:101FF000109283000E94C0065AC0813861F4129684
:102000008C91809367000E94EE0680918900826027
:10201000809389004CC0843841F412968C9180934F
:10202000690080918500886040C0853829F4129647
:102030008C918093AA000DC0863829F412968C9159
:102040008093AB0006C0873851F412968C91809330
:10205000AC000E94A90980918500806126C08A3861
:1020600031F512968C9112978F7080936A001296B8
:102070008C9182958F7080936B000E94B724823080
:1020800021F480916B008F3041F00E94B72483309F
:1020900041F480916A008F3021F481E080939C00AC
:1020A00003C081E080939A0081E080938500DF91F6
:1020B000CF910895809186008823A9F481E08093D0
:1020C000860088E00E94CC2980918700882321F037
:1020D00080918100813011F480E001C081E00E9494
:1020E000FB090E94D30D089581B3836581BB82B340
:1020F0008C7A82BB0E943E0380E991E00E944603F5
:102100000895CF93DF93EC018091AA008130E1F034
:10211000882329F48091A30080FD16C00DC0833070
:1021200029F48091A30080FF0FC006C0843021F401
:102130000E94B724823041F08091AA00853031F4AA
:102140000E94B724833011F4909801C0909A809136
:10215000AB008130E1F0882329F48091A30081FD58
:1021600016C00DC0833029F48091A30081FF0FC0F9
:1021700006C0843021F40E94B724823041F080915F
:10218000AB00853031F40E94B724833011F491986C
:1021900001C0919ACE010E948C228091AA008130C8
:1021A000E1F0882329F48091A30080FD16C00DC0C2
:1021B000833029F48091A30080FF0FC006C08430D3
:1021C00021F40E94B724823041F08091AA0085302A
:1021D00031F40E94B724833011F4909A01C0909892
:1021E0008091AB008130E1F0882329F48091A30035
:1021F00081FF0EC015C0833029F48091A30081FDBA
:1022000007C00EC0843021F40E94B724823041F010
:102210008091AB00853031F40E94B724833011F4F3
:10222000919A01C09198DF91CF9108950E947B24EB
:102230008823E1F08091A6009091A70001969093E9
:10224000A7008093A600855893409CF090916C0065
:10225000913011F4919801C0919A1092A7001092B8
:10226000A60081E0982790936C00089581E0809308
:102270006C00089580918600882309F492C00E9422
:102280001221882341F080918800882309F489C0B5
:102290000E94240A08950E9416110E94470480910A
:1022A0008900882329F480918500882309F477C068
:1022B000609187006295607F80918A008F70682BA3
:1022C0008BE090E00E940D2E89E090E06091670025
:1022D0000E940D2E80910E0190910F0163E070E03D
:1022E0000E94482C82E090E00E940D2E84E090E055
:1022F000609168000E940D2E87E191E06AE871E02C
:1023000043E050E00E94FD2D8AE191E06DE871E02C
:1023100043E050E00E94FD2D8DE191E060E971E025
:1023200043E050E00E94FD2D89EF90E065E771E009
:1023300045E150E00E94FD2D85E090E060918B002A
:102340000E940D2E609184006F7083E090E00E94E7
:102350000D2E80E291E065EE73E043E050E00E94D4
:10236000FD2D83E991E0609169000E940D2E8AEABB
:1023700090E064E971E043E050E00E94FD2D60913F
:102380006B006295607F80916A008F70682B8AE98C
:1023900091E00E940D2E10928900109285000E94FB
:1023A000240A0895FF920F931F938C010E94C60484
:1023B00087E090E065E00E949522F82E0E94C025FB
:1023C000F294FF0C90EEF922880F880F880F8F2966
:1023D0008095F80182A781E084A785E085A716A6ED
:1023E00082E087A70E94732AF80183AB0E94481BF2
:1023F000F80184AB85E380831F910F91FF900895CE
:10240000CF93DF93EC010E94160F8981823841F44B
:1024100090E08A81811191E0892F0E94C32515C027
:10242000883821F48A810E94762A0FC0893821F4E5
:102430008A810E94661C09C08B3839F490E08A8139
:10244000811191E0892F0E94B925DF91CF910895E4
:10245000FC018381813261F08232D9F0823081F5D2
:1024600083EA91E09093D5048093D4048BE308959C
:102470008281882319F0813019F503C085EB91E042
:1024800002C08EEC91E09093D5048093D40489E04F
:10249000089584819581009719F0019789F408C007
:1024A00082E191E09093D5048093D40480E4089570
:1024B00082E591E09093D5048093D40481E508955A
:1024C00080E00895DF92EF92FF920F931F93D62E34
:1024D000E090D404F090D504062F10E0B701A801D5
:1024E0000E94E52D0E0D1F1D1093D5040093D404FA
:1024F0008D2D1F910F91FF90EF90DF9008951F9306
:102500009C01162F80912A01882329F010922A011C
:1025100012502E5F3F4F60912B0170912C0141E0D2
:102520006D357407BCF4CB01810F911D8E55914020
:1025300014F01DE5161BC901412F50E00E94FD2D2E
:1025400080912B0190912C01810F911D90932C0172
:1025500080932B011F9108951F939C01162F80914A
:102560002A01882329F010922A0112502E5F3F4F32
:1025700060912B0170912C0143E0653E7407BCF41F
:10258000CB01810F911D865E934014F015EE161B52
:10259000C901412F50E00E94FD2D80912B019091A7
:1025A0002C01810F911D90932C0180932B011F9181
:1025B0000895FC0180912901813041F4613091F549
:1025C00080810E942328109229012CC08230C9F4F6
:1025D0008181882369F46830B1F482818F3F29F4C6
:1025E00081E090E060E00E941E2E0E94C2151AC099
:1025F000813049F48281813009F080E00E949F247B
:1026000011C0843021F4CF010E9400120BC085302C
:1026100021F4CF010E94AC1205C0863019F4CF011D
:102620000E947F1281E008950F931F93CF93DF9351
:10263000EC010E94FA2588818076803209F041C140
:102640000981013009F0CDC08A819B8122E0803070
:10265000920741F485EA94E09093D5048093D404E2
:1026600088E030C143E082309407B1F42E813F818D
:102670002538310519F40093630123C1C901845B36
:1026800090400C9730F0C901805C90400C9708F0A6
:1026900018C12093630115C18150934009F011C105
:1026A0002E813F812436310559F40EE211E0C80134
:1026B0000E94D2111093D5040093D40485E302C183
:1026C00025363105B1F40E947B24882331F080E067
:1026D0000E949F2410922D0105C081E00E949F243A
:1026E00000932D018DE291E09093D5048093D40462
:1026F000E6C0C901895790400497A8F480E480930C
:10270000D00488E790E0AC01249FC001259F900D84
:10271000349F900D1124885B924D9093D504809343
:10272000D40488E7CFC0C901885A90400C97A8F418
:1027300080E48093D00488EA90E0AC01249FC0013B
:10274000259F900D349F900D1124805496409093B6
:10275000D5048093D40488EAB5C02639310559F4EC
:1027600080E48093D00480E895E69093D50480932C
:10277000D40480E8A7C0C901845B90400C97A8F4FA
:1027800080E88093D00480E390E0AC01249FC001F6
:10279000259F900D349F900D11248B519042909362
:1027A000D5048093D40480E38DC0C901805C90403F
:1027B0000C97A8F480E88093D0048CE190E0AC0101
:1027C000249FC001259F900D349F900D1124835F9D
:1027D00094419093D5048093D4048CE173C0822FEC
:1027E00071C0093009F04EC08A819B8152E080306F
:1027F000950739F48C819D81892B09F062C081E0B5
:102800003DC023E082309207A9F590916301913099
:1028100039F48FE18983CE010E94001284E025C043
:10282000892F845B8C3078F481E080932A0180E3E7
:10283000989FC00111248B51904290932C0180935A
:102840002B0185E012C0892F805C8C3080F481E000
:1028500080932A018CE1989FC0011124835F9441E9
:1028600090932C0180932B0186E080932901109294
:10287000630106C08150934021F582E080932901D5
:102880008FEF20C0023019F48091280114C00A3063
:1028900031F40E94FE258B818093280112C0033001
:1028A00031F48B81882369F410926D000BC00B30DA
:1028B00041F480916D008093D4041092D50481E09E
:1028C00001C080E0DF91CF911F910F910895813079
:1028D00011F090E006C090E0613009F091E081E0F5
:1028E0009827892F089521E030E002C0220F331F7E
:1028F0008A95E2F727BB209528BB84E18A95F1F7FA
:102900000895282F883058F449B381E090E002C040
:10291000880F991F2A95E2F74095482318C08E30FA
:1029200078F443B38FE090E0821B910921E030E01E
:1029300002C0220F331F8A95E2F74095422307C059
:102940008E3011F040E003C040B340954078842FB2
:102950000895FF920F931F93DF93CF9300D00F92B0
:10296000CDB7DEB719821A82FF24FA94FB8280E485
:1029700063E08E010F5F1F4FA8010E948003882330
:10298000A1F48CE089831A82FB8280E463E0A801D1
:102990000E948003882349F484E18983FA82FB82C0
:1029A00080E463E0A8010E9480030F900F900F90D5
:1029B000CF91DF911F910F91FF9008952F923F9239
:1029C0004F925F926F927F928F929F92AF92BF923F
:1029D000CF92DF92EF92FF920F931F93DF93CF93EB
:1029E00000D000D0CDB7DEB72C014B01EE24FF2480
:1029F00031E0632E712CAA24A3948E2D0E947314AF
:102A0000C3010E2C02C0880F991F0A94E2F7C82E4A
:102A1000B82EB0948201DD248D2D0E948114282FC0
:102A2000D8019C918C2D892319F0222339F00BC0F9
:102A3000222349F09C29F801908303C09B21D801EF
:102A40009C93F401A082D3940F5F1F4FF8E0DF1630
:102A500019F70894E11CF11C88E0E816F10469F606
:102A60000E94A914882309F060C0EE24FF2422E10B
:102A7000222E91E0A92EB12C82E0682E712C6C0ED2
:102A80007D1E332433946E010894C11CD11C2A820C
:102A900085010E2C02C0000F111F0A94E2F7802F4F
:102AA00080958B8380E462E0A3010E94800380E430
:102AB00061E0A6010E94C903F20120E030E0502F3E
:102AC0005095898190E080959095022E02C0959551
:102AD00087950A94E2F7482F41709085802F8923CB
:102AE00019F0442329F008C0442331F0902B01C091
:102AF00095239087D4013C922F5F3F4F319627302A
:102B00003105F9F60894E11CF11CB8E0EB16F1046C
:102B100009F0BDCF82E18A838FEF8B8380E462E08E
:102B2000AE014E5F5F4F0E9480030F900F900F9099
:102B30000F90CF91DF911F910F91FF90EF90DF9059
:102B4000CF90BF90AF909F908F907F906F905F904D
:102B50004F903F902F9008958FEF87BB88BB1ABA94
:102B600094B39B7B94BB8F988BBB85B38C6F85BBD9
:102B7000979A0E943E0380E991E00E9446030E94DA
:102B8000A91408950E94B30608958A98929A089508
:102B900092988A9A08958B98939A089593988B9A0D
:102BA000089580936501F8948091B2048F7E80939C
:102BB000B2048091B20488608093B204789408953E
:102BC000F8948091B2048B7F8093B20478948091C2
:102BD000640108958091B20490E09695879596954A
:102BE0008795817008958091B20490E034E09695C5
:102BF00087953A95E1F7817008958FEC82BF8091B7
:102C0000AD049091AE04A091AF04B091B0040196D0
:102C1000A11DB11D8093AD049093AE04A093AF04A9
:102C2000B093B0048091B104833000F50E94CB15BD
:102C30008091B20480FF23C0829BA3C08091B10425
:102C4000813031F0813040F0823009F0F6C006C0AA
:102C5000839902C08DE096C082E094C08091B20456
:102C600083FFEBC00E94CE1584E28CC08091B1043A
:102C70008A3108F079C08091B20480FD08C080914B
:102C8000B20481608093B2040E94C5150895829BAE
:102C900076C08091B104873140F4803118F58D30D1
:102CA00061F08F3009F055C00CC08831E1F18831F6
:102CB00058F1893109F04DC049C08091B2048D7F2F
:102CC0004DC08091B2048B7F8093B204839B05C07A
:102CD00080E88093640181E014C010926701109233
:102CE000640137C080916401869580936401839B61
:102CF00030C0809164018068809364018091670195
:102D00008F5F8093670125C0839B05C08091670119
:102D10008F5F809367018091670180FD1AC0809169
:102D2000B204826010C0839905C08091B2048260B1
:102D30008093B2048091B20481FD0BC00E94CE1535
:102D40008091B20484608093B20403C00E94CB15CA
:102D50006CC00E94C8158091B2048E7F8093B2042B
:102D60008091B1048F5F0EC08091B1048F3208F062
:102D700064C08091B20480FF10C0829906C00E9496
:102D8000CB1581E08093B10408958091B2048E7FC9
:102D90008093B2040E94C81508958091B2048160A6
:102DA0008093B2040E94C5158091B1048C3228F43E
:102DB000853280F48432E1F507C08D3299F18D328D
:102DC000E8F08E32A9F531C08091650180936601EB
:102DD000109267018091660180FF08C00E94CB15A8
:102DE000809167018F5F8093670102C00E94CE15BA
:102DF000809166018695809366011AC08091670173
:102E000080FF03C00E94CE1502C00E94CB158091A6
:102E1000B204877F8093B2048091B2048061809372
:102E2000B20406C00E94CB1503C01092B1040895ED
:102E30008091B1048F5F8093B10408951092B10422
:102E400081E18093B2040E94C5150E94CB1582E0F7
:102E50000E948E2980E06DEF75E10E94B6298FEC0B
:102E600082BF89B7816089BF0895282F8F3F31F4D1
:102E700010926B0181E08093700108958E3F21F0E4
:102E80008D3F29F410926B0110927001089580918A
:102E90007001882351F080916B01E82FF0E0E25C33
:102EA000FD4F20838F5F80936B0180916C01909127
:102EB0006D01019690936D0180936C01883C9105A2
:102EC00024F010926D0110926C0180916E0190912E
:102ED0006F01E0916C01F0916D018E179F0759F41D
:102EE000009719F487EC90E001C0019790936D0171
:102EF00080936C010895EB58FE4F2083089540E0C5
:102F000020916E0130916F0180916C0190916D0163
:102F10002817390709F441E0842F089510926F01B2
:102F200010926E0110926D0110926C0110926B0163
:102F300010927101109248021092490210924A02B6
:102F400010924B020895282F882379F08CEF90E09F
:102F500090937401809373011092AD041092AE04AB
:102F60001092AF041092B00402C010926A01209334
:102F7000720108958091720108950E947F1790E078
:102F8000882309F491E0892F0895FF920F931F93EE
:102F9000182F882309F4A0C08D3B08F09DC0A82FEE
:102FA000B0E0FD01E651FE4F0491662309F463C0D1
:102FB00080933D02109248021092490210924A02F8
:102FC00010924B021092B504A45BBD4F8C91F82E69
:102FD00081FF2DC0163419F01834F1F50EC08FEFB3
:102FE0000E94351780EE0E94351782E10E94351746
:102FF00080EE0E9435178CE727C08DEF0E943517B1
:1030000081EE0E94351784E10E94351787E70E9400
:10301000351781EE0E94351780EF0E94351784E145
:103020000E94351780EF0E94351787E710C082FF96
:1030300002C0802F0CC08FEF0E943517F0FE03C036
:1030400080EE0E943517802F0E9435178EEF0E9468
:1030500035178CEF0E943517F5FE40C080916A014C
:103060008823E1F581E080936A01173411F40E940E
:103070005F208BEF2EC080913D02811711F41092DA
:103080006B01E12FF0E0E45BFD4F808181FF13C015
:10309000163421F580EE0E94351780EF0E94351717
:1030A0008CE70E94351780EE0E94351780EF0E9452
:1030B000351782E10BC082FD11C080FF03C080EE96
:1030C0000E94351780EF0E943517802F0E94351718
:1030D0008CEF0E94351702C080E001C081E01F9193
:1030E0000F91FF9008958091A204882329F481E034
:1030F0008093A2040E94F72A08951F93162F8E3FF3
:1031000011F08093B4040E94D1151093B5041F915F
:1031100008950E94F71D08958F929F92AF92BF92DB
:10312000CF92DF92EF92FF920F931F9388E08093EC
:10313000B5040E941E17ECE4F2E0119222E0EC3E8E
:10314000F207D9F720ED32E006C0FC01E45BFD4F49
:10315000808182608083F901849190E02F5F3F4FEE
:10316000009799F723ED32E006C0FC01E45BFD4FC8
:10317000808184608083F901849190E02F5F3F4FCC
:10318000009799F727ED32E006C0FC01E45BFD4FA4
:10319000808188608083F901849190E02F5F3F4FA8
:1031A000009799F72CED32E006C0FC01E45BFD4F7F
:1031B000808181608083F901849190E02F5F3F4F8F
:1031C000009799F72AE033E006C0FC01E45BFD4F6D
:1031D000808180618083F901849190E02F5F3F4F6F
:1031E000009799F729E133E006C0FC01E45BFD4F4D
:1031F000808180628083F901849190E02F5F3F4F4E
:10320000009799F70E948E1786E090E00E94F52DB6
:10321000823011F485E005C0833011F48AE001C0EA
:1032200081E0809369018EE690E00E94711D80E745
:1032300090E00E94982A0E94571C0E943D21789499
:1032400099249394A5E0AA2EB12CC12CD12CF6E997
:103250008F2E0E94BA17882379F08091AD04909147
:10326000AE04A091AF04B091B0044597A105B1059B
:1032700018F080E00E94A3178091B20481FF07C07C
:10328000F8948091B2048D7F8093B20478940E9468
:10329000EA15882309F4DAC08091730190917401D2
:1032A0008C3F910529F00E947F17882309F4CEC036
:1032B0000E94E015182F8093EC0280E00E94A31773
:1032C0006091B504623009F459C0633018F461307C
:1032D00039F44EC0663009F4A5C0673009F457C010
:1032E000133F79F1143F70F41E3ED1F01F3E20F4DD
:1032F0001D3E09F0A7C022C0103FE9F0123F09F0BF
:10330000A1C010C0163F39F1173F20F4143F09F057
:1033100099C01AC01E3F61F01F3F09F093C005C05D
:103320008EEE92C08AEF64E08FC08AEF68E08CC0B6
:103330008091B40489C08AEF62E086C08AEF66E0BB
:1033400083C08AEF67E080C08AEF60E00E947D184A
:103350000E9473187BC090927200A0927300B0928A
:103360007400C0927500D09276000E948E176AC0D9
:10337000153F09F467C08AEF61E066C00E948E17AE
:10338000112311F060E001C063E08AEF5DC0812F7E
:1033900090E09C0120763070E5E035952795EA9520
:1033A000E1F7209372009C01277030703093EE0299
:1033B0002093ED028871907073E0959587957A95CA
:1033C000E1F79093F0028093EF0241E050E020E0BB
:1033D00030E004C0440F551F2F5F3F4F28173907B7
:1033E000CCF34093F3025093F4023093F202209313
:1033F000F1028091ED029091EE029C01429FC0018A
:10340000439F900D529F900D1124AA2797FDA095E0
:10341000BA2F8093730090937400A0937500B093BB
:10342000760010C00E9473188091EC02982F80E003
:1034300090FD84E091FD816092FD82600E94D6053E
:103440000E94A9098AEF60E00E947D180E94F3158E
:10345000882309F4FECE0E94BA17882309F0F9CE1A
:103460008091B504843009F407C1853030F4882395
:1034700071F0833009F0EDCEFDC0883009F401C150
:103480008C3009F482C0853009F0E3CEF8C00E9488
:103490007F17882311F00E94891820916E013091C6
:1034A0006F0180916C0190916D012817390711F41B
:1034B00080E014C0C901019690936F0180936E0162
:1034C000883C910524F010926F0110926E01E091FA
:1034D0006E01F0916F01EB58FE4F8081282F30E094
:1034E00030937401209373012B3F310521F481E067
:1034F0000E94A317AECE2C3F310509F4AACE232B90
:1035000061F060E00E947D1810924802109249021A
:1035100010924A0210924B02AAC080916B0188233C
:1035200009F4A5C0209148023091490240914A0215
:1035300050914B022F5F3F4F4F4F5F4F20934802F8
:103540003093490240934A0250934B02809172009B
:10355000889DC00111248A519F4FAA2797FDA095ED
:10356000BA2F281739074A075B070CF480C010925E
:1035700048021092490210924A0210924B02109295
:1035800071018CE08093B50472C080917101882331
:1035900011F40E94891880916B01882321F00E9408
:1035A0007F17882359F41092B504109248021092A4
:1035B000490210924A0210924B024BCE809148026F
:1035C00090914902A0914A02B0914B020197A10546
:1035D000B10521F0809171018823A9F090917101CA
:1035E000E92FF0E0E25CFD4F80819F5F90937101D5
:1035F0006CE00E947D1860916B01809171010E94C6
:103600003C2C90937101E0904802F09049020091A7
:103610004A0210914B020894E11CF11C011D111D7E
:1036200060917300709174008091750090917600A4
:103630002AE030E040E050E00E941D2C6D5F7F4F9B
:103640008F4F9F4F2091690130E040E050E00E9491
:103650001D2C9B01AC01C801B7010E94912C609305
:1036600048027093490280934A0290934B020E9451
:10367000A424EFCD82E008C08BEA65E006C083E8B1
:1036800003C00E948E178AEA60E00E947D18E1CD97
:10369000809113038150089580917700089590914F
:1036A0001503891711F090E006C090E08091160391
:1036B000681709F491E0892F08958FE78093150327
:1036C0008093160308958E3F11F481E00EC0883F69
:1036D00011F482E00AC0863F11F483E006C08B3FFC
:1036E00019F410927800089583E680937800089585
:1036F00090E080917800833609F091E0892F089559
:1037000084E093E0089585EF92E008950E94801B85
:10371000A5EFB2E0FC018FE001900D928150E1F73E
:1037200081E080937700E4E0F3E08081882319F062
:103730001092770005C0319683E0E331F807A9F7CE
:103740000E944C1B882311F00E947B1F0895DF9379
:10375000CF930F92CDB7DEB7198284E093E0BE011C
:103760006F5F7F4F0E94DE148981882319F01092C9
:10377000140309C09091140380911303891718F062
:103780009F5F9093140320E09091140380911303A2
:10379000981709F421E0822F0F90CF91DF910895BF
:1037A0000E94A71B08950E94732A882319F00E9483
:1037B000732A08950E94B724882311F00E94B72429
:1037C00008958F929F92AF92BF92CF92DF92EF9225
:1037D000FF920F931F93DF93CF930F92CDB7DEB776
:1037E00080917800833609F054C00E94D31BD82EF4
:1037F0000E94801B7C0100E081E0A82EB12C8D2D61
:1038000082508983F70180818823D9F18824992403
:10381000C82C9501082C02C0220F331F0A94E2F72E
:10382000F7018081822331F18D2D602F482D0E9478
:10383000D920182F0E94B424882329F4812F61E015
:103840000E94B01F182F1E3F11F481E00EC0183FD8
:1038500011F482E00AC0163F11F483E006C01B3F5A
:1038600049F4F981F23030F480E0C09215030093FE
:1038700016030FC00894811C911C88E088169104DF
:1038800039F60F5F0894E11CF11C0F3009F0BACF34
:103890008D2D0F90CF91DF911F910F91FF90EF90A1
:1038A000DF90CF90BF90AF909F908F9008958FE062
:1038B000E5EFF2E0DF01982F1D929A95E9F7E4E039
:1038C000F3E0DF011D928A95E9F70895682F6F5F95
:1038D0006093130389E991E00E940D2E80911303F8
:1038E0008D5F80931403089589E991E00E94F52D7E
:1038F000809313038F3F19F48AE0809313030E948F
:10390000AC15809113038D5F809314030E945D1B9F
:103910000E94571C089586E084BD8091B604909162
:10392000B70401969093B7048093B60408958091EC
:1039300017030895982F8C3048F080E3989FC001BA
:1039400011248B5990400E94F52D07C0E8EA8E9F04
:10395000F0011124E050F849849190E081508E3FAD
:1039600008F491E0892F089580E00E94A929089524
:10397000109217030E94B41C0895EF92FF920F93C8
:103980001F931092B7041092B6041092190310926C
:10399000180398EAE92E80E3F82E0CE140917900B3
:1039A00020911A0330911B034C3020F02C34310548
:1039B0003CF003C0283A31051CF00E94B81C58C0E6
:1039C00020911A0330911B034C3018F1C901019664
:1039D0002033310574F090931B0380931A0323570F
:1039E0003140409FC0011124820F931F0E94F52D8A
:1039F0000DC090931B0380931A032B5930404F9DA9
:103A0000C0011124820F931F0E94F52D282F10E072
:103A100017C04E9DA0011124C9010196240F351F26
:103A200020503849F9012491019690931B0380930B
:103A30001A030197480F591F40505849FA01149131
:103A4000822F81508E3F80F4822F0E941523912F68
:103A50009F7709F4A3CF8BE4989FC0011124909322
:103A600019038093180304C00E94B81C0E946523A8
:103A70001F910F91FF90EF90089580911703882375
:103A800069F02091B6043091B704809118039091A9
:103A900019032817390714F00E94BD1C0895982FA8
:103AA00080911703882391F481E08093170390930A
:103AB0007900109219031092180310921B031092B0
:103AC0001A030E94BD1C85B5836085BD08950E94C0
:103AD000AE2985E06BE87CE10E94B6290E94B41C07
:103AE000089590931D0380931C030895E0911C0397
:103AF000F0911D030190F081E02D099508950E9439
:103B0000761D0895DF92EF92FF920F931F93182F67
:103B1000062FF42EE22E642F422F202F0E947707CB
:103B20000E94D31BD82E8F2D6E2D0E944F1B8823F1
:103B3000E9F0002321F40E94781B8823B9F08D2D31
:103B40006E2D4F2D0E94D920182F002331F061E0F7
:103B50000E94B01F0E94631B05C080E00E94631B8F
:103B60000E945D1B812F865D8831D8F51123C9F134
:103B7000812F602F0E94D425182F6F2D4E2D202FBE
:103B80000E94E824D82E812F602F0E94CA1F812F07
:103B9000602F0E947020002311F00E940D200E94CF
:103BA0005A21882349F0812F6F2D4E2D202F0E94FE
:103BB0006321182F8823A9F0DD2099F0812F0E941E
:103BC000FC20882371F4002329F0812F0E94EE212C
:103BD000882339F4812F60E00E94B01F602F0E947B
:103BE000761D1F910F91FF90EF90DF9008952F9217
:103BF0003F924F925F926F927F928F929F92AF927D
:103C0000BF92CF92DF92EF92FF920F931F93DF93B9
:103C1000CF9300D000D0CDB7DEB70E94F623882323
:103C2000E1F00E9468238823C1F40E944524092FF3
:103C3000813019F4892F61E00EC0892F87568830B2
:103C400040F40E945F20182F802F0E940B21182320
:103C500021F4802F60E00E94761D0E94D01B8823F3
:103C600009F4AAC00E94E11B282E0E94801B182F75
:103C7000092F0E94831B3C01212F302FC9014C01C9
:103C80008FE0289E600111248EE193E0C80ED91EBA
:103C9000EE24FF243E2CD3018C91882329F4F401D7
:103CA0008081882309F475C01C821B82C701825E53
:103CB0009C4F9A838983AB8021E0422E512C0A2CA1
:103CC00002C0440C551C0A94E2F7B42CD4011C9198
:103CD000142109F011E090E0F30180818B2109F0BB
:103CE00091E0911709F44DC00E947B24882341F094
:103CF000112309F446C0832D6A2D0E947E245AC0E8
:103D0000822D632D4A2D0E94D920082F612F0E94F9
:103D1000C624802F0E94D624882399F1112339F0DC
:103D2000D6018C918B298C93802F61E026C0E9818C
:103D3000FA8110E0808190E084219521892B29F47B
:103D40001F5F3F961430B1F7122D812F632D4A2D3E
:103D50000E94D920212F30E0F90194E0EE0FFF1FDF
:103D60009A95E1F7E21BF30BEE0DFF1DE25EFC4FAF
:103D7000B09490819B21908360E04A2D232D0E9476
:103D8000821DEB81FC813196FC83EB83389709F02F
:103D900092CF0894E11CF11C0894611C711C0894DA
:103DA000811C911C0894C11CD11CFFE0EF16F1048A
:103DB00009F070CF0E94861B0F900F900F900F900C
:103DC000CF91DF911F910F91FF90EF90DF90CF90F7
:103DD000BF90AF909F908F907F906F905F904F902B
:103DE0003F902F900895982F80915B0380FF0FC024
:103DF000993611F49AE60BC09A3611F499E607C089
:103E00009D3611F49EE603C09E3609F49DE6892F87
:103E1000089580E00E945520882319F010925C03D9
:103E200008950E945F20982F80915A03981791F06F
:103E30009C3221F0903E11F0943A41F410926003CC
:103E400010925F0382E080935C0302C010925C03D7
:103E500090935A0340915C034423B1F180915F0336
:103E60009091600301969093600380935F0320918B
:103E70005D0330915E032817390734F54230E1F4D1
:103E800082E390E00E94811080915B0380FF04C078
:103E90008E7F80935B0310C0816080935B0384EF0F
:103EA00091E02CE231E0F9013197F1F70197D9F770
:103EB00084E690E00E94811088E090E060915B03CE
:103EC0000E940D2E10925C03089588E090E00E94FD
:103ED000F52D80935B038F3F11F410925B0388E80C
:103EE00093E10E948F2A90935E0380935D0308956F
:103EF0008091620308951092610310926203109200
:103F000063030895E82FF0E0E651FE4CEE0FFF1F2B
:103F1000E4918E2F0E94D6200895E82FF0E0EE0F56
:103F2000FF1FEB52FC49E4918E2F0E94D62008958A
:103F30000F931F93082F865D883110F0102F0CC04F
:103F4000802F0E94821F182F0E94FC20882321F0BE
:103F5000802F0E948D1F182F812F1F910F91089580
:103F60001F93182F865D883190F4662341F40E94D8
:103F7000781F882361F080916103811721F4812FDC
:103F80000E94821F03C0812F0E94981F182F812F2B
:103F90001F9108951F93182F865D662399F088312D
:103FA00068F40E944C1B882349F0809161038823A8
:103FB00029F410936103109262032DC081E0809375
:103FC000620329C0883138F510916103112319F17A
:103FD0000E94781F8823F9F4812F0E948D1F182FCB
:103FE0000E941523812F0E941523109261031092C5
:103FF0006503109264030E945A21882361F0812F87
:1040000060E040E021E00E946321812F60E040E019
:1040100020E00E9463211F9108951F931091610376
:10402000112311F10E94781F8823F1F0809163031E
:104030008823D1F4812F0E94821F61E00E947F1D9E
:104040000E945A21882349F0809161030E94821FB7
:1040500060E040E021E00E9463211092650310922D
:10406000640381E0809363031F910895809161034D
:104070008823A9F080916203882389F480916403E6
:104080009091650301969093650380936403855F27
:10409000914028F081E0809362030E940D200895F2
:1040A00080916E03811181E00895863010F080E0E8
:1040B0000895E82FF0E0EA59FC4F8081089580913F
:1040C0006C03089510926D0310926C0310926E03AE
:1040D00086E0E6E6F3E0DF011D928A95E9F70895B0
:1040E0000F931F93162F0E94981F082F8756112396
:1040F00029F1883038F410916C03802F0E940B2135
:10410000182B25C080916E038F5F80936E03809182
:104110006D038630A8F50D3B98F586E693E0602F99
:104120000E94BD228F5F9F4F59F580916D03E82F4C
:10413000F0E0EA59FC4F00838F5F20C0883050F4D4
:1041400010916C03802F0E940B21809518231093EF
:104150006C0316C080916E03815080936E0386E6D7
:1041600093E0602F0E94BD22BC0197FD09C086E646
:1041700093E00E94D72280916D03815080936D035C
:104180001F910F91089598E7899FF0011124E05045
:10419000FA4970E083E0660F771F8A95E1F7E60F32
:1041A000F71FE40FF11DE4918E2F08950E94F31E76
:1041B0000895FF920F931F93182F062FF42E0E943D
:1041C0005A21882361F0812F602F4F2D0E94C32038
:1041D000182F0E944C21882341F010E006C0812F47
:1041E000602F4F2D0E94C320182F812F0E94D620B0
:1041F0001F910F91FF900895982FEEEDF1E08491BB
:10420000981711F481E00895319681E0E23EF807B5
:10421000B1F780E00895E82FF0E0E558FE4FE49113
:104220008E2F089580916F03089580916F038823E6
:1042300011F40E94710781E080936F0308958091CB
:104240006F038823C9F480917003909171030196E4
:1042500090937103809370038053954768F0109298
:10426000710310927003809172038F5F80937203C9
:104270008A3011F40E941521089580916F038823DC
:1042800011F00E94CE0D10926F03109271031092E4
:10429000700310927203089590E08D5B883108F4EA
:1042A00091E0892F089590E0895C8C3008F491E0CA
:1042B000892F08958091740308951092740381E00A
:1042C0008093E90308950F931F93022F60E00E94EB
:1042D000B01F182F8D3B80F5002369F08091730388
:1042E000863250F58F5F8093730387E793E0612FE9
:1042F0000E9409230EC087E793E0612F0E94BD2230
:10430000BC018FEF6F3F7807B9F087E793E00E9419
:10431000D72280917603E82FF0E0E356FC4F10831C
:104320008F5F809376038C3440F0809174038823F0
:1043300021F00E945D2101C010E0812F1F910F919B
:1043400008959CE4EDE9F3E0DF01292F1D922A9501
:10435000E9F710927603E7E7F3E0DF011D929A9503
:10436000E9F7109273038093750381E080937403DF
:104370001092E90388EC90E00E94811088EE93E0AF
:104380002CE231E0F9013197F1F70197D9F784E692
:1043900090E00E9481100895809175038C30E8F4BC
:1043A00060E3869FB00111246B557E4F8DE993E049
:1043B00040E350E00E94FD2D609175038CE1689F01
:1043C000B0011124635F7F4F8DEC93E04CE150E02E
:1043D0000E94FD2D8FEF8093750308951F93182F72
:1043E0000E944C218823C9F00E94F623882361F49F
:1043F0001D5B812F0E949A1C882371F00E9400246B
:10440000812F0E944F1D08C00E946223882321F043
:104410000E9423240E94652381E01F9108958F92BA
:104420009F92AF92BF92DF92EF92FF920F931F93F2
:10443000DF93CF930F92CDB7DEB78C01DD244E0111
:104440000894811C911C80E6A82E80E0B82E33C011
:1044500000D000D000D0EDB7FEB73196ADB7BEB7F3
:1044600012969C928E921197B382A282800F911F16
:10447000DC018C91848315820E94632D8DB79EB7D9
:1044800006960FB6F8949EBF0FBE8DBF89810E941D
:1044900077237C01882319F088E60E9415238F2D4D
:1044A0000E9415238F2D0E941523EE2019F088E617
:1044B0000E941523D3948D2D90E0F80101900020E7
:1044C000E9F73197E01BF10B8E179F0708F20F9069
:1044D000CF91DF911F910F91FF90EF90DF90BF90F0
:1044E000AF909F908F9008958091E903882399F071
:1044F0000E944C1B882379F00E94F623882359F4EC
:104500001092E9030E94CC218FEF8093750384E61B
:1045100090E00E948110089528EB3BE003C0F90170
:104520003197F1F70197D9F708951F93162F0E943D
:10453000F52D90E002C0959587951A95E2F7809544
:1045400081701F9108950F931F93162F042F0E94BF
:10455000F52D21E030E002C0220F331F1A95E2F75B
:10456000622F60956823002309F4622B87E090E0B6
:104570000E940D2E1F910F910895CF93DF93EC01B0
:10458000DC010D900020E9F71197A81BB90B70E032
:10459000AD010E94EE2C009719F4EFEFFFEF03C07E
:1045A000FC01EC1BFD0BCF01DF91CF9108959B0126
:1045B000FC0101900020E9F73197E81BF90B6F5FD0
:1045C0007F4F680F791FE21BF30B820F931FAF0120
:1045D0000E94042D0895FF920F931F93F42E9B01C8
:1045E000DC010D900020E9F78C01060F171FA81BB6
:1045F000B90BA61BB70B2F5F3F4F820F931FB8015C
:10460000AD010E94042DF801F0821F910F91FF90DF
:104610000895462FDC010D900020E9F71197A81BA3
:10462000B90BBD010E94EB220895282F8091190437
:1046300090911A04019690931A048093190484357A
:10464000910524F010921A04109219048091170415
:1046500090911804E0911904F0911A048E179F07A5
:1046600059F4009719F483E590E001C00197909305
:104670001A04809319040895E45EFB4F2083089583
:1046800020911704309118048091190490911A0414
:104690002817390711F480E00895C9010196909315
:1046A0001804809317048435910524F0109218049F
:1046B00010921704E0911704F0911804E45EFB4F88
:1046C0008081089580911B04089510921B04089521
:1046D00040E02091170430911804809119049091C2
:1046E0001A042817390709F441E0842F0895982FF8
:1046F00081568A3118F4292F2D5510C0892F8154E5
:104700008A3120F4292F2D5332E009C0892F81539B
:10471000893010F020E002C0292F235130E0892F8A
:1047200090E0FC01B097EF35F10508F048C0E65D78
:10473000FF4FEE0FFF1F0590F491E02D09942EE13D
:1047400041C02FE13FC020E23DC021E23BC022E258
:1047500039C023E237C024E235C025E233C026E267
:1047600031C027E22FC02CE22EC02DE22CC02DE25A
:1047700029C02EE228C02EE225C02FE224C02FE25D
:1047800021C020E320C020E31DC021E31CC021E3A1
:1047900019C023E318C023E315C024E314C024E3A5
:1047A00011C025E310C025E30DC026E30CC026E3AD
:1047B00009C027E308C027E305C028E304C022237B
:1047C00011F428E332E0832F922F089527E2FBCFE4
:1047D0000F931F930AEE13E090E0B8014AE050E017
:1047E0000E94162DC8011F910F9108950E94682301
:1047F000882319F481E090E008950E94971C0895A1
:104800000E946823882339F08AE2EDEEF3E0DF01AD
:104810001D928A95E9F7089510921A0410921904CE
:10482000109218041092170484E5ECE1F4E0DF0123
:104830001D928A95E9F78AE2EDEEF3E0DF011D9221
:104840008A95E9F70895CF93DF9310921A04109296
:104850001904109218041092170484E5ECE1F4E0B6
:10486000DF011D928A95E9F7CDEED3E08881882398
:1048700039F00E9415232196B4E0C731DB07B1F768
:104880000E94B81CDF91CF9108951F93CF93DF93BF
:104890000E944023182F0E944C21882361F00E941F
:1048A0002324812F8D5B0E944F1D81E080931B0488
:1048B00082E010E01BC0CDEED3E0112331F48AE298
:1048C000FE0111928A95E9F70AC0CE01612F0E947C
:1048D000BD22BC0197FD05C0CE010E94D72282E017
:1048E00005C0CE01612F0E94092381E0912FDF9145
:1048F000CF911F910895809170040895EF92FF92D7
:104900000F931F93E82EF62E03E610E0C8010E94D5
:104910000F228F2D0E94E8230E940F2285E690E04F
:104920000E940F228E2D0E94E8230E940F22C801B0
:104930000E940F221F910F91FF90EF900895809396
:1049400070040E94A90908950E9474220E94091F00
:104950000E943D1D0E9491250E9436200E943A111E
:10496000089580917604089580917104089580914E
:1049700072040895809173040895FC01808182304F
:1049800011F483E001C081E080830895662369F01B
:10499000843F29F487E794E00E94BD240895833F73
:1049A00021F488E794E00E94BD240895982F809117
:1049B0007704823059F080917804823029F49A3655
:1049C00029F080E09E3619F081E0089580E0089596
:1049D0000F931F93022F0E94981F182F0E94FC20F4
:1049E000882309F07AC0002309F469C01C3F41F014
:1049F000173F31F080917104882341F11A3231F56B
:104A000080917204809373041A3299F0882319F408
:104A10001C3F59F404C01C3F21F4823051F082E065
:104A200005C0173F31F4833021F083E08093720496
:104A300002C0109272040E94A909809172048093AE
:104A4000730480E01A3209F049C041C080917404B7
:104A5000882361F0812F0E945321882339F0195C4B
:104A600010937A0081E08093750437C0193221F4E5
:104A700081E08093710432C0153F71F48091760417
:104A800091E0892780937604882319F40E948A0E86
:104A900024C00E94660721C0123F59F40E945A2187
:104AA000882319F00E945D2118C081E0809374046E
:104AB00014C0812F609171040E94CB0E0FC01C3F67
:104AC00061F0173F51F0193221F41092710481E026
:104AD00005C0123FE1F71092740480E01F910F911E
:104AE0000895FC0180818130A1F482E0808382E31B
:104AF00090E00E94811084EF91E02CE231E0F90116
:104B00003197F1F70197D9F784E690E00E94811080
:104B10000895833029F4108284E690E00E94811089
:104B200008950E944C1B882341F087E794E00E947F
:104B3000712588E794E00E9471250E944C1B882310
:104B400079F080917504882359F010927504809152
:104B50007A008F3F29F00E94A1218FEF80937A0085
:104B6000089587E090E065E00E94952280937604A6
:104B70000895482F87E090E065E00E94A322089501
:104B800080917A040895482F80937A0487E090E01A
:104B900063E00E94A322089587E090E063E00E9412
:104BA000952280937A0408950F931F93182F062F50
:104BB000893229F40E94C025882319F417C0803B4C
:104BC000A9F4002351F00E945F20823011F080325E
:104BD00061F481E08093790406C080917904882390
:104BE00021F01092790415E301C019E2812F1F9181
:104BF0000F91089581E08093A204089581E080934D
:104C00007F041092800480937B040895982F81572D
:104C10008A31B0F481E080938104662369F0E92F42
:104C2000F0E0EE0FFF1FE855FE4F859194919093B1
:104C30008304809382040895109283041092820466
:104C40000895982F81578330B0F481E080938404D5
:104C5000662369F0E92FF0E0EE0FFF1FE855FE4FE5
:104C60008591949190938604809385040895109281
:104C7000860410928504089580917C04811181E05E
:104C800008950F931F93082F81508C3B08F059C053
:104C900080578A3108F455C081E080937C04802FCE
:104CA0008756662341F1883038F410917D04802FB7
:104CB0000E940B21182B28C080917E04863008F0BA
:104CC00040C0802F8D58823128F4E02FF0E0EF5C57
:104CD000FD4F049189E894E0602F0E94BD228F5F10
:104CE0009F4F79F589E894E0602F0E940923809115
:104CF0007E048F5F24C0883050F410917D04802F93
:104D00000E940B218095182310937D041AC0802FD8
:104D10008D58823128F4E02FF0E0EF5CFD4F0491D4
:104D200089E894E0602F0E94BD22BC0197FD09C074
:104D300089E894E00E94D72280917E04815080937C
:104D40007E041F910F9108951F93182F662351F031
:104D500061E00E944126812F61E00E940626812F9A
:104D600061E009C060E00E944126812F60E00E945E
:104D70000626812F60E00E94212681E01F91089580
:104D80002F923F924F925F926F927F928F929F925B
:104D9000AF92BF92CF92DF92EF92FF920F931F9349
:104DA000DF93CF9300D00F92CDB7DEB782B3837F6E
:104DB00082BB81B3837F81BB0E94352888E991E063
:104DC0000E94F52D882351F48B9A20E048EB5BE09C
:104DD000A895CA010197F1F72150D1F78B988BE77D
:104DE00090E00E94711D8DE790E00E94982A86E075
:104DF000E9E8F4E0DF011D928A95E9F710927E045C
:104E000010927D0410928304109282047894BB2443
:104E1000EE24FF24CC24DD2473E0772E64E0662E9C
:104E200055EA852E54E0952E48E0A42E32E0232E3C
:104E3000312C280C391C29E8422E24E0522E809176
:104E4000A2048823A9F4B1E1CB16B7E2DB0624F46F
:104E50000894C11CD11C0CC0F8948B9A2CE088E1FA
:104E600090E00FB6F894A89581BD0FBE21BDFFCF8D
:104E70008091D304882351F01092D30410927B04C4
:104E80000E943D21BB24EE24FF2420C080917B049E
:104E9000882339F0E1E0E093D3040E943D21BB2454
:104EA00015C0BB2099F487010F5F1F4FF9EEEF1675
:104EB000F3E0FF0654F00E944C1B882331F00E945F
:104EC00015217801BB24B39401C078010E94702899
:104ED0008091C30484FF6CC080918104882331F4E5
:104EE00080918404882311F40E94F71D80917C0432
:104EF000882309F441C08091A204882309F49FCF3C
:104F0000BB2001F1F89422B331B3929A939881B304
:104F10008C6081BB88EE93E0ECE2F1E03197F1F731
:104F20000197D1F782B3862582BB82B38A2582BBE3
:104F300088E293E20197F1F722BB31BB789410929B
:104F40007C047DCFD401EA2D1D92EA95E9F780918A
:104F50007D048093A5041092A60440917E04C101B3
:104F6000B20150E00E94FB2C85EA94E068E00E94C8
:104F70006B2810927C041AC080917F04813081F4E8
:104F8000F2E0F0937F04D401EA2D1D92EA95E9F74F
:104F900085EA94E068E00E946B280E94571C06C0D6
:104FA00080918004823011F4709280040E94A424C5
:104FB0008091F00484FF24C080918104882371F0E3
:104FC000809182049091830479829B838A83CE01AD
:104FD000019663E00E946628109281048091840407
:104FE000882371F0809185049091860469829B8367
:104FF0008A83CE01019663E00E94662810928404A1
:1050000080917F04823009F01ACF809187049091BB
:1050100088049C012F5F3F4F3093880420938704BE
:10502000883C910519F40E94F72A09CF293C3105E3
:105030000CF405CF89EC90E090938804809387046A
:1050400070927F04FCCE0E94D6050E94A90980912F
:105050008004882319F482E08093800408958BE40F
:105060008093C4048093F104089585B7886085BF58
:105070008BB780688BBF0E942F288AE58093C3047A
:105080008093F00408951F93CF93DF93DC01162FD4
:10509000EA01888184FF05C0898198E8892789838E
:1050A00002C08AE58883AE014E5F5F4FFA01212F6F
:1050B0008D9181932150E1F7CA01612F0E94F00187
:1050C0001C5F1883DF91CF911F91089540EF54E04A
:1050D0000E944328089543EC54E00E944328089519
:1050E0001F93CF93DF936091D604635067FDAEC0EA
:1050F0008091D204CCE0D0E0C81BD109C652DB4F6E
:105100008091D1048D3209F08EC0683009F09CC0C6
:1051100083EC8093B8048AE580937F001092D004DA
:105120008881807629F0CE010E941413282F68C050
:105130009A811092C1048981882331F41092C204AB
:1051400081EC94E022E058C0853019F49093D704A4
:1051500050C08630D1F58B81813031F489B78B7F97
:1051600089BF8FE493E01DC0823029F18330F9F4C8
:105170008A81882341F48DE193E09093D504809354
:10518000D40424E01EC0813041F481E293E0909386
:10519000D5048093D4042CE114C0823089F48DE3CB
:1051A00093E09093D5048093D40422E10AC0813225
:1051B00011F0823229F4CE010E942812282F01C05A
:1051C00020E080E48093D0041BC0883019F489ED7E
:1051D00094E009C0893019F49093D9040AC08A3048
:1051E00021F481EC94E021E007C08B3011F40E949F
:1051F0002F2881EC94E020E09093D5048093D40490
:105200002F3F39F4888187FD2E8180E88093D00478
:1052100006C08F81882319F48E81821708F0822FAF
:105220008093800011C08091D00487FF0DC0CE0113
:105230000E94D9128F3F21F48EE180937F0004C039
:10524000882311F0109280001092D60480917F0084
:1052500084FF56C0809180008F3F09F451C0182F01
:10526000893008F018E0811B809380008091B80499
:1052700098E889278093B804112379F18091D004AC
:1052800087FF07C089EB94E0612F0E946212182FFC
:1052900022C02091D4043091D50486FF0AC0F901C0
:1052A000912FA9EBB4E084918D9331969150D9F769
:1052B00008C0D901912FE9EBF4E08D9181939150D1
:1052C000E1F7C90101961150810F911D1F5F909365
:1052D000D5048093D404193068F489EB94E0612FED
:1052E0000E94F001612F6C5F6C3041F08FEF809372
:1052F000800004C08FEF809380006EE160937F0098
:1053000094E180B38C7031F49150D9F71092D704A6
:105310001092CF04DF91CF911F91089593B7987F9A
:10532000982B93BF089582E00E948E2912BE89B700
:10533000816089BF08959EB5987F982B9EBD089582
:1053400082E00E949B291DBC1CBC89B7846089BF78
:10535000089595B5987F982B95BD089584E00E9497
:10536000A92914BC89B7806489BF0895883040F4A6
:10537000E82FF0E0EE0FFF1FE157FB4F71836083D2
:105380000895883040F4E82FF0E0EE0FFF1FE1575A
:10539000FB4F1182108208958FB58D7F8FBD8FB521
:1053A00081608FBD19BC18BC08958FB580628FBD18
:1053B0008FB58F7E8FBD08958FB58F7D8FBD8FB5D3
:1053C0008F7E8FBD089599BD88BD089578941F92F2
:1053D0000F920FB60F9211242F933F934F935F9329
:1053E0006F937F938F939F93AF93BF93EF93FF93AD
:1053F000789480918F0490919004892B29F0E0910A
:105400008F04F09190040995FF91EF91BF91AF91B6
:105410009F918F917F916F915F914F913F912F91CC
:105420000F900FBE0F901F90189578941F920F92B7
:105430000FB60F9211242F933F934F935F936F9367
:105440007F938F939F93AF93BF93EF93FF93789442
:105450008091910490919204892B29F0E09191041C
:10546000F09192040995FF91EF91BF91AF919F91B7
:105470008F917F916F915F914F913F912F910F90FD
:105480000FBE0F901F90189578941F920F920FB631
:105490000F9211242F933F934F935F936F937F93BA
:1054A0008F939F93AF93BF93EF93FF9378948091E3
:1054B000990490919A04892B29F0E0919904F09134
:1054C0009A040995FF91EF91BF91AF919F918F91B0
:1054D0007F916F915F914F913F912F910F900FBEF0
:1054E0000F901F90189580919F040895682F8093C6
:1054F0009F0487E991E00E940D2E089587E991E0CD
:105500000E94F52D80939F048F3F11F410929F0409
:1055100008958D98959A08958D9A959808959C016F
:1055200080918100882311F435952795C90108954C
:105530009093A4048093A3040895E091A304F091B0
:10554000A4040190F081E02D09950895F8940E943B
:10555000D3051092A1041092A0041092A204089501
:105560001F93182F0E94741C112399F010E0812FB3
:105570000E94C1291F5F1730D1F789B78E7F89BF7D
:1055800089B78B7F89BF89B78F7B89BF0E94892AA2
:1055900002C00E948C2A1F9108958CE090E00E9426
:1055A000F52D809381000E94651F0E94B1250E9405
:1055B0007E2A0E94CC250E9462208091810088234F
:1055C00061F40E94A62A82E390E00E94811080E0AC
:1055D0000E94B02A0E948C1807C00E94A62A81E06F
:1055E0000E94B02A0E94C02681E090E008950E94A7
:1055F00074100E945A100E94671D0895ABE0B0E03D
:10560000E4E0FBE20C94B02C5C014B017A01FC015C
:1056100017821682838181FD08C06FEF7FEF08C17A
:1056200042E050E0E40EF51E04C03E010894611C07
:10563000711CF501D380F401D3FC8591D3FE8191D7
:105640004F01882309F4F1C0853259F4D3FC6591E8
:10565000D3FE61914F01653219F0062F10E01BC097
:1056600085E290E02BC0002309F4DFC088E693E0D8
:10567000602F70E00E94E32C892B39F4033211F47F
:10568000106103C00C3661F41068F401D3FC05917D
:10569000D3FE01914F0117FFE6CF002309F4C5C0E7
:1056A00081E693E0602F70E00E94E32C892B51F09B
:1056B00044E050E0E40EF51E8FE390E0B5010E9457
:1056C000372DB7CF033629F0033779F00335F1F4DE
:1056D0000BC087010E5F1F4FF70180819181B501DB
:1056E0000E94372D7801A5CF1160F701C080D180CD
:1056F00004C090E0B5010E94372DF60110FD8591A0
:1057000010FF81916F018823A1F78ACF043611F031
:10571000093639F517FF08C0F70120813181428130
:10572000538184E090E00AC0F701808191819C015F
:10573000442737FD4095542F82E090E0E80EF91E93
:105740001F7E57FF08C050954095309521953F4FDB
:105750004F4F5F4F1064CA01B901A3012AE030E046
:1057600034C00037A9F0013730F40835B1F00F36F6
:1057700009F05BC006C0053739F0083709F055C09D
:1057800008C028E030E00CC01F7E2AE030E008C0EE
:105790001061146220E130E003C0146020E132E0C7
:1057A00017FF08C0F701608171818281938144E015
:1057B00050E008C0F70180819181BC0180E090E059
:1057C00042E050E0E40EF51EA3010E94872DD82E82
:1057D000D618012F10E006FF05C08DE290E0B5015C
:1057E0000E94372D04FF15C0FE01ED0DF11D8081D3
:1057F000803379F080E390E0B5010E94372D02FFFD
:1058000008C000721070C801885A9F4FB5010E94ED
:10581000372DDA94F301ED0DF11D808190E0B50193
:105820000E94372DDD20A9F704CFF501668177812D
:10583000CB012B96EEE00C94CC2C629FD001739F91
:10584000F001829FE00DF11D649FE00DF11D929F1C
:10585000F00D839FF00D749FF00D659FF00D99275B
:10586000729FB00DE11DF91F639FB00DE11DF91F7F
:10587000BD01CF0111240895991B79E004C0991F3F
:10588000961708F0961B881F7A95C9F7809508959A
:10589000AA1BBB1B51E107C0AA1FBB1FA617B70756
:1058A00010F0A61BB70B881F991F5A95A9F7809572
:1058B0009095BC01CD01089597FB092E07260AD0CB
:1058C00077FD04D0E5DF06D000201AF470956195CD
:1058D0007F4F0895F6F7909581959F4F0895A1E227
:1058E0001A2EAA1BBB1BFD010DC0AA1FBB1FEE1F5A
:1058F000FF1FA217B307E407F50720F0A21BB30BA5
:10590000E40BF50B661F771F881F991F1A9469F720
:1059100060957095809590959B01AC01BD01CF017C
:10592000089597FB092E05260ED057FD04D0D7DF2A
:105930000AD0001C38F450954095309521953F4F82
:105940004F4F5F4F0895F6F790958095709561954C
:105950007F4F8F4F9F4F08952F923F924F925F92AC
:105960006F927F928F929F92AF92BF92CF92DF926F
:10597000EF92FF920F931F93CF93DF93CDB7DEB7D4
:10598000CA1BDB0B0FB6F894DEBF0FBECDBF099468
:105990002A88398848885F846E847D848C849B84BF
:1059A000AA84B984C884DF80EE80FD800C811B81CD
:1059B000AA81B981CE0FD11D0FB6F894DEBF0FBEFC
:1059C000CDBFED010895FC010590061621F00020E1
:1059D000D9F7C00108953197CF010895FC014150D6
:1059E000504030F001900616D1F73197CF0108955D
:1059F000882799270895FB01DC0102C001900D92D0
:105A000041505040D8F708956817790768F4FB01B2
:105A1000DC01E40FF51FA40FB51F02C002900E9227
:105A200041505040D8F708950C94FB2CFB019F0186
:105A3000E8944230C4F04532B4F44A3029F497FB7C
:105A40001EF4909581959F4F642F77270E94482CD4
:105A5000805D8A330CF0895D8193CB010097A1F7BB
:105A600016F45DE251931082C9010C942B2E0F9312
:105A70001F93CF93DF938C01EB018B8181FF1BC0C0
:105A800082FF0DC02E813F818C819D8128173907AF
:105A900064F4E881F9810193F983E88306C0E8851D
:105AA000F985802F0995892B31F48E819F8101968C
:105AB0009F838E8302C00FEF1FEFC801DF91CF914C
:105AC0001F910F910895AEE0B0E0E9E6FDE20C947D
:105AD000BA2C0D891E8986E08C831A8309838FEF87
