:100000000C949D030C94E1030C94FC030C94E10309
:100010000C94E1030C94E1030C94E1030C94E103D0
:100020000C94E1030C94E1030C944C240C94E10334
:100030000C94E1030C94E1030C94E1030C94E103B0
:100040000C94E1030C94E1030C94E1030C94E103A0
:100050000C94E1030001010101010101010102020F
:100060000202020202020203030303030303030466
:100070000404040404040505050505060606060631
:10008000070707070708080808090909090A0A0AEB
:100090000B0B0B0C0C0C0D0D0D0E0E0E0F0F0F108D
:1000A0001011111112121313141415151616171717
:1000B000181819191A1A1B1B1C1D1D1E1E1F202083
:1000C000212222232424252626272829292A2B2CCD
:1000D0002D2D2E2F30313232333435363738393AF0
:1000E0003B3C3D3E3F404142434445464748494AE8
:1000F0004C4D4E4F50515354555658595A5B5D5EB6
:100100005F616264656668696B6C6D6F7072737550
:1001100077787A7B7D7E8082838587888A8C8E8FB4
:1001200091939596989A9C9EA0A2A3A5A7A9ABADE2
:10013000AFB1B3B5B7BABCBEC0C2C4C6C9CBCDCFD0
:10014000D1D4D6D8DBDDDFE2E4E7E9EBEEF0F3F57E
:10015000F8FAFDFFFFAA7F55402223252628292AE9
:100160002C2D2F3032333536383A3B3D3E4042431A
:100170004547494A4C4E5051535557595A5C5E6059
:1001800062646668696B6D6F71737577797B7D7F6B
:1001900081838587898A8C8E90929496989A9C9E6A
:1001A0009FA1A3A5A7A8AAACAEAFB1B3B4B6B8B986
:1001B000BBBCBEBFC1C2C3C5C6C7C9CACBCCCDCEEE
:1001C000D0D1D2D2D3D4D5D6D7D7D8D9D9DADADBD1
:1001D000DBDBDCDCDCDCDCDDDDDDDDDCDCDCDCDC5D
:1001E000DBDBDBDADAD9D9D8D7D7D6D5D4D3D2D29C
:1001F000D1D0CECDCCCBCAC9C7C6C5C3C2C1BFBE84
:10020000BCBBB9B8B6B4B3B1AFAEACAAA8A7A5A3EE
:10021000A19F9E9C9A98969492908E8C8A898785AD
:1002200083817F7D7B79777573716F6D6B6968668C
:100230006462605E5C5A5957555351504E4C4A495E
:1002400047454342403E3D3B3A3836353332302F06
:100250002D2C2A29282625232229003A003B003C60
:10026000003D003E003F004000410042004300448A
:100270000045004C004700480035001E001F0020CC
:100280000021002200230024002500260027002D45
:10029000002E004C002A004A002B0014001A00080F
:1002A00000150017001C0018000C00120013002F8E
:1002B00000300031004D00000039410400160007F5
:1002C0000009000A000B000D000E000F003300347F
:1002D00000320028004B000000E10064001D001BFC
:1002E0000006001900050011001000360037003824
:1002F00000E500000052004E00E000E300E20000D4
:1003000000000000002C0000000000E600E70000F4
:1003100000E400500051004F000100010001000105
:1003200000010001000100010001000100010001C5
:1003300000010001000100010001000100010001B5
:1003400000010001000100010001000100010001A5
:1003500000010001004C000100010001000100014A
:10036000000100010001000100010001000100AADC
:1003700000A90001000100000001000100010001CE
:100380000001000100010001000100010001000165
:100390000001000100010000000100010001000156
:1003A000000100010001000100A80001000100019E
:1003B0000001000000010001000100010001000037
:1003C000000000000001000000000001000100002A
:1003D0000001000100010001000100010001000115
:1003E0000001000100010001000100010001000105
:1003F00000010001000100010001000100010001F5
:1004000000010001000100010001000100010001E4
:1004100000010001000100010001000100010001D4
:1004200000010001000100010001000100010001C4
:1004300000010001000100000001000100010001B5
:1004400000010001000100010001000100010001A4
:100450000001000100010000000100010001000195
:100460000001000100010001000100010001000184
:100470000001000000010001000100010001000076
:100480000000000000010000000000010001000069
:100490000001000100010001000100010001000154
:1004A0000001000100010001000100010001000144
:1004B0000001000100010001000100010001000134
:1004C0000001000100010001000100010001000124
:1004D0000001000100010001000100010001000114
:1004E0000001000100010001000100010001000104
:1004F00000010001000100000001000100010001F5
:1005000000010001000100010001000100010001E3
:1005100000010001000100000001000100010001D4
:1005200000010001000100010001000100010001C3
:1005300000010000000100010001000100010000B5
:1005400000000000000100000000000100010000A8
:100550000001000100010001000000000000000097
:10056000000000000000000000000000007E0F00FE
:10057000D4FFFFFFC700000078000000000000006B
:10058000002A2B28000000000000000000000000EE
:100590000000000029000000002C1E34202122242D
:1005A000342627252E362D3738271E1F20212223BB
:1005B0002425263333362E37381F0405060708094D
:1005C0000A0B0C0D0E0F1011121314151617181913
:1005D0001A1B1C1D2F3130232D3504050607080971
:1005E0000A0B0C0D0E0F10111213141516171819F3
:1005F0001A1B1C1D2F3130354C32190A00047F3F65
:100600001F643214643214783C1E1E140A0505015E
:100610000980A101850319012AB700150126B70039
:10062000950175108100C0050C0901A1018504190F
:10063000012AA002150126A002950175108100C0B3
:100640000660FF0961A1010962150026FF009520DF
:10065000750881020963150026FF00952075089131
:1006600002C005010906A101050719E029E71500E7
:10067000250195087501810295017508810305071B
:10068000190029FF150026FF009506750881000551
:1006900008190129059505750191029501750391C8
:1006A00003C004033000000010034C005A00200077
:1006B00043004C0053006D0000000C034C0065002B
:1006C00065004B00750000000403090409025B008B
:1006D000030100A0FA09040000010301010009213F
:1006E00001010001224000070581030800010904FF
:1006F0000100020300000009210101000222220082
:100700000705840308000107050403080001090424
:100710000200010300000009210101000122320052
:10072000070583030800011201100100000008A062
:100730002052410001010203010011241FBECFE538
:10074000D8E0DEBFCDBF04B603FE24C08091C00355
:100750009091C103A091C203B091C3038730904B25
:10076000A740B04BB9F41092C0031092C10310928D
:10077000C2031092C30314BE84B7877F84BF0FB631
:10078000F894A89581B5886181BD11BC0FBEE0E0E9
:10079000F8E3099523E0AEE2B1E001C01D92A03C70
:1007A000B207E1F711E0A0E6B0E0E2E6FCE402C047
:1007B00005900D92AE32B107D9F70E94DD1E0C9460
:1007C000EE250C940000A82FB92F80E090E041E0C6
:1007D00050EA609530E009C02D9182279795879562
:1007E00010F084279527305EC8F36F5FA8F3089553
:1007F000EADF8D939D930895CF93CFB7CF93C395A1
:10080000839BE9F7839B0EC0839B0CC0839B0AC02C
:10081000839B08C0839B06C0C0919A03C395C09375
:100820009A03A6C0DF93C0919903DD27C256DC4F1F
:10083000839B02C0DF91E6CF2F930F931F9300B3EA
:100840002FEF03FB20F94F933F9310B34FEF012796
:1008500003FB21F93BE031C04E7F012F10B3216033
:1008600028C0102F4D7F2260000000B329C04B7FAD
:100870002460012F000010B32BC010B3477F286005
:100880002AC04F7E00B320612CC04F7D10B3206280
:100890002FC04F7B00B3206432C0422700B349937E
:1008A0004FEF0000102713FB20F910B31C70C9F1A3
:1008B000297F91F2012703FB21F900B3237F89F2FD
:1008C000315058F1102713FB22F910B3277E79F22B
:1008D000012703FB23F92F7C81F200B3102713FBC0
:1008E00024F92F7971F200C010B3012703FB25F919
:1008F0002F7359F200C000B3102713FB26F92230E2
:1009000040F200C010B3012703FB27F9243028F67A
:100910004F77206810B30000F9CF10E81ABF002706
:100920001CC03B503195C31BD04010E81ABF088152
:10093000033C11F10B3401F1209197031981110F40
:100940001213EDCF4A81441F093669F10D3211F0BF
:10095000013E29F74F7009F0042F00939D033F914A
:100960004F911F910F912F91DF91CAB7C7FD47CFCC
:10097000CF91CFBFCF91189520919D03222379F37A
:1009800010919B03112309F044C034300AF443C092
:1009900030939B0320939803109199033BE0311B04
:1009A0003093990338C000919B03013094F50AE518
:1009B0004F7049F43091AB0034FD2FC00093AB0071
:1009C000C4E7D3E02EC0433059F0443091F0309169
:1009D0007F0334FD22C000937F03C0E8D3E021C031
:1009E0003091B40334FD19C00093B403C5EBD3E0D8
:1009F00018C030918B0334FD10C000938B03CCE8FA
:100A0000D3E00FC02795A8F45150A9F4220F00009D
:100A1000F9CF4AE503C042ED01C0432FC4E1D0E065
:100A200032E011B31C60939A11BB02B320E41CE0C6
:100A30005F93012756E002BB279520F4515021F423
:100A4000220FF9CF012756E000003B5A02BBD0F23B
:100A5000279528F4515029F4220F0000F9CF0127DF
:100A600056E0279502BB20F4515021F4220FF9CF14
:100A7000012756E02991332302BB21F6037F109111
:100A80009C03110FC651D04002BB11F01093970385
:100A900010E81ABF086011B3137F402F437F5F91A6
:100AA00000C000C002BB11BB42BB59CFFC01838117
:100AB000833089F130F48130F1F0823021F180E02F
:100AC0000895813209F44BC08232C9F724813581FF
:100AD0002130310509F461C02115310509F455C0F3
:100AE0002230310561F78EE096E090930403809305
:100AF000030382E3089587E297E0909304038093D1
:100B0000030382E108958CEC96E0909304038093B4
:100B100003038BE508958281813089F0882339F0C1
:100B20008230A9F0833059F682EA96E002C088EC60
:100B300096E0909304038093030384E008958AEB86
:100B400096E090930403809303038CE0089588EA71
:100B500096E0909304038093030380E108958281DB
:100B6000813081F0882331F0823009F0A8CF87E10D
:100B700097E002C08EED96E0909304038093030308
:100B800089E0089587EF96E0F7CF82E696E09093AC
:100B900004038093030380E4089520E436E0309357
:100BA0000403209303030895089508958091FE029D
:100BB00008959C014FB7F89480915E0290915F0276
:100BC000A0916002B09161024FBF821B930B089508
:100BD0002FB7F89480915E0290915F02A09160021D
:100BE000B09161022FBF089580912C028111109263
:100BF0002C02089580912B0290912A02892B9091CA
:100C00002902892B80932E0190912C02992391F037
:100C1000892B80932E0120E080E391E0FC0131914B
:100C2000CF0131112F5FF1E086339F07B9F7211112
:100C30000E94F405E0913102F0913202309731F0D8
:100C40000280F381E02D8EE291E009940895E0E3C3
:100C5000F1E09191891303C0DF0111971C9291E09B
:100C6000E633F907B1F70895A0E3B1E0EFEF90E0C4
:100C70002D91821751F0EF3F19F4211101C0E92F96
:100C80009F5F9630A9F7EF3F09F408950E2E000CF0
:100C9000FF0BE25DFE4F828308959295907F890F4E
:100CA000982F977086958695869525E0829FF0010E
:100CB0001124E451FE4F50E040E080E0219130E00B
:100CC000092E02C0369527950A94E2F72170332742
:100CD000042E01C0220F0A94EAF7822B4F5F5F4F68
:100CE0004530510559F708959295907F890F982FB7
:100CF000977041E001C0440F9A95EAF78695869572
:100D0000869595E0899FF0011124E451FE4F30E073
:100D100020E070E05191DF011197CB01022E02C05B
:100D2000969587950A94E2F78170819585278423AB
:100D300085278C932F5F3F4F2530310559F7089554
:100D40008091EB019091BA01981301C008958F5FD3
:100D50008770FACF882341F0809590912B028923E8
:100D600080932B020C94FA050895882339F0909112
:100D70002B02982B90932B020C94FA050895209146
:100D8000B0013091B1012817390771F09093B1018A
:100D90008093B001E0913102F0913202309721F05E
:100DA0000084F185E02D099408952091AE013091E1
:100DB000AF012817390771F09093AF018093AE010E
:100DC000E0913102F0913202309721F00680F781F4
:100DD000E02D0994089510922A02109229020E948F
:100DE000FA0590E080E00E94D50690E080E00C9447
:100DF000BF06609325037093260380932703909387
:100E000028030C94EB060F931F93609125037091B8
:100E1000260380912703909128038B019C01067083
:100E2000112722273327063011052105310529F422
:100E300068601F910F910C94F906677FFACF0F93AA
:100E40001F9341E050E060E070E004C0440F551F84
:100E5000661F771F8A95D2F7CB01BA01609570950E
:100E600080959095009125031091260320912703EA
:100E70003091280360237123822393231F910F91C4
:100E80000C94F9069091280280958923809328027A
:100E9000282F277071F4282F082E000C330B92177F
:100EA000130639F08595859585950E941F07109248
:100EB000280208950F931F9341E050E060E070E036
:100EC00004C0440F551F661F771F8A95D2F7809183
:100ED000250390912603A0912703B09128038A014E
:100EE0009B01082B192B2A2B3B2BC901B8011F9101
:100EF0000F910C94F90660932D0270932E0280934B
:100F00002F02909330020C94EB06E0913102F091A5
:100F10003202309721F00190F081E02D099480E0B9
:100F20000895882309F452C0823871F40E9485071D
:100F300081FF4CC089E30E9434060E94FA0589E3D0
:100F40000E9427060C94FA05833859F40E948507FD
:100F500080FF3CC083E50E9434060E94FA0583E5C9
:100F6000EFCF843859F40E94850782FF2FC087E4B1
:100F70000E9434060E94FA0587E4E2CF9CEF980FA6
:100F8000913AF0F290E2980F983088F4877021E05F
:100F900030E0A90102C0440F551F8A95E2F7CA014B
:100FA000809590912B02892380932B02CBCF9BE5D8
:100FB000980F933020F490E080E00C94D506885A86
:100FC000873120F490E080E00C94BF060895FA0188
:100FD000811101C0FB01099480915902982F9E7FD5
:100FE00061F4817082608093590280915C02893C37
:100FF00018F088EC80935C0208958635B0F3817018
:101000008465F1CFAF92BF92DF92EF92FF920F9380
:101010001F93CF93DF93182F062FE901493C08F067
:1010200048ECE42FF0E0EC5AFF4F011110C0E491BE
:101030005E2F4E2F4983E8835A83DF91CF911F9112
:101040000F91FF90EF90DF90BF90AF900895202F09
:1010500030E04491D42EE42EF12C56E0159FC001CF
:101060001124EFEFF0E0BF010E948A24812F90E06D
:10107000880F991F55E5569FD001579FB00D112439
:101080008A1B9B0B982F990F890F5F01A21AB30A35
:10109000AE9CD001AF9CB00DBE9CB00D11245B2F57
:1010A000089F80011124012F11275F01A01AB10AA6
:1010B000AE9C8001AF9C100DBE9C100D11245F01F1
:1010C000A81AB108A29EC001A39E900DB29E900DD9
:1010D0001124892F9927E81BF90BEE9DC001EF9D84
:1010E000900DFE9D900D1124E92F62307105A1F045
:1010F00050F46115710509F49DCF6130710581F0DF
:10110000EB2F512F97CF6430710569F080F0663076
:10111000710509F48FCFF4CFE42F4B2F592F8ACFCD
:10112000E42F412F87CFEB2F542F492F83CF4B2F05
:101130005D2DE12F7FCF90913F0292FF06C0282FB7
:1011400028712830F9F4877F846093FF06C0282F28
:1011500028712831F1F4877E84612091400220FFBC
:1011600006C0382F38713830D9F4877F816021FF6D
:1011700006C0282F28712831D1F4877E816194FD23
:10118000877E0895282F24712430F9F68B7F88609C
:10119000DCCF282F2471243101F78B7E8861DDCFCD
:1011A000382F3171313019F78E7F8860E0CF282FCA
:1011B0002171213121F78E7E8861E1CF06B607FECD
:1011C000FDCF089583B986B78F70806886BF0E946F
:1011D000DE0881B1982F987F983251F0983141F014
:1011E000982F987E81E0903409F080E08170089516
:1011F00081E0FCCF86B7806D86BF06B604FEFDCFCA
:10120000089586B7806A86BF0E94DE0891B1987FF4
:1012100081E0983019F0903109F080E081700895F4
:10122000EF92FF920F931F93CF93DF93082F0E94AB
:101230000109811109C010E0812FDF91CF911F9129
:101240000F91FF90EF90089580EB0E94E2088823B1
:1012500091F3C9E2D3E07E0189910E94E208182F40
:10126000882349F38E2D8C1B800FB1F70E94FA085A
:10127000E3CF93E09093290390932A03811184E0B4
:10128000611182604111816080932B0383E00E9491
:10129000100981E00895CF93DF9380919B038350E1
:1012A00087FD14C090919903CCE0D0E0C91BD1090F
:1012B000C256DC4F90919803903108F06BC0883093
:1012C00009F453C01092F30210929B038091AB007B
:1012D00084FF3EC08091AA008F3FD1F1C82F893092
:1012E00008F0C8E0982F9C1B9093AA00909174037B
:1012F00028E89227909374038823E9F080910303F0
:10130000909104032091020326FF06C1FC012C2FBB
:10131000A5E7B3E034913D9331962150D9F79C0174
:101320002F5F3F4F8FEF8C0F820F932F911D909364
:101330000403809303036C2F85E793E00E94F80376
:10134000CC5FCC3019F08FEF8093AA00C093AB0034
:1013500084E190B39C7031F48150D9F710929C03D2
:1013600010929703DF91CF9108958091F302893114
:1013700008F0A8CFE82FF0E0EB5FFC4F9E01285F5C
:101380003F4F999191932C173D07D9F7885F809330
:10139000F3029ACF9D3209F0A3C0883009F094CFB0
:1013A00083EC809374038AE58093AB001092020370
:1013B0008881807609F447C0803229F5898181309F
:1013C00099F48C819D81892BF1F485EF92E09093C3
:1013D00004038093030388E09F81911131C09E81B3
:1013E000981770F5892F2CC0823041F484EF92E079
:1013F000909304038093030381E0EECF8A3029F4B5
:101400008B818093F40280E0E7CF8930E1F78A8115
:101410009B818115924069F48C819D81892B49F4CF
:1014200081E0809301038E819F81909300038093DC
:10143000FF02888187FF52C08E8190E8909302035B
:101440008093AA0041CF2A8110927D039981911146
:101450000AC010927E032DE733E082E0309304034C
:1014600020930303B9CF953029F420939C032DE7F3
:1014700033E0F4CF9630C1F49B81913049F4CE0132
:101480000E94560590E4909302038F3F91F2A4CFFF
:101490009230A9F3933099F3913289F3923279F330
:1014A00090E49093020398CF983089F0993019F422
:1014B0002093FD02DCCF9A3071F09B30C1F69BE4A3
:1014C000909380039093B50390938C03D0CF2DEF2E
:1014D00032E081E0C3CF2DE733E0FBCF8FEFADCF1C
:1014E0008091020387FFF0CE8091FF02909100036C
:1014F000892B71F080910103813051F488818093B0
:10150000FE02109200031092FF021092AA00DCCE9D
:101510008EE18093AB00D8CEDC012C2FE5E7F3E021
:101520003D9131932150E1F7FACE1F93CF93DF9392
:10153000E82F792F162FEA01888184FF1CC02981AA
:1015400088E828272983CE010296DC012E2F372F29
:10155000512F5E0FF90121912D939F01452F4E1BB5
:101560001416C4F3612F0E94F8031C5F1883DF91E7
:10157000CF911F9108958AE58883E5CFCF93DF93BC
:10158000C5E0D3E080918B0384FF18C04BE853E0A3
:1015900068E0CE010E94950A289683E0C532D807FC
:1015A00089F780918B0384FF0CC04BE853E060E027
:1015B00090E080E0DF91CF910C94950A0E944B0956
:1015C000E1CF0E944B09EDCFCF93DF9300D00F9274
:1015D000CDB7DEB79091F202981307C02091F002C8
:1015E0003091F10226173707A1F08093F202709331
:1015F000F1026093F00289837B836A838091B40354
:1016000084FF07C044EB53E063E0CE0101960E94E3
:10161000950A0F900F900F90DF91CF910895BC0124
:1016200084E00C94E40ABC0183E00C94E40ACF93B8
:10163000DF93CAE0D0E080917F0384FF1CC08091DB
:10164000EE029091EF02981799F028E0829FC00176
:1016500011244FE753E068E082599D4F0E94950A9C
:101660008091EE0290E001968F7099278093EE02B0
:10167000DF91CF9108950E944B0987EB9BE0019782
:10168000F1F700C000002197B1F6F2CFCF93DF93BE
:10169000EC01A091EF02B0E0CD0101968F70992787
:1016A0002091EE02281779F093E0AA0FBB1F9A95BC
:1016B000E1F7A259BD4F98E0FE0101900D929A9575
:1016C000E1F78093EF020E944B090E94170B88E01C
:1016D000FE01A5EFB2E001900D928A95E1F7DF914E
:1016E000CF910895CF93C82F882309F488C08238FA
:1016F000C1F40E94850781FD82C089E30E943406FF
:101700000E94FA052FE789EA93E02150804090403B
:10171000E1F700C0000089E30E942706CF910C94F6
:10172000FA058338A1F40E94850780FD68C083E52F
:101730000E9434060E94FA052FE789EA93E02150BF
:1017400080409040E1F700C0000083E5E5CF843899
:10175000A1F40E94850782FD52C087E40E943406EE
:101760000E94FA052FE789EA93E0215080409040DB
:10177000E1F700C0000087E4CFCF8CEF8C0F813AF7
:1017800068F4E0E3F1E08191C81799F121E0E633D4
:10179000F207C9F78C2F0E943406C0CF80E28C0F6D
:1017A000883068F4C77021E030E001C0220FCA958C
:1017B000EAF780912B02822B80932B02AFCFEBE5CF
:1017C000EC0FE33040F4F0E0EA51FF4F808190E00D
:1017D000CF910C94D506C85AC73188F4EC2FF0E0AD
:1017E000EE0FFF1FE751FF4F80819181CF910C9445
:1017F000BF068C2F0E9427060E94FA05CBCFCF91FF
:101800000895CF93C82F0E94720BC93349F42FEF6C
:101810008DEE92E0215080409040E1F700C0000042
:101820008C2FCF910C9491070F931F93CF93DF933D
:10183000C42FD22FFC0182818823A1F04093B201F2
:101840000E94E8059093AD018093AC01C77081E0E0
:1018500001C0880FCA95EAF7DF91CF911F910F91D0
:101860000C94B5061091B201141335C08091AC01EF
:101870009091AD010E94D905883C910560F5C0E2C8
:10188000CD0F1D17B9F080E2810F883040F417703A
:1018900081E001C0880F1A95EAF70E94AA06C830B5
:1018A00048F481E09D2F977001C0880F9A95EAF760
:1018B0000E94B506802F0E94010CC83098F4D770A2
:1018C00081E001C0880FDA95EAF7DF91CF911F918F
:1018D0000F910C94AA06C77081E001C0880FCA95C9
:1018E000EAF7F3CFDF91CF911F910F9108957F9287
:1018F0008F929F92AF92BF92CF92DF92EF92FF9220
:101900000F931F93CF93DF9307E111E0A3E3B2E0BE
:10191000712CCC24C394D12CE80189918E01E82F3D
:10192000E295EF70F0E091A98F70760101C0EE0CA6
:101930008A95EAF7892F8E2981AB92A97E2D709521
:10194000972392ABD8E7DA95F1F79DE1A92E91E0C4
:10195000B92E50E040E030E020E0E50169915E0101
:10196000862E82948FE08822912CE40188A990E051
:101970006F7002C0959587956A95E2F780FD6DC0FE
:10198000C601042E02C0880F991F0A94E2F7282B83
:10199000392B4F5F5F4F40315105F9F681A98723FD
:1019A00081AB82A9E82AE2AA8D919C911197281710
:1019B000390709F455C011963C932E9381E0782A9B
:1019C0001296D1E00D311D0709F0A6CF772009F45A
:1019D00049C081E0809338010E94E8059093370167
:1019E0008093360180913601909137010E94D9058C
:1019F0000697E0F180913302909134029093630254
:101A00008093620280913502909136029093650234
:101A1000809364028091370290913802909367021C
:101A2000809366028091390290913A029093690204
:101A30008093680280913B0290913C0290936B02EC
:101A400080936A0280913D0290913E0290936D02D4
:101A500080936C021092380109C090E080E097CF2B
:101A600080E0ADCF809138018111BCCFA895872D42
:101A7000DF91CF911F910F91FF90EF90DF90CF906A
:101A8000BF90AF909F908F907F900895CF93DF93FA
:101A9000D82FCAE00E940109882379F081EB0E94C7
:101AA000E208882351F086B7806886BF0E94DE086E
:101AB00083B1809329030E94FA08809129038D172E
:101AC00061F08BE291E00197F1F700C00000C15096
:101AD00009F78C2FDF91CF910895C1E0FACF2BE267
:101AE0002093290321E120932A03EBE2F3E09C01F8
:101AF000215F3F4FDC014D91CD014193A217B30708
:101B0000C9F78BEA8093290381E10E941009882399
:101B100019F08BE20C94460D80E00895CF93DF938B
:101B2000CDB7DEB72F970FB6F894DEBF0FBECDBF8F
:101B30008823F1F088E089838A838B8395E09C83F6
:101B40008D838E838F83888789878A878B878C870D
:101B50008D878E878F87CE0101960E946F0D2F96FD
:101B60000FB6F894DEBF0FBECDBFDF91CF910895C1
:101B70008FE0ECEAF0E0DE01119601900D928A957B
:101B8000E1F7E9CF282F220F220F220F9091560262
:101B90009770922B90935602987F21E009F420E0F1
:101BA0009091560220FB90F9909356020C948E0D62
:101BB0001F93CF93DF93182F1470D82FD270C82F94
:101BC000C170412F6D2F8C2F0E94390987EB9BE04C
:101BD0000197F1F700C00000412F6D2F8C2FDF918E
:101BE000CF911F910C943909CF9384E090E00E942B
:101BF0003725C82F81E290E00E943725982F8C2F3F
:101C0000CF9108950F931F93CF93DF9320E2629FAC
:101C1000E001112450E0440F551FC40FD51F30ECD4
:101C2000839FC00DD11D1124CE0186960E943725B9
:101C3000082F10E0102F0027CE0187960E9437252D
:101C40009801282BC901DF91CF911F910F91089521
:101C5000462F843038F4763028F4603118F4672F3A
:101C60000C94020E90E080E00895CF93DF930E94E1
:101C7000280EEC0182389105A9F1D8F58133910540
:101C800009F496C048F58932910509F48AC08A970B
:101C900009F495C0C11522E5D20708F0B6C0C115F8
:101CA00031E5D30708F026C1C83ED10508F09CC035
:101CB000C03ED10560F5C83AD10508F087C0C53AE5
:101CC000D10508F0EFC0C130D10509F12097F9F036
:101CD000C430D105E0F440C08533910509F45AC001
:101CE000C997C1F680913F02837089F0C0EED0E0C1
:101CF0000EC0833E910599F170F4803E910501F18B
:101D0000823E910539F680913F0282FD21C0CE01CD
:101D1000DF91CF910895863E910561F1873E91054F
:101D200071F1843E910509F0B5CF8091400281FFA9
:101D3000EECF80913F02C7EED0E084FD0DC0E7CF2B
:101D400080913F0280FD07C19091400290FFDFCF5C
:101D5000C3EED0E084FFDBCFD0E0C0E0D8CF8091ED
:101D60003F0282FDFBC09091400290FDBFCF84FFF7
:101D7000CECFF2CF80913F0283FDDDCFC8CF8091DF
:101D80003F0283FDEEC09091400291FFF0CFC4EE80
:101D9000D0E0BDCF80913F0285FFB9CFC9E2D0E04E
:101DA000B6CF80913F0285FFB2CFC5E3D0E0AFCF81
:101DB00080913F0286FFABCFCAE2D0E0A8CF8091EE
:101DC0003F0286FFA4CFC1E3D0E0A1CFCF3BD10536
:101DD00018F6C85AD0E0CC0FDD1FC751DF4F09906D
:101DE000D881C02DD46493CFC11540E5D40708F045
:101DF00064C0C11580E4D80708F05CC0CE019A9594
:101E000081159F4108F483CFA7CFC11536E5D307CD
:101E100018F5C11545E5D40708F084C0C11584E55F
:101E2000D80708F07AC09C2F969596959E0123704E
:101E30003327C115D34508F462C0C1E0D0E002C029
:101E4000CC0FDD1F2A95E2F730E2939FC0011124E9
:101E5000C82BD92BDA685BCFC1158AE5D80778F48F
:101E6000C11599E5D90708F068C0C11528E5D20762
:101E700008F472CFDC2FCC27C06FD06A48CFCE01D8
:101E800090568115904208F067CF8D2F8F710E9478
:101E90009B0890E0982F882788279F719C012C2B06
:101EA000E90149C0C55AD0E0CA51DF4FC881D0E02E
:101EB000D0642DCFDF70D06A2ACFCE01E4E09695B2
:101EC0008795EA95E1F783702C2F26952695237048
:101ED00040E2249F90011124382B8C2F8370C1E0A5
:101EE000D0E002C0CC0FDD1F8A95E2F7C22BD32BC6
:101EF000DC680DCFDC2FCC27C16FD06A08CFC1E0E2
:101F0000D0E002C0CC0FDD1F2A95E2F720E2929FBD
:101F1000C0011124C82BD92BEBCFDC2FCC27C46FE9
:101F2000D06AF5CE8C2F0E949B08C82FD0E0DC2F02
:101F3000CC27CC27DF71D062EACE8C2F8F700E9425
:101F40009B0834E0D695C7953A95E1F7CF709C2F62
:101F5000EC01D069DCCEC9E3D0E0D9CEC2EED0E04E
:101F6000D6CEC6EED0E0D3CEBF92CF92DF92EF9224
:101F7000FF920F931F93CF93DF938C01C0902503A3
:101F8000D0902603E0902703F090280380912D0243
:101F900090912E02A0912F02B0913002C82AD92A26
:101FA000EA2AFB2ACFE1D0E0BC2ED701C6010C2ED5
:101FB00004C0B695A795979587950A94D2F780FDAA
:101FC0000EC0219788F7B12C8B2DDF91CF911F91F7
:101FD0000F91FF90EF90DF90CF90BF900895B801E0
:101FE0008C2F0E94350E019761F3EECFCF93DF93D4
:101FF000EC010E94B40FBE01DF91CF910C94350E1D
:102000000E94F60F292F2F7092959F7092509E304C
:1020100078F4E92FF0E0E051FA4D0C94B224803FBF
:1020200019F020F4883E20F481E00895843FE1F324
:1020300080E00895883EC0F3813FD1F7F5CF822F2D
:1020400086958695869508956F927F928F929F923E
:10205000AF92BF92CF92DF92EF92FF920F931F93B6
:10206000CF93DF9389E5C82E82E0D82E06E011E0F9
:10207000E801C05CD10936011CC0F501859094903F
:10208000692DC7010E944B25682DC70101960E944A
:102090004B2582E0A80EB11C82E0E80EF11CCE15A3
:1020A000DF0559F780E2680E711CA0960C171D071A
:1020B00031F07E0180E2E81AF1085301DECF0054CE
:1020C0001F4F80ECC80ED11C063084E0180781F643
:1020D000DF91CF911F910F91FF90EF90DF90CF9004
:1020E000BF90AF909F908F907F906F900895682FD2
:1020F00086E090E00C944B25CF93DF93C6E2D3E0CB
:1021000060E0CE010E944B252196C11584E0D807DE
:10211000B9F7DF91CF910895CF93C82F6FEF811159
:1021200061E282E290E00E944B256FEFC11162E014
:1021300083E290E00E944B256FEFC11168E084E2DA
:1021400090E0CF910C944B258091590280FD10C0F6
:1021500084E18093290386E080932A0310922B0365
:1021600010922C0310922D0310922E030C94100940
:1021700087E18093290380E480932A038EE0809393
:102180002B0310922C038AE2ECE3F1E0ADE2B3E022
:1021900001900D928A95E1F780E4E8CF8F929F92AB
:1021A000AF92BF92CF92DF92EF92FF920F931F9365
:1021B000CF93DF93FC01B280948081E08483C6E6F4
:1021C000D1E00CE311E08BE4A82E88248394EE2464
:1021D000EA94F12C2BE4C22ED12C91101DC01B824D
:1021E0001A8298014A81698188810E940208259695
:1021F0000D5F1F4F81E0CC3AD80779F7DF91CF917F
:102200001F910F91FF90EF90DF90CF90BF90AF9014
:102210009F908F900C94A4102B81222309F12150C0
:102220002B833C818A2D821B311101C0822F90911A
:102230005C02899FC0011124B6010E948A246A832E
:10224000211104C0332311F01C82AB8222E02B1534
:1022500040F280915A02888380915B028983C1CFCA
:102260000E941A25823091400CF0BBCF82E08B1582
:10227000C0F40E941A25B7010E949E24888322E0A0
:102280002B1590F40E941A2520915B022695622F4F
:1022900070E00E949E24280F29831A82AB828C82D0
:1022A000A0CF80915A02EACF20915B02F5CFEF9246
:1022B000FF921F93CF93DF93EC018CE3E82E81E034
:1022C000F82E10E08C81970140915C0260915B02D6
:1022D000810F0E9402081E5E83E0E80EF11C1C3F85
:1022E00089F70E94A4109A818C8190FF08C08F5FAB
:1022F0008C83DF91CF911F91FF90EF9008958150D3
:10230000F7CFAF92BF92CF92DF92EF92FF920F93EF
:102310001F93CF93DF93FC018281DFEF80FFD1E039
:102320000CE311E0F12CE12C2EE0A22EF801118239
:102330001082128294E0C92ED12CB12CC0913901A7
:102340008C2F8B0D8F300CF440C06A2D0E947C24A2
:10235000892F082E000C990B8E159F0591F4809102
:102360005C028C9DA0018D9D500D112455954795C3
:1023700055954795980160915B0280915A020E94A1
:102380000208BD0EF1E0CF1AD108C1F68FEFE81AAE
:10239000F80A0D5F1F4FEEE0EE16F10439F60E94C9
:1023A000A410D130B1F48DE0CC2311F08FEF8C0F5D
:1023B00080933901DF91CF911F910F91FF90EF90A2
:1023C000DF90CF90BF90AF90089587FFC2CF825F1C
:1023D000C0CF8C2F90E00196B7010E949E24E8CFD9
:1023E000EF92FF920F931F93CF93DF93CCE3D1E053
:1023F000FE01118210821282339681E0E636F807E0
:10240000C1F7F12CE12C10913A0100917000812F5D
:10241000012E000C990BE816F90684F1802F002E8E
:10242000000C990B8E159F054CF19E0140915C02AA
:1024300060915B0280915A020E9402088FEFE81AB5
:10244000F80A23968EE0E816F104E9F60E94A4103B
:1024500080916F00180F10933A01080F00937000DD
:10246000101614F41D301CF0819580936F00DF91DD
:10247000CF911F910F91FF90EF90089519821882CC
:102480001A82DCCF8F929F92AF92BF92CF92DF924F
:10249000EF92FF920F931F93CF93DF93EC014C8148
:1024A000042F10E09801D8010E94DF259B01AC01A8
:1024B0000E94AA254B015C01E0E2F0E0E01BF10B79
:1024C000A5E5B0E0AC019B010E94AA256B017C014F
:1024D0009F01DF010E94BF249B01AC010E94B52532
:1024E0009B01AC01280D391D4A1D5B1DC701B601BA
:1024F0000E94BD25F22E822F90E039E23F15D8F1DF
:1025000043E0249F9001112435952795122F1095B3
:102510009CE3C92E91E0D92E00E085E5E82EEF1866
:102520008E2D01FD8F2D9601412F60915B020E943F
:1025300002080F5F53E0C50ED11C0E3089F70E94D0
:10254000A4109C8181E0992319F0903219F48FEF47
:102550008093710080917100890F8C83DF91CF91FE
:102560001F910F91FF90EF90DF90CF90BF90AF90B1
:102570009F908F90089525E530E0A901481B590BE5
:10258000CA019A01220F331F280F391F37FFBCCF12
:102590002F5F3F4FB9CFEF92FF920F931F93CF93CF
:1025A000DF938C01CCE3D1E0F12CE12CF801948194
:1025B00060915B0280915A02F7E0EF16F104FCF49F
:1025C0009923F9F09E0140915C020E9402082FEFCE
:1025D000E21AF20A23968EE0E816F10439F70E9417
:1025E000A410F801848190E001968170992784837A
:1025F000DF91CF911F910F91FF90EF900895992354
:1026000009F39E0140E0E1CF9091590290FF0CC088
:10261000ECE3F1E0818360834283339691E0E63618
:10262000F907C1F70C94A41008950F931F93CF934B
:10263000DF9300D00F92CDB7DEB78C0180913B01C4
:1026400081110AC09E012F5F3F4F48EC6FEF0E943F
:1026500002088A8180933B01F8016481613069F04E
:1026600080913B0140E0662361F040E0623011F46C
:1026700040913B0180E060E004C060913B0140E09C
:1026800080E00E940413F801848190E0019663E0E9
:1026900070E00E949E2484830F900F900F90DF9132
:1026A000CF911F910F910895CF93DF9300D00F9298
:1026B000CDB7DEB79091590290FF0AC09E012F5FFF
:1026C0003F4F0E9402084B8169818A810E94041356
:1026D0000F900F900F90DF91CF910895CF93DF93DC
:1026E000EC01EC81F0E0E75AFE4F4491E9E5F2E0BD
:1026F000628181810E9454138C818F5F8C83DF9172
:10270000CF910895CF93DF93EC01E9E5F2E04381A7
:1027100062818C810E9454138C818F5F8C83DF9146
:10272000CF91089560E081E090E00E946E2587E0FF
:1027300090EBDC018093C0039093C103A093C2038C
:10274000B093C30388E19CE00FB6F894A89581BDCF
:102750000FBE91BDFFCF90E080E00E94452521E0B3
:102760008C3E9E4F09F020E0822F08956CEE7EEFA4
:1027700090E080E00E94682560E082E090E00E94A6
:102780004B2560E083E090E00E944B2510922D02E3
:1027900010922E0210922F021092300260E084E01C
:1027A00090E00E944B2560E081E290E00E944B2582
:1027B00060E085E090E00E944B2560E086E090E0DC
:1027C0000E944B256FEF87E090E00E944B2540E090
:1027D00050E0BA0188E090E00E945C2560E08DE066
:1027E00090E00E944B2540E050E0BA0188E190E083
:1027F0000E945C2560E087E190E00E944B2540E06C
:1028000050E0BA018CE190E00E945C2560E080E23B
:1028100090E00E944B2540E050E0BA018FE090E04C
:102820000E945C2540E050E0BA0183E190E00C9406
:102830005C25CF92DF92EF92FF926B017C010E94A8
:10284000EC07B701A60188E090E0FF90EF90DF90E1
:10285000CF900C945C255F926F927F928F929F92A3
:10286000AF92BF92CF92DF92EF92FF920F931F939E
:10287000CF93DF9300D00F92CDB7DEB7182F762E0F
:10288000042F622E9091590290FF29C0E92FE695FE
:10289000AE2FB0E0A554BF4F8C91809357029E7F1E
:1028A000923081F59E012F5F3F4F812F0E940208D9
:1028B0004B8169818A810E94041310935A0270929D
:1028C0005B0200935C02662051F0609159027091A6
:1028D0005A0280915B0290915C020E9419140F9041
:1028E0000F900F90DF91CF911F910F91FF90EF907C
:1028F000DF90CF90BF90AF909F908F907F906F9020
:102900005F900895823019F400915C02D6CF863032
:1029100019F410915A02D1CF8930D9F3893169F66F
:10292000E9518E2F8170582EE695F0E0EC5AFE4F5B
:10293000A590B490BB248CE3E82E81E0F82ED12C36
:10294000C12C9EE0892E912CC601B4010E948A24DC
:10295000812F511013C0860F9701402F672D0E94C1
:102960000208CA0CDB1C83E0E80EF11C86E6E816C0
:1029700081E0F80649F70E94A4109FCF861BECCF98
:10298000E9E5F2E0438121E1421B08F440E021E067
:10299000628181810C942B14E9E5F2E0438121E10D
:1029A000420F08F44FEF21E0628181810C942B14D7
:1029B000E9E5F2E0628121E1621B08F460E021E0D8
:1029C000438181810C942B14E9E5F2E0628121E1DD
:1029D000620F08F46FEF21E0438181810C942B1486
:1029E000E9E5F2E0818121E0438162818A500C9423
:1029F0002B14E9E5F2E0818121E043816281865F69
:102A00000C942B1480915D02882319F081508093DF
:102A10005D026091590270915A0280915B0290911F
:102A20005C020C94191480915D02833018F48F5F5E
:102A300080935D026091590270915A0280915B020D
:102A400090915C020C941914E9E5F2E083E0808334
:102A500011828FEF828388EC83831482608171817D
:102A6000828193810C94191410922B02E0E3F1E01F
:102A700086E0DF011D928A95E9F70C94EB069091B0
:102A8000590290FF3DC09170811129C092609093CE
:102A90005902662351F06091590270915A02809157
:102AA0005B0290915C020E94191460915902669534
:102AB00070E04BE050E084E690E00E942A25892BEC
:102AC000A9F01092580281E08093450220E04091E5
:102AD0005C0260915B0280915A020C942B148B3241
:102AE00010F09465D4CF880F982BD1CF81E08093DC
:102AF00058020E94E8059093430280934202E3CF7C
:102B00000895809159028695815009F48AE261E026
:102B10000C943F158091590286958F5F8B3208F097
:102B200081E061E00C943F159091590290FF07C03D
:102B30009695981720F0961710F40C948A1561E07A
:102B40000C943F154F925F926F927F928F929F925B
:102B5000AF92BF92CF92DF92EF92FF920F931F93AB
:102B6000CF93DF9300D000D00F92CDB7DEB77C01BA
:102B7000FC0183819481892B31F0808191818923AB
:102B80008F3F09F067C60F900F900F900F900F9036
:102B9000DF91CF911F910F91FF90EF90DF90CF9039
:102BA000BF90AF909F908F907F906F905F904F906D
:102BB00008950E94B40F182F682F89819A810E946E
:102BC000740669817A81812F0E94280E8C01F70199
:102BD0009281992309F417C6980122513F4520316B
:102BE000310508F095C58FEF93E00E94372502511B
:102BF00056E2852E53E0952E882379F180912802A4
:102C0000877009F4C0CFF7018281882309F4BBCF14
:102C100082E00F900F900F900F900F90DF91CF9167
:102C20001F910F91FF90EF90DF90CF90BF90AF90EA
:102C30009F908F907F906F905F904F900C94420781
:102C40008114F4E09F06D1F2C4010E94372581115E
:102C500001C001502FEF821A920A0111F1CF1C829C
:102C60001B82662463944AE0542E84010F5F1F4F39
:102C7000C4010E94372589831A82882309F4BECFB4
:102C80009FEF980F933008F58A83698232E0830EB4
:102C9000911CC8010E9437258B83882309F4AECF8D
:102CA0008E010F5F1F4FF80120812223F1F22130A6
:102CB00009F043C091818281913049F40E5F1F4F2A
:102CC0000E94010C0F5F1F4FEECF4801E9CF9230F9
:102CD00029F40E5F1F4F0E94720BF4CF933029F43A
:102CE0000E5F1F4F0E949107EDCF943019F00F5FD8
:102CF0001F4FE8CF0E5F1F4F30E020E0B8016F5F3D
:102D00007F4FF80141818053990B8A30910550F033
:102D100021503109B8F287EB9BE00197F1F700C031
:102D20000000F6CF529EF001539EF00D11249C013D
:102D30002E0F3F1F842F8B01E1CFE22FF0E0E758E9
:102D4000FA4F7490822F86958695869590E0FC01C7
:102D5000E759FA4FA4902770B12C022E02C0B59407
:102D6000A7940A94E2F7E1E0AE22BB24FC01E75A03
:102D7000FA4FC490D12C02C0D594C7942A95E2F79B
:102D8000F1E0CF22DD24A114B10419F081EE0E94FC
:102D9000720BC114D10419F086EE0E94720B872DBC
:102DA0000E94010CCD2819F086EE0E949107AB28F5
:102DB00009F488CF81EE96CF81E00E945A070E94E5
:102DC00003071CCF81E00E941F07F9CF82E0F5CFF7
:102DD00082E0F9CF0F3BFCE51F0709F442C098F1F0
:102DE000003C3CE5130709F0AFC490915602892FCF
:102DF0008695869586958F5F8F719770823008F0E3
:102E000051C0880F880F880F892B809356028091BC
:102E1000560210C081E00E94C20D809156020E94AD
:102E20007710ECCE80915602982F987FA9F18850A8
:102E300080935602887F91E009F490E080915602D9
:102E400090FB80F90BC080915602982F987F19F45F
:102E5000885F80935602809156028160809356026B
:102E600019C08091560280FF09C08E7F8093560260
:102E70000E94771080E00E948E0DC0CE80FDBECEF5
:102E8000816080935602813019F489E08093560264
:102E9000809156020E947710809156028695869501
:102EA0008695E9CF90935602B2CF07E225EE45EE24
:102EB00068ED7CE5CBC406E221EE40EE63EF7CE5F5
:102EC000C5C407E225EE44EE64EF7CE5BFC406E22C
:102ED00021EE42EE65EF7CE5B9C408E221E045EE63
:102EE00069ED7CE5B3C480913F02806106303CE52A
:102EF000130709F47FC008F484C080913F02806208
:102F000079C080913F028D7F0C309CE5190709F450
:102F100071C070F480913F028C600A30FCE51F079D
:102F200009F468C008F479C080913F028E7F62C0C6
:102F300080913F02877F0E303CE5130709F45AC0A9
:102F400008F471C080913F028F7E54C00B3F9CE516
:102F5000190709F45AC030F50331FCE51F0709F4DD
:102F600072C078F401313CE5130709F468C00231FE
:102F70001C4509F038C40E94341580913F028F77B8
:102F800039C005319CE5190709F465C008F479C01A
:102F90008091400281600A3F1C4509F024C480935F
:102FA000400221C40F3F2CE5120709F450C070F411
:102FB0000D3F8CE51807D9F1809140028E7F0E3FBE
:102FC0001C4568F3809140028360E9CF0130EDE554
:102FD0001E0709F45FC008F44AC060E002301D45D6
:102FE00009F001C48EE090E00E944B25FCC3809163
:102FF0003F02816080933F02F6C380913F0284606C
:10300000F9CF80913F028860F5CF809140028260C5
:10301000C6CF80913F028064EDCF0E94341580912D
:103020003F028068E7CF80913F028B7FE3CF8091A2
:1030300040028D7FB4CF80913F028F7DDBCF8091A6
:103040003F028F7BD7CF80913F02837FD3CF809188
:1030500040028C7FA4CF80913F0282FB992790F998
:1030600021E0922790FB82F990FB83F9C3CF8091F6
:103070004002982F909591708E7F892B90FB81F95B
:103080008ECF0E94341590913F02892F97FB87F9CC
:103090008058B0CF61E0A6CF80912B0206313CE58D
:1030A000130709F0E8C38A7A91E009F490E090935D
:1030B000B301811106C089E20E9434060E94FA051C
:1030C0009DCD85E3F9CF85E3F6C38091590280FF5A
:1030D0001BC08E7F809359026091590270915A02F1
:1030E00080915B0290915C020E9419141092580228
:1030F0008FEB94EDE1E081509040E040E1F700C0BB
:1031000000000E94A4107ACD81608093590261E092
:1031100086950E943F1572CD41E855E16AE875E158
:103120000E94E7076BCD4AE855E161E875E1F8CF09
:1031300040EF54E169EF74E1F3CF49EF54E160EF00
:1031400074E1EECF48ED54E164EE74E1E9CF44EE72
:1031500054E168ED74E1E4CF40EC54E16CEC74E1CF
:10316000DFCF4CEC54E160EC74E1DACF42E055E1A2
:1031700063E175E1D5CF43E155E162E075E1D0CF80
:1031800061E081E0C6CF65E082E00E94941536CD13
:1031900068E086E0FACF6EE089E0F7CF64E18FE087
:1031A000F4CF67E185E1F1CF61E088E1B2CF62E27F
:1031B00089E1EBCF61E083E2ACCF0115FCE51F07AD
:1031C00009F447C00E3D1C4509F450C0F7010081C9
:1031D0001181992309F44DC0C8010E94B40FD82E63
:1031E000682FC8010E947406B8018D2D0E94350E0B
:1031F0008C01882EF701A580A2943FE0A322D28003
:10320000D11010922A0280912802877099F0DD2057
:1032100089F0812F807F803421F080E2800F883018
:1032200048F082E00E944207809128028770CC24F7
:10323000C3948111C12CB12EB2942FE0B222FBE0D5
:10324000FB1508F450C0EB2DF0E0E250FA4D0C9461
:10325000B2240E9434153FEB87E299E03150804060
:103260009040E1F700C000000E9492130E94B61344
:10327000C5CCC8010E944D06D82EB6CF212F2F7085
:10328000A22E107F19F0A29490EFA922DD20C9F0A0
:10329000AA2069F080E2800F883010F081100BC006
:1032A00080912B02A82AA0922B020E94FA05802F5F
:1032B0000E94720B18C080912A02A82AA0922A02AA
:1032C000F4CF802F0E949107AA2069F0A094005E9D
:1032D000083010F081103DC080912B02A822A092EE
:1032E0002B020E94FA05EB2DE850FF0B349720F4D7
:1032F0000E9485070E94D80DCC2009F444CC80910F
:10330000280280FD40CCF701128285958595859530
:103310000E945A07C7010E94A21580912802859534
:10332000859585950F900F900F900F900F90DF91DE
:10333000CF911F910F91FF90EF90DF90CF90BF90B2
:10334000AF909F908F907F906F905F904F900C9474
:103350001F0780912A02A822A0922A02C2CF312FF1
:103360003F70932E107F103219F0929480EF9822C4
:10337000882071F081E0881661F1DD20B9F1AA2082
:1033800071F1F701858180FF92CF8F70858327C00F
:10339000DD2091F090912C02892D892BA11003C082
:1033A0000E94B506A0CFE1E0AE12FACF981709F45B
:1033B0009ACF80932C0297CFA11006C00E94F405EB
:1033C000892D0E94AA068FCFF1E0AF1609F48BCFAA
:1033D000F5CFDD2031F025E02A1508F484CF892DC2
:1033E000DFCF34E03A1508F47ECFEACFAA2041F3CC
:1033F000F9E38F1286C12FEF3DEE82E0215030407D
:103400008040E1F700C000007CC1812F8695869541
:10341000837061F0813009F066CFC8019370D110DC
:1034200002C090E080E00E94BF065DCFC8019370AB
:10343000D11002C090E080E00E94D50654CF812FC9
:10344000837009F066C0D1104ECF802F829586958B
:103450008770880F880F602F6F70462E512C712C4B
:10346000612C082E04C0440C551C661C771C0A9461
:10347000D2F740E050E0BA0104FF0FC04FE050E047
:1034800060E070E004C0440F551F661F771F8A95E7
:10349000D2F74095509560957095812F86958695C9
:1034A0008370823019F1D8F400912D0210912E0210
:1034B00020912F0230913002813069F04429552942
:1034C00066297729CB01BA016023712382239323D4
:1034D0000E947B0708CF402A512A622A732ACB0117
:1034E000BA016429752986299729F2CF44295529DB
:1034F0006629772900912D0210912E0220912F022A
:1035000030913002CB01BA016027712782279327BF
:10351000DFCF8695DD2011F0812F8170882309F49B
:10352000E2CE802F829586958770880F880F602F56
:103530006F70462E512C712C612C082E04C0440C47
:10354000551C661C771C0A94D2F740E050E0BA0183
:1035500004FF0FC04FE050E060E070E004C0440F93
:10356000551F661F771F8A95D2F740955095609535
:103570007095812F869586958370823019F1D8F4E5
:1035800000912503109126032091270330912803F1
:10359000813069F04429552966297729CB01BA0180
:1035A00060237123822393230E94F9069CCE402A34
:1035B000512A622A732ACB01BA0164297529862906
:1035C0009729F2CF442955296629772900912503A7
:1035D000109126032091270330912803CB01BA01D3
:1035E0006027712782279327DFCF1F70DD2029F006
:1035F000812F0E945A07802FD3CE802F0E94AA06C7
:10360000812F0E941F076FCE802F92EF891609F439
:1036100050C0981578F0E0EF8E1619F1F1EF8F1683
:1036200009F43FC0DD2009F467C0A11040CE812F0E
:103630008F713CC023EF821609F440C034EF83122F
:10364000F1CFDD2009F44DC01F71812F0E945A0770
:10365000E8E01E9FC0011124836080932802812F1F
:1036600025C0DD20C9F084E08A1508F43CCE1F7126
:1036700061E070E080E090E004C0660F771F881F73
:10368000991F1A95D2F700912503109126032091D6
:10369000270330912803A4CF95E09A1508F423CE90
:1036A000E6CF812F8F71DD2009F4ABCF0E945A073E
:1036B0001ACE812F8F71DD20C9F3A3CF60E070E0B7
:1036C000CB01DD2009F470CF1F7161E070E080E074
:1036D00090E004C0660F771F881F991F1A95D2F7D4
:1036E00063CF81E00E944207F1E0FA1508F0FBCDBC
:1036F00082E00E944207F7CDAA2039F0893309F40D
:103700007ACE802F0E949107EECD812F8F7179CFD5
:103710000031FFE51F0709F44FCB01312FE51207F8
:1037200009F454CB0D3B2CE5120709F47BCB08F0D0
:1037300051CB0B3B8CE5180709F46CCB80E00C3BBC
:10374000ECE51E0709F467CB033FECE51E0709F41F
:10375000B2CB08F0B3C0083D2CE5120709F4A5CBA5
:10376000093D3CE5130709F4B8CB073D8CE5180784
:1037700009F467C01092B20102308CE5180708F412
:103780008BCC0631ECE51E0738F098012A5F3C45EA
:103790002930310508F080CC0E94F40D909340024E
:1037A00080933F020031FCE51F0709F444CC08F088
:1037B000CDCB08303CE5130709F42BCC08F0A1CBA6
:1037C00004309CE5190709F418CC08F08CCB0230C2
:1037D000FCE51F0709F40BCC80913F0282600330A7
:1037E0001C4509F407CC60913F021091400284E02F
:1037F00090E00E944B25612F81E290E00E944B25D2
:103800000E943415FBC900313FE5130709F4DACAF9
:1038100001318FE5180709F4DBCA033F2CE51207D5
:1038200009F449CBA0F5083D8CE5180709F43DCB18
:10383000093DECE51E0709F450CB073DFCE51F07E9
:1038400089F506E221EE41EE67ED7CE5C7010E94B5
:10385000140CD4C985E0DE01119601900D928A9571
:10386000E1F7F701228189819A812111A2C90E9481
:103870004D06182FA6C98272F801E25CFC45E431BE
:10388000F10508F09ACCE65FF94D0C94B224053F9F
:103890002CE5120709F41BCB08F413CB063F8CE58B
:1038A0001807C1F006311C4509F090CC8091B30196
:1038B000811109CC89E20E94270600CC053FECE586
:1038C0001E0709F404CB08F4FCCA063F2CE51207D6
:1038D00009F050CF07E225EE46EE66EF7CE5B6CF65
:1038E0001F93CF93DF938091B901807FA9F48091DA
:1038F000B601882389F08091EB01D091BA016091E3
:10390000B4017091B501A091B701B091B801C62F73
:10391000C72316E0D81304C0DF91CF911F910895FB
:1039200090E0109711F0CF3F19F401968770F2CF15
:10393000189F9001199F300D1124F901E554FE4F95
:1039400041814713F2CF40814613EFCF42814111AD
:10395000ECCF438154814A1B5B0B483C510528F74F
:103960008091B9018F7080618093B901F901E054B1
:10397000FE4F80818F708061808384EB91E00E9494
:10398000A215DF91CF911F910C94A006AF92BF9228
:10399000CF92DF92EF92FF920F931F93CF93DF931B
:1039A000CDB7DEB761970FB6F894DEBF0FBECDBFBF
:1039B0008C0185E0F801DE011D9601900D928A953B
:1039C000E1F7F80180819181E28024EBA22E21E0D1
:1039D000B22E6091B7017091B8016115710509F4BB
:1039E0003EC13091B4014091B501232F24232F3FD4
:1039F00009F435C1C380D480F090B601F601E61B0E
:103A0000F70BFF2009F4FBC02091B901522F507F22
:103A1000E83CF10508F0BBC0511178C0FE2C4913F9
:103A200021C038131FC0E1101DC02F7020612093EA
:103A3000B901C5010E94A2158091B901F8018583E1
:103A40008F2D61960FB6F894DEBF0FBECDBFDF910C
:103A5000CF911F910F91FF90EF90DF90CF90BF908B
:103A6000AF900895CD2829F0282F29232F3F09F062
:103A700014C120E0F22FF170DF2E20FF3DC0209115
:103A8000EB014091BA0156E0241315C08D879E8743
:103A90008D859E850E94F60F292F22952F7022304A
:103AA000F8F0243020F59F70F9F0F8019581907FAF
:103AB000D9F4D12C1FC030E0529FF001539FF00D7C
:103AC0001124E554FE4F6181961306C06081861370
:103AD00003C06281E61210C02F5F3F4F2770D4CF22
:103AE0009F7011F0882329F3805E883010F3C8019D
:103AF0000E94A215FD2CA4CFEE2009F4A1CF809145
:103B0000B90181608093B901F12C9ACF491312C099
:103B1000381310C0E1100EC0F8012583C8010E94BF
:103B2000A21586E0F801A4EBB1E001900D928A9510
:103B3000E1F786CF8D879E878D859E850E94001038
:103B4000882309F1EE20F9F08091B901803270F0FC
:103B50002091B4013091B50138872F831986DB8617
:103B6000CA868C87CE0107960E94A21586E0F801CE
:103B7000A4EBB1E001900D928A95E1F70E94701CD0
:103B8000FF24F3945DCFC8010E94A215F9CF511113
:103B90000AC084EB91E00E94A21586E0F501119223
:103BA0008A95E9F7B1CF49130FC038130DC0E11062
:103BB0000BC0F8012583C8010E94A21586E0F5011B
:103BC00011928A95E9F73CCF8D879E878D859E85DA
:103BD0000E9400108823B9F2EE20A9F28091B90169
:103BE000803220F22091B4013091B5013A832983CB
:103BF0001B82DD82CC828E83CE010196B5CFE83C5C
:103C0000F105E0F6FE2CEE2009F4BDCF491316C0F5
:103C1000381314C08091B90180FD83CF982F907F15
:103C200009F47FCFF8018583903F09F477CF982F6F
:103C3000907F905F8F70892B858370CF8D879E8753
:103C40008D859E850E940010811190CF8091B901D1
:103C500081608093B901C8010E94A215F1CEEE20C7
:103C600009F491CF8D879E878D859E850E940010D7
:103C7000F82E882309F487CF86E0F801A4EBB1E0A1
:103C800001900D928A95E1F78091B4019091B50170
:103C90000E94F60F0E94701CD3CE21E02E25EACEA2
:103CA0001F93CF93DF93CDB7DEB767970FB6F89426
:103CB000DEBF0FBECDBF4B8B5C8B6D8B7E8B8F8B36
:103CC0001A8A198A85E0FE017396DE011D9601901D
:103CD0000D928A95E1F786E0FE013D96DE0117968A
:103CE00001900D928A95E1F7CE0107960E94C61CBD
:103CF000882389F016E08091EB019091BA01891335
:103D000049C067960FB6F894DEBF0FBECDBFDF91F6
:103D1000CF911F91089586E0FE013796DE0111963E
:103D200001900D928A95E1F78A859B85892B11F385
:103D30008F81988589238F3FE9F22091BA0130E085
:103D4000C9010196877099274091EB014817190620
:103D500071F40E9434151092BA011092EB0186E0C2
:103D6000E4EBF1E0DF011D928A95E9F7C3CF96E01D
:103D7000929FD001939FB00D1124A554BE4FFE0118
:103D8000319601900D929A95E1F78093BA010E94C5
:103D9000A006B0CF819FC001112485549E4F0E9480
:103DA000C61C882309F4ADCF8091EB0190E0019609
:103DB000877099278093EB019ECFCDB7DEB72A9706
:103DC0000FB6F894DEBF0FBECDBF0E94E8057C01A0
:103DD00084B7806884BF84B7806884BF8FEF8BBB53
:103DE0001ABA88BB17BA85BB14BA81EF82BB83E0CD
:103DF00081BB87E080B986B7846086BF86B7806460
:103E000086BF88E19FE00FB6F894A89581BD0FBEEC
:103E100091BD82E790E0909332028093310285B7A2
:103E2000886085BF8BB780688BBF8BE480938003ED
:103E30008093B50380938C038AE580937F038093FE
:103E4000B40380938B038B9A80E0815009F06EC09D
:103E50008B987894FFEB24ED31E0F1502040304016
:103E6000E1F700C000008BE083BF8BEB8CBF82E0EA
:103E700089BFA7E1B1E041E050E08D91E82FE295E4
:103E8000EF70F0E061A98F709A0101C0220F8A954E
:103E9000EAF7922F9095962391AB82A9822B82AB61
:103EA00081E0AD31B80749F7ADE1B1E02DE231E095
:103EB00041E050E08D91E82FE295EF70F0E011A91C
:103EC0008F70BA0101C0660F8A95EAF7962F909518
:103ED000912391AB82A9862B82AB2A173B0751F71E
:103EE000E3E3F2E08FE392E0A2E6B2E011921192F6
:103EF0001D921D928E179F07C9F70E94770CEFE263
:103F0000F5E73197F1F700C000000E94770C80912F
:103F1000620280FF13C080E00E948C106FEF7FEF81
:103F200090E080E00E9468250E949213A895E7EB3C
:103F3000FBE03197F1F700C0000087CF0E94AB1380
:103F4000811102C00E94B61305E110E0E2E0DE2E0E
:103F5000F1E8CF2E1BC0FFEB24ED31E0F150204003
:103F60003040E1F700C00000D0922A03C09229033C
:103F700082E00E94100981110DC04FEB84ED91E0A9
:103F8000415080409040E1F700C00000015011090D
:103F900011F785C081E00E94460DEFEBF4ED21E0C2
:103FA000E150F0402040E1F700C00000882371F3A9
:103FB00084E18093290386E080932A0310922B03E7
:103FC00010922C0310922D0310922E030E941009C0
:103FD00087E99AE30197F1F700C0000080918F0014
:103FE000909190002AE12093290324E020932A0352
:103FF00090932C0380932B0384E00E941009E7E93F
:10400000FAE33197F1F700C00000E0918C0089E1FC
:104010008093290387E080932A038E2FE63008F0EF
:1040200085E080932B0324E0E29FF0011124EE56FB
:10403000FF4F84E0ACE2B3E001900D928A95E1F786
:1040400087E00E94100987E99AE30197F1F700C021
:10405000000080918C0098E19093290393E0909365
:104060002A0380932B0383E00E941009E7E9FAE317
:104070003197F1F700C0000080918D0090918E0083
:104080001092290325E020932A0325E120932B0396
:1040900090932D0380932C0385E00E94100982E207
:1040A00090E00E943725813209F0DCC383E290E082
:1040B0000E943725823009F0D5C384E290E00E9447
:1040C0003725883009F0CEC30E94AB13811102C09E
:1040D0000E94B61382E090E00E9437258093490247
:1040E0000E94F40D9093400280933F0283E090E0A1
:1040F0000E943725682F70E090E080E00E947B07E7
:104100000E94AB13811102C00E94B61386E090E0BA
:104110000E94372580935602803120F08770886096
:104120008093560290915602892F817090FF04C0AF
:10413000892F8695869586950E948E0D80914102E5
:10414000811133C00E94AB13811104C00E94B613C9
:104150000E94241588E090E00E943F256093590258
:1041600070935A0280935B0290935C026E7F71F4AD
:104170000E94241588E090E00E943F256093590238
:1041800070935A0280935B0290935C020E94EC074A
:10419000109258028091590280FF04C060E0869519
:1041A0000E943F1581E08093410210E07CEFC72E12
:1041B00075E0D72E80919A03882309F4BDC0109230
:1041C0009A030E94E8057C010E944B098091FD0240
:1041D000882309F494C080917F0384FF90C00E94DB
:1041E000770CEAE4F2E0A2E6B2E010E000E0902E04
:1041F0008D919D91419151914817590709F4B9C08A
:104200004827592720E0AA24A394B12CBA016A2197
:104210007B21672B09F4A7C029839A829C012A215C
:104220003B2191E0232B09F490E09B830E94E80559
:104230008160782F9D838C8349815A816B818D8128
:104240000E94501E000F111FF801E65BFD4F808198
:104250009181A826B926B182A08280915802882334
:1042600009F441C080915702E0915902E695E81B9C
:10427000E0934402823009F093C0F0E0E65FF94F2A
:10428000E4910E2F10E02EE6A22E23E1B22E8091B3
:104290004502882389F0109245020E94E8059801A2
:1042A00020953095820F931F909343028093420292
:1042B000109247021092460280914202909143026E
:1042C0000E94D9058017910770F0E0914202F091A9
:1042D00043020E0F1F1F109343020093420282E419
:1042E00092E0F50109950E9485079091480289178F
:1042F00031F00E948507809348020E94D80D0E94E9
:10430000170B0E944B098091FD02882309F4DCC041
:104310008091B40384FFD8C08091F302803209F009
:10432000D3C0E0910503E150E33108F0F5C0F0E0BF
:10433000E25EF94D0C94B224C7010E94D90506979C
:1043400018F4112309F440CF0E94770CE2E6F2E062
:1043500081919191892B09F06BC282E0EE36F807CA
:10436000B9F711E027CF2F5FAA0CBB1C203109F051
:104370004DCF0F5F1F4F0630110509F038CF8FEF7B
:104380008E838F8318860E94E8058160782F9A8734
:1043900089874E815F8168858A850E94501E5DCF26
:1043A000863059F4F0E0E95FF94FE4910E2F10E008
:1043B00092E8A92E93E1B92E6ACF893061F4E6958F
:1043C000F0E0EC5FF94FE4910E2F10E087E5A82EA6
:1043D00081E1B82E5CCF8F3061F4E695F0E0EF5FBD
:1043E000F94FE4910E2F10E0B1E8AB2EB1E1BB2EF6
:1043F0004ECF853159F4F0E0E250FA4FE4910E2FA0
:1044000010E0A0EFAA2EA1E1BA2E41CF08E210E001
:1044100072E4A72E72E1B72E883109F438CF8332C7
:1044200041F4F60105911491F5E1AF2EF3E1BF2EB1
:104430002ECF04EF11E06BECA62E62E1B62E843293
:1044400009F425CF00ED17E054EDA52E55E0B52E6B
:10445000853209F01CCF8E2F63E00E947024E92F73
:10446000F0E0E750FA4FE4910E2F10E0EEECAE2EA4
:10447000E0E1BE2E0CCF1092060389E08093070383
:104480001FC080910603823009F4F9C18330F1F036
:10449000813009F041C02FB7F89460915E027091AD
:1044A0005F0280916002909161022FBF0E94B82448
:1044B00060930703709308038093090390930A03A2
:1044C0000E94BE0A1092F30210E074CEA5E0B3E0A1
:1044D000E2E6F2E080819181329612969C931297E7
:1044E00013968C931397129622E0EE36F20791F70B
:1044F000E7CF80910603823079F4609107037091D1
:1045000008038091090390910A030E94B82485E270
:1045100090E00E944B25D4CF8FEF80930503D0CF3E
:104520004091080360910703809106030E94020EE8
:1045300098278927982790930A0380930903C0CF6F
:10454000A0900903B0900A03BA24AB24BA24809146
:1045500006030091070330E2039F8001112440EC21
:10456000849F000D111D11248091080390E0880F95
:10457000991F080F191F6B2DC80186960E944B25A5
:104580006A2DC8018796C5CF0E94241099CF8091CB
:104590000603893041F49091070381E09F3F08F4BE
:1045A00080E00E94C20D809106038138D9F068F442
:1045B000803809F085CF20E04091070360915B02CD
:1045C00080915A020E942B147BCF823879F1833874
:1045D00009F076CF20E040915C0260910803809161
:1045E0000703F0CF60E0809107030E943F15909190
:1045F000070380915902911111C08E7F8093590257
:10460000109258028FEB94EDE1E081509040E04031
:10461000E1F700C000000E94A41052CF8160809397
:10462000590260E086950E943F154ACF80910703AA
:1046300080935D0245CF80910603893059F08A301E
:1046400081F08138F9F080F4803809F039CF809119
:104650005C0214CF80915602869586958695819549
:104660000DCF109207032CCF8238A1F0833809F0C8
:1046700027CF80915A028093070380915B02809339
:1046800008031ECF8091590280FF02C08695F6CEA6
:1046900080E0F4CE80915D02F1CE809156020E94BE
:1046A00077106091590270915A0280915B0290914B
:1046B0005C020E94191404CF80E18093060300CFAE
:1046C000109206038AEDDACEA0900603B09007039D
:1046D000BA24AB24BA2435E0832E33E0932E009124
:1046E000080310E00B5F1C4FC5018A5D9C4F081545
:1046F000190509F4E5CEFAEDAF16B10458F40E949D
:104700003725F4018483FFEFAF1ABF0A2FEF821A17
:10471000920AEACFF4011482F6CF009106031091B9
:10472000070310270127102725E0822E23E0922E71
:10473000A0900803A00EB12EB11CC8018A5D9C4F49
:10474000A016B10609F4BCCE0A3D110520F4F4010F
:1047500064810E944B25FFEF8F1A9F0A0F5F1F4F46
:10476000ECCF0E947C10ACCE84E0A7CFA0900603D3
:10477000B0900703BA24AB24BA2495E0892E93E0C5
:10478000992E0091080310E00B5F1C4FC50186961F
:104790000815190509F494CEA11423E0B20658F4C3
:1047A0000E943725F4018483FFEFAF1ABF0A2FEF71
:1047B000821A920AEBCFF4011482F6CF009106031D
:1047C0001091070310270127102785E0882E83E02A
:1047D000982EA0900803A00EB12EB11CC801869699
:1047E000A016B10609F46CCE011533E0130720F4CE
:1047F000F40164810E944B25FFEF8F1A9F0A0F5F1F
:104800001F4FECCF80E00E948C106FEF7FEF90E0A5
:1048100080E00E94682554CE0E94BE0A2FE739EA44
:1048200043E0215030404040E1F700C000007CCB25
:10483000F89421B3939A822F8C6081BB92B33CE0B1
:10484000932792BB9FE5EAEEF0E09150E040F04004
:10485000E1F700C0000082B3832782BB21BB93989D
:1048600078947FCD60E085E290E00E944B250E9425
:1048700024100E947C1081E00E948C1025CC85E2DF
:1048800090E00E94372510920703109208031092BF
:10489000090380930A0314CE78941F921FB61F92C7
:1048A00011248F939F93AF93BF9380915E02909159
:1048B0005F02A0916002B09161020196A11DB11D3D
:1048C00080935E0290935F02A0936002B0936102B6
:1048D000BF91AF919F918F911F901FBE1F90189510
:1048E000991B79E004C0991F961708F0961B881F42
:1048F0007A95C9F78095089587FB082E062687FDCF
:10490000819567FD61950E9470240EF4919507FCD6
:1049100081950895AA1BBB1B51E107C0AA1FBB1FAD
:10492000A617B70710F0A61BB70B881F991F5A953B
:10493000A9F780959095BC01CD01089597FB072EAE
:1049400016F4009407D077FD09D00E948A2407FC52
:1049500005D03EF4909581959F4F0895709561958F
:104960007F4F0895EE0FFF1F0590F491E02D0994FD
:1049700069279627692778278727782708950E942F
:10498000DF25332312F48A1B9B0B0C94C9240E944D
:10499000DF25B7FF0895821B930B08958F929F9296
:1049A000AF92BF92CF92DF92EF92FF92CF93DF93BD
:1049B000EC01688179818A819B816115710581058E
:1049C000910521F464E279ED8BE597E02DE133EF79
:1049D00041E050E00E948B2549015A019B01AC0146
:1049E000A7EAB1E40E94AA256B017C01ACEEB4EF0A
:1049F000A50194010E94B825DC01CB018C0D9D1D01
:104A0000AE1DBF1DB7FF03C00197A109B048888341
:104A10009983AA83BB839F77DF91CF91FF90EF901B
:104A2000DF90CF90BF90AF909F908F9008950E949D
:104A3000CE24089580E690E00E94CE240895B0E050
:104A4000A0E08093600090936100A0936200B09317
:104A500063000895FC014150504030F0019006166B
:104A6000D1F73197CF010895882799270895E199C3
:104A7000FECF9FBB8EBBE09A99278DB30895A6E128
:104A8000B0E044E050E00C947D25A8E1B0E042E0C5
:104A900050E00C947D25262FE199FECF9FBB8EBB65
:104AA000E09A01970DB2021631F02DBB0FB6F894C3
:104AB000E29AE19A0FBE08950396272F0E944C2593
:104AC0000E944B25252F0E944C25242F0C944C2509
:104AD0000196272F0E944C250C944B25262FE199F7
:104AE000FECF9FBB8EBB2DBB0FB6F894E29AE19A26
:104AF0000FBE01960895DC01CB01FC01E199FECFC8
:104B000006C0FFBBEEBBE09A31960DB20D9241504C
:104B10005040B8F70895052E97FB1EF400940E94AC
:104B2000A22557FD07D00E94BD2507FC03D04EF4F7
:104B30000C94A22550954095309521953F4F4F4FAD
:104B40005F4F089590958095709561957F4F8F4F39
:104B50009F4F08950E94DF25A59F900DB49F900D53
:104B6000A49F800D911D11240895B7FF0C94AA25D0
:104B70000E94AA25821B930B0895A1E21A2EAA1B5C
:104B8000BB1BFD010DC0AA1FBB1FEE1FFF1FA217FD
:104B9000B307E407F50720F0A21BB30BE40BF50BFA
:104BA000661F771F881F991F1A9469F76095709583
:104BB000809590959B01AC01BD01CF010895A29F06
:104BC000B001B39FC001A39F700D811D1124911DE1
:104BD000B29F700D811D1124911D0895F894FFCF8F
:104BE0000F100F10181018101A1018101810181095
:104BF0000F100F101F10181018101F103E193E191B
:104C0000AF19AF19051A7319731973191F1AF51A09
:104C1000041B041B65188C18931898189D18A2186B
:104C2000A718AC18B118B618BB18C018C318C81804
:104C3000CB18CE18D118D418D718DA183B22412235
:104C400079229022A022C422C7221B234D230224B2
:104C50000C245C23602364238D23B123B423B62367
:024C6000DE2351
:104C62000100000001191A1B1C1D1E1F2021220118
:104C72000201D605460BD505130B0F0B00080808D9
:104C820005050808080505080808050505C800F413
:104C9200010E0000000001050000020500000301F2
:104CA20005010401050105010501FF5A0707070770
:104CB200070707070707070707070700010202029E
:104CC200020606060909090909090F0F0F0F0F0F3E
:104CD200151515181919191919191919191923243A
:104CE200252525252525818283E200E900EA00B5F4
:104CF20000B600B700CD008301CC008A0192019476
:104D0200012102230224022502260227022A02B3DB
:104D120000B4006F00700032333435363790919210
:0E4D220093949596976061626364656667007E
:00000001FF
