:100000000C9423020C9467020C9482020C946702F5
:100010000C9467020C9467020C9467020C946702BC
:100020000C9467020C9467020C94A4160C9467025B
:100030000C9467020C9467020C9467020C9467029C
:100040000C9467020C9467020C9467020C9467028C
:100050000C94670229003A003B003C003D003E0042
:100060003F0040004100420043004400450046007C
:100070004700480035001E001F002000210022001C
:10008000230024002500260027002D002E004C0010
:100090002A0049002B0014001A0008001500170060
:1000A0001C0018000C00120013002F00300031005B
:1000B0004A004B00394104001600070009000A00FD
:1000C0000B000D000E000F0033003400320028003A
:1000D0004D004E00E10064001D001B0006001900E9
:1000E000050011001000360037003800E50001510E
:1000F00052004C00E000E300E2002C000000000091
:100100002C0000002C00E600E7006500E400500031
:1001100051004F00005C01000100010001000100DE
:1001200001000100010001000100010001000100C7
:1001300001000100010001000100010001000100B7
:1001400001000100010001000100010001000100A7
:100150000100010001000100010001000100010097
:1001600001000100010001000100AA00A900010036
:100170000100010001000100010001000100010077
:100180000100010001000100010001000100010067
:100190000100010001000100010001000100010057
:1001A00001000100A80001000100010001000100A0
:1001B0000100010001000100010001000100010037
:1001C0000100010001000100010001000100010027
:1001D0000100010001000100010001000100010017
:1001E0000100010001000100010001000100010007
:1001F00001000100010001000100010001000100F7
:1002000001000100010001000100010001000100E6
:1002100001000100010001000100010001000100D6
:1002200001000100010001000100010001000100C6
:1002300001000100010001000100010001000100B6
:1002400001000100010001000100010001000100A6
:100250000100010001000100010001000100010096
:100260000100010001000100010001000100010086
:100270000100010001000100010001000100010076
:100280000100010001000100010001000100010066
:100290000100010001000100010001000100010056
:1002A0000100010001000100010001000100010046
:1002B0000100010001000100010001000100010036
:1002C0000100010001000100010001000100010026
:1002D0000100010001000100010001000100010016
:1002E0000100010001000100010001000100010006
:1002F00001000100010001000100010001000100F6
:1003000001000100010001000100010001000100E5
:1003100001000100010001000100010001000100D5
:1003200001000100010001000100010001000100C5
:1003300001000100010001000100010001000100B5
:1003400001000100010001000100010001000100A5
:100350000100010009023B00020100A0FA090400AB
:1003600000010301010009210101000122400007F1
:1003700005810308000109040100010300000009D0
:100380002101010001223200070583030800011248
:1003900001100100000008A02053410001010203E8
:1003A0000104033000000018034C005A00200045EF
:1003B00000720067006F00200054004B004C0000EA
:1003C000000C034C00650065004B00750000000444
:1003D00003090405010980A101850319012AB70059
:1003E000150126B700950175108100C0050C0901A3
:1003F000A101850419012AA002150126A002950178
:1004000075108100C005010906A101050719E02941
:10041000E715002501950875018102950175088190
:10042000030507190029FF150026FF00950675082A
:1004300081000508190129059505750191029501AD
:1004400075039103C00011241FBECFE5D8E0DEBFC5
:10045000CDBF04B603FE24C08091E6029091E7026E
:10046000A091E802B091E9028730904BA740B04BD1
:10047000B9F41092E6021092E7021092E80210928C
:10048000E90214BE84B7877F84BF0FB6F894A8959D
:1004900081B5886181BD11BC0FBEE0E0F8E309952C
:1004A00010E0A0E6B0E0ECEEF4E302C005900D929F
:1004B000A63FB107D9F722E0A6EFB0E001C01D9238
:1004C000A63EB207E1F70E9403170C945A1A0C9447
:1004D0000000A82FB92F80E090E041E050EA60953D
:1004E00030E009C02D9182279795879510F08427D9
:1004F0009527305EC8F36F5FA8F30895EADF8D9308
:100500009D930895CF93CFB7CF93C395839BE9F77E
:10051000839B0EC0839B0CC0839B0AC0839B08C037
:10052000839B06C0C091BD02C395C093BD02A6C007
:10053000DF93C091BC02DD27CC53DD4F839B02C00B
:10054000DF91E6CF2F930F931F9300B32FEF03FBA1
:1005500020F94F933F9310B34FEF012703FB21F98D
:100560003BE031C04E7F012F10B3216028C0102F17
:100570004D7F2260000000B329C04B7F2460012F13
:10058000000010B32BC010B3477F28602AC04F7EF5
:1005900000B320612CC04F7D10B320622FC04F7B71
:1005A00000B3206432C0422700B349934FEF0000EC
:1005B000102713FB20F910B31C70C9F1297F91F2A9
:1005C000012703FB21F900B3237F89F2315058F151
:1005D000102713FB22F910B3277E79F2012703FBC2
:1005E00023F92F7C81F200B3102713FB24F92F7914
:1005F00071F200C010B3012703FB25F92F7359F2E4
:1006000000C000B3102713FB26F9223040F200C0CF
:1006100010B3012703FB27F9243028F64F77206811
:1006200010B30000F9CF10E81ABF00271CC03B50E0
:100630003195C31BD04010E81ABF0881033C11F16B
:100640000B3401F12091B9021981110F1213EDCF72
:100650004A81441F093669F10D3211F0013E29F734
:100660004F7009F0042F0093C2023F914F911F91E8
:100670000F912F91DF91CAB7C7FD47CFCF91CFBF61
:10068000CF9118952091C202222379F31091C002D4
:10069000112309F044C034300AF443C03093C0023F
:1006A0002093BB021091BC023BE0311B3093BC0293
:1006B00038C00091C002013094F50AE54F7049F44A
:1006C00030916D0034FD2FC000936D00C6E9D2E07B
:1006D0002EC0433059F0443091F03091A10234FDE6
:1006E00022C00093A102C2EAD2E021C03091DA0216
:1006F00034FD19C00093DA02CBEDD2E018C030917E
:10070000AD0234FD10C00093AD02CEEAD2E00FC0BE
:100710002795A8F45150A9F4220F0000F9CF4AE51B
:1007200003C042ED01C0432FC4E1D0E032E011B379
:100730001C60939A11BB02B320E41CE05F93012775
:1007400056E002BB279520F4515021F4220FF9CF37
:10075000012756E000003B5A02BBD0F2279528F44F
:10076000515029F4220F0000F9CF012756E02795B8
:1007700002BB20F4515021F4220FF9CF012756E09B
:100780002991332302BB21F6037F1091C102110F7F
:10079000C651D04002BB11F01093B90210E81ABF45
:1007A000086011B3137F402F437F5F9100C000C0EA
:1007B00002BB11BB42BB59CF1F93CF93DF93182FBE
:1007C0001470D82FD270C82FC17020E0412F6D2F28
:1007D0008C2F0E94360487EB9BE00197F1F700C055
:1007E000000020E0412F6D2F8C2FDF91CF911F91C2
:1007F0000C943604CF93DF93482F662331F1C091D8
:100800002D028C2F806880932D026DE272E080EBC8
:100810000E94C104811104C080E0DF91CF9108954E
:10082000CF73DAE041E06DE272E080EB0E94EF040A
:1008300080912D02C81771F08BE291E00197F1F7DA
:1008400000C00000D15071F7E7CF6DE272E080EB9D
:100850000E94C10481E0E1CFEDE2F2E091E09083FB
:1008600092E09183682F82E00C94FA0393E09093D6
:100870002D0290932E02811184E06111826041115A
:10088000816080932F02622F83E00C94FA030F9310
:10089000EDE2F2E094E1908396E0918382834383DA
:1008A00064832583602F86E00F910C94FA032BE27A
:1008B00020932D0221E120932E02EFE2F2E09C0131
:1008C000215F3F4FDC014D91CD014193A217B3074A
:1008D000C9F781E10C94FA03BC0180EE9EE20E940C
:1008E000F219CB01B0E0A0E04097A109B109B6959B
:1008F000A7959795879580B986B7846086BF86B798
:10090000806486BF089586B7806D86BF06B604FEF4
:10091000FDCF089506B607FEFDCF089586B7806A1D
:1009200086BF0E948A0491B1987F81E0983019F0C7
:10093000903109F080E08170089583B986B78F7097
:10094000806886BF0E948A0481B1982F987F983270
:1009500051F0983141F0982F987E81E0903409F061
:1009600080E08170089581E0FCCF882319F086B77C
:10097000806486BF86B7806886BF0E948A0483B180
:100980000895EF92FF920F931F93CF93DF93C82F99
:10099000F62EE72E042F0E948E04811109C010E06C
:1009A000812FDF91CF911F910F91FF90EF900895CC
:1009B0008C2F8E7F0E949D04182F882381F30111B4
:1009C00003C00E948304ECCFCF2DDE2D89910E94BD
:1009D0009D04882321F30150FC2EED2EF0CFEF92E1
:1009E000FF920F931F93CF93DF93C82FF62EE72E1E
:1009F000042F0E948E04811109C010E0812FDF9125
:100A0000CF911F910F91FF90EF9008958C2F8160EF
:100A10000E949D04182F882381F3CF2DDE2D0F0D0A
:100A200004C081E00E94B5048993802F8C1B823022
:100A3000C0F780E00E94B50488830E948304DECF63
:100A40000F931F93CF93DF93CDB7DEB72F970FB6DA
:100A5000F894DEBF0FBECDBF8FEF8BBB1ABA88BB39
:100A600017BA85BB14BA81EF82BB83E081BB80E9F2
:100A700091E00E946C0405E110E00150110961F160
:100A80002FEB34ED81E0215030408040E1F700C091
:100A9000000081E00E942C049FEB24ED31E0915096
:100AA00020403040E1F700C00000882331F38FE0A0
:100AB000EEE6F0E0DE01119601900D928A95E1F7E5
:100AC00061E0CE0101960E94570400E020E040E082
:100AD00060E080E00E9447042F960FB6F894DEBFD6
:100AE0000FBECDBFDF91CF911F910F9108950C9450
:100AF000FD0781E0089581E008950C947B05089539
:100B00000C947F051F93CF93DF9300D000D00F92FA
:100B1000CDB7DEB749835A836B8330911001898149
:100B20009A8131111DC06623B9F02223A9F00E94D9
:100B30003D14182F682F89819A810E94EA136981D8
:100B40007A81812F0F900F900F900F900F90DF916F
:100B5000CF911F910C941F060E941614182FEFCFEF
:100B60000E943D1469817A81EDCFFC01262F4081DE
:100B700051816281738184810C948205CF93DF93CC
:100B8000EC0160E00E94B505BE01DF91CF910C94AD
:100B900080050E947415811102C00E9411160C94E8
:100BA000FB070C94770508950E94C90F0E94D30596
:100BB0002FEB87E299E0215080409040E1F700C0A0
:100BC00000000C94C8160F931F93CF93DF93EC0192
:100BD00061E00E94B5058C01BE010E947D0588235D
:100BE00029F1BE01C8010E94A0098823F9F0BE01C5
:100BF000C8010E94F2098823C9F0BE01C8010E9401
:100C0000150B882399F08A81882339F001158CE52A
:100C1000180751F00E3D1C4579F0CE01DF91CF91C0
:100C20001F910F910C9479050E94D40580E0DF910B
:100C3000CF911F910F9108950E941116F7CFE72FC2
:100C4000F0E096E0899FE00DF11D112484E0EE0FA5
:100C5000FF1F8A95E1F7E60FF11DEE0FFF1FEC5A1B
:100C6000FF4F859194910895CF93DF930E941F06C3
:100C70000E942007EC01811522E59207E8F5811515
:100C800031E5930708F0ACC0883E910510F5803E31
:100C9000910570F5883A910570F4853A910508F050
:100CA00078C08130910521F1009711F1049700F58A
:100CB000D0E0C0E01DC08F3B9105D0F7C85AD0E00E
:100CC000CC0FDD1FC358DF4F0990D881C02DD464ED
:100CD0000FC0811540E5940708F066C0C11580E497
:100CE000D80708F05EC0CE019A9581159F4100F7A4
:100CF000CE01DF91CF910895811536E5930718F560
:100D0000811545E5940708F083C0C11584E5D8072F
:100D100008F079C09C2F969596959E0123703327F5
:100D2000C115D34508F461C0C1E0D0E002C0CC0FCA
:100D3000DD1F2A95E2F730E2939FC0011124C82BF2
:100D4000D92BDA68D5CFC1158AE5D80778F4C11553
:100D500099E5D90708F066C0C11528E5D20708F45F
:100D6000A7CFDC2FCC27C06FD06AC2CFCE01905660
:100D70008115904208F09CCF8D2F8F710E94B7078C
:100D800090E0982F882788279F719C012C2BE901E0
:100D900047C0C55AD0E0C555DF4FC881D0E0D06408
:100DA000A7CFDF70D06AA4CFE4E096958795EA9547
:100DB000E1F783702C2F26952695237040E2249F1F
:100DC00090011124382B8C2F8370C1E0D0E002C039
:100DD000CC0FDD1F8A95E2F7C22BD32BDC6888CFBE
:100DE000D82FCC27C16FD06A83CFC1E0D0E002C03A
:100DF000CC0FDD1F2A95E2F720E2929FC00111245B
:100E0000C82BD92BEBCFDC2FCC27C46FD06A70CF87
:100E10000E94B707C82FD0E0DC2FCC27CC27DF718A
:100E2000D06266CF8C2F8F700E94B70734E0D695C2
:100E3000C7953A95E1F7CF709C2FEC01D06958CF58
:100E400082389105B1F1B0F48133910509F475C090
:100E500048F48932910509F469C08A32910509F490
:100E600073C008958533910509F459C089339105FC
:100E700001F10895833E9105A9F138F4803E910572
:100E8000F9F0823E910549F10895863E9105A9F158
:100E9000873E9105C9F1843E910519F5209195028F
:100EA00021FF1FC08091940284FD14C087EE90E062
:100EB0000895209194022370A1F080EE90E00895AF
:100EC0002091940220FD47C03091950230FF09C067
:100ED00024FF44C090E080E004C02091940222FDF1
:100EE000F7CF08952091940222FD3BC030919502E6
:100EF00030FDE3CF24FFF5CFEDCF2091940223FF07
:100F0000F0CF24FDE7CFD2CF2091940223FD2CC057
:100F10003091950231FFEECF84EE90E0089520915C
:100F2000940225FFDECF89E290E00895209194029B
:100F300025FFD7CF85E390E008952091940226FF06
:100F4000D0CF8AE290E008952091940226FFC9CF85
:100F500081E390E0089589E390E0089583EE90E0C6
:100F6000089582EE90E0089586EE90E008959091C5
:100F7000940292FF06C0282F28712830F9F4877F49
:100F8000846093FF06C0282F28712831F1F4877EF2
:100F900084612091950220FF06C0382F38713830C7
:100FA000D9F4877F816021FF06C0282F287128315E
:100FB000D1F4877E816194FD877E0895282F247166
:100FC0002430F9F68B7F8860DCCF282F2471243100
:100FD00001F78B7E8861DDCF382F3171313019F701
:100FE0008E7F8860E0CF282F2171213121F78E7EFE
:100FF0008861E1CF08950C94FA070895E82FF0E096
:10100000EE0FFF1FEC57FD4F8081918108950895E9
:1010100088E78A95F1F70895AEEBB0E061E070E003
:101020008D91E82FE295EF70F0E041A98F709B0160
:1010300001C0220F8A95EAF7922F9095942391ABE5
:1010400082A9822B82AB80E0A43CB80749F7AEEAC4
:10105000B0E061E070E08D91E82FE295EF70F0E094
:1010600041A98F709B0101C0220F8A95EAF7922F48
:101070009095942391AB82A9822B82AB80E0AE3B0A
:10108000B80749F7E8E7F2E0A4E8B2E084E892E0C4
:10109000119211921D921D928E179F07C9F786E03B
:1010A0000E94DB080C94C9058F929F92AF92BF9269
:1010B000CF92DF92EF92FF920F931F93CF93DF9324
:1010C0008EEBE82E80E0F82E08E712E0912CAA249F
:1010D000A394B12CF70181917F01C82FC295CF70E5
:1010E000D0E099A98F70650101C0CC0C8A95EAF710
:1010F000892F8C2989AB8AA98C2C809488218AAB72
:101100000E940808EEEAF0E050E040E030E020E025
:101110006191A62FA295AF70B0E0D0968C9190E02F
:101120006F7002C0959587956A95E2F780FD3EC085
:10113000C501042E02C0880F991F0A94E2F7282BDC
:10114000392B4F5F5F4F4031510511F789A9882234
:1011500089AA8AA9C82ACAAAF80180819181281778
:10116000390739F13183208381E0982A0E5F1F4FC0
:10117000F4ECEF16F0E0FF0609F0ACCF292D46E0C5
:1011800064E872E088E792E00E94DC080E94D105E2
:10119000892DDF91CF911F910F91FF90EF90DF90FC
:1011A000CF90BF90AF909F908F90089590E080E097
:1011B000C6CF80E0DACF0895FF920F931F93CF93AD
:1011C000DF93F82E092F162FD72FC42F222349F093
:1011D00081E08093F8000E9489169093F700809335
:1011E000F6008091F8008823A1F08091F60090919C
:1011F000F7000E949516069760F0EF2DF02FA12FB3
:10120000BD2F90E080E0D0E08C179D0744F0109255
:10121000F800DF91CF911F910F91FF9008952191D8
:1012200031912D933D930196EFCFAF92BF92CF9224
:10123000DF92EF92FF920F931F93CF93DF937C0186
:101240005B01C42FD22FFC0182818823F9F04093E7
:10125000FB000E9489169093FA008093F90080E2C7
:101260008C0F883008F061C0C77081E001C0880F22
:10127000CA95EAF7DF91CF911F910F91FF90EF9000
:10128000DF90CF90BF90AF900C94690D1091FB0050
:10129000141340C08091F9009091FA000E949516B5
:1012A0006C01B701C5010E943F12C816D90690F51E
:1012B000C0E2CD0F1D17B9F080E2810F883040F4F5
:1012C000177081E001C0880F1A95EAF70E94700D2F
:1012D000C83048F481E09D2F977001C0880F9A951F
:1012E000EAF70E94690D802F0E94560DC830E8F47D
:1012F000D77081E001C0880FDA95EAF7DF91CF91CE
:101300001F910F91FF90EF90DF90CF90BF90AF9023
:101310000C94700D80E28C0F883038F4C77081E037
:1013200001C0880FCA95EAF7E9CFDF91CF911F91ED
:101330000F91FF90EF90DF90CF90BF90AF90089506
:101340000F939C01CB01233F4CE5340759F1A8F4DE
:10135000283DFCE53F0701F1293D4CE53407D1F17B
:10136000273D3C4591F406E221EE41EE67ED7CE538
:101370000E94150980E00F910895253FFCE53F0785
:10138000E9F0B0F0263F3C45F9F0FC01828188236A
:1013900039F11092FB00EFCF07E225EE45EE68ED44
:1013A0007CE5E6CF06E221EE40EE63EF7CE5E0CFA0
:1013B00007E225EE44EE64EF7CE5DACF06E221EEAB
:1013C00042EE65EF7CE5D4CF07E225EE46EE66EF10
:1013D0007CE5CECF08E221E045EE69ED7CE5C8CFA3
:1013E00081E0C9CFCF93DF93EC01FB018281882399
:1013F00009F419C1C230FCE5DF07C0F1C6319CE534
:10140000D90730F09E012A5F3C452930310570F53F
:101410000E9487159093950280939402C031ECE569
:10142000DE0709F4CFC008F05BC0C8308CE5D807F0
:1014300009F4B6C088F5C430ECE5DE0709F4A8C0AD
:10144000C0F4C2308CE5D80709F49CC080919402A6
:101450008260C330DC4509F498C080919402909179
:1014600095020E9495150E94C90F80E0DF91CF91EF
:101470000895809194028061C630ECE5DE0709F49E
:1014800084C0809194028860C730DC4508F47DC038
:1014900080919402806279C0CC308CE5D80709F441
:1014A00089C070F4809194028C60CA30ECE5DE074C
:1014B00009F46BC008F478C0809194028E7F65C0F7
:1014C000CE308CE5D80709F479C0809194028B7FE7
:1014D000CF30DC4508F459C0809194028F7E55C00E
:1014E000CB3FECE5DE0709F457C030F5C3318CE59E
:1014F000D80709F46FC078F4C131ECE5DE0709F4D0
:1015000065C0C231DC4509F0A8CF0E94C90F8091A7
:1015100094028F773AC0C5318CE5D80709F462C0D0
:1015200008F476C0809195028160CA3FDC4509F0DD
:1015300094CF8093950291CFCF3FFCE5DF0709F46C
:101540004DC088F4809195028D7FCD3F9CE5D907F1
:1015500081F3809195028E7FCE3FDC4550F38091E0
:1015600095028360E6CFC130FDE5DF0709F459C07D
:1015700008F444C080E0C230DD4509F06ECF0E941F
:1015800013166BCF8091940281608093940265CF93
:10159000809194028460F9CF809195028260C9CFD6
:1015A000809194028064F1CF0E94C90F80919402CF
:1015B0008068EBCF809194028D7FE7CF8091940279
:1015C000877FE3CF809194028F7DDFCF809194025B
:1015D0008F7BDBCF80919402837FD7CF8091950260
:1015E0008C7FA7CF8091940282FB992790F921E00C
:1015F000922790FB82F990FB83F9C7CF80919502E7
:10160000982F909591708E7F892B90FB81F991CFC7
:101610000E94C90F90919402892F97FB87F98058F7
:10162000B4CF81E0ACCF81E021CFCF93DF93EB014A
:1016300086319C4511F50E94D2149A81992399F024
:101640008A7A91E009F490E09093FC00811109C03E
:1016500089E20E94AD140E94111580E0DF91CF91C4
:10166000089585E3F6CF8091FC00811104C089E2E2
:101670000E94B414F0CF85E3FBCF81E0EFCF9093CD
:101680000201809301010895E0910101F0910201AE
:10169000309721F00190F081E02D099480E00895C9
:1016A000E0910101F0910201309721F00280F38175
:1016B000E02D099408952091FF0030910001281732
:1016C000390771F0909300018093FF00E0910101D0
:1016D000F0910201309721F00680F781E02D099406
:1016E00008952091FD003091FE002817390771F010
:1016F0009093FE008093FD00E0910101F0910201C2
:10170000309721F00084F185E02D0994089584B785
:10171000806884BF84B7806884BF08950895089561
:101720000C948F0B0E94870B0E948E0B0C9420054B
:1017300081E008950C94980B0E9482160E940C0878
:101740000E94E1160C94900B9F92AF92BF92CF92A1
:10175000DF92EF92FF920F931F93CF93DF93CDB75A
:10176000DEB72A970FB6F894DEBF0FBECDBF0E943A
:1017700054080E949A0B882309F46DC054E0A52EEA
:1017800051E0B52E10E000E0902E802F0E94FE0761
:101790006C01F501E190F1905F01E816F90609F49A
:1017A00054C080919A0181FD0E94070897012C2561
:1017B0003D2580E0EE24E394F12CA9014E215F2128
:1017C000452BE9F18E839F82CE20DF2081E0CD285A
:1017D00009F480E088870E9489168160782F9A87B3
:1017E00089874E815F8168858A850E944E0C000F33
:1017F000111FF801EC5FFE4F80819181E826F926E8
:10180000F182E0820E94440B909103018917A1F1BB
:101810000E94440B809303012A960FB6F894DEBF12
:101820000FBECDBFDF91CF911F910F91FF90EF9031
:10183000DF90CF90BF90AF909F900C94DC038F5FB0
:10184000EE0CFF1C803109F0B8CF0F5F1F4F063040
:10185000110509F099CF8FEF89838A831B820E943B
:1018600089168160782F9D838C8349815A816B8191
:101870008D810E944E0CC6CF2A960FB6F894DEBF1B
:101880000FBECDBFDF91CF911F910F91FF90EF90D1
:10189000DF90CF90BF90AF909F900895CF93DF934C
:1018A000CDB7DEB72B970FB6F894DEBF0FBECDBF16
:1018B0004F83588769877A878B871E821D8285E0D0
:1018C000FE013796DE01119601900D928A95E1F79F
:1018D00049815A816B817C818D819E812B960FB6C7
:1018E000F894DEBF0FBECDBFDF91CF910C944212B2
:1018F000FC01808191810C947F14CF93C82F8823A1
:1019000009F483C08238C1F40E94440B81FD7DC07C
:1019100089E30E94AD140E9411152FE789EA93E034
:10192000215080409040E1F700C0000089E30E9410
:10193000B414CF910C9411158338A1F40E94440B78
:1019400080FD63C083E50E94AD140E9411152FE74E
:1019500089EA93E0215080409040E1F700C0000008
:1019600083E5E5CF8438A1F40E94440B82FD4DC08D
:1019700087E40E94AD140E9411152FE789EA93E0D5
:10198000215080409040E1F700C0000087E4CFCFB5
:101990008CEF8C0F813A90F46C2F809160009091C5
:1019A00061000E942A16882329F08C2F0E94B4140B
:1019B0000E9411158C2F0E94AD14BBCF80E28C0FBA
:1019C000883048F4C77081E001C0880FCA95EAF7F3
:1019D0000E94D514AECFEBE5EC0FE33040F4F0E01D
:1019E000EE50FF4F808190E0CF910C945B0BC85A72
:1019F000C73158F4EC2FF0E0EE0FFF1FEC53FF4F10
:101A000080819181CF910C94710BCF91089588239F
:101A100009F44BC0823871F40E94440B81FF45C029
:101A200089E30E94AD140E94111589E30E94B41449
:101A30000C941115833859F40E94440B80FF35C073
:101A400083E50E94AD140E94111583E5EFCF843821
:101A500059F40E94440B82FF28C087E40E94AD1411
:101A60000E94111587E4E2CF9CEF980F913AF0F2B3
:101A700090E2980F983050F4877091E001C0990F70
:101A80008A95EAF7892F0E94DB14D2CF9BE5980F45
:101A9000933020F490E080E00C945B0B885A8731FF
:101AA00020F490E080E00C94710B0895CF93C82F40
:101AB0000E947D0CC93349F42FEF8DEE92E0215046
:101AC00080409040E1F700C000008C2FCF910C9433
:101AD000070D882321F00E94D5140C941115089548
:101AE000882321F00E94DB140C9411150895BF92F5
:101AF000CF92DF92EF92FF920F931F93CF93DF93DA
:101B00006C01D62FC72FFC01058102950F70128141
:101B100011110E94F2140E94CB14E82E882391F038
:101B20001123E9F08C2F807F803421F080E28D0F2B
:101B30008830A8F082E00E945C150E94CB1491E0EE
:101B4000E82EE926BC2EB2949FE0B922FBE0FB15FB
:101B5000A8F1EB2DF0E0E45AF54E0C94061AE12CB6
:101B6000F1CF0C2F0F70C07F11F00295007F112371
:101B7000A9F0002359F080E28D0F883010F0D111C8
:101B800009C0802F0E94D5140E9411158D2F0E942C
:101B90007D0C14C0802F0E94E514F6CF8D2F0E947B
:101BA000070D002359F080E28D0F883010F0D1111D
:101BB0002CC0802F0E94DB140E9411152B2D285061
:101BC000330B2430310520F40E94440B0E94DC03C7
:101BD000EE2009F483C10E94C71480FD7FC1F60185
:101BE00012820E94C1140E944E13C6010E948F0FE0
:101BF0000E94C114DF91CF911F910F91FF90EF9040
:101C0000DF90CF90BF900C946F13802F0E94EB1445
:101C1000D3CF2C2F2F70F22EC07FC03219F0F29448
:101C200080EFF822DD2369F0D13049F1112391F1E1
:101C3000002351F1F601858180FFA8CF8F70858345
:101C400023C0112381F0011106C00E94F8148F29CE
:101C50000E94690DB3CF0130C1F70E94F8148F299B
:101C60000E94FE14ABCF011106C00E9407158F2DF4
:101C70000E94700DA3CF013009F4A0CFF6CF11233D
:101C800029F0063008F09ACF8F2DE2CF053008F00A
:101C900095CFEDCF002359F3D93349F4FFEF2DEE63
:101CA00032E0F15020403040E1F700C000008D2FBD
:101CB0000E94070D83CF8C2F86958695837069F0DF
:101CC000813009F07BCF8D2F9C2F9370111102C0B2
:101CD00090E080E00E94710B71CF8D2F9C2F93704C
:101CE000111102C090E080E00E945B0B67CF8C2F47
:101CF000837009F041C0111161CF4D2F4295469577
:101D00004770440F440F0D2F0F7010E030E020E0BB
:101D1000042E04C0000F111F221F331F0A94D2F794
:101D200060E070E0CB01D4FF0FC06FE070E080E0B6
:101D300090E004C0660F771F881F991F4A95D2F75D
:101D40006095709580959095C695C695C370602BEB
:101D5000712B822B932BC23049F058F4C13019F00B
:101D60000E9400132BCF0E94EE1228CF0E94121364
:101D700025CF0E94EC1222CF8695112311F08C2FD3
:101D80008170882309F41ACF4D2F429546954770EC
:101D9000440F440F0D2F0F7010E030E020E0042EB0
:101DA00004C0000F111F221F331F0A94D2F760E0F6
:101DB00070E0CB01D4FF0FC06FE070E080E090E0F6
:101DC00004C0660F771F881F991F4A95D2F7609548
:101DD000709580959095C695C695C370602B712BB4
:101DE000822B932BC23049F058F4C13019F00E9475
:101DF000C513E4CE0E94B313E1CE0E94D713DECE0A
:101E00000E942813DBCECF70112329F08C2F0E9463
:101E10004E138D2F1DCF8D2F0E94700D8C2F0E9481
:101E20006F13CCCED23F89F160F4D03FC9F0D13FDF
:101E300029F1112309F442C00111A8CE8C2F8F7112
:101E400021C0D33F39F1D43FA1F7112369F1CF71FC
:101E50008C2F0E944E1363E08C2F0E944715AECE4C
:101E6000112341F0053008F0A9CE8C2F8F710E940C
:101E70009213A4CE063008F0A1CEF7CF8C2F8F712D
:101E8000112369F20E944E1399CE8C2F8F7111236A
:101E9000C9F3C5CF112329F08C2F8F710E943913FC
:101EA0008DCE0E9434138ACE81E00E945C150230F0
:101EB00008F484CE82E00E945C1580CE002359F0A5
:101EC000D93309F0F4CE8FEF9DEEE2E081509040DF
:101ED000E040E1F7EACE8C2F8F71A1CFDF91CF9157
:101EE0001F910F91FF90EF90DF90CF90BF900895DA
:101EF0000F931F93CF93DF93EC01688179818A81DF
:101F00000E9489148C010E94E9130E94EB12B8010F
:101F1000CE01DF91CF911F910F910C94770DCF934C
:101F2000DF93EC018B819C81892B29F08881998139
:101F300089238F3F59F4DF91CF910895CE010E94FC
:101F4000780FCE01DF91CF910C94BE05CE010E9497
:101F5000E3058111F3CF0E94CB14882361F38A81BA
:101F6000882349F382E0DF91CF910C945C150E94A5
:101F7000F2140E94F5140E94111590E080E00E9476
:101F80005B0B90E080E00C94710B0E94BB140C94EE
:101F9000B70F0E94E2140C94C50FE92FE295EF7081
:101FA000E250EE3070F4F0E0E859F54E0C94061A69
:101FB000803F19F020F4883E20F481E00895843FAA
:101FC000E1F380E00895883EC0F3813FD1F7F5CF7B
:101FD00093FB882780F908950E947F140C94CD0FFD
:101FE000CF93DF9300D000D00F92CDB7DEB70F9024
:101FF0000F900F900F900F90DF91CF910895CF9396
:10200000DF9300D000D000D0CDB7DEB726960FB654
:10201000F894DEBF0FBECDBFDF91CF9108951F931F
:10202000CF93DF93C091110116E0809112018C13C0
:1020300004C0DF91CF911F910895D0E01C9FF00163
:102040001D9FF00D1124ED5EFE4F40815181628194
:102050007381848195810E94FF0F2196C770E5CF1F
:1020600040914301509144016091450170914601B6
:1020700080914701909148010C94FF0F1F93CF93DB
:10208000DF9380914801807FA9F4809145018823E6
:1020900089F080911101C09112016091430170910A
:1020A0004401A0914601B0914701D62FD72316E0F5
:1020B000C81304C0DF91CF911F91089590E010974D
:1020C00011F0DF3F19F401968770F2CF189F90014D
:1020D000199F300D1124F901ED5EFE4F4181471328
:1020E000F2CF40814613EFCF42814111ECCF4381C3
:1020F00054814A1B5B0B483C510528F780914801ED
:102100008F70806180934801F901E85EFE4F808105
:102110008F708061808383E491E00E948F0FDF9154
:10212000CF911F910C940F10AF92BF92CF92DF927C
:10213000EF92FF920F931F93CF93DF93CDB7DEB74C
:1021400061970FB6F894DEBF0FBECDBF8C0185E05E
:10215000F801DE011D9601900D928A95E1F7F801D4
:1021600040815181E28083E4C82E81E0D82E6091C5
:102170004601709147016115710509F461C19091A3
:10218000430120914401892F82238F3F09F458C1D4
:10219000A380B480F0904501F501E61BF70BFF200A
:1021A00009F4FCC080914801382F307FE83CF105EC
:1021B00008F0B2C0311179C0FE2C251323C094134E
:1021C00021C0E1101FC08F708061809348010E9480
:1021D0003010C6010E948F0F80914801F80185835D
:1021E0008F2D61960FB6F894DEBF0FBECDBFDF9185
:1021F000CF911F910F91FF90EF90DF90CF90BF9004
:10220000AF900895AB2829F0842F85238F3F09F0E4
:1022100033C180E0F82FF170DF2E80FF3CC0809149
:1022200011012091120136E0821315C04D875E879F
:102230008D859E850E947F14292F22952F70223034
:10224000F0F0243018F59F70F1F0F8019581907F3F
:10225000D1F4D12C1EC090E0389FF001399FF00DD1
:102260001124ED5EFE4F6181651306C06081641329
:1022700003C062816E110FC001968770D5CF9F7029
:1022800011F0882331F3805E883018F3C8010E9472
:102290008F0FFD2CA5CFEE2009F4A2CF809148012D
:1022A000816080934801F12C9BCF251306C09413C5
:1022B00004C0F801EE2009F48DC04D875E878D853E
:1022C0009E850E94EC0F882319F1EE2009F1809180
:1022D0004801803270F020914301309144013887E9
:1022E0002F831986BB86AA868C87CE0107960E940B
:1022F0008F0F86E0F801A3E4B1E001900D928A957A
:10230000E1F70E943E100E943010FF24F39468CF42
:10231000C8010E948F0FF9CF311113C07A2DB98AED
:10232000A88A6E2D89890E94F00F83E491E00E94B3
:102330008F0F86E0F60111928A95E9F70E9430101E
:10234000B2CF25130FC094130DC0E1100BC0F801DC
:102350008583C8010E948F0F86E0F60111928A954D
:10236000E9F73ECF4D875E878D859E850E94EC0FF5
:10237000882371F2EE2061F280914801803208F4E6
:10238000B8CF20914301309144013A8329831B82C5
:10239000BD82AC828E83CE010196A9CFE83CF105C7
:1023A00008F041C0FE2CEE2009F4B2CF25132AC05C
:1023B000941328C08091480180FD1BC0982F907F06
:1023C000C1F0F8018583903F31F0982F907F905FA6
:1023D0008F70892B8583C8010E948F0F86E0F801DA
:1023E000A3E4B1E001900D928A95E1F70E943010CC
:1023F000F7CE86E0F801A3E4B1E001900D928A9552
:10240000E1F7EECE4D875E878D859E850E94EC0FAD
:1024100081116FCF80914801816080934801C8018C
:102420000E948F0FDDCE7A2DB98AA88A6E2D8989F8
:102430000E94F00F86E0F60111928A95E9F7D6CF57
:10244000EE2009F465CF4D875E878D859E850E94BD
:10245000EC0FF82E882309F45BCF86E0F801A3E4A3
:10246000B1E001900D928A95E1F783E491E00E943A
:10247000780C0E943E10BACF81E08E25CBCE88EC3E
:1024800090E008951F93CF93DF93CDB7DEB72C97DD
:102490000FB6F894DEBF0FBECDBF4F835887698754
:1024A0007A878B879C87CE0107960E949410882399
:1024B00069F08A859B85892B39F04F815885842F57
:1024C00085238F3F09F071C016E05FC086E0FE01F2
:1024D0003796DE01119601900D928A95E1F78A8573
:1024E0009B85892B89F38F81988589238F3F61F3A1
:1024F0002091120130E0C90101968770992740911F
:1025000011014817190671F40E94C90F10921201A7
:102510001092110186E0E3E4F1E0DF011D928A955B
:10252000E9F7D2CF96E0929FD001939FB00D11248E
:10253000AD5EBE4FFE01319601900D929A95E1F786
:10254000809312010E940F10BFCF819FC001112400
:102550008D5E9E4F0E9494108823E9F0E091110156
:102560001E9FF0011124ED5EFE4F4081518162817A
:102570007381848195810E94FF0F8091110190E009
:102580000196877099278093110180911101909194
:1025900012018913DACF2C960FB6F894DEBF0FBE66
:1025A000CDBFDF91CF911F91089569857A858B8585
:1025B0009C850E94FF0F88CF08950C94DC120E9426
:1025C000DD126093890170938A0180938B0190934F
:1025D0008C010C94B70F08950C94DF120F931F9386
:1025E0000091890110918A0120918B0130918C0119
:1025F000602B712B822B932B1F910F910C94DF1268
:102600000F931F930091890110918A0120918B01F2
:1026100030918C0160237123822393231F910F91AA
:102620000C94DF120F931F930091890110918A017E
:1026300020918B0130918C0160277127822793278D
:102640001F910F910C94DF120C94DC120C94241344
:102650000E94261360938501709386018093870101
:10266000909388010C94B70F60E070E0CB010C945C
:1026700028130F931F9341E050E060E070E08A015F
:102680009B0104C0000F111F221F331F8A95D2F730
:10269000C901B8011F910F910C9428130F931F9338
:1026A00041E050E060E070E004C0440F551F661F39
:1026B000771F8A95D2F78091850190918601A0912C
:1026C0008701B09188018A019B01082B192B2A2BC5
:1026D0003B2BC901B8011F910F910C9428130F9344
:1026E0001F9341E050E060E070E004C0440F551FCC
:1026F000661F771F8A95D2F7CB01BA016095709556
:102700008095909500918501109186012091870117
:102710003091880160237123822393231F910F91AD
:102720000C9428130F931F9341E050E060E070E099
:1027300004C0440F551F661F771F8A95D2F78091FA
:10274000850190918601A0918701B09188018A014D
:102750009B01082719272A273B27C901B8011F9188
:102760000F910C9428130F931F93009185011091E2
:1027700086012091870130918801602B712B822B7B
:10278000932B1F910F910C9428130F931F9300917B
:102790008501109186012091870130918801602385
:1027A0007123822393231F910F910C9428130F936D
:1027B0001F9300918501109186012091870130912E
:1027C000880160277127822793271F910F910C940E
:1027D000281308959295907F890F982F977041E064
:1027E00001C0440F9A95EAF786958695869595E0FF
:1027F000899FF0011124E75BFE4F30E020E070E09C
:102800005191DF011197CB01022E02C09695879559
:102810000A94E2F7817081958527842385278C931C
:102820002F5F3F4F2530310559F708959295907FDE
:10283000890F982F977086958695869525E0829FBB
:10284000F0011124E75BFE4F50E040E080E0219171
:1028500030E0092E02C0369527950A94E2F72170E0
:102860003327042E01C0220F0A94EAF7822B4F5F10
:102870005F4F4530510559F70895BF92CF92DF92CF
:10288000EF92FF920F931F93CF93DF938C01C09031
:102890008501D0908601E0908701F09088018091B9
:1028A000890190918A01A0918B01B0918C01C82A75
:1028B000D92AEA2AFB2ACFE1D0E0BC2ED701C601F3
:1028C0000C2E04C0B695A795979587950A94D2F7D4
:1028D00080FD0EC0219788F7B12C8B2DDF91CF9111
:1028E0001F910F91FF90EF90DF90CF90BF900895D0
:1028F000B8018C2F0E943406019761F3EECFCF937D
:10290000DF93EC010E943D14BE01DF91CF910C9446
:1029100034061F93CF93DF93EB019091100199231D
:1029200031F0CB01DF91CF911F910C947F1488235C
:1029300079F0CB010E943D14182F682FCE010E9420
:10294000EA13BE01812FDF91CF911F910C943406C1
:10295000CB010E941614182FF4CF682F80916000CD
:10296000909161000C946016682F809160009091A6
:1029700061000C94621680916000909161000C944B
:10298000641680918D018595859585950895809132
:102990008D018770089590918D01977081E009F401
:1029A00080E0089580919901089590919901892B73
:1029B000809399010895809590919901982390931F
:1029C0009901089510929901089590919801892B89
:1029D0008093980108958095909198019823909301
:1029E0009801089510929801089510929701089502
:1029F00080918E01089508950C94FB1490918E019E
:102A0000981721F080938E010C94FC140895809106
:102A10008E01882329F010928E0180E00C94FC1422
:102A20000895E0916000F0916100809199018083A8
:102A3000E0916000F0916100808190919801892B74
:102A40008083E0916000F091610080819091970116
:102A5000892B808390918E01992381F0E091600011
:102A6000F09161008081892B80838091600090913A
:102A700061000E94181681110E9407158091600064
:102A8000909161000C94500B08950C94441598E0BB
:102A9000899F90011124622B60938D010E944E1337
:102AA00080918D018595859585950C94451510929D
:102AB0008D0180E00C94451590918D0180958923BE
:102AC00080938D01282F277071F4282F082E000C79
:102AD000330B9217130639F08595859585950E94DD
:102AE0006F130C945715089590E080E00E94141A1B
:102AF00021E08C3E9E4F09F020E0822F089582E075
:102B000090E00C940C1A83E090E00C940C1ACF9394
:102B100084E090E00E940C1AC82F81E290E00E94AD
:102B20000C1A982F8C2FCF910895CF93C92F682F0F
:102B300084E090E00E941A1A6C2F81E290E0CF911D
:102B40000C941A1AAB01BC018FE090E00C942B1A84
:102B5000AB01BC0183E190E00C942B1A60E070E0C3
:102B6000CB010C94A81560E070E0CB010E94A21587
:102B70000C94AE156CEE7EEF90E080E00E94371A68
:102B800060E082E090E00E941A1A60E083E090E04A
:102B90000E941A1A1092890110928A0110928B01D8
:102BA00010928C0160E084E090E00E941A1A60E0CC
:102BB00081E290E00E941A1A60E085E090E00E94B5
:102BC0001A1A60E086E090E00E941A1A6FEF87E020
:102BD00090E00E941A1A40E050E0BA0188E090E0CC
:102BE0000E942B1A60E08DE090E00E941A1A40E0EB
:102BF00050E0BA0188E190E00E942B1A60E087E182
:102C000090E00E941A1A40E050E0BA018CE190E096
:102C10000E942B1A60E080E290E00E941A1A0C9445
:102C2000B3150C94BA15682F8EE090E00C941A1A24
:102C30009C012E5F3F4FAC01485F5F4F80E024173F
:102C4000350709F40895F90191919F019923B9F38A
:102C50008F5FF5CF662349F0FC01329608962191EB
:102C6000261729F0E817F907D1F780E0089581E0E9
:102C700008959C01FC0132969FEF80E04191461738
:102C800051F09F3F19F4411101C0982F8F5F86309A
:102C9000A9F79F3F09F40895290F311D97FD3A9533
:102CA000F90162830895FC0132960896219126135A
:102CB00003C0DF0111971C92E817F907B9F70895CF
:102CC0000C9439160C945316029626E0FC011192CE
:102CD0002A95E9F7089508950895CF930E946B16F9
:102CE0000E9454080E946C16C0E08C2F0E94FE07C0
:102CF000892B31F4CF5FC630C1F780E0CF910895C2
:102D000081E0FCCF8BE083BF8BEB8CBF82E089BF7F
:102D100008952FB7F8948091900290919102A0911C
:102D20009202B09193022FBF08959C014FB7F8947F
:102D30008091900290919102A0919202B0919302A1
:102D40004FBF821B930B089578941F921FB61F925A
:102D500011248F939F93AF93BF9380919002909192
:102D60009102A0919202B09193020196A11DB11D12
:102D70008093900290939102A0939202B093930259
:102D8000BF91AF919F918F911F901FBE1F9018957B
:102D900060E081E090E00E943D1A87E090EBDC016A
:102DA0008093E6029093E702A093E802B093E902D1
:102DB00088E19CE00FB6F894A89581BD0FBE91BD47
:102DC000FFCF0E947415811102C00E9411160E944B
:102DD0007F1580939A010E948715909395028093A6
:102DE00094020E948315682F70E090E080E00E94BA
:102DF000EC1260918501709186018091870190911C
:102E000088010C9426130E9489168C010E94920B53
:102E10000E94F6170E943F0B0E94D7198B9A80E000
:102E2000815039F58B987894FFEB24ED31E0F15027
:102E300020403040E1F700C000000E949C0BC0E041
:102E4000DCE08091BD028823F1F01092BD020E9467
:102E500089168C010E94E7188091C302882329F00B
:102E60008091A10284FD0E94A40B0E949D17C0E0E6
:102E7000E8CFA895E7EBFBE03197F1F700C0000041
:102E8000CFCFC1E0DECFC8010E949516069710F49F
:102E9000CC2301F30E946D16C82F882391F3F89478
:102EA00091B3939A892F8C6081BB82B38D2782BBAB
:102EB0008FE5EAEEF0E08150E040F040E1F700C03D
:102EC000000082B38D2782BB91BB93987894B9CFD1
:102ED00080912C0208950895CF93DF9300D00F9234
:102EE000CDB7DEB790919D01981307C020919B014B
:102EF00030919C012617370791F080939D017093C4
:102F00009C0160939B0189837B836A838091DA02B1
:102F100084FF05C063E0CE0101960E94E3180F9084
:102F20000F900F90DF91CF910895BC0184E00C9435
:102F30006C17BC0183E00C946C17CF93DF93CAE04D
:102F4000D0E08091A10284FF1AC08091A9019091E4
:102F5000AA01981789F028E0829FC001112468E037
:102F600085559E4F0E94DF188091A90190E001963F
:102F70008F7099278093A901DF91CF9108950E94C6
:102F8000E71887EB9BE00197F1F700C0000021975D
:102F9000C1F6F2CFCF93DF93EC01A091AA01B0E08C
:102FA000CD0101968F7099272091A901281779F0FA
:102FB00093E0AA0FBB1F9A95E1F7A555BE4F98E085
:102FC000FE0101900D929A95E1F78093AA010E946B
:102FD000E7180E949D1788E0FE01A1EAB1E0019088
:102FE0000D928A95E1F7DF91CF91089582E690E006
:102FF0000895FC01808180768032F1F481818130F6
:1030000061F484819581892BB9F481EA91E09093F0
:10301000BF028093BE0288E00895823041F48BE2C3
:1030200092E09093BF028093BE0281E008958A30BF
:1030300029F4838180932B0280E008958930E1F7A1
:10304000828193818115924069F484819581892BD5
:1030500049F481E08093A0018681978190939F013C
:1030600080939E018FEF0895FC0180919E019091C5
:103070009F01892B61F08091A001813041F4908102
:1030800090932C0210929F0110929E0108958FEF51
:1030900008950895FC019381933059F130F49130F3
:1030A000C1F09230F1F080E00895913209F445C00A
:1030B0009232C9F784819581009709F44FC0019736
:1030C00091F783ED93E09093BF028093BE0282E379
:1030D00008958FE893E09093BF028093BE0282E14F
:1030E000089584E593E09093BF028093BE028BE342
:1030F00008958281813089F0882339F08230A9F0E7
:10310000833089F681EA93E002C08FEC93E09093DC
:10311000BF028093BE0284E0089581EC93E0909317
:10312000BF028093BE028CE0089587EA93E09093FB
:10313000BF028093BE0288E108958281882331F026
:10314000813009F0B0CF8FE793E002C086E693E0CC
:103150009093BF028093BE0289E0089585E094E0D9
:103160009093BF028093BE0280E408951F93CF9393
:10317000DF93E82F792F162FEA01888184FF1CC086
:10318000298188E828272983CE010296DC012E2F89
:10319000372F512F5E0FF90121912D939F01452F5C
:1031A0004E1B1416C4F3612F0E947E021C5F18830D
:1031B000DF91CF911F9108958AE58883E5CF41EA99
:1031C00052E00C94B6184AED52E00C94B618CF9326
:1031D000DF936091C002635067FD12C08091BC0212
:1031E000CCE0D0E0C81BD109CC53DD4F8091BB02AD
:1031F000803108F054C0CE010E9449181092C002DC
:1032000080916D0084FF3EC080916C008F3FD1F1B2
:10321000C82F893008F0C8E0982F9C1B90936C0051
:103220009091960228E89227909396028823E9F0DD
:103230008091BE029091BF022091BA0226FFAEC0DB
:10324000FC012C2FA7E9B2E034913D933196215037
:10325000D9F79C012F5F3F4F8FEF8C0F820F932F79
:10326000911D9093BF028093BE026C2F87E992E07C
:103270000E947E02CC5FCC3019F08FEF80936C00FF
:10328000C0936D0084E190B39C7031F48150D9F704
:103290001092C1021092B902DF91CF9108958D3240
:1032A00009F069C0683009F0A9CF83EC80939602D9
:1032B0008AE580936D001092BA028881807671F061
:1032C000CE010E94F9178F3FC1F4988197FD8E813E
:1032D00090E89093BA0280936C0090CF2A8110926C
:1032E0009F029981911111C01092A0022FE932E042
:1032F00082E03093BF022093BE029F819111EBCFF9
:103300009E81981740F7892FE6CF953029F42093B6
:10331000C1022FE932E0EDCF963099F49B819130D4
:1033200021F4CE010E944A1808C09230D1F39330A4
:10333000C1F39132B1F39232A1F390E49093BA02C7
:10334000C2CF983089F0993019F42093C302E1CFAD
:103350009A3071F09B30E9F69BE49093A20290932F
:10336000DB029093AE02D5CF23EC32E081E0C1CFF7
:103370002FE932E0FBCF8091BA0287FF3FCFCE0129
:103380000E9434188F3F21F48EE180936D0036CF78
:10339000882309F433CF10926C0030CFDC012C2F3E
:1033A000E7E9F2E03D9131932150E1F752CFCF931D
:1033B000DF9385B7886085BF8BB780688BBFC1EA14
:1033C000D2E08BE48983AAEDB2E011968C93119739
:1033D000EDEAF2E081838AE588838C938083DF9134
:1033E000CF910895AA1BBB1B51E107C0AA1FBB1FA9
:1033F000A617B70710F0A61BB70B881F991F5A9581
:10340000A9F780959095BC01CD010895EE0FFF1F9F
:103410000590F491E02D0994E199FECF9FBB8EBBFE
:10342000E09A99278DB30895A8E1B0E042E050E01A
:103430000C944C1A262FE199FECF9FBB8EBBE09ACD
:1034400001970DB2021631F02DBB0FB6F894E29A37
:10345000E19A0FBE08950396272F0E941B1A0E941F
:103460001A1A252F0E941B1A242F0C941B1A01963E
:10347000272F0E941B1A0C941A1A262FE199FECFAF
:103480009FBB8EBB2DBB0FB6F894E29AE19A0FBE9C
:1034900001960895DC01CB01FC01E199FECF06C045
:1034A000FFBBEEBBE09A31960DB20D9241505040F9
:1034B000B8F70895F894FFCFB10DB10D090E090EBC
:1034C0005B0EDE0DDE0DDE0D770E030F120F120FF9
:1034D000D80FD80FE10FE10FE30FE10FE10FE10F7C
:0C34E000D80FD80FE80FE10FE10FE80F44
:1034EC008F016817CA176B1799179517FF5A07079B
:1034FC0007070707070707070707070707E200E99A
:10350C0000EA00B500B600B700CD008301CC008AFC
:10351C000192019401210223022402250226022792
:10352C00022A02B300B4006F007000818283909174
:10353C009293949596976061626364656667323383
:10354C0034353637E200E900EA00B500B600B700C2
:10355C00CD008301CC008A01920194012102230247
:10356C0024022502260227022A02B300B4006F00AF
:06357C0070008182830053
:00000001FF
