:100000000C945B030C949F030C94BA030C949F0311
:100010000C949F030C949F030C949F030C949F03D8
:100020000C949F030C949F030C9438240C949F030E
:100030000C949F030C949F030C949F030C949F03B8
:100040000C949F030C949F030C949F030C949F03A8
:100050000C949F0300010101010101010101020251
:100060000202020202020203030303030303030466
:100070000404040404040505050505060606060631
:10008000070707070708080808090909090A0A0AEB
:100090000B0B0B0C0C0C0D0D0D0E0E0E0F0F0F108D
:1000A0001011111112121313141415151616171717
:1000B000181819191A1A1B1B1C1D1D1E1E1F202083
:1000C000212222232424252626272829292A2B2CCD
:1000D0002D2D2E2F30313232333435363738393AF0
:1000E0003B3C3D3E3F404142434445464748494AE8
:1000F0004C4D4E4F50515354555658595A5B5D5EB6
:100100005F616264656668696B6C6D6F7072737550
:1001100077787A7B7D7E8082838587888A8C8E8FB4
:1001200091939596989A9C9EA0A2A3A5A7A9ABADE2
:10013000AFB1B3B5B7BABCBEC0C2C4C6C9CBCDCFD0
:10014000D1D4D6D8DBDDDFE2E4E7E9EBEEF0F3F57E
:10015000F8FAFDFFFFAA7F55402223252628292AE9
:100160002C2D2F3032333536383A3B3D3E4042431A
:100170004547494A4C4E5051535557595A5C5E6059
:1001800062646668696B6D6F71737577797B7D7F6B
:1001900081838587898A8C8E90929496989A9C9E6A
:1001A0009FA1A3A5A7A8AAACAEAFB1B3B4B6B8B986
:1001B000BBBCBEBFC1C2C3C5C6C7C9CACBCCCDCEEE
:1001C000D0D1D2D2D3D4D5D6D7D7D8D9D9DADADBD1
:1001D000DBDBDCDCDCDCDCDDDDDDDDDCDCDCDCDC5D
:1001E000DBDBDBDADAD9D9D8D7D7D6D5D4D3D2D29C
:1001F000D1D0CECDCCCBCAC9C7C6C5C3C2C1BFBE84
:10020000BCBBB9B8B6B4B3B1AFAEACAAA8A7A5A3EE
:10021000A19F9E9C9A98969492908E8C8A898785AD
:1002200083817F7D7B79777573716F6D6B6968668C
:100230006462605E5C5A5957555351504E4C4A495E
:1002400047454342403E3D3B3A3836353332302F06
:100250002D2C2A29282625232229001E001F0020B4
:100260000021002200230024002500260027002D65
:10027000002E004C002A004B002B0014001A00082E
:1002800000150017001C0018000C00120013002FAE
:10029000003000310000004E003941040016000714
:1002A0000009000A000B000D000E000F003300349F
:1002B000003200280000000000E10064001D001B67
:1002C0000006001900050011001000360037003844
:1002D00000E500015152000000E000E300E20000F0
:1002E00000000000002C0000000000E600E7000015
:1002F00000E400500051004F000100010001000126
:1003000000010001000100010001000100010001E5
:1003100000010001000100010001000100010001D5
:1003200000010001000100010001000100010001C5
:1003300000010001000000010001000100010001B6
:1003400000010001000100010001000100010001A5
:100350000001000100000000000100010001000197
:100360000001000100010001000100010001000185
:100370000001000100010000000100010001000077
:10038000000000000001000000000001000100006A
:100390000001000100010001000100010001000155
:1003A0000001000100010001000100010001000145
:1003B0000001000100010001000100010001000135
:1003C0000001000100010001000100010001000125
:1003D0000001000100000001000100010001000116
:1003E0000001000100010001000100010001000105
:1003F00000010001000000000001000100010001F7
:1004000000010001000100010001000100010001E4
:1004100000010001000100000001000100010000D6
:1004200000000000000100000000000100010000C9
:1004300000010001000100010001000100010001B4
:1004400000010001000100010001000100010001A4
:100450000001000100010001000100010001000194
:100460000001000100010001000100010001000184
:100470000001000100000001000100010001000175
:100480000001000100010001000100010001000164
:100490000001000100000000000100010001000156
:1004A0000001000100010001000100010001000144
:1004B0000001000100010000000100010001000036
:1004C0000000000000010000000000010001000029
:1004D0000001000100010001000000000000000018
:1004E000000000000000000000000000007E0F007F
:1004F000D4FFFFFFC70000007800000000000000EC
:10050000002A2B280000000000000000000000006E
:100510000000000029000000002C1E3420212224AD
:10052000342627252E362D3738271E1F202122233B
:100530002425263333362E37381F040506070809CD
:100540000A0B0C0D0E0F1011121314151617181993
:100550001A1B1C1D2F3130232D35040506070809F1
:100560000A0B0C0D0E0F1011121314151617181973
:100570001A1B1C1D2F3130354C32190A00047F3FE5
:100580001F643214643214783C1E1E140A050501DF
:100590000980A101850319012AB700150126B700BA
:1005A000950175108100C0050C0901A10185041990
:1005B000012AA002150126A002950175108100C034
:1005C0000660FF0961A1010962150026FF00952060
:1005D000750881020963150026FF009520750891B2
:1005E00002C005010906A101050719E029E7150068
:1005F000250195087501810295017508810305079C
:10060000190029FF150026FF0095067508810005D1
:100610000819012905950575019102950175039148
:1006200003C00403300000000C034C005A002000FB
:100630005300740000000C034C00650065004B0083
:10064000750000000403090409025B00030100A017
:10065000FA09040000010301010009210101000160
:10066000224000070581030800010904010002037C
:100670000000000921010100022222000705840375
:100680000800010705040308000109040200010332
:100690000000000921010100012232000705830347
:1006A0000800011201100100000008A020544100C0
:1006B00001010203010011241FBECFE5D8E0DEBF17
:1006C000CDBF04B603FE24C080918E0390918F03AA
:1006D000A0919003B09191038730904BA740B04B0D
:1006E000B9F410928E0310928F031092900310921F
:1006F000910314BE84B7877F84BF0FB6F894A89582
:1007000081B5886181BD11BC0FBEE0E0F8E30995B9
:1007100023E0ACE2B1E001C01D92AE38B207E1F7D0
:1007200011E0A0E6B0E0EAE3FCE402C005900D921F
:10073000AC32B107D9F70E948D1E0C94DA250C94C7
:100740000000A82FB92F80E090E041E050EA6095CA
:1007500030E009C02D9182279795879510F0842766
:100760009527305EC8F36F5FA8F30895EADF8D9395
:100770009D930895CF93CFB7CF93C395839BE9F70C
:10078000839B0EC0839B0CC0839B0AC0839B08C0C5
:10079000839B06C0C0916803C395C0936803A6C03D
:1007A000DF93C0916703DD27C459DC4F839B02C0F0
:1007B000DF91E6CF2F930F931F9300B32FEF03FB2F
:1007C00020F94F933F9310B34FEF012703FB21F91B
:1007D0003BE031C04E7F012F10B3216028C0102FA5
:1007E0004D7F2260000000B329C04B7F2460012FA1
:1007F000000010B32BC010B3477F28602AC04F7E83
:1008000000B320612CC04F7D10B320622FC04F7BFE
:1008100000B3206432C0422700B349934FEF000079
:10082000102713FB20F910B31C70C9F1297F91F236
:10083000012703FB21F900B3237F89F2315058F1DE
:10084000102713FB22F910B3277E79F2012703FB4F
:1008500023F92F7C81F200B3102713FB24F92F79A1
:1008600071F200C010B3012703FB25F92F7359F271
:1008700000C000B3102713FB26F9223040F200C05D
:1008800010B3012703FB27F9243028F64F7720689F
:1008900010B30000F9CF10E81ABF00271CC03B506E
:1008A0003195C31BD04010E81ABF0881033C11F1F9
:1008B0000B3401F1209165031981110F1213EDCF53
:1008C0004A81441F093669F10D3211F0013E29F7C2
:1008D0004F7009F0042F00936B033F914F911F91CC
:1008E0000F912F91DF91CAB7C7FD47CFCF91CFBFEF
:1008F000CF91189520916B03222379F3109169030E
:10090000112309F044C034300AF443C03093690322
:1009100020936603109167033BE0311B309367031C
:1009200038C000916903013094F50AE54F7049F42D
:100930003091AB0034FD2FC00093AB00C2E4D3E094
:100940002EC0433059F0443091F030914D0334FDC6
:1009500022C000934D03CEE4D3E021C03091820346
:1009600034FD19C000938203C3E8D3E018C030916E
:10097000590334FD10C000935903CAE5D3E00FC0FA
:100980002795A8F45150A9F4220F0000F9CF4AE5A9
:1009900003C042ED01C0432FC4E1D0E032E011B307
:1009A0001C60939A11BB02B320E41CE05F93012703
:1009B00056E002BB279520F4515021F4220FF9CFC5
:1009C000012756E000003B5A02BBD0F2279528F4DD
:1009D000515029F4220F0000F9CF012756E0279546
:1009E00002BB20F4515021F4220FF9CF012756E029
:1009F0002991332302BB21F6037F10916A03110F63
:100A0000C651D04002BB11F01093650310E81ABF25
:100A1000086011B3137F402F437F5F9100C000C077
:100A200002BB11BB42BB59CFFC018381833089F1EA
:100A300030F48130F1F0823021F180E0089581328C
:100A400009F446C08232C9F724813581213031054D
:100A500009F45CC02115310509F450C0223031057C
:100A600061F78EE895E09093D2028093D10282E301
:100A7000089583EA96E09093D2028093D10282E1B6
:100A8000089588E496E09093D2028093D1028BE59A
:100A900008958281813089F0882339F08230A9F06D
:100AA000833059F682E296E002C084E496E09093A7
:100AB000D2028093D10284E0089586E396E0909379
:100AC000D2028093D1028CE0089588E296E0F7CFBD
:100AD0008281813081F0882331F0823009F0ADCFFE
:100AE00083E996E002C08AE596E09093D202809373
:100AF000D10289E0089583E796E0F7CF82EE95E092
:100B00009093D2028093D10280E4089520EC35E0E6
:100B10003093D2022093D1020895089508958091D0
:100B2000CC0208959C014FB7F89480912E029091C9
:100B30002F02A0913002B09131024FBF821B930B64
:100B400008952FB7F89480912E0290912F02A091D2
:100B50003002B09131022FBF0895809100028111BF
:100B60001092000208958091FF019091FE01892B5F
:100B70009091FD01892B80932C0190910002992383
:100B800091F0892B80932C0120E08EE291E0FC0112
:100B90003191CF0131112F5FF1E084339F07B9F715
:100BA00021110E94AD05E0910502F09106023097F7
:100BB00031F00280F381E02D8CE291E009940895F8
:100BC000EEE2F1E09191891303C0DF0111971C92CD
:100BD00091E0E433F907B1F70895AEE2B1E0EFEF49
:100BE00090E02D91821751F0EF3F19F4211101C0CF
:100BF000E92F9F5F9630A9F7EF3F09F408950E2E75
:100C0000000CFF0BE45DFE4F828308959295907F68
:100C1000890F982F977086958695869525E0829FF7
:100C2000F0011124E653FE4F50E040E080E02191B6
:100C300030E0092E02C0369527950A94E2F721701C
:100C40003327042E01C0220F0A94EAF7822B4F5F4C
:100C50005F4F4530510559F708959295907F890F60
:100C6000982F977041E001C0440F9A95EAF7869556
:100C70008695869595E0899FF0011124E653FE4FF5
:100C800030E020E070E05191DF011197CB01022E9E
:100C900002C0969587950A94E2F781708195852721
:100CA000842385278C932F5F3F4F2530310559F7DB
:100CB00008958091C90190919801981301C00895F9
:100CC0008F5F8770FACF882341F080959091FF0164
:100CD00089238093FF010C94B3050895882339F08C
:100CE0009091FF01982B9093FF010C94B305089508
:100CF00020918E0130918F012817390771F0909360
:100D00008F0180938E01E0910502F09106023097E9
:100D100021F00084F185E02D0994089520918C0143
:100D200030918D012817390771F090938D018093D0
:100D30008C01E0910502F0910602309721F00680C7
:100D4000F781E02D099408951092FE011092FD01A3
:100D50000E94B30590E080E00E948E0690E080E063
:100D60000C9478066093F3027093F4028093F5027A
:100D70009093F6020C94A4060F931F936091F302D4
:100D80007091F4028091F5029091F6028B019C0122
:100D9000067011272227332706301105210531055A
:100DA00029F468601F910F910C94B206677FFACF07
:100DB0000F931F9341E050E060E070E004C0440FE7
:100DC000551F661F771F8A95D2F7CB01BA01609530
:100DD0007095809590950091F3021091F402209106
:100DE000F5023091F60260237123822393231F9131
:100DF0000F910C94B2069091FC0180958923809309
:100E0000FC01282F277071F4282F082E000C330BBB
:100E10009217130639F08595859585950E94D80619
:100E20001092FC0108950F931F9341E050E060E0A1
:100E300070E004C0440F551F661F771F8A95D2F7D4
:100E40008091F3029091F402A091F502B091F60224
:100E50008A019B01082B192B2A2B3B2BC901B801B6
:100E60001F910F910C94B2066093010270930202DD
:100E700080930302909304020C94A406E09105026F
:100E8000F0910602309721F00190F081E02D099455
:100E900080E00895882309F452C0823871F40E94DA
:100EA0003E0781FF4CC089E30E94ED050E94B30517
:100EB00089E30E94E0050C94B305833859F40E943D
:100EC0003E0780FF3CC083E50E94ED050E94B3050C
:100ED00083E5EFCF843859F40E943E0782FF2FC08C
:100EE00087E40E94ED050E94B30587E4E2CF9CEF02
:100EF000980F913AF0F290E2980F983088F487704A
:100F000021E030E0A90102C0440F551F8A95E2F7A5
:100F1000CA0180959091FF0189238093FF01CBCF77
:100F20009BE5980F933020F490E080E00C948E06BF
:100F3000885A873120F490E080E00C947806089578
:100F4000FA01811101C0FB01099480912902982FB7
:100F50009E7F61F4817082608093290280912C02CF
:100F6000893C18F088EC80932C0208958635B0F304
:100F700081708465F1CFAF92BF92DF92EF92FF92C2
:100F80000F931F93CF93DF93182F062FE901493C4E
:100F900008F048ECE42FF0E0EC5AFF4F011110C0CC
:100FA000E4915E2F4E2F4983E8835A83DF91CF91DE
:100FB0001F910F91FF90EF90DF90BF90AF90089539
:100FC000202F30E04491D42EE42EF12C56E0159FD2
:100FD000C0011124EFEFF0E0BF010E947624812FC1
:100FE00090E0880F991F55E5569FD001579FB00D8F
:100FF00011248A1B9B0B982F990F890F5F01A21A4E
:10100000B30AAE9CD001AF9CB00DBE9CB00D1124B4
:101010005B2F089F80011124012F11275F01A01A67
:10102000B10AAE9C8001AF9C100DBE9C100D112426
:101030005F01A81AB108A29EC001A39E900DB29EA6
:10104000900D1124892F9927E81BF90BEE9DC00103
:10105000EF9D900DFE9D900D1124E92F62307105DA
:10106000A1F050F46115710509F49DCF613071054F
:1010700081F0EB2F512F97CF6430710569F080F02C
:101080006630710509F48FCFF4CFE42F4B2F592F21
:101090008ACFE42F412F87CFEB2F542F492F83CFB7
:1010A0004B2F5D2DE12F7FCF9091110292FF06C053
:1010B000282F28712830F9F4877F846093FF06C0B9
:1010C000282F28712831F1F4877E84612091120243
:1010D00020FF06C0382F38713830D9F4877F8160FF
:1010E00021FF06C0282F28712831D1F4877E816125
:1010F00094FD877E0895282F24712430F9F68B7F84
:101100008860DCCF282F2471243101F78B7E886121
:10111000DDCF382F3171313019F78E7F8860E0CF05
:10112000282F2171213121F78E7E8861E1CF06B60B
:1011300007FEFDCF089583B986B78F70806886BF9C
:101140000E94970881B1982F987F983251F098317A
:1011500041F0982F987E81E0903409F080E0817012
:10116000089581E0FCCF86B7806D86BF06B604FE89
:10117000FDCF089586B7806A86BF0E94970891B117
:10118000987F81E0983019F0903109F080E081700B
:101190000895EF92FF920F931F93CF93DF93082F41
:1011A0000E94BA08811109C010E0812FDF91CF9110
:1011B0001F910F91FF90EF90089580EB0E949B0884
:1011C000882391F3C7EFD2E07E0189910E949B08AA
:1011D000182F882349F38E2D8C1B800FB1F70E94A6
:1011E000B308E3CF93E09093F7029093F802811154
:1011F00084E061118260411181608093F90283E093
:101200000E94C90881E00895CF93DF93809169031C
:10121000835087FD14C090916703CCE0D0E0C91BD8
:10122000D109C459DC4F90916603903108F06BC02E
:10123000883009F453C01092C10210926903809162
:10124000AB0084FF3EC08091AA008F3FD1F1C82F30
:10125000893008F0C8E0982F9C1B9093AA009091C9
:10126000420328E89227909342038823E9F0809173
:10127000D1029091D2022091D00226FF06C1FC013A
:101280002C2FA3E4B3E034913D9331962150D9F74C
:101290009C012F5F3F4F8FEF8C0F820F932F911D7B
:1012A0009093D2028093D1026C2F83E493E00E944A
:1012B000B603CC5FCC3019F08FEF8093AA00C093B7
:1012C000AB0084E190B39C7031F48150D9F7109257
:1012D0006A0310926503DF91CF9108958091C10256
:1012E000893108F0A8CFE82FF0E0ED52FD4F9E01C4
:1012F000285F3F4F999191932C173D07D9F7885F4D
:101300008093C1029ACF9D3209F0A3C0883009F0C2
:1013100094CF83EC809342038AE58093AB001092D4
:10132000D0028881807609F447C0803229F589810E
:10133000813099F48C819D81892BF1F483EC92E0CA
:101340009093D2028093D10288E09F81911131C0A5
:101350009E81981770F5892F2CC0823041F482EC61
:1013600092E09093D2028093D10281E0EECF8A3056
:1013700029F48B818093C20280E0E7CF8930E1F7C6
:101380008A819B818115924069F48C819D81892B92
:1013900049F481E08093CF028E819F819093CE02A9
:1013A0008093CD02888187FF52C08E8190E8909310
:1013B000D0028093AA0041CF2A8110924B039981D9
:1013C00091110AC010924C032BE433E082E0309379
:1013D000D2022093D102B9CF953029F420936A0329
:1013E0002BE433E0F4CF9630C1F49B81913049F483
:1013F000CE010E94140590E49093D0028F3F91F2A9
:10140000A4CF9230A9F3933099F3913289F39232B9
:1014100079F390E49093D00298CF983089F0993086
:1014200019F42093CB02DCCF9A3071F09B30C1F6D7
:101430009BE490934E039093830390935A03D0CFF1
:101440002BEC32E081E0C3CF2BE433E0FBCF8FEF16
:10145000ADCF8091D00287FFF0CE8091CD029091E8
:10146000CE02892B71F08091CF02813051F48881B6
:101470008093CC021092CE021092CD021092AA005C
:10148000DCCE8EE18093AB00D8CEDC012C2FE3E4E0
:10149000F3E03D9131932150E1F7FACE1F93CF93C2
:1014A000DF93E82F792F162FEA01888184FF1CC073
:1014B000298188E828272983CE010296DC012E2F76
:1014C000372F512F5E0FF90121912D939F01452F49
:1014D0004E1B1416C4F3612F0E94B6031C5F1883C1
:1014E000DF91CF911F9108958AE58883E5CFCF934F
:1014F000DF93C3EDD2E08091590384FF18C049E522
:1015000053E068E0CE010E944E0A289682E0C33F75
:10151000D80789F78091590384FF0CC049E553E04F
:1015200060E090E080E0DF91CF910C944E0A0E9441
:101530000409E1CF0E940409EDCFCF93DF9300D0DF
:101540000F92CDB7DEB79091C002981307C02091DB
:10155000BE023091BF0226173707A1F08093C00268
:101560007093BF026093BE0289837B836A838091FC
:10157000820384FF07C042E853E063E0CE01019696
:101580000E944E0A0F900F900F90DF91CF91089517
:10159000BC0184E00C949D0ABC0183E00C949D0A7C
:1015A000CF93DF93CAE0D0E080914D0384FF1CC04D
:1015B0008091BC029091BD02981799F028E0829F1B
:1015C000C00111244DE453E068E0845C9D4F0E940B
:1015D0004E0A8091BC0290E001968F70992780930B
:1015E000BC02DF91CF9108950E94040987EB9BE034
:1015F0000197F1F700C000002197B1F6F2CFCF9329
:10160000DF93EC01A091BD02B0E0CD0101968F7097
:1016100099272091BC02281779F093E0AA0FBB1FED
:101620009A95E1F7A45CBD4F98E0FE0101900D9200
:101630009A95E1F78093BD020E9404090E94D00AA6
:1016400088E0FE01A3ECB2E001900D928A95E1F7EB
:10165000DF91CF910895CF93C82F882309F488C0D4
:101660008238C1F40E943E0781FD82C089E30E9456
:10167000ED050E94B3052FE789EA93E021508040F1
:101680009040E1F700C0000089E30E94E005CF919F
:101690000C94B3058338A1F40E943E0780FD68C016
:1016A00083E50E94ED050E94B3052FE789EA93E0E8
:1016B000215080409040E1F700C0000083E5E5CF75
:1016C0008438A1F40E943E0782FD52C087E40E9444
:1016D000ED050E94B3052FE789EA93E02150804091
:1016E0009040E1F700C0000087E4CFCF8CEF8C0F73
:1016F000813A68F4EEE2F1E08191C81799F121E0B6
:10170000E433F207C9F78C2F0E94ED05C0CF80E2C9
:101710008C0F883068F4C77021E030E001C0220FE0
:10172000CA95EAF78091FF01822B8093FF01AFCF2A
:10173000EBE5EC0FE33040F4F0E0EA51FF4F80813D
:1017400090E0CF910C948E06C85AC73188F4EC2FE4
:10175000F0E0EE0FFF1FE751FF4F80819181CF91A5
:101760000C9478068C2F0E94E0050E94B305CBCF25
:10177000CF910895CF93C82F0E942B0BC93349F402
:101780002FEF8DEE92E0215080409040E1F700C0B5
:1017900000008C2FCF910C944A070F931F93CF9387
:1017A000DF93C42FD22FFC0182818823A1F04093C4
:1017B00090010E94A10590938B0180938A01C770CC
:1017C00081E001C0880FCA95EAF7DF91CF911F91A0
:1017D0000F910C946E0610919001141335C08091F6
:1017E0008A0190918B010E949205883C910560F5D9
:1017F000C0E2CD0F1D17B9F080E2810F883040F4B0
:10180000177081E001C0880F1A95EAF70E946306FD
:10181000C83048F481E09D2F977001C0880F9A95D9
:10182000EAF70E946E06802F0E94BA0BC83098F427
:10183000D77081E001C0880FDA95EAF7DF91CF9188
:101840001F910F910C946306C77081E001C0880F4F
:10185000CA95EAF7F3CFDF91CF911F910F910895C9
:101860007F928F929F92AF92BF92CF92DF92EF9230
:10187000FF920F931F93CF93DF9307E111E0A7E04F
:10188000B2E0712CCC24C394D12CE80189918E0153
:10189000E82FE295EF70F0E091A98F70760101C01A
:1018A000EE0C8A95EAF7892F8E2981AB92A97E2DBD
:1018B0007095972392ABD8E7DA95F1F79CE1A92EC2
:1018C00091E0B92E50E040E030E020E0E501699180
:1018D0005E01862E82948FE08822912CE40188A9F3
:1018E00090E06F7002C0959587956A95E2F780FD4C
:1018F00065C0C601042E02C0880F991F0A94E2F742
:10190000282B392B4F5F5F4F40315105F9F681A9E4
:10191000872381AB82A9E82AE2AA8D919C91119735
:101920002817390709F44DC011963C932E9381E096
:10193000782A1296D1E00C311D0709F0A6CF772046
:1019400009F441C081E0809336010E94A105909383
:1019500035018093340180913401909135010E94CA
:1019600092050697A0F1809107029091080290934A
:101970003302809332028091090290910A0290937F
:1019800035028093340280910B0290910C02909367
:1019900037028093360280910D0290910E0290934F
:1019A00039028093380280910F0290911002909337
:1019B0003B0280933A021092360109C090E080E029
:1019C0009FCF80E0B5CF809136018111C4CF872DA4
:1019D000DF91CF911F910F91FF90EF90DF90CF900B
:1019E000BF90AF909F908F907F900895CF93DF939B
:1019F000D82FCAE00E94BA08882379F081EB0E94B0
:101A00009B08882351F086B7806886BF0E9497089C
:101A100083B18093F7020E94B3088091F7028D177B
:101A200061F08BE291E00197F1F700C00000C15036
:101A300009F78C2FDF91CF910895C1E0FACF2BE207
:101A40002093F70221E12093F802E9EFF2E09C01F4
:101A5000215F3F4FDC014D91CD014193A217B307A8
:101A6000C9F78BEA8093F70281E10E94C9088823B5
:101A700019F08BE20C94F60C80E00895CF93DF937D
:101A8000CDB7DEB72F970FB6F894DEBF0FBECDBF30
:101A90008823F1F088E089838A838B8395E09C8397
:101AA0008D838E838F83888789878A878B878C87AE
:101AB0008D878E878F87CE0101960E941F0D2F96EE
:101AC0000FB6F894DEBF0FBECDBFDF91CF91089562
:101AD0008FE0ECEAF0E0DE01119601900D928A951C
:101AE000E1F7E9CF282F220F220F220F9091260233
:101AF0009770922B90932602987F21E009F420E0C2
:101B00009091260220FB90F9909326020C943E0DB2
:101B10001F93CF93DF93182F1470D82FD270C82F34
:101B2000C170412F6D2F8C2F0E94F20887EB9BE034
:101B30000197F1F700C00000412F6D2F8C2FDF912E
:101B4000CF911F910C94F208CF9384E090E00E9413
:101B50002325C82F81E290E00E942325982F8C2F07
:101B6000CF9108950F931F93CF93DF9320E2629F4D
:101B7000E001112450E0440F551FC40FD51F30EA77
:101B8000839FC00DD11D1124CE0186960E9423256E
:101B9000082F10E0102F0027CE0187960E942325E2
:101BA0009801282BC901DF91CF911F910F910895C2
:101BB000462F843038F4753028F4603118F4672FDC
:101BC0000C94B20D90E080E00895CF93DF930E94D3
:101BD000D80DEC0182389105A9F1D8F58133910532
:101BE00009F496C048F58932910509F48AC08A97AC
:101BF00009F495C0C11522E5D20708F0B6C0C11599
:101C000031E5D30708F026C1C83ED10508F09CC0D5
:101C1000C03ED10560F5C83AD10508F087C0C53A85
:101C2000D10508F0EFC0C130D10509F12097F9F0D6
:101C3000C430D105E0F440C08533910509F45AC0A1
:101C4000C997C1F680911102837089F0C0EED0E08F
:101C50000EC0833E910599F170F4803E910501F12B
:101C6000823E910539F68091110282FD21C0CE019C
:101C7000DF91CF910895863E910561F1873E9105F0
:101C800071F1843E910509F0B5CF8091120281FF78
:101C9000EECF80911102C7EED0E084FD0DC0E7CFFA
:101CA0008091110280FD07C19091120290FFDFCF59
:101CB000C3EED0E084FFDBCFD0E0C0E0D8CF80918E
:101CC000110282FDFBC09091120290FDBFCF84FFF4
:101CD000CECFF2CF8091110283FDDDCFC8CF8091AE
:101CE000110283FDEEC09091120291FFF0CFC4EE7D
:101CF000D0E0BDCF8091110285FFB9CFC9E2D0E01D
:101D0000B6CF8091110285FFB2CFC5E3D0E0AFCF4F
:101D10008091110286FFABCFCAE2D0E0A8CF8091BC
:101D2000110286FFA4CFC1E3D0E0A1CFCF3BD10504
:101D300018F6C85AD0E0CC0FDD1FC751DF4F09900D
:101D4000D881C02DD46493CFC11540E5D40708F0E5
:101D500064C0C11580E4D80708F05CC0CE019A9534
:101D600081159F4108F483CFA7CFC11536E5D3076E
:101D700018F5C11545E5D40708F084C0C11584E500
:101D8000D80708F07AC09C2F969596959E012370EF
:101D90003327C115D34508F462C0C1E0D0E002C0CA
:101DA000CC0FDD1F2A95E2F730E2939FC00111248A
:101DB000C82BD92BDA685BCFC1158AE5D80778F430
:101DC000C11599E5D90708F068C0C11528E5D20703
:101DD00008F472CFDC2FCC27C06FD06A48CFCE0179
:101DE00090568115904208F067CF8D2F8F710E9419
:101DF000540890E0982F882788279F719C012C2BEE
:101E0000E90149C0C55AD0E0CA51DF4FC881D0E0CE
:101E1000D0642DCFDF70D06A2ACFCE01E4E0969552
:101E20008795EA95E1F783702C2F269526952370E8
:101E300040E2249F90011124382B8C2F8370C1E045
:101E4000D0E002C0CC0FDD1F8A95E2F7C22BD32B66
:101E5000DC680DCFDC2FCC27C16FD06A08CFC1E082
:101E6000D0E002C0CC0FDD1F2A95E2F720E2929F5E
:101E7000C0011124C82BD92BEBCFDC2FCC27C46F8A
:101E8000D06AF5CE8C2F0E945408C82FD0E0DC2FEA
:101E9000CC27CC27DF71D062EACE8C2F8F700E94C6
:101EA000540834E0D695C7953A95E1F7CF709C2F4A
:101EB000EC01D069DCCEC9E3D0E0D9CEC2EED0E0EF
:101EC000D6CEC6EED0E0D3CEBF92CF92DF92EF92C5
:101ED000FF920F931F93CF93DF938C01C090F30277
:101EE000D090F402E090F502F090F60280910102A9
:101EF00090910202A0910302B0910402C82AD92A4B
:101F0000EA2AFB2ACFE1D0E0BC2ED701C6010C2E75
:101F100004C0B695A795979587950A94D2F780FD4A
:101F20000EC0219788F7B12C8B2DDF91CF911F9197
:101F30000F91FF90EF90DF90CF90BF900895B80180
:101F40008C2F0E94E50D019761F3EECFCF93DF93C5
:101F5000EC010E94640FBE01DF91CF910C94E50D5E
:101F60000E94A60F292F2F7092959F7092509E303D
:101F700078F4E92FF0E0E452FA4D0C949E24803F6F
:101F800019F020F4883E20F481E00895843FE1F3C5
:101F900080E00895883EC0F3813FD1F7F5CF822FCE
:101FA00086958695869508956F927F928F929F92DF
:101FB000AF92BF92CF92DF92EF92FF920F931F9357
:101FC000CF93DF9389E5C82E82E0D82E06EE10E08D
:101FD000E801C05AD10936011CC0F50185909490E2
:101FE000692DC7010E943725682DC70101960E94FF
:101FF000372582E0A80EB11C82E0E80EF11CCE1558
:10200000DF0559F780E2680E711CA0960C171D07BA
:1020100031F07E0180E2E81AF1085301DECF00566C
:102020001F4F80EAC80ED11C063683E0180781F6E0
:10203000DF91CF911F910F91FF90EF90DF90CF90A4
:10204000BF90AF909F908F907F906F900895682F72
:1020500086E090E00C943725CF93DF93C6EAD2E078
:1020600060E0CE010E9437252196C11584E0D80793
:10207000B9F7DF91CF910895CF93C82F6FEF8111FA
:1020800061E282E290E00E9437256FEFC11162E0C9
:1020900083E290E00E9437256FEFC11168E084E28F
:1020A00090E0CF910C9437258091290280FD10C0DB
:1020B00084E18093F70286E08093F8021092F9029F
:1020C0001092FA021092FB021092FC020C94C908C2
:1020D00087E18093F70280E48093F8028AE080939E
:1020E000F9021092FA028EE1EAE3F1E0ABEFB2E01E
:1020F00001900D928A95E1F780E4E8CF8F929F924C
:10210000AF92BF92CF92DF92EF92FF920F931F9305
:10211000CF93DF93FC01B280948081E08483C8E593
:10212000D1E00AE311E08BE4A82E88248394EE2406
:10213000EA94F12C2BE4C22ED12C91101DC01B82ED
:102140001A8298014A81698188810E94BB0725967D
:102150000D5F1F4F81E0CA38D80779F7DF91CF9123
:102160001F910F91FF90EF90DF90CF90BF90AF90B5
:102170009F908F900C9454102B81222309F12150B1
:102180002B833C818A2D821B311101C0822F9091BB
:102190002C02899FC0011124B6010E9476246A8313
:1021A000211104C0332311F01C82AB8222E02B15D5
:1021B00040F280912A02888380912B028983C1CFCB
:1021C0000E940625823091400CF0BBCF82E08B1537
:1021D000C0F40E940625B7010E948A24888322E069
:1021E0002B1590F40E94062520912B022695622F34
:1021F00070E00E948A24280F29831A82AB828C8285
:10220000A0CF80912A02EACF20912B02F5CFEF9246
:10221000FF921F93CF93DF93EC018AE3E82E81E0D6
:10222000F82E10E08C81970140912C0260912B02D6
:10223000810F0E94BB07175E83E0E80EF11C1A3F76
:1022400089F70E9454109A818C8190FF08C08F5F9B
:102250008C83DF91CF911F91FF90EF900895815073
:10226000F7CFAF92BF92CF92DF92EF92FF920F9390
:102270001F93CF93DF93FC018281DFEF80FFD1E0DA
:102280000AE311E0F12CE12C2AE0A22EF8011182E0
:102290001082128294E0C92ED12CB12CC09137014A
:1022A0008C2F8B0D8B300CF440C06A2D0E9468245B
:1022B000892F082E000C990B8E159F0591F48091A3
:1022C0002C028C9DA0018D9D500D11245595479594
:1022D00055954795980160912B0280912A020E94A2
:1022E000BB07BD0EF1E0CF1AD108C1F68FEFE81A97
:1022F000F80A0D5F1F4FEAE0EE16F10439F60E946E
:102300005410D130B1F489E0CC2311F08FEF8C0F51
:1023100080933701DF91CF911F910F91FF90EF9044
:10232000DF90CF90BF90AF90089587FFC2CF865FB8
:10233000C0CF8C2F90E00196B7010E948A24E8CF8D
:10234000EF92FF920F931F93CF93DF93CAE3D1E0F5
:10235000FE01118210821282339681E0E835F8077F
:10236000C1F7F12CE12C1091380100917000812F00
:10237000012E000C990BE816F90684F1802F002E2F
:10238000000C990B8E159F054CF19E0140912C027B
:1023900060912B0280912A020E94BB078FEFE81AFE
:1023A000F80A23968AE0E816F104E9F60E94541030
:1023B00080916F00180F10933801080F0093700080
:1023C000101614F419301CF0819580936F00DF9182
:1023D000CF911F910F91FF90EF900895198218826D
:1023E0001A82DCCF8F929F92AF92BF92CF92DF92F0
:1023F000EF92FF920F931F93CF93DF93EC014C81E9
:10240000042F10E09801D8010E94CB259B01AC015C
:102410000E9496254B015C01E0E2F0E0E01BF10B2D
:10242000A5E5B0E0AC019B010E9496256B017C0103
:102430009F01DF010E94AB249B01AC010E94A125FA
:102440009B01AC01280D391D4A1D5B1DC701B6015A
:102450000E94A925F22E822F90E039E23F15D8F193
:1024600043E0249F9001112435952795122F109554
:102470009AE3C92E91E0D92E00E085E5E82EEF1809
:102480008E2D01FD8F2D9601412F60912B020E9410
:10249000BB070F5F53E0C50ED11C0A3089F70E94BD
:1024A00054109C8181E0992319F0903219F48FEF38
:1024B0008093710080917100890F8C83DF91CF919F
:1024C0001F910F91FF90EF90DF90CF90BF90AF9052
:1024D0009F908F90089525E530E0A901481B590B86
:1024E000CA019A01220F331F280F391F37FFBCCFB3
:1024F0002F5F3F4FB9CFEF92FF920F931F93CF9370
:10250000DF938C01CAE3D1E0F12CE12CF801948136
:1025100060912B0280912A02F5E0EF16F104FCF4A1
:102520009923F9F09E0140912C020E94BB072FEFE6
:10253000E21AF20A23968AE0E816F10439F70E94BB
:102540005410F801848190E001968170992784836A
:10255000DF91CF911F910F91FF90EF9008959923F4
:1025600009F39E0140E0E1CF9091290290FF0CC059
:10257000EAE3F1E0818360834283339691E0E835BA
:10258000F907C1F70C94541008950F931F93CF933C
:10259000DF9300D00F92CDB7DEB78C018091390167
:1025A00081110AC09E012F5F3F4F48EC6FEF0E94E0
:1025B000BB078A8180933901F8016481613069F039
:1025C0008091390140E0662361F040E0623011F40F
:1025D0004091390180E060E004C06091390140E041
:1025E00080E00E94B412F801848190E0019663E0DB
:1025F00070E00E948A2484830F900F900F90DF91E7
:10260000CF911F910F910895CF93DF9300D00F9238
:10261000CDB7DEB79091290290FF0AC09E012F5FCF
:102620003F4F0E94BB074B8169818A810E94B4128F
:102630000F900F900F90DF91CF910895CF93DF937C
:10264000EC01EC81F0E0E75AFE4F4491E9E2F2E060
:10265000628181810E9404138C818F5F8C83DF9162
:10266000CF910895CF93DF93EC01E9E2F2E043814B
:1026700062818C810E9404138C818F5F8C83DF9137
:10268000CF91089560E081E090E00E945A2587E0B4
:1026900090EBDC0180938E0390938F03A0939003C3
:1026A000B093910388E19CE00FB6F894A89581BDA2
:1026B0000FBE91BDFFCF90E080E00E94312521E068
:1026C0008C3E9E4F09F020E0822F08956CEE7EEF45
:1026D00090E080E00E94542560E082E090E00E945B
:1026E000372560E083E090E00E94372510920102D8
:1026F00010920202109203021092040260E084E041
:1027000090E00E94372560E081E290E00E9437254A
:1027100060E085E090E00E94372560E086E090E090
:102720000E9437256FEF87E090E00E94372540E058
:1027300050E0BA0188E090E00E94482560E08DE01A
:1027400090E00E94372540E050E0BA0188E190E037
:102750000E94482560E087E190E00E94372540E034
:1027600050E0BA018CE190E00E94482560E080E2F0
:1027700090E00E94372540E050E0BA018FE090E001
:102780000E94482540E050E0BA0183E190E00C94BB
:102790004825CF92DF92EF92FF926B017C010E945D
:1027A000A507B701A60188E090E0FF90EF90DF90C9
:1027B000CF900C9448255F926F927F928F929F9258
:1027C000AF92BF92CF92DF92EF92FF920F931F933F
:1027D000CF93DF9300D00F92CDB7DEB7182F762EB0
:1027E000042F622E9091290290FF29C0E92FE695CF
:1027F000AE2FB0E0A554BF4F8C91809327029E7FEF
:10280000923081F59E012F5F3F4F812F0E94BB07C1
:102810004B8169818A810E94B41210932A027092BE
:102820002B0200932C02662051F0609129027091D6
:102830002A0280912B0290912C020E94C9130F90C2
:102840000F900F90DF91CF911F910F91FF90EF901C
:10285000DF90CF90BF90AF909F908F907F906F90C0
:102860005F900895823019F400912C02D6CF863003
:1028700019F410912A02D1CF8930D9F3893169F640
:10288000E9518E2F8170582EE695F0E0EC5AFE4FFC
:10289000A590B490BB248AE3E82E81E0F82ED12CD9
:1028A000C12C9AE0892E912CC601B4010E94762495
:1028B000812F511013C0860F9701402F672D0E9462
:1028C000BB07CA0CDB1C83E0E80EF11C88E5E816A8
:1028D00081E0F80649F70E9454109FCF861BECCF89
:1028E000E9E2F2E0438121E1421B08F440E021E00B
:1028F000628181810C94DB13E9E2F2E0438121E102
:10290000420F08F44FEF21E0628181810C94DB13C8
:10291000E9E2F2E0628121E1621B08F460E021E07B
:10292000438181810C94DB13E9E2F2E0628121E1D1
:10293000620F08F46FEF21E0438181810C94DB1377
:10294000E9E2F2E0818121E0438162818A500C94C6
:10295000DB13E9E2F2E0818121E043816281865F5D
:102960000C94DB1380912D02882319F08150809301
:102970002D026091290270912A0280912B02909180
:102980002C020C94C91380912D02833018F48F5FB0
:1029900080932D026091290270912A0280912B026E
:1029A00090912C020C94C913E9E2F2E083E0808359
:1029B00011828FEF828388EC83831482608171811E
:1029C000828193810C94C9131092FF01EEE2F1E031
:1029D00086E0DF011D928A95E9F70C94A406909198
:1029E000290290FF3DC09170811129C0926090939F
:1029F0002902662351F06091290270912A02809188
:102A00002B0290912C020E94C913609129026695B5
:102A100070E04BE050E084E690E00E941625892BA0
:102A2000A9F01092280281E08093170220E04091E3
:102A30002C0260912B0280912A020C94DB138B32C2
:102A400010F09465D4CF880F982BD1CF81E080937C
:102A500028020E94A1059093150280931402E3CFEF
:102A60000895809129028695815009F48AE261E0F7
:102A70000C94EF148091290286958F5F8B3208F0B9
:102A800081E061E00C94EF149091290290FF07C05F
:102A90009695981720F0961710F40C943A1561E06B
:102AA0000C94EF144F925F926F927F928F929F924D
:102AB000AF92BF92CF92DF92EF92FF920F931F934C
:102AC000CF93DF9300D000D00F92CDB7DEB77C015B
:102AD000FC0183819481892B31F08081918189234C
:102AE0008F3F09F067C60F900F900F900F900F90D7
:102AF000DF91CF911F910F91FF90EF90DF90CF90DA
:102B0000BF90AF909F908F907F906F905F904F900D
:102B100008950E94640F182F682F89819A810E945E
:102B20002D0669817A81812F0E94D80D8C01F701D1
:102B30009281992309F417C6980122513F4520310B
:102B4000310508F095C58FEF93E00E9423250251CF
:102B500056EA852E52E0952E882379F18091FC016A
:102B6000877009F4C0CFF7018281882309F4BBCFB5
:102B700082E00F900F900F900F900F90DF91CF9108
:102B80001F910F91FF90EF90DF90CF90BF90AF908B
:102B90009F908F907F906F905F904F900C94FB066A
:102BA0008114F4E09F06D1F2C4010E942325811113
:102BB00001C001502FEF821A920A0111F1CF1C823D
:102BC0001B82662463944AE0542E84010F5F1F4FDA
:102BD000C4010E94232589831A82882309F4BECF69
:102BE0009FEF980F933008F58A83698232E0830E55
:102BF000911CC8010E9423258B83882309F4AECF42
:102C00008E010F5F1F4FF80120812223F1F2213046
:102C100009F043C091818281913049F40E5F1F4FCA
:102C20000E94BA0B0F5F1F4FEECF4801E9CF9230E1
:102C300029F40E5F1F4F0E942B0BF4CF933029F421
:102C40000E5F1F4F0E944A07EDCF943019F00F5FBF
:102C50001F4FE8CF0E5F1F4F30E020E0B8016F5FDD
:102C60007F4FF80141818053990B8A30910550F0D4
:102C700021503109B8F287EB9BE00197F1F700C0D2
:102C80000000F6CF529EF001539EF00D11249C01DE
:102C90002E0F3F1F842F8B01E1CFE22FF0E0E75092
:102CA000FB4F7490822F86958695869590E0FC0167
:102CB000E751FB4FA4902770B12C022E02C0B594AF
:102CC000A7940A94E2F7E1E0AE22BB24FC01E752AC
:102CD000FB4FC490D12C02C0D594C7942A95E2F73B
:102CE000F1E0CF22DD24A114B10419F081EE0E949D
:102CF0002B0BC114D10419F086EE0E942B0B872DEB
:102D00000E94BA0BCD2819F086EE0E944A07AB2824
:102D100009F488CF81EE96CF81E00E9413070E94CC
:102D2000BC061CCF81E00E94D806F9CF82E0F5CF27
:102D300082E0F9CF0F3BFCE51F0709F442C098F190
:102D4000003C3CE5130709F0AFC490912602892F9F
:102D50008695869586958F5F8F719770823008F083
:102D600051C0880F880F880F892B8093260280918D
:102D7000260210C081E00E94720D809126020E94FE
:102D80002710ECCE80912602982F987FA9F18850C9
:102D900080932602887F91E009F490E080912602DA
:102DA00090FB80F90BC080912602982F987F19F430
:102DB000885F80932602809126028160809326029C
:102DC00019C08091260280FF09C08E7F8093260261
:102DD0000E94271080E00E943E0DC0CE80FDBECE36
:102DE000816080932602813019F489E08093260265
:102DF000809126020E942710809126028695869552
:102E00008695E9CF90932602B2CF07E225EE45EEF4
:102E100068ED7CE5CBC406E221EE40EE63EF7CE595
:102E2000C5C407E225EE44EE64EF7CE5BFC406E2CC
:102E300021EE42EE65EF7CE5B9C408E221E045EE03
:102E400069ED7CE5B3C480911102806106303CE5F8
:102E5000130709F47FC008F484C0809111028062D6
:102E600079C0809111028D7F0C309CE5190709F41F
:102E700071C070F4809111028C600A30FCE51F076C
:102E800009F468C008F479C0809111028E7F62C095
:102E900080911102877F0E303CE5130709F45AC078
:102EA00008F471C0809111028F7E54C00B3F9CE5E5
:102EB000190709F45AC030F50331FCE51F0709F47E
:102EC00072C078F401313CE5130709F468C002319F
:102ED0001C4509F038C40E94E414809111028F77D8
:102EE00039C005319CE5190709F465C008F479C0BB
:102EF0008091120281600A3F1C4509F024C480932E
:102F0000120221C40F3F2CE5120709F450C070F4DF
:102F10000D3F8CE51807D9F1809112028E7F0E3F8C
:102F20001C4568F3809112028360E9CF0130EDE522
:102F30001E0709F45FC008F44AC060E002301D4576
:102F400009F001C48EE090E00E943725FCC3809117
:102F50001102816080931102F6C380911102846096
:102F6000F9CF809111028860F5CF809112028260C2
:102F7000C6CF809111028064EDCF0E94E41480914D
:102F800011028068E7CF809111028B7FE3CF80919F
:102F900012028D7FB4CF809111028F7DDBCF8091A3
:102FA00011028F7BD7CF80911102837FD3CF809185
:102FB00012028C7FA4CF8091110282FB992790F995
:102FC00021E0922790FB82F990FB83F9C3CF809197
:102FD0001202982F909591708E7F892B90FB81F92A
:102FE0008ECF0E94E41490911102892F97FB87F9EC
:102FF0008058B0CF61E0A6CF8091FF0106313CE55B
:10300000130709F0E8C38A7A91E009F490E09093FD
:103010009101811106C089E20E94ED050E94B3056D
:103020009DCD85E3F9CF85E3F6C38091290280FF2A
:103030001BC08E7F809329026091290270912A0221
:1030400080912B0290912C020E94C91310922802A9
:103050008FEB94EDE1E081509040E040E1F700C05B
:1030600000000E9454107ACD81608093290261E0B3
:1030700086950E94EF1472CD41E355E16AE375E154
:103080000E94A0076BCD4AE355E161E375E1F8CFFB
:1030900040EA54E169EA74E1F3CF49EA54E160EAB5
:1030A00074E1EECF48E854E164E974E1E9CF44E922
:1030B00054E168E874E1E4CF40E754E16CE774E17F
:1030C000DFCF4CE754E160E774E1DACF42EB54E143
:1030D00063EC74E1D5CF43EC54E162EB74E1D0CF03
:1030E00061E081E0C6CF65E082E00E94441536CD04
:1030F00068E086E0FACF6EE089E0F7CF64E18FE028
:10310000F4CF67E185E1F1CF61E088E1B2CF62E21F
:1031100089E1EBCF61E083E2ACCF0115FCE51F074D
:1031200009F447C00E3D1C4509F450C0F701008169
:103130001181992309F44DC0C8010E94640FD82E53
:10314000682FC8010E942D06B8018D2D0E94E50D43
:103150008C01882EF701A580A2943FE0A322D280A3
:10316000D1101092FE018091FC01877099F0DD2052
:1031700089F0812F807F803421F080E2800F8830B9
:1031800048F082E00E94FB068091FC018770CC240D
:10319000C3948111C12CB12EB2942FE0B222FBE076
:1031A000FB1508F450C0EB2DF0E0E651FA4D0C94FD
:1031B0009E240E94E4143FEB87E299E03150804066
:1031C0009040E1F700C000000E9442130E94661385
:1031D000C5CCC8010E940606D82EB6CF212F2F706D
:1031E000A22E107F19F0A29490EFA922DD20C9F041
:1031F000AA2069F080E2800F883010F081100BC0A7
:103200008091FF01A82AA092FF010E94B305802FA0
:103210000E942B0B18C08091FE01A82AA092FE01EB
:10322000F4CF802F0E944A07AA2069F0A094005E84
:10323000083010F081103DC08091FF01A822A092BB
:10324000FF010E94B305EB2DE850FF0B349720F4EB
:103250000E943E070E94880DCC2009F444CC809146
:10326000FC0180FD40CCF7011282859585958595FE
:103270000E941307C7010E9452158091FC01859599
:10328000859585950F900F900F900F900F90DF917F
:10329000CF911F910F91FF90EF90DF90CF90BF9053
:1032A000AF909F908F907F906F905F904F900C9415
:1032B000D8068091FE01A822A092FE01C2CF312F34
:1032C0003F70932E107F103219F0929480EF982265
:1032D000882071F081E0881661F1DD20B9F1AA2023
:1032E00071F1F701858180FF92CF8F70858327C0B0
:1032F000DD2091F090910002892D892BA11003C04F
:103300000E946E06A0CFE1E0AE12FACF981709F442
:103310009ACF8093000297CFA11006C00E94AD05FE
:10332000892D0E9463068FCFF1E0AF1609F48BCF91
:10333000F5CFDD2031F025E02A1508F484CF892D62
:10334000DFCF34E03A1508F47ECFEACFAA2041F36C
:10335000F9E38F1286C12FEF3DEE82E0215030401D
:103360008040E1F700C000007CC1812F86958695E2
:10337000837061F0813009F066CFC8019370D1107D
:1033800002C090E080E00E9478065DCFC801937093
:10339000D11002C090E080E00E948E0654CF812FB1
:1033A000837009F066C0D1104ECF802F829586952C
:1033B0008770880F880F602F6F70462E512C712CEC
:1033C000612C082E04C0440C551C661C771C0A9402
:1033D000D2F740E050E0BA0104FF0FC04FE050E0E8
:1033E00060E070E004C0440F551F661F771F8A9588
:1033F000D2F74095509560957095812F869586956A
:103400008370823019F1D8F4009101021091020208
:103410002091030230910402813069F0442955293A
:1034200066297729CB01BA01602371238223932374
:103430000E94340708CF402A512A622A732ACB01FE
:10344000BA016429752986299729F2CF442955297B
:10345000662977290091010210910202209103024E
:1034600030910402CB01BA0160277127822793278C
:10347000DFCF8695DD2011F0812F8170882309F43C
:10348000E2CE802F829586958770880F880F602FF7
:103490006F70462E512C712C612C082E04C0440CE8
:1034A000551C661C771C0A94D2F740E050E0BA0124
:1034B00004FF0FC04FE050E060E070E004C0440F34
:1034C000551F661F771F8A95D2F7409550956095D6
:1034D0007095812F869586958370823019F1D8F486
:1034E0000091F3021091F4022091F5023091F6025E
:1034F000813069F04429552966297729CB01BA0121
:1035000060237123822393230E94B2069CCE402A1B
:10351000512A622A732ACB01BA01642975298629A6
:103520009729F2CF44295529662977290091F3027A
:103530001091F4022091F5023091F602CB01BA010C
:103540006027712782279327DFCF1F70DD2029F0A6
:10355000812F0E941307802FD3CE802F0E946306F5
:10356000812F0E94D8066FCE802F92EF891609F422
:1035700050C0981578F0E0EF8E1619F1F1EF8F1624
:1035800009F43FC0DD2009F467C0A11040CE812FAF
:103590008F713CC023EF821609F440C034EF8312D0
:1035A000F1CFDD2009F44DC01F71812F0E94130758
:1035B000E8E01E9FC001112483608093FC01812FED
:1035C00025C0DD20C9F084E08A1508F43CCE1F71C7
:1035D00061E070E080E090E004C0660F771F881F14
:1035E000991F1A95D2F70091F3021091F4022091DD
:1035F000F5023091F602A4CF95E09A1508F423CE97
:10360000E6CF812F8F71DD2009F4ABCF0E94130725
:103610001ACE812F8F71DD20C9F3A3CF60E070E057
:10362000CB01DD2009F470CF1F7161E070E080E014
:1036300090E004C0660F771F881F991F1A95D2F774
:1036400063CF81E00E94FB06F1E0FA1508F0FBCDA4
:1036500082E00E94FB06F7CDAA2039F0893309F4F5
:103660007ACE802F0E944A07EECD812F8F7179CFBD
:103670000031FFE51F0709F44FCB01312FE5120799
:1036800009F454CB0D3B2CE5120709F47BCB08F071
:1036900051CB0B3B8CE5180709F46CCB80E00C3B5D
:1036A000ECE51E0709F467CB033FECE51E0709F4C0
:1036B000B2CB08F0B3C0083D2CE5120709F4A5CB46
:1036C000093D3CE5130709F4B8CB073D8CE5180725
:1036D00009F467C01092900102308CE5180708F4D5
:1036E0008BCC0631ECE51E0738F098012A5F3C458B
:1036F0002930310508F080CC0E94A40D909312026D
:10370000809311020031FCE51F0709F444CC08F056
:10371000CDCB08303CE5130709F42BCC08F0A1CB46
:1037200004309CE5190709F418CC08F08CCB023062
:10373000FCE51F0709F40BCC809111028260033075
:103740001C4509F407CC609111021091120284E02B
:1037500090E00E943725612F81E290E00E9437259A
:103760000E94E414FBC900313FE5130709F4DACAEB
:1037700001318FE5180709F4DBCA033F2CE5120776
:1037800009F449CBA0F5083D8CE5180709F43DCBB9
:10379000093DECE51E0709F450CB073DFCE51F078A
:1037A00089F506E221EE41EE67ED7CE5C7010E9456
:1037B000CD0BD4C985E0DE01119601900D928A955A
:1037C000E1F7F701228189819A812111A2C90E9422
:1037D0000606182FA6C98272F801E25CFC45E431A6
:1037E000F10508F09ACCEA50FA4D0C949E24053F5E
:1037F0002CE5120709F41BCB08F413CB063F8CE52C
:103800001807C1F006311C4509F090CC8091910158
:10381000811109CC89E20E94E00500CC053FECE56E
:103820001E0709F404CB08F4FCCA063F2CE5120776
:1038300009F050CF07E225EE46EE66EF7CE5B6CF05
:103840001F93CF93DF9380919701807FA9F480919C
:103850009401882389F08091C901D09198016091E9
:10386000920170919301A0919501B0919601C62F9C
:10387000C72316E0D81304C0DF91CF911F9108959C
:1038800090E0109711F0CF3F19F401968770F2CFB6
:10389000189F9001199F300D1124F901E756FE4F32
:1038A00041814713F2CF40814613EFCF428141114E
:1038B000ECCF438154814A1B5B0B483C510528F7F0
:1038C000809197018F70806180939701F901E25692
:1038D000FE4F80818F708061808382E991E00E9439
:1038E0005215DF91CF911F910C945906AF92BF9260
:1038F000CF92DF92EF92FF920F931F93CF93DF93BC
:10390000CDB7DEB761970FB6F894DEBF0FBECDBF5F
:103910008C0185E0F801DE011D9601900D928A95DB
:10392000E1F7F80180819181E28022E9A22E21E075
:10393000B22E60919501709196016115710509F49F
:103940003EC13091920140919301232F24232F3FB8
:1039500009F435C1C380D480F0909401F601E61BD0
:10396000F70BFF2009F4FBC020919701522F507FE5
:10397000E83CF10508F0BBC0511178C0FE2C49139A
:1039800021C038131FC0E1101DC02F70206120938B
:103990009701C5010E94521580919701F801858316
:1039A0008F2D61960FB6F894DEBF0FBECDBFDF91AD
:1039B000CF911F910F91FF90EF90DF90CF90BF902C
:1039C000AF900895CD2829F0282F29232F3F09F003
:1039D00014C120E0F22FF170DF2E20FF3DC02091B6
:1039E000C9014091980156E0241315C08D879E8728
:1039F0008D859E850E94A60F292F22952F7022303B
:103A0000F8F0243020F59F70F9F0F8019581907F4F
:103A1000D9F4D12C1FC030E0529FF001539FF00D1C
:103A20001124E756FE4F6181961306C0608186130C
:103A300003C06281E61210C02F5F3F4F2770D4CFC2
:103A40009F7011F0882329F3805E883010F3C8013D
:103A50000E945215FD2CA4CFEE2009F4A1CF809135
:103A60009701816080939701F12C9ACF491312C07E
:103A7000381310C0E1100EC0F8012583C8010E9460
:103A8000521586E0F801A2E9B1E001900D928A9505
:103A9000E1F786CF8D879E878D859E850E94B00F2A
:103AA000882309F1EE20F9F080919701803270F0BF
:103AB000209192013091930138872F831986DB86FC
:103AC000CA868C87CE0107960E94521586E0F801BF
:103AD000A2E9B1E001900D928A95E1F70E94201CC5
:103AE000FF24F3945DCFC8010E945215F9CF511104
:103AF0000AC082E991E00E94521586E0F501119218
:103B00008A95E9F7B1CF49130FC038130DC0E11002
:103B10000BC0F8012583C8010E94521586E0F5010B
:103B200011928A95E9F73CCF8D879E878D859E857A
:103B30000E94B00F8823B9F2EE20A9F2809197017C
:103B4000803220F220919201309193013A832983AF
:103B50001B82DD82CC828E83CE010196B5CFE83CFC
:103B6000F105E0F6FE2CEE2009F4BDCF491316C096
:103B7000381314C08091970180FD83CF982F907FD8
:103B800009F47FCFF8018583903F09F477CF982F10
:103B9000907F905F8F70892B858370CF8D879E87F4
:103BA0008D859E850E94B00F811190CF80919701E5
:103BB000816080939701C8010E945215F1CEEE20DA
:103BC00009F491CF8D879E878D859E850E94B00FC9
:103BD000F82E882309F487CF86E0F801A2E9B1E046
:103BE00001900D928A95E1F7809192019091930155
:103BF0000E94A60F0E94201CD3CE21E02E25EACEE3
:103C00001F93CF93DF93CDB7DEB767970FB6F894C6
:103C1000DEBF0FBECDBF4B8B5C8B6D8B7E8B8F8BD6
:103C20001A8A198A85E0FE017396DE011D960190BD
:103C30000D928A95E1F786E0FE013D96DE0117962A
:103C400001900D928A95E1F7CE0107960E94761CAD
:103C5000882389F016E08091C90190919801891319
:103C600049C067960FB6F894DEBF0FBECDBFDF9197
:103C7000CF911F91089586E0FE013796DE011196DF
:103C800001900D928A95E1F78A859B85892B11F326
:103C90008F81988589238F3FE9F22091980130E048
:103CA000C9010196877099274091C90148171906E3
:103CB00071F40E94E414109298011092C90186E0F8
:103CC000E2E9F1E0DF011D928A95E9F7C3CF96E0C2
:103CD000929FD001939FB00D1124A756BE4FFE01B5
:103CE000319601900D929A95E1F7809398010E9488
:103CF0005906B0CF819FC001112487569E4F0E9464
:103D0000761C882309F4ADCF8091C90190E001961B
:103D1000877099278093C9019ECFCDB7DEB72A97C8
:103D20000FB6F894DEBF0FBECDBF0E94A1057C0187
:103D300084B7806884BF84B7806884BF8FEF8BBBF3
:103D40001ABA88BB17BA85BB14BA81EF82BB83E06D
:103D500081BB87E080B986B7846086BF86B7806400
:103D600086BF82E790E0909306028093050285B7B4
:103D7000886085BF8BB780688BBF8BE480934E03D0
:103D80008093830380935A038AE580934D03809345
:103D90008203809359038B9A80E0815009F088C098
:103DA0008B987894FFEB24ED31E0F15020403040C7
:103DB000E1F700C000008BE083BF8BEB8CBF82E09B
:103DC00089BFA7E1B1E041E050E08D91E82FE29595
:103DD000EF70F0E061A98F709A0101C0220F8A95FF
:103DE000EAF7922F9095962391AB82A9822B82AB12
:103DF00081E0AC31B80749F7ACE1B1E041E050E017
:103E00008D91E82FE295EF70F0E061A98F709A0133
:103E100001C0220F8A95EAF7922F9095962391ABD5
:103E200082A9822B82AB91E0AC32B90749F710929C
:103E3000080210920702109233021092320210927E
:103E40000A02109209021092350210923402109266
:103E50000C0210920B02109237021092360210924E
:103E60000E0210920D021092390210923802109236
:103E7000100210920F0210923B0210923A020E941E
:103E8000300CEFE2F5E73197F1F700C000000E9437
:103E9000300C8091320280FF13C080E00E943C1001
:103EA0006FEF7FEF90E080E00E9454250E94421364
:103EB000A895E7EBFBE03197F1F700C000006DCF6C
:103EC0000E945B13811102C00E94661305E110E09D
:103ED000E2E0DE2EF1E8CF2E1BC0FFEB24ED31E057
:103EE000F15020403040E1F700C00000D092F802CD
:103EF000C092F70282E00E94C90881110DC04FEB09
:103F000084ED91E0415080409040E1F700C0000016
:103F10000150110911F785C081E00E94F60CEFEB0A
:103F2000F4ED21E0E150F0402040E1F700C0000056
:103F3000882371F384E18093F70286E08093F8028E
:103F40001092F9021092FA021092FB021092FC02F7
:103F50000E94C90887E99AE30197F1F700C00000C1
:103F600080918F00909190002AE12093F70224E045
:103F70002093F8029093FA028093F90284E00E9461
:103F8000C908E7E9FAE33197F1F700C00000E091D2
:103F90008C0089E18093F70287E08093F8028E2FEE
:103FA000E63008F085E08093F90224E0E29FF0011A
:103FB0001124EE56FF4F84E0AAEFB2E001900D927B
:103FC0008A95E1F787E00E94C90887E99AE301979B
:103FD000F1F700C0000080918C0098E19093F70207
:103FE00093E09093F8028093F90283E00E94C9085D
:103FF000E7E9FAE33197F1F700C0000080918D0006
:1040000090918E001092F70225E02093F80225E1AE
:104010002093F9029093FB028093FA0285E00E94BC
:10402000C90882E290E00E942325813209F006C48B
:1040300083E290E00E942325823009F0FFC384E2EE
:1040400090E00E942325883009F0F8C30E945B139A
:10405000811102C00E94661382E090E00E94232535
:1040600080931B020E94A40D909312028093110270
:1040700083E090E00E942325682F70E090E080E0CC
:104080000E9434070E945B13811102C00E946613D4
:1040900086E090E00E94232580932602803120F064
:1040A000877088608093260290912602892F817004
:1040B00090FF04C0892F8695869586950E943E0DB7
:1040C00080911302811133C00E945B13811104C0DF
:1040D0000E9466130E94D41488E090E00E942B2571
:1040E0006093290270932A0280932B0290932C02F2
:1040F0006E7F71F40E94D41488E090E00E942B251A
:104100006093290270932A0280932B0290932C02D1
:104110000E94A507109228028091290280FF04C006
:1041200060E086950E94EF1481E08093130210E016
:104130007CE7C72E75E0D72E80916803882309F4A9
:10414000BDC0109268030E94A1057C010E94040971
:104150008091CB02882309F494C080914D0384FFA1
:1041600090C00E94300CE2E3F2E0ACE1B2E010E07B
:1041700000E0902E819191914D915D9148175907E2
:1041800009F4BAC04827592720E0AA24A394B12CE7
:10419000BA016A217B21672B09F4A8C029839A827E
:1041A0009C012A213B2191E0232B09F490E09B8381
:1041B0000E94A1058160782F9D838C8349815A815B
:1041C0006B818D810E94001E000F111FF801E45EBB
:1041D000FD4F80819181A826B926B182A08280916D
:1041E0002802882309F441C080912702E091290226
:1041F000E695E81BE0931602823009F094C0F0E0E7
:10420000E657FA4FE4910E2F10E02EE1A22E23E1A3
:10421000B22E80911702882389F0109217020E9413
:10422000A105980120953095820F931F9093150258
:1042300080931402109219021092180280911402B5
:10424000909115020E9492058017910770F0E091FD
:104250001402F09115020E0F1F1F10931502009308
:10426000140284E192E0F50109950E943E079091C5
:104270001A02891731F00E943E0780931A020E94A9
:10428000880D0E94D00A0E9404098091CB028823E5
:1042900009F4DDC08091820384FFD9C08091C102FE
:1042A000803209F0D4C0E091D302E150E33108F04C
:1042B0001BC1F0E0E65FF94D0C949E24C7010E94FB
:1042C0009205069718F4112309F440CF0E94300C90
:1042D000E2E3F2E08CE392E021913191232B09F0AB
:1042E00093C28E179F07C1F711E026CF2F5FAA0C4C
:1042F000BB1C203109F04CCF0F5F1F4F053011055B
:1043000009F037CF8FEF8E838F8318860E94A10527
:104310008160782F9A8789874E815F8168858A8539
:104320000E94001E5CCF863059F4F0E0E957FA4F46
:10433000E4910E2F10E092E3A92E93E1B92E69CFFC
:10434000893061F4E695F0E0EC57FA4FE4910E2FD6
:1043500010E087E0A82E81E1B82E5BCF8F3061F4AA
:10436000E695F0E0EF57FA4FE4910E2F10E0B1E33D
:10437000AB2EB1E1BB2E4DCF853159F4F0E0E258C0
:10438000FA4FE4910E2F10E0A0EAAA2EA1E1BA2E76
:1043900040CF08E210E072EFA72E71E1B72E88310E
:1043A00009F437CF833241F4F60105911491F5EC0D
:1043B000AF2EF2E1BF2E2DCF04EF11E06BE7A62E5A
:1043C00062E1B62E843209F424CF00ED17E05DE8F7
:1043D000A52E55E0B52E853209F01BCF8E2F63E058
:1043E0000E945C24E92FF0E0E758FA4FE4910E2F89
:1043F00010E0EEE7AE2EE0E1BE2E0BCF1092D4021D
:1044000089E08093D5021FC08091D402823009F4E4
:1044100022C28330F1F0813009F066C02FB7F894E2
:1044200060912E0270912F028091300290913102A2
:104430002FBF0E94A4246093D5027093D60280936C
:10444000D7029093D8020E94770A1092C10210E01E
:1044500073CE809132029091330298278927982752
:104460009093D6028093D5028091340290913502C8
:104470009827892798279093D8028093D702809114
:104480003602909137029827892798279093DA026D
:104490008093D90280913802909139029827892718
:1044A00098279093DC028093DB0280913A029091EE
:1044B0003B029827892798279093DE028093DD029C
:1044C000C2CF8091D402823079F46091D50270918C
:1044D000D6028091D7029091D8020E94A42485E24E
:1044E00090E00E943725AFCF8FEF8093D302ABCF00
:1044F0004091D6026091D5028091D4020E94B20D03
:104500009827892798279093D8028093D7029BCF2A
:10451000A090D702B090D802BA24AB24BA248091DC
:10452000D4020091D502F0E20F9F8001112420EA0D
:10453000829F000D111D11248091D60290E0880FFA
:10454000991F080F191F6B2DC80186960E943725E9
:104550006A2DC8018796C5CF0E94D40F74CF809171
:10456000D402893041F49091D50281E09F3F08F454
:1045700080E00E94720D8091D4028138D9F068F4F5
:10458000803809F060CF20E04091D50260912B0285
:1045900080912A020E94DB1356CF823879F183384A
:1045A00009F051CF20E040912C026091D602809119
:1045B000D502F0CF60E08091D5020E94EF14909177
:1045C000D50280912902911111C08E7F809329021A
:1045D000109228023FEB44ED81E031504040804092
:1045E000E1F700C000000E9454102DCF816080933D
:1045F000290260E086950E94EF1425CF8091D502B4
:1046000080932D0220CF8091D402893059F08A30D6
:1046100081F08138F9F080F4803809F014CF80916E
:104620002C02EFCE809126028695869586958195FF
:10463000E8CE1092D50207CF8238A1F0833809F076
:1046400002CF80912A028093D50280912B02809321
:10465000D602F9CE8091290280FF02C08695D1CE84
:1046600080E0CFCE80912D02CCCE809126020E9498
:1046700027106091290270912A0280912B0290915B
:104680002C020E94C913DFCE80E18093D402DBCEDE
:1046900081E08093D4028AE5B4CEA090D402B09099
:1046A000D502BA24AB24BA2433ED832E32E0932E04
:1046B0000091D60210E00D521D4FC5018A559D4F45
:1046C0008016910609F4BFCEEAE5AE16E1E0BE061B
:1046D00058F40E942325F4018483FFEFAF1ABF0A28
:1046E0002FEF821A920AE9CFF4011482F6CF0091DB
:1046F000D4021091D50210270127102723ED822E16
:1047000022E0922EA090D602A00EB12EB11CC801BC
:104710008A559D4FA016B10609F495CE0A3531E0B1
:10472000130720F4F40164810E943725FFEF8F1AEC
:104730009F0A0F5F1F4FEBCF0E942C1084CE84E0A6
:10474000A4CFA090D402B090D502BA24AB24BA244E
:1047500093ED892E92E0992E0091D60210E00D5231
:104760001D4FC50186960815190509F46CCE20E881
:10477000A21622E0B20658F40E942325F401848395
:10478000FFEFAF1ABF0A2FEF821A920AEACFF401A5
:104790001482F6CF0091D4021091D5021027012780
:1047A000102783ED882E82E0982EA090D602A00ECE
:1047B000B12EB11CC80186960A151B0509F443CE1B
:1047C000003832E0130720F4F40164810E94372599
:1047D000FFEF8F1A9F0A0F5F1F4FECCF80E00E9400
:1047E0003C106FEF7FEF90E080E00E9454252BCECD
:1047F0000E94770A2FE739EA43E0215030404040D9
:10480000E1F700C0000052CBF89421B3939A822FB5
:104810008C6081BB92B33CE0932792BB8FE59AEE0C
:10482000E0E081509040E040E1F700C0000082B33A
:10483000832782BB21BB9398789456CD60E085E2B4
:1048400090E00E9437250E94D40F0E942C1081E036
:104850000E943C10FBCB85E290E00E942325109241
:10486000D5021092D6021092D7028093D802EBCDD7
:1048700078941F921FB61F9211248F939F93AF932A
:10488000BF9380912E0290912F02A0913002B0919F
:1048900031020196A11DB11D80932E0290932F022B
:1048A000A0933002B0933102BF91AF919F918F914D
:1048B0001F901FBE1F901895991B79E004C0991F87
:1048C000961708F0961B881F7A95C9F7809508956A
:1048D00087FB082E062687FD819567FD61950E945E
:1048E0005C240EF4919507FC81950895AA1BBB1BCF
:1048F00051E107C0AA1FBB1FA617B70710F0A61BE0
:10490000B70B881F991F5A95A9F780959095BC0100
:10491000CD01089597FB072E16F4009407D077FD7C
:1049200009D00E94762407FC05D03EF4909581952D
:104930009F4F0895709561957F4F0895EE0FFF1F6B
:104940000590F491E02D0994692796276927782727
:104950008727782708950E94CB25332312F48A1BDA
:104960009B0B0C94B5240E94CB25B7FF0895821BA6
:10497000930B08958F929F92AF92BF92CF92DF9246
:10498000EF92FF92CF93DF93EC01688179818A8166
:104990009B81611571058105910521F464E279ED32
:1049A0008BE597E02DE133EF41E050E00E94772561
:1049B00049015A019B01AC01A7EAB1E40E94962586
:1049C0006B017C01ACEEB4EFA50194010E94A4251B
:1049D000DC01CB018C0D9D1DAE1DBF1DB7FF03C0BB
:1049E0000197A109B04888839983AA83BB839F77E5
:1049F000DF91CF91FF90EF90DF90CF90BF90AF907D
:104A00009F908F9008950E94BA24089580E690E0C8
:104A10000E94BA240895B0E0A0E0809360009093D3
:104A20006100A0936200B09363000895FC014150BF
:104A3000504030F001900616D1F73197CF0108951C
:104A4000882799270895E199FECF9FBB8EBBE09AF6
:104A500099278DB30895A6E1B0E044E050E00C94AE
:104A60006925A8E1B0E042E050E00C946925262FCA
:104A7000E199FECF9FBB8EBBE09A01970DB2021663
:104A800031F02DBB0FB6F894E29AE19A0FBE08956B
:104A90000396272F0E9438250E943725252F0E9434
:104AA0003825242F0C9438250196272F0E9438256D
:104AB0000C943725262FE199FECF9FBB8EBB2DBBD3
:104AC0000FB6F894E29AE19A0FBE01960895DC01C0
:104AD000CB01FC01E199FECF06C0FFBBEEBBE09A23
:104AE00031960DB20D9241505040B8F70895052E01
:104AF00097FB1EF400940E948E2557FD07D00E945C
:104B0000A92507FC03D04EF40C948E2550954095B2
:104B1000309521953F4F4F4F5F4F08959095809569
:104B2000709561957F4F8F4F9F4F08950E94CB25C1
:104B3000A59F900DB49F900DA49F800D911D1124F1
:104B40000895B7FF0C9496250E949625821B930B1F
:104B50000895A1E21A2EAA1BBB1BFD010DC0AA1FBE
:104B6000BB1FEE1FFF1FA217B307E407F50720F0D6
:104B7000A21BB30BE40BF50B661F771F881F991F51
:104B80001A9469F760957095809590959B01AC019A
:104B9000BD01CF010895A29FB001B39FC001A39FA3
:104BA000700D811D1124911DB29F700D811D112466
:104BB000911D0895F894FFCFBF0FBF0FC80FC80F06
:104BC000CA0FC80FC80FC80FBF0FBF0FCF0FC80F36
:104BD000C80FCF0FEE18EE185F195F19B51923191A
:104BE00023192319CF19A51AB41AB41A15183C1889
:104BF000431848184D18521857185C186118661851
:104C00006B187018731878187B187E188118841820
:104C100087188A18FE210422612278228822AC2279
:104C2000AF2203233523EE23F823442348234D23C7
:0A4C300077239C239F23A123CA23AE
:104C3A000100000001191A1B1C1D1E1F2021220140
:104C4A0002018F05FF0A8E05CC0AC80A0008080867
:104C5A0005050808080505080808050505C800F43B
:104C6A00010A00000000010500000205000003011E
:104C7A0005010401050105010501FF5A0707070798
:104C8A0007070707070707070707070001020202C6
:104C9A00020606060909090909090F0F0F0F0F0F66
:104CAA001515151819191919191919191919232462
:104CBA00252525252525818283E200E900EA00B51C
:104CCA0000B600B700CD008301CC008A019201949E
:104CDA00012102230224022502260227022A02B304
:104CEA0000B4006F007000333435363790919293D8
:0C4CFA009495969760616263646566673C
:00000001FF
