:100000000C9494020C94D8020C94F3020C94D80231
:100010000C94D8020C94D8020C94D8020C94D802F8
:100020000C94D8020C94D8020C94B21A0C94D802F6
:100030000C94D8020C94D8020C94D8020C94D802D8
:100040000C94D8020C94D8020C94D8020C94D802C8
:100050000C94D80229003A003B003C003D003E00D1
:100060003F0040004100420043004400450046007C
:100070004700480035001E001F002000210022001C
:10008000230024002500260027002D002E004C0010
:100090002A0049002B0014001A0008001500170060
:1000A0001C0018000C00120013002F00300031005B
:1000B0004A004B00394104001600070009000A00FD
:1000C0000B000D000E000F0033003400320028003A
:1000D0004D004E00E10064001D001B0006001900E9
:1000E000050011001000360037003800E50001510E
:1000F00052004C00E000E300E2002C000000000091
:100100002C0000002C00E600E7006500E400500031
:1001100051004F00005C01000100010001000100DE
:1001200001000100010001000100010001000100C7
:1001300001000100010001000100010001000100B7
:1001400001000100010001000100010001000100A7
:100150000100010001000100010001000100010097
:1001600001000100010001000100AA00A900010036
:100170000100010001000100010001000100010077
:100180000100010001000100010001000100010067
:100190000100010001000100010001000100010057
:1001A00001000100A80001000100010001000100A0
:1001B0000100010001000100010001000100010037
:1001C0000100010001000100010001000100010027
:1001D0000100010001000100010001000100010017
:1001E0000100010001000100010001000100010007
:1001F00001000100010001000100010001000100F7
:1002000001000100010001000100010001000100E6
:1002100001000100010001000100010001000100D6
:1002200001000100010001000100010001000100C6
:1002300001000100010001000100010001000100B6
:1002400001000100010001000100010001000100A6
:100250000100010001000100010001000100010096
:100260000100010001000100010001000100010086
:100270000100010001000100010001000100010076
:100280000100010001000100010001000100010066
:100290000100010001000100010001000100010056
:1002A0000100010001000100010001000100010046
:1002B0000100010001000100010001000100010036
:1002C0000100010001000100010001000100010026
:1002D0000100010001000100010001000100010016
:1002E0000100010001000100010001000100010006
:1002F00001000100010001000100010001000100F6
:1003000001000100010001000100010001000100E5
:1003100001000100010001000100010001000100D5
:1003200001000100010001000100010001000100C5
:1003300001000100010001000100010001000100B5
:1003400001000100010001000100010001000100A5
:10035000010001000000000000000000000000009B
:1003600000000000000000007E0F00D4FFFFFFC768
:100370000000007800000000000000002A2B280088
:100380000000000000000000000000000000002944
:10039000000000002C1E3420212224342627252E84
:1003A000362D3738271E1F202122232425263333BC
:1003B000362E37381F0405060708090A0B0C0D0EE8
:1003C0000F101112131415161718191A1B1C1D2FB4
:1003D0003130232D350405060708090A0B0C0D0ED4
:1003E0000F101112131415161718191A1B1C1D2F94
:1003F0003130354C05010980A101850319012AB767
:1004000000150126B700950175108100C0050C0983
:1004100001A101850419012AA002150126A0029557
:100420000175108100C00660FF0961A10109621514
:100430000026FF009520750881020963150026FF3C
:1004400000952075089102C005010906A101050764
:1004500019E029E71500250195087501810295012C
:10046000750881030507190029FF150026FF00956F
:100470000675088100050819012905950575019182
:1004800002950175039103C00403300000001803B6
:100490004C005A0020004500720067006F002000E9
:1004A00054004B004C0000000C034C00650065003C
:1004B0004B00750000000403090409025B000301FE
:1004C00000A0FA0904000001030101000921010153
:1004D0000001224000070581030800010904010012
:1004E0000203000000092101010002222200070589
:1004F0008403080001070504030800010904020041
:10050000010300000009210101000122320007055A
:1005100083030800011201100100000008A020530D
:10052000410001010203010011241FBECFE5D8E004
:10053000DEBFCDBF04B603FE24C08091D2029091ED
:10054000D302A091D402B091D5028730904BA7403E
:10055000B04BB9F41092D2021092D3021092D4028E
:100560001092D50214BE84B7877F84BF0FB6F8946B
:10057000A89581B5886181BD11BC0FBEE0E0F8E3AC
:10058000099522E0A2ECB0E001C01D92A23DB207A5
:10059000E1F710E0A0E6B0E0E0ECF6E302C0059081
:1005A0000D92A23CB107D9F70E941D170C94311B84
:1005B0000C940000A82FB92F80E090E041E050EAB1
:1005C000609530E009C02D9182279795879510F0AE
:1005D00084279527305EC8F36F5FA8F30895EADF9C
:1005E0008D939D930895CF93CFB7CF93C395839B5E
:1005F000E9F7839B0EC0839B0CC0839B0AC0839B3F
:1006000008C0839B06C0C091AC02C395C093AC02E6
:10061000A6C0DF93C091AB02DD27C055DD4F839BA1
:1006200002C0DF91E6CF2F930F931F9300B32FEFFC
:1006300003FB20F94F933F9310B34FEF012703FBC8
:1006400021F93BE031C04E7F012F10B3216028C05B
:10065000102F4D7F2260000000B329C04B7F246023
:10066000012F000010B32BC010B3477F28602AC0B1
:100670004F7E00B320612CC04F7D10B320622FC08D
:100680004F7B00B3206432C0422700B349934FEF41
:100690000000102713FB20F910B31C70C9F1297F4B
:1006A00091F2012703FB21F900B3237F89F2315036
:1006B00058F1102713FB22F910B3277E79F2012796
:1006C00003FB23F92F7C81F200B3102713FB24F9DD
:1006D0002F7971F200C010B3012703FB25F92F73A6
:1006E00059F200C000B3102713FB26F9223040F264
:1006F00000C010B3012703FB27F9243028F64F77F9
:10070000206810B30000F9CF10E81ABF00271CC002
:100710003B503195C31BD04010E81ABF0881033C01
:1007200011F10B3401F12091A9021981110F12135B
:10073000EDCF4A81441F093669F10D3211F0013EB7
:1007400029F74F7009F0042F0093AF023F914F91AA
:100750001F910F912F91DF91CAB7C7FD47CFCF915E
:10076000CFBFCF9118952091AF02222379F310913A
:10077000AD02112309F044C034300AF443C0309371
:10078000AD022093AA021091AB023BE0311B3093E3
:10079000AB0238C00091AD02013094F50AE54F700C
:1007A00049F430916B0034FD2FC000936B00C6E814
:1007B000D2E02EC0433059F0443091F03091910294
:1007C00034FD22C000939102C2E9D2E021C03091F1
:1007D000C60234FD19C00093C602C7ECD2E018C0AF
:1007E00030919D0234FD10C000939D02CEE9D2E00D
:1007F0000FC02795A8F45150A9F4220F0000F9CF9B
:100800004AE503C042ED01C0432FC4E1D0E032E02D
:1008100011B31C60939A11BB02B320E41CE05F93F8
:10082000012756E002BB279520F4515021F4220FF6
:10083000F9CF012756E000003B5A02BBD0F22795C2
:1008400028F4515029F4220F0000F9CF012756E077
:10085000279502BB20F4515021F4220FF9CF012734
:1008600056E02991332302BB21F6037F1091AE029B
:10087000110FC651D04002BB11F01093A90210E82D
:100880001ABF086011B3137F402F437F5F9100C0F0
:1008900000C002BB11BB42BB59CFFC018381833036
:1008A00089F130F48130F1F0823021F180E0089557
:1008B000813209F44BC08232C9F72481358121305D
:1008C000310509F461C02115310509F455C0223004
:1008D000310561F784EF93E090931602809315023F
:1008E00082E3089585E195E09093160280931502C6
:1008F00082E108958AEB94E09093160280931502AA
:100900008BE508958281813089F0882339F0823027
:10091000A9F0833059F688E894E002C086EB94E0B1
:10092000909316028093150284E0089588EA94E07B
:1009300090931602809315028CE008958EE894E05F
:10094000909316028093150288E108958281813088
:1009500081F0882331F0823009F0A8CF85E095E05E
:1009600002C08CEC94E0909316028093150289E00B
:10097000089585EE94E0F7CF88E494E09093160212
:100980008093150280E4089526E234E03093160245
:1009900020931502089508958091100208959C01F6
:1009A0004FB7F8948091700190917101A0917201FC
:1009B000B09173014FBF821B930B08952FB7F8942A
:1009C0008091700190917101A0917201B0917301B9
:1009D0002FBF089580914D01811110924D0108950E
:1009E00080914C0190914B01892B90914A01892B68
:1009F0008093C20090914D01992391F0892B8093AF
:100A0000C20020E084EC90E0FC013191CF01311173
:100A10002F5FF0E08A3C9F07B9F721110E94EA049A
:100A2000E0915201F0915301309731F00280F3814F
:100A3000E02D82EC90E009940895E4ECF0E09191CF
:100A4000891303C0DF0111971C9290E0EA3CF9077B
:100A5000B1F70895A4ECB0E0EFEF90E02D9182178C
:100A600051F0EF3F19F4211101C0E92F9F5F96303B
:100A7000A9F7EF3F09F408950E2E000CFF0BEE537B
:100A8000FF4F828308959295907F890F982F9770DA
:100A900086958695869525E0829FF0011124E35F77
:100AA000FE4F50E040E080E0219130E0092E02C08E
:100AB000369527950A94E2F721703327042E01C05A
:100AC000220F0A94EAF7822B4F5F5F4F45305105A2
:100AD00059F708959295907F890F982F977041E06C
:100AE00001C0440F9A95EAF786958695869595E01C
:100AF000899FF0011124E35FFE4F30E020E070E0B9
:100B00005191DF011197CB01022E02C09695879576
:100B10000A94E2F7817081958527842385278C9339
:100B20002F5F3F4F2530310559F7089580910C0113
:100B30009091DB00981301C008958F5F8770FACF02
:100B4000882341F0809590914C01892380934C013A
:100B50000C94F0040895882339F090914C01982B5F
:100B600090934C010C94F00408952091D1003091A1
:100B7000D2002817390771F09093D2008093D100EA
:100B8000E0915201F0915301309721F00084F185FA
:100B9000E02D099408952091CF003091D0002817BE
:100BA000390771F09093D0008093CF00E09152010B
:100BB000F0915301309721F00680F781E02D0994E0
:100BC000089510924B0110924A010E94F00490E0A7
:100BD00080E00E94CB0590E080E00C94B505609326
:100BE0003702709338028093390290933A020C9442
:100BF000E1050F931F936091370270913802809145
:100C0000390290913A028B019C010670112722272C
:100C10003327063011052105310529F468601F913D
:100C20000F910C94EF05677FFACF0F931F9341E06C
:100C300050E060E070E004C0440F551F661F771F4E
:100C40008A95D2F7CB01BA01609570958095909501
:100C500000913702109138022091390230913A0206
:100C600060237123822393231F910F910C94EF052E
:100C7000909149018095892380934901282F2770FD
:100C800071F4282F082E000C330B9217130639F03D
:100C90008595859585950E941506109249010895C0
:100CA0000F931F9341E050E060E070E004C0440FF8
:100CB000551F661F771F8A95D2F780913702909152
:100CC0003802A0913902B0913A028A019B01082BA7
:100CD000192B2A2B3B2BC901B8011F910F910C94A2
:100CE000EF0560934E0170934F01809350019093F4
:100CF00051010C94E105E0915201F09153013097BC
:100D000021F00190F081E02D099480E0089588237E
:100D100009F452C0823871F40E947B0681FF4CC0F6
:100D200089E30E942A050E94F00489E30E941D05C0
:100D30000C94F004833859F40E947B0680FF3CC079
:100D400083E50E942A050E94F00483E5EFCF8438F2
:100D500059F40E947B0682FF2FC087E40E942A0577
:100D60000E94F00487E4E2CF9CEF980F913AF0F2F2
:100D700090E2980F983088F4877021E030E0A90164
:100D800002C0440F551F8A95E2F7CA0180959091E1
:100D90004C01892380934C01CBCF9BE5980F933076
:100DA00020F490E080E00C94CB05885A873120F441
:100DB00090E080E00C94B50508959091600192FF59
:100DC00006C0282F28712830F9F4877F846093FFAC
:100DD00006C0282F28712831F1F4877E8461209184
:100DE000610120FF06C0382F38713830D9F4877F71
:100DF000816021FF06C0282F28712831D1F4877E19
:100E0000816194FD877E0895282F24712430F9F69E
:100E10008B7F8860DCCF282F2471243101F78B7EF3
:100E20008861DDCF382F3171313019F78E7F8860BE
:100E3000E0CF282F2171213121F78E7E8861E1CF0B
:100E400006B607FEFDCF089583B986B78F70806818
:100E500086BF0E94200781B1982F987F983251F069
:100E6000983141F0982F987E81E0903409F080E02D
:100E70008170089581E0FCCF86B7806D86BF06B68D
:100E800004FEFDCF089586B7806A86BF0E942007C2
:100E900091B1987F81E0983019F0903109F080E0AD
:100EA00081700895EF92FF920F931F93CF93DF937A
:100EB000082F0E944307811109C010E0812FDF91A4
:100EC000CF911F910F91FF90EF90089580EB0E94BA
:100ED0002407882391F3CBE3D2E07E0189910E941D
:100EE0002407182F882349F38E2D8C1B800FB1F710
:100EF0000E943C07E3CF93E090933B0290933C0227
:100F0000811184E0611182604111816080933D0212
:100F100083E00E94520781E00895CF93DF93809190
:100F2000AD02835087FD14C09091AB02CCE0D0E0BD
:100F3000C91BD109C055DD4F9091AA02903108F02C
:100F40006BC0883009F453C0109205021092AD02B4
:100F500080916B0084FF3EC080916A008F3FD1F189
:100F6000C82F893008F0C8E0982F9C1B90936A0026
:100F70009091860228E89227909386028823E9F0D0
:100F800080911502909116022091140226FF06C14D
:100F9000FC012C2FA7E8B2E034913D93319621500B
:100FA000D9F79C012F5F3F4F8FEF8C0F820F932F4C
:100FB000911D90931602809315026C2F87E892E0A2
:100FC0000E94EF02CC5FCC3019F08FEF80936A0063
:100FD000C0936B0084E190B39C7031F48150D9F7D9
:100FE0001092AE021092A902DF91CF9108958091E4
:100FF0000502893108F0A8CFE82FF0E0E95EFD4F47
:101000009E01285F3F4F999191932C173D07D9F787
:10101000885F809305029ACF9D3209F0A3C0883083
:1010200009F094CF83EC809386028AE580936B006D
:10103000109214028881807609F447C0803229F525
:101040008981813099F48C819D81892BF1F487E02D
:1010500092E0909316028093150288E09F8191118F
:1010600031C09E81981770F5892F2CC0823041F4D1
:1010700086E092E0909316028093150281E0EECF15
:101080008A3029F48B818093060280E0E7CF893093
:10109000E1F78A819B818115924069F48C819D8161
:1010A000892B49F481E0809313028E819F81909374
:1010B000120280931102888187FF52C08E8190E8CE
:1010C0009093140280936A0041CF2A8110928F027C
:1010D000998191110AC0109290022FE832E082E0CB
:1010E0003093160220931502B9CF953029F420933E
:1010F000AE022FE832E0F4CF9630C1F49B819130FC
:1011000049F4CE010E944D0490E4909314028F3F65
:1011100091F2A4CF9230A9F3933099F3913289F3ED
:10112000923279F390E49093140298CF983089F03A
:10113000993019F420930F02DCCF9A3071F09B3074
:10114000C1F69BE4909392029093C70290939E0203
:10115000D0CF2FE032E081E0C3CF2FE832E0FBCFE9
:101160008FEFADCF8091140287FFF0CE80911102F6
:1011700090911202892B71F080911302813051F409
:101180008881809310021092120210921102109224
:101190006A00DCCE8EE180936B00D8CEDC012C2F70
:1011A000E7E8F2E03D9131932150E1F7FACE1F9349
:1011B000CF93DF93E82F792F162FEA01888184FFE0
:1011C0001CC0298188E828272983CE010296DC01EA
:1011D0002E2F372F512F5E0FF90121912D939F0153
:1011E000452F4E1B1416C4F3612F0E94EF021C5FA3
:1011F0001883DF91CF911F9108958AE58883E5CF09
:10120000CF93DF93C7E1D2E080919D0284FF18C0A5
:101210004DE952E068E0CE010E94D708289682E0AE
:10122000C733D80789F780919D0284FF0CC04DE930
:1012300052E060E090E080E0DF91CF910C94D7081D
:101240000E948D07E1CF0E948D07EDCFCF93DF93F2
:1012500000D00F92CDB7DEB790910402981307C06B
:10126000209102023091030226173707A1F08093E4
:101270000402709303026093020289837B836A8372
:101280008091C60284FF07C046EC52E063E0CE01C5
:1012900001960E94D7080F900F900F90DF91CF9189
:1012A0000895BC0184E00C942609BC0183E00C94F1
:1012B0002609CF93DF93CAE0D0E08091910284FFAA
:1012C0001CC08091000290910102981799F028E0CB
:1012D000829FC001112441E952E068E080589E4F8E
:1012E0000E94D7088091000290E001968F709927A4
:1012F00080930002DF91CF9108950E948D0787EBC4
:101300009BE00197F1F700C000002197B1F6F2CF02
:10131000CF93DF93EC01A0910102B0E0CD010196E3
:101320008F70992720910002281779F093E0AA0F77
:10133000BB1F9A95E1F7A058BE4F98E0FE010190BF
:101340000D929A95E1F7809301020E948D070E9409
:10135000590988E0FE01A7E0B2E001900D928A955C
:10136000E1F7DF91CF910895CF93C82F882309F437
:1013700088C08238C1F40E947B0681FD82C089E367
:101380000E942A050E94F0042FE789EA93E0215089
:1013900080409040E1F700C0000089E30E941D05F5
:1013A000CF910C94F0048338A1F40E947B0680FD59
:1013B00068C083E50E942A050E94F0042FE789EAAD
:1013C00093E0215080409040E1F700C0000083E5A9
:1013D000E5CF8438A1F40E947B0682FD52C087E4E9
:1013E0000E942A050E94F0042FE789EA93E0215029
:1013F00080409040E1F700C0000087E4CFCF8CEF41
:101400008C0F813A68F4E4ECF0E08191C81799F10F
:1014100020E0EA3CF207C9F78C2F0E942A05C0CFD2
:1014200080E28C0F883068F4C77021E030E001C0A2
:10143000220FCA95EAF780914C01822B80934C01D0
:10144000AFCFEBE5EC0FE33040F4F0E0E558FF4FB1
:10145000808190E0CF910C94CB05C85AC73188F4B5
:10146000EC2FF0E0EE0FFF1FE258FF4F80819181DB
:10147000CF910C94B5058C2F0E941D050E94F0049D
:10148000CBCFCF910895CF93C82F0E94B409C93311
:1014900049F42FEF8DEE92E0215080409040E1F72B
:1014A00000C000008C2FCF910C9487060F931F93E0
:1014B000CF93DF93C42FD22FFC0182818823A1F028
:1014C0004093D3000E94DE049093CE008093CD0021
:1014D000C77081E001C0880FCA95EAF7DF91CF910C
:1014E0001F910F910C94AB051091D300141335C0CC
:1014F0008091CD009091CE000E94CF04883C910550
:1015000060F5C0E2CD0F1D17B9F080E2810F883081
:1015100040F4177081E001C0880F1A95EAF70E9425
:10152000A005C83048F481E09D2F977001C0880F56
:101530009A95EAF70E94AB05802F0E94430AC830B3
:1015400098F4D77081E001C0880FDA95EAF7DF914F
:10155000CF911F910F910C94A005C77081E001C03D
:10156000880FCA95EAF7F3CFDF91CF911F910F91C2
:1015700008957F928F929F92AF92BF92CF92DF9207
:10158000EF92FF920F931F93CF93DF930CEA10E03B
:10159000A4E5B1E0712CCC24C394D12CE80189914D
:1015A0008E01E82FE295EF70F0E091A98F7076013F
:1015B00001C0EE0C8A95EAF7892F8E2981AB92A99A
:1015C0007E2D7095972392ABD8E7DA95F1F792EBE1
:1015D000A92E90E0B92E50E040E030E020E0E50197
:1015E00069915E01862E82948FE08822912CE4011D
:1015F00088A990E06F7002C0959587956A95E2F78B
:1016000080FD6DC0C601042E02C0880F991F0A9488
:10161000E2F7282B392B4F5F5F4F40315105F9F628
:1016200081A9872381AB82A9E82AE2AA8D919C91A6
:1016300011972817390709F455C011963C932E933A
:1016400081E0782A1296D0E0023B1D0709F0A6CF70
:10165000772009F449C081E08093CC000E94DE0429
:101660009093CB008093CA008091CA009091CB00E8
:101670000E94CF040697E0F18091540190915501AA
:101680009093750180937401809156019091570158
:101690009093770180937601809158019091590140
:1016A000909379018093780180915A0190915B0128
:1016B00090937B0180937A0180915C0190915D0110
:1016C00090937D0180937C0180915E0190915F01F8
:1016D00090937F0180937E011092CC0009C090E02E
:1016E00080E097CF80E0ADCF8091CC008111BCCF5E
:1016F000872DDF91CF911F910F91FF90EF90DF9099
:10170000CF90BF90AF909F908F907F900895CF9390
:10171000DF93D82FCAE00E944307882379F081EB3A
:101720000E942407882351F086B7806886BF0E94F4
:10173000200783B180933B020E943C0780913B02CB
:101740008D1761F08BE291E00197F1F700C0000086
:10175000C15009F78C2FDF91CF910895C1E0FACFE6
:101760001F93CF93DF93182F1470D82FD270C82FE8
:10177000C170412F6D2F8C2F0E947B0787EB9BE060
:101780000197F1F700C00000412F6D2F8C2FDF91E2
:10179000CF911F910C947B07CF9384E090E00E943F
:1017A000E31AC82F81E290E00E94E31A982F8C2F51
:1017B000CF9108950F931F93CF93DF9320E2629F01
:1017C000E001112450E0440F551FC40FD51F30EC29
:1017D000839FC00DD11D1124CE0186960E94E31A6D
:1017E000082F10E0102F0027CE0187960E94E31AE1
:1017F0009801282BC901DF91CF911F910F91089576
:10180000462F843038F4763028F4603118F4672F8E
:101810000C94DA0B90E080E00895CF93DF930E9460
:10182000000CEC0182389105A9F1D8F581339105BE
:1018300009F496C048F58932910509F48AC08A975F
:1018400009F495C0C11522E5D20708F0B6C0C1154C
:1018500031E5D30708F026C1C83ED10508F09CC089
:10186000C03ED10560F5C83AD10508F087C0C53A39
:10187000D10508F0EFC0C130D10509F12097F9F08A
:10188000C430D105E0F440C08533910509F45AC055
:10189000C997C1F680916001837089F0C0EED0E0F5
:1018A0000EC0833E910599F170F4803E910501F1DF
:1018B000823E910539F68091600182FD21C0CE0102
:1018C000DF91CF910895863E910561F1873E9105A4
:1018D00071F1843E910509F0B5CF8091610181FFDE
:1018E000EECF80916001C7EED0E084FD0DC0E7CF60
:1018F0008091600180FD07C19091610190FFDFCF71
:10190000C3EED0E084FFDBCFD0E0C0E0D8CF809141
:10191000600182FDFBC09091610190FDBFCF84FF0B
:10192000CECFF2CF8091600183FDDDCFC8CF809113
:10193000600183FDEEC09091610191FFF0CFC4EE94
:10194000D0E0BDCF8091600185FFB9CFC9E2D0E082
:10195000B6CF8091600185FFB2CFC5E3D0E0AFCFB5
:101960008091600186FFABCFCAE2D0E0A8CF809122
:10197000600186FFA4CFC1E3D0E0A1CFCF3BD1056A
:1019800018F6C85AD0E0CC0FDD1FC258DF4F0990BF
:10199000D881C02DD46493CFC11540E5D40708F099
:1019A00064C0C11580E4D80708F05CC0CE019A95E8
:1019B00081159F4108F483CFA7CFC11536E5D30722
:1019C00018F5C11545E5D40708F084C0C11584E5B4
:1019D000D80708F07AC09C2F969596959E012370A3
:1019E0003327C115D34508F462C0C1E0D0E002C07E
:1019F000CC0FDD1F2A95E2F730E2939FC00111243E
:101A0000C82BD92BDA685BCFC1158AE5D80778F4E3
:101A1000C11599E5D90708F068C0C11528E5D207B6
:101A200008F472CFDC2FCC27C06FD06A48CFCE012C
:101A300090568115904208F067CF8D2F8F710E94CC
:101A4000DD0690E0982F882788279F719C012C2B1A
:101A5000E90149C0C55AD0E0C558DF4FC881D0E080
:101A6000D0642DCFDF70D06A2ACFCE01E4E0969506
:101A70008795EA95E1F783702C2F2695269523709C
:101A800040E2249F90011124382B8C2F8370C1E0F9
:101A9000D0E002C0CC0FDD1F8A95E2F7C22BD32B1A
:101AA000DC680DCFDC2FCC27C16FD06A08CFC1E036
:101AB000D0E002C0CC0FDD1F2A95E2F720E2929F12
:101AC000C0011124C82BD92BEBCFDC2FCC27C46F3E
:101AD000D06AF5CE8C2F0E94DD06C82FD0E0DC2F17
:101AE000CC27CC27DF71D062EACE8C2F8F700E947A
:101AF000DD0634E0D695C7953A95E1F7CF709C2F77
:101B0000EC01D069DCCEC9E3D0E0D9CEC2EED0E0A2
:101B1000D6CEC6EED0E0D3CEBF92CF92DF92EF9278
:101B2000FF920F931F93CF93DF938C01C0903702E6
:101B3000D0903802E0903902F0903A0280914E0144
:101B400090914F01A0915001B0915101C82AD92A1A
:101B5000EA2AFB2ACFE1D0E0BC2ED701C6010C2E29
:101B600004C0B695A795979587950A94D2F780FDFE
:101B70000EC0219788F7B12C8B2DDF91CF911F914B
:101B80000F91FF90EF90DF90CF90BF900895B80134
:101B90008C2F0E940D0C019761F3EECFCF93DF9352
:101BA000EC010E948C0DBE01DF91CF910C940D0CC5
:101BB0000E94CE0D292F2F7092959F7092509E30CB
:101BC00078F4E92FF0E0ED5CF44E0C94D61A803FE7
:101BD00019F020F4883E20F481E00895843FE1F379
:101BE00080E00895883EC0F3813FD1F7F5CF822F82
:101BF00086958695869508956F927F928F929F9293
:101C0000AF92BF92CF92DF92EF92FF920F931F930A
:101C1000CF93DF9384E5C82E80E0D82E06E011E054
:101C2000E801C05CD10936011CC0F5018590949093
:101C3000692DC7010E94F11A682DC70101960E9403
:101C4000F11A82E0A80EB11C82E0E80EF11CCE155C
:101C5000DF0559F780E2680E711CA0960C171D076E
:101C600031F07E0180E2E81AF1085301DECF005422
:101C70001F4F80ECC80ED11C063084E0180781F697
:101C8000DF91CF911F910F91FF90EF90DF90CF9058
:101C9000BF90AF909F908F907F906F900895CF935B
:101CA000DF93C6E2D3E060E0CE010E94F11A2196F4
:101CB000C11584E0D807B9F7DF91CF910895CF938C
:101CC000C82F6FEF811161E282E290E00E94F11A69
:101CD0006FEFC11162E083E290E00E94F11A6FEFB2
:101CE000C11168E084E290E0CF910C94F11A60E0B9
:101CF00081E090E00E94141B87E090EBDC01809370
:101D0000D2029093D302A093D402B093D50288E17B
:101D10009CE00FB6F894A89581BD0FBE91BDFFCF92
:101D20006CEE7EEF90E080E00E940E1B60E082E0AF
:101D300090E00E94F11A60E083E090E00E94F11AC6
:101D400010924E0110924F011092500110925101C9
:101D500060E084E090E00E94F11A60E081E290E0AF
:101D60000E94F11A60E085E090E00E94F11A60E0C4
:101D700086E090E00E94F11A6FEF87E090E00E9409
:101D8000F11A40E050E0BA0188E090E00E94021BA6
:101D900060E08DE090E00E94F11A40E050E0BA016E
:101DA00088E190E00E94021B60E087E190E00E94E1
:101DB000F11A40E050E0BA018CE190E00E94021B71
:101DC00060E080E290E00E94F11A40E050E0BA0149
:101DD0008FE090E00E94021B40E050E0BA0183E1F6
:101DE00090E00C94021B10924C01E4ECF0E086E0D1
:101DF000DF011D928A95E9F70C94E1054F925F92FD
:101E00006F927F928F929F92AF92BF92CF92DF920A
:101E1000EF92FF920F931F93CF93DF9300D000D0E8
:101E20000F92CDB7DEB77C01FC0183819481892BB1
:101E300031F08081918189238F3F09F029C50F906E
:101E40000F900F900F900F90DF91CF911F910F91F6
:101E5000FF90EF90DF90CF90BF90AF909F908F90CA
:101E60007F906F905F904F9008950E948C0D182F77
:101E7000682F89819A810E946A0569817A81812F00
:101E80000E94000C8C01F7018281882309F4F5C4BB
:101E9000980122513F452031310508F0C5C48FEF2C
:101EA00093E00E94E31A025156E2A52E53E0B52EAC
:101EB000882379F180914901877009F4C0CFF70137
:101EC0008281882309F4BBCF82E00F900F900F909E
:101ED0000F900F90DF91CF911F910F91FF90EF9096
:101EE000DF90CF90BF90AF909F908F907F906F903A
:101EF0005F904F900C943806A114F4E0BF06D1F225
:101F0000C5010E94E31A811101C001502FEFA21AEE
:101F1000B20A0111F1CF1C821B82662463944AE04D
:101F2000542E85010F5F1F4FC5010E94E31A89835C
:101F30001A82882309F4BECF9FEF980F933008F5DB
:101F40008A83698232E0A30EB11CC8010E94E31AA1
:101F50008B83882309F4AECF8E010F5F1F4FF801EA
:101F600020812223F1F2213009F043C09181828146
:101F7000913049F40E5F1F4F0E94430A0F5F1F4FBD
:101F8000EECF5801E9CF923029F40E5F1F4F0E9427
:101F9000B409F4CF933029F40E5F1F4F0E948706D7
:101FA000EDCF943019F00F5F1F4FE8CF0E5F1F4F3A
:101FB00030E020E0B8016F5F7F4FF801418180532E
:101FC000990B8A30910550F021503109B8F287EB16
:101FD0009BE00197F1F700C00000F6CF529EF001A0
:101FE000539EF00D11249C012E0F3F1F842F8B0157
:101FF000E1CFE22FF0E0EC58FC4F7490822F8695F1
:102000008695869590E0FC01EC59FC4F84902770F2
:10201000912C022E02C0959487940A94E2F7E1E095
:102020008E229924FC01EC5AFC4FC490D12C02C0A2
:10203000D594C7942A95E2F7F1E0CF22DD248114EC
:10204000910419F081EE0E94B409C114D10419F071
:1020500086EE0E94B409872D0E94430ACD2819F00C
:1020600086EE0E948706892809F488CF81EE96CFF4
:1020700081E00E9450060E94F9051CCF81E00E9479
:102080001506F9CF82E0F5CF053F2CE5120709F4DC
:1020900065C008F45DC0063F9CE5190709F464C0FB
:1020A000882309F406C41092D3000230ECE51E0721
:1020B00008F442C10631FCE51F0738F098012A5F99
:1020C0003C452930310508F037C10E94CC0B909374
:1020D00061018093600100312CE5120709F4FBC017
:1020E00008F085C008308CE5180709F4E6C008F050
:1020F00057C00430ECE51E0709F4D3C008F040C017
:1021000002302CE5120709F4C6C08091600182609C
:1021100003301C4509F4C2C0609160011091610157
:1021200084E090E00E94F11A612F81E290E00E9429
:10213000F11A0E94F30EBECE07E225EE45EE68EDE1
:102140007CE597C306E221EE40EE63EF7CE591C3A8
:1021500007E225EE44EE64EF7CE58BC306E221EE58
:1021600042EE65EF7CE585C307E225EE46EE66EFBD
:102170007CE57FC308E221E045EE69ED7CE579C3AB
:1021800006308CE5180709F494C0809160018860DE
:1021900007301C4508F482C08091600180627EC0D7
:1021A000809160018D7F0C30ECE51E0709F476C04C
:1021B00070F4809160018C600A302CE5120709F4FC
:1021C0006DC008F47EC0809160018E7F67C00E30C4
:1021D0008CE5180709F47BC0809160018B7F0F307C
:1021E0001C4508F45BC0809160018F7E57C00B3F97
:1021F000ECE51E0709F459C030F503312CE5120750
:1022000009F471C078F401318CE5180709F467C04E
:1022100002311C4509F080CF0E94F30E80916001CD
:102220008F773CC00531ECE51E0709F464C008F463
:1022300078C08091610181600A3F1C4509F06CCF34
:102240008093610169CF0F3F3CE5130709F44FC04C
:1022500088F4809161018D7F0D3F9CE5190781F322
:10226000809161018E7F0E3F1C4550F3809161018A
:102270008360E6CF0130FDE51F0709F45BC008F479
:1022800046C060E002301D4509F046CF8EE090E088
:102290000E94F11A41CF80916001816080936001BA
:1022A0003BCF809160018460F9CF809161018260B1
:1022B000C7CF809160018061F1CF8091600180641F
:1022C000EDCF0E94F30E809160018068E7CF80918E
:1022D0006001877FE3CF809160018F7DDFCF8091A8
:1022E00060018F7BDBCF80916001837FD7CF8091AE
:1022F00061018C7FA5CF8091600182FB992790F9C5
:1023000021E0922790FB82F990FB83F9C7CF80915F
:102310006101982F909591708E7F892B90FB81F9A8
:102320008FCF0E94F30E90916001892F97FB87F960
:102330008058B4CF61E0AACF06319CE5190709F0B7
:10234000C3C280914C018A7A91E009F490E09093A5
:10235000D400811106C089E20E942A050E94F0047F
:10236000A9CD85E3F9CF85E3ACC20E94F30EEFEB74
:10237000F7E229E0E150F0402040E1F700C0000022
:102380000E94770E0E94900E95CDC8010E944305D1
:10239000D82EB1C2212F2F70A22E107F19F0A29437
:1023A00090EFA922DD20C9F0AA2069F080E2800F19
:1023B000883010F081100BC080914C01A82AA092A7
:1023C0004C010E94F004802F0E94B40918C0809133
:1023D0004B01A82AA0924B01F4CF802F0E948706C0
:1023E000AA2069F0A094005E083010F081103DC072
:1023F00080914C01A822A0924C010E94F004EB2D88
:10240000E850FF0B349720F40E947B060E94B00B2B
:10241000CC2009F414CD8091490180FD10CDF70145
:1024200012828595859585950E945006C7010E9468
:10243000FE0E809149018595859585950F900F90A9
:102440000F900F900F90DF91CF911F910F91FF9000
:10245000EF90DF90CF90BF90AF909F908F907F9044
:102460006F905F904F900C94150680914B01A822BD
:10247000A0924B01C2CF312F3F70932E107F1032AC
:1024800019F0929480EF9822882071F081E08816EC
:1024900061F1DD20B9F1AA2071F1F701858180FF9A
:1024A00092CF8F70858327C0DD2091F090914D01F0
:1024B000892D892BA11003C00E94AB05A0CFE1E0BC
:1024C000AE12FACF981709F49ACF80934D0197CFA7
:1024D000A11006C00E94EA04892D0E94A0058FCF9A
:1024E000F1E0AF1609F48BCFF5CFDD2031F025E018
:1024F0002A1508F484CF892DDFCF34E03A1508F48B
:102500007ECFEACFAA2041F3F9E38F1286C12FEFE5
:102510003DEE82E0215030408040E1F700C00000F5
:102520007CC1812F86958695837061F0813009F09A
:1025300066CFC8019370D11002C090E080E00E9485
:10254000B5055DCFC8019370D11002C090E080E066
:102550000E94CB0554CF812F837009F066C0D11043
:102560004ECF802F829586958770880F880F602FB9
:102570006F70462E512C712C612C082E04C0440C17
:10258000551C661C771C0A94D2F740E050E0BA0153
:1025900004FF0FC04FE050E060E070E004C0440F63
:1025A000551F661F771F8A95D2F740955095609505
:1025B0007095812F869586958370823019F1D8F4B5
:1025C00000914E0110914F01209150013091510125
:1025D000813069F04429552966297729CB01BA0150
:1025E00060237123822393230E94710608CF402A1F
:1025F000512A622A732ACB01BA01642975298629D6
:102600009729F2CF442955296629772900914E014F
:1026100010914F012091500130915101CB01BA012D
:102620006027712782279327DFCF8695DD2011F061
:10263000812F8170882309F4E2CE802F82958695C0
:102640008770880F880F602F6F70462E512C712C69
:10265000612C082E04C0440C551C661C771C0A947F
:10266000D2F740E050E0BA0104FF0FC04FE050E065
:1026700060E070E004C0440F551F661F771F8A9505
:10268000D2F74095509560957095812F86958695E7
:102690008370823019F1D8F400913702109138021A
:1026A0002091390230913A02813069F0442955294C
:1026B00066297729CB01BA016023712382239323F2
:1026C0000E94EF059CCE402A512A622A732ACB0130
:1026D000BA016429752986299729F2CF44295529F9
:1026E000662977290091370210913802209139022A
:1026F00030913A02CB01BA016027712782279327D4
:10270000DFCF1F70DD2029F0812F0E945006802F1F
:10271000D3CE802F0E94A005812F0E9415066FCE78
:10272000802F92EF891609F450C0981578F0E0EFE9
:102730008E1619F1F1EF8F1609F43FC0DD2009F470
:1027400067C0A11040CE812F8F713CC023EF82164D
:1027500009F440C034EF8312F1CFDD2009F44DC0FD
:102760001F71812F0E945006E8E01E9FC0011124B6
:10277000836080934901812F25C0DD20C9F084E06A
:102780008A1508F43CCE1F7161E070E080E090E0B3
:1027900004C0660F771F881F991F1A95D2F7009102
:1027A0003702109138022091390230913A02A4CFB9
:1027B00095E09A1508F423CEE6CF812F8F71DD20A6
:1027C00009F4ABCF0E9450061ACE812F8F71DD2005
:1027D000C9F3A3CF60E070E0CB01DD2009F470CF36
:1027E0001F7161E070E080E090E004C0660F771F29
:1027F000881F991F1A95D2F763CF81E00E9438068F
:10280000F1E0FA1508F0FBCD82E00E943806F7CD22
:10281000AA2039F0893309F47ACE802F0E948706E6
:10282000EECD812F8F7179CF0031FFE51F0709F4BD
:102830001FCC01312FE5120709F424CC033F2CE50E
:10284000120709F47FCC08F01FCC083D9CE519075E
:1028500009F472CC093DECE51E0709F48BCC073D69
:10286000FCE51F0709F01CCC06E221EE41EE67ED06
:102870007CE5C7010E94560A1DCB00313FE51307D6
:1028800009F4FCCB01319FE51907C1F682E0F7CBD3
:1028900085E0DE01119601900D928A95E1F7F7012E
:1028A000228189819A812111E0CA0E944305182F53
:1028B000E4CA06311C4589F48091D400811153CDBE
:1028C00089E20E941D054ACD01152CE5120709F485
:1028D0004CCD0E3D1C4509F455CDF7010081118109
:1028E000882309F452CDC8010E948C0DD82E682F80
:1028F000C8010E946A05B8018D2D0E940D0C8C0143
:10290000882EF701A580A2943FE0A322D280D110A7
:1029100010924B0180914901877099F0DD2089F078
:10292000812F807F803421F080E2800F883048F052
:1029300082E00E943806809149018770CC24C394BC
:102940008111C12CB12EB2942FE0B222FBE0FB1515
:1029500008F455CDEB2DF0E0EF5BF44E0C94D61A55
:102960001F93CF93DF938091DA00807FA9F4809149
:10297000D700882389F080910C01D091DB00609111
:10298000D5007091D600A091D800B091D900C62F83
:10299000C72316E0D81304C0DF91CF911F9108958B
:1029A00090E0109711F0CF3F19F401968770F2CFA5
:1029B000189F9001199F300D1124F901E452FF4F27
:1029C00041814713F2CF40814613EFCF428141113D
:1029D000ECCF438154814A1B5B0B483C510528F7DF
:1029E0008091DA008F7080618093DA00F901EF51F5
:1029F000FF4F80818F708061808385ED90E00E9421
:102A0000FE0EDF91CF911F910C949605AF92BF926D
:102A1000CF92DF92EF92FF920F931F93CF93DF93AA
:102A2000CDB7DEB761970FB6F894DEBF0FBECDBF4E
:102A30008C0185E0F801DE011D9601900D928A95CA
:102A4000E1F7F80180819181E28025EDA22E20E05E
:102A5000B22E6091D8007091D9006115710509F40A
:102A60003EC13091D5004091D600232F24232F3F23
:102A700009F435C1C380D480F090D700F601E61B7D
:102A8000F70BFF2009F4FBC02091DA00522F507F92
:102A9000E83CF10508F0BBC0511178C0FE2C491389
:102AA00021C038131FC0E1101DC02F70206120937A
:102AB000DA00C5010E94FE0E8091DA00F8018583DC
:102AC0008F2D61960FB6F894DEBF0FBECDBFDF919C
:102AD000CF911F910F91FF90EF90DF90CF90BF901B
:102AE000AF900895CD2829F0282F29232F3F09F0F2
:102AF00014C120E0F22FF170DF2E20FF3DC02091A5
:102B00000C014091DB0056E0241315C08D879E8791
:102B10008D859E850E94CE0D292F22952F70223003
:102B2000F8F0243020F59F70F9F0F8019581907F3E
:102B3000D9F4D12C1FC030E0529FF001539FF00D0B
:102B40001124E452FF4F6181961306C06081861301
:102B500003C06281E61210C02F5F3F4F2770D4CFB1
:102B60009F7011F0882329F3805E883010F3C8012C
:102B70000E94FE0EFD2CA4CFEE2009F4A1CF80917F
:102B8000DA0081608093DA00F12C9ACF491312C0E9
:102B9000381310C0E1100EC0F8012583C8010E944F
:102BA000FE0E86E0F801A5EDB0E001900D928A9549
:102BB000E1F786CF8D879E878D859E850E94D80DF3
:102BC000882309F1EE20F9F08091DA00803270F06C
:102BD0002091D5003091D60038872F831986DB8667
:102BE000CA868C87CE0107960E94FE0E86E0F80109
:102BF000A5EDB0E001900D928A95E1F70E94B01426
:102C0000FF24F3945DCFC8010E94FE0EF9CF51114D
:102C10000AC085ED90E00E94FE0E86E0F50111925B
:102C20008A95E9F7B1CF49130FC038130DC0E110F1
:102C30000BC0F8012583C8010E94FE0E86E0F50155
:102C400011928A95E9F73CCF8D879E878D859E8569
:102C50000E94D80D8823B9F2EE20A9F28091DA0003
:102C6000803220F22091D5003091D6003A8329831A
:102C70001B82DD82CC828E83CE010196B5CFE83CEB
:102C8000F105E0F6FE2CEE2009F4BDCF491316C085
:102C9000381314C08091DA0080FD83CF982F907F85
:102CA00009F47FCFF8018583903F09F477CF982FFF
:102CB000907F905F8F70892B858370CF8D879E87E3
:102CC0008D859E850E94D80D811190CF8091DA006C
:102CD00081608093DA00C8010E94FE0EF1CEEE20E2
:102CE00009F491CF8D879E878D859E850E94D80D92
:102CF000F82E882309F487CF86E0F801A5EDB0E02F
:102D000001900D928A95E1F78091D5009091D600BF
:102D10000E94CE0D0E94B014D3CE21E02E25EACE23
:102D20001F93CF93DF93CDB7DEB767970FB6F894B5
:102D3000DEBF0FBECDBF4B8B5C8B6D8B7E8B8F8BC5
:102D40001A8A198A85E0FE017396DE011D960190AC
:102D50000D928A95E1F786E0FE013D96DE01179619
:102D600001900D928A95E1F7CE0107960E94061513
:102D7000882389F016E080910C019091DB00891383
:102D800049C067960FB6F894DEBF0FBECDBFDF9186
:102D9000CF911F91089586E0FE013796DE011196CE
:102DA00001900D928A95E1F78A859B85892B11F315
:102DB0008F81988589238F3FE9F22091DB0030E0F5
:102DC000C90101968770992740910C01481719068F
:102DD00071F40E94F30E1092DB0010920C0186E059
:102DE000E5EDF0E0DF011D928A95E9F7C3CF96E0AB
:102DF000929FD001939FB00D1124A452BF4FFE01AA
:102E0000319601900D929A95E1F78093DB000E9434
:102E10009605B0CF819FC001112484529F4F0E941C
:102E20000615882309F4ADCF80910C0190E001963E
:102E30008770992780930C019ECFCDB7DEB764973A
:102E40000FB6F894DEBF0FBECDBF0E94DE047C013A
:102E500084B7806884BF84B7806884BF8FEF8BBBE2
:102E60001ABA88BB17BA85BB14BA81EF82BB83E05C
:102E700081BB87E080B986B7846086BF86B78064EF
:102E800086BF05E110E0B2E0DB2E81E8C82E0150DC
:102E9000110909F45CC02FEB34ED81E02150304082
:102EA0008040E1F700C00000D0923C02C0923B029B
:102EB00082E00E94520781110AC09FEBE4EDF1E02D
:102EC0009150E040F040E1F700C00000E0CF81E029
:102ED0000E94870B2FEB34ED91E021503040904061
:102EE000E1F700C00000882391F28FE0ECE6F0E00B
:102EF000DE01119601900D928A95E1F781E18093B0
:102F00003C02FE013196ADE3B2E0CE014096219144
:102F10002D938E179F07D9F78BEA80933B0281E1AF
:102F20000E945207882319F08BE20E94870B84E1EC
:102F300080933B0286E080933C0210923D02109207
:102F40003E0210923F02109240020E94520780E619
:102F500090E0909353018093520185B7886085BFBC
:102F60008BB780688BBF8BE4809392028093C702FB
:102F700080939E028AE5809391028093C60280939B
:102F80009D028B9A80E0815009F06EC08B987894F6
:102F9000FFEB24ED31E0F15020403040E1F700C07C
:102FA00000008BE083BF8BEB8CBF82E089BFACEA73
:102FB000B0E022EB30E041E050E08D91E82FE29567
:102FC000EF70F0E011A98F70BA0101C0660F8A9509
:102FD000EAF7962F9095912391AB82A9862B82AB2D
:102FE0002A173B0751F7A2EBB0E041E050E08D918A
:102FF000E82FE295EF70F0E061A98F709A0101C0AF
:10300000220F8A95EAF7922F9095962391AB82A989
:10301000822B82AB80E0A23CB80749F7E4E5F1E0FF
:1030200080E691E0A4E7B1E0119211921D921D9209
:103030008E179F07C9F70E94B90AEFE2F5E73197AB
:10304000F1F700C000000E94B90A8091740180FF6E
:1030500013C080E00E945F0E6FEF7FEF90E080E092
:103060000E940E1B0E94770EA895E7EBFBE03197BC
:10307000F1F700C0000087CF90E080E00E94EB1ADB
:103080008C3E9E4F11F00E94900E82E290E00E94D2
:10309000E31A813209F04CC283E290E00E94E31A05
:1030A000823009F045C284E290E00E94E31A883041
:1030B00009F03EC290E080E00E94EB1A8C3E9E4FE9
:1030C00011F00E94900E82E090E00E94E31A80933B
:1030D00063010E94CC0B909361018093600183E0B7
:1030E00090E00E94E31A682F70E090E080E00E9478
:1030F000710610E0BB24BA945AED252E60E1362EFD
:1031000070EC472EE9E05E2EF0E8CF2EF1E0DF2EE6
:10311000ACE0AA2E8091AC02882309F477C010920B
:10312000AC020E94DE047C010E948D0780910F0298
:10313000882309F44EC08091910284FF4AC00E9406
:10314000B90AE4E6F1E0A4E7B1E010E000E0602FA6
:103150008D919D91219131912817390709F472C001
:103160002827392770E088248394912CA4014223D6
:103170005323452B09F460C079836A839401282383
:10318000392391E0232B09F490E09B830E94DE0415
:103190008160782F9D838C8349815A816B818D81D9
:1031A0000E949016000F111FF801EC59FE4F80810C
:1031B000918188269926918280820E947B06909137
:1031C0006201891731F00E947B06809362010E94A0
:1031D000B00B0E9459090E948D0780910F0288232D
:1031E00009F44EC08091C60284FF4AC08091050256
:1031F000803209F045C0E0911702E150E33108F058
:1032000086C0F0E0E35BF44E0C94D61AC7010E942E
:10321000CF04069718F4112309F486CF0E94B90A47
:10322000E4E7F1E081919191892B09F068C1CE1614
:10323000DF06C1F711E06ECF7F5F880C991C7031FB
:1032400009F094CF0F5F1F4F0630110509F07FCFB3
:10325000B88AB98A1A8A0E94DE048160782F9C8B12
:103260008B8B488959896A898C890E949016A5CFD1
:1032700010921802509219020E9400091092050241
:1032800010E048CF80911802823009F45EC183308B
:10329000C1F08130E1F52FB7F89460917001709121
:1032A000710180917201909173012FBF0E94DC1A0D
:1032B0006093190270931A0280931B0290931C0270
:1032C000DBCFA7E1B2E0E4E7F1E0808191813296C3
:1032D00012969C93129713968C931397129631E043
:1032E000E038F30791F7C8CF80911802823079F463
:1032F0006091190270911A0280911B0290911C0238
:103300000E94DC1A85E290E00E94F11AB5CFB092DB
:103310001702B2CF40911A026091190280911802EF
:103320000E94DA0B98278927982790931C02809394
:103330001B02A2CF80901B0290901C02982489242B
:103340009824809118020091190290E2099F80014F
:103350001124849D000D111D112480911A0290E00A
:10336000880F991F080F191F692DC80186960E94A2
:10337000F11A682DC8018796C7CF0E94FC0D7CCF3B
:103380003092180279CF109218022092190274CF4D
:10339000009118021091190210270127102737E118
:1033A000632E32E0732E80901A02912CF401E95EB4
:1033B000FD4F4F01C8018A5D9C4F8614970409F4A4
:1033C0005BCF0A3D110550F40E94E31AF301848398
:1033D0000F5F1F4FFFEF6F1A7F0AECCFF3011482CC
:1033E000F7CF00911802109119021027012710271A
:1033F00027E1622E22E0722E80901A02800E912E1A
:10340000911CC8018A5D9C4F8016910609F434CF47
:103410000A3D110520F4F30164810E94F11AFFEFC7
:103420006F1A7F0A0F5F1F4FECCF0E944F0E24CF01
:1034300024E02093180220CF009118021091190265
:1034400010270127102797E1692E92E0792E8090AE
:103450001A02912CC401895E9D4F4C01C8018696C9
:103460008614970409F408CF0115E3E01E0750F411
:103470000E94E31AF30184830F5F1F4FFFEF6F1A5F
:103480007F0AECCFF3011482F7CF0091180210915C
:10349000190210270127102787E1682E82E0782E75
:1034A00080901A02800E912E911CC80186960815F4
:1034B000190509F4E1CE011523E0120720F4F30108
:1034C00064810E94F11AFFEF6F1A7F0A0F5F1F4F8E
:1034D000ECCF80E00E945F0E6FEF7FEF90E080E026
:1034E0000E940E1BC9CE0E9400092FE739EA83E033
:1034F000215030408040E1F700C00000B3CDF89487
:1035000091B3939A892F8C6081BB82B38A2582BB49
:10351000EFE5FAEE20E0E150F0402040E1F700C096
:10352000000082B38A2582BB91BB9398789482CEA7
:1035300060E085E290E00E94F11A0E94FC0D0E947A
:103540004F0E81E00E945F0EB5CD85E290E00E94B3
:10355000E31A1092190210921A0210921B02809321
:103560001C028ACE78941F921FB61F9211248F934B
:103570009F93AF93BF938091700190917101A0913F
:103580007201B09173010196A11DB11D809370016C
:1035900090937101A0937201B0937301BF91AF91A9
:1035A0009F918F911F901FBE1F901895EE0FFF1FC8
:1035B0000590F491E02D09946927962769277827CB
:1035C000872778270895E199FECF9FBB8EBBE09AAD
:1035D00099278DB30895A8E1B0E042E050E00C9443
:1035E000231B262FE199FECF9FBB8EBBE09A01974C
:1035F0000DB2021631F02DBB0FB6F894E29AE19AA3
:103600000FBE08950396272F0E94F21A0E94F11A06
:10361000252F0E94F21A242F0C94F21A0196272FBC
:103620000E94F21A0C94F11A262FE199FECF9FBB4B
:103630008EBB2DBB0FB6F894E29AE19A0FBE0196AD
:103640000895DC01CB01FC01E199FECF06C0FFBB70
:10365000EEBBE09A31960DB20D9241505040B8F752
:103660000895F894FFCFE70DE70DF00DF00DF20D82
:10367000F00DF00DF00DE70DE70DF70DF00DF00D6D
:10368000F70DCA11CA113B123B129112FF11FF1123
:10369000FF11AB128113901390133819421974194A
:1036A0008A199A19BD19871987198719691A731AFE
:1036B000C019C319C819F119151A181A1C1A451A74
:1036C000CC048809CB0455095109FF5A070707079D
:1036D0000707070707070707070707818283E20035
:1036E000E900EA00B500B600B700CD008301CC00C8
:1036F0008A0192019401210223022402250226025A
:1037000027022A02B300B4006F0070003233343550
:103710003637909192939495969760616263646551
:023720006667DA
:00000001FF
