:100000000C942C030C9470030C948B030C947003CD
:100010000C9470030C9470030C9470030C94700394
:100020000C9470030C9470030C94F8200C947003DF
:100030000C9470030C9470030C9470030C94700374
:100040000C9470030C9470030C9470030C94700364
:100050000C94700329003A003B003C003D003E0038
:100060003F004000410042004300440045004C0076
:100070004700480035001E001F002000210022001C
:10008000230024002500260027002D002E004C0010
:100090002A004A002B0014001A000800150017005F
:1000A0001C0018000C00120013002F00300031005B
:1000B0004D000000394104001600070009000A0045
:1000C0000B000D000E000F0033003400320028003A
:1000D0004B000000E10064001D001B000600190039
:1000E000050011001000360037003800E500000060
:1000F00052004E00E000E300E200000000000000BB
:100100002C0000000000E600E7000000E4005000C2
:1001100051004F0001000100010001000100010039
:1001200001000100010001000100010001000100C7
:1001300001000100010001000100010001000100B7
:1001400001000100010001000100010001000100A7
:100150004C0001000100010001000100010001004C
:1001600001000100010001000100AA00A900010036
:100170000100000001000100010001000100010078
:100180000100010001000100010001000100010067
:100190000100000001000100010001000100010058
:1001A00001000100A80001000100010001000000A1
:1001B000010001000100010001000000000000003A
:1001C000010000000000010001000000010001002A
:1001D0000100010001000100010001000100010017
:1001E0000100010001000100010001000100010007
:1001F00001000100010001000100010001000100F7
:1002000001000100010001000100010001000100E6
:1002100001000100010001000100010001000100D6
:1002200001000100010001000100010001000100C6
:1002300001000000010001000100010001000100B7
:1002400001000100010001000100010001000100A6
:100250000100000001000100010001000100010097
:100260000100010001000100010001000100000087
:100270000100010001000100010000000000000079
:100280000100000000000100010000000100010069
:100290000100010001000100010001000100010056
:1002A0000100010001000100010001000100010046
:1002B0000100010001000100010001000100010036
:1002C0000100010001000100010001000100010026
:1002D0000100010001000100010001000100010016
:1002E0000100010001000100010001000100010006
:1002F00001000000010001000100010001000100F7
:1003000001000100010001000100010001000100E5
:1003100001000000010001000100010001000100D6
:1003200001000100010001000100010001000000C6
:1003300001000100010001000100000000000000B8
:1003400001000000000001000100000001000100A8
:100350000100010032190A00047F3F1F6432146457
:100360003214783C1E1E140A052223252628292A29
:100370002C2D2F3032333536383A3B3D3E40424308
:100380004547494A4C4E5051535557595A5C5E6047
:1003900062646668696B6D6F71737577797B7D7F59
:1003A00081838587898A8C8E90929496989A9C9E58
:1003B0009FA1A3A5A7A8AAACAEAFB1B3B4B6B8B974
:1003C000BBBCBEBFC1C2C3C5C6C7C9CACBCCCDCEDC
:1003D000D0D1D2D2D3D4D5D6D7D7D8D9D9DADADBBF
:1003E000DBDBDCDCDCDCDCDDDDDDDDDCDCDCDCDC4B
:1003F000DBDBDBDADAD9D9D8D7D7D6D5D4D3D2D28A
:10040000D1D0CECDCCCBCAC9C7C6C5C3C2C1BFBE71
:10041000BCBBB9B8B6B4B3B1AFAEACAAA8A7A5A3DC
:10042000A19F9E9C9A98969492908E8C8A8987859B
:1004300083817F7D7B79777573716F6D6B6968667A
:100440006462605E5C5A5957555351504E4C4A494C
:1004500047454342403E3D3B3A3836353332302FF4
:100460002D2C2A292826252322FFAA7F554000016A
:100470000101010101010101020202020202020264
:100480000203030303030303030404040404040436
:1004900005050505050606060606070707070708FA
:1004A000080808090909090A0A0A0B0B0B0C0C0CAD
:1004B0000D0D0D0E0E0E0F0F0F1010111111121247
:1004C00013131414151516161717181819191A1AC4
:1004D0001B1B1C1D1D1E1E1F202021222223242425
:1004E000252626272829292A2B2C2D2D2E2F303161
:1004F0003232333435363738393A3B3C3D3E3F4073
:100500004142434445464748494A4C4D4E4F50515D
:100510005354555658595A5B5D5E5F616264656617
:1005200068696B6C6D6F7072737577787A7B7D7E9E
:100530008082838587888A8C8E8F91939596989AEE
:100540009C9EA0A2A3A5A7A9ABADAFB1B3B5B7BA06
:10055000BCBEC0C2C4C6C9CBCDCFD1D4D6D8DBDDDA
:10056000DFE2E4E7E9EBEEF0F3F5F8FAFDFF09026C
:100570003B00020100A0FA09040000010301010090
:100580000921010100012240000705810308000143
:1005900009040100010300000009210101000122FA
:1005A000320007058303080001120110010000005A
:1005B00008A02052410001010203010403300000A1
:1005C0000010034C005A00200043004C0053006D03
:1005D0000000000C034C00650065004B0075000036
:1005E000000403090405010980A101850319012AFA
:1005F000B700150126B700950175108100C0050CE4
:100600000901A101850419012AA002150126A002F1
:10061000950175108100C005010906A101050719A2
:10062000E029E715002501950875018102950175FE
:100630000881030507190029FF150026FF0095060C
:1006400075088100050819012905950575019102B4
:10065000950175039103C00011241FBECFE5D8E0BA
:10066000DEBFCDBF04B603FE24C08091D8039091B5
:10067000D903A091DA03B091DB038730904BA740F8
:10068000B04BB9F41092D8031092D9031092DA0348
:100690001092DB0314BE84B7877F84BF0FB6F89433
:1006A000A89581B5886181BD11BC0FBEE0E0F8E37B
:1006B000099511E0A0E6B0E0ECEEFBE402C0059085
:1006C0000D92A636B107D9F723E0A6E6B1E001C046
:1006D0001D92A83DB207E1F70E9457210C94C62550
:1006E0000C940000A82FB92F80E090E041E050EA80
:1006F000609530E009C02D9182279795879510F07D
:1007000084279527305EC8F36F5FA8F30895EADF6A
:100710008D939D930895CF93CFB7CF93C395839B2C
:10072000E9F7839B0EC0839B0CC0839B0AC0839B0D
:1007300008C0839B06C0C091AF03C395C093AF03AD
:10074000A6C0DF93C091AE03DD27CA54DC4F839B64
:1007500002C0DF91E6CF2F930F931F9300B32FEFCB
:1007600003FB20F94F933F9310B34FEF012703FB97
:1007700021F93BE031C04E7F012F10B3216028C02A
:10078000102F4D7F2260000000B329C04B7F2460F2
:10079000012F000010B32BC010B3477F28602AC080
:1007A0004F7E00B320612CC04F7D10B320622FC05C
:1007B0004F7B00B3206432C0422700B349934FEF10
:1007C0000000102713FB20F910B31C70C9F1297F1A
:1007D00091F2012703FB21F900B3237F89F2315005
:1007E00058F1102713FB22F910B3277E79F2012765
:1007F00003FB23F92F7C81F200B3102713FB24F9AC
:100800002F7971F200C010B3012703FB25F92F7374
:1008100059F200C000B3102713FB26F9223040F232
:1008200000C010B3012703FB27F9243028F64F77C7
:10083000206810B30000F9CF10E81ABF00271CC0D1
:100840003B503195C31BD04010E81ABF0881033CD0
:1008500011F10B3401F12091AB031981110F121327
:10086000EDCF4A81441F093669F10D3211F0013E86
:1008700029F74F7009F0042F0093B4033F914F9173
:100880001F910F912F91DF91CAB7C7FD47CFCF912D
:10089000CFBFCF9118952091B403222379F3109103
:1008A000B203112309F044C034300AF443C030933A
:1008B000B2032093AD031091AE033BE0311B3093A4
:1008C000AE0338C00091B203013094F50AE54F70D1
:1008D00049F43091B30034FD2FC00093B300C8E851
:1008E000D3E02EC0433059F0443091F0309193035F
:1008F00034FD22C000939303C4E9D3E021C03091BA
:10090000CC0334FD19C00093CC03CDECD3E018C068
:1009100030919F0334FD10C000939F03C0EAD3E0E1
:100920000FC02795A8F45150A9F4220F0000F9CF69
:100930004AE503C042ED01C0432FC4E1D0E032E0FC
:1009400011B31C60939A11BB02B320E41CE05F93C7
:10095000012756E002BB279520F4515021F4220FC5
:10096000F9CF012756E000003B5A02BBD0F2279591
:1009700028F4515029F4220F0000F9CF012756E046
:10098000279502BB20F4515021F4220FF9CF012703
:1009900056E02991332302BB21F6037F1091B30364
:1009A000110FC651D04002BB11F01093AB0310E8F9
:1009B0001ABF086011B3137F402F437F5F9100C0BF
:1009C00000C002BB11BB42BB59CF1F93CF93DF9333
:1009D000182F1470D82FD270C82FC17020E0412F6B
:1009E0006D2F8C2F0E94160687EB9BE00197F1F785
:1009F00000C0000020E0412F6D2F8C2FDF91CF91A0
:100A00001F910C941606CF93DF93CDB7DEB72F97C7
:100A10000FB6F894DEBF0FBECDBF8FE0E4EBF0E081
:100A2000DE01119601900D928A95E1F761E0CE0109
:100A300001960E9488062F960FB6F894DEBF0FBE6F
:100A4000CDBFDF91CF910895CF93DF93CDB7DEB7C0
:100A50002F970FB6F894DEBF0FBECDBF88E0898315
:100A60008A838B83909192009C838D838E838F8366
:100A7000888789878A878B878C878D878E878F87E2
:100A800061E0CE0101960E9488062F960FB6F89479
:100A9000DEBF0FBECDBFDF91CF9108950F93CF93EF
:100AA000DF93C5E1D0E0219721F4DF91CF910F9141
:100AB00008952FEB34ED81E0215030408040E1F784
:100AC00000C0000081E00E940C069FEB24ED31E0A5
:100AD000915020403040E1F700C00000882319F316
:100AE00000E020E040E060E080E00E94270687E927
:100AF0009AE30197F1F700C0000060E08091770071
:100B0000909178000E947D0687E99AE30197F1F7BA
:100B100000C000008091740094E0899FB00111240E
:100B200066587F4F40E00E94660687E99AE3019786
:100B3000F1F700C0000060E0809174000E945C0644
:100B400087E99AE30197F1F700C000006091750012
:100B50007091760040E085E1DF91CF910F910C9488
:100B6000000681110C9424050C9403050F938091C9
:100B7000520380FD09C000E020E040E060E080E03A
:100B80000E9427060F91089520E047E553E0609109
:100B90009600809197000F910C943706CF93DF93C6
:100BA000482F662331F1C091EF028C2F806880932B
:100BB000EF026FEE72E080EB0E94F206811104C03A
:100BC00080E0DF91CF910895CF73DAE041E06FEEDE
:100BD00072E080EB0E9420078091EF02C81771F04D
:100BE0008BE291E00197F1F700C00000D15071F75E
:100BF000E7CF6FEE72E080EB0E94F20681E0E1CF7A
:100C0000EFEEF2E0108295E0918382837483638338
:100C1000642F85E00C94CE05EFEEF2E091E0908336
:100C200092E09183682F82E00C94CE0593E090933C
:100C3000EF029093F002811184E061118260411112
:100C400081608093F102622F83E00C94CE050F93B4
:100C5000EFEEF2E094E1908396E091838283438308
:100C600064832583602F86E00F910C94CE05CF938B
:100C7000962FBA01C22F492F480F5527551F4531CE
:100C80005105BCF427E12093EF0220E42093F00209
:100C90008093F1029093F20293E0899FA0011124C6
:100CA00083EF92E00E944A256C2F80E4CF910C9450
:100CB000CE0580E0CF910895EFEEF2E098E19083C9
:100CC00093E09183828383E00C94CE0599E1909325
:100CD000EF0297E09093F002863008F085E0809371
:100CE000F10284E0FB01A2EFB2E001900D928A953F
:100CF000E1F7642F87E00C94CE05EFEEF2E02AE1F5
:100D0000208324E021839383828384E00C94CE05A6
:100D10002BE22093EF0221E12093F002E1EFF2E0D9
:100D20009C01215F3F4FDC014D91CD014193A21702
:100D3000B307C9F781E10C94CE05BC0180EE9EE2B9
:100D40000E946024CB01B0E0A0E04097A109B10966
:100D5000B695A7959795879580B986B7846086BF25
:100D600086B7806486BF089586B7806D86BF06B655
:100D700004FEFDCF089506B607FEFDCF089586B7A1
:100D8000806A86BF0E94BB0691B1987F81E098304F
:100D900019F0903109F080E08170089583B986B729
:100DA0008F70806886BF0E94BB0681B1982F987FA4
:100DB000983251F0983141F0982F987E81E090342C
:100DC00009F080E08170089581E0FCCF882319F05C
:100DD00086B7806486BF86B7806886BF0E94BB06E0
:100DE00083B10895EF92FF920F931F93CF93DF93F8
:100DF000C82FF62EE72E042F0E94BF06811109C0CE
:100E000010E0812FDF91CF911F910F91FF90EF9014
:100E100008958C2F8E7F0E94CE06182F882381F391
:100E2000011103C00E94B406ECCFCF2DDE2D8991B5
:100E30000E94CE06882321F30150FC2EED2EF0CF28
:100E4000EF92FF920F931F93CF93DF93C82FF62E4D
:100E5000E72E042F0E94BF06811109C010E0812FE8
:100E6000DF91CF911F910F91FF90EF9008958C2FFC
:100E700081600E94CE06182F882381F3CF2DDE2DAE
:100E80000F0D04C081E00E94E6068993802F8C1B21
:100E90008230C0F780E00E94E60688830E94B40694
:100EA000DECF8FEF8BBB1ABA88BB17BA85BB14BADB
:100EB00081EF82BB83E081BB80E991E00E949D06C7
:100EC00088E19FE00FB6F894A89581BD0FBE91BD53
:100ED0000895A8950C94FE0981E0089581E0089595
:100EE0000C946E0708950C9472071F93CF93DF93B1
:100EF00000D000D00F92CDB7DEB749835A836B8301
:100F00003091D20189819A8131111DC06623B9F0D7
:100F10002223A9F00E94881E182F682F89819A81A8
:100F20000E94351E69817A81812F0F900F900F905A
:100F30000F900F90DF91CF911F910C9420080E9489
:100F4000611E182FEFCF0E94881E69817A81EDCF34
:100F5000FC01262F408151816281738184810C9430
:100F60007507CF93DF93EC0160E00E94A807BE01F4
:100F7000DF91CF910C9473070E94BF1F811102C0B3
:100F80000E9465200E944E050C94FC090C94690790
:100F900008950E94141A0E94C8072FEB87E299E077
:100FA000215080409040E1F700C000000C941C21CB
:100FB0000F931F93CF93DF93EC0161E00E94A8078A
:100FC0008C01BE010E947007882389F1BE01C8010F
:100FD0000E942913882359F1BE01C8010E94E4131D
:100FE000882329F1BE01C8010E9436148823F9F034
:100FF000BE01C8010E9459158823C9F0BE01C8016D
:101000000E94F911882399F08A81882339F001150B
:101010008CE5180751F00E3D1C4579F0CE01DF91AB
:10102000CF911F910F910C946C070E94C90780E02B
:10103000DF91CF911F910F9108950E946520F7CF06
:10104000E72FF0E096E0899FE00DF11D112484E088
:10105000EE0FFF1F8A95E1F7E60FF11DEE0FFF1F60
:10106000EC5AFF4F859194910895CF93DF930E949E
:1010700020080E942109EC01811522E59207E8F57C
:10108000811531E5930708F0ACC0883E910510F555
:10109000803E910570F5883A910570F4853A910586
:1010A00008F078C08130910521F1009711F1049783
:1010B00000F5D0E0C0E01DC08F3B9105D0F7C85AC5
:1010C000D0E0CC0FDD1FCD53DF4F0990D881C02D6C
:1010D000D4640FC0811540E5940708F066C0C115BF
:1010E00080E4D80708F05EC0CE019A9581159F4133
:1010F00000F7CE01DF91CF910895811536E5930772
:1011000018F5811545E5940708F083C0C11584E5FD
:10111000D80708F079C09C2F969596959E0123706C
:101120003327C115D34508F461C0C1E0D0E002C047
:10113000CC0FDD1F2A95E2F730E2939FC001112406
:10114000C82BD92BDA68D5CFC1158AE5D80778F432
:10115000C11599E5D90708F066C0C11528E5D20781
:1011600008F4A7CFDC2FCC27C06FD06AC2CFCE0146
:1011700090568115904208F09CCF8D2F8F710E9460
:10118000B80990E0982F882788279F719C012C2B05
:10119000E90147C0C55AD0E0CF50DF4FC881D0E049
:1011A000D064A7CFDF70D06AA4CFE4E0969587958E
:1011B000EA95E1F783702C2F26952695237040E25F
:1011C000249F90011124382B8C2F8370C1E0D0E034
:1011D00002C0CC0FDD1F8A95E2F7C22BD32BDC684F
:1011E00088CFD82FCC27C16FD06A83CFC1E0D0E0A1
:1011F00002C0CC0FDD1F2A95E2F720E2929FC001CA
:101200001124C82BD92BEBCFDC2FCC27C46FD06A8D
:1012100070CF0E94B809C82FD0E0DC2FCC27CC2794
:10122000DF71D06266CF8C2F8F700E94B80934E0D6
:10123000D695C7953A95E1F7CF709C2FEC01D06910
:1012400058CF82389105B1F1B0F48133910509F49A
:1012500075C048F48932910509F469C08A32910554
:1012600009F473C008958533910509F459C0893391
:10127000910501F10895833E9105A9F138F4803E6E
:101280009105F9F0823E910549F10895863E910558
:10129000A9F1873E9105C9F1843E910519F5209188
:1012A000870321FF1FC08091860384FD14C087EE51
:1012B00090E00895209186032370A1F080EE90E0E5
:1012C00008952091860320FD47C03091870330FFA9
:1012D00009C024FF44C090E080E004C02091860350
:1012E00022FDF7CF08952091860322FD3BC0309167
:1012F000870330FDE3CF24FFF5CFEDCF20918603A8
:1013000023FFF0CF24FDE7CFD2CF2091860323FD2A
:101310002CC03091870331FFEECF84EE90E008952A
:101320002091860325FFDECF89E290E00895209189
:10133000860325FFD7CF85E390E0089520918603AB
:1013400026FFD0CF8AE290E008952091860326FF01
:10135000C9CF81E390E0089589E390E0089583EE9A
:1013600090E0089582EE90E0089586EE90E0089572
:101370009091860392FF06C0282F28712830F9F437
:10138000877F846093FF06C0282F28712831F1F4ED
:10139000877E84612091870320FF06C0382F387133
:1013A0003830D9F4877F816021FF06C0282F28714B
:1013B0002831D1F4877E816194FD877E0895282F9E
:1013C00024712430F9F68B7F8860DCCF282F2471BC
:1013D000243101F78B7E8861DDCF382F31713130B8
:1013E00019F78E7F8860E0CF282F2171213121F7F6
:1013F0008E7E8861E1CF08950C94FB090895E82F53
:10140000F0E0EE0FFF1FEA5BFC4F808191810895B1
:10141000089588E78A95F1F70895A4E0B1E061E0C6
:1014200070E08D91E82FE295EF70F0E041A98F70A8
:101430009B0101C0220F8A95EAF7922F9095942381
:1014400091AB82A9822B82AB81E0AA30B80749F721
:10145000A4EFB0E061E070E08D91E82FE295EF70CD
:10146000F0E041A98F709B0101C0220F8A95EAF735
:10147000922F9095942391AB82A9822B82AB81E02D
:10148000A430B80749F7EAE3F3E0A6E4B3E086E462
:1014900093E0119211921D921D928E179F07C9F72A
:1014A00086E00E94DC0A0C94BC078F929F92AF9258
:1014B000BF92CF92DF92EF92FF920F931F93CF9341
:1014C000DF9384E0E82E81E0F82E0AE313E0912C0C
:1014D000AA24A394B12CF70181917F01C82FC29552
:1014E000CF70D0E099A98F70650101C0CC0C8A95AE
:1014F000EAF7892F8C2989AB8AA98C2C80948821C2
:101500008AAB0E94090AE4EFF0E050E040E030E0EE
:1015100020E06191A62FA295AF70B0E0D0968C919B
:1015200090E06F7002C0959587956A95E2F780FD0F
:101530003EC0C501042E02C0880F991F0A94E2F72D
:10154000282B392B4F5F5F4F4031510511F789A987
:10155000882289AA8AA9C82ACAAAF8018081918109
:101560002817390739F13183208381E0982A0E5FEB
:101570001F4FFAE0EF16F1E0FF0609F0ACCF292D7E
:1015800046E066E473E08AE393E00E94DD0A0E948D
:10159000C607892DDF91CF911F910F91FF90EF909A
:1015A000DF90CF90BF90AF909F908F90089590E084
:1015B00080E0C6CF80E0DACF0895FF920F931F93AB
:1015C000CF93DF93F82E092F162FD72FC42F222366
:1015D00049F081E0809368010E94DD2090936701CB
:1015E00080936601809168018823A1F08091660153
:1015F000909167010E94E920069760F0EF2DF02F8F
:10160000A12FBD2F90E080E0D0E08C179D0744F023
:1016100010926801DF91CF911F910F91FF90089573
:10162000219131912D933D930196EFCFEF92FF924F
:101630000F931F93CF93DF93EB01E82FD11110C0CD
:10164000442321F0F0E0E259FB4FE4916E2F7E2F0E
:101650008E2FDF91CF911F910F91FF90EF90089502
:101660000D2F10E0282F30E0442329F022593B4F62
:10167000F901249130E0F6E0CF9FC0011124EFEF93
:10168000F0E0BF010E946024AB018C2F90E0880F36
:10169000991FA5E5A49FB001A59F700D1124861B7D
:1016A000970B982F990F980FBF01601B710B629FCA
:1016B000D001639FB00D729FB00D11248B2F9D9FA1
:1016C000B0011124672F7727EF01C61BD70BBE018E
:1016D000629FE001639FD00D729FD00D11247F01A6
:1016E000E91AF108E09EB001E19E700DF09E700DC8
:1016F0001124672F7727E61BF70BE29F8001E39FFA
:10170000100DF29F100D1124E12F722F4230510560
:1017100099F048F44115510569F04130510581F0C7
:10172000EB2F8D2F07C04430510569F080F0463013
:101730005105B1F76E2F8DCFE22F7B2F812FFACF7E
:10174000E22F7D2FF7CFEB2F822F712FF3CF7B2F3F
:10175000822FED2FEFCF41E00C94160B0895CF931D
:10176000DF93762FE901682F842F0E94AB0B7983DA
:1017700068838A83DF91CF910895493C08F048EC53
:101780000C94AF0BEF92FF921F93CF93DF93EC017A
:1017900010E0EE24EA94F12C60919A00161770F094
:1017A0000E94B6059A818C8190FF27C08F5F8C8341
:1017B000DF91CF911F91FF90EF90089520919800B5
:1017C000422F410F5527551FCA019A01220F331F7F
:1017D000280F391F295A3C4F70E0C7010E9474241A
:1017E000962F8C814091550360915403199F800D71
:1017F00011240E94BD0B1F5FCFCF8150D8CFAF9275
:10180000BF92CF92DF92EF92FF920F931F93CF93ED
:10181000DF93FC0182810FEF80FF01E010E04EE0DA
:10182000A42E80919A001817C8F00E94B6058091E6
:101830006B01013009F055C0811102C080919A00FE
:10184000815080936B01DF91CF911F910F91FF9099
:10185000EF90DF90CF90BF90AF900895C091980027
:10186000C12ED12CCC0DDD2DD11DCE01880F991F9D
:10187000C80FD91FC95ADC4F198218821A8234E066
:10188000E32EF12CB12C80916B018B0D8F301CF16C
:101890006A2D0E945224892F082E000C990BC8161D
:1018A000D90691F4809155038E9DA0018F9D500D16
:1018B000112455954795559547959E016091540380
:1018C000809153030E94BD0BB00EF1E0EF1AF108B6
:1018D000D1F61F5FA6CF87FFDFCF90919A00890FC7
:1018E000DBCF90E0019660919A0070E00E94742432
:1018F000A8CF0F931F93CF93DF938091980090917F
:10190000990023E0829FF0011124E95AFC4F8917C6
:1019100040F1C0E0D3E060919A00C61740F10E9408
:10192000B6052091940080916A01820F80936A012C
:1019300090919500920F90939500191654F4082EEB
:10194000000C990B40919A004150550B8417950754
:101950001CF0219520939400DF91CF911F910F915E
:1019600008951182108212828F5F3396D0CF0C2F90
:1019700010E070E0C8010E94742420919800820F4A
:10198000482F50E020916A01022E000C330B021701
:101990001307BCF020919500022E000C330B20178A
:1019A00031077CF08D9F90011124295A3C4F4091C2
:1019B000550360915403809153030E94BD0BCF5F88
:1019C000AACFFA01EE0FFF1FE40FF51FE95AFC4FF3
:1019D000118210821282F3CF8F929F92AF92BF92A8
:1019E000CF92DF92EF92FF920F931F93CF93DF93EB
:1019F000EC014C81042F10E09801D8010E94B8241A
:101A00009B01AC010E94CE244B015C01E0E2F0E0BE
:101A1000E01BF10BA5E5B0E0AC019B010E94CE24D8
:101A20006B017C019F01DF010E94B0249B01AC018E
:101A30000E94D9249B01AC01280D391D4A1D5B1D54
:101A4000C701B6010E948824F22E822F90E039E26D
:101A50003F1560F143E0249F9001112435952795AF
:101A6000122F109500E085E5E82EEF1880919A007E
:101A7000081758F10E94B6059C8181E0992319F05E
:101A8000903219F48FEF8093930080919300890F27
:101A90008C83DF91CF911F910F91FF90EF90DF909A
:101AA000CF90BF90AF909F908F90089525E530E044
:101AB000B901681B790B9B01220F331F260F371FBB
:101AC00037FFCCCF2F5F3F4FC9CF8E2D01FD8F2D1C
:101AD00020919800622F600F7727771F9B01220FBC
:101AE000331F260F371F295A3C4F412F6091540353
:101AF0000E94BD0B0F5FBACF0F931F93CF93DF935D
:101B0000EC0110E000E090919A009017110609F0A6
:101B10006CF40E94B6058C8190E001968170992743
:101B20008C83DF91CF911F910F91089520919800A0
:101B3000A801420F511D9A01220F331F240F351F98
:101B4000295A3C4F4C8160915403809153039695E0
:101B50009017110651F04CF0442349F04091550381
:101B60000E94BD0B0F5F1F4FCECF4423B9F340E05F
:101B7000F7CF8F929F92AF92BF92CF92DF92EF9268
:101B8000FF920F931F93CF93DF93FC01B280948059
:101B900081E0848300E015E05BE4A52E8824839433
:101BA000EE24EA94F12C7BE4C72ED12C80919A008C
:101BB000081770F0DF91CF911F910F91FF90EF9078
:101BC000DF90CF90BF90AF909F908F900C94B60510
:101BD000C02FD0E01C9FF0011D9FF00D1124E4598F
:101BE000FE4F91101CC01382128220919800CE01EA
:101BF000820F911D9C01220F331F280F391F295A74
:101C00003C4F1C9FF0011D9FF00D1124E459FE4F25
:101C10004281618180810E94BD0B0F5FC7CF23810C
:101C2000222379F12150238334818A2D821B3111A3
:101C300001C0822F1C9FF0011D9FF00D1124E4595B
:101C4000FE4F90915503899FC0011124B6010E9457
:101C500060246283211104C0332311F01482A38213
:101C600022E02B1510F21C9FF0011D9FF00D112496
:101C7000E459FE4F80915303808380915403818304
:101C8000B4CF0E942D25823091400CF0AECF82E07F
:101C90008B1530F50E942D25B7010E9474241C9FDE
:101CA000F0011D9FF00D1124E459FE4F808322E0C6
:101CB0002B15C8F40E942D25209154032695622FE0
:101CC00070E00E947424280F1C9FF0011D9FF00DEE
:101CD0001124E459FE4F21831282A382848285CF8E
:101CE00080915303DCCF20915403EECF80915203B7
:101CF000982F9E7F61F4817082608093520380915F
:101D00005503893C18F088EC809355030895863577
:101D1000B0F381708465F1CF88E090E00C945B258E
:101D2000CF92DF92EF92FF926B017C010E94760EC0
:101D3000B701A60188E090E0FF90EF90DF90CF9090
:101D40000C947825E2E5F3E083E0808311828FEF45
:101D5000828388EC83831482608171818281938184
:101D60000C94900E8091520380FF02C086950895D6
:101D700080E00895E2E5F3E080818E7F80836081DA
:101D80007181828193810E94900E1092BA012FEB93
:101D900084ED91E0215080409040E1F700C00000C8
:101DA0000C94B60590915603933018F49F5F90936E
:101DB0005603882351F06091520370915303809130
:101DC0005403909155030C94900E089581E00C9467
:101DD000D20E90915603992319F091509093560387
:101DE000882351F060915203709153038091540302
:101DF000909155030C94900E089581E00C94E90E97
:101E00009091520390FF14C09091980020919900F6
:101E100033E0939FF0011124E95AFC4F921710F020
:101E20000C94B6058183608342839F5F3396F6CF1F
:101E30000895CF93DF9300D00F92CDB7DEB7909186
:101E4000520390FF0AC09E012F5F3F4F0E94BD0BBF
:101E50004B8169818A810E94000F0F900F900F9033
:101E6000DF91CF910895CF93DF93EC01EC81F0E007
:101E7000E759FC4F4491E2E5F3E0628181810E94E1
:101E8000190F8C818F5F8C83DF91CF910895CF9351
:101E9000DF93EC01E2E5F3E0438162818C810E94F3
:101EA000190F8C818F5F8C83DF91CF910895AF9252
:101EB000BF92CF92DF92EF92FF920F931F93CF9337
:101EC000DF9300D00F92CDB7DEB7182FF62E042F78
:101ED000E22E9091520390FF29C0E92FE695AE2F94
:101EE000B0E0A65FBE4F8C918093B9019E7F923087
:101EF00059F59E012F5F3F4F812F0E94BD0B4B81F3
:101F000069818A810E94000F10935303F092540359
:101F100000935503EE2051F06091520370915303EA
:101F200080915403909155030E94900E0F900F9052
:101F30000F90DF91CF911F910F91FF90EF90DF9065
:101F4000CF90BF90AF900895823019F4009155035F
:101F5000DBCF863019F410915303D6CF8930D9F3F3
:101F6000893191F6E9518E2F8170D82EE695F0E0F7
:101F7000E759FB4FA590B490C12CBB2460919A0007
:101F8000C61618F00E94B605BFCF2C2D30E0A29ED9
:101F9000C001A39E900DB29E900D112470E00E948E
:101FA0006024812FD11013C0860F40919800420FFA
:101FB000532F511D9A01220F331F240F351F295A09
:101FC0003C4F402F6F2D0E94BD0BC394D7CF861B73
:101FD000ECCFE2E5F3E09181282F438162818AE032
:101FE000890F0C94570F81E00C94E90FE2E5F3E0C0
:101FF0009181282F4381628186EF890F0C94570FBE
:1020000081E00C94F60FE2E5F3E0628121E1620FDA
:1020100008F46FEF282F438181810C94570F81E0E2
:102020000C940310E2E5F3E0628121E1621B08F405
:1020300060E0282F438181810C94570F81E00C943C
:102040001210E2E5F3E0438121E1420F08F44FEF83
:10205000282F628181810C94570F81E00C9421100C
:10206000E2E5F3E0438121E1421B08F440E0282F40
:10207000628181810C94570F81E00C94301020E034
:102080000C94570F0F931F93CF93DF9300D00F92B1
:10209000CDB7DEB78C018091690181110AC09E0124
:1020A0002F5F3F4F48EC6FEF0E94BD0B8A818093FA
:1020B0006901F8016481613069F08091690140E053
:1020C000662361F040E0623011F44091690180E0E4
:1020D00060E004C06091690140E080E00E94000F70
:1020E000F801848190E0019663E070E00E9474241E
:1020F00084830F900F900F90DF91CF911F910F91DC
:10210000089560915203669570E04BE050E08BE9D2
:1021100090E00E943D25892B19F481E08093BA015B
:102120000E94DD209093B3018093B20108959091B5
:10213000520390FF35C09170811128C09260909336
:102140005203662351F060915203709153038091C2
:102150005403909155030E94900E6091520366952E
:1021600070E04BE050E08BE990E00E943D25892B28
:10217000A1F01092BA0181E08093B501409155031E
:1021800060915403809153030C943F108B3210F0F4
:102190009465D5CF880F982BD2CF0E948110EBCFBA
:1021A0000895682F90915203969581E0890F8B32A4
:1021B00008F081E00C94971081E00C94D110682F06
:1021C0009091520396958FEF890F09F48AE20C944F
:1021D000971081E00C94DF1061E00C949710E2E519
:1021E000F3E080818160808386950C94EC1080916F
:1021F000520380FD0C94BA0E0C94EF1060E00C9426
:1022000097108091B80181112EC00E94BF1F8111CB
:1022100004C00E9465200E94A20E0E948C0E609352
:1022200052037093530380935403909355036E7F2E
:1022300061F40E94A20E0E948C0E60935203709370
:10224000530380935403909355030E94760E10928B
:10225000BA018091520380FF03C086950E94FE1050
:1022600081E08093B80108950F931F93CF93DF937C
:102270008091BA01882309F49DC08091B901E09151
:102280005203E695E81BE093B4018230C9F5F0E013
:10229000EB59FC4FE491CE2FD0E003E31FE0809197
:1022A000B501882389F01092B5010E94DD209E01BE
:1022B00020953095820F931F9093B3018093B201C4
:1022C0001092B7011092B6018091B2019091B301C2
:1022D0000E94E9208C179D0708F46CC0E091B201C0
:1022E000F091B301CE0FDF1FD093B301C093B201C1
:1022F00082EB91E0F801DF91CF911F910F9109944A
:10230000863049F4F0E0EE59FC4FE491CE2FD0E056
:1023100007E41FE0C4CF893051F4E695F0E0E15ABC
:10232000FC4FE491CE2FD0E002EC1BE0B8CF8F3011
:1023300051F4E695F0E0E45AFC4FE491CE2FD0E062
:102340000FEF1BE0ACCF853149F4F0E0E75AFC4FCA
:10235000E491CE2FD0E009E71CE0A1CFC8E2D0E0A5
:102360000CEE1CE0883109F49ACF833239F4E7E5AA
:10237000F3E0C591D49102E410E191CFC4EFD1E034
:102380000CE71DE0843209F48ACFC0EDD7E00EEAF5
:102390001BE0853209F083CF8E2F63E00E94462434
:1023A000E92FF0E0EC5AFC4FE491CE2FD0E009EB9E
:1023B0001DE075CFDF91CF911F910F910895FA0124
:1023C000811101C0FB010994CF93DF93C82FD62F51
:1023D0000E94B20E8C1740F00E94B20E8D1720F4AE
:1023E000DF91CF910C94DC108C2FDF91CF910C9466
:1023F000EC100F931F93CF938C01FB01C281CC2370
:1024000009F465C00E941D1F8272F801E25CFC4560
:10241000E431F10538F4E853FA4D0C94AA240E94F3
:10242000F710C0E08C2FCF911F910F91089549EEC6
:1024300050E16CED70E10E94DF11F3CF4CED50E103
:1024400069EE70E1F8CF40E050E163EF7FE0F3CF59
:1024500043EF5FE060E070E1EECF4EE150E16FE00E
:1024600070E1E9CF4FE050E16EE170E1E4CF4CE381
:1024700050E16DE270E1DFCF4DE250E16CE370E1DD
:10248000DACF4DEF5EE066EE7EE0D5CF46EE5EE061
:102490006DEF7EE0D0CF81E00E94EC10C2CF65E00E
:1024A00082E00E94E411BDCF68E086E0FACF6EE0E2
:1024B00089E0F7CF64E18FE0F4CF67E185E1F1CF08
:1024C00088E1EACF62E289E1ECCF83E2E5CFC1E0C7
:1024D000A9CF0E94BF1F811102C00E9465200E94E7
:1024E000ED1F80938103803120F087708860809396
:1024F000810390918103892F817090FF04C0892FFF
:102500008695869586950C94B10580918103982FC8
:10251000987F19F4885F80938103809181038160A3
:10252000809381030E94F11F809181038695869597
:1025300086950C94B10580918103982F987F79F04E
:10254000885080938103887F91E009F490E0809126
:10255000810390FB80F9809381030E94F11F809199
:1025600081038695869586950C94B10580918103AB
:1025700080FD13C0816080938103813019F489E06C
:1025800080938103809181030E94F11F80918103D8
:102590008695869586950C94B10508958091810362
:1025A00080FF08C08E7F809381030E94F11F80E02E
:1025B0000C94B10508958091810380FD0C94CE1296
:1025C0000C94B61290918103892F869586958695F5
:1025D0008F5F8F7197708230D8F4880F880F880FC3
:1025E000892B8093810380918103887F91E009F496
:1025F00090E08091810390FB80F9809381030E9499
:10260000F11F809181038695869586950C94B1057E
:1026100090938103E8CF811181E0909181039770BD
:10262000282F220F220F220F922B90938103987F45
:1026300021E009F420E09091810320FB90F9909330
:1026400081030C94B1050E940B13809181030C94BB
:10265000F11F9C01FB018281882349F12D3BFCE5A0
:102660003F07C9F040F42B3BECE53E0769F02C3BFB
:102670003C4579F008952F3B9CE5390791F070F0C7
:10268000203C3C4589F0089581E00E94231380E0BE
:10269000089580E0FACF0E949B12F9CF0E94851224
:1026A000F6CF0E94DB12F3CF0E94E212F0CF81E05E
:1026B0000895AF92BF92CF92DF92EF92FF920F9365
:1026C0001F93CF93DF937C015B01C42FD22FFC01BA
:1026D00082818823F9F04093BD010E94DD20909310
:1026E000BC018093BB0180E28C0F883008F061C090
:1026F000C77081E001C0880FCA95EAF7DF91CF91DA
:102700001F910F91FF90EF90DF90CF90BF90AF900F
:102710000C94B4171091BD01141340C08091BB01FB
:102720009091BC010E94E9206C01B701C5010E9493
:102730008A1CC816D90690F5C0E2CD0F1D17B9F056
:1027400080E2810F883040F4177081E001C0880F6B
:102750001A95EAF70E94BB17C83048F481E09D2F14
:10276000977001C0880F9A95EAF70E94B417802FDE
:102770000E94A117C830E8F4D77081E001C0880F2B
:10278000DA95EAF7DF91CF911F910F91FF90EF90CB
:10279000DF90CF90BF90AF900C94BB1780E28C0F6E
:1027A000883038F4C77081E001C0880FCA95EAF715
:1027B000E9CFDF91CF911F910F91FF90EF90DF90C4
:1027C000CF90BF90AF9008950F939C01CB01233F12
:1027D0004CE5340759F1A8F4283DFCE53F0701F129
:1027E000293D4CE53407D1F1273D3C4591F406E203
:1027F00021EE41EE67ED7CE50E94591380E00F91D8
:102800000895253FFCE53F07E9F0B0F0263F3C4541
:10281000F9F0FC018281882339F11092BD01EFCFDC
:1028200007E225EE45EE68ED7CE5E6CF06E221EE17
:1028300040EE63EF7CE5E0CF07E225EE44EE64EF87
:102840007CE5DACF06E221EE42EE65EF7CE5D4CFFF
:1028500007E225EE46EE66EF7CE5CECF08E221E00A
:1028600045EE69ED7CE5C8CF81E0C9CFCF93DF931A
:10287000EC01FB018281882309F419C1C230FCE517
:10288000DF07C0F1C6319CE5D90730F09E012A5F11
:102890003C452930310570F50E94D21F9093870383
:1028A00080938603C031ECE5DE0709F4CFC008F061
:1028B0005BC0C8308CE5D80709F4B6C088F5C430D1
:1028C000ECE5DE0709F4A8C0C0F4C2308CE5D807F7
:1028D00009F49CC0809186038260C330DC4509F412
:1028E00098C080918603909187030E94E01F0E9408
:1028F000141A80E0DF91CF91089580918603806162
:10290000C630ECE5DE0709F484C080918603886058
:10291000C730DC4508F47DC080918603806279C0B1
:10292000CC308CE5D80709F489C070F48091860317
:102930008C60CA30ECE5DE0709F46BC008F478C09F
:10294000809186038E7F65C0CE308CE5D80709F470
:1029500079C0809186038B7FCF30DC4508F459C065
:10296000809186038F7E55C0CB3FECE5DE0709F4EE
:1029700057C030F5C3318CE5D80709F46FC078F43F
:10298000C131ECE5DE0709F465C0C231DC4509F070
:10299000A8CF0E94141A809186038F773AC0C53160
:1029A0008CE5D80709F462C008F476C080918703EB
:1029B0008160CA3FDC4509F094CF8093870391CFB3
:1029C000CF3FFCE5DF0709F44DC088F48091870311
:1029D0008D7FCD3F9CE5D90781F3809187038E7F62
:1029E000CE3FDC4550F3809187038360E6CFC13052
:1029F000FDE5DF0709F459C008F444C080E0C230A7
:102A0000DD4509F06ECF0E9467206BCF8091860371
:102A100081608093860365CF809186038460F9CFBF
:102A2000809187038260C9CF809186038064F1CF53
:102A30000E94141A809186038068EBCF80918603F0
:102A40008D7FE7CF80918603877FE3CF80918603D8
:102A50008F7DDFCF809186038F7BDBCF80918603D4
:102A6000837FD7CF809187038C7FA7CF8091860308
:102A700082FB992790F921E0922790FB82F990FB45
:102A800083F9C7CF80918703982F909591708E7F9F
:102A9000892B90FB81F991CF0E94141A90918603A3
:102AA000892F97FB87F98058B4CF81E0ACCF81E0C4
:102AB00021CFCF93DF93EB0186319C4511F50E9426
:102AC0001D1F9A81992399F08A7A91E009F490E088
:102AD0009093BE01811109C089E20E94F81E0E94F4
:102AE0005C1F80E0DF91CF91089585E3F6CF809160
:102AF000BE01811104C089E20E94FF1EF0CF85E370
:102B0000FBCF81E0EFCF9093C4018093C301089580
:102B1000E091C301F091C401309721F00190F08160
:102B2000E02D099480E00895E091C301F091C40183
:102B3000309721F00280F381E02D099408952091CF
:102B4000C1013091C2012817390771F09093C20179
:102B50008093C101E091C301F091C401309721F04D
:102B60000680F781E02D099408952091BF013091EE
:102B7000C0012817390771F09093C0018093BF01FD
:102B8000E091C301F091C401309721F00084F185F8
:102B9000E02D0994089584B7806884BF84B7806865
:102BA00084BF0895089508950C94D3150E94CB1501
:102BB0000E94D2150C94510781E008950C94DC1505
:102BC0000E94D6200E940D0A0E9435210E9469129F
:102BD0000E9401110C94D4159F92AF92BF92CF9294
:102BE000DF92EF92FF920F931F93CF93DF93CDB7B6
:102BF000DEB72A970FB6F894DEBF0FBECDBF0E9496
:102C0000550A0E94DE15882309F470C056ECA52EE3
:102C100051E0B52E10E000E0902E802F0E94FF09B9
:102C20006C01F501E190F1905F01E816F90609F4F5
:102C300057C080915C0281FD0E94080A97012C25F3
:102C40003D2580E0EE24E394F12CA9014E215F2183
:102C5000452B09F43FC08E839F82CE20DF2081E088
:102C6000CD2809F480E088870E94DD208160782FDC
:102C70009A8789874E815F8168858A850E94991627
:102C8000000F111FF801EA53FE4F80819181E82661
:102C9000F926F182E0820E9434110E9488159091F9
:102CA000C5018917A1F10E9488158093C5012A9654
:102CB0000FB6F894DEBF0FBECDBFDF91CF911F914D
:102CC0000F91FF90EF90DF90CF90BF90AF909F90CB
:102CD0000C94E5048F5FEE0CFF1C803109F0B5CF3A
:102CE0000F5F1F4F0630110509F096CF8FEF8983D4
:102CF0008A831B820E94DD208160782F9D838C83D4
:102D000049815A816B818D810E949916C4CF2A9680
:102D10000FB6F894DEBF0FBECDBFDF91CF911F91EC
:102D20000F91FF90EF90DF90CF90BF90AF909F906A
:102D30000895CF93DF93CDB7DEB72B970FB6F894F6
:102D4000DEBF0FBECDBF4F83588769877A878B87D9
:102D50001E821D8285E0FE013796DE0111960190EC
:102D60000D928A95E1F749815A816B817C818D8131
:102D70009E812B960FB6F894DEBF0FBECDBFDF91BC
:102D8000CF910C948D1CFC01808191810C94CA1E02
:102D9000CF93C82F882309F483C08238C1F40E94DE
:102DA000881581FD7DC089E30E94F81E0E945C1F8A
:102DB0002FE789EA93E0215080409040E1F700C07E
:102DC000000089E30E94FF1ECF910C945C1F8338A2
:102DD000A1F40E94881580FD63C083E50E94F81E5F
:102DE0000E945C1F2FE789EA93E0215080409040C9
:102DF000E1F700C0000083E5E5CF8438A1F40E942C
:102E0000881582FD4DC087E40E94F81E0E945C1F59
:102E10002FE789EA93E0215080409040E1F700C01D
:102E2000000087E4CFCF8CEF8C0F813A90F46C2FA9
:102E30008091A6009091A7000E947E20882329F00F
:102E40008C2F0E94FF1E0E945C1F8C2F0E94F81E78
:102E5000BBCF80E28C0F883048F4C77081E001C09E
:102E6000880FCA95EAF70E94201FAECFEBE5EC0F62
:102E7000E33040F4F0E0ED59FE4F808190E0CF91D7
:102E80000C949F15C85AC73158F4EC2FF0E0EE0FA0
:102E9000FF1FEB5CFE4F80819181CF910C94B515A3
:102EA000CF910895882309F44BC0823871F40E94B1
:102EB000881581FF45C089E30E94F81E0E945C1FAF
:102EC00089E30E94FF1E0C945C1F833859F40E9412
:102ED000881580FF35C083E50E94F81E0E945C1FA4
:102EE00083E5EFCF843859F40E94881582FF28C00B
:102EF00087E40E94F81E0E945C1F87E4E2CF9CEFEB
:102F0000980F913AF0F290E2980F983050F4877051
:102F100091E001C0990F8A95EAF7892F0E94261F38
:102F2000D2CF9BE5980F933020F490E080E00C9492
:102F30009F15885A873120F490E080E00C94B515F5
:102F40000895CF93C82F0E94C816C93349F42FEFB4
:102F50008DEE92E0215080409040E1F700C00000EB
:102F60008C2FCF910C945217882321F00E94201FA0
:102F70000C945C1F0895882321F00E94261F0C9456
:102F80005C1F0895BF92CF92DF92EF92FF920F9352
:102F90001F93CF93DF936C01D62FC72FFC010581C0
:102FA00002950F70128111110E943D1F0E94161F81
:102FB000E82E882391F01123E9F08C2F807F803454
:102FC00021F080E28D0F8830A8F082E00E94A71FD8
:102FD0000E94161F91E0E82EE926BC2EB2949FE0D5
:102FE000B922FBE0FB15A8F1EB2DF0E0E452FA4D1D
:102FF0000C94AA24E12CF1CF0C2F0F70C07F11F09C
:103000000295007F1123A9F0002359F080E28D0F73
:10301000883010F0D11109C0802F0E94201F0E941B
:103020005C1F8D2F0E94C81614C0802F0E94301F75
:10303000F6CF8D2F0E945217002359F080E28D0F9A
:10304000883010F0D1112CC0802F0E94261F0E94C2
:103050005C1F2B2D2850330B2430310520F40E94A7
:1030600088150E94E504EE2009F483C10E94121F16
:1030700080FD7FC1F60112820E940C1F0E94991DE3
:10308000C6010E94DA190E940C1FDF91CF911F9197
:103090000F91FF90EF90DF90CF90BF900C94BA1DEE
:1030A000802F0E94361FD3CF2C2F2F70F22EC07F7F
:1030B000C03219F0F29480EFF822DD2369F0D130AC
:1030C00049F1112391F1002351F1F601858180FF2F
:1030D000A8CF8F70858323C0112381F0011106C012
:1030E0000E94431F8F290E94B417B3CF0130C1F74C
:1030F0000E94431F8F290E94491FABCF011106C0B8
:103100000E94521F8F2D0E94BB17A3CF013009F4DC
:10311000A0CFF6CF112329F0063008F09ACF8F2DDB
:10312000E2CF053008F095CFEDCF002359F3D93326
:1031300049F4FFEF2DEE32E0F15020403040E1F74E
:1031400000C000008D2F0E94521783CF8C2F8695D0
:103150008695837069F0813009F07BCF8D2F9C2F8D
:103160009370111102C090E080E00E94B51571CFFC
:103170008D2F9C2F9370111102C090E080E00E946F
:103180009F1567CF8C2F837009F041C0111161CF5B
:103190004D2F429546954770440F440F0D2F0F70E9
:1031A00010E030E020E0042E04C0000F111F221FA9
:1031B000331F0A94D2F760E070E0CB01D4FF0FC058
:1031C0006FE070E080E090E004C0660F771F881F1A
:1031D000991F4A95D2F76095709580959095C69500
:1031E000C695C370602B712B822B932BC23049F094
:1031F00058F4C13019F00E944B1D2BCF0E94391D8D
:1032000028CF0E945D1D25CF0E94371D22CF8695B5
:10321000112311F08C2F8170882309F41ACF4D2FC0
:10322000429546954770440F440F0D2F0F7010E0E4
:1032300030E020E0042E04C0000F111F221F331FB6
:103240000A94D2F760E070E0CB01D4FF0FC06FE0CA
:1032500070E080E090E004C0660F771F881F991F20
:103260004A95D2F76095709580959095C695C695CC
:10327000C370602B712B822B932BC23049F058F412
:10328000C13019F00E94101EE4CE0E94FE1DE1CE56
:103290000E94221EDECE0E94731DDBCECF70112352
:1032A00029F08C2F0E94991D8D2F1DCF8D2F0E94EC
:1032B000BB178C2F0E94BA1DCCCED23F89F160F48F
:1032C000D03FC9F0D13F29F1112309F442C00111C7
:1032D000A8CE8C2F8F7121C0D33F39F1D43FA1F7F5
:1032E000112369F1CF718C2F0E94991D63E08C2FFF
:1032F0000E94921FAECE112341F0053008F0A9CEF6
:103300008C2F8F710E94DD1DA4CE063008F0A1CE57
:10331000F7CF8C2F8F71112369F20E94991D99CEDE
:103320008C2F8F711123C9F3C5CF112329F08C2F56
:103330008F710E94841D8DCE0E947F1D8ACE81E0F8
:103340000E94A71F023008F484CE82E00E94A71FCB
:1033500080CE002359F0D93309F0F4CE8FEF9DEEE3
:10336000E2E081509040E040E1F7EACE8C2F8F718F
:10337000A1CFDF91CF911F910F91FF90EF90DF9040
:10338000CF90BF9008950F931F93CF93DF93EC01DD
:10339000688179818A810E94D41E8C010E94341E2A
:1033A0000E94361DB801CE01DF91CF911F910F9180
:1033B0000C94C217CF93DF93EC018B819C81892BF6
:1033C00029F08881998189238F3F59F4DF91CF912A
:1033D0000895CE010E94C319CE01DF91CF910C94C4
:1033E000B107CE010E94D8078111F3CF0E94161FAA
:1033F000882361F38A81882349F382E0DF91CF91AA
:103400000C94A71F0E943D1F0E94401F0E945C1F3A
:1034100090E080E00E949F1590E080E00C94B5154C
:103420000E94061F0C94021A0E942D1F0C94101A61
:10343000E92FE295EF70E250EE3070F4F0E0E851E1
:10344000FA4D0C94AA24803F19F020F4883E20F411
:1034500081E00895843FE1F380E00895883EC0F361
:10346000813FD1F7F5CF93FB882780F908950E941B
:10347000CA1E0C94181ACF93DF9300D000D00F927D
:10348000CDB7DEB70F900F900F900F900F90DF9198
:10349000CF910895CF93DF9300D000D000D0CDB767
:1034A000DEB726960FB6F894DEBF0FBECDBFDF9114
:1034B000CF9108951F93CF93DF93C091D30116E06E
:1034C0008091D4018C1304C0DF91CF911F91089596
:1034D000D0E01C9FF0011D9FF00D1124EB52FE4F18
:1034E0004081518162817381848195810E944A1A51
:1034F0002196C770E5CF4091050250910602609178
:103500000702709108028091090290910A020C94BE
:103510004A1A1F93CF93DF9380910A02807FA9F408
:1035200080910702882389F08091D301C091D40152
:103530006091050270910602A0910802B091090203
:10354000D62FD72316E0C81304C0DF91CF911F9167
:10355000089590E0109711F0DF3F19F401968770FD
:10356000F2CF189F9001199F300D1124F901EB52F1
:10357000FE4F41814713F2CF40814613EFCF428186
:103580004111ECCF438154814A1B5B0B483C5105F0
:1035900028F780910A028F70806180930A02F901F6
:1035A000E652FE4F80818F708061808385E092E0DB
:1035B0000E94DA19DF91CF911F910C945A1AAF92A1
:1035C000BF92CF92DF92EF92FF920F931F93CF9310
:1035D000DF93CDB7DEB761970FB6F894DEBF0FBEAD
:1035E000CDBF8C0185E0F801DE011D9601900D92A2
:1035F0008A95E1F7F80140815181E28085E0C82E8B
:1036000082E0D82E6091080270910902611571055F
:1036100009F461C19091050220910602892F82234D
:103620008F3F09F458C1A380B480F0900702F501E0
:10363000E61BF70BFF2009F4FCC080910A02382F2B
:10364000307FE83CF10508F0B2C0311179C0FE2CA2
:10365000251323C0941321C0E1101FC08F70806117
:1036600080930A020E947B1AC6010E94DA19809197
:103670000A02F80185838F2D61960FB6F894DEBF9C
:103680000FBECDBFDF91CF911F910F91FF90EF90B3
:10369000DF90CF90BF90AF900895AB2829F0842F92
:1036A00085238F3F09F033C180E0F82FF170DF2EC2
:1036B00080FF3CC08091D3012091D40136E0821379
:1036C00015C04D875E878D859E850E94CA1E292F55
:1036D00022952F702230F0F0243018F59F70F1F011
:1036E000F8019581907FD1F4D12C1EC090E0389FD5
:1036F000F001399FF00D1124EB52FE4F61816513EB
:1037000006C06081641303C062816E110FC0019610
:103710008770D5CF9F7011F0882331F3805E883099
:1037200018F3C8010E94DA19FD2CA5CFEE2009F488
:10373000A2CF80910A02816080930A02F12C9BCF74
:10374000251306C0941304C0F801EE2009F48DC0BF
:103750004D875E878D859E850E94371A882319F1D3
:10376000EE2009F180910A02803270F0209105026A
:103770003091060238872F831986BB86AA868C87EC
:10378000CE0107960E94DA1986E0F801A5E0B2E0C2
:1037900001900D928A95E1F70E94891A0E947B1A86
:1037A000FF24F39468CFC8010E94DA19F9CF3111D0
:1037B00013C07A2DB98AA88A6E2D89890E943B1A76
:1037C00085E092E00E94DA1986E0F60111928A956E
:1037D000E9F70E947B1AB2CF25130FC094130DC0D6
:1037E000E1100BC0F8018583C8010E94DA1986E058
:1037F000F60111928A95E9F73ECF4D875E878D8558
:103800009E850E94371A882371F2EE2061F2809122
:103810000A02803208F4B8CF2091050230910602E6
:103820003A8329831B82BD82AC828E83CE010196AE
:10383000A9CFE83CF10508F041C0FE2CEE2009F4C8
:10384000B2CF25132AC0941328C080910A0280FDAC
:103850001BC0982F907FC1F0F8018583903F31F015
:10386000982F907F905F8F70892B8583C8010E946D
:10387000DA1986E0F801A5E0B2E001900D928A9590
:10388000E1F70E947B1AF7CE86E0F801A5E0B2E0EE
:1038900001900D928A95E1F7EECE4D875E878D857A
:1038A0009E850E94371A81116FCF80910A02816034
:1038B00080930A02C8010E94DA19DDCE7A2DB98AF6
:1038C000A88A6E2D89890E943B1A86E0F601119222
:1038D0008A95E9F7D6CFEE2009F465CF4D875E874C
:1038E0008D859E850E94371AF82E882309F45BCFB8
:1038F00086E0F801A5E0B2E001900D928A95E1F72B
:1039000085E092E00E94C3160E94891ABACF81E036
:103910008E25CBCE88EC90E008951F93CF93DF9354
:10392000CDB7DEB72C970FB6F894DEBF0FBECDBF74
:103930004F83588769877A878B879C87CE01079644
:103940000E94DF1A882369F08A859B85892B39F0CC
:103950004F815885842F85238F3F09F071C016E071
:103960005FC086E0FE013796DE01119601900D9250
:103970008A95E1F78A859B85892B89F38F819885C4
:1039800089238F3F61F32091D40130E0C901019672
:10399000877099274091D3014817190671F40E9446
:1039A000141A1092D4011092D30186E0E5E0F2E0FF
:1039B000DF011D928A95E9F7D2CF96E0929FD00160
:1039C000939FB00D1124AB52BE4FFE013196019072
:1039D0000D929A95E1F78093D4010E945A1ABFCFB5
:1039E000819FC00111248B529E4F0E94DF1A8823B1
:1039F000E9F0E091D3011E9FF0011124EB52FE4F3C
:103A00004081518162817381848195810E944A1A2B
:103A10008091D30190E00196877099278093D3011C
:103A20008091D3019091D4018913DACF2C960FB6EF
:103A3000F894DEBF0FBECDBFDF91CF911F910895E7
:103A400069857A858B859C850E944A1A88CF08955E
:103A50000C94271D0E94281D60934B0270934C020A
:103A600080934D0290934E020C94021A08950C9488
:103A70002A1D0F931F9300914B0210914C0220912D
:103A80004D0230914E02602B712B822B932B1F9194
:103A90000F910C942A1D0F931F9300914B021091CC
:103AA0004C0220914D0230914E02602371238223FB
:103AB00093231F910F910C942A1D0F931F93009134
:103AC0004B0210914C0220914D0230914E02602722
:103AD0007127822793271F910F910C942A1D0C9414
:103AE000271D0C946F1D0E94711D609347027093F7
:103AF00048028093490290934A020C94021A60E0B3
:103B000070E0CB010C94731D0F931F9341E050E0C4
:103B100060E070E08A019B0104C0000F111F221FAA
:103B2000331F8A95D2F7C901B8011F910F910C94E8
:103B3000731D0F931F9341E050E060E070E004C0FC
:103B4000440F551F661F771F8A95D2F78091470251
:103B500090914802A0914902B0914A028A019B01CA
:103B6000082B192B2A2B3B2BC901B8011F910F9150
:103B70000C94731D0F931F9341E050E060E070E0E0
:103B800004C0440F551F661F771F8A95D2F7CB01DB
:103B9000BA016095709580959095009147021091BB
:103BA00048022091490230914A0260237123822306
:103BB00093231F910F910C94731D0F931F9341E05A
:103BC00050E060E070E004C0440F551F661F771F8F
:103BD0008A95D2F78091470290914802A0914902BC
:103BE000B0914A028A019B01082719272A273B27FF
:103BF000C901B8011F910F910C94731D0F931F936E
:103C000000914702109148022091490230914A02E6
:103C1000602B712B822B932B1F910F910C94731D92
:103C20000F931F930091470210914802209149027F
:103C300030914A0260237123822393231F910F91B5
:103C40000C94731D0F931F9300914702109148022B
:103C50002091490230914A026027712782279327D9
:103C60001F910F910C94731D08959295907F890F69
:103C7000982F977041E001C0440F9A95EAF7869516
:103C80008695869595E0899FF0011124E55FFD4FAB
:103C900030E020E070E05191DF011197CB01022E5E
:103CA00002C0969587950A94E2F7817081958527E1
:103CB000842385278C932F5F3F4F2530310559F79B
:103CC00008959295907F890F982F97708695869585
:103CD000869525E0829FF0011124E55FFD4F50E0BD
:103CE00040E080E0219130E0092E02C03695279512
:103CF0000A94E2F721703327042E01C0220F0A94A0
:103D0000EAF7822B4F5F5F4F4530510559F7089511
:103D1000BF92CF92DF92EF92FF920F931F93CF93B8
:103D2000DF938C01C0904702D0904802E090490296
:103D3000F0904A0280914B0290914C02A0914D026A
:103D4000B0914E02C82AD92AEA2AFB2ACFE1D0E054
:103D5000BC2ED701C6010C2E04C0B695A795979529
:103D600087950A94D2F780FD0EC0219788F7B12C71
:103D70008B2DDF91CF911F910F91FF90EF90DF90EE
:103D8000CF90BF900895B8018C2F0E9435080197FD
:103D900061F3EECFCF93DF93EC010E94881EBE014A
:103DA000DF91CF910C9435081F93CF93DF93EB01F4
:103DB0009091D201992331F0CB01DF91CF911F91E6
:103DC0000C94CA1E882379F0CB010E94881E182FFC
:103DD000682FCE010E94351EBE01812FDF91CF9149
:103DE0001F910C943508CB010E94611E182FF4CF4F
:103DF000682F8091A6009091A7000C94B420682FA2
:103E00008091A6009091A7000C94B6208091A60006
:103E10009091A7000C94B82080914F0285958595CC
:103E20008595089580914F028770089590914F0273
:103E3000977081E009F480E0089580915B02089515
:103E400090915B02892B80935B02089580959091FD
:103E50005B02982390935B02089510925B02089591
:103E600090915A02892B80935A02089580959091DF
:103E70005A02982390935A02089510925A02089574
:103E800010925902089580915002089508950C945B
:103E9000461F90915002981721F0809350020C9485
:103EA000471F089580915002882329F010925002F4
:103EB00080E00C94471F0895E091A600F091A700C0
:103EC00080915B028083E091A600F091A700808141
:103ED00090915A02892B8083E091A600F091A7006F
:103EE000808190915902892B80839091500299236F
:103EF00081F0E091A600F091A7008081892B80835A
:103F00008091A6009091A7000E946C2081110E94D0
:103F1000521F8091A6009091A7000C9494150895CB
:103F20000C948F1F98E0899F90011124622B60935D
:103F30004F020E94991D80914F0285958595859528
:103F40000C94901F10924F0280E00C94901F90915F
:103F50004F028095892380934F02282F277071F498
:103F6000282F082E000C330B9217130639F0859575
:103F7000859585950E94BA1D0C94A21F089590E026
:103F800080E00E94612521E08C3E9E4F09F020E0F8
:103F9000822F089582E090E00C94532583E090E016
:103FA0000C945325CF9384E090E00E945325C82FB2
:103FB00081E290E00E945325982F8C2FCF91089595
:103FC000CF93C92F682F84E090E00E9467256C2F63
:103FD00081E290E0CF910C94672586E090E00C940C
:103FE0005325682F86E090E00C946725AB01BC0157
:103FF0008FE090E00C947825AB01BC0183E190E068
:104000000C94782560E070E0CB010C94FC1F60E01C
:1040100070E0CB010E94F61F0C9402206CEE7EEF44
:1040200090E080E00E94842560E082E090E00E94C1
:10403000672560E083E090E00E94672510924B02C4
:1040400010924C0210924D0210924E0260E084E0F9
:1040500090E00E94672560E081E290E00E94672581
:1040600060E085E090E00E94672560E086E090E0F7
:104070000E9467256FEF87E090E00E94672540E08F
:1040800050E0BA0188E090E00E94782560E08DE081
:1040900090E00E94672540E050E0BA0188E190E09E
:1040A0000E94782560E087E190E00E94672540E06B
:1040B00050E0BA018CE190E00E94782560E080E257
:1040C00090E00E9467250C9407200C940E20682F26
:1040D0008EE090E00C9467259C012E5F3F4FAC0171
:1040E000485F5F4F80E02417350709F40895F90110
:1040F00091919F019923B9F38F5FF5CF662349F022
:10410000FC01329608962191261729F0E817F90745
:10411000D1F780E0089581E008959C01FC0132967A
:104120009FEF80E04191461751F09F3F19F44111F4
:1041300001C0982F8F5F8630A9F79F3F09F408953B
:10414000290F311D97FD3A95F90162830895FC010D
:10415000329608962191261303C0DF0111971C9215
:10416000E817F907B9F708950C948D200C94A7204F
:10417000029626E0FC0111922A95E9F70895089528
:104180000895CF930E94BF200E94550A0E94C0202C
:10419000C0E08C2F0E94FF09892B31F4CF5FC6301D
:1041A000C1F780E0CF91089581E0FCCF8BE083BF21
:1041B0008BEB8CBF82E089BF08952FB7F894809174
:1041C000820390918303A0918403B09185032FBF54
:1041D00008959C014FB7F8948091820390918303D6
:1041E000A0918403B09185034FBF821B930B089568
:1041F00078941F921FB61F9211248F939F93AF93B1
:10420000BF938091820390918303A0918403B09126
:1042100085030196A11DB11D8093820390938303B2
:10422000A0938403B0938503BF91AF919F918F9129
:104230001F901FBE1F90189560E081E090E00E94E3
:104240008A2587E090EBDC018093D8039093D90313
:10425000A093DA03B093DB0388E19CE00FB6F894F7
:10426000A89581BD0FBE91BDFFCF0E94BF1F8111D8
:1042700002C00E9465200E94CA1F80935C020E94B7
:10428000D21F90938703809386030E94CE1F682FCE
:1042900070E090E080E00E94371D609147027091CD
:1042A00048028091490290914A020C94711D0E942B
:1042B000DD208C010E94D6150E944A220E9483159F
:1042C0000E942B248B9A80E0815039F58B9878944A
:1042D000FFEB24ED31E0F15020403040E1F700C029
:1042E00000000E94E015C0E0DCE08091AF0388236D
:1042F000F1F01092AF030E94DD208C010E943B235D
:104300008091B503882329F08091930384FD0E9456
:10431000EC150E94F121C0E0E8CFA895E7EBFBE0A7
:104320003197F1F700C00000CFCFC1E0DECFC80168
:104330000E94E920069710F4CC2301F30E94C120CB
:10434000C82F882391F3F89491B3939A892F8C60A6
:1043500081BB82B38D2782BB8FE5EAEEF0E081500E
:10436000E040F040E1F700C0000082B38D2782BB3F
:1043700091BB93987894B9CF8091EE0208950895F7
:10438000CF93DF9300D00F92CDB7DEB790915F024D
:10439000981307C020915D0230915E0226173707FF
:1043A00091F080935F0270935E0260935D02898357
:1043B0007B836A838091CC0384FF05C063E0CE01D8
:1043C00001960E9437230F900F900F90DF91CF91AD
:1043D0000895BC0184E00C94C021BC0183E00C94DE
:1043E000C021CF93DF93CAE0D0E08091930384FF94
:1043F0001AC080916B0290916C02981789F028E0A6
:10440000829FC001112468E083599D4F0E9433238D
:1044100080916B0290E001968F70992780936B02D8
:10442000DF91CF9108950E943B2387EB9BE001979A
:10443000F1F700C000002197C1F6F2CFCF93DF93D0
:10444000EC01A0916C02B0E0CD0101968F7099272C
:1044500020916B02281779F093E0AA0FBB1F9A9561
:10446000E1F7A359BD4F98E0FE0101900D929A9596
:10447000E1F780936C020E943B230E94F12188E0C7
:10448000FE01A3E6B2E001900D928A95E1F7DF917B
:10449000CF91089588EA90E00895FC0180818076AC
:1044A0008032F1F48181813061F484819581892B9E
:1044B000B9F483E692E09093B1038093B00388E06F
:1044C0000895823041F48DEE92E09093B103809391
:1044D000B00381E008958A3029F483818093ED024E
:1044E00080E008958930E1F78281938181159240BF
:1044F00069F484819581892B49F481E0809362027B
:104500008681978190936102809360028FEF089576
:10451000FC018091600290916102892B61F0809191
:104520006202813041F490819093EE021092610218
:104530001092600208958FEF08950895FC01938111
:10454000933059F130F49130C1F09230F1F080E0C5
:104550000895913209F445C09232C9F7848195815A
:10456000009709F44FC0019791F785EE95E090937D
:10457000B1038093B00382E3089589EA95E09093B4
:10458000B1038093B00382E108958EE695E09093A5
:10459000B1038093B0038BE308958281813089F069
:1045A000882339F08230A9F0833089F68BEB95E0CF
:1045B00002C081EE95E09093B1038093B00384E054
:1045C000089583ED95E09093B1038093B0038CE060
:1045D000089581EC95E09093B1038093B00380E15E
:1045E00008958281882331F0813009F0B0CF89E9C4
:1045F00095E002C080E895E09093B1038093B0030A
:1046000089E0089587E196E09093B1038093B00329
:1046100080E408951F93CF93DF93E82F792F162F0F
:10462000EA01888184FF1CC0298188E82827298322
:10463000CE010296DC012E2F372F512F5E0FF9018C
:1046400021912D939F01452F4E1B1416C4F3612F0A
:104650000E9487031C5F1883DF91CF911F910895FB
:104660008AE58883E5CF43E953E00C940A234CECB8
:1046700053E00C940A23CF93DF936091B20363500D
:1046800067FD12C08091AE03CCE0D0E0C81BD10919
:10469000CA54DC4F8091AD03803108F054C0CE0184
:1046A0000E949D221092B2038091B30084FF3EC00D
:1046B0008091B2008F3FD1F1C82F893008F0C8E057
:1046C000982F9C1B9093B2009091880328E8922722
:1046D000909388038823E9F08091B0039091B1030F
:1046E0002091AC0326FFAEC0FC012C2FA9E8B3E05B
:1046F00034913D9331962150D9F79C012F5F3F4F64
:104700008FEF8C0F820F932F911D9093B1038093A5
:10471000B0036C2F89E893E00E948703CC5FCC3014
:1047200019F08FEF8093B200C093B30084E190B38F
:104730009C7031F48150D9F71092B3031092AB03FF
:10474000DF91CF9108958D3209F069C0683009F08A
:10475000A9CF83EC809388038AE58093B3001092FD
:10476000AC038881807671F0CE010E944D228F3F8C
:10477000C1F4988197FD8E8190E89093AC0380936B
:10478000B20090CF2A81109291039981911111C0AA
:104790001092920321E933E082E03093B103209339
:1047A000B0039F819111EBCF9E81981740F7892F1D
:1047B000E6CF953029F42093B30321E933E0EDCF20
:1047C000963099F49B81913021F4CE010E949E2273
:1047D00008C09230D1F39330C1F39132B1F39232E9
:1047E000A1F390E49093AC03C2CF983089F0993054
:1047F00019F42093B503E1CF9A3071F09B30E9F6BC
:104800009BE4909394039093CD039093A003D5CF12
:1048100025EB33E081E0C1CF21E933E0FBCF80918C
:10482000AC0387FF3FCFCE010E9488228F3F21F447
:104830008EE18093B30036CF882309F433CF1092F2
:10484000B20030CFDC012C2FE9E8F3E03D91319349
:104850002150E1F752CFCF93DF9385B7886085BFB2
:104860008BB780688BBFC3E9D3E08BE48983ACEC62
:10487000B3E011968C931197EFE9F3E081838AE519
:1048800088838C938083DF91CF910895991B79E081
:1048900004C0991F961708F0961B881F7A95C9F7D0
:1048A0008095089587FB082E062687FD819567FD74
:1048B00061950E9446240EF4919507FC8195089518
:1048C000AA1BBB1B51E107C0AA1FBB1FA617B70736
:1048D00010F0A61BB70B881F991F5A95A9F7809552
:1048E0009095BC01CD01089597FB072E16F4009416
:1048F00007D077FD09D00E94602407FC05D03EF464
:10490000909581959F4F0895709561957F4F08957B
:10491000A1E21A2EAA1BBB1BFD010DC0AA1FBB1FC3
:10492000EE1FFF1FA217B307E407F50720F0A21B35
:10493000B30BE40BF50B661F771F881F991F1A94A2
:1049400069F760957095809590959B01AC01BD01CC
:10495000CF010895EE0FFF1F0590F491E02D09940B
:104960000E94B824332312F48A1B9B0B0C94C92495
:10497000A29FB001B39FC001A39F700D811D1124A0
:10498000911DB29F700D811D1124911D08950E94EB
:10499000B824B7FF0895821B930B08950E94B82492
:1049A000A59F900DB49F900DA49F800D911D112483
:1049B0000895B7FF0C94CE240E94CE24821B930B43
:1049C00008958F929F92AF92BF92CF92DF92EF9213
:1049D000FF92CF93DF93EC01688179818A819B817B
:1049E000611571058105910521F464E279ED8BE58E
:1049F00097E02DE133EF41E050E00E94A725490107
:104A00005A019B01AC01A7EAB1E40E94CE246B01DC
:104A10007C01ACEEB4EFA50194010E94DC24DC0122
:104A2000CB018C0D9D1DAE1DBF1DB7FF03C00197AF
:104A3000A109B04888839983AA83BB839F77DF91BC
:104A4000CF91FF90EF90DF90CF90BF90AF909F906D
:104A50008F9008950E94E124089580E690E00E94DE
:104A6000E1240895B0E0A0E080936000909361009D
:104A7000A0936200B09363000895FC014150504040
:104A800030F001900616D1F73197CF0108958827AD
:104A900099270895FB01DC0102C001900D9241505D
:104AA0005040D8F70895E199FECF9FBB8EBBE09AA6
:104AB00099278DB30895A6E1B0E044E050E00C944E
:104AC0009925A8E1B0E042E050E00C949925262F0A
:104AD000E199FECF9FBB8EBBE09A01970DB2021603
:104AE00031F02DBB0FB6F894E29AE19A0FBE08950B
:104AF0000396272F0E9468250E946725252F0E9474
:104B00006825242F0C9468250196272F0E9468257C
:104B10000C946725262FE199FECF9FBB8EBB2DBB42
:104B20000FB6F894E29AE19A0FBE01960895DC015F
:104B3000CB01FC01E199FECF06C0FFBBEEBBE09AC2
:104B400031960DB20D9241505040B8F70895052EA0
:104B500097FB1EF400940E94BE2557FD07D00E94CB
:104B6000882407FC03D04EF40C94BE255095409544
:104B7000309521953F4F4F4F5F4F08959095809509
:104B8000709561957F4F8F4F9F4F0895F894FFCF99
:104B90000F1217121E12231228122D123212371260
:104BA0003C12411246124B124F12541257125A1213
:104BB0005D12601262126512FC17FC17541854182B
:104BC000A618291829182918C2184E195D195D1937
:104BD000231A231A2C1A2C1A2E1A2C1A2C1A2C1AB5
:0C4BE000231A231A331A2C1A2C1A331A29
:104BEC00010000000008080805050808080505086C
:104BFC000808050505C800F4010E000000000105B9
:104C0C000000020500000301050104010501050176
:104C1C00050105010102000E000E0E01191A1B1CE4
:104C2C001D1E1F2021225102BC211E22BF21ED215D
:104C3C00E921FF5A070707070707070707070707B1
:104C4C00070707E200E900EA00B500B600B700CD9F
:104C5C00008301CC008A01920194012102230224D9
:104C6C00022502260227022A02B300B4006F00704C
:104C7C000081828390919293949596976061626380
:104C8C00646566673233343536370001020202023E
:104C9C000606060909090909090F0F0F0F0F0F1551
:104CAC001515181919191919191919191923242550
:104CBC002525252525E200E900EA00B500B600B758
:104CCC0000CD008301CC008A0192019401210223C2
:104CDC000224022502260227022A02B300B4006F26
:064CEC00007000818283CC
:00000001FF
