:100000000C94EA020C942E030C9449030C942E03D6
:100010000C942E030C942E030C942E030C942E039C
:100020000C942E030C942E030C94CC200C942E03D1
:100030000C942E030C942E030C942E030C942E037C
:100040000C942E030C942E030C942E030C942E036C
:100050000C942E0329001E001F0020002100220006
:10006000230024002500260027002D002E004C0030
:100070002A004B002B0014001A000800150017007E
:100080001C0018000C00120013002F00300031007B
:1000900000004E00394104001600070009000A0064
:1000A0000B000D000E000F0033003400320028005A
:1000B00000000000E10064001D001B0006001900A4
:1000C000050011001000360037003800E50001512E
:1000D00052000000E000E300E20000000000000029
:1000E0002C0000000000E600E7000000E4005000E3
:1000F00051004F000100010001000100010001005A
:1001000001000100010001000100010001000100E7
:1001100001000100010001000100010001000100D7
:1001200001000100010001000100010001000100C7
:1001300000000100010001000100010001000100B8
:1001400001000100010001000100010001000100A7
:100150000000000001000100010001000100010099
:100160000100010001000100010001000100010087
:10017000010000000100010001000000000000007B
:10018000010000000000010001000000010001006A
:100190000100010001000100010001000100010057
:1001A0000100010001000100010001000100010047
:1001B0000100010001000100010001000100010037
:1001C0000100010001000100010001000100010027
:1001D0000000010001000100010001000100010018
:1001E0000100010001000100010001000100010007
:1001F00000000000010001000100010001000100F9
:1002000001000100010001000100010001000100E6
:1002100001000000010001000100000000000000DA
:1002200001000000000001000100000001000100C9
:1002300001000100010001000100010001000100B6
:1002400001000100010001000100010001000100A6
:100250000100010001000100010001000100010096
:100260000100010001000100010001000100010086
:100270000000010001000100010001000100010077
:100280000100010001000100010001000100010066
:100290000000000001000100010001000100010058
:1002A0000100010001000100010001000100010046
:1002B000010000000100010001000000000000003A
:1002C0000100000000000100010000000100010029
:1002D0000100010032190A00047F3F1F64321464D8
:1002E0003214783C1E1E140A052223252628292AAA
:1002F0002C2D2F3032333536383A3B3D3E40424389
:100300004547494A4C4E5051535557595A5C5E60C7
:1003100062646668696B6D6F71737577797B7D7FD9
:1003200081838587898A8C8E90929496989A9C9ED8
:100330009FA1A3A5A7A8AAACAEAFB1B3B4B6B8B9F4
:10034000BBBCBEBFC1C2C3C5C6C7C9CACBCCCDCE5C
:10035000D0D1D2D2D3D4D5D6D7D7D8D9D9DADADB3F
:10036000DBDBDCDCDCDCDCDDDDDDDDDCDCDCDCDCCB
:10037000DBDBDBDADAD9D9D8D7D7D6D5D4D3D2D20A
:10038000D1D0CECDCCCBCAC9C7C6C5C3C2C1BFBEF2
:10039000BCBBB9B8B6B4B3B1AFAEACAAA8A7A5A35D
:1003A000A19F9E9C9A98969492908E8C8A8987851C
:1003B00083817F7D7B79777573716F6D6B696866FB
:1003C0006462605E5C5A5957555351504E4C4A49CD
:1003D00047454342403E3D3B3A3836353332302F75
:1003E0002D2C2A292826252322FFAA7F55400001EB
:1003F00001010101010101010202020202020202E5
:1004000002030303030303030304040404040404B6
:10041000050505050506060606060707070707087A
:10042000080808090909090A0A0A0B0B0B0C0C0C2D
:100430000D0D0D0E0E0E0F0F0F10101111111212C7
:1004400013131414151516161717181819191A1A44
:100450001B1B1C1D1D1E1E1F2020212222232424A5
:10046000252626272829292A2B2C2D2D2E2F3031E1
:100470003232333435363738393A3B3C3D3E3F40F3
:100480004142434445464748494A4C4D4E4F5051DE
:100490005354555658595A5B5D5E5F616264656698
:1004A00068696B6C6D6F7072737577787A7B7D7E1F
:1004B0008082838587888A8C8E8F91939596989A6F
:1004C0009C9EA0A2A3A5A7A9ABADAFB1B3B5B7BA87
:1004D000BCBEC0C2C4C6C9CBCDCFD1D4D6D8DBDD5B
:1004E000DFE2E4E7E9EBEEF0F3F5F8FAFDFF0902ED
:1004F0003B00020100A0FA09040000010301010011
:1005000009210101000122400007058103080001C3
:10051000090401000103000000092101010001227A
:1005200032000705830308000112011001000000DA
:1005300008A020544100010102030104033000001F
:10054000000C034C005A0020005300740000000C03
:10055000034C00650065004B0075000000040309B2
:100560000405010980A101850319012AB7001501BD
:1005700026B700950175108100C0050C0901A10185
:10058000850419012AA002150126A0029501751003
:100590008100C005010906A101050719E029E71539
:1005A00000250195087501810295017508810305F3
:1005B00007190029FF150026FF0095067508810020
:1005C0000508190129059505750191029501750325
:1005D0009103C00011241FBECFE5D8E0DEBFCDBF20
:1005E00004B603FE24C08091A8039091A903A091B2
:1005F000AA03B091AB038730904BA740B04BB9F43E
:100600001092A8031092A9031092AA031092AB03B0
:1006100014BE84B7877F84BF0FB6F894A89581B5C0
:10062000886181BD11BC0FBEE0E0F8E3099511E0DF
:10063000A0E6B0E0EAE8FBE402C005900D92A63621
:10064000B107D9F723E0A6E6B1E001C01D92A83AB0
:10065000B207E1F70E942B210C9495250C94000021
:10066000A82FB92F80E090E041E050EA609530E09B
:1006700009C02D9182279795879510F0842795279B
:10068000305EC8F36F5FA8F30895EADF8D939D9302
:100690000895CF93CFB7CF93C395839BE9F7839BFF
:1006A0000EC0839B0CC0839B0AC0839B08C0839BA6
:1006B00006C0C0917F03C395C0937F03A6C0DF939C
:1006C000C0917E03DD27CA57DC4F839B02C0DF91B8
:1006D000E6CF2F930F931F9300B32FEF03FB20F967
:1006E0004F933F9310B34FEF012703FB21F93BE0FA
:1006F00031C04E7F012F10B3216028C0102F4D7FD5
:100700002260000000B329C04B7F2460012F00004D
:1007100010B32BC010B3477F28602AC04F7E00B3B0
:1007200020612CC04F7D10B320622FC04F7B00B3DF
:10073000206432C0422700B349934FEF00001027D6
:1007400013FB20F910B31C70C9F1297F91F2012726
:1007500003FB21F900B3237F89F2315058F11027B0
:1007600013FB22F910B3277E79F2012703FB23F94B
:100770002F7C81F200B3102713FB24F92F7971F23B
:1007800000C010B3012703FB25F92F7359F200C0F5
:1007900000B3102713FB26F9223040F200C010B33B
:1007A000012703FB27F9243028F64F77206810B380
:1007B0000000F9CF10E81ABF00271CC03B5031954C
:1007C000C31BD04010E81ABF0881033C11F10B3461
:1007D00001F120917B031981110F1213EDCF4A8192
:1007E000441F093669F10D3211F0013E29F74F70AF
:1007F00009F0042F009384033F914F911F910F91B3
:100800002F91DF91CAB7C7FD47CFCF91CFBFCF910F
:10081000189520918403222379F3109182031123E8
:1008200009F044C034300AF443C03093820320936B
:100830007D0310917E033BE0311B30937E0338C073
:1008400000918203013094F50AE54F7049F430912C
:10085000B30034FD2FC00093B300C8E5D3E02EC031
:10086000433059F0443091F03091630334FD22C09D
:1008700000936303C4E6D3E021C030919C0334FDB0
:1008800019C000939C03CDE9D3E018C030916F03E9
:1008900034FD10C000936F03C0E7D3E00FC027956D
:1008A000A8F45150A9F4220F0000F9CF4AE503C083
:1008B00042ED01C0432FC4E1D0E032E011B31C602F
:1008C000939A11BB02B320E41CE05F93012756E02A
:1008D00002BB279520F4515021F4220FF9CF0127B4
:1008E00056E000003B5A02BBD0F2279528F4515045
:1008F00029F4220F0000F9CF012756E0279502BB0B
:1009000020F4515021F4220FF9CF012756E029910C
:10091000332302BB21F6037F10918303110FC651CD
:10092000D04002BB11F010937B0310E81ABF08609F
:1009300011B3137F402F437F5F9100C000C002BB03
:1009400011BB42BB59CF1F93CF93DF93182F147065
:10095000D82FD270C82FC17020E0412F6D2F8C2F5F
:100960000E94D40587EB9BE00197F1F700C00000DF
:1009700020E0412F6D2F8C2FDF91CF911F910C9490
:10098000D405CF93DF93CDB7DEB72F970FB6F8948A
:10099000DEBF0FBECDBF8FE0E4EBF0E0DE011196CD
:1009A00001900D928A95E1F761E0CE0101960E94D7
:1009B00046062F960FB6F894DEBF0FBECDBFDF916F
:1009C000CF910895CF93DF93CDB7DEB72F970FB6B2
:1009D000F894DEBF0FBECDBF88E089838A838B8306
:1009E000909192009C838D838E838F8388878987E3
:1009F0008A878B878C878D878E878F8761E0CE0172
:100A000001960E9446062F960FB6F894DEBF0FBEE1
:100A1000CDBFDF91CF9108950F93CF93DF93C5E1C1
:100A2000D0E0219721F4DF91CF910F9108952FEB22
:100A300034ED81E0215030408040E1F700C00000FB
:100A400081E00E94CA059FEB24ED31E091502040E7
:100A50003040E1F700C00000882319F300E020E0F7
:100A600040E060E080E00E94E50587E99AE30197B5
:100A7000F1F700C0000060E080917700909178006D
:100A80000E943B0687E99AE30197F1F700C0000056
:100A90008091740094E0899FB001112466587F4FC3
:100AA00040E00E94240687E99AE30197F1F700C02D
:100AB000000060E0809174000E941A0687E99AE3C2
:100AC0000197F1F700C00000609175007091760009
:100AD00040E085E1DF91CF910F910C94BE0581112B
:100AE0000C94E2040C94C1040F9380912E0380FDBA
:100AF00009C000E020E040E060E080E00E94E50501
:100B00000F91089520E043E353E0609196008091B7
:100B100097000F910C94F505CF93DF93482F662330
:100B200031F1C091CF028C2F80688093CF026FEC9F
:100B300072E080EB0E94B006811104C080E0DF917A
:100B4000CF910895CF73DAE041E06FEC72E080EB73
:100B50000E94DE068091CF02C81771F08BE291E00F
:100B60000197F1F700C00000D15071F7E7CF6FECAB
:100B700072E080EB0E94B00681E0E1CFEFECF2E0A2
:100B8000108295E09183828374836383642F85E070
:100B90000C948C05EFECF2E091E0908392E091836D
:100BA000682F82E00C948C0593E09093CF02909391
:100BB000D002811184E061118260411181608093D3
:100BC000D102622F83E00C948C050F93EFECF2E0DE
:100BD00094E1908396E091838283438364832583A9
:100BE000602F86E00F910C948C05CF93962FBA015D
:100BF000C22F492F480F5527551F45315105BCF4C9
:100C000027E12093CF0220E42093D0028093D102E9
:100C10009093D20293E0899FA001112483ED92E08A
:100C20000E9419256C2F80E4CF910C948C0580E0F4
:100C3000CF910895EFECF2E098E1908393E09183F7
:100C4000828383E00C948C0599E19093CF0297E026
:100C50009093D002863008F085E08093D10284E042
:100C6000FB01A2EDB2E001900D928A95E1F7642FAD
:100C700087E00C948C05EFECF2E02AE1208324E07D
:100C800021839383828384E00C948C052BE2209350
:100C9000CF0221E12093D002E1EDF2E09C01215F3F
:100CA0003F4FDC014D91CD014193A217B307C9F726
:100CB00081E10C948C05BC0180EE9EE20E942F2401
:100CC000CB01B0E0A0E04097A109B109B695A79586
:100CD0009795879580B986B7846086BF86B780640C
:100CE00086BF089586B7806D86BF06B604FEFDCF29
:100CF000089506B607FEFDCF089586B7806A86BFC1
:100D00000E94790691B1987F81E0983019F0903176
:100D100009F080E08170089583B986B78F7080688C
:100D200086BF0E94790681B1982F987F983251F042
:100D3000983141F0982F987E81E0903409F080E05E
:100D40008170089581E0FCCF882319F086B7806414
:100D500086BF86B7806886BF0E94790683B10895F2
:100D6000EF92FF920F931F93CF93DF93C82FF62E2E
:100D7000E72E042F0E947D06811109C010E0812F0B
:100D8000DF91CF911F910F91FF90EF9008958C2FDD
:100D90008E7F0E948C06182F882381F3011103C0D7
:100DA0000E947206ECCFCF2DDE2D89910E948C0619
:100DB000882321F30150FC2EED2EF0CFEF92FF920D
:100DC0000F931F93CF93DF93C82FF62EE72E042F98
:100DD0000E947D06811109C010E0812FDF91CF9123
:100DE0001F910F91FF90EF9008958C2F81600E94CA
:100DF0008C06182F882381F3CF2DDE2D0F0D04C014
:100E000081E00E94A4068993802F8C1B8230C0F75A
:100E100080E00E94A40688830E947206DECF8FEFD6
:100E20008BBB1ABA88BB17BA85BB14BA81EF82BBD9
:100E300083E081BB80E991E00C945B060C94B209DD
:100E400081E0089581E008950C94220708950C94A0
:100E500026071F93CF93DF9300D000D00F92CDB71A
:100E6000DEB749835A836B833091BC0189819A81B3
:100E700031111DC06623B9F02223A9F00E945C1E27
:100E8000182F682F89819A810E94091E69817A81B1
:100E9000812F0F900F900F900F900F90DF91CF91B7
:100EA0001F910C94D4070E94351E182FEFCF0E947B
:100EB0005C1E69817A81EDCFFC01262F4081518132
:100EC0006281738184810C942907CF93DF93EC01B5
:100ED00060E00E945C07BE01DF91CF910C94270770
:100EE0000E94931F811102C00E9439200E940C05AC
:100EF0000C94B0090C941E0708950E94E8190E94F2
:100F00007C072FEB87E299E0215080409040E1F789
:100F100000C000000C94F0200F931F93CF93DF9339
:100F2000EC0161E00E945C078C01BE010E94240775
:100F3000882389F1BE01C8010E94FD12882359F15E
:100F4000BE01C8010E94B813882329F1BE01C8015F
:100F50000E940A148823F9F0BE01C8010E942D15D1
:100F60008823C9F0BE01C8010E94CD11882399F0E1
:100F70008A81882339F001158CE5180751F00E3D60
:100F80001C4579F0CE01DF91CF911F910F910C9408
:100F900020070E947D0780E0DF91CF911F910F9184
:100FA00008950E943920F7CFE72FF0E095E0899F60
:100FB000E00DF11D112484E0EE0FFF1F8A95E1F78B
:100FC000E60FF11DEE0FFF1FEC5AFF4F8591949134
:100FD0000895CF93DF930E94D4070E94D508EC01B7
:100FE000811522E59207E8F5811531E5930708F0B0
:100FF000ACC0883E910510F5803E910570F5883AA9
:10100000910570F4853A910508F078C0813091051A
:1010100021F1009711F1049700F5D0E0C0E01DC068
:101020008F3B9105D0F7C85AD0E0CC0FDD1FCD53D0
:10103000DF4F0990D881C02DD4640FC0811540E5E1
:10104000940708F066C0C11580E4D80708F05EC0B8
:10105000CE019A9581159F4100F7CE01DF91CF9186
:101060000895811536E5930718F5811545E5940730
:1010700008F083C0C11584E5D80708F079C09C2F1B
:10108000969596959E0123703327C115D34508F494
:1010900061C0C1E0D0E002C0CC0FDD1F2A95E2F7AD
:1010A00030E2939FC0011124C82BD92BDA68D5CF29
:1010B000C1158AE5D80778F4C11599E5D90708F074
:1010C00066C0C11528E5D20708F4A7CFDC2FCC27CE
:1010D000C06FD06AC2CFCE0190568115904208F001
:1010E0009CCF8D2F8F710E946C0990E0982F8827DC
:1010F00088279F719C012C2BE90147C0C55AD0E07D
:10110000CF50DF4FC881D0E0D064A7CFDF70D06A66
:10111000A4CFE4E096958795EA95E1F783702C2FAC
:1011200026952695237040E2249F90011124382BA8
:101130008C2F8370C1E0D0E002C0CC0FDD1F8A95F8
:10114000E2F7C22BD32BDC6888CFD82FCC27C16F16
:10115000D06A83CFC1E0D0E002C0CC0FDD1F2A955A
:10116000E2F720E2929FC0011124C82BD92BEBCFCC
:10117000DC2FCC27C46FD06A70CF0E946C09C82FB7
:10118000D0E0DC2FCC27CC27DF71D06266CF8C2F4C
:101190008F700E946C0934E0D695C7953A95E1F7B7
:1011A000CF709C2FEC01D06958CF82389105B1F1F6
:1011B000B0F48133910509F475C048F48932910582
:1011C00009F469C08A32910509F473C00895853322
:1011D000910509F459C08933910501F10895833EC1
:1011E0009105A9F138F4803E9105F9F0823E910510
:1011F00049F10895863E9105A9F1873E9105C9F10F
:10120000843E910519F52091570321FF1FC080915D
:10121000560384FD14C087EE90E008952091560394
:101220002370A1F080EE90E008952091560320FDF8
:1012300047C03091570330FF09C024FF44C090E0FD
:1012400080E004C02091560322FDF7CF089520913D
:10125000560322FD3BC03091570330FDE3CF24FFFE
:10126000F5CFEDCF2091560323FFF0CF24FDE7CF3C
:10127000D2CF2091560323FD2CC03091570331FF6C
:10128000EECF84EE90E008952091560325FFDECF47
:1012900089E290E008952091560325FFD7CF85E39A
:1012A00090E008952091560326FFD0CF8AE290E087
:1012B00008952091560326FFC9CF81E390E0089559
:1012C00089E390E0089583EE90E0089582EE90E047
:1012D000089586EE90E008959091560392FF06C01F
:1012E000282F28712830F9F4877F846093FF06C087
:1012F000282F28712831F1F4877E846120915703CB
:1013000020FF06C0382F38713830D9F4877F8160CC
:1013100021FF06C0282F28712831D1F4877E8161F2
:1013200094FD877E0895282F24712430F9F68B7F51
:101330008860DCCF282F2471243101F78B7E8861EF
:10134000DDCF382F3171313019F78E7F8860E0CFD3
:10135000282F2171213121F78E7E8861E1CF0895F8
:101360000C94AF090895E82FF0E0EE0FFF1FEC5D3D
:10137000FC4F808191810895089588E78A95F1F75F
:101380000895CF93DF93A4E0B1E049E051E0C1E0DC
:10139000D0E08D91E82FE295EF70F0E061A98F70B9
:1013A0009E0101C0220F8A95EAF7922F909596230D
:1013B00091AB82A9822B82AB4A175B0751F7A4EF4E
:1013C000B0E061E070E08D91E82FE295EF70F0E021
:1013D00041A98F709B0101C0220F8A95EAF7922FD5
:1013E0009095942391AB82A9822B82AB81E0A430AB
:1013F000B80749F710921B0310921A0310922503A5
:101400001092240310921D0310921C0310922703C4
:101410001092260310921F0310921E0310922903AC
:1014200010922803109221031092200310922B0394
:1014300010922A03109223031092220310922D037C
:1014400010922C0385E00E94B00ADF91CF910C949A
:1014500070078F929F92AF92BF92CF92DF92EF92DE
:10146000FF920F931F93CF93DF9384E0E82E81E0E8
:10147000F82E0AE113E0912CAA24A394B12CF701D1
:1014800081917F01C82FC295CF70D0E099A98F704C
:10149000650101C0CC0C8A95EAF7892F8C2989ABAC
:1014A0008AA98C2C809488218AAB0E94BD09E4EF24
:1014B000F0E050E040E030E020E06191A62FA295FE
:1014C000AF70B0E0D0968C9190E06F7002C09595AF
:1014D00087956A95E2F780FD3EC0C501042E02C0E3
:1014E000880F991F0A94E2F7282B392B4F5F5F4F23
:1014F0004031510511F789A9882289AA8AA9C82AE9
:10150000CAAAF801808191812817390739F13183FE
:10151000208381E0982A0E5F1F4FF9E0EF16F1E07B
:10152000FF0609F0ACCF292D45E064E273E08AE1C3
:1015300093E00E94B10A0E947A07892DDF91CF9132
:101540001F910F91FF90EF90DF90CF90BF90AF90E1
:101550009F908F90089590E080E0C6CF80E0DACF32
:101560000895FF920F931F93CF93DF93F82E092FC7
:10157000162FD72FC42F222349F081E080936801D2
:101580000E94B12090936701809366018091680169
:101590008823A1F080916601909167010E94BD208F
:1015A000069760F0EF2DF02FA12FBD2F90E080E087
:1015B000D0E08C179D0744F010926801DF91CF9125
:1015C0001F910F91FF900895219131912D933D939B
:1015D0000196EFCFEF92FF920F931F93CF93DF937C
:1015E000EB01E82FD11110C0442321F0F0E0E251CB
:1015F000FC4FE4916E2F7E2F8E2FDF91CF911F91A4
:101600000F91FF90EF9008950D2F10E0282F30E0FC
:10161000442329F022513C4FF901249130E0F6E0B7
:10162000CF9FC0011124EFEFF0E0BF010E942F24F3
:10163000AB018C2F90E0880F991FA5E5A49FB00106
:10164000A59F700D1124861B970B982F990F980F4B
:10165000BF01601B710B629FD001639FB00D729F31
:10166000B00D11248B2F9D9FB0011124672F772778
:10167000EF01C61BD70BBE01629FE001639FD00D37
:10168000729FD00D11247F01E91AF108E09EB0018C
:10169000E19E700DF09E700D1124672F7727E61BD9
:1016A000F70BE29F8001E39F100DF29F100D1124B4
:1016B000E12F722F4230510599F048F44115510540
:1016C00069F04130510581F0EB2F8D2F07C0443078
:1016D000510569F080F046305105B1F76E2F8DCF7E
:1016E000E22F7B2F812FFACFE22F7D2FF7CFEB2F29
:1016F000822F712FF3CF7B2F822FED2FEFCF41E081
:101700000C94EA0A0895CF93DF93762FE901682FAE
:10171000842F0E947F0B798368838A83DF91CF9126
:101720000895493C08F048EC0C94830BEF92FF922B
:101730001F93CF93DF93EC0110E0EE24EA94F12C99
:1017400060919A00161770F00E9474059A818C813E
:1017500090FF27C08F5F8C83DF91CF911F91FF9007
:10176000EF90089520919800422F410F5527551F63
:10177000CA019A01220F331F280F391F2D5C3C4FDD
:1017800070E0C7010E944324962F8C814091310361
:1017900060913003199F800D11240E94910B1F5FEF
:1017A000CFCF8150D8CFAF92BF92CF92DF92EF923E
:1017B000FF920F931F93CF93DF93FC0182810FEF72
:1017C00080FF01E010E04AE0A42E80919A001817F3
:1017D000C8F00E94740580916B01013009F055C07A
:1017E000811102C080919A00815080936B01DF913A
:1017F000CF911F910F91FF90EF90DF90CF90BF900E
:10180000AF900895C0919800C12ED12CCC0DDD2D44
:10181000D11DCE01880F991FC80FD91FCD5CDC4F99
:10182000198218821A8234E0E32EF12CB12C8091B7
:101830006B018B0D8B301CF16A2D0E942124892FA6
:10184000082E000C990BC816D90691F4809131032B
:101850008E9DA0018F9D500D11245595479555954E
:1018600047959E016091300380912F030E94910B58
:10187000B00EF1E0EF1AF108D1F61F5FA6CF87FF97
:10188000DFCF90919A00890FDBCF90E001966091B5
:101890009A0070E00E944324A8CF0F931F93CF9328
:1018A000DF93809198009091990023E0829FF0014E
:1018B0001124ED5CFC4F891740F1C0E0D3E060914A
:1018C0009A00C61740F10E947405209194008091FF
:1018D0006A01820F80936A0190919500920F909314
:1018E0009500191654F4082E000C990B40919A009B
:1018F0004150550B841795071CF0219520939400B7
:10190000DF91CF911F910F91089511821082128261
:101910008F5F3396D0CF0C2F10E070E0C8010E948B
:10192000432420919800820F482F50E020916A01B3
:10193000022E000C330B02171307BCF02091950008
:10194000022E000C330B201731077CF08D9F900185
:1019500011242D5C3C4F4091310360913003809104
:101960002F030E94910BCF5FAACFFA01EE0FFF1F4A
:10197000E40FF51FED5CFC4F118210821282F3CF51
:101980008F929F92AF92BF92CF92DF92EF92FF928F
:101990000F931F93CF93DF93EC014C81042F10E042
:1019A0009801D8010E9487249B01AC010E949D24CC
:1019B0004B015C01E0E2F0E0E01BF10BA5E5B0E0DB
:1019C000AC019B010E949D246B017C019F01DF0102
:1019D0000E947F249B01AC010E94A8249B01AC01C2
:1019E000280D391D4A1D5B1DC701B6010E945724F1
:1019F000F22E822F90E039E23F1560F143E0249F00
:101A00009001112435952795122F109500E085E55A
:101A1000E82EEF1880919A00081758F10E9474057B
:101A20009C8181E0992319F0903219F48FEF809313
:101A3000930080919300890F8C83DF91CF911F9148
:101A40000F91FF90EF90DF90CF90BF90AF909F905D
:101A50008F90089525E530E0B901681B790B9B0153
:101A6000220F331F260F371F37FFCCCF2F5F3F4F7B
:101A7000C9CF8E2D01FD8F2D20919800622F600F10
:101A80007727771F9B01220F331F260F371F2D5CEF
:101A90003C4F412F609130030E94910B0F5FBACFF2
:101AA0000F931F93CF93DF93EC0110E000E0909130
:101AB0009A009017110609F06CF40E9474058C814D
:101AC00090E00196817099278C83DF91CF911F91CF
:101AD0000F91089520919800A801420F511D9A017D
:101AE000220F331F240F351F2D5C3C4F4C8160911A
:101AF000300380912F0396959017110651F04CF00A
:101B0000442349F0409131030E94910B0F5F1F4F16
:101B1000CECF4423B9F340E0F7CF8F929F92AF929C
:101B2000BF92CF92DF92EF92FF920F931F93CF93CA
:101B3000DF93FC01B280948081E0848300E015E0B3
:101B40005BE4A52E88248394EE24EA94F12C7BE4B4
:101B5000C72ED12C80919A00081770F0DF91CF9199
:101B60001F910F91FF90EF90DF90CF90BF90AF90BB
:101B70009F908F900C947405C02FD0E01C9FF001B3
:101B80001D9FF00D1124E459FE4F91101CC01382CB
:101B9000128220919800CE01820F911D9C01220F8C
:101BA000331F280F391F2D5C3C4F1C9FF0011D9FD8
:101BB000F00D1124E459FE4F4281618180810E9421
:101BC000910B0F5FC7CF2381222379F1215023830B
:101BD00034818A2D821B311101C0822F1C9FF0019C
:101BE0001D9FF00D1124E459FE4F90913103899F00
:101BF000C0011124B6010E942F246283211104C068
:101C0000332311F01482A38222E02B1510F21C9FC3
:101C1000F0011D9FF00D1124E459FE4F80912F0318
:101C20008083809130038183B4CF0E94FC24823072
:101C300091400CF0AECF82E08B1530F50E94FC2471
:101C4000B7010E9443241C9FF0011D9FF00D112439
:101C5000E459FE4F808322E02B15C8F40E94FC2437
:101C6000209130032695622F70E00E944324280FB4
:101C70001C9FF0011D9FF00D1124E459FE4F21839C
:101C80001282A382848285CF80912F03DCCF2091A2
:101C90003003EECF80912E03982F9E7F61F48170E8
:101CA000826080932E0380913103893C18F088EC88
:101CB0008093310308958635B0F381708465F1CF48
:101CC00088E090E00C942A25CF92DF92EF92FF9269
:101CD0006B017C010E944A0EB701A60188E090E0EA
:101CE000FF90EF90DF90CF900C944725EEE2F3E069
:101CF00083E0808311828FEF828388EC8383148258
:101D000060817181828193810C94640E80912E0395
:101D100080FF02C08695089580E00895EEE2F3E02A
:101D200080818E7F808360817181828193810E9416
:101D3000640E1092A6012FEB84ED91E021508040BB
:101D40009040E1F700C000000C94740590913203BC
:101D5000933018F49F5F90933203882351F0609181
:101D60002E0370912F0380913003909131030C94D6
:101D7000640E089581E00C94A60E9091320399238D
:101D800019F0915090933203882351F060912E0303
:101D900070912F0380913003909131030C94640E65
:101DA000089581E00C94BD0E90912E0390FF14C015
:101DB000909198002091990033E0939FF0011124B5
:101DC000ED5CFC4F921710F00C94740581836083D6
:101DD00042839F5F3396F6CF0895CF93DF9300D071
:101DE0000F92CDB7DEB790912E0390FF0AC09E01EF
:101DF0002F5F3F4F0E94910B4B8169818A810E9426
:101E0000D40E0F900F900F90DF91CF910895CF9344
:101E1000DF93EC01EC81F0E0E751FD4F4491EEE2FD
:101E2000F3E0628181810E94ED0E8C818F5F8C8353
:101E3000DF91CF910895CF93DF93EC01EEE2F3E0D1
:101E4000438162818C810E94ED0E8C818F5F8C8337
:101E5000DF91CF910895AF92BF92CF92DF92EF9230
:101E6000FF920F931F93CF93DF9300D00F92CDB7C4
:101E7000DEB7182FF62E042FE22E90912E0390FF3E
:101E800029C0E92FE695AE2FB0E0A75FBE4F8C9139
:101E90008093A5019E7F923059F59E012F5F3F4FA1
:101EA000812F0E94910B4B8169818A810E94D40EFF
:101EB00010932F03F092300300933103EE2051F082
:101EC00060912E0370912F03809130039091310324
:101ED0000E94640E0F900F900F90DF91CF911F9191
:101EE0000F91FF90EF90DF90CF90BF90AF9008954B
:101EF000823019F400913103DBCF863019F4109150
:101F00002F03D6CF8930D9F3893191F6E9518E2F3D
:101F10008170D82EE695F0E0E751FC4FA590B49083
:101F2000C12CBB2460919A00C61618F00E9474055B
:101F3000BFCF2C2D30E0A29EC001A39E900DB29E7B
:101F4000900D112470E00E942F24812FD11013C016
:101F5000860F40919800420F532F511D9A01220F76
:101F6000331F240F351F2D5C3C4F402F6F2D0E94D7
:101F7000910BC394D7CF861BECCFEEE2F3E09181B7
:101F8000282F438162818AE0890F0C942B0F81E016
:101F90000C94BD0FEEE2F3E09181282F4381628122
:101FA00086EF890F0C942B0F81E00C94CA0FEEE2A0
:101FB000F3E0628121E1620F08F46FEF282F438183
:101FC00081810C942B0F81E00C94D70FEEE2F3E0AB
:101FD000628121E1621B08F460E0282F4381818146
:101FE0000C942B0F81E00C94E60FEEE2F3E04381BA
:101FF00021E1420F08F44FEF282F628181810C9478
:102000002B0F81E00C94F50FEEE2F3E0438121E128
:10201000421B08F440E0282F628181810C942B0F31
:1020200081E00C94041020E00C942B0F0F931F936D
:10203000CF93DF9300D00F92CDB7DEB78C018091A4
:10204000690181110AC09E012F5F3F4F48EC6FEF7D
:102050000E94910B8A8180936901F801648161304B
:1020600069F08091690140E0662361F040E06230F0
:1020700011F44091690180E060E004C06091690161
:1020800040E080E00E94D40EF801848190E0019647
:1020900063E070E00E94432484830F900F900F90C0
:1020A000DF91CF911F910F91089560912E03669556
:1020B00070E04BE050E08BE990E00E940C25892B0A
:1020C00019F481E08093A6010E94B12090939F01B2
:1020D00080939E01089590912E0390FF35C09170DA
:1020E000811128C0926090932E03662351F0609175
:1020F0002E0370912F0380913003909131030E9441
:10210000640E60912E03669570E04BE050E08BE921
:1021100090E00E940C25892BA1F01092A60181E08D
:102120008093A101409131036091300380912F038E
:102130000C9413108B3210F09465D5CF880F982B28
:10214000D2CF0E945510EBCF0895682F90912E03A7
:10215000969581E0890F8B3208F081E00C946B102A
:1021600081E00C94A510682F90912E0396958FEF27
:10217000890F09F48AE20C946B1081E00C94B3107F
:1021800061E00C946B10EEE2F3E08081816080836B
:1021900086950C94C01080912E0380FD0C948E0EB9
:1021A0000C94C31060E00C946B108091A401811119
:1021B0002EC00E94931F811104C00E9439200E94EA
:1021C000760E0E94600E60932E0370932F0380930F
:1021D0003003909331036E7F61F40E94760E0E946B
:1021E000600E60932E0370932F03809330039093BF
:1021F00031030E944A0E1092A60180912E0380FFA7
:1022000003C086950E94D21081E08093A4010895B6
:102210000F931F93CF93DF938091A601882309F436
:102220009DC08091A501E0912E03E695E81BE09307
:10223000A0018230C9F5F0E0EB51FD4FE491CE2FC3
:10224000D0E007E01FE08091A101882389F010927F
:10225000A1010E94B1209E0120953095820F931F0D
:1022600090939F0180939E011092A3011092A2016E
:1022700080919E0190919F010E94BD208C179D0727
:1022800008F46CC0E0919E01F0919F01CE0FDF1F1A
:10229000D0939F01C0939E018EE991E0F801DF91F8
:1022A000CF911F910F910994863049F4F0E0EE51DF
:1022B000FD4FE491CE2FD0E00BE11FE0C4CF893079
:1022C00051F4E695F0E0E152FD4FE491CE2FD0E0DD
:1022D00006E91BE0B8CF8F3051F4E695F0E0E45208
:1022E000FD4FE491CE2FD0E003ED1BE0ACCF853164
:1022F00049F4F0E0E752FD4FE491CE2FD0E00DE439
:102300001CE0A1CFC8E2D0E000EC1CE0883109F469
:102310009ACF833239F4E7EDF2E0C591D49106E12A
:1023200010E191CFC4EFD1E000E51DE0843209F463
:102330008ACFC0EDD7E002E81BE0853209F083CFF9
:102340008E2F63E00E941524E92FF0E0EC52FD4F40
:10235000E491CE2FD0E00DE81DE075CFDF91CF9155
:102360001F910F910895FA01811101C0FB01099499
:10237000CF93DF93C82FD62F0E94860E8C1740F084
:102380000E94860E8D1720F4DF91CF910C94B0102F
:102390008C2FDF91CF910C94C0100F931F93CF938C
:1023A0008C01FB01C281CC2309F465C00E94F11E9F
:1023B0008272F801E25CFC45E431F10538F4E9563B
:1023C000FA4D0C9479240E94CB10C0E08C2FCF9151
:1023D0001F910F9108954DEB50E160EB70E10E9469
:1023E000B311F3CF40EB50E16DEB70E1F8CF44ED6A
:1023F0005FE067EC7FE0F3CF47EC5FE064ED7FE008
:10240000EECF42EF5FE063EE7FE0E9CF43EE5FE0C7
:1024100062EF7FE0E4CF40E150E161E070E1DFCFC7
:1024200041E050E160E170E1DACF41ED5EE06AEB5E
:102430007EE0D5CF4AEB5EE061ED7EE0D0CF81E07B
:102440000E94C010C2CF65E082E00E94B811BDCFEB
:1024500068E086E0FACF6EE089E0F7CF64E18FE0D4
:10246000F4CF67E185E1F1CF88E1EACF62E289E16B
:10247000ECCF83E2E5CFC1E0A9CF0E94931F811189
:1024800002C00E9439200E94C11F809351038031F5
:1024900020F0877088608093510390915103892FB9
:1024A000817090FF04C0892F8695869586950C943F
:1024B0006F0580915103982F987F19F4885F80935E
:1024C0005103809151038160809351030E94C51F85
:1024D000809151038695869586950C946F05809121
:1024E0005103982F987F79F0885080935103887F0B
:1024F00091E009F490E08091510390FB80F9809382
:1025000051030E94C51F809151038695869586953B
:102510000C946F058091510380FD13C081608093FE
:102520005103813019F489E0809351038091510364
:102530000E94C51F809151038695869586950C94BF
:102540006F0508958091510380FF08C08E7F8093AE
:1025500051030E94C51F80E00C946F05089580917F
:10256000510380FD0C94A2120C948A129091510395
:10257000892F8695869586958F5F8F7197708230AB
:10258000D8F4880F880F880F892B8093510380918E
:102590005103887F91E009F490E08091510390FB12
:1025A00080F9809351030E94C51F80915103869545
:1025B000869586950C946F0590935103E8CF811111
:1025C00081E0909151039770282F220F220F220F44
:1025D000922B90935103987F21E009F420E0909191
:1025E000510320FB90F9909351030C946F050E94C6
:1025F000DF12809151030C94C51F9C01FB01828165
:10260000882349F12D3BFCE53F07C9F040F42B3B03
:10261000ECE53E0769F02C3B3C4579F008952F3BF3
:102620009CE5390791F070F0203C3C4589F0089515
:1026300081E00E94F71280E0089580E0FACF0E94C6
:102640006F12F9CF0E945912F6CF0E94AF12F3CF4A
:102650000E94B612F0CF81E00895AF92BF92CF9260
:10266000DF92EF92FF920F931F93CF93DF937C0142
:102670005B01C42FD22FFC0182818823F9F04093A3
:10268000A9010E94B1209093A8018093A70180E244
:102690008C0F883008F061C0C77081E001C0880FDE
:1026A000CA95EAF7DF91CF911F910F91FF90EF90BC
:1026B000DF90CF90BF90AF900C9488171091A90134
:1026C000141340C08091A7019091A8010E94BD20E1
:1026D0006C01B701C5010E945E1CC816D90690F5B1
:1026E000C0E2CD0F1D17B9F080E2810F883040F4B1
:1026F000177081E001C0880F1A95EAF70E948F17C2
:10270000C83048F481E09D2F977001C0880F9A95DA
:10271000EAF70E948817802F0E947517C830E8F4E6
:10272000D77081E001C0880FDA95EAF7DF91CF9189
:102730001F910F91FF90EF90DF90CF90BF90AF90DF
:102740000C948F1780E28C0F883038F4C77081E0CA
:1027500001C0880FCA95EAF7E9CFDF91CF911F91A9
:102760000F91FF90EF90DF90CF90BF90AF900895C2
:102770000F939C01CB01233F4CE5340759F1A8F49A
:10278000283DFCE53F0701F1293D4CE53407D1F137
:10279000273D3C4591F406E221EE41EE67ED7CE5F4
:1027A0000E942D1380E00F910895253FFCE53F071F
:1027B000E9F0B0F0263F3C45F9F0FC018281882326
:1027C00039F11092A901EFCF07E225EE45EE68ED51
:1027D0007CE5E6CF06E221EE40EE63EF7CE5E0CF5C
:1027E00007E225EE44EE64EF7CE5DACF06E221EE67
:1027F00042EE65EF7CE5D4CF07E225EE46EE66EFCC
:102800007CE5CECF08E221E045EE69ED7CE5C8CF5E
:1028100081E0C9CFCF93DF93EC01FB018281882354
:1028200009F419C1C230FCE5DF07C0F1C6319CE5EF
:10283000D90730F09E012A5F3C452930310570F5FB
:102840000E94A61F9093570380935603C031ECE576
:10285000DE0709F4CFC008F05BC0C8308CE5D807AC
:1028600009F4B6C088F5C430ECE5DE0709F4A8C069
:10287000C0F4C2308CE5D80709F49CC0809156039F
:102880008260C330DC4509F498C080915603909172
:1028900057030E94B41F0E94E81980E0DF91CF9196
:1028A0000895809156038061C630ECE5DE0709F497
:1028B00084C0809156038860C730DC4508F47DC031
:1028C00080915603806279C0CC308CE5D80709F43A
:1028D00089C070F4809156038C60CA30ECE5DE0745
:1028E00009F46BC008F478C0809156038E7F65C0F0
:1028F000CE308CE5D80709F479C0809156038B7FE0
:10290000CF30DC4508F459C0809156038F7E55C006
:10291000CB3FECE5DE0709F457C030F5C3318CE559
:10292000D80709F46FC078F4C131ECE5DE0709F48B
:1029300065C0C231DC4509F0A8CF0E94E81980913A
:1029400056038F773AC0C5318CE5D80709F462C0C9
:1029500008F476C0809157038160CA3FDC4509F0D6
:1029600094CF8093570391CFCF3FFCE5DF0709F465
:102970004DC088F4809157038D7FCD3F9CE5D907EA
:1029800081F3809157038E7FCE3FDC4550F38091D9
:1029900057038360E6CFC130FDE5DF0709F459C076
:1029A00008F444C080E0C230DD4509F06ECF0E94DB
:1029B0003B206BCF8091560381608093560365CF97
:1029C000809156038460F9CF809157038260C9CF0C
:1029D000809156038064F1CF0E94E81980915603DC
:1029E0008068EBCF809156038D7FE7CF80915603AF
:1029F000877FE3CF809156038F7DDFCF8091560391
:102A00008F7BDBCF80915603837FD7CF8091570395
:102A10008C7FA7CF8091560382FB992790F921E004
:102A2000922790FB82F990FB83F9C7CF80915703DF
:102A3000982F909591708E7F892B90FB81F991CF83
:102A40000E94E81990915603892F97FB87F98058C7
:102A5000B4CF81E0ACCF81E021CFCF93DF93EB0106
:102A600086319C4511F50E94F11E9A81992399F0B7
:102A70008A7A91E009F490E09093AA01811109C04B
:102A800089E20E94CC1E0E94301F80E0DF91CF912E
:102A9000089585E3F6CF8091AA01811104C089E2EF
:102AA0000E94D31EF0CF85E3FBCF81E0EFCF909360
:102AB000B0018093AF010895E091AF01F091B001B2
:102AC000309721F00190F081E02D099480E0089585
:102AD000E091AF01F091B001309721F00280F381D5
:102AE000E02D099408952091AD013091AE01281791
:102AF000390771F09093AE018093AD01E091AF0181
:102B0000F091B001309721F00680F781E02D099413
:102B100008952091AB013091AC012817390771F06D
:102B20009093AC018093AB01E091AF01F091B001C3
:102B3000309721F00084F185E02D0994089584B741
:102B4000806884BF84B7806884BF0895089508951D
:102B50000C94A7150E949F150E94A6150C940F07B0
:102B600081E008950C94B0150E94AA200E94C1092A
:102B70000E9409210E943D120E94D5100C94A815B4
:102B80009F92AF92BF92CF92DF92EF92FF920F93FC
:102B90001F93CF93DF93CDB7DEB72A970FB6F89484
:102BA000DEBF0FBECDBF0E94290A0E94B215882346
:102BB00009F470C052EBA52E51E0B52E10E000E0F4
:102BC000902E802F0E94B3096C01F501E190F190E5
:102BD0005F01E816F90609F457C080913C0281FDB7
:102BE0000E94BC0997012C253D2580E0EE24E3944A
:102BF000F12CA9014E215F21452B09F43FC08E83A2
:102C00009F82CE20DF2081E0CD2809F480E08887F4
:102C10000E94B1208160782F9A8789874E815F81D9
:102C200068858A850E946D16000F111FF801EE5409
:102C3000FE4F80819181E826F926F182E0820E9490
:102C400008110E945C159091B1018917A1F10E94B1
:102C50005C158093B1012A960FB6F894DEBF0FBEC3
:102C6000CDBFDF91CF911F910F91FF90EF90DF903B
:102C7000CF90BF90AF909F900C94A3048F5FEE0C09
:102C8000FF1C803109F0B5CF0F5F1F4F05301105D4
:102C900009F096CF8FEF89838A831B820E94B1202F
:102CA0008160782F9D838C8349815A816B818D81CE
:102CB0000E946D16C4CF2A960FB6F894DEBF0FBEE1
:102CC000CDBFDF91CF911F910F91FF90EF90DF90DB
:102CD000CF90BF90AF909F900895CF93DF93CDB7E3
:102CE000DEB72B970FB6F894DEBF0FBECDBF4F8374
:102CF000588769877A878B871E821D8285E0FE014F
:102D00003796DE01119601900D928A95E1F749817F
:102D10005A816B817C818D819E812B960FB6F894B0
:102D2000DEBF0FBECDBFDF91CF910C94611CFC01C3
:102D3000808191810C949E1ECF93C82F882309F423
:102D400083C08238C1F40E945C1581FD7DC089E397
:102D50000E94CC1E0E94301F2FE789EA93E0215089
:102D600080409040E1F700C0000089E30E94D31E3C
:102D7000CF910C94301F8338A1F40E945C1580FD24
:102D800063C083E50E94CC1E0E94301F2FE789EAB2
:102D900093E0215080409040E1F700C0000083E5BF
:102DA000E5CF8438A1F40E945C1582FD4DC087E414
:102DB0000E94CC1E0E94301F2FE789EA93E0215029
:102DC00080409040E1F700C0000087E4CFCF8CEF57
:102DD0008C0F813A90F46C2F8091A6009091A700FF
:102DE0000E945220882329F08C2F0E94D31E0E941B
:102DF000301F8C2F0E94CC1EBBCF80E28C0F8830FE
:102E000048F4C77081E001C0880FCA95EAF70E94B4
:102E1000F41EAECFEBE5EC0FE33040F4F0E0EE59FA
:102E2000FE4F808190E0CF910C947315C85AC73142
:102E300058F4EC2FF0E0EE0FFF1FEC5CFE4F8081AA
:102E40009181CF910C948915CF910895882309F42D
:102E50004BC0823871F40E945C1581FF45C089E344
:102E60000E94CC1E0E94301F89E30E94D31E0C9446
:102E7000301F833859F40E945C1580FF35C083E50C
:102E80000E94CC1E0E94301F83E5EFCF843859F496
:102E90000E945C1582FF28C087E40E94CC1E0E941D
:102EA000301F87E4E2CF9CEF980F913AF0F290E266
:102EB000980F983050F4877091E001C0990F8A956F
:102EC000EAF7892F0E94FA1ED2CF9BE5980F933024
:102ED00020F490E080E00C947315885A873120F438
:102EE00090E080E00C9489150895CF93C82F0E943C
:102EF0009C16C93349F42FEF8DEE92E021508040AB
:102F00009040E1F700C000008C2FCF910C94261761
:102F1000882321F00E94F41E0C94301F089588230A
:102F200021F00E94FA1E0C94301F0895BF92CF9298
:102F3000DF92EF92FF920F931F93CF93DF936C0179
:102F4000D62FC72FFC01058102950F701281111138
:102F50000E94111F0E94EA1EE82E882391F011237F
:102F6000E9F08C2F807F803421F080E28D0F883053
:102F7000A8F082E00E947B1F0E94EA1E91E0E82EEA
:102F8000E926BC2EB2949FE0B922FBE0FB15A8F124
:102F9000EB2DF0E0E555FA4D0C947924E12CF1CFBE
:102FA0000C2F0F70C07F11F00295007F1123A9F044
:102FB000002359F080E28D0F883010F0D11109C044
:102FC000802F0E94F41E0E94301F8D2F0E949C169D
:102FD00014C0802F0E94041FF6CF8D2F0E94261749
:102FE000002359F080E28D0F883010F0D1112CC0F1
:102FF000802F0E94FA1E0E94301F2B2D2850330B69
:103000002430310520F40E945C150E94A304EE20B8
:1030100009F483C10E94E61E80FD7FC1F601128281
:103020000E94E01E0E946D1DC6010E94AE190E9402
:10303000E01EDF91CF911F910F91FF90EF90DF90F5
:10304000CF90BF900C948E1D802F0E940A1FD3CF6B
:103050002C2F2F70F22EC07FC03219F0F29480EF27
:10306000F822DD2369F0D13049F1112391F10023D9
:1030700051F1F601858180FFA8CF8F70858323C031
:10308000112381F0011106C00E94171F8F290E9491
:103090008817B3CF0130C1F70E94171F8F290E94F4
:1030A0001D1FABCF011106C00E94261F8F2D0E944D
:1030B0008F17A3CF013009F4A0CFF6CF112329F049
:1030C000063008F09ACF8F2DE2CF053008F095CF6B
:1030D000EDCF002359F3D93349F4FFEF2DEE32E061
:1030E000F15020403040E1F700C000008D2F0E94D9
:1030F000261783CF8C2F86958695837069F0813053
:1031000009F07BCF8D2F9C2F9370111102C090E09E
:1031100080E00E94891571CF8D2F9C2F9370111123
:1031200002C090E080E00E94731567CF8C2F8370FF
:1031300009F041C0111161CF4D2F4295469547705E
:10314000440F440F0D2F0F7010E030E020E0042EEC
:1031500004C0000F111F221F331F0A94D2F760E032
:1031600070E0CB01D4FF0FC06FE070E080E090E032
:1031700004C0660F771F881F991F4A95D2F7609584
:10318000709580959095C695C695C370602B712BF0
:10319000822B932BC23049F058F4C13019F00E94B1
:1031A0001F1D2BCF0E940D1D28CF0E94311D25CF42
:1031B0000E940B1D22CF8695112311F08C2F817058
:1031C000882309F41ACF4D2F429546954770440F36
:1031D000440F0D2F0F7010E030E020E0042E04C0EB
:1031E000000F111F221F331F0A94D2F760E070E016
:1031F000CB01D4FF0FC06FE070E080E090E004C02E
:10320000660F771F881F991F4A95D2F760957095B2
:1032100080959095C695C695C370602B712B822BB7
:10322000932BC23049F058F4C13019F00E94E41DCC
:10323000E4CE0E94D21DE1CE0E94F61DDECE0E9499
:10324000471DDBCECF70112329F08C2F0E946D1DFE
:103250008D2F1DCF8D2F0E948F178C2F0E948E1DBA
:10326000CCCED23F89F160F4D03FC9F0D13F29F1F3
:10327000112309F442C00111A8CE8C2F8F7121C0F7
:10328000D33F39F1D43FA1F7112369F1CF718C2FCE
:103290000E946D1D63E08C2F0E94661FAECE11232D
:1032A00041F0053008F0A9CE8C2F8F710E94B11D1E
:1032B000A4CE063008F0A1CEF7CF8C2F8F7111234A
:1032C00069F20E946D1D99CE8C2F8F711123C9F365
:1032D000C5CF112329F08C2F8F710E94581D8DCEE0
:1032E0000E94531D8ACE81E00E947B1F023008F4A9
:1032F00084CE82E00E947B1F80CE002359F0D93318
:1033000009F0F4CE8FEF9DEEE2E081509040E04076
:10331000E1F7EACE8C2F8F71A1CFDF91CF911F9172
:103320000F91FF90EF90DF90CF90BF9008950F9393
:103330001F93CF93DF93EC01688179818A810E948A
:10334000A81E8C010E94081E0E940A1DB801CE0111
:10335000DF91CF911F910F910C949617CF93DF932C
:10336000EC018B819C81892B29F0888199818923AB
:103370008F3F59F4DF91CF910895CE010E949719A4
:10338000CE01DF91CF910C946507CE010E948C078E
:103390008111F3CF0E94EA1E882361F38A8188237A
:1033A00049F382E0DF91CF910C947B1F0E94111FA3
:1033B0000E94141F0E94301F90E080E00E9473154D
:1033C00090E080E00C9489150E94DA1E0C94D619C6
:1033D0000E94011F0C94E419E92FE295EF70E2506E
:1033E000EE3070F4F0E0E954FA4D0C947924803F0B
:1033F00019F020F4883E20F481E00895843FE1F341
:1034000080E00895883EC0F3813FD1F7F5CF93FB6C
:10341000882780F908950E949E1E0C94EC19CF9382
:10342000DF9300D000D00F92CDB7DEB70F900F9092
:103430000F900F900F90DF91CF910895CF93DF936E
:1034400000D000D000D0CDB7DEB726960FB6F894E6
:10345000DEBF0FBECDBFDF91CF9108951F93CF93F5
:10346000DF93C091BD0116E08091BE018C1304C0B2
:10347000DF91CF911F910895D0E01C9FF0011D9F17
:10348000F00D1124E154FE4F40815181628173811E
:10349000848195810E941E1A2196C770E5CF4091C4
:1034A000EF015091F0016091F1017091F201809172
:1034B000F3019091F4010C941E1A1F93CF93DF93A4
:1034C0008091F401807FA9F48091F101882389F033
:1034D0008091BD01C091BE016091EF017091F0013A
:1034E000A091F201B091F301D62FD72316E0C813B3
:1034F00004C0DF91CF911F91089590E0109711F0D3
:10350000DF3F19F401968770F2CF189F9001199F41
:10351000300D1124F901E154FE4F41814713F2CFE0
:1035200040814613EFCF42814111ECCF438154815A
:103530004A1B5B0B483C510528F78091F4018F70C2
:1035400080618093F401F901EC53FE4F80818F700C
:10355000806180838FEE91E00E94AE19DF91CF9160
:103560001F910C942E1AAF92BF92CF92DF92EF92DE
:10357000FF920F931F93CF93DF93CDB7DEB7619781
:103580000FB6F894DEBF0FBECDBF8C0185E0F80109
:10359000DE011D9601900D928A95E1F7F8014081B8
:1035A0005181E2808FEEC82E81E0D82E6091F20129
:1035B0007091F3016115710509F461C19091EF01FA
:1035C0002091F001892F82238F3F09F458C1A380F5
:1035D000B480F090F101F501E61BF70BFF2009F430
:1035E000FCC08091F401382F307FE83CF10508F0F1
:1035F000B2C0311179C0FE2C251323C0941321C011
:10360000E1101FC08F7080618093F4010E944F1AF7
:10361000C6010E94AE198091F401F80185838F2DB7
:1036200061960FB6F894DEBF0FBECDBFDF91CF918C
:103630001F910F91FF90EF90DF90CF90BF90AF90D0
:103640000895AB2829F0842F85238F3F09F033C1DB
:1036500080E0F82FF170DF2E80FF3CC08091BD012B
:103660002091BE0136E0821315C04D875E878D859F
:103670009E850E949E1E292F22952F702230F0F0E9
:10368000243018F59F70F1F0F8019581907FD1F406
:10369000D12C1EC090E0389FF001399FF00D11240D
:1036A000E154FE4F6181651306C06081641303C05D
:1036B00062816E110FC001968770D5CF9F7011F097
:1036C000882331F3805E883018F3C8010E94AE1958
:1036D000FD2CA5CFEE2009F4A2CF8091F4018160EA
:1036E0008093F401F12C9BCF251306C0941304C0E2
:1036F000F801EE2009F48DC04D875E878D859E858B
:103700000E940B1A882319F1EE2009F18091F4012F
:10371000803270F02091EF013091F00138872F83D3
:103720001986BB86AA868C87CE0107960E94AE19A1
:1037300086E0F801AFEEB1E001900D928A95E1F7D5
:103740000E945D1A0E944F1AFF24F39468CFC801AB
:103750000E94AE19F9CF311113C07A2DB98AA88A07
:103760006E2D89890E940F1A8FEE91E00E94AE198A
:1037700086E0F60111928A95E9F70E944F1AB2CFBE
:1037800025130FC094130DC0E1100BC0F801858301
:10379000C8010E94AE1986E0F60111928A95E9F7F8
:1037A0003ECF4D875E878D859E850E940B1A8823AC
:1037B00071F2EE2061F28091F401803208F4B8CF0A
:1037C0002091EF013091F0013A8329831B82BD8261
:1037D000AC828E83CE010196A9CFE83CF10508F0BA
:1037E00041C0FE2CEE2009F4B2CF25132AC0941359
:1037F00028C08091F40180FD1BC0982F907FC1F0FC
:10380000F8018583903F31F0982F907F905F8F7003
:10381000892B8583C8010E94AE1986E0F801AFEEBE
:10382000B1E001900D928A95E1F70E944F1AF7CE10
:1038300086E0F801AFEEB1E001900D928A95E1F7D4
:10384000EECE4D875E878D859E850E940B1A811175
:103850006FCF8091F40181608093F401C8010E94D0
:10386000AE19DDCE7A2DB98AA88A6E2D89890E947B
:103870000F1A86E0F60111928A95E9F7D6CFEE206D
:1038800009F465CF4D875E878D859E850E940B1A52
:10389000F82E882309F45BCF86E0F801AFEEB1E0A3
:1038A00001900D928A95E1F78FEE91E00E949716B4
:1038B0000E945D1ABACF81E08E25CBCE88EC90E0D5
:1038C00008951F93CF93DF93CDB7DEB72C970FB634
:1038D000F894DEBF0FBECDBF4F83588769877A87C4
:1038E0008B879C87CE0107960E94B31A882369F0C4
:1038F0008A859B85892B39F04F815885842F8523B4
:103900008F3F09F071C016E05FC086E0FE01379678
:10391000DE01119601900D928A95E1F78A859B85CB
:10392000892B89F38F81988589238F3F61F32091BB
:10393000BE0130E0C9010196877099274091BD0111
:103940004817190671F40E94E8191092BE011092EE
:10395000BD0186E0EFEEF1E0DF011D928A95E9F707
:10396000D2CF96E0929FD001939FB00D1124A15425
:10397000BE4FFE01319601900D929A95E1F780932A
:10398000BE010E942E1ABFCF819FC0011124815415
:103990009E4F0E94B31A8823E9F0E091BD011E9F5B
:1039A000F0011124E154FE4F408151816281738105
:1039B000848195810E941E1A8091BD0190E001963C
:1039C000877099278093BD018091BD019091BE01C0
:1039D0008913DACF2C960FB6F894DEBF0FBECDBF99
:1039E000DF91CF911F91089569857A858B859C859C
:1039F0000E941E1A88CF08950C94FB1C0E94FC1C88
:103A000060932B0270932C0280932D0290932E02D0
:103A10000C94D61908950C94FE1C0F931F930091DB
:103A20002B0210912C0220912D0230912E02602B3E
:103A3000712B822B932B1F910F910C94FE1C0F93D3
:103A40001F9300912B0210912C0220912D02309196
:103A50002E0260237123822393231F910F910C94D4
:103A6000FE1C0F931F9300912B0210912C022091AA
:103A70002D0230912E0260277127822793271F91F4
:103A80000F910C94FE1C0C94FB1C0C94431D0E9483
:103A9000451D60932702709328028093290290931A
:103AA0002A020C94D61960E070E0CB010C94471DFB
:103AB0000F931F9341E050E060E070E08A019B01AA
:103AC00004C0000F111F221F331F8A95D2F7C901AE
:103AD000B8011F910F910C94471D0F931F9341E064
:103AE00050E060E070E004C0440F551F661F771F70
:103AF0008A95D2F78091270290912802A0912902FD
:103B0000B0912A028A019B01082B192B2A2B3B2BEF
:103B1000C901B8011F910F910C94471D0F931F937A
:103B200041E050E060E070E004C0440F551F661FA4
:103B3000771F8A95D2F7CB01BA0160957095809571
:103B4000909500912702109128022091290230912E
:103B50002A0260237123822393231F910F910C94D7
:103B6000471D0F931F9341E050E060E070E004C0F8
:103B7000440F551F661F771F8A95D2F78091270241
:103B800090912802A0912902B0912A028A019B01FA
:103B9000082719272A273B27C901B8011F910F9130
:103BA0000C94471D0F931F93009127021091280238
:103BB0002091290230912A02602B712B822B932BAA
:103BC0001F910F910C94471D0F931F930091270293
:103BD000109128022091290230912A02602371233A
:103BE000822393231F910F910C94471D0F931F93D2
:103BF00000912702109128022091290230912A0277
:103C000060277127822793271F910F910C94471DDE
:103C100008959295907F890F982F977041E001C089
:103C2000440F9A95EAF786958695869595E0899F43
:103C3000F0011124EB50FE4F30E020E070E0519194
:103C4000DF011197CB01022E02C0969587950A9449
:103C5000E2F7817081958527842385278C932F5FD8
:103C60003F4F2530310559F708959295907F890F80
:103C7000982F977086958695869525E0829FF0010E
:103C80001124EB50FE4F50E040E080E0219130E005
:103C9000092E02C0369527950A94E2F72170332742
:103CA000042E01C0220F0A94EAF7822B4F5F5F4F68
:103CB0004530510559F70895BF92CF92DF92EF92A8
:103CC000FF920F931F93CF93DF938C01C090270235
:103CD000D0902802E0902902F0902A0280912B02D5
:103CE00090912C02A0912D02B0912E02C82AD92ABF
:103CF000EA2AFB2ACFE1D0E0BC2ED701C6010C2E68
:103D000004C0B695A795979587950A94D2F780FD3C
:103D10000EC0219788F7B12C8B2DDF91CF911F9189
:103D20000F91FF90EF90DF90CF90BF900895B80172
:103D30008C2F0E94E907019761F3EECFCF93DF93B9
:103D4000EC010E945C1EBE01DF91CF910C94E9074B
:103D50001F93CF93DF93EB019091BC01992331F036
:103D6000CB01DF91CF911F910C949E1E882379F097
:103D7000CB010E945C1E182F682FCE010E94091EE5
:103D8000BE01812FDF91CF911F910C94E907CB01E8
:103D90000E94351E182FF4CF682F8091A6009091B5
:103DA000A7000C948820682F8091A6009091A7000E
:103DB0000C948A208091A6009091A7000C948C20EE
:103DC00080912F02859585958595089580912F0284
:103DD0008770089590912F02977081E009F480E038
:103DE000089580913B02089590913B02892B809326
:103DF0003B020895809590913B02982390933B025B
:103E0000089510923B02089590913A02892B809375
:103E10003A020895809590913A02982390933A023D
:103E2000089510923A0208951092390208958091EF
:103E30003002089508950C941A1F9091300298173B
:103E400021F0809330020C941B1F08958091300262
:103E5000882329F01092300280E00C941B1F0895F3
:103E6000E091A600F091A70080913B028083E09151
:103E7000A600F091A700808190913A02892B80835F
:103E8000E091A600F091A700808190913902892BE2
:103E9000808390913002992381F0E091A600F09107
:103EA000A7008081892B80838091A6009091A70034
:103EB0000E94402081110E94261F8091A6009091AF
:103EC000A7000C94681508950C94631F98E0899FCF
:103ED00090011124622B60932F020E946D1D80912E
:103EE0002F028595859585950C94641F10922F025D
:103EF00080E00C94641F90912F0280958923809319
:103F00002F02282F277071F4282F082E000C330B56
:103F10009217130639F08595859585950E948E1D1B
:103F20000C94761F089590E080E00E94302521E0F7
:103F30008C3E9E4F09F020E0822F089582E090E0B1
:103F40000C94222583E090E00C942225CF9384E00A
:103F500090E00E942225C82F81E290E00E94222555
:103F6000982F8C2FCF910895CF93C92F682F84E07D
:103F700090E00E9436256C2F81E290E0CF910C9466
:103F8000362586E090E00C942225682F86E090E0AC
:103F90000C943625AB01BC018FE090E00C944725D2
:103FA000AB01BC0183E190E00C94472560E070E038
:103FB000CB010C94D01F60E070E0CB010E94CA1FBF
:103FC0000C94D61F6CEE7EEF90E080E00E945325AB
:103FD00060E082E090E00E94362560E083E090E0BF
:103FE0000E94362510922B0210922C0210922D0264
:103FF00010922E0260E084E090E00E94362560E09E
:1040000081E290E00E94362560E085E090E00E9429
:10401000362560E086E090E00E9436256FEF87E06D
:1040200090E00E94362540E050E0BA0188E090E040
:104030000E94472560E08DE090E00E94362540E038
:1040400050E0BA0188E190E00E94472560E087E1F6
:1040500090E00E94362540E050E0BA018CE190E00B
:104060000E94472560E080E290E00E9436250C9493
:10407000DB1F0C94E21F682F8EE090E00C94362535
:104080009C012E5F3F4FAC01485F5F4F80E02417DB
:10409000350709F40895F90191919F019923B9F326
:1040A0008F5FF5CF662349F0FC0132960896219187
:1040B000261729F0E817F907D1F780E0089581E085
:1040C00008959C01FC0132969FEF80E041914617D4
:1040D00051F09F3F19F4411101C0982F8F5F863036
:1040E000A9F79F3F09F40895290F311D97FD3A95CF
:1040F000F90162830895FC013296089621912613F6
:1041000003C0DF0111971C92E817F907B9F708956A
:104110000C9461200C947B20029626E0FC01119205
:104120002A95E9F7089508950895CF930E94932062
:104130000E94290A0E949420C0E08C2F0E94B3099B
:10414000892B31F4CF5FC530C1F780E0CF9108955E
:1041500081E0FCCF8BE083BF8BEB8CBF82E089BF1B
:1041600008952FB7F8948091520390915303A09132
:104170005403B09155032FBF08959C014FB7F89495
:104180008091520390915303A0915403B091550331
:104190004FBF821B930B089578941F921FB61F92F6
:1041A00011248F939F93AF93BF938091520390916B
:1041B0005303A0915403B09155030196A11DB11D65
:1041C0008093520390935303A0935403B0935503E9
:1041D000BF91AF919F918F911F901FBE1F90189517
:1041E00060E081E090E00E94592587E090EBDC01DF
:1041F0008093A8039093A903A093AA03B093AB0361
:1042000088E19CE00FB6F894A89581BD0FBE91BDE2
:10421000FFCF0E94931F811102C00E9439200E948B
:104220009E1F80933C020E94A61F90935703809389
:1042300056030E94A21F682F70E090E080E00E9469
:104240000B1D6091270270912802809129029091A4
:104250002A020C94451D0E94B1208C010E94AA15CF
:104260000E941E220E9457150E94FA238B9A80E01A
:10427000815039F58B987894FFEB24ED31E0F150C3
:1042800020403040E1F700C000000E94B415C0E0BB
:10429000DCE080917F038823F1F010927F030E947D
:1042A000B1208C010E940A2380918503882329F084
:1042B0008091630384FD0E94C0150E94C521C0E067
:1042C000E8CFA895E7EBFBE03197F1F700C00000DD
:1042D000CFCFC1E0DECFC8010E94BD20069710F409
:1042E000CC2301F30E949520C82F882391F3F894E2
:1042F00091B3939A892F8C6081BB82B38D2782BB47
:104300008FE5EAEEF0E08150E040F040E1F700C0D8
:10431000000082B38D2782BB91BB93987894B9CF6C
:104320008091CE0208950895CF93DF9300D00F922D
:10433000CDB7DEB790913F02981307C020913D02A0
:1043400030913E022617370791F080933F02709319
:104350003E0260933D0289837B836A8380919C0344
:1043600084FF05C063E0CE0101960E9406230F90F2
:104370000F900F90DF91CF910895BC0184E00C94D1
:104380009421BC0183E00C949421CF93DF93CAE085
:10439000D0E08091630384FF1AC080914B0290911A
:1043A0004C02981789F028E0829FC001112468E030
:1043B000835B9D4F0E94022380914B0290E0019607
:1043C0008F70992780934B02DF91CF9108950E94BF
:1043D0000A2387EB9BE00197F1F700C000002197CB
:1043E000C1F6F2CFCF93DF93EC01A0914C02B0E085
:1043F000CD0101968F70992720914B02281779F0F3
:1044000093E0AA0FBB1F9A95E1F7A35BBD4F98E01D
:10441000FE0101900D929A95E1F780934C020E9463
:104420000A230E94C52188E0FE01A3E4B2E00190C6
:104430000D928A95E1F7DF91CF91089588EA90E097
:104440000895FC01808180768032F1F48181813091
:1044500061F484819581892BB9F483E492E090938F
:1044600081038093800388E00895823041F48DECCD
:1044700092E0909381038093800381E008958A30D5
:1044800029F483818093CD0280E008958930E1F79B
:10449000828193818115924069F484819581892B71
:1044A00049F481E080934202868197819093410292
:1044B000809340028FEF0895FC018091400290911B
:1044C0004102892B61F080914202813041F4908158
:1044D0009093CE02109241021092400208958FEF05
:1044E00008950895FC019381933059F130F491308F
:1044F000C1F09230F1F080E00895913209F440C0AB
:104500009232C9F784819581009709F44AC00197D6
:1045100091F781E695E0909381038093800382E395
:10452000089589E295E0909381038093800382E16E
:1045300008958EEE94E090938103809380038BE343
:1045400008958281813089F0882339F08230A9F082
:10455000833089F68BE395E002C08DE595E090937A
:1045600081038093800384E008958FE495E0909325
:104570008103809380038CE0089581E495E0F7CF78
:104580008281882331F0813009F0B5CF89E195E04F
:1045900002C080E095E0909381038093800389E0DE
:1045A000089583E995E0909381038093800380E4EC
:1045B00008951F93CF93DF93E82F792F162FEA01E9
:1045C000888184FF1CC0298188E828272983CE019F
:1045D0000296DC012E2F372F512F5E0FF90121910A
:1045E0002D939F01452F4E1B1416C4F3612F0E947B
:1045F00045031C5F1883DF91CF911F9108958AE5D1
:104600008883E5CF43E653E00C94D9224CE953E08C
:104610000C94D922CF93DF9360918203635067FD9E
:1046200012C080917E03CCE0D0E0C81BD109CA57EC
:10463000DC4F80917D03803108F054C0CE010E9490
:104640007122109282038091B30084FF3EC080915A
:10465000B2008F3FD1F1C82F893008F0C8E0982F01
:104660009C1B9093B2009091580328E89227909356
:1046700058038823E9F08091800390918103209171
:104680007C0326FFAEC0FC012C2FA9E5B3E03491DA
:104690003D9331962150D9F79C012F5F3F4F8FEF0B
:1046A0008C0F820F932F911D909381038093800331
:1046B0006C2F89E593E00E944503CC5FCC3019F064
:1046C0008FEF8093B200C093B30084E190B39C70ED
:1046D00031F48150D9F71092830310927B03DF915C
:1046E000CF9108958D3209F069C0683009F0A9CFE3
:1046F00083EC809358038AE58093B30010927C0387
:104700008881807671F0CE010E9421228F3FC1F412
:10471000988197FD8E8190E890937C038093B200FE
:1047200090CF2A81109261039981911111C010924A
:10473000620321E633E082E030938103209380031B
:104740009F819111EBCF9E81981740F7892FE6CF7B
:10475000953029F42093830321E633E0EDCF9630A2
:1047600099F49B81913021F4CE010E94722208C0FD
:104770009230D1F39330C1F39132B1F39232A1F37D
:1047800090E490937C03C2CF983089F0993019F46B
:1047900020938503E1CF9A3071F09B30E9F69BE4DA
:1047A0009093640390939D0390937003D5CF25E875
:1047B00033E081E0C1CF21E633E0FBCF80917C0381
:1047C00087FF3FCFCE010E945C228F3F21F48EE114
:1047D0008093B30036CF882309F433CF1092B20010
:1047E00030CFDC012C2FE9E5F3E03D9131932150EE
:1047F000E1F752CFCF93DF9385B7886085BF8BB742
:1048000080688BBFC3E6D3E08BE48983ACE9B3E077
:1048100011968C931197EFE6F3E081838AE5888304
:104820008C938083DF91CF910895991B79E004C028
:10483000991F961708F0961B881F7A95C9F78095DF
:10484000089587FB082E062687FD819567FD6195F3
:104850000E9415240EF4919507FC81950895AA1BDA
:10486000BB1B51E107C0AA1FBB1FA617B70710F05B
:10487000A61BB70B881F991F5A95A9F7809590958D
:10488000BC01CD01089597FB072E16F4009407D0C4
:1048900077FD09D00E942F2407FC05D03EF49095A7
:1048A00081959F4F0895709561957F4F0895A1E27E
:1048B0001A2EAA1BBB1BFD010DC0AA1FBB1FEE1F9A
:1048C000FF1FA217B307E407F50720F0A21BB30BE5
:1048D000E40BF50B661F771F881F991F1A9469F761
:1048E00060957095809590959B01AC01BD01CF01BD
:1048F0000895EE0FFF1F0590F491E02D09940E949A
:104900008724332312F48A1B9B0B0C949824A29FB8
:10491000B001B39FC001A39F700D811D1124911D93
:10492000B29F700D811D1124911D08950E9487244E
:10493000B7FF0895821B930B08950E948724A59FBB
:10494000900DB49F900DA49F800D911D112408958A
:10495000B7FF0C949D240E949D24821B930B089505
:104960008F929F92AF92BF92CF92DF92EF92FF927F
:10497000CF93DF93EC01688179818A819B816115F6
:1049800071058105910521F464E279ED8BE597E0ED
:104990002DE133EF41E050E00E94762549015A01B4
:1049A0009B01AC01A7EAB1E40E949D246B017C014C
:1049B000ACEEB4EFA50194010E94AB24DC01CB0165
:1049C0008C0D9D1DAE1DBF1DB7FF03C00197A10932
:1049D000B04888839983AA83BB839F77DF91CF9167
:1049E000FF90EF90DF90CF90BF90AF909F908F900F
:1049F00008950E94B024089580E690E00E94B024BB
:104A00000895B0E0A0E08093600090936100A093CF
:104A10006200B09363000895FC014150504030F0B3
:104A200001900616D1F73197CF010895882799276D
:104A30000895FB01DC0102C001900D9241505040ED
:104A4000D8F70895E199FECF9FBB8EBBE09A9927D6
:104A50008DB30895A6E1B0E044E050E00C946825E1
:104A6000A8E1B0E042E050E00C946825262FE199DF
:104A7000FECF9FBB8EBBE09A01970DB2021631F0BC
:104A80002DBB0FB6F894E29AE19A0FBE08950396F3
:104A9000272F0E9437250E943625252F0E94372573
:104AA000242F0C9437250196272F0E9437250C942C
:104AB0003625262FE199FECF9FBB8EBB2DBB0FB6AF
:104AC000F894E29AE19A0FBE01960895DC01CB01B9
:104AD000FC01E199FECF06C0FFBBEEBBE09A319628
:104AE0000DB20D9241505040B8F70895052E97FB36
:104AF0001EF400940E948D2557FD07D00E94572474
:104B000007FC03D04EF40C948D25509540953095BC
:104B100021953F4F4F4F5F4F089590958095709529
:104B200061957F4F8F4F9F4F0895F894FFCFE3110A
:104B3000EB11F211F711FC11011206120B121012F7
:104B400015121A121F12231228122B122E123112B2
:104B5000341236123912D017D017281828187A189C
:104B6000FD17FD17FD179618221931193119F7197C
:104B7000F719001A001A021A001A001A001AF71977
:0A4B8000F719071A001A001A071AA5
:104B8A0001000000000808080505080808050508CE
:104B9A000808050505C800F4010A0000000001051F
:104BAA0000000205000003010501040105010501D9
:104BBA00050105010102000A000A0A01191A1B1C53
:104BCA001D1E1F20212231029021F2219321C12191
:104BDA00BD21FF5A07070707070707070707070740
:104BEA00070707E200E900EA00B500B600B700CD02
:104BFA00008301CC008A019201940121022302243C
:104C0A00022502260227022A02B300B4006F0070AE
:104C1A0000818283909192939495969760616263E2
:104C2A0064656667333435363700010202020206CC
:104C3A0006060909090909090F0F0F0F0F0F1515A4
:104C4A0015181919191919191919191923242525A2
:104C5A0025252525E200E900EA00B500B600B700DF
:104C6A00CD008301CC008A01920194012102230222
:104C7A0024022502260227022A02B300B4006F008A
:064C8A007000818283002E
:00000001FF
