:100000000C94A2030C94E6030C9401040C94E603F4
:100010000C94E6030C94E6030C94E6030C94E603BC
:100020000C94E6030C94E6030C94E2240C94E6038F
:100030000C94E6030C94E6030C94E6030C94E6039C
:100040000C94E6030C94E6030C94E6030C94E6038C
:100050000C94E6030001010101010101010102020A
:100060000202020202020203030303030303030466
:100070000404040404040505050505060606060631
:10008000070707070708080808090909090A0A0AEB
:100090000B0B0B0C0C0C0D0D0D0E0E0E0F0F0F108D
:1000A0001011111112121313141415151616171717
:1000B000181819191A1A1B1B1C1D1D1E1E1F202083
:1000C000212222232424252626272829292A2B2CCD
:1000D0002D2D2E2F30313232333435363738393AF0
:1000E0003B3C3D3E3F404142434445464748494AE8
:1000F0004C4D4E4F50515354555658595A5B5D5EB6
:100100005F616264656668696B6C6D6F7072737550
:1001100077787A7B7D7E8082838587888A8C8E8FB4
:1001200091939596989A9C9EA0A2A3A5A7A9ABADE2
:10013000AFB1B3B5B7BABCBEC0C2C4C6C9CBCDCFD0
:10014000D1D4D6D8DBDDDFE2E4E7E9EBEEF0F3F57E
:10015000F8FAFDFFFFAA7F55402223252628292AE9
:100160002C2D2F3032333536383A3B3D3E4042431A
:100170004547494A4C4E5051535557595A5C5E6059
:1001800062646668696B6D6F71737577797B7D7F6B
:1001900081838587898A8C8E90929496989A9C9E6A
:1001A0009FA1A3A5A7A8AAACAEAFB1B3B4B6B8B986
:1001B000BBBCBEBFC1C2C3C5C6C7C9CACBCCCDCEEE
:1001C000D0D1D2D2D3D4D5D6D7D7D8D9D9DADADBD1
:1001D000DBDBDCDCDCDCDCDDDDDDDDDCDCDCDCDC5D
:1001E000DBDBDBDADAD9D9D8D7D7D6D5D4D3D2D29C
:1001F000D1D0CECDCCCBCAC9C7C6C5C3C2C1BFBE84
:10020000BCBBB9B8B6B4B3B1AFAEACAAA8A7A5A3EE
:10021000A19F9E9C9A98969492908E8C8A898785AD
:1002200083817F7D7B79777573716F6D6B6968668C
:100230006462605E5C5A5957555351504E4C4A495E
:1002400047454342403E3D3B3A3836353332302F06
:100250002D2C2A29282625232229003A003B003C60
:10026000003D003E003F004000410042004300448A
:1002700000450046004700480035001E001F0020D2
:100280000021002200230024002500260027002D45
:10029000002E004C002A0049002B0014001A000810
:1002A00000150017001C0018000C00120013002F8E
:1002B00000300031004A004B0039410400160007AD
:1002C0000009000A000B000D000E000F003300347F
:1002D00000320028004D004E00E10064001D001BAC
:1002E0000006001900050011001000360037003824
:1002F00000E500210052004C00E000E300E2002C89
:1003000000E20020002C001F002C00E600E7006542
:1003100000E400500051004F00005C0100010001AA
:1003200000010001000100010001000100010001C5
:1003300000010001000100010001000100010001B5
:1003400000010001000100010001000100010001A5
:100350000001000100010001000100010001000195
:10036000000100010001000100010001000100AADC
:1003700000A90001000100010001000100010001CD
:100380000001000100010001000100010001000165
:100390000001000100010001000100010001000155
:1003A000000100010001000100A80001000100019E
:1003B0000001000100010001000100010001000135
:1003C0000001000100010001000100010001000125
:1003D0000001000100010001000100010001000115
:1003E0000001000100010001000100010001000105
:1003F00000010001000100010001000100010001F5
:1004000000010001000100010001000100010001E4
:1004100000010001000100010001000100010001D4
:1004200000010001000100010001000100010001C4
:1004300000010001000100010001000100010001B4
:1004400000010001000100010001000100010001A4
:100450000001000100010001000100010001000194
:100460000001000100010001000100010001000184
:100470000001000100010001000100010001000174
:100480000001000100010001000100010001000164
:100490000001000100010001000100010001000154
:1004A0000001000100010001000100010001000144
:1004B0000001000100010001000100010001000134
:1004C0000001000100010001000100010001000124
:1004D0000001000100010001000100010001000114
:1004E0000001000100010001000100010001000104
:1004F00000010001000100010001000100010001F4
:1005000000010001000100010001000100010001E3
:1005100000010001000100010001000100010001D3
:1005200000010001000100010001000100010001C3
:1005300000010001000100010001000100010001B3
:1005400000010001000100010001000100010001A3
:100550000001000100010001000000000000000097
:10056000000000000000000000000000007E0F00FE
:10057000D4FFFFFFC700000078000000000000006B
:10058000002A2B28000000000000000000000000EE
:100590000000000029000000002C1E34202122242D
:1005A000342627252E362D3738271E1F20212223BB
:1005B0002425263333362E37381F0405060708094D
:1005C0000A0B0C0D0E0F1011121314151617181913
:1005D0001A1B1C1D2F3130232D3504050607080971
:1005E0000A0B0C0D0E0F10111213141516171819F3
:1005F0001A1B1C1D2F3130354C32190A00047F3F65
:100600001F643214643214783C1E1E140A0505015E
:100610000980A101850319012AB700150126B70039
:10062000950175108100C0050C0901A1018504190F
:10063000012AA002150126A002950175108100C0B3
:100640000660FF0961A1010962150026FF009520DF
:10065000750881020963150026FF00952075089131
:1006600002C005010906A101050719E029E71500E7
:10067000250195087501810295017508810305071B
:10068000190029FF150026FF009506750881000551
:1006900008190129059505750191029501750391C8
:1006A00003C00403300000001A034C00650065001D
:1006B0004B00750020004C003300200054004B001C
:1006C0004C0000000C034C00650065004B007500F9
:1006D00000000403090409025B00030100A0FA09F9
:1006E0000400000103010100092101010001224071
:1006F000000705810308000109040100020300004E
:1007000000092101010002222200070584030800DC
:1007100001070504030800010904020001030000A9
:1007200000092101010001223200070583030800AE
:10073000011201100100000008A020514100010138
:100740000203010011241FBECFE5D8E0DEBFCDBFFC
:1007500004B603FE24C08091D4039091D503A091E8
:10076000D603B091D7038730904BA740B04BB9F474
:100770001092D4031092D5031092D6031092D7038F
:1007800014BE84B7877F84BF0FB6F894A89581B54F
:10079000886181BD11BC0FBEE0E0F8E3099523E05C
:1007A000A2E3B1E001C01D92A43DB207E1F711E060
:1007B000A0E6B0E0E4E8FDE402C005900D92A233AB
:1007C000B107D9F70E94751F0C947F260C94000086
:1007D000A82FB92F80E090E041E050EA609530E02A
:1007E00009C02D9182279795879510F0842795272A
:1007F000305EC8F36F5FA8F30895EADF8D939D9391
:100800000895CF93CFB7CF93C395839BE9F7839B8D
:100810000EC0839B0CC0839B0AC0839B08C0839B34
:1008200006C0C091AE03C395C093AE03A6C0DF93CC
:10083000C091AD03DD27CE54DC4F839B02C0DF9116
:10084000E6CF2F930F931F9300B32FEF03FB20F9F5
:100850004F933F9310B34FEF012703FB21F93BE088
:1008600031C04E7F012F10B3216028C0102F4D7F63
:100870002260000000B329C04B7F2460012F0000DC
:1008800010B32BC010B3477F28602AC04F7E00B33F
:1008900020612CC04F7D10B320622FC04F7B00B36E
:1008A000206432C0422700B349934FEF0000102765
:1008B00013FB20F910B31C70C9F1297F91F20127B5
:1008C00003FB21F900B3237F89F2315058F110273F
:1008D00013FB22F910B3277E79F2012703FB23F9DA
:1008E0002F7C81F200B3102713FB24F92F7971F2CA
:1008F00000C010B3012703FB25F92F7359F200C084
:1009000000B3102713FB26F9223040F200C010B3C9
:10091000012703FB27F9243028F64F77206810B30E
:100920000000F9CF10E81ABF00271CC03B503195DA
:10093000C31BD04010E81ABF0881033C11F10B34EF
:1009400001F12091AB031981110F1213EDCF4A81F0
:10095000441F093669F10D3211F0013E29F74F703D
:1009600009F0042F0093B1033F914F911F910F9114
:100970002F91DF91CAB7C7FD47CFCF91CFBFCF919E
:1009800018952091B103222379F31091AF0311231D
:1009900009F044C034300AF443C03093AF032093CD
:1009A000AC031091AD033BE0311B3093AD0338C075
:1009B0000091AF03013094F50AE54F7049F430918E
:1009C000B00034FD2FC00093B000C8E8D3E02EC0C3
:1009D000433059F0443091F03091930334FD22C0FC
:1009E00000939303C4E9D3E021C03091C80334FDE0
:1009F00019C00093C803C9ECD3E018C030919F031D
:100A000034FD10C000939F03C0EAD3E00FC02795C8
:100A1000A8F45150A9F4220F0000F9CF4AE503C011
:100A200042ED01C0432FC4E1D0E032E011B31C60BD
:100A3000939A11BB02B320E41CE05F93012756E0B8
:100A400002BB279520F4515021F4220FF9CF012742
:100A500056E000003B5A02BBD0F2279528F45150D3
:100A600029F4220F0000F9CF012756E0279502BB99
:100A700020F4515021F4220FF9CF012756E029919B
:100A8000332302BB21F6037F1091B003110FC6512F
:100A9000D04002BB11F01093AB0310E81ABF0860FE
:100AA00011B3137F402F437F5F9100C000C002BB92
:100AB00011BB42BB59CFFC018381833089F130F4F3
:100AC0008130F1F0823021F180E00895813209F423
:100AD0004BC08232C9F7248135812130310509F4B8
:100AE00061C02115310509F455C02230310561F787
:100AF0008EE096E0909318038093170382E30895A5
:100B000081E397E0909318038093170382E108959F
:100B100086ED96E090931803809317038BE5089574
:100B20008281813089F0882339F08230A9F08330C6
:100B300059F682EA96E002C082ED96E0909318039F
:100B40008093170384E0089584EC96E09093180353
:100B5000809317038CE0089588EA96E09093180339
:100B6000809317038AE108958281813081F0882380
:100B700031F0823009F0A8CF81E297E002C088EE20
:100B800096E0909318038093170389E0089581E01D
:100B900097E0F7CF82E696E09093180380931703CF
:100BA00080E4089520E436E030931803209317037F
:100BB0000895089508958091120308959C014FB7F8
:100BC000F8948091720290917302A0917402B09196
:100BD00075024FBF821B930B08952FB7F894809135
:100BE000720290917302A0917402B09175022FBFAE
:100BF00008958091400281111092400208958091E1
:100C00003F0290913E02892B90913D02892B809367
:100C1000320190914002992391F0892B8093320107
:100C200020E084E391E0FC013191CF0131112F5F8D
:100C3000F1E08A339F07B9F721110E94F905E0918D
:100C40004502F0914602309731F00280F381E02DA9
:100C500082E391E009940895E4E3F1E0919189132E
:100C600003C0DF0111971C9291E0EA33F907B1F755
:100C70000895A4E3B1E0EFEF90E02D91821751F0D9
:100C8000EF3F19F4211101C0E92F9F5F9630A9F7BA
:100C9000EF3F09F408950E2E000CFF0BEE5CFE4FA3
:100CA000828308959295907F890F982F97708695EB
:100CB0008695869525E0829FF0011124E050FE4F35
:100CC00050E040E080E0219130E0092E02C03695EE
:100CD00027950A94E2F721703327042E01C0220FD2
:100CE0000A94EAF7822B4F5F5F4F4530510559F761
:100CF00008959295907F890F982F977041E001C0D9
:100D0000440F9A95EAF786958695869595E0899F92
:100D1000F0011124E050FE4F30E020E070E05191EE
:100D2000DF011197CB01022E02C0969587950A9498
:100D3000E2F7817081958527842385278C932F5F27
:100D40003F4F2530310559F708958091FF0190916B
:100D5000CE01981301C008958F5F8770FACF882362
:100D600041F0809590913F02892380933F020C943B
:100D7000FF050895882339F090913F02982B9093B6
:100D80003F020C94FF0508952091C4013091C501E4
:100D90002817390771F09093C5018093C401E09141
:100DA0004502F0914602309721F00084F185E02D54
:100DB000099408952091C2013091C3012817390781
:100DC00071F09093C3018093C201E0914502F091CC
:100DD0004602309721F00680F781E02D09940895AE
:100DE00010923E0210923D020E94FF0590E080E0CA
:100DF0000E94DA0690E080E00C94C4066093390308
:100E000070933A0380933B0390933C030C94F00659
:100E10000F931F936091390370913A0380913B03C4
:100E200090913C038B019C010670112722273327E8
:100E3000063011052105310529F468601F910F91D5
:100E40000C94FE06677FFACF0F931F9341E050E0AA
:100E500060E070E004C0440F551F661F771F8A953D
:100E6000D2F7CB01BA01609570958095909500916D
:100E7000390310913A0320913B0330913C036023E6
:100E80007123822393231F910F910C94FE0690915E
:100E90003C028095892380933C02282F277071F4AF
:100EA000282F082E000C330B9217130639F0859566
:100EB000859585950E94240710923C0208950F9312
:100EC0001F9341E050E060E070E004C0440F551F04
:100ED000661F771F8A95D2F78091390390913A0364
:100EE000A0913B03B0913C038A019B01082B192B75
:100EF0002A2B3B2BC901B8011F910F910C94FE06C0
:100F000060934102709342028093430290934402A3
:100F10000C94F006E0914502F0914602309721F0E2
:100F20000190F081E02D099480E00895882309F470
:100F300052C0823871F40E948A0781FF4CC089E355
:100F40000E9439060E94FF0589E30E942C060C943A
:100F5000FF05833859F40E948A0780FF3CC083E56F
:100F60000E9439060E94FF0583E5EFCF843859F4CB
:100F70000E948A0782FF2FC087E40E9439060E94E0
:100F8000FF0587E4E2CF9CEF980F913AF0F290E2F0
:100F9000980F983088F4877021E030E0A90102C0F2
:100FA000440F551F8A95E2F7CA01809590913F0240
:100FB000892380933F02CBCF9BE5980F933020F499
:100FC00090E080E00C94DA06885A873120F490E0B3
:100FD00080E00C94C4060895FA01811101C0FB0160
:100FE000099480916D02982F9E7F61F481708260D8
:100FF00080936D0280917002893C18F088EC809398
:10100000700208958635B0F381708465F1CFAF9298
:10101000BF92DF92EF92FF920F931F93CF93DF93D4
:10102000182F062FE901493C08F048ECE42FF0E0C6
:10103000EC5AFF4F011110C0E4915E2F4E2F4983EF
:10104000E8835A83DF91CF911F910F91FF90EF902A
:10105000DF90BF90AF900895202F30E04491D42EC0
:10106000E42EF12C56E0159FC0011124EFEFF0E0C3
:10107000BF010E941225812F90E0880F991F55E52E
:10108000569FD001579FB00D11248A1B9B0B982FA0
:10109000990F890F5F01A21AB30AAE9CD001AF9CD1
:1010A000B00DBE9CB00D11245B2F089F8001112450
:1010B000012F11275F01A01AB10AAE9C8001AF9CDD
:1010C000100DBE9C100D11245F01A81AB108A29E3C
:1010D000C001A39E900DB29E900D1124892F9927D7
:1010E000E81BF90BEE9DC001EF9D900DFE9D900D4C
:1010F0001124E92F62307105A1F050F461157105DA
:1011000009F49DCF6130710581F0EB2F512F97CFFE
:101110006430710569F080F06630710509F48FCF95
:10112000F4CFE42F4B2F592F8ACFE42F412F87CFB5
:10113000EB2F542F492F83CF4B2F5D2DE12F7FCFE6
:101140009091530292FF06C0282F28712830F9F49D
:10115000877F846093FF06C0282F28712831F1F41F
:10116000877E84612091540220FF06C0382F387199
:101170003830D9F4877F816021FF06C0282F28717D
:101180002831D1F4877E816194FD877E0895282FD0
:1011900024712430F9F68B7F8860DCCF282F2471EE
:1011A000243101F78B7E8861DDCF382F31713130EA
:1011B00019F78E7F8860E0CF282F2171213121F728
:1011C0008E7E8861E1CF06B607FEFDCF089583B914
:1011D00086B78F70806886BF0E94E30881B1982F20
:1011E000987F983251F0983141F0982F987E81E0A5
:1011F000903409F080E08170089581E0FCCF86B7DB
:10120000806D86BF06B604FEFDCF089586B7806A5E
:1012100086BF0E94E30891B1987F81E0983019F071
:10122000903109F080E081700895EF92FF920F9362
:101230001F93CF93DF93082F0E940609811109C0E5
:1012400010E0812FDF91CF911F910F91FF90EF90D0
:10125000089580EB0E94E708882391F3CDE3D3E063
:101260007E0189910E94E708182F882349F38E2D6B
:101270008C1B800FB1F70E94FF08E3CF93E090939F
:101280003D0390933E03811184E06111826041111E
:10129000816080933F0383E00E94150981E00895F7
:1012A000CF93DF938091AF03835087FD14C090915B
:1012B000AD03CCE0D0E0C91BD109CE54DC4F9091F6
:1012C000AC03903108F06BC0883009F453C0109221
:1012D00007031092AF038091B00084FF3EC080915D
:1012E000AF008F3FD1F1C82F893008F0C8E0982FA8
:1012F0009C1B9093AF009091880328E892279093CD
:1013000088038823E9F080911703909118032091B6
:10131000160326FF06C1FC012C2FA9E8B3E0349187
:101320003D9331962150D9F79C012F5F3F4F8FEFAE
:101330008C0F820F932F911D9093180380931703A6
:101340006C2F89E893E00E94FD03CC5FCC3019F04C
:101350008FEF8093AF00C093B00084E190B39C7096
:1013600031F48150D9F71092B0031092AB03DF91A2
:10137000CF91089580910703893108F0A8CFE82F15
:10138000F0E0E75EFC4F9E01285F3F4F99919193FB
:101390002C173D07D9F7885F809307039ACF9D32BA
:1013A00009F0A3C0883009F094CF83EC80938803C0
:1013B0008AE58093B000109216038881807609F444
:1013C00047C0803229F58981813099F48C819D81D3
:1013D000892BF1F489E093E090931803809317032D
:1013E00088E09F81911131C09E81981770F5892FF7
:1013F0002CC0823041F488E093E0909318038093EE
:10140000170381E0EECF8A3029F48B8180930803A3
:1014100080E0E7CF8930E1F78A819B818115924096
:1014200069F48C819D81892B49F481E080931503B7
:101430008E819F819093140380931303888187FF8B
:1014400052C08E8190E8909316038093AF0041CFF5
:101450002A8110929103998191110AC010929203EE
:1014600021E933E082E03093180320931703B9CFCA
:10147000953029F42093B00321E933E0F4CF96307E
:10148000C1F49B81913049F4CE010E945B0590E448
:10149000909316038F3F91F2A4CF9230A9F393302B
:1014A00099F3913289F3923279F390E49093160391
:1014B00098CF983089F0993019F420931103DCCF3C
:1014C0009A3071F09B30C1F69BE490939403909313
:1014D000C9039093A003D0CF21E133E081E0C3CFD3
:1014E00021E933E0FBCF8FEFADCF8091160387FF6B
:1014F000F0CE8091130390911403892B71F08091A9
:101500001503813051F488818093120310921403E3
:10151000109213031092AF00DCCE8EE18093B000E6
:10152000D8CEDC012C2FE9E8F3E03D913193215036
:10153000E1F7FACE1F93CF93DF93E82F792F162F81
:10154000EA01888184FF1CC0298188E82827298333
:10155000CE010296DC012E2F372F512F5E0FF9019D
:1015600021912D939F01452F4E1B1416C4F3612F1B
:101570000E94FD031C5F1883DF91CF911F91089596
:101580008AE58883E5CFCF93DF93C9E1D3E08091EB
:101590009F0384FF18C04FE953E068E0CE010E942A
:1015A0009A0A289683E0C933D80789F780919F0368
:1015B00084FF0CC04FE953E060E090E080E0DF91F1
:1015C000CF910C949A0A0E945009E1CF0E945009D1
:1015D000EDCFCF93DF9300D00F92CDB7DEB79091D0
:1015E0000603981307C020910403309105032617C2
:1015F0003707A1F0809306037093050360930403FB
:1016000089837B836A838091C80384FF07C048EC89
:1016100053E063E0CE0101960E949A0A0F900F906A
:101620000F90DF91CF910895BC0184E00C94E90AFA
:10163000BC0183E00C94E90ACF93DF93CAE0D0E0C9
:101640008091930384FF1CC0809102039091030357
:10165000981799F028E0829FC001112443E953E0D4
:1016600068E08E579D4F0E949A0A8091020390E095
:1016700001968F70992780930203DF91CF9108958F
:101680000E94500987EB9BE00197F1F700C0000032
:101690002197B1F6F2CFCF93DF93EC01A091030332
:1016A000B0E0CD0101968F70992720910203281791
:1016B00079F093E0AA0FBB1F9A95E1F7AE57BD4FA3
:1016C00098E0FE0101900D929A95E1F78093030353
:1016D0000E9450090E941C0B88E0FE01A9E0B3E0C3
:1016E00001900D928A95E1F7DF91CF910895CF9304
:1016F000C82F882309F488C08238C1F40E948A0761
:1017000081FD82C089E30E9439060E94FF052FE710
:1017100089EA93E0215080409040E1F700C000004A
:1017200089E30E942C06CF910C94FF058338A1F425
:101730000E948A0780FD68C083E50E9439060E94E6
:10174000FF052FE789EA93E0215080409040E1F7C0
:1017500000C0000083E5E5CF8438A1F40E948A0729
:1017600082FD52C087E40E9439060E94FF052FE7E0
:1017700089EA93E0215080409040E1F700C00000EA
:1017800087E4CFCF8CEF8C0F813A68F4E4E3F1E08B
:101790008191C81799F121E0EA33F207C9F78C2F3C
:1017A0000E943906C0CF80E28C0F883068F4C77081
:1017B00021E030E001C0220FCA95EAF780913F0294
:1017C000822B80933F02AFCFEBE5EC0FE33040F488
:1017D000F0E0E551FF4F808190E0CF910C94DA0664
:1017E000C85AC73188F4EC2FF0E0EE0FFF1FE2512A
:1017F000FF4F80819181CF910C94C4068C2F0E9461
:101800002C060E94FF05CBCFCF910895CF93C82F10
:101810000E94770BC93349F42FEF8DEE92E02150EF
:1018200080409040E1F700C000008C2FCF910C94D5
:1018300096070F931F93CF93DF93C42FD22FFC01F2
:1018400082818823A1F04093C6010E94ED05909308
:10185000C1018093C001C77081E001C0880FCA95A3
:10186000EAF7DF91CF911F910F910C94BA06109176
:10187000C601141335C08091C0019091C1010E942E
:10188000DE05883C910560F5C0E2CD0F1D17B9F06B
:1018900080E2810F883040F4177081E001C0880F2A
:1018A0001A95EAF70E94AF06C83048F481E09D2FF0
:1018B000977001C0880F9A95EAF70E94BA06802FA8
:1018C0000E94060CC83098F4D77081E001C0880FE0
:1018D000DA95EAF7DF91CF911F910F910C94AF0643
:1018E000C77081E001C0880FCA95EAF7F3CFDF9196
:1018F000CF911F910F9108957F928F929F92AF92F7
:10190000BF92CF92DF92EF92FF920F931F93CF93EC
:10191000DF930CE111E0A7E4B2E0712CCC24C39476
:10192000D12CE80189918E01E82FE295EF70F0E06B
:1019300091A98F70760101C0EE0C8A95EAF7892F84
:101940008E2981AB92A97E2D7095972392ABD8E713
:10195000DA95F1F792E2A92E91E0B92E50E040E03D
:1019600030E020E0E50169915E01862E82948FE0EF
:101970008822912CE40188A990E06F7002C09595AF
:1019800087956A95E2F780FD6DC0C601042E02C0FE
:10199000880F991F0A94E2F7282B392B4F5F5F4F6E
:1019A00040315105F9F681A9872381AB82A9E82A44
:1019B000E2AA8D919C9111972817390709F455C017
:1019C00011963C932E9381E0782A1296D1E0023250
:1019D0001D0709F0A6CF772009F449C081E0809364
:1019E0003C010E94ED0590933B0180933A01809168
:1019F0003A0190913B010E94DE050697E0F180914B
:101A000047029091480290937702809376028091EA
:101A1000490290914A0290937902809378028091D2
:101A20004B0290914C0290937B0280937A028091BA
:101A30004D0290914E0290937D0280937C028091A2
:101A40004F029091500290937F0280937E0280918A
:101A500051029091520290938102809380021092E1
:101A60003C0109C090E080E097CF80E0ADCF80914D
:101A70003C018111BCCF872DDF91CF911F910F9138
:101A8000FF90EF90DF90CF90BF90AF909F908F909E
:101A90007F900895CF93DF93D82FCAE00E94060964
:101AA000882379F081EB0E94E708882351F086B7FC
:101AB000806886BF0E94E30883B180933D030E9443
:101AC000FF0880913D038D1761F08BE291E0019753
:101AD000F1F700C00000C15009F78C2FDF91CF91C2
:101AE0000895C1E0FACF2BE220933D0321E120933A
:101AF0003E03EFE3F3E09C01215F3F4FDC014D919A
:101B0000CD014193A217B307C9F78BEA80933D0338
:101B100081E10E941509882319F08BE20C944A0D8B
:101B200080E00895CF93DF93CDB7DEB72F970FB640
:101B3000F894DEBF0FBECDBF8823F1F088E0898323
:101B40008A838B8395E09C838D838E838F838887A4
:101B500089878A878B878C878D878E878F87CE0131
:101B600001960E94730D2F960FB6F894DEBF0FBE3C
:101B7000CDBFDF91CF9108958FE0E1EBF0E0DE0182
:101B8000119601900D928A95E1F7E9CF282F220F47
:101B9000220F220F90916A029770922B90936A0203
:101BA000987F21E009F420E090916A0220FB90F9EF
:101BB00090936A020C94920D1F93CF93DF93182F8A
:101BC0001470D82FD270C82FC170412F6D2F8C2F59
:101BD0000E943E0987EB9BE00197F1F700C00000EF
:101BE000412F6D2F8C2FDF91CF911F910C943E09C7
:101BF000CF9384E090E00E94C825C82F81E290E056
:101C00000E94C825982F8C2FCF9108950F931F9372
:101C1000CF93DF9320E2629FE001112450E0440F54
:101C2000551FC40FD51F30EC839FC00DD11D11244B
:101C3000CE0186960E94C825082F10E0102F00279D
:101C4000CE0187960E94C8259801282BC901DF91F3
:101C5000CF911F910F910895462F843038F476303C
:101C600028F4603118F4672F0C94060E90E080E0A1
:101C70000895CF93DF930E942C0EEC0182389105DA
:101C8000A9F1D8F58133910509F496C048F5893258
:101C9000910509F48AC08A9709F495C0C11522E517
:101CA000D20708F0B6C0C11531E5D30708F026C148
:101CB000C83ED10508F09CC0C03ED10560F5C83AC9
:101CC000D10508F087C0C53AD10508F0EFC0C13092
:101CD000D10509F12097F9F0C430D105E0F440C0F6
:101CE0008533910509F45AC0C997C1F68091530212
:101CF000837089F0C0EED0E00EC0833E910599F16B
:101D000070F4803E910501F1823E910539F6809193
:101D1000530282FD21C0CE01DF91CF910895863E0E
:101D2000910561F1873E910571F1843E910509F0BD
:101D3000B5CF8091540281FFEECF80915302C7EE60
:101D4000D0E084FD0DC0E7CF8091530280FD07C134
:101D50009091540290FFDFCFC3EED0E084FFDBCF41
:101D6000D0E0C0E0D8CF8091530282FDFBC09091BB
:101D7000540290FDBFCF84FFCECFF2CF80915302AB
:101D800083FDDDCFC8CF8091530283FDEEC09091DB
:101D9000540291FFF0CFC4EED0E0BDCF809153024A
:101DA00085FFB9CFC9E2D0E0B6CF8091530285FF5D
:101DB000B2CFC5E3D0E0AFCF8091530286FFABCF67
:101DC000CAE2D0E0A8CF8091530286FFA4CFC1E33E
:101DD000D0E0A1CFCF3BD10518F6C85AD0E0CC0F48
:101DE000DD1FC251DF4F0990D881C02DD46493CF3D
:101DF000C11540E5D40708F064C0C11580E4D807D8
:101E000008F05CC0CE019A9581159F4108F483CFFC
:101E1000A7CFC11536E5D30718F5C11545E5D40799
:101E200008F084C0C11584E5D80708F07AC09C2F5B
:101E3000969596959E0123703327C115D34508F4D6
:101E400062C0C1E0D0E002C0CC0FDD1F2A95E2F7EE
:101E500030E2939FC0011124C82BD92BDA685BCFE5
:101E6000C1158AE5D80778F4C11599E5D90708F0B6
:101E700068C0C11528E5D20708F472CFDC2FCC2743
:101E8000C06FD06A48CFCE0190568115904208F0BD
:101E900067CF8D2F8F710E94A00890E0982F882720
:101EA00088279F719C012C2BE90149C0C55AD0E0BD
:101EB000C551DF4FC881D0E0D0642DCFDF70D06A2C
:101EC0002ACFCE01E4E096958795EA95E1F78370F5
:101ED0002C2F26952695237040E2249F90011124F3
:101EE000382B8C2F8370C1E0D0E002C0CC0FDD1FF7
:101EF0008A95E2F7C22BD32BDC680DCFDC2FCC27E1
:101F0000C16FD06A08CFC1E0D0E002C0CC0FDD1FA6
:101F10002A95E2F720E2929FC0011124C82BD92B09
:101F2000EBCFDC2FCC27C46FD06AF5CE8C2F0E946C
:101F3000A008C82FD0E0DC2FCC27CC27DF71D062DF
:101F4000EACE8C2F8F700E94A00834E0D695C795FA
:101F50003A95E1F7CF709C2FEC01D069DCCEC9E354
:101F6000D0E0D9CEC2EED0E0D6CEC6EED0E0D3CE11
:101F7000BF92CF92DF92EF92FF920F931F93CF9376
:101F8000DF938C01C0903903D0903A03E0903B037B
:101F9000F0903C038091410290914202A091430253
:101FA000B0914402C82AD92AEA2AFB2ACFE1D0E01C
:101FB000BC2ED701C6010C2E04C0B695A7959795E7
:101FC00087950A94D2F780FD0EC0219788F7B12C2F
:101FD0008B2DDF91CF911F910F91FF90EF90DF90AC
:101FE000CF90BF900895B8018C2F0E94390E0197B1
:101FF00061F3EECFCF93DF93EC010E94B80FBE01E7
:10200000DF91CF910C94390E0E94FA0F292F2F7077
:1020100092959F7092509E3078F4E92FF0E0EF5740
:10202000F94D0C943A25803F19F020F4883E20F4B5
:1020300081E00895843FE1F380E00895883EC0F395
:10204000813FD1F7F5CF822F8695869586950895A5
:102050006F927F928F929F92AF92BF92CF92DF92B8
:10206000EF92FF920F931F93CF93DF9389E5C82ED2
:1020700082E0D82E06E011E0E801C05CD10936010B
:102080001CC0F50185909490692DC7010E94DC2544
:10209000682DC70101960E94DC2582E0A80EB11CC4
:1020A00082E0E80EF11CCE15DF0559F780E2680EDC
:1020B000711CA0960C171D0731F07E0180E2E81A12
:1020C000F1085301DECF00541F4F80ECC80ED11C25
:1020D000063084E0180781F6DF91CF911F910F91B0
:1020E000FF90EF90DF90CF90BF90AF909F908F9038
:1020F0007F906F900895682F86E090E00C94DC2527
:10210000CF93DF93C6E2D3E060E0CE010E94DC25EE
:102110002196C11584E0D807B9F7DF91CF910895D2
:10212000CF93C82F6FEF811161E282E290E00E94AD
:10213000DC256FEFC11162E083E290E00E94DC25B4
:102140006FEFC11168E084E290E0CF910C94DC2540
:1021500080916D0280FD10C084E180933D0386E094
:1021600080933E0310923F0310924003109241036C
:10217000109242030C94150980917C0090917D008F
:1021800098278927982740917D0020917C00240F73
:102190003327331F25313105B4F427E120933D0364
:1021A00020E420933E039093400380933F0383E019
:1021B000489FA001112460E471E081E493E00E9453
:1021C000BF2580E4D7CF08958F929F92AF92BF92A0
:1021D000CF92DF92EF92FF920F931F93CF93DF93F3
:1021E000FC01B280948081E0848300E015E05BE430
:1021F000A52E88248394EE24EA94F12C7BE4C72E48
:10220000D12C80918000081770F0DF91CF911F9141
:102210000F91FF90EF90DF90CF90BF90AF909F9085
:102220008F900C94A810C02FD0E01C9FF0011D9F30
:10223000F00D1124E059FE4F91101CC01382128240
:1022400020917E00CE01820F911D9C01220F331F31
:10225000280F391F205C3E4F1C9FF0011D9FF00D81
:102260001124E059FE4F4281618180810E9407085C
:102270000F5FC7CF2381222379F12150238334813B
:102280008A2D821B311101C0822F1C9FF0011D9FDE
:10229000F00D1124E059FE4F90917002899FC0010A
:1022A0001124B6010E9412256283211104C0332338
:1022B00011F01482A38222E02B1510F21C9FF00172
:1022C0001D9FF00D1124E059FE4F80916E02808316
:1022D00080916F028183B4CF0E94A2258230914009
:1022E0000CF0AECF82E08B1530F50E94A225B7012D
:1022F0000E9426251C9FF0011D9FF00D1124E0591E
:10230000FE4F808322E02B15C8F40E94A225209165
:102310006F022695622F70E00E942625280F1C9FD1
:10232000F0011D9FF00D1124E059FE4F2183128210
:10233000A382848285CF80916E02DCCF20916F02D0
:10234000EECFEF92FF921F93CF93DF93EC0110E05B
:10235000EE24EA94F12C60918000161770F00E9430
:10236000A8109A818C8190FF27C08F5F8C83DF91AA
:10237000CF911F91FF90EF90089520917E00422F02
:10238000410F5527551FCA019A01220F331F280FED
:10239000391F205C3E4F70E0C7010E942625962F12
:1023A0008C814091700260916F02199F800D112401
:1023B0000E9407081F5FCFCF8150D8CFAF92BF9246
:1023C000CF92DF92EF92FF920F931F93CF93DF9301
:1023D000FC018281BB24BA9480FD02C0BB24B3946B
:1023E000D0E0C0918000DC17C0F00E94A81080915E
:1023F0003D0191E0B91254C081114EC06FEF6C0FD6
:1024000060933D01DF91CF911F910F91FF90EF906D
:10241000DF90CF90BF90AF90089500917E00CD2EB9
:10242000D12C0C0D1D2D111DC801880F991F080FEF
:10243000191F005C1E4FF80111821082128234E0D5
:10244000E32EF12CA12C80913D018A0D813104F104
:102450008F70082E000C990BC816D90691F4809144
:1024600070028E9DA0018F9D500D112455954795AA
:1024700055954795980160916F0280916E020E9478
:102480000708AB0CF1E0EF1AF108E9F6DF5FA9CF1E
:1024900087FFDFCF8C0FDDCF815080933D01B2CF1E
:1024A00090E001966C2F70E00E942625F6CFFF92F7
:1024B0000F931F93CF93DF9380917E0090917F00C5
:1024C00023E0829FF0011124E05CFE4F891750F158
:1024D00010E003E0D0918000C0913E01F0907000C8
:1024E0001D1730F10E94A81030916F008C2F830FC0
:1024F00080933E012F2D230F2093700012164CF471
:10250000082E000C990B4D2F4150550B8417950741
:102510001CF0319530936F00DF91CF911F910F9197
:10252000FF9008951182108212828F5F3396CECF72
:10253000E12FF0E06D2F70E0CF010E942625209161
:102540007E00820F682F70E00C2E000CDD0BEC1764
:10255000FD07ACF02F2DFF0C330B2E173F077CF03F
:10256000809F90011124205C3E4F40917002609149
:102570006F0280916E020E9407081F5FABCFFB01C4
:10258000EE0FFF1FE60FF71FE05CFE4F1182108277
:102590001282F3CF8F929F92AF92BF92CF92DF922F
:1025A000EF92FF920F931F93CF93DF93EC014C8137
:1025B000042F10E09801D8010E9470269B01AC0105
:1025C0000E943B264B015C01E0E2F0E0E01BF10BD6
:1025D000A5E5B0E0AC019B010E943B266B017C01AC
:1025E0009F01DF010E9447259B01AC010E94462606
:1025F0009B01AC01280D391D4A1D5B1DC701B601A9
:102600000E944E26F22E822F90E039E23F1560F1B3
:1026100043E0249F9001112435952795122F1095A2
:1026200000E085E5E82EEF1880918000081758F14A
:102630000E94A8109C8181E0992319F0903219F42E
:102640008FEF8093710080917100890F8C83DF91EF
:10265000CF911F910F91FF90EF90DF90CF90BF909F
:10266000AF909F908F90089525E530E0B901681BE9
:10267000790B9B01220F331F260F371F37FFCCCF5B
:102680002F5F3F4FC9CF8E2D01FD8F2D20917E00F2
:10269000622F600F7727771F9B01220F331F260FB2
:1026A000371F205C3E4F412F60916F020E94070848
:1026B0000F5FBACF0F931F93CF93DF93EC0110E01E
:1026C00000E0909180009017110609F06CF40E94D0
:1026D000A8108C8190E00196817099278C83DF91FE
:1026E000CF911F910F91089520917E00A801420F74
:1026F000511D9A01220F331F240F351F205C3E4FBE
:102700004C8160916F0280916E0296959017110630
:1027100051F04CF0442349F0409170020E940708A8
:102720000F5F1F4FCECF4423B9F340E0F7CF909116
:102730006D0290FF14C090917E0020917F0033E0E5
:10274000939FF0011124E05CFE4F921710F00C945F
:10275000A8108183608342839F5F3396F6CF0895EC
:102760000F931F93CF93DF9300D00F92CDB7DEB7B7
:102770008C0180913F0181110AC09E012F5F3F4F64
:1027800048EC6FEF0E9407088A8180933F01F801AF
:102790006481613069F080913F0140E0662361F01F
:1027A00040E0623011F440913F0180E060E004C0FD
:1027B00060913F0140E080E00E949713F80184811E
:1027C00090E0019663E070E00E94262584830F90DC
:1027D0000F900F90DF91CF911F910F910895CF939C
:1027E000DF9300D00F92CDB7DEB790916D0290FFCE
:1027F0000AC09E012F5F3F4F0E9407084B816981ED
:102800008A810E9497130F900F900F90DF91CF91C4
:102810000895CF93DF93EC01EC81F0E0E75AFE4F8F
:102820004491EDE6F2E0628181810E94EF138C8198
:102830008F5F8C83DF91CF910895CF93DF93EC016D
:10284000EDE6F2E0438162818C810E94EF138C817E
:102850008F5F8C83DF91CF91089560E081E090E0FD
:102860000E94FF2587E090EBDC018093D4039093D6
:10287000D503A093D603B093D70388E19CE00FB6AD
:10288000F894A89581BD0FBE91BDFFCF90E080E088
:102890000E94D62521E08C3E9E4F09F020E0822F39
:1028A00008956CEE7EEF90E080E00E94F92560E0F4
:1028B00082E090E00E94DC2560E083E090E00E94EE
:1028C000DC251092410210924202109243021092B3
:1028D000440260E084E090E00E94DC2560E081E258
:1028E00090E00E94DC2560E085E090E00E94DC251D
:1028F00060E086E090E00E94DC256FEF87E090E0EA
:102900000E94DC2540E050E0BA0188E090E00E949F
:10291000ED2560E08DE090E00E94DC2540E050E095
:10292000BA0188E190E00E94ED2560E087E190E047
:102930000E94DC2540E050E0BA018CE190E00E946A
:10294000ED2560E080E290E00E94DC2540E050E070
:10295000BA018FE090E00E94ED2540E050E0BA011E
:1029600083E190E00C94ED25CF92DF92EF92FF92FD
:102970006B017C010E94F107B701A60188E090E09D
:10298000FF90EF90DF90CF900C94ED25AF92BF9227
:10299000CF92DF92EF92FF920F931F93CF93DF932B
:1029A00000D00F92CDB7DEB7182FF62E042FE22EEF
:1029B00090916D0290FF29C0E92FE695AE2FB0E00F
:1029C000A054BF4F8C9180936B029E7F923059F53B
:1029D0009E012F5F3F4F812F0E9407084B81698125
:1029E0008A810E94971310936E02F0926F020093F7
:1029F0007002EE2051F060916D0270916E02809134
:102A00006F02909170020E94B4140F900F900F907B
:102A1000DF91CF911F910F91FF90EF90DF90CF90BA
:102A2000BF90AF900895823019F400917002DBCF0F
:102A3000863019F410916E02D6CF8930D9F38931DE
:102A400091F6E9518E2F8170D82EE695F0E0EC5A80
:102A5000FE4FA590B490C12CBB2460918000C61697
:102A600018F00E94A810BFCF2C2D30E0A29EC0010C
:102A7000A39E900DB29E900D112470E00E9412252D
:102A8000812FD11013C0860F40917E00420F532F2B
:102A9000511D9A01220F331F240F351F205C3E4F1A
:102AA000402F6F2D0E940708C394D7CF861BECCF11
:102AB000EDE6F2E0438121E1421B08F440E021E031
:102AC000628181810C94C614EDE6F2E0438121E13C
:102AD000420F08F44FEF21E0628181810C94C6140B
:102AE000EDE6F2E0628121E1621B08F460E021E0A2
:102AF000438181810C94C614EDE6F2E0628121E10C
:102B0000620F08F46FEF21E0438181810C94C614B9
:102B1000EDE6F2E0818121E0438162818A500C94EC
:102B2000C614EDE6F2E0818121E043816281865F97
:102B30000C94C61480917102882319F081508093FF
:102B4000710260916D0270916E0280916F0290919E
:102B500070020C94B41480917102833018F48F5F6A
:102B60008093710260916D0270916E0280916F028C
:102B7000909170020C94B414EDE6F2E083E080834F
:102B800011828FEF828388EC83831482608171814C
:102B9000828193810C94B41410923F02E4E3F1E03B
:102BA00086E0DF011D928A95E9F70C94F00690917A
:102BB0006D0290FF3DC09170811129C09260909389
:102BC0006D02662351F060916D0270916E028091EA
:102BD0006F02909170020E94B41460916D0266952C
:102BE00070E04BE050E084E690E00E94B225892B33
:102BF000A9F010926C0281E08093590220E040918C
:102C0000700260916F0280916E020C94C6148B3238
:102C100010F09465D4CF880F982BD1CF81E08093AA
:102C20006C020E94ED059093570280935602E3CF09
:102C3000089580916D028695815009F48AE261E0E1
:102C40000C94D71580916D0286958F5F8B3208F0BA
:102C500081E061E00C94D71590916D0290FF07C060
:102C60009695981720F0961710F40C94221661E0B0
:102C70000C94D7154F925F926F927F928F929F9292
:102C8000AF92BF92CF92DF92EF92FF920F931F937A
:102C9000CF93DF9300D000D00F92CDB7DEB77C0189
:102CA000FC0183819481892B31F08081918189237A
:102CB0008F3F09F067C60F900F900F900F900F9005
:102CC000DF91CF911F910F91FF90EF90DF90CF9008
:102CD000BF90AF909F908F907F906F905F904F903C
:102CE00008950E94B80F182F682F89819A810E9439
:102CF000790669817A81812F0E942C0E8C01F7015F
:102D00009281992309F417C6980122513F45203139
:102D1000310508F095C58FEF93E00E94C825025158
:102D200056E2852E53E0952E882379F180913C025E
:102D3000877009F4C0CFF7018281882309F4BBCFE3
:102D400082E00F900F900F900F900F90DF91CF9136
:102D50001F910F91FF90EF90DF90CF90BF90AF90B9
:102D60009F908F907F906F905F904F900C9447074B
:102D70008114F4E09F06D1F2C4010E94C82581119C
:102D800001C001502FEF821A920A0111F1CF1C826B
:102D90001B82662463944AE0542E84010F5F1F4F08
:102DA000C4010E94C82589831A82882309F4BECFF2
:102DB0009FEF980F933008F58A83698232E0830E83
:102DC000911CC8010E94C8258B83882309F4AECFCB
:102DD0008E010F5F1F4FF80120812223F1F2213075
:102DE00009F043C091818281913049F40E5F1F4FF9
:102DF0000E94060C0F5F1F4FEECF4801E9CF9230C3
:102E000029F40E5F1F4F0E94770BF4CF933029F403
:102E10000E5F1F4F0E949607EDCF943019F00F5FA1
:102E20001F4FE8CF0E5F1F4F30E020E0B8016F5F0B
:102E30007F4FF80141818053990B8A30910550F002
:102E400021503109B8F287EB9BE00197F1F700C000
:102E50000000F6CF529EF001539EF00D11249C010C
:102E60002E0F3F1F842F8B01E1CFE22FF0E0E758B8
:102E7000FA4F7490822F86958695869590E0FC0196
:102E8000E759FA4FA4902770B12C022E02C0B594D6
:102E9000A7940A94E2F7E1E0AE22BB24FC01E75AD2
:102EA000FA4FC490D12C02C0D594C7942A95E2F76A
:102EB000F1E0CF22DD24A114B10419F081EE0E94CB
:102EC000770BC114D10419F086EE0E94770B872D81
:102ED0000E94060CCD2819F086EE0E949607AB28BA
:102EE00009F488CF81EE96CF81E00E945F070E94AF
:102EF00008071CCF81E00E942407F9CF82E0F5CFBC
:102F000082E0F9CF0F3BFCE51F0709F442C098F1BE
:102F1000003C3CE5130709F0AFC490916A02892F89
:102F20008695869586958F5F8F719770823008F0B1
:102F300051C0880F880F880F892B80936A02809177
:102F40006A0210C081E00E94C60D80916A020E9450
:102F50007B10ECCE80916A02982F987FA9F188505F
:102F600080936A02887F91E009F490E080916A0280
:102F700090FB80F90BC080916A02982F987F19F41A
:102F8000885F80936A0280916A02816080936A02FE
:102F900019C080916A0280FF09C08E7F80936A0207
:102FA0000E947B1080E00E94920DC0CE80FDBECEBC
:102FB000816080936A02813019F489E080936A020B
:102FC00080916A020E947B1080916A0286958695A4
:102FD0008695E9CF90936A02B2CF07E225EE45EEDF
:102FE00068ED7CE5CBC406E221EE40EE63EF7CE5C4
:102FF000C5C407E225EE44EE64EF7CE5BFC406E2FB
:1030000021EE42EE65EF7CE5B9C408E221E045EE31
:1030100069ED7CE5B3C480915302806106303CE5E4
:10302000130709F47FC008F484C0809153028062C2
:1030300079C0809153028D7F0C309CE5190709F40B
:1030400071C070F4809153028C600A30FCE51F0758
:1030500009F468C008F479C0809153028E7F62C081
:1030600080915302877F0E303CE5130709F45AC064
:1030700008F471C0809153028F7E54C00B3F9CE5D1
:10308000190709F45AC030F50331FCE51F0709F4AC
:1030900072C078F401313CE5130709F468C00231CD
:1030A0001C4509F038C40E94CC15809153028F77DB
:1030B00039C005319CE5190709F465C008F479C0E9
:1030C0008091540281600A3F1C4509F024C480931A
:1030D000540221C40F3F2CE5120709F450C070F4CC
:1030E0000D3F8CE51807D9F1809154028E7F0E3F79
:1030F0001C4568F3809154028360E9CF0130EDE50F
:103100001E0709F45FC008F44AC060E002301D45A4
:1031100009F001C48EE090E00E94DC25FCC38091A0
:103120005302816080935302F6C3809153028460FE
:10313000F9CF809153028860F5CF8091540282606C
:10314000C6CF809153028064EDCF0E94CC15809150
:1031500053028068E7CF809153028B7FE3CF809149
:1031600054028D7FB4CF809153028F7DDBCF80914D
:1031700053028F7BD7CF80915302837FD3CF80912F
:1031800054028C7FA4CF8091530282FB992790F93F
:1031900021E0922790FB82F990FB83F9C3CF8091C5
:1031A0005402982F909591708E7F892B90FB81F916
:1031B0008ECF0E94CC1590915302892F97FB87F9EF
:1031C0008058B0CF61E0A6CF80913F0206313CE548
:1031D000130709F0E8C38A7A91E009F490E090932C
:1031E000C701811106C089E20E9439060E94FF05CD
:1031F0009DCD85E3F9CF85E3F6C380916D0280FF15
:103200001BC08E7F80936D0260916D0270916E0283
:1032100080916F02909170020E94B41410926C021F
:103220008FEB94EDE1E081509040E040E1F700C089
:1032300000000E94A8107ACD816080936D0261E049
:1032400086950E94D71572CD49E156E162E276E19A
:103250000E94EC076BCD42E256E169E176E1F8CFDE
:1032600048E855E161E975E1F3CF41E955E168E8E6
:1032700075E1EECF40E755E16CE775E1E9CF4CE74A
:1032800055E160E775E1E4CF48E555E164E675E1B5
:10329000DFCF44E655E168E575E1DACF4AE955E16B
:1032A0006BEA75E1D5CF4BEA55E16AE975E1D0CF1C
:1032B00061E081E0C6CF65E082E00E942C1636CD49
:1032C00068E086E0FACF6EE089E0F7CF64E18FE056
:1032D000F4CF67E185E1F1CF61E088E1B2CF62E24E
:1032E00089E1EBCF61E083E2ACCF0115FCE51F077C
:1032F00009F447C00E3D1C4509F450C0F701008198
:103300001181992309F44DC0C8010E94B80FD82E2D
:10331000682FC8010E947906B8018D2D0E94390ED0
:103320008C01882EF701A580A2943FE0A322D280D1
:10333000D11010923E0280913C02877099F0DD20FE
:1033400089F0812F807F803421F080E2800F8830E7
:1033500048F082E00E94470780913C028770CC24AD
:10336000C3948111C12CB12EB2942FE0B222FBE0A4
:10337000FB1508F450C0EB2DF0E0E157F94D0C942B
:103380003A250E94CC153FEB87E299E0315080400E
:103390009040E1F700C000000E942D140E945114DB
:1033A000C5CCC8010E945206D82EB6CF212F2F704F
:1033B000A22E107F19F0A29490EFA922DD20C9F06F
:1033C000AA2069F080E2800F883010F081100BC0D5
:1033D00080913F02A82AA0923F020E94FF05802F01
:1033E0000E94770B18C080913E02A82AA0923E024C
:1033F000F4CF802F0E949607AA2069F0A094005E67
:10340000083010F081103DC080913F02A822A092A8
:103410003F020E94FF05EB2DE850FF0B349720F48C
:103420000E948A070E94DC0DCC2009F444CC8091D4
:103430003C0280FD40CCF7011282859585958595EB
:103440000E945F07C7010E943A1680913C02859551
:10345000859585950F900F900F900F900F90DF91AD
:10346000CF911F910F91FF90EF90DF90CF90BF9081
:10347000AF909F908F907F906F905F904F900C9443
:10348000240780913E02A822A0923E02C2CF312F93
:103490003F70932E107F103219F0929480EF982293
:1034A000882071F081E0881661F1DD20B9F1AA2051
:1034B00071F1F701858180FF92CF8F70858327C0DE
:1034C000DD2091F090914002892D892BA11003C03D
:1034D0000E94BA06A0CFE1E0AE12FACF981709F425
:1034E0009ACF8093400297CFA11006C00E94F905A1
:1034F000892D0E94AF068FCFF1E0AF1609F48BCF74
:10350000F5CFDD2031F025E02A1508F484CF892D90
:10351000DFCF34E03A1508F47ECFEACFAA2041F39A
:10352000F9E38F1286C12FEF3DEE82E0215030404B
:103530008040E1F700C000007CC1812F8695869510
:10354000837061F0813009F066CFC8019370D110AB
:1035500002C090E080E00E94C4065DCFC801937075
:10356000D11002C090E080E00E94DA0654CF812F93
:10357000837009F066C0D1104ECF802F829586955A
:103580008770880F880F602F6F70462E512C712C1A
:10359000612C082E04C0440C551C661C771C0A9430
:1035A000D2F740E050E0BA0104FF0FC04FE050E016
:1035B00060E070E004C0440F551F661F771F8A95B6
:1035C000D2F74095509560957095812F8695869598
:1035D0008370823019F1D8F40091410210914202B7
:1035E0002091430230914402813069F044295529E9
:1035F00066297729CB01BA016023712382239323A3
:103600000E94800708CF402A512A622A732ACB01E0
:10361000BA016429752986299729F2CF44295529A9
:1036200066297729009141021091420220914302BC
:1036300030914402CB01BA0160277127822793277A
:10364000DFCF8695DD2011F0812F8170882309F46A
:10365000E2CE802F829586958770880F880F602F25
:103660006F70462E512C712C612C082E04C0440C16
:10367000551C661C771C0A94D2F740E050E0BA0152
:1036800004FF0FC04FE050E060E070E004C0440F62
:10369000551F661F771F8A95D2F740955095609504
:1036A0007095812F869586958370823019F1D8F4B4
:1036B0000091390310913A0320913B0330913C0370
:1036C000813069F04429552966297729CB01BA014F
:1036D00060237123822393230E94FE069CCE402AFE
:1036E000512A622A732ACB01BA01642975298629D5
:1036F0009729F2CF44295529662977290091390362
:1037000010913A0320913B0330913C03CB01BA0165
:103710006027712782279327DFCF1F70DD2029F0D4
:10372000812F0E945F07802FD3CE802F0E94AF068B
:10373000812F0E9424076FCE802F92EF891609F403
:1037400050C0981578F0E0EF8E1619F1F1EF8F1652
:1037500009F43FC0DD2009F467C0A11040CE812FDD
:103760008F713CC023EF821609F440C034EF8312FE
:10377000F1CFDD2009F44DC01F71812F0E945F073A
:10378000E8E01E9FC0011124836080933C02812FDA
:1037900025C0DD20C9F084E08A1508F43CCE1F71F5
:1037A00061E070E080E090E004C0660F771F881F42
:1037B000991F1A95D2F70091390310913A0320917D
:1037C0003B0330913C03A4CF95E09A1508F423CE37
:1037D000E6CF812F8F71DD2009F4ABCF0E945F0708
:1037E0001ACE812F8F71DD20C9F3A3CF60E070E086
:1037F000CB01DD2009F470CF1F7161E070E080E043
:1038000090E004C0660F771F881F991F1A95D2F7A2
:1038100063CF81E00E944707F1E0FA1508F0FBCD85
:1038200082E00E944707F7CDAA2039F0893309F4D6
:103830007ACE802F0E949607EECD812F8F7179CF9F
:103840000031FFE51F0709F44FCB01312FE51207C7
:1038500009F454CB0D3B2CE5120709F47BCB08F09F
:1038600051CB0B3B8CE5180709F46CCB80E00C3B8B
:10387000ECE51E0709F467CB033FECE51E0709F4EE
:10388000B2CB08F0B3C0083D2CE5120709F4A5CB74
:10389000093D3CE5130709F4B8CB073D8CE5180753
:1038A00009F467C01092C60102308CE5180708F4CD
:1038B0008BCC0631ECE51E0738F098012A5F3C45B9
:1038C0002930310508F080CC0E94F80D9093540205
:1038D000809353020031FCE51F0709F444CC08F043
:1038E000CDCB08303CE5130709F42BCC08F0A1CB75
:1038F00004309CE5190709F418CC08F08CCB023091
:10390000FCE51F0709F40BCC809153028260033061
:103910001C4509F407CC609153021091540284E0D5
:1039200090E00E94DC25612F81E290E00E94DC257E
:103930000E94CC15FBC900313FE5130709F4DACA30
:1039400001318FE5180709F4DBCA033F2CE51207A4
:1039500009F449CBA0F5083D8CE5180709F43DCBE7
:10396000093DECE51E0709F450CB073DFCE51F07B8
:1039700089F506E221EE41EE67ED7CE5C7010E9484
:10398000190CD4C985E0DE01119601900D928A953B
:10399000E1F7F701228189819A812111A2C90E9450
:1039A0005206182FA6C98272F801E25CFC45E43188
:1039B000F10508F09ACCE556F94D0C943A25053FEF
:1039C0002CE5120709F41BCB08F413CB063F8CE55A
:1039D0001807C1F006311C4509F090CC8091C70151
:1039E000811109CC89E20E942C0600CC053FECE550
:1039F0001E0709F404CB08F4FCCA063F2CE51207A5
:103A000009F050CF07E225EE46EE66EF7CE5B6CF33
:103A10001F93CF93DF938091CD01807FA9F4809194
:103A2000CA01882389F08091FF01D091CE01609175
:103A3000C8017091C901A091CB01B091CC01C62FF2
:103A4000C72316E0D81304C0DF91CF911F910895CA
:103A500090E0109711F0CF3F19F401968770F2CFE4
:103A6000189F9001199F300D1124F901E153FE4F69
:103A700041814713F2CF40814613EFCF428141117C
:103A8000ECCF438154814A1B5B0B483C510528F71E
:103A90008091CD018F7080618093CD01F901EC524E
:103AA000FE4F80818F708061808388EC91E00E945E
:103AB0003A16DF91CF911F910C94A506AF92BF9259
:103AC000CF92DF92EF92FF920F931F93CF93DF93EA
:103AD000CDB7DEB761970FB6F894DEBF0FBECDBF8E
:103AE0008C0185E0F801DE011D9601900D928A950A
:103AF000E1F7F80180819181E28028ECA22E21E09B
:103B0000B22E6091CB017091CC016115710509F461
:103B10003EC13091C8014091C901232F24232F3F7A
:103B200009F435C1C380D480F090CA01F601E61BC8
:103B3000F70BFF2009F4FBC02091CD01522F507FDD
:103B4000E83CF10508F0BBC0511178C0FE2C4913C8
:103B500021C038131FC0E1101DC02F7020612093B9
:103B6000CD01C5010E943A168091CD01F8018583EF
:103B70008F2D61960FB6F894DEBF0FBECDBFDF91DB
:103B8000CF911F910F91FF90EF90DF90CF90BF905A
:103B9000AF900895CD2829F0282F29232F3F09F031
:103BA00014C120E0F22FF170DF2E20FF3DC02091E4
:103BB000FF014091CE0156E0241315C08D879E87EA
:103BC0008D859E850E94FA0F292F22952F70223015
:103BD000F8F0243020F59F70F9F0F8019581907F7E
:103BE000D9F4D12C1FC030E0529FF001539FF00D4B
:103BF0001124E153FE4F6181961306C06081861344
:103C000003C06281E61210C02F5F3F4F2770D4CFF0
:103C10009F7011F0882329F3805E883010F3C8016B
:103C20000E943A16FD2CA4CFEE2009F4A1CF80917A
:103C3000CD0181608093CD01F12C9ACF491312C040
:103C4000381310C0E1100EC0F8012583C8010E948E
:103C50003A1686E0F801A8ECB1E001900D928A9541
:103C6000E1F786CF8D879E878D859E850E94041003
:103C7000882309F1EE20F9F08091CD01803270F0B7
:103C80002091C8013091C90138872F831986DB86BE
:103C9000CA868C87CE0107960E943A1686E0F80104
:103CA000A8ECB1E001900D928A95E1F70E94081D01
:103CB000FF24F3945DCFC8010E943A16F9CF511149
:103CC0000AC088EC91E00E943A1686E0F501119254
:103CD0008A95E9F7B1CF49130FC038130DC0E11031
:103CE0000BC0F8012583C8010E943A1686E0F50151
:103CF00011928A95E9F73CCF8D879E878D859E85A9
:103D00000E9404108823B9F2EE20A9F28091CD011F
:103D1000803220F22091C8013091C9013A83298371
:103D20001B82DD82CC828E83CE010196B5CFE83C2A
:103D3000F105E0F6FE2CEE2009F4BDCF491316C0C4
:103D4000381314C08091CD0180FD83CF982F907FD0
:103D500009F47FCFF8018583903F09F477CF982F3E
:103D6000907F905F8F70892B858370CF8D879E8722
:103D70008D859E850E940410811190CF8091CD0188
:103D800081608093CD01C8010E943A16F1CEEE20E9
:103D900009F491CF8D879E878D859E850E940410A2
:103DA000F82E882309F487CF86E0F801A8ECB1E06B
:103DB00001900D928A95E1F78091C8019091C90117
:103DC0000E94FA0F0E94081DD3CE21E02E25EACED4
:103DD0001F93CF93DF93CDB7DEB767970FB6F894F5
:103DE000DEBF0FBECDBF4B8B5C8B6D8B7E8B8F8B05
:103DF0001A8A198A85E0FE017396DE011D960190EC
:103E00000D928A95E1F786E0FE013D96DE01179658
:103E100001900D928A95E1F7CE0107960E945E1DF2
:103E2000882389F016E08091FF019091CE018913DB
:103E300049C067960FB6F894DEBF0FBECDBFDF91C5
:103E4000CF911F91089586E0FE013796DE0111960D
:103E500001900D928A95E1F78A859B85892B11F354
:103E60008F81988589238F3FE9F22091CE0130E040
:103E7000C9010196877099274091FF0148171906DB
:103E800071F40E94CC151092CE011092FF0186E0D1
:103E9000E8ECF1E0DF011D928A95E9F7C3CF96E0E7
:103EA000929FD001939FB00D1124A153BE4FFE01EC
:103EB000319601900D929A95E1F78093CE010E9480
:103EC000A506B0CF819FC001112481539E4F0E944F
:103ED0005E1D882309F4ADCF8091FF0190E001962B
:103EE000877099278093FF019ECFCDB7DEB72A97C1
:103EF0000FB6F894DEBF0FBECDBF0E94ED057C016A
:103F000084B7806884BF84B7806884BF8FEF8BBB21
:103F10001ABA88BB17BA85BB14BA81EF82BB83E09B
:103F200081BB87E080B986B7846086BF86B780642E
:103F300086BF82E790E0909346028093450285B762
:103F4000886085BF8BB780688BBF8BE480939403B8
:103F50008093C9038093A0038AE5809393038093A1
:103F6000C80380939F038B9A80E0815009F06DC055
:103F70008B987894FFEB24ED31E0F15020403040F5
:103F8000E1F700C000008BE083BF8BEB8CBF82E0C9
:103F900089BFACE1B1E022E231E041E050E08D9137
:103FA000E82FE295EF70F0E011A98F70BA0101C01F
:103FB000660F8A95EAF7962F9095912391AB82A987
:103FC000862B82AB2A173B0751F7A2E2B1E041E012
:103FD00050E08D91E82FE295EF70F0E061A98F70CD
:103FE0009A0101C0220F8A95EAF7922F90959623A5
:103FF00091AB82A9822B82AB81E0A233B80749F74B
:10400000E7E4F2E0A6E7B2E0119211921D921D9250
:1040100092E0E335F907C1F70E947C0CEFE2F5E787
:104020003197F1F700C000000E947C0C809176026D
:1040300080FF13C080E00E9490106FEF7FEF90E050
:1040400080E00E94F9250E942D14A895E7EBFBE083
:104050003197F1F700C0000088CF0E94461481110B
:1040600002C00E94511482E080937C0080E1809322
:104070007D0005E110E0E2E0DE2EF1E8CF2E0150F8
:10408000110909F4A1C0FFEB24ED31E0F15020400B
:104090003040E1F700C00000D0923E03C0923D03E3
:1040A00082E00E94150981110AC04FEB84ED91E076
:1040B000415080409040E1F700C00000E0CF81E037
:1040C0000E944A0DEFEBF4ED21E0E150F04020407A
:1040D000E1F700C00000882391F284E180933D0362
:1040E00086E080933E0310923F03109240031092AB
:1040F0004103109242030E94150987E99AE3019750
:10410000F1F700C0000080919400909195002AE1A1
:1041100020933D0324E020933E039093400380933B
:104120003F0384E00E941509E7E9FAE33197F1F7CC
:1041300000C00000E091910089E180933D0387E099
:1041400080933E038E2FE63008F085E080933F0396
:1041500024E0E29FF0011124E956FF4F84E0A0E43F
:10416000B3E001900D928A95E1F787E00E9415096E
:1041700087E99AE30197F1F700C000008091910070
:1041800098E190933D0393E090933E0380933F0327
:1041900083E00E941509E7E9FAE33197F1F700C0DF
:1041A0000000809192009091930010923D0325E0D1
:1041B00020933E0325E120933F0390934103809396
:1041C000400385E00E94150982E290E00E94C82524
:1041D000813209F0DDC383E290E00E94C82582307D
:1041E00009F0D6C384E290E00E94C825883009F027
:1041F000CFC30E944614811102C00E94511482E074
:1042000090E00E94C82580935D020E94F80D909373
:1042100054028093530283E090E00E94C825682FE7
:1042200070E090E080E00E9480070E9446148111B7
:1042300002C00E94511486E090E00E94C82580933D
:104240006A02803120F08770886080936A029091C2
:104250006A02892F817090FF04C0892F8695869508
:1042600086950E94920D80915502811133C00E9463
:104270004614811104C00E9451140E94BC1588E0AC
:1042800090E00E94D02560936D0270936E0280933F
:104290006F02909370026E7F71F40E94BC1588E0EB
:1042A00090E00E94D02560936D0270936E0280931F
:1042B0006F02909370020E94F10710926C0280913D
:1042C0006D0280FF04C060E086950E94D71581E0F2
:1042D0008093550210E07CEFC72E75E0D72E8091B9
:1042E000AE03882309F4BDC01092AE030E94ED0511
:1042F0007C010E94500980911103882309F494C025
:104300008091930384FF90C00E947C0CEEE5F2E064
:10431000A6E7B2E010E000E0902E8D919D914191D2
:1043200051914817590709F4BAC04827592720E086
:10433000AA24A394B12CBA016A217B21672B09F42A
:10434000A8C029839A829C012A213B2191E0232B3A
:1043500009F490E09B830E94ED058160782F9D8396
:104360008C8349815A816B818D810E94E81E000FE8
:10437000111FF801E25AFD4F80819181A826B926CC
:10438000B182A08280916C02882309F441C080919F
:104390006B02E0916D02E695E81BE09358028230D3
:1043A00009F094C0F0E0E65FF94FE4910E2F10E0C1
:1043B00029E0A22E24E1B22E80915902882389F0AF
:1043C000109259020E94ED05980120953095820FB8
:1043D000931F909357028093560210925B021092A3
:1043E0005A0280915602909157020E94DE05801772
:1043F000910770F0E0915602F09157020E0F1F1FC7
:10440000109357020093560286E592E0F501099554
:104410000E948A0790915C02891731F00E948A07F6
:1044200080935C020E94DC0D0E941C0B0E945009CC
:1044300080911103882309F4DDC08091C80384FFB3
:10444000D9C080910703803209F0D4C0E0911903EC
:10445000E150E33108F0F6C0F0E0E155F94D0C947D
:104460003A25C7010E94DE05069718F4112309F4C6
:1044700040CF0E947C0C82E892E0E6E7F2E02191D6
:104480003191232B09F06AC28E179F07C1F711E003
:1044900026CF2F5FAA0CBB1C203109F04CCF0F5F39
:1044A0001F4F0630110509F037CF8FEF8E838F83B2
:1044B00018860E94ED058160782F9A8789874E8142
:1044C0005F8168858A850E94E81E5CCF863059F43A
:1044D000F0E0E95FF94FE4910E2F10E09DE1A92E85
:1044E00094E1B92E69CF893061F4E695F0E0EC5F94
:1044F000F94FE4910E2F10E081EAA82E81E1B82E49
:104500005BCF8F3061F4E695F0E0EF5FF94FE49117
:104510000E2F10E0BEEDAB2EB1E1BB2E4DCF85319D
:1045200059F4F0E0E250FA4FE4910E2F10E0A7E5C5
:10453000AA2EA2E1BA2E40CF08E210E07AECA72E14
:1045400072E1B72E883109F437CF833241F4F60196
:1045500005911491F0EBAF2EF3E1BF2E2DCF04EFB8
:1045600011E06AE5A62E63E1B62E843209F424CF69
:1045700000ED17E059EDA52E55E0B52E853209F076
:104580001BCF8E2F63E00E940625E92FF0E0E75055
:10459000FA4FE4910E2F10E0E4EEAE2EE0E1BE2ED5
:1045A0000BCF10921A0389E080931B031FC08091E8
:1045B0001A03823009F4F9C18330F1F0813009F037
:1045C00041C02FB7F894609172027091730280918C
:1045D0007402909175022FBF0E94402560931B03C7
:1045E00070931C0380931D0390931E030E94C30AC3
:1045F0001092070310E073CEA9E1B3E0E6E7F2E022
:1046000080819181329612969C93129713968C9387
:104610001397129622E0E238F20791F7E7CF8091E4
:104620001A03823079F460911B0370911C0380910E
:104630001D0390911E030E94402585E290E00E9498
:10464000DC25D4CF8FEF80931903D0CF40911C038A
:1046500060911B0380911A030E94060E98278927F8
:10466000982790931E0380931D03C0CFA0901D0335
:10467000B0901E03BA24AB24BA2480911A0300918F
:104680001B0330E2039F8001112440EC849F000D46
:10469000111D112480911C0390E0880F991F080FB1
:1046A000191F6B2DC80186960E94DC256A2DC80152
:1046B0008796C5CF0E94281099CF80911A03893020
:1046C00041F490911B0381E09F3F08F480E00E9439
:1046D000C60D80911A038138D9F068F4803809F04A
:1046E00085CF20E040911B0360916F0280916E02A4
:1046F0000E94C6147BCF823879F1833809F076CFD7
:1047000020E04091700260911C0380911B03F0CF68
:1047100060E080911B030E94D71590911B0380914C
:104720006D02911111C08E7F80936D0210926C0208
:104730008FEB94EDE1E081509040E040E1F700C064
:1047400000000E94A81052CF816080936D0260E04B
:1047500086950E94D7154ACF80911B0380937102E2
:1047600045CF80911A03893059F08A3081F0813821
:10477000F9F080F4803809F039CF8091700214CFBD
:1047800080916A0286958695869581950DCF1092C7
:104790001B032CCF8238A1F0833809F027CF8091FA
:1047A0006E0280931B0380916F0280931C031ECFC7
:1047B00080916D0280FF02C08695F6CE80E0F4CE37
:1047C00080917102F1CE80916A020E947B1060910B
:1047D0006D0270916E0280916F02909170020E9442
:1047E000B41404CF80E180931A0300CF10921A030F
:1047F0008AEDDACEA0901A03B0901B03BA24AB2442
:10480000BA2439E1832E33E0932E00911C0310E08B
:10481000075E1C4FC5018A5D9C4F0815190509F4F8
:10482000E5CEFAEDAF16B10458F40E94C825F401A4
:104830008483FFEFAF1ABF0A2FEF821A920AEACFE2
:10484000F4011482F6CF00911A0310911B03102774
:104850000127102729E1822E23E0922EA0901C032D
:10486000A00EB12EB11CC8018A5D9C4FA016B106E6
:1048700009F4BCCE0A3D110520F4F40164810E94C4
:10488000DC25FFEF8F1A9F0A0F5F1F4FECCF0E94AE
:104890008010ACCE84E0A7CFA0901A03B0901B0389
:1048A000BA24AB24BA2499E1892E93E0992E009181
:1048B0001C0310E0075E1C4FC501869608151905FC
:1048C00009F494CEA11423E0B20658F40E94C8253E
:1048D000F4018483FFEFAF1ABF0A2FEF821A920A06
:1048E000EBCFF4011482F6CF00911A0310911B0351
:1048F00010270127102789E1882E83E0982EA090A9
:104900001C03A00EB12EB11CC8018696A016B106DC
:1049100009F46CCE011533E0130720F4F40164812F
:104920000E94DC25FFEF8F1A9F0A0F5F1F4FECCF0D
:1049300080E00E9490106FEF7FEF90E080E00E9497
:10494000F92554CE0E94C30A2FE739EA43E02150EB
:1049500030404040E1F700C0000075CBF89421B32F
:10496000939A822F8C6081BB92B33CE0932792BBD9
:104970008FE59AEEE0E081509040E040E1F700C022
:10498000000082B3832782BB21BB939878947FCDAC
:1049900060E085E290E00E94DC250E9428100E94E1
:1049A000801081E00E94901024CC85E290E00E946B
:1049B000C82510921B0310921C0310921D038093B4
:1049C0001E0314CE78941F921FB61F9211248F934A
:1049D0009F93AF93BF938091720290917302A091C5
:1049E0007402B09175020196A11DB11D80937202EF
:1049F00090937302A0937402B0937502BF91AF912C
:104A00009F918F911F901FBE1F901895991B79E061
:104A100004C0991F961708F0961B881F7A95C9F74E
:104A200080950895AA1BBB1B51E107C0AA1FBB1F9D
:104A3000A617B70710F0A61BB70B881F991F5A952A
:104A4000A9F780959095BC01CD01089597FB072E9D
:104A500016F4009407D077FD09D00E94122507FCB8
:104A600005D03EF4909581959F4F0895709561957E
:104A70007F4F0895EE0FFF1F0590F491E02D0994EC
:104A800069279627692778278727782708950E941E
:104A90007026332312F48A1B9B0B0C9451250E9421
:104AA0007026B7FF0895821B930B08958F929F92F3
:104AB000AF92BF92CF92DF92EF92FF92CF93DF93AC
:104AC000EC01688179818A819B816115710581057D
:104AD000910521F464E279ED8BE597E02DE133EF68
:104AE00041E050E00E941C2649015A019B01AC01A3
:104AF000A7EAB1E40E943B266B017C01ACEEB4EF67
:104B0000A50194010E944926DC01CB018C0D9D1D5D
:104B1000AE1DBF1DB7FF03C00197A109B048888330
:104B20009983AA83BB839F77DF91CF91FF90EF900A
:104B3000DF90CF90BF90AF909F908F9008950E948C
:104B40005625089580E690E00E9456250895B0E02D
:104B5000A0E08093600090936100A0936200B09306
:104B600063000895FC014150504030F0019006165A
:104B7000D1F73197CF010895882799270895FB0130
:104B8000DC0102C001900D9241505040D8F70895C9
:104B9000E199FECF9FBB8EBBE09A99278DB3089514
:104BA000A6E1B0E044E050E00C940E26A8E1B0E0AD
:104BB00042E050E00C940E26262FE199FECF9FBBD9
:104BC0008EBBE09A01970DB2021631F02DBB0FB6E5
:104BD000F894E29AE19A0FBE08950396272F0E9457
:104BE000DD250E94DC25252F0E94DD25242F0C9435
:104BF000DD250196272F0E94DD250C94DC25262F2C
:104C0000E199FECF9FBB8EBB2DBB0FB6F894E29A05
:104C1000E19A0FBE01960895DC01CB01FC01E199F8
:104C2000FECF06C0FFBBEEBBE09A31960DB20D92EF
:104C300041505040B8F70895052E97FB1EF400949C
:104C40000E94332657FD07D00E944E2607FC03D052
:104C50004EF40C94332650954095309521953F4F56
:104C60004F4F5F4F089590958095709561957F4F58
:104C70008F4F9F4F08950E947026A59F900DB49F5F
:104C8000900DA49F800D911D11240895B7FF0C94E1
:104C90003B260E943B26821B930B0895A1E21A2E0D
:104CA000AA1BBB1BFD010DC0AA1FBB1FEE1FFF1FD0
:104CB000A217B307E407F50720F0A21BB30BE40B20
:104CC000F50B661F771F881F991F1A9469F7609567
:104CD0007095809590959B01AC01BD01CF01089521
:104CE000A29FB001B39FC001A39F700D811D11242D
:104CF000911DB29F700D811D1124911D0895F8948E
:104D0000FFCF131013101C101C101E101C101C10B1
:104D10001C101310131023101C101C102310D61974
:104D2000D619471A471A9D1A0B1A0B1A0B1AB71ADB
:104D30008D1B9C1B9C1BFD1824192B193019351930
:104D40003A193F19441949194E19531958195B1941
:104D500060196319661969196C196F197219D122D2
:104D6000D7220F23262336235A235D23B123E3239F
:104D70009824A224F223F623FA23232447244A2446
:044D80004C24742427
:104D84000100000001191A1B1C1D1E1F20212201F5
:104D94000201DB054B0BDA05180B140B0010001095
:104DA400100008080805050808080505080808058E
:104DB4000505C800F4011000000000010500000210
:104DC400050000030105010401050105010501FFBA
:104DD4005A0707070707070707070707070707070C
:104DE4000001020202020606060909090909090F5F
:104DF4000F0F0F0F0F15151518191919191919195E
:104E04001919192324252525252525818283E200C6
:104E1400E900EA00B500B600B700CD008301CC007C
:104E24008A0192019401210223022402250226020E
:104E340027022A02B300B4006F0070003233343505
:104E44003637909192939495969760616263646506
:024E540066678F
:00000001FF
