:100000000C9431030C9475030C9490030C947503B9
:100010000C9475030C9475030C9475030C94750380
:100020000C9475030C9475030C94F5200C947503D3
:100030000C9475030C9475030C9475030C94750360
:100040000C9475030C9475030C9475030C94750350
:100050000C94750329003A003B003C003D003E0033
:100060003F0040004100420043004400450046007C
:100070004700480035001E001F002000210022001C
:10008000230024002500260027002D002E004C0010
:100090002A0049002B0014001A0008001500170060
:1000A0001C0018000C00120013002F00300031005B
:1000B0004A004B00394104001600070009000A00FD
:1000C0000B000D000E000F0033003400320028003A
:1000D0004D004E00E10064001D001B0006001900E9
:1000E000050011001000360037003800E50021003F
:1000F00052004C00E000E300E2002C00E20020008F
:100100002C001F002C00E600E7006500E400500012
:1001100051004F00005C01000100010001000100DE
:1001200001000100010001000100010001000100C7
:1001300001000100010001000100010001000100B7
:1001400001000100010001000100010001000100A7
:100150000100010001000100010001000100010097
:1001600001000100010001000100AA00A900010036
:100170000100010001000100010001000100010077
:100180000100010001000100010001000100010067
:100190000100010001000100010001000100010057
:1001A00001000100A80001000100010001000100A0
:1001B0000100010001000100010001000100010037
:1001C0000100010001000100010001000100010027
:1001D0000100010001000100010001000100010017
:1001E0000100010001000100010001000100010007
:1001F00001000100010001000100010001000100F7
:1002000001000100010001000100010001000100E6
:1002100001000100010001000100010001000100D6
:1002200001000100010001000100010001000100C6
:1002300001000100010001000100010001000100B6
:1002400001000100010001000100010001000100A6
:100250000100010001000100010001000100010096
:100260000100010001000100010001000100010086
:100270000100010001000100010001000100010076
:100280000100010001000100010001000100010066
:100290000100010001000100010001000100010056
:1002A0000100010001000100010001000100010046
:1002B0000100010001000100010001000100010036
:1002C0000100010001000100010001000100010026
:1002D0000100010001000100010001000100010016
:1002E0000100010001000100010001000100010006
:1002F00001000100010001000100010001000100F6
:1003000001000100010001000100010001000100E5
:1003100001000100010001000100010001000100D5
:1003200001000100010001000100010001000100C5
:1003300001000100010001000100010001000100B5
:1003400001000100010001000100010001000100A5
:100350000100010032190A00047F3F1F6432146457
:100360003214783C1E1E140A052223252628292A29
:100370002C2D2F3032333536383A3B3D3E40424308
:100380004547494A4C4E5051535557595A5C5E6047
:1003900062646668696B6D6F71737577797B7D7F59
:1003A00081838587898A8C8E90929496989A9C9E58
:1003B0009FA1A3A5A7A8AAACAEAFB1B3B4B6B8B974
:1003C000BBBCBEBFC1C2C3C5C6C7C9CACBCCCDCEDC
:1003D000D0D1D2D2D3D4D5D6D7D7D8D9D9DADADBBF
:1003E000DBDBDCDCDCDCDCDDDDDDDDDCDCDCDCDC4B
:1003F000DBDBDBDADAD9D9D8D7D7D6D5D4D3D2D28A
:10040000D1D0CECDCCCBCAC9C7C6C5C3C2C1BFBE71
:10041000BCBBB9B8B6B4B3B1AFAEACAAA8A7A5A3DC
:10042000A19F9E9C9A98969492908E8C8A8987859B
:1004300083817F7D7B79777573716F6D6B6968667A
:100440006462605E5C5A5957555351504E4C4A494C
:1004500047454342403E3D3B3A3836353332302FF4
:100460002D2C2A292826252322FFAA7F554000016A
:100470000101010101010101020202020202020264
:100480000203030303030303030404040404040436
:1004900005050505050606060606070707070708FA
:1004A000080808090909090A0A0A0B0B0B0C0C0CAD
:1004B0000D0D0D0E0E0E0F0F0F1010111111121247
:1004C00013131414151516161717181819191A1AC4
:1004D0001B1B1C1D1D1E1E1F202021222223242425
:1004E000252626272829292A2B2C2D2D2E2F303161
:1004F0003232333435363738393A3B3C3D3E3F4073
:100500004142434445464748494A4C4D4E4F50515D
:100510005354555658595A5B5D5E5F616264656617
:1005200068696B6C6D6F7072737577787A7B7D7E9E
:100530008082838587888A8C8E8F91939596989AEE
:100540009C9EA0A2A3A5A7A9ABADAFB1B3B5B7BA06
:10055000BCBEC0C2C4C6C9CBCDCFD1D4D6D8DBDDDA
:10056000DFE2E4E7E9EBEEF0F3F5F8FAFDFF09026C
:100570003B00020100A0FA09040000010301010090
:100580000921010100012240000705810308000143
:1005900009040100010300000009210101000122FA
:1005A000320007058303080001120110010000005A
:1005B00008A02051410001010203010403300000A2
:1005C000001A034C00650065004B00750020004CCC
:1005D000003300200054004B004C0000000C034C82
:1005E00000650065004B0075000000040309040568
:1005F000010980A101850319012AB700150126B759
:1006000000950175108100C0050C0901A101850448
:1006100019012AA002150126A0029501751081007A
:10062000C005010906A101050719E029E715002504
:100630000195087501810295017508810305071967
:100640000029FF150026FF009506750881000508A2
:10065000190129059505750191029501750391030D
:10066000C00011241FBECFE5D8E0DEBFCDBF04B669
:1006700003FE24C08091E8039091E903A091EA036E
:10068000B091EB038730904BA740B04BB9F4109278
:10069000E8031092E9031092EA031092EB0314BEF0
:1006A00084B7877F84BF0FB6F894A89581B5886119
:1006B00081BD11BC0FBEE0E0F8E3099511E0A0E6B2
:1006C000B0E0EAECFBE402C005900D92A636B1075B
:1006D000D9F723E0A6E6B1E001C01D92A83EB2071B
:1006E000E1F70E9454210C94B5250C940000A82F2A
:1006F000B92F80E090E041E050EA609530E009C019
:100700002D9182279795879510F084279527305E45
:10071000C8F36F5FA8F30895EADF8D939D93089562
:10072000CF93CFB7CF93C395839BE9F7839B0EC03D
:10073000839B0CC0839B0AC0839B08C0839B06C01D
:10074000C091BF03C395C093BF03A6C0DF93C09100
:10075000BE03DD27CA53DC4F839B02C0DF91E6CF87
:100760002F930F931F9300B32FEF03FB20F94F93A9
:100770003F9310B34FEF012703FB21F93BE031C05A
:100780004E7F012F10B3216028C0102F4D7F2260B3
:10079000000000B329C04B7F2460012F000010B37C
:1007A0002BC010B3477F28602AC04F7E00B3206162
:1007B0002CC04F7D10B320622FC04F7B00B320644C
:1007C00032C0422700B349934FEF0000102713FBBC
:1007D00020F910B31C70C9F1297F91F2012703FBA6
:1007E00021F900B3237F89F2315058F1102713FB10
:1007F00022F910B3277E79F2012703FB23F92F7C1E
:1008000081F200B3102713FB24F92F7971F200C095
:1008100010B3012703FB25F92F7359F200C000B371
:10082000102713FB26F9223040F200C010B3012735
:1008300003FB27F9243028F64F77206810B3000017
:10084000F9CF10E81ABF00271CC03B503195C31BDD
:10085000D04010E81ABF0881033C11F10B3401F1BC
:100860002091BB031981110F1213EDCF4A81441F50
:10087000093669F10D3211F0013E29F74F7009F088
:10088000042F0093C4033F914F911F910F912F911B
:10089000DF91CAB7C7FD47CFCF91CFBFCF91189592
:1008A0002091C403222379F31091C203112309F08C
:1008B00044C034300AF443C03093C2032093BD03D4
:1008C0001091BE033BE0311B3093BE0338C0009152
:1008D000C203013094F50AE54F7049F43091B3003A
:1008E00034FD2FC00093B300C8E9D3E02EC04330DD
:1008F00059F0443091F03091A30334FD22C00093AD
:10090000A303C4EAD3E021C03091DC0334FD19C055
:100910000093DC03CDEDD3E018C03091AF0334FD7C
:1009200010C00093AF03C0EBD3E00FC02795A8F42D
:100930005150A9F4220F0000F9CF4AE503C042ED5F
:1009400001C0432FC4E1D0E032E011B31C60939AA0
:1009500011BB02B320E41CE05F93012756E002BB09
:10096000279520F4515021F4220FF9CF012756E0AA
:1009700000003B5A02BBD0F2279528F4515029F4CD
:10098000220F0000F9CF012756E0279502BB20F483
:10099000515021F4220FF9CF012756E0299133233A
:1009A00002BB21F6037F1091C303110FC651D04043
:1009B00002BB11F01093BB0310E81ABF086011B31B
:1009C000137F402F437F5F9100C000C002BB11BB6B
:1009D00042BB59CF1F93CF93DF93182F1470D82F9A
:1009E000D270C82FC17020E0412F6D2F8C2F0E9434
:1009F0001F0687EB9BE00197F1F700C0000020E0A5
:100A0000412F6D2F8C2FDF91CF911F910C941F06DA
:100A1000CF93DF93CDB7DEB72F970FB6F894DEBF35
:100A20000FBECDBF8FE0E4EBF0E0DE011196019048
:100A30000D928A95E1F761E0CE0101960E94910640
:100A40002F960FB6F894DEBF0FBECDBFDF91CF91CA
:100A50000895CF93DF93CDB7DEB72F970FB6F894F5
:100A6000DEBF0FBECDBF88E089838A838B839091E0
:100A700092009C838D838E838F83888789878A8762
:100A80008B878C878D878E878F8761E0CE0101965B
:100A90000E9491062F960FB6F894DEBF0FBECDBF11
:100AA000DF91CF9108950F93CF93DF9360E182E0C0
:100AB0000E94AE0BC5E1D0E0219721F4DF91CF91E8
:100AC0000F9108952FEB34ED81E0215030408040AC
:100AD000E1F700C0000081E00E9415069FEB24EDC5
:100AE00031E0915020403040E1F700C00000882301
:100AF00019F300E020E040E060E080E00E94300672
:100B000087E99AE30197F1F700C0000060E0809167
:100B10007700909178000E94860687E99AE3019712
:100B2000F1F700C000008091740094E0899FB0014B
:100B3000112466587F4F40E00E946F0687E99AE3D0
:100B40000197F1F700C0000060E0809174000E94FE
:100B5000650687E99AE30197F1F700C0000060910C
:100B600075007091760040E085E1DF91CF910F91A3
:100B70000C94090681110C9429050C9408050F9317
:100B800080915C0380FD09C000E020E040E060E06F
:100B900080E00E9430060F91089520E041E653E086
:100BA00060919600809197000F910C944006CF932E
:100BB000DF93482F662331F1C091F9028C2F8068B2
:100BC0008093F90269EF72E080EB0E94FB068111CD
:100BD00004C080E0DF91CF910895CF73DAE041E067
:100BE00069EF72E080EB0E9429078091F902C81733
:100BF00071F08BE291E00197F1F700C00000D15055
:100C000071F7E7CF69EF72E080EB0E94FB0681E0AD
:100C1000E1CFE9EFF2E0108295E091838283748363
:100C20006383642F85E00C94D705E9EFF2E091E04F
:100C3000908392E09183682F82E00C94D70593E033
:100C40009093F9029093FA02811184E0611182601D
:100C5000411181608093FB02622F83E00C94D705E1
:100C60000F93E9EFF2E094E1908396E09183828321
:100C7000438364832583602F86E00F910C94D7050E
:100C8000CF93962FBA01C22F492F480F5527551FD2
:100C900045315105BCF427E12093F90220E420936B
:100CA000FA028093FB029093FC0293E0899FA001DB
:100CB00011248DEF92E00E9439256C2F80E4CF91B2
:100CC0000C94D70580E0CF910895E9EFF2E098E128
:100CD000908393E09183828383E00C94D70599E11C
:100CE0009093F90297E09093FA02863008F085E03D
:100CF0008093FB0284E0FB01ACEFB2E001900D9227
:100D00008A95E1F7642F87E00C94D705E9EFF2E0CC
:100D10002AE1208324E021839383828384E00C945E
:100D2000D7052BE22093F90221E12093FA02EBEFA1
:100D3000F2E09C01215F3F4FDC014D91CD014193D9
:100D4000A217B307C9F781E10C94D705BC0180EE67
:100D50009EE20E944F24CB01B0E0A0E04097A109A1
:100D6000B109B695A7959795879580B986B78460A0
:100D700086BF86B7806486BF089586B7806D86BFBC
:100D800006B604FEFDCF089506B607FEFDCF089512
:100D900086B7806A86BF0E94C40691B1987F81E0C1
:100DA000983019F0903109F080E08170089583B98E
:100DB00086B78F70806886BF0E94C40681B1982F65
:100DC000987F983251F0983141F0982F987E81E0C9
:100DD000903409F080E08170089581E0FCCF882391
:100DE00019F086B7806486BF86B7806886BF0E9488
:100DF000C40683B10895EF92FF920F931F93CF9390
:100E0000DF93C82FF62EE72E042F0E94C80681110B
:100E100009C010E0812FDF91CF911F910F91FF90BA
:100E2000EF9008958C2F8E7F0E94D706182F88236D
:100E300081F3011103C00E94BD06ECCFCF2DDE2D42
:100E400089910E94D706882321F30150FC2EED2EB4
:100E5000F0CFEF92FF920F931F93CF93DF93C82FA2
:100E6000F62EE72E042F0E94C806811109C010E05B
:100E7000812FDF91CF911F910F91FF90EF900895F7
:100E80008C2F81600E94D706182F882381F3CF2DE5
:100E9000DE2D0F0D04C081E00E94EF068993802FA4
:100EA0008C1B8230C0F780E00E94EF0688830E948E
:100EB000BD06DECF8FEF8BBB1ABA88BB17BA85BBD6
:100EC00014BA81EF82BB83E081BB80E991E00C948E
:100ED000A6060C94FD0981E0089581E008950C9424
:100EE0006D0708950C9471071F93CF93DF9300D083
:100EF00000D00F92CDB7DEB749835A836B83309110
:100F0000DC0189819A8131111DC06623B9F0222349
:100F1000A9F00E94851E182F682F89819A810E944E
:100F2000321E69817A81812F0F900F900F900F9060
:100F30000F90DF91CF911F910C941F080E945E1EAD
:100F4000182FEFCF0E94851E69817A81EDCFFC01B9
:100F5000262F408151816281738184810C947407B2
:100F6000CF93DF93EC0160E00E94A707BE01DF9101
:100F7000CF910C9472070E94BC1F811102C00E9485
:100F800062200E9453050C94FB090C946907089594
:100F90000E94111A0E94C7072FEB87E299E02150A7
:100FA00080409040E1F700C000000C9419210F939D
:100FB0001F93CF93DF93EC0161E00E94A7078C01A0
:100FC000BE010E946F07882389F1BE01C8010E94FB
:100FD0002613882359F1BE01C8010E94E11388231A
:100FE00029F1BE01C8010E9433148823F9F0BE0123
:100FF000C8010E9456158823C9F0BE01C8010E948D
:10100000F611882399F08A81882339F001158CE53F
:10101000180751F00E3D1C4579F0CE01DF91CF91BC
:101020001F910F910C946B070E94C80780E0DF911D
:10103000CF911F910F9108950E946220F7CFE72F63
:10104000F0E096E0899FE00DF11D112484E0EE0FA1
:10105000FF1F8A95E1F7E60FF11DEE0FFF1FEC5A17
:10106000FF4F859194910895CF93DF930E941F08BD
:101070000E942009EC01811522E59207E8F581150F
:1010800031E5930708F0ACC0883E910510F5803E2D
:10109000910570F5883A910570F4853A910508F04C
:1010A00078C08130910521F1009711F1049700F586
:1010B000D0E0C0E01DC08F3B9105D0F7C85AD0E00A
:1010C000CC0FDD1FCD53DF4F0990D881C02DD464E4
:1010D0000FC0811540E5940708F066C0C11580E493
:1010E000D80708F05EC0CE019A9581159F4100F7A0
:1010F000CE01DF91CF910895811536E5930718F55C
:10110000811545E5940708F083C0C11584E5D8072B
:1011100008F079C09C2F969596959E0123703327F1
:10112000C115D34508F461C0C1E0D0E002C0CC0FC6
:10113000DD1F2A95E2F730E2939FC0011124C82BEE
:10114000D92BDA68D5CFC1158AE5D80778F4C1154F
:1011500099E5D90708F066C0C11528E5D20708F45B
:10116000A7CFDC2FCC27C06FD06AC2CFCE0190565C
:101170008115904208F09CCF8D2F8F710E94B70986
:1011800090E0982F882788279F719C012C2BE901DC
:1011900047C0C55AD0E0CF50DF4FC881D0E0D064FF
:1011A000A7CFDF70D06AA4CFE4E096958795EA9543
:1011B000E1F783702C2F26952695237040E2249F1B
:1011C00090011124382B8C2F8370C1E0D0E002C035
:1011D000CC0FDD1F8A95E2F7C22BD32BDC6888CFBA
:1011E000D82FCC27C16FD06A83CFC1E0D0E002C036
:1011F000CC0FDD1F2A95E2F720E2929FC001112457
:10120000C82BD92BEBCFDC2FCC27C46FD06A70CF83
:101210000E94B709C82FD0E0DC2FCC27CC27DF7184
:10122000D06266CF8C2F8F700E94B70934E0D695BC
:10123000C7953A95E1F7CF709C2FEC01D06958CF54
:1012400082389105B1F1B0F48133910509F475C08C
:1012500048F48932910509F469C08A32910509F48C
:1012600073C008958533910509F459C089339105F8
:1012700001F10895833E9105A9F138F4803E91056E
:10128000F9F0823E910549F10895863E9105A9F154
:10129000873E9105C9F1843E910519F52091970388
:1012A00021FF1FC08091960384FD14C087EE90E05B
:1012B0000895209196032370A1F080EE90E00895A8
:1012C0002091960320FD47C03091970330FF09C05D
:1012D00024FF44C090E080E004C02091960322FDEA
:1012E000F7CF08952091960322FD3BC030919703DC
:1012F00030FDE3CF24FFF5CFEDCF2091960323FF00
:10130000F0CF24FDE7CFD2CF2091960323FD2CC050
:101310003091970331FFEECF84EE90E00895209155
:10132000960325FFDECF89E290E008952091960391
:1013300025FFD7CF85E390E008952091960326FFFF
:10134000D0CF8AE290E008952091960326FFC9CF7E
:1013500081E390E0089589E390E0089583EE90E0C2
:10136000089582EE90E0089586EE90E008959091C1
:10137000960392FF06C0282F28712830F9F4877F42
:10138000846093FF06C0282F28712831F1F4877EEE
:1013900084612091970320FF06C0382F38713830C0
:1013A000D9F4877F816021FF06C0282F287128315A
:1013B000D1F4877E816194FD877E0895282F247162
:1013C0002430F9F68B7F8860DCCF282F24712431FC
:1013D00001F78B7E8861DDCF382F3171313019F7FD
:1013E0008E7F8860E0CF282F2171213121F78E7EFA
:1013F0008861E1CF08950C94FA090895E82FF0E090
:10140000EE0FFF1FE05BFC4F8081918108950895EE
:1014100088E78A95F1F70895A4E0B1E061E070E013
:101420008D91E82FE295EF70F0E041A98F709B015C
:1014300001C0220F8A95EAF7922F9095942391ABE1
:1014400082A9822B82AB81E0AA30B80749F7A4EFCA
:10145000B0E061E070E08D91E82FE295EF70F0E090
:1014600041A98F709B0101C0220F8A95EAF7922F44
:101470009095942391AB82A9822B82AB81E0A4301A
:10148000B80749F7E4E4F3E0A0E5B3E080E593E0D2
:10149000119211921D921D928E179F07C9F786E037
:1014A0000E94DB0A0C94BB078F929F92AF92BF926F
:1014B000CF92DF92EF92FF920F931F93CF93DF9320
:1014C00084E0E82E81E0F82E04E413E0912CAA24B5
:1014D000A394B12CF70181917F01C82FC295CF70E1
:1014E000D0E099A98F70650101C0CC0C8A95EAF70C
:1014F000892F8C2989AB8AA98C2C809488218AAB6E
:101500000E94080AE4EFF0E050E040E030E020E024
:101510006191A62FA295AF70B0E0D0968C9190E02B
:101520006F7002C0959587956A95E2F780FD3EC081
:10153000C501042E02C0880F991F0A94E2F7282BD8
:10154000392B4F5F5F4F4031510511F789A9882230
:1015500089AA8AA9C82ACAAAF80180819181281774
:10156000390739F13183208381E0982A0E5F1F4FBC
:10157000FAE0EF16F1E0FF0609F0ACCF292D46E0C6
:1015800060E573E084E493E00E94DC0A0E94C507F2
:10159000892DDF91CF911F910F91FF90EF90DF90F8
:1015A000CF90BF90AF909F908F90089590E080E093
:1015B000C6CF80E0DACF0895FF920F931F93CF93A9
:1015C000DF93F82E092F162FD72FC42F222349F08F
:1015D00081E0809368010E94DA20909367018093F4
:1015E0006601809168018823A1F080916601909145
:1015F00067010E94E620069760F0EF2DF02FA12FE3
:10160000BD2F90E080E0D0E08C179D0744F0109251
:101610006801DF91CF911F910F91FF900895219163
:1016200031912D933D930196EFCFEF92FF920F935F
:101630001F93CF93DF93EB01E82FD11110C0442308
:1016400021F0F0E0E259FB4FE4916E2F7E2F8E2FB8
:10165000DF91CF911F910F91FF90EF9008950D2F83
:1016600010E0282F30E0442329F022593B4FF901A4
:10167000249130E0F6E0CF9FC0011124EFEFF0E0BD
:10168000BF010E944F24AB018C2F90E0880F991F5F
:10169000A5E5A49FB001A59F700D1124861B970B93
:1016A000982F990F980FBF01601B710B629FD0019B
:1016B000639FB00D729FB00D11248B2F9D9FB001C1
:1016C0001124672F7727EF01C61BD70BBE01629F3E
:1016D000E001639FD00D729FD00D11247F01E91AA4
:1016E000F108E09EB001E19E700DF09E700D112496
:1016F000672F7727E61BF70BE29F8001E39F100D12
:10170000F29F100D1124E12F722F4230510599F0F4
:1017100048F44115510569F04130510581F0EB2F36
:101720008D2F07C04430510569F080F046305105D7
:10173000B1F76E2F8DCFE22F7B2F812FFACFE22FC3
:101740007D2FF7CFEB2F822F712FF3CF7B2F822F9F
:10175000ED2FEFCF41E00C94150B0895E6E9F0E092
:10176000808361830895CF93DF93762FE901682FFB
:10177000842F0E94AA0B798368838A83DF91CF919B
:101780000895493C08F048EC0C94B30BEF92FF929B
:101790001F93CF93DF93EC0110E0EE24EA94F12C39
:1017A00060919A00161770F00E94BF059A818C8193
:1017B00090FF27C08F5F8C83DF91CF911F91FF90A7
:1017C000EF90089520919800422F410F5527551F03
:1017D000CA019A01220F331F280F391F2F593C4F7E
:1017E00070E0C7010E946324962F8C8140915F03B3
:1017F00060915E03199F800D11240E94C10B1F5F31
:10180000CFCF8150D8CFBF92CF92DF92EF92FF928D
:101810000F931F93CF93DF93FC0182810FEF80FF23
:1018200001E010E080919A001817C0F00E94BF05F7
:1018300080916B01013009F051C0811102C080918B
:101840009A00815080936B01DF91CF911F910F918E
:10185000FF90EF90DF90CF90BF900895C0919800D7
:10186000C12ED12CCC0DDD2DD11DCE01880F991F9D
:10187000C80FD91FCF59DC4F198218821A8234E061
:10188000E32EF12CB12C80916B018B0D813104F191
:101890008F70082E000C990BC816D90691F4809110
:1018A0005F038E9DA0018F9D500D11245595479586
:1018B000559547959E0160915E0380915D030E945E
:1018C000C10BB00EF1E0EF1AF108E9F61F5FAACFE5
:1018D00087FFDFCF90919A00890FDBCF90E00196D0
:1018E00060919A0070E00E946324ACCF0F931F9325
:1018F000CF93DF93809198009091990023E0829F8D
:10190000F0011124EF59FC4F891740F1C0E0D3E0FA
:1019100060919A00C61740F10E94BF052091940083
:1019200080916A01820F80936A0190919500920FD5
:1019300090939500191654F4082E000C990B4091C1
:101940009A004150550B841795071CF02195209360
:101950009400DF91CF911F910F9108951182108211
:1019600012828F5F3396D0CF0C2F10E070E0C80149
:101970000E94632420919800820F482F50E020910C
:101980006A01022E000C330B02171307BCF02091E2
:101990009500022E000C330B201731077CF08D9F31
:1019A000900111242F593C4F40915F0360915E03D9
:1019B00080915D030E94C10BCF5FAACFFA01EE0FA9
:1019C000FF1FE40FF51FEF59FC4F118210821282A6
:1019D000F3CF8F929F92AF92BF92CF92DF92EF920E
:1019E000FF920F931F93CF93DF93EC014C81042F51
:1019F00010E09801D8010E94A7249B01AC010E942D
:101A0000BD244B015C01E0E2F0E0E01BF10BA5E539
:101A1000B0E0AC019B010E94BD246B017C019F01E1
:101A2000DF010E949F249B01AC010E94C8249B01FE
:101A3000AC01280D391D4A1D5B1DC701B6010E946E
:101A40007724F22E822F90E039E23F1560F143E0D7
:101A5000249F9001112435952795122F109500E0B1
:101A600085E5E82EEF1880919A00081758F10E943A
:101A7000BF059C8181E0992319F0903219F48FEF12
:101A80008093930080919300890F8C83DF91CF9195
:101A90001F910F91FF90EF90DF90CF90BF90AF908C
:101AA0009F908F90089525E530E0B901681B790B70
:101AB0009B01220F331F260F371F37FFCCCF2F5F1D
:101AC0003F4FC9CF8E2D01FD8F2D20919800622FA1
:101AD000600F7727771F9B01220F331F260F371FB9
:101AE0002F593C4F412F60915E030E94C10B0F5F45
:101AF000BACF0F931F93CF93DF93EC0110E000E078
:101B000090919A009017110609F06CF40E94BF059D
:101B10008C8190E00196817099278C83DF91CF9121
:101B20001F910F91089520919800A801420F511D17
:101B30009A01220F331F240F351F2F593C4F4C8120
:101B400060915E0380915D0396959017110651F0A8
:101B50004CF0442349F040915F030E94C10B0F5F9A
:101B60001F4FCECF4423B9F340E0F7CF8F929F921F
:101B7000AF92BF92CF92DF92EF92FF920F931F939B
:101B8000CF93DF93FC01B280948081E0848300E0F6
:101B900015E05BE4A52E88248394EE24EA94F12CCE
:101BA0007BE4C72ED12C80919A00081770F0DF914A
:101BB000CF911F910F91FF90EF90DF90CF90BF904A
:101BC000AF909F908F900C94BF05C02FD0E01C9FCA
:101BD000F0011D9FF00D1124E459FE4F91101CC01F
:101BE0001382128220919800CE01820F911D9C01D8
:101BF000220F331F280F391F2F593C4F1C9FF00114
:101C00001D9FF00D1124E459FE4F428161818081B6
:101C10000E94C10B0F5FC7CF2381222379F121508E
:101C2000238334818A2D821B311101C0822F1C9F96
:101C3000F0011D9FF00D1124E459FE4F90915F03B8
:101C4000899FC0011124B6010E944F246283211193
:101C500004C0332311F01482A38222E02B1510F26A
:101C60001C9FF0011D9FF00D1124E459FE4F80913F
:101C70005D03808380915E038183B4CF0E941C2525
:101C8000823091400CF0AECF82E08B1530F50E948F
:101C90001C25B7010E9463241C9FF0011D9FF00DBD
:101CA0001124E459FE4F808322E02B15C8F40E94D2
:101CB0001C2520915E032695622F70E00E9463240C
:101CC000280F1C9FF0011D9FF00D1124E459FE4FB9
:101CD00021831282A382848285CF80915D03DCCF31
:101CE00020915E03EECF80915C03982F9E7F61F47C
:101CF0008170826080935C0380915F03893C18F05F
:101D000088EC80935F0308958635B0F38170846515
:101D1000F1CF88E090E00C944A25CF92DF92EF92C9
:101D2000FF926B017C010E94730EB701A60188E04F
:101D300090E0FF90EF90DF90CF900C946725ECE55A
:101D4000F3E083E0808311828FEF828388EC8383CA
:101D5000148260817181828193810C948D0E8091B7
:101D60005C0380FF02C08695089580E00895ECE54D
:101D7000F3E080818E7F8083608171818281938195
:101D80000E948D0E1092C4012FEB84ED91E0215042
:101D900080409040E1F700C000000C94BF05909196
:101DA0006003933018F49F5F90936003882351F091
:101DB00060915C0370915D0380915E0390915F037D
:101DC0000C948D0E089581E00C94CF0E90916003D9
:101DD000992319F0915090936003882351F06091FA
:101DE0005C0370915D0380915E0390915F030C949E
:101DF0008D0E089581E00C94E60E90915C0390FFA7
:101E000014C0909198002091990033E0939FF001C5
:101E10001124EF59FC4F921710F00C94BF058183E9
:101E2000608342839F5F3396F6CF0895CF93DF930D
:101E300000D00F92CDB7DEB790915C0390FF0AC03F
:101E40009E012F5F3F4F0E94C10B4B8169818A81A8
:101E50000E94FD0E0F900F900F90DF91CF9108958B
:101E6000CF93DF93EC01EC81F0E0E759FC4F449114
:101E7000ECE5F3E0628181810E94160F8C818F5F17
:101E80008C83DF91CF910895CF93DF93EC01ECE544
:101E9000F3E0438162818C810E94160F8C818F5FF9
:101EA0008C83DF91CF910895AF92BF92CF92DF9252
:101EB000EF92FF920F931F93CF93DF9300D00F9277
:101EC000CDB7DEB7182FF62E042FE22E90915C03CB
:101ED00090FF29C0E92FE695AE2FB0E0A65FBE4F78
:101EE0008C918093C3019E7F923059F59E012F5FA4
:101EF0003F4F812F0E94C10B4B8169818A810E94D3
:101F0000FD0E10935D03F0925E0300935F03EE20DD
:101F100051F060915C0370915D0380915E0390913C
:101F20005F030E948D0E0F900F900F90DF91CF9165
:101F30001F910F91FF90EF90DF90CF90BF90AF90E7
:101F40000895823019F400915F03DBCF863019F4D5
:101F500010915D03D6CF8930D9F3893191F6E951DB
:101F60008E2F8170D82EE695F0E0E759FB4FA590B3
:101F7000B490C12CBB2460919A00C61618F00E9440
:101F8000BF05BFCF2C2D30E0A29EC001A39E900DB7
:101F9000B29E900D112470E00E944F24812FD11029
:101FA00013C0860F40919800420F532F511D9A0184
:101FB000220F331F240F351F2F593C4F402F6F2DF9
:101FC0000E94C10BC394D7CF861BECCFECE5F3E0A6
:101FD0009181282F438162818AE0890F0C94540FEC
:101FE00081E00C94E60FECE5F3E09181282F43812A
:101FF000628186EF890F0C94540F81E00C94F30FEB
:10200000ECE5F3E0628121E1620F08F46FEF282F25
:10201000438181810C94540F81E00C940010ECE515
:10202000F3E0628121E1621B08F460E0282F438124
:1020300081810C94540F81E00C940F10ECE5F3E0D7
:10204000438121E1420F08F44FEF282F6281818103
:102050000C94540F81E00C941E10ECE5F3E04381E6
:1020600021E1421B08F440E0282F628181810C9419
:10207000540F81E00C942D1020E00C94540F0F931A
:102080001F93CF93DF9300D00F92CDB7DEB78C01B3
:102090008091690181110AC09E012F5F3F4F48EC7A
:1020A0006FEF0E94C10B8A8180936901F8016481FE
:1020B000613069F08091690140E0662361F040E0A1
:1020C000623011F44091690180E060E004C06091E9
:1020D000690140E080E00E94FD0EF801848190E0FB
:1020E000019663E070E00E94632484830F900F9058
:1020F0000F90DF91CF911F910F91089560915C0334
:10210000669570E04BE050E08BE990E00E942C2552
:10211000892B19F481E08093C4010E94DA20909306
:10212000BD018093BC01089590915C0390FF35C080
:102130009170811128C0926090935C03662351F0E6
:1021400060915C0370915D0380915E0390915F03E9
:102150000E948D0E60915C03669570E04BE050E04C
:102160008BE990E00E942C25892BA1F01092C401EC
:1021700081E08093BF0140915F0360915E03809195
:102180005D030C943C108B3210F09465D5CF880F12
:10219000982BD2CF0E947E10EBCF0895682F90919C
:1021A0005C03969581E0890F8B3208F081E00C94F6
:1021B000941081E00C94CE10682F90915C0396955A
:1021C0008FEF890F09F48AE20C94941081E00C944B
:1021D000DC1061E00C949410ECE5F3E08081816008
:1021E000808386950C94E91080915C0380FD0C94AB
:1021F000B70E0C94EC1060E00C9494108091C20126
:1022000081112EC00E94BC1F811104C00E94622057
:102210000E949F0E0E94890E60935C0370935D0381
:1022200080935E0390935F036E7F61F40E949F0E24
:102230000E94890E60935C0370935D0380935E033C
:1022400090935F030E94730E1092C40180915C030F
:1022500080FF03C086950E94FB1081E08093C2013D
:1022600008950F931F93CF93DF938091C401882328
:1022700009F49DC08091C301E0915C03E695E81BE1
:10228000E093BE018230C9F5F0E0EB59FC4FE491D8
:10229000CE2FD0E000E31FE08091BF01882389F0BA
:1022A0001092BF010E94DA209E0120953095820F86
:1022B000931F9093BD018093BC011092C1011092B5
:1022C000C0018091BC019091BD010E94E6208C1755
:1022D0009D0708F46CC0E091BC01F091BD01CE0FE8
:1022E000DF1FD093BD01C093BC018CEB91E0F801DE
:1022F000DF91CF911F910F910994863049F4F0E05E
:10230000EE59FC4FE491CE2FD0E004E41FE0C4CF9F
:10231000893051F4E695F0E0E15AFC4FE491CE2F7C
:10232000D0E006EC1BE0B8CF8F3051F4E695F0E03A
:10233000E45AFC4FE491CE2FD0E003E01CE0ACCF98
:10234000853149F4F0E0E75AFC4FE491CE2FD0E01C
:1023500006E71CE0A1CFC8E2D0E009EE1CE088311E
:1023600009F49ACF833239F4E7E5F3E0C591D491CB
:102370000FE310E191CFC4EFD1E009E71DE0843213
:1023800009F48ACFC0EDD7E00DEA1BE0853209F0F1
:1023900083CF8E2F63E00E944324E92FF0E0EC5AB4
:1023A000FC4FE491CE2FD0E006EB1DE075CFDF911E
:1023B000CF911F910F910895FA01811101C0FB0186
:1023C0000994CF93DF93C82FD62F0E94AF0E8C179E
:1023D00040F00E94AF0E8D1720F4DF91CF910C9446
:1023E000D9108C2FDF91CF910C94E9100F931F938C
:1023F000CF938C01FB01C281CC2309F465C00E94FC
:102400001A1F8272F801E25CFC45E431F10538F4F0
:10241000E954FA4D0C9499240E94F410C0E08C2FDA
:10242000CF911F910F91089546EE50E169ED70E153
:102430000E94DC11F3CF49ED50E166EE70E1F8CF78
:102440004DEF5FE060EF7FE0F3CF40EF5FE06DEFD7
:102450007FE0EECF4BE150E16CE070E1E9CF4CE082
:1024600050E16BE170E1E4CF49E350E16AE270E1F1
:10247000DFCF4AE250E169E370E1DACF4AEF5EE094
:1024800063EE7EE0D5CF43EE5EE06AEF7EE0D0CF34
:1024900081E00E94E910C2CF65E082E00E94E11174
:1024A000BDCF68E086E0FACF6EE089E0F7CF64E167
:1024B0008FE0F4CF67E185E1F1CF88E1EACF62E216
:1024C00089E1ECCF83E2E5CFC1E0A9CF0E94BC1F38
:1024D000811102C00E9462200E94EA1F8093910332
:1024E000803120F0877088608093910390919103F0
:1024F000892F817090FF04C0892F869586958695D7
:102500000C94BA0580919103982F987F19F4885FF5
:1025100080939103809191038160809391030E9445
:10252000EE1F809191038695869586950C94BA0549
:1025300080919103982F987F79F088508093910330
:10254000887F91E009F490E08091910390FB80F9FD
:10255000809391030E94EE1F80919103869586954A
:1025600086950C94BA058091910380FD13C081601B
:1025700080939103813019F489E0809391038091D5
:1025800091030E94EE1F8091910386958695869512
:102590000C94BA0508958091910380FF08C08E7F46
:1025A000809391030E94EE1F80E00C94BA05089579
:1025B0008091910380FD0C94CB120C94B3129091F6
:1025C0009103892F8695869586958F5F8F71977079
:1025D0008230D8F4880F880F880F892B809391035D
:1025E00080919103887F91E009F490E080919103BC
:1025F00090FB80F9809391030E94EE1F80919103DC
:102600008695869586950C94BA0590939103E8CFAC
:10261000811181E0909191039770282F220F220F52
:10262000220F922B90939103987F21E009F420E0F0
:102630009091910320FB90F9909391030C94BA052B
:102640000E940813809191030C94EE1F9C01FB01E2
:102650008281882349F12D3BFCE53F07C9F040F416
:102660002B3BECE53E0769F02C3B3C4579F00895A7
:102670002F3B9CE5390791F070F0203C3C4589F0F8
:10268000089581E00E94201380E0089580E0FACF51
:102690000E949812F9CF0E948212F6CF0E94D8129F
:1026A000F3CF0E94DF12F0CF81E00895AF92BF9286
:1026B000CF92DF92EF92FF920F931F93CF93DF930E
:1026C0007C015B01C42FD22FFC0182818823F9F0A9
:1026D0004093C7010E94DA209093C6018093C50100
:1026E00080E28C0F883008F061C0C77081E001C0C3
:1026F000880FCA95EAF7DF91CF911F910F91FF9054
:10270000EF90DF90CF90BF90AF900C94B1171091E5
:10271000C701141340C08091C5019091C6010E9469
:10272000E6206C01B701C5010E94871CC816D906B6
:1027300090F5C0E2CD0F1D17B9F080E2810F88300F
:1027400040F4177081E001C0880F1A95EAF70E94E3
:10275000B817C83048F481E09D2F977001C0880FEA
:102760009A95EAF70E94B117802F0E949E17C830F1
:10277000E8F4D77081E001C0880FDA95EAF7DF91BD
:10278000CF911F910F91FF90EF90DF90CF90BF906E
:10279000AF900C94B81780E28C0F883038F4C77073
:1027A00081E001C0880FCA95EAF7E9CFDF91CF91A8
:1027B0001F910F91FF90EF90DF90CF90BF90AF905F
:1027C00008950F939C01CB01233F4CE5340759F149
:1027D000A8F4283DFCE53F0701F1293D4CE534070D
:1027E000D1F1273D3C4591F406E221EE41EE67ED43
:1027F0007CE50E94561380E00F910895253FFCE58B
:102800003F07E9F0B0F0263F3C45F9F0FC0182813A
:10281000882339F11092C701EFCF07E225EE45EE8C
:1028200068ED7CE5E6CF06E221EE40EE63EF7CE565
:10283000E0CF07E225EE44EE64EF7CE5DACF06E276
:1028400021EE42EE65EF7CE5D4CF07E225EE46EEC1
:1028500066EF7CE5CECF08E221E045EE69ED7CE550
:10286000C8CF81E0C9CFCF93DF93EC01FB01828118
:10287000882309F419C1C230FCE5DF07C0F1C63175
:102880009CE5D90730F09E012A5F3C45293031058F
:1028900070F50E94CF1F9093970380939603C031E9
:1028A000ECE5DE0709F4CFC008F05BC0C8308CE56A
:1028B000D80709F4B6C088F5C430ECE5DE0709F4A2
:1028C000A8C0C0F4C2308CE5D80709F49CC0809140
:1028D00096038260C330DC4509F498C0809196036A
:1028E000909197030E94DD1F0E94111A80E0DF91F2
:1028F000CF910895809196038061C630ECE5DE07A4
:1029000009F484C0809196038860C730DC4508F4E0
:102910007DC080919603806279C0CC308CE5D80769
:1029200009F489C070F4809196038C60CA30ECE59C
:10293000DE0709F46BC008F478C0809196038E7F9F
:1029400065C0CE308CE5D80709F479C08091960334
:102950008B7FCF30DC4508F459C0809196038F7E81
:1029600055C0CB3FECE5DE0709F457C030F5C33165
:102970008CE5D80709F46FC078F4C131ECE5DE07C7
:1029800009F465C0C231DC4509F0A8CF0E94111AD4
:10299000809196038F773AC0C5318CE5D80709F44A
:1029A00062C008F476C0809197038160CA3FDC451D
:1029B00009F094CF8093970391CFCF3FFCE5DF07D9
:1029C00009F44DC088F4809197038D7FCD3F9CE53D
:1029D000D90781F3809197038E7FCE3FDC4550F37A
:1029E000809197038360E6CFC130FDE5DF0709F4EE
:1029F00059C008F444C080E0C230DD4509F06ECF14
:102A00000E9464206BCF809196038160809396032F
:102A100065CF809196038460F9CF8091970382609F
:102A2000C9CF809196038064F1CF0E94111A8091E2
:102A300096038068EBCF809196038D7FE7CF8091DE
:102A40009603877FE3CF809196038F7DDFCF8091C0
:102A500096038F7BDBCF80919603837FD7CF8091C6
:102A600097038C7FA7CF8091960382FB992790F9DB
:102A700021E0922790FB82F990FB83F9C7CF8091E8
:102A80009703982F909591708E7F892B90FB81F9F9
:102A900091CF0E94111A90919603892F97FB87F985
:102AA0008058B4CF81E0ACCF81E021CFCF93DF93CA
:102AB000EB0186319C4511F50E941A1F9A819923DA
:102AC00099F08A7A91E009F490E09093C80181111D
:102AD00009C089E20E94F51E0E94591F80E0DF9123
:102AE000CF91089585E3F6CF8091C801811104C08C
:102AF00089E20E94FC1EF0CF85E3FBCF81E0EFCF9F
:102B00009093CE018093CD010895E091CD01F09195
:102B1000CE01309721F00190F081E02D099480E002
:102B20000895E091CD01F091CE01309721F002801F
:102B3000F381E02D099408952091CB013091CC01CF
:102B40002817390771F09093CC018093CB01E09165
:102B5000CD01F091CE01309721F00680F781E02D74
:102B6000099408952091C9013091CA0128173907A5
:102B700071F09093CA018093C901E091CD01F09169
:102B8000CE01309721F00084F185E02D099408955D
:102B900084B7806884BF84B7806884BF089508952F
:102BA00008950C94D0150E94C8150E94CF150C945E
:102BB0005A0781E008950C94D9150E94D3200E94F1
:102BC0000C0A0E9432210E9466120E94FE100C9490
:102BD000D1159F92AF92BF92CF92DF92EF92FF9268
:102BE0000F931F93CF93DF93CDB7DEB72A970FB61E
:102BF000F894DEBF0FBECDBF0E94540A0E94DB15C1
:102C0000882309F470C050EDA52E51E0B52E10E0D8
:102C100000E0902E802F0E94FE096C01F501E190EA
:102C2000F1905F01E816F90609F457C08091660239
:102C300081FD0E94070A97012C253D2580E0EE24A6
:102C4000E394F12CA9014E215F21452B09F43FC0EB
:102C50008E839F82CE20DF2081E0CD2809F480E0A2
:102C600088870E94DA208160782F9A8789874E8131
:102C70005F8168858A850E949616000F111FF801F2
:102C8000E053FE4F80819181E826F926F182E082AF
:102C90000E9431110E9485159091CF018917A1F1F1
:102CA0000E9485158093CF012A960FB6F894DEBF57
:102CB0000FBECDBFDF91CF911F910F91FF90EF908D
:102CC000DF90CF90BF90AF909F900C94EA048F5FFD
:102CD000EE0CFF1C803109F0B5CF0F5F1F4F06309F
:102CE000110509F096CF8FEF89838A831B820E949A
:102CF000DA208160782F9D838C8349815A816B8192
:102D00008D810E949616C4CF2A960FB6F894DEBF26
:102D10000FBECDBFDF91CF911F910F91FF90EF902C
:102D2000DF90CF90BF90AF909F900895CF93DF93A7
:102D3000CDB7DEB72B970FB6F894DEBF0FBECDBF71
:102D40004F83588769877A878B871E821D8285E02B
:102D5000FE013796DE01119601900D928A95E1F7FA
:102D600049815A816B817C818D819E812B960FB622
:102D7000F894DEBF0FBECDBFDF91CF910C948A1CBB
:102D8000FC01808191810C94C71ECF93C82F8823AA
:102D900009F483C08238C1F40E94851581FD7DC08D
:102DA00089E30E94F51E0E94591F2FE789EA93E0EC
:102DB000215080409040E1F700C0000089E30E946C
:102DC000FC1ECF910C94591F8338A1F40E948515E5
:102DD00080FD63C083E50E94F51E0E94591F2FE706
:102DE00089EA93E0215080409040E1F700C0000064
:102DF00083E5E5CF8438A1F40E94851582FD4DC09E
:102E000087E40E94F51E0E94591F2FE789EA93E08C
:102E1000215080409040E1F700C0000087E4CFCF10
:102E20008CEF8C0F813A90F46C2F8091A6009091DA
:102E3000A7000E947B20882329F08C2F0E94FC1E73
:102E40000E94591F8C2F0E94F51EBBCF80E28C0F71
:102E5000883048F4C77081E001C0880FCA95EAF74E
:102E60000E941D1FAECFEBE5EC0FE33040F4F0E025
:102E7000ED59FE4F808190E0CF910C949C15C85A7B
:102E8000C73158F4EC2FF0E0EE0FFF1FEB5CFE4F64
:102E900080819181CF910C94B215CF9108958823B0
:102EA00009F44BC0823871F40E94851581FF45C03A
:102EB00089E30E94F51E0E94591F89E30E94FC1EAF
:102EC0000C94591F833859F40E94851580FF35C032
:102ED00083E50E94F51E0E94591F83E5EFCF8438D9
:102EE00059F40E94851582FF28C087E40E94F51ED0
:102EF0000E94591F87E4E2CF9CEF980F913AF0F2BD
:102F000090E2980F983050F4877091E001C0990FCB
:102F10008A95EAF7892F0E94231FD2CF9BE5980F4D
:102F2000933020F490E080E00C949C15885A87310F
:102F300020F490E080E00C94B2150895CF93C82F50
:102F40000E94C516C93349F42FEF8DEE92E021504F
:102F500080409040E1F700C000008C2FCF910C948E
:102F60004F17882321F00E941D1F0C94591F0895AC
:102F7000882321F00E94231F0C94591F0895BF92AB
:102F8000CF92DF92EF92FF920F931F93CF93DF9335
:102F90006C01D62FC72FFC01058102950F7012819D
:102FA00011110E943A1F0E94131FE82E882391F0EE
:102FB0001123E9F08C2F807F803421F080E28D0F87
:102FC0008830A8F082E00E94A41F0E94131F91E0A5
:102FD000E82EE926BC2EB2949FE0B922FBE0FB1557
:102FE000A8F1EB2DF0E0E553FA4D0C949924E12C77
:102FF000F1CF0C2F0F70C07F11F00295007F1123CD
:10300000A9F0002359F080E28D0F883010F0D11123
:1030100009C0802F0E941D1F0E94591F8D2F0E94E2
:10302000C51614C0802F0E942D1FF6CF8D2F0E9431
:103030004F17002359F080E28D0F883010F0D11126
:103040002CC0802F0E94231F0E94591F2B2D285017
:10305000330B2430310520F40E9485150E94EA04C8
:10306000EE2009F483C10E940F1F80FD7FC1F6018D
:1030700012820E94091F0E94961DC6010E94D71944
:103080000E94091FDF91CF911F910F91FF90EF9048
:10309000DF90CF90BF900C94B71D802F0E94331FFC
:1030A000D3CF2C2F2F70F22EC07FC03219F0F294A4
:1030B00080EFF822DD2369F0D13049F1112391F13D
:1030C000002351F1F601858180FFA8CF8F708583A1
:1030D00023C0112381F0011106C00E94401F8F29D7
:1030E0000E94B117B3CF0130C1F70E94401F8F2952
:1030F0000E94461FABCF011106C00E944F1F8F2DAB
:103100000E94B817A3CF013009F4A0CFF6CF112346
:1031100029F0063008F09ACF8F2DE2CF053008F065
:1031200095CFEDCF002359F3D93349F4FFEF2DEEBE
:1031300032E0F15020403040E1F700C000008D2F18
:103140000E944F1783CF8C2F86958695837069F0E8
:10315000813009F07BCF8D2F9C2F9370111102C00D
:1031600090E080E00E94B21571CF8D2F9C2F93705C
:10317000111102C090E080E00E949C1567CF8C2F57
:10318000837009F041C0111161CF4D2F42954695D2
:103190004770440F440F0D2F0F7010E030E020E017
:1031A000042E04C0000F111F221F331F0A94D2F7F0
:1031B00060E070E0CB01D4FF0FC06FE070E080E012
:1031C00090E004C0660F771F881F991F4A95D2F7B9
:1031D0006095709580959095C695C695C370602B47
:1031E000712B822B932BC23049F058F4C13019F067
:1031F0000E94481D2BCF0E94361D28CF0E945A1DC9
:1032000025CF0E94341D22CF8695112311F08C2FDB
:103210008170882309F41ACF4D2F42954695477047
:10322000440F440F0D2F0F7010E030E020E0042E0B
:1032300004C0000F111F221F331F0A94D2F760E051
:1032400070E0CB01D4FF0FC06FE070E080E090E051
:1032500004C0660F771F881F991F4A95D2F76095A3
:10326000709580959095C695C695C370602B712B0F
:10327000822B932BC23049F058F4C13019F00E94D0
:103280000D1EE4CE0E94FB1DE1CE0E941F1EDECE6D
:103290000E94701DDBCECF70112329F08C2F0E946D
:1032A000961D8D2F1DCF8D2F0E94B8178C2F0E9439
:1032B000B71DCCCED23F89F160F4D03FC9F0D13FE9
:1032C00029F1112309F442C00111A8CE8C2F8F716E
:1032D00021C0D33F39F1D43FA1F7112369F1CF7158
:1032E0008C2F0E94961D63E08C2F0E948F1FAECE04
:1032F000112341F0053008F0A9CE8C2F8F710E9468
:10330000DA1DA4CE063008F0A1CEF7CF8C2F8F7136
:10331000112369F20E94961D99CE8C2F8F71112373
:10332000C9F3C5CF112329F08C2F8F710E94811D05
:103330008DCE0E947C1D8ACE81E00E94A41F0230A7
:1033400008F484CE82E00E94A41F80CE002359F0AE
:10335000D93309F0F4CE8FEF9DEEE2E0815090403A
:10336000E040E1F7EACE8C2F8F71A1CFDF91CF91B2
:103370001F910F91FF90EF90DF90CF90BF90089535
:103380000F931F93CF93DF93EC01688179818A813A
:103390000E94D11E8C010E94311E0E94331DB80173
:1033A000CE01DF91CF911F910F910C94BF17CF9356
:1033B000DF93EC018B819C81892B29F08881998195
:1033C00089238F3F59F4DF91CF910895CE010E9458
:1033D000C019CE01DF91CF910C94B007CE010E94AD
:1033E000D7078111F3CF0E94131F882361F38A81CD
:1033F000882349F382E0DF91CF910C94A41F0E94AF
:103400003A1F0E943D1F0E94591F90E080E00E94D9
:103410009C1590E080E00C94B2150E94031F0C9460
:10342000FF190E942A1F0C940D1AE92FE295EF70E4
:10343000E250EE3070F4F0E0E952FA4D0C94992429
:10344000803F19F020F4883E20F481E00895843F05
:10345000E1F380E00895883EC0F3813FD1F7F5CFD6
:1034600093FB882780F908950E94C71E0C94151AB3
:10347000CF93DF9300D000D00F92CDB7DEB70F907F
:103480000F900F900F900F90DF91CF910895CF93F1
:10349000DF9300D000D000D0CDB7DEB726960FB6B0
:1034A000F894DEBF0FBECDBFDF91CF9108951F937B
:1034B000CF93DF93C091DD0116E08091DE018C1384
:1034C00004C0DF91CF911F910895D0E01C9FF001BF
:1034D0001D9FF00D1124E152FE4F40815181628108
:1034E0007381848195810E94471A2196C770E5CF28
:1034F00040910F02509110026091110270911202DE
:1035000080911302909114020C94471A1F93CF9349
:10351000DF9380911402807FA9F4809111028823A7
:1035200089F08091DD01C091DE0160910F02709100
:103530001002A0911202B0911302D62FD72316E0E9
:10354000C81304C0DF91CF911F91089590E01097A8
:1035500011F0DF3F19F401968770F2CF189F9001A8
:10356000199F300D1124F901E152FE4F418147139B
:10357000F2CF40814613EFCF42814111ECCF43811E
:1035800054814A1B5B0B483C510528F7809114027B
:103590008F70806180931402F901EC51FE4F80819D
:1035A0008F70806180838FE092E00E94D719DF9155
:1035B000CF911F910C94571AAF92BF92CF92DF9286
:1035C000EF92FF920F931F93CF93DF93CDB7DEB7A8
:1035D00061970FB6F894DEBF0FBECDBF8C0185E0BA
:1035E000F801DE011D9601900D928A95E1F7F80130
:1035F00040815181E2808FE0C82E82E0D82E609118
:103600001202709113026115710509F461C1909164
:103610000F0220911002892F82238F3F09F458C195
:10362000A380B480F0901102F501E61BF70BFF2098
:1036300009F4FCC080911402382F307FE83CF1057A
:1036400008F0B2C0311179C0FE2C251323C09413A9
:1036500021C0E1101FC08F708061809314020E940E
:10366000781AC6010E94D71980911402F801858347
:103670008F2D61960FB6F894DEBF0FBECDBFDF91E0
:10368000CF911F910F91FF90EF90DF90CF90BF905F
:10369000AF900895AB2829F0842F85238F3F09F040
:1036A00033C180E0F82FF170DF2E80FF3CC08091A5
:1036B000DD012091DE0136E0821315C04D875E8763
:1036C0008D859E850E94C71E292F22952F7022303E
:1036D000F0F0243018F59F70F1F0F8019581907F9B
:1036E000D1F4D12C1EC090E0389FF001399FF00D2D
:1036F0001124E152FE4F6181651306C0608164139D
:1037000003C062816E110FC001968770D5CF9F7084
:1037100011F0882331F3805E883018F3C8010E94CD
:10372000D719FD2CA5CFEE2009F4A2CF8091140269
:10373000816080931402F12C9BCF251306C0941353
:1037400004C0F801EE2009F48DC04D875E878D8599
:103750009E850E94341A882319F1EE2009F1809188
:103760001402803270F020910F02309110023887DD
:103770002F831986BB86AA868C87CE0107960E9466
:10378000D71986E0F801AFE0B2E001900D928A957A
:10379000E1F70E94861A0E94781AFF24F39468CFFA
:1037A000C8010E94D719F9CF311113C07A2DB98AF7
:1037B000A88A6E2D89890E94381A8FE092E00E94B3
:1037C000D71986E0F60111928A95E9F70E94781AD6
:1037D000B2CF25130FC094130DC0E1100BC0F80138
:1037E0008583C8010E94D71986E0F60111928A9557
:1037F000E9F73ECF4D875E878D859E850E94341AFE
:10380000882371F2EE2061F280911402803208F474
:10381000B8CF20910F02309110023A8329831B8286
:10382000BD82AC828E83CE010196A9CFE83CF10522
:1038300008F041C0FE2CEE2009F4B2CF25132AC0B7
:10384000941328C08091140280FD1BC0982F907F94
:10385000C1F0F8018583903F31F0982F907F905F01
:103860008F70892B8583C8010E94D71986E0F801E3
:10387000AFE0B2E001900D928A95E1F70E94781ACC
:10388000F7CE86E0F801AFE0B2E001900D928A95A4
:10389000E1F7EECE4D875E878D859E850E94341AB6
:1038A00081116FCF80911402816080931402C8014E
:1038B0000E94D719DDCE7A2DB98AA88A6E2D898902
:1038C0000E94381A86E0F60111928A95E9F7D6CF60
:1038D000EE2009F465CF4D875E878D859E850E9419
:1038E000341AF82E882309F45BCF86E0F801AFE0A4
:1038F000B2E001900D928A95E1F78FE092E00E948C
:10390000C0160E94861ABACF81E08E25CBCE88ECF5
:1039100090E008951F93CF93DF93CDB7DEB72C9738
:103920000FB6F894DEBF0FBECDBF4F8358876987AF
:103930007A878B879C87CE0107960E94DC1A8823A2
:1039400069F08A859B85892B39F04F815885842FB2
:1039500085238F3F09F071C016E05FC086E0FE014D
:103960003796DE01119601900D928A95E1F78A85CE
:103970009B85892B89F38F81988589238F3F61F3FC
:103980002091DE0130E0C9010196877099274091AE
:10399000DD014817190671F40E94111A1092DE0118
:1039A0001092DD0186E0EFE0F2E0DF011D928A95E2
:1039B000E9F7D2CF96E0929FD001939FB00D1124EA
:1039C000A152BE4FFE01319601900D929A95E1F7FA
:1039D0008093DE010E94571ABFCF819FC00111243E
:1039E00081529E4F0E94DC1A8823E9F0E091DD01AC
:1039F0001E9FF0011124E152FE4F408151816281EE
:103A00007381848195810E94471A8091DD0190E045
:103A10000196877099278093DD018091DD01909157
:103A2000DE018913DACF2C960FB6F894DEBF0FBEF5
:103A3000CDBFDF91CF911F91089569857A858B85E0
:103A40009C850E94471A88CF08950C94241D0E94DB
:103A5000251D6093550270935602809357029093F0
:103A600058020C94FF1908950C94271D0F931F936F
:103A70000091550210915602209157023091580240
:103A8000602B712B822B932B1F910F910C94271D70
:103A90000F931F93009155021091560220915702E7
:103AA0003091580260237123822393231F910F9139
:103AB0000C94271D0F931F930091550210915602ED
:103AC000209157023091580260277127822793274F
:103AD0001F910F910C94271D0C94241D0C946C1DA8
:103AE0000E946E1D609351027093520280935302A4
:103AF000909354020C94FF1960E070E0CB010C9499
:103B0000701D0F931F9341E050E060E070E08A0168
:103B10009B0104C0000F111F221F331F8A95D2F78B
:103B2000C901B8011F910F910C94701D0F931F9341
:103B300041E050E060E070E004C0440F551F661F94
:103B4000771F8A95D2F78091510290915202A091ED
:103B50005302B09154028A019B01082B192B2A2B86
:103B60003B2BC901B8011F910F910C94701D0F934D
:103B70001F9341E050E060E070E004C0440F551F27
:103B8000661F771F8A95D2F7CB01BA0160957095B1
:103B9000809590950091510210915202209153020C
:103BA0003091540260237123822393231F910F913C
:103BB0000C94701D0F931F9341E050E060E070E0A3
:103BC00004C0440F551F661F771F8A95D2F7809156
:103BD000510290915202A0915302B09154028A0175
:103BE0009B01082719272A273B27C901B8011F91E4
:103BF0000F910C94701D0F931F930091510210911F
:103C000052022091530230915402602B712B822B6F
:103C1000932B1F910F910C94701D0F931F93009184
:103C200051021091520220915302309154026023AC
:103C30007123822393231F910F910C94701D0F9376
:103C40001F93009151021091520220915302309122
:103C5000540260277127822793271F910F910C949C
:103C6000701D08959295907F890F982F977041E06D
:103C700001C0440F9A95EAF786958695869595E05A
:103C8000899FF0011124EB5EFD4F30E020E070E0F1
:103C90005191DF011197CB01022E02C096958795B5
:103CA0000A94E2F7817081958527842385278C9378
:103CB0002F5F3F4F2530310559F708959295907F3A
:103CC000890F982F977086958695869525E0829F17
:103CD000F0011124EB5EFD4F50E040E080E02191C7
:103CE00030E0092E02C0369527950A94E2F721703C
:103CF0003327042E01C0220F0A94EAF7822B4F5F6C
:103D00005F4F4530510559F70895BF92CF92DF922A
:103D1000EF92FF920F931F93CF93DF938C01C0908C
:103D20005102D0905202E0905302F09054028091E0
:103D3000550290915602A0915702B0915802C82A9C
:103D4000D92AEA2AFB2ACFE1D0E0BC2ED701C6014E
:103D50000C2E04C0B695A795979587950A94D2F72F
:103D600080FD0EC0219788F7B12C8B2DDF91CF916C
:103D70001F910F91FF90EF90DF90CF90BF9008952B
:103D8000B8018C2F0E943408019761F3EECFCF93D6
:103D9000DF93EC010E94851EBE01DF91CF910C9450
:103DA00034081F93CF93DF93EB019091DC019923AB
:103DB00031F0CB01DF91CF911F910C94C71E882366
:103DC00079F0CB010E94851E182F682FCE010E942A
:103DD000321EBE01812FDF91CF911F910C943408C8
:103DE000CB010E945E1E182FF4CF682F8091A60091
:103DF0009091A7000C94B120682F8091A60090911B
:103E0000A7000C94B3208091A6009091A7000C9479
:103E1000B520809159028595859585950895809165
:103E200059028770089590915902977081E009F4C2
:103E300080E0089580916502089590916502892B34
:103E400080936502089580959091650298239093E0
:103E50006502089510926502089590916402892B7D
:103E600080936402089580959091640298239093C2
:103E700064020895109264020895109263020895F6
:103E800080915A02089508950C94431F90915A020C
:103E9000981721F080935A020C94441F0895809142
:103EA0005A02882329F010925A0280E00C94441F91
:103EB0000895E091A600F091A700809165028083AB
:103EC000E091A600F091A700808190916402892B77
:103ED0008083E091A600F091A70080819091630219
:103EE000892B808390915A02992381F0E091A6005A
:103EF000F091A7008081892B80838091A60090910A
:103F0000A7000E94692081110E944F1F8091A60086
:103F10009091A7000C94911508950C948C1F98E033
:103F2000899F90011124622B609359020E94961D73
:103F3000809159028595859585950C948D1F1092D9
:103F4000590280E00C948D1F90915902809589232D
:103F500080935902282F277071F4282F082E000C07
:103F6000330B9217130639F08595859585950E9438
:103F7000B71D0C949F1F089590E080E00E9450258B
:103F800021E08C3E9E4F09F020E0822F089582E0D0
:103F900090E00C94422583E090E00C944225CF936E
:103FA00084E090E00E944225C82F81E290E00E94C8
:103FB0004225982F8C2FCF910895CF93C92F682F2A
:103FC00084E090E00E9456256C2F81E290E0CF9132
:103FD0000C94562586E090E00C944225682F86E0EC
:103FE00090E00C945625AB01BC018FE090E00C945E
:103FF0006725AB01BC0183E190E00C94672560E08C
:1040000070E0CB010C94F91F60E070E0CB010E94DE
:10401000F31F0C94FF1F6CEE7EEF90E080E00E9497
:10402000732560E082E090E00E94562560E083E026
:1040300090E00E945625109255021092560210925E
:1040400057021092580260E084E090E00E945625EA
:1040500060E081E290E00E94562560E085E090E01B
:104060000E94562560E086E090E00E9456256FEFA2
:1040700087E090E00E94562540E050E0BA0188E0D9
:1040800090E00E94672560E08DE090E00E94562558
:1040900040E050E0BA0188E190E00E94672560E0CE
:1040A00087E190E00E94562540E050E0BA018CE1A3
:1040B00090E00E94672560E080E290E00E94562533
:1040C0000C9404200C940B20682F8EE090E00C944C
:1040D00056259C012E5F3F4FAC01485F5F4F80E04B
:1040E0002417350709F40895F90191919F01992347
:1040F000B9F38F5FF5CF662349F0FC01329608963D
:104100002191261729F0E817F907D1F780E00895E3
:1041100081E008959C01FC0132969FEF80E041917F
:10412000461751F09F3F19F4411101C0982F8F5F3E
:104130008630A9F79F3F09F40895290F311D97FD97
:104140003A95F90162830895FC013296089621910F
:10415000261303C0DF0111971C92E817F907B9F77E
:1041600008950C948A200C94A420029626E0FC0169
:1041700011922A95E9F7089508950895CF930E9422
:10418000BC200E94540A0E94BD20C0E08C2F0E94D7
:10419000FE09892B31F4CF5FC630C1F780E0CF91A3
:1041A000089581E0FCCF8BE083BF8BEB8CBF82E076
:1041B00089BF08952FB7F89480919203909193034B
:1041C000A0919403B09195032FBF08959C014FB720
:1041D000F8948091920390919303A0919403B091ED
:1041E00095034FBF821B930B089578941F921FB6BF
:1041F0001F9211248F939F93AF93BF93809192034B
:1042000090919303A0919403B09195030196A11D01
:10421000B11D8093920390939303A0939403B09362
:104220009503BF91AF919F918F911F901FBE1F90DB
:10423000189560E081E090E00E94792587E090EB9E
:10424000DC018093E8039093E903A093EA03B09321
:10425000EB0388E19CE00FB6F894A89581BD0FBEF2
:1042600091BDFFCF0E94BC1F811102C00E9462203D
:104270000E94C71F809366020E94CF1F90939703EE
:10428000809396030E94CB1F682F70E090E080E03F
:104290000E94341D6091510270915202809153022C
:1042A000909154020C946E1D0E94DA208C010E94A1
:1042B000D3150E9447220E9480150E9428248B9AC1
:1042C00080E0815039F58B987894FFEB24ED31E054
:1042D000F15020403040E1F700C000000E94DD15A1
:1042E000C0E0DCE08091BF038823F1F01092BF03AF
:1042F0000E94DA208C010E9438238091C503882314
:1043000029F08091A30384FD0E94E9150E94EE210B
:10431000C0E0E8CFA895E7EBFBE03197F1F700C0EC
:104320000000CFCFC1E0DECFC8010E94E620069793
:1043300010F4CC2301F30E94BE20C82F882391F3F0
:10434000F89491B3939A892F8C6081BB82B38D27A7
:1043500082BB8FE5EAEEF0E08150E040F040E1F70B
:1043600000C0000082B38D2782BB91BB93987894E4
:10437000B9CF8091F80208950895CF93DF9300D0CC
:104380000F92CDB7DEB790916902981307C02091C4
:104390006702309168022617370791F0809369020F
:1043A000709368026093670289837B836A8380913C
:1043B000DC0384FF05C063E0CE0101960E94342334
:1043C0000F900F900F90DF91CF910895BC0184E082
:1043D0000C94BD21BC0183E00C94BD21CF93DF93ED
:1043E000CAE0D0E08091A30384FF1AC080917502D7
:1043F00090917602981789F028E0829FC0011124DD
:1044000068E089589D4F0E9430238091750290E0AA
:1044100001968F70992780937502DF91CF9108954F
:104420000E94382387EB9BE00197F1F700C0000062
:104430002197C1F6F2CFCF93DF93EC01A0917602E2
:10444000B0E0CD0101968F70992720917502281751
:1044500079F093E0AA0FBB1F9A95E1F7A958BD4FD9
:1044600098E0FE0101900D929A95E1F78093760213
:104470000E9438230E94EE2188E0FE01ADE6B2E002
:1044800001900D928A95E1F7DF91CF91089588EA26
:1044900090E00895FC01808180768032F1F4818182
:1044A000813061F484819581892BB9F48DE692E0A5
:1044B0009093C1038093C00388E00895823041F453
:1044C00087EF92E09093C1038093C00381E0089549
:1044D0008A3029F483818093F70280E0089589303F
:1044E000E1F7828193818115924069F484819581FD
:1044F000892B49F481E080936C02868197819093A7
:104500006B0280936A028FEF0895FC0180916A022A
:1045100090916B02892B61F080916C02813041F4A3
:1045200090819093F80210926B0210926A020895A3
:104530008FEF08950895FC019381933059F130F481
:104540009130C1F09230F1F080E00895913209F499
:1045500045C09232C9F784819581009709F44FC014
:10456000019791F78FEE95E09093C1038093C0037C
:1045700082E3089589EA95E09093C1038093C00394
:1045800082E108958EE695E09093C1038093C00385
:104590008BE308958281813089F0882339F082305D
:1045A000A9F0833089F68BEB95E002C08BEE95E0A5
:1045B0009093C1038093C00384E008958DED95E04E
:1045C0009093C1038093C0038CE0089581EC95E043
:1045D0009093C1038093C0038AE108958281882368
:1045E00031F0813009F0B0CF89E995E002C080E870
:1045F00095E09093C1038093C00389E0089581E220
:1046000096E09093C1038093C00380E408951F93C4
:10461000CF93DF93E82F792F162FEA01888184FF4B
:104620001CC0298188E828272983CE010296DC0155
:104630002E2F372F512F5E0FF90121912D939F01BE
:10464000452F4E1B1416C4F3612F0E948C031C5F70
:104650001883DF91CF911F9108958AE58883E5CF74
:1046600043EA53E00C9407234CED53E00C940723EA
:10467000CF93DF936091C203635067FD12C08091B6
:10468000BE03CCE0D0E0C81BD109CA53DC4F8091F7
:10469000BD03803108F054C0CE010E949A221092CE
:1046A000C2038091B30084FF3EC08091B2008F3F6F
:1046B000D1F1C82F893008F0C8E0982F9C1B909347
:1046C000B2009091980328E892279093980388234A
:1046D000E9F08091C0039091C1032091BC0326FFB3
:1046E000AEC0FC012C2FA9E9B3E034913D93319683
:1046F0002150D9F79C012F5F3F4F8FEF8C0F820F16
:10470000932F911D9093C1038093C0036C2F89E96F
:1047100093E00E948C03CC5FCC3019F08FEF809334
:10472000B200C093B30084E190B39C7031F4815027
:10473000D9F71092C3031092BB03DF91CF91089574
:104740008D3209F069C0683009F0A9CF83EC8093FD
:1047500098038AE58093B3001092BC038881807629
:1047600071F0CE010E944A228F3FC1F4988197FDDB
:104770008E8190E89093BC038093B20090CF2A8101
:104780001092A1039981911111C01092A20321EA04
:1047900033E082E03093C1032093C0039F819111E5
:1047A000EBCF9E81981740F7892FE6CF953029F4FB
:1047B0002093C30321EA33E0EDCF963099F49B8137
:1047C000913021F4CE010E949B2208C09230D1F397
:1047D0009330C1F39132B1F39232A1F390E490930C
:1047E000BC03C2CF983089F0993019F42093C503E7
:1047F000E1CF9A3071F09B30E9F69BE49093A403EB
:104800009093DD039093B003D5CF25EC33E081E0A6
:10481000C1CF21EA33E0FBCF8091BC0387FF3FCFBC
:10482000CE010E9485228F3F21F48EE18093B30058
:1048300036CF882309F433CF1092B20030CFDC0199
:104840002C2FE9E9F3E03D9131932150E1F752CF6C
:10485000CF93DF9385B7886085BF8BB780688BBFA8
:10486000C3EAD3E08BE48983ACEDB3E011968C937B
:104870001197EFEAF3E081838AE588838C93808344
:10488000DF91CF910895991B79E004C0991F961785
:1048900008F0961B881F7A95C9F780950895AA1B82
:1048A000BB1B51E107C0AA1FBB1FA617B70710F01B
:1048B000A61BB70B881F991F5A95A9F7809590954D
:1048C000BC01CD01089597FB072E16F4009407D084
:1048D00077FD09D00E944F2407FC05D03EF4909547
:1048E00081959F4F0895709561957F4F0895A1E23E
:1048F0001A2EAA1BBB1BFD010DC0AA1FBB1FEE1F5A
:10490000FF1FA217B307E407F50720F0A21BB30BA4
:10491000E40BF50B661F771F881F991F1A9469F720
:1049200060957095809590959B01AC01BD01CF017C
:104930000895EE0FFF1F0590F491E02D09940E9459
:10494000A724332312F48A1B9B0B0C94B824A29F38
:10495000B001B39FC001A39F700D811D1124911D53
:10496000B29F700D811D1124911D08950E94A724EE
:10497000B7FF0895821B930B08950E94A724A59F5B
:10498000900DB49F900DA49F800D911D112408954A
:10499000B7FF0C94BD240E94BD24821B930B089585
:1049A0008F929F92AF92BF92CF92DF92EF92FF923F
:1049B000CF93DF93EC01688179818A819B816115B6
:1049C00071058105910521F464E279ED8BE597E0AD
:1049D0002DE133EF41E050E00E94962549015A0154
:1049E0009B01AC01A7EAB1E40E94BD246B017C01EC
:1049F000ACEEB4EFA50194010E94CB24DC01CB0105
:104A00008C0D9D1DAE1DBF1DB7FF03C00197A109F1
:104A1000B04888839983AA83BB839F77DF91CF9126
:104A2000FF90EF90DF90CF90BF90AF909F908F90CE
:104A300008950E94D024089580E690E00E94D0243A
:104A40000895B0E0A0E08093600090936100A0938F
:104A50006200B09363000895FC014150504030F073
:104A600001900616D1F73197CF010895882799272D
:104A70000895FB01DC0102C001900D9241505040AD
:104A8000D8F70895E199FECF9FBB8EBBE09A992796
:104A90008DB30895A6E1B0E044E050E00C94882581
:104AA000A8E1B0E042E050E00C948825262FE1997F
:104AB000FECF9FBB8EBBE09A01970DB2021631F07C
:104AC0002DBB0FB6F894E29AE19A0FBE08950396B3
:104AD000272F0E9457250E945625252F0E945725D3
:104AE000242F0C9457250196272F0E9457250C94AC
:104AF0005625262FE199FECF9FBB8EBB2DBB0FB64F
:104B0000F894E29AE19A0FBE01960895DC01CB0178
:104B1000FC01E199FECF06C0FFBBEEBBE09A3196E7
:104B20000DB20D9241505040B8F70895052E97FBF5
:104B30001EF400940E94AD2557FD07D00E947724F3
:104B400007FC03D04EF40C94AD255095409530955C
:104B500021953F4F4F4F5F4F0895909580957095E9
:104B600061957F4F8F4F9F4F0895F894FFCF0C12A0
:104B700014121B12201225122A122F12341239126B
:104B80003E12431248124C125112541257125A122A
:104B90005D125F126212F917F91751185118A31814
:104BA000261826182618BF184B195A195A19201AF0
:104BB000201A291A291A2B1A291A291A291A201AED
:0A4BC000201A301A291A291A301A97
:104BCA00010000000008080805050808080505088E
:104BDA000808050505C800F40110000000000105D9
:104BEA000000020500000301050104010501050199
:104BFA00050105010102001000101001191A1B1C01
:104C0A001D1E1F2021225B02B9211B22BC21EA2181
:104C1A00E621FF5A070707070707070707070707D6
:104C2A00070707E200E900EA00B500B600B700CDC1
:104C3A00008301CC008A01920194012102230224FB
:104C4A00022502260227022A02B300B4006F00706E
:104C5A0000818283909192939495969760616263A2
:104C6A006465666732333435363700010202020260
:104C7A000606060909090909090F0F0F0F0F0F1573
:104C8A001515181919191919191919191923242572
:104C9A002525252525E200E900EA00B500B600B77A
:104CAA0000CD008301CC008A0192019401210223E4
:104CBA000224022502260227022A02B300B4006F48
:064CCA00007000818283EE
:00000001FF
